{"contracts/OrganicWastegems.sol":{"OrganicWasteGems":{"abi":[{"inputs":[],"stateMutability":"nonpayable","type":"constructor"},{"inputs":[{"internalType":"address","name":"spender","type":"address"},{"internalType":"uint256","name":"allowance","type":"uint256"},{"internalType":"uint256","name":"needed","type":"uint256"}],"name":"ERC20InsufficientAllowance","type":"error"},{"inputs":[{"internalType":"address","name":"sender","type":"address"},{"internalType":"uint256","name":"balance","type":"uint256"},{"internalType":"uint256","name":"needed","type":"uint256"}],"name":"ERC20InsufficientBalance","type":"error"},{"inputs":[{"internalType":"address","name":"approver","type":"address"}],"name":"ERC20InvalidApprover","type":"error"},{"inputs":[{"internalType":"address","name":"receiver","type":"address"}],"name":"ERC20InvalidReceiver","type":"error"},{"inputs":[{"internalType":"address","name":"sender","type":"address"}],"name":"ERC20InvalidSender","type":"error"},{"inputs":[{"internalType":"address","name":"spender","type":"address"}],"name":"ERC20InvalidSpender","type":"error"},{"inputs":[{"internalType":"address","name":"owner","type":"address"}],"name":"OwnableInvalidOwner","type":"error"},{"inputs":[{"internalType":"address","name":"account","type":"address"}],"name":"OwnableUnauthorizedAccount","type":"error"},{"anonymous":false,"inputs":[{"indexed":true,"internalType":"address","name":"owner","type":"address"},{"indexed":true,"internalType":"address","name":"spender","type":"address"},{"indexed":false,"internalType":"uint256","name":"value","type":"uint256"}],"name":"Approval","type":"event"},{"anonymous":false,"inputs":[{"indexed":true,"internalType":"address","name":"farmer","type":"address"},{"indexed":false,"internalType":"uint256","name":"co2Grams","type":"uint256"},{"indexed":false,"internalType":"uint256","name":"timestamp","type":"uint256"}],"name":"CarbonCreditIssued","type":"event"},{"anonymous":false,"inputs":[{"indexed":true,"internalType":"address","name":"farmer","type":"address"},{"indexed":true,"internalType":"address","name":"buyer","type":"address"},{"indexed":false,"internalType":"uint256","name":"tonsVo2","type":"uint256"},{"indexed":false,"internalType":"uint256","name":"priceKES","type":"uint256"},{"indexed":false,"internalType":"uint256","name":"timestamp","type":"uint256"}],"name":"CarbonCreditSold","type":"event"},{"anonymous":false,"inputs":[{"indexed":true,"internalType":"address","name":"farmer","type":"address"},{"indexed":false,"internalType":"address","name":"worker","type":"address"},{"indexed":false,"internalType":"uint256","name":"amountKES","type":"uint256"},{"indexed":false,"internalType":"uint256","name":"timestamp","type":"uint256"}],"name":"FarmerRegistered","type":"event"},{"anonymous":false,"inputs":[{"indexed":true,"internalType":"address","name":"farmer","type":"address"},{"indexed":false,"internalType":"uint256","name":"timestamp","type":"uint256"}],"name":"FarmerVerified","type":"event"},{"anonymous":false,"inputs":[{"indexed":true,"internalType":"address","name":"previousOwner","type":"address"},{"indexed":true,"internalType":"address","name":"newOwner","type":"address"}],"name":"OwnershipTransferred","type":"event"},{"anonymous":false,"inputs":[{"indexed":true,"internalType":"address","name":"farmer","type":"address"},{"indexed":false,"internalType":"uint256","name":"productKg","type":"uint256"},{"indexed":false,"internalType":"uint256","name":"tokensminted","type":"uint256"},{"indexed":false,"internalType":"uint256","name":"timestamp","type":"uint256"}],"name":"ProductClaimed","type":"event"},{"anonymous":false,"inputs":[{"indexed":true,"internalType":"address","name":"from","type":"address"},{"indexed":true,"internalType":"address","name":"to","type":"address"},{"indexed":false,"internalType":"uint256","name":"value","type":"uint256"}],"name":"Transfer","type":"event"},{"anonymous":false,"inputs":[{"indexed":true,"internalType":"address","name":"farmer","type":"address"},{"indexed":false,"internalType":"uint256","name":"kg","type":"uint256"},{"indexed":false,"internalType":"uint256","name":"tokensMinted","type":"uint256"},{"indexed":false,"internalType":"uint256","name":"CO2Saved","type":"uint256"},{"indexed":false,"internalType":"uint256","name":"workersInvolved","type":"uint256"},{"indexed":false,"internalType":"uint256","name":"workerPayment","type":"uint256"},{"indexed":false,"internalType":"uint256","name":"timestamp","type":"uint256"}],"name":"WasteProcessed","type":"event"},{"anonymous":false,"inputs":[{"indexed":true,"internalType":"address","name":"farmer","type":"address"},{"indexed":false,"internalType":"address","name":"worker","type":"address"},{"indexed":false,"internalType":"uint256","name":"amountKES","type":"uint256"},{"indexed":false,"internalType":"uint256","name":"timestamp","type":"uint256"}],"name":"WorkerPaid","type":"event"},{"inputs":[],"name":"CO2_PER_KG","outputs":[{"internalType":"uint256","name":"","type":"uint256"}],"stateMutability":"view","type":"function"},{"inputs":[],"name":"TOKENS_PER_10KG","outputs":[{"internalType":"uint256","name":"","type":"uint256"}],"stateMutability":"view","type":"function"},{"inputs":[{"internalType":"address","name":"owner","type":"address"},{"internalType":"address","name":"spender","type":"address"}],"name":"allowance","outputs":[{"internalType":"uint256","name":"","type":"uint256"}],"stateMutability":"view","type":"function"},{"inputs":[{"internalType":"address","name":"spender","type":"address"},{"internalType":"uint256","name":"value","type":"uint256"}],"name":"approve","outputs":[{"internalType":"bool","name":"","type":"bool"}],"stateMutability":"nonpayable","type":"function"},{"inputs":[{"internalType":"address","name":"account","type":"address"}],"name":"balanceOf","outputs":[{"internalType":"uint256","name":"","type":"uint256"}],"stateMutability":"view","type":"function"},{"inputs":[{"internalType":"address","name":"_farmer","type":"address"},{"internalType":"uint256","name":"_tonsCO2","type":"uint256"},{"internalType":"uint256","name":"_priceKES","type":"uint256"}],"name":"buyCarbonCredits","outputs":[],"stateMutability":"payable","type":"function"},{"inputs":[{"internalType":"address","name":"","type":"address"}],"name":"carbonCreditsClaimed","outputs":[{"internalType":"uint256","name":"","type":"uint256"}],"stateMutability":"view","type":"function"},{"inputs":[{"internalType":"address","name":"","type":"address"}],"name":"carbonCreditsEarned","outputs":[{"internalType":"uint256","name":"","type":"uint256"}],"stateMutability":"view","type":"function"},{"inputs":[{"internalType":"uint256","name":"_productKg","type":"uint256"}],"name":"claimProductTokens","outputs":[],"stateMutability":"nonpayable","type":"function"},{"inputs":[{"internalType":"address","name":"","type":"address"}],"name":"corporateCreditsPurchased","outputs":[{"internalType":"uint256","name":"","type":"uint256"}],"stateMutability":"view","type":"function"},{"inputs":[],"name":"decimals","outputs":[{"internalType":"uint8","name":"","type":"uint8"}],"stateMutability":"view","type":"function"},{"inputs":[{"internalType":"address","name":"","type":"address"}],"name":"farmers","outputs":[{"internalType":"bool","name":"isRegistered","type":"bool"},{"internalType":"uint256","name":"totalWasteKg","type":"uint256"},{"internalType":"uint256","name":"totalCO2Saved","type":"uint256"},{"internalType":"uint256","name":"totalProductKg","type":"uint256"},{"internalType":"uint256","name":"totalWorkersPaid","type":"uint256"},{"internalType":"uint256","name":"totalPayoutKES","type":"uint256"}],"stateMutability":"view","type":"function"},{"inputs":[{"internalType":"address","name":"_farmer","type":"address"}],"name":"getAvailableCarbonCredits","outputs":[{"internalType":"uint256","name":"availableTons","type":"uint256"},{"internalType":"uint256","name":"totalEarnedTons","type":"uint256"},{"internalType":"uint256","name":"soldTons","type":"uint256"}],"stateMutability":"view","type":"function"},{"inputs":[],"name":"getGlobalStats","outputs":[{"internalType":"uint256","name":"farmersCount","type":"uint256"},{"internalType":"uint256","name":"wasteKg","type":"uint256"},{"internalType":"uint256","name":"co2SavedKg","type":"uint256"},{"internalType":"uint256","name":"tokensCirculating","type":"uint256"},{"internalType":"uint256","name":"carbonCreditsSoldTons","type":"uint256"}],"stateMutability":"view","type":"function"},{"inputs":[{"internalType":"address","name":"farmer","type":"address"}],"name":"getImpact","outputs":[{"internalType":"uint256","name":"wasteKg","type":"uint256"},{"internalType":"uint256","name":"productKg","type":"uint256"},{"internalType":"uint256","name":"co2Grams","type":"uint256"},{"internalType":"uint256","name":"co2Kg","type":"uint256"},{"internalType":"uint256","name":"tokens","type":"uint256"},{"internalType":"uint256","name":"workersPaid","type":"uint256"},{"internalType":"uint256","name":"totalPayoutKES","type":"uint256"}],"stateMutability":"view","type":"function"},{"inputs":[{"internalType":"address","name":"farmer","type":"address"}],"name":"getWasteHistory","outputs":[{"components":[{"internalType":"uint256","name":"kgCollected","type":"uint256"},{"internalType":"uint256","name":"timestamp","type":"uint256"},{"internalType":"uint256","name":"workersInvolved","type":"uint256"},{"internalType":"uint256","name":"workersPaymentKES","type":"uint256"},{"internalType":"string","name":"wasteType","type":"string"}],"internalType":"struct OrganicWasteGems.WasteCollection[]","name":"","type":"tuple[]"}],"stateMutability":"view","type":"function"},{"inputs":[{"internalType":"address","name":"farmer","type":"address"}],"name":"getWorkerPayments","outputs":[{"components":[{"internalType":"address","name":"worker","type":"address"},{"internalType":"uint256","name":"amountKES","type":"uint256"},{"internalType":"uint256","name":"timestamp","type":"uint256"}],"internalType":"struct OrganicWasteGems.WorkerPayment[]","name":"","type":"tuple[]"}],"stateMutability":"view","type":"function"},{"inputs":[],"name":"globalCO2Saved","outputs":[{"internalType":"uint256","name":"","type":"uint256"}],"stateMutability":"view","type":"function"},{"inputs":[],"name":"globalWasteKg","outputs":[{"internalType":"uint256","name":"","type":"uint256"}],"stateMutability":"view","type":"function"},{"inputs":[],"name":"name","outputs":[{"internalType":"string","name":"","type":"string"}],"stateMutability":"view","type":"function"},{"inputs":[],"name":"owner","outputs":[{"internalType":"address","name":"","type":"address"}],"stateMutability":"view","type":"function"},{"inputs":[{"internalType":"uint256","name":"collectedWasteKg","type":"uint256"},{"internalType":"string","name":"_wasteType","type":"string"},{"internalType":"uint256","name":"_workersInvolved","type":"uint256"},{"internalType":"uint256","name":"_workersPaymentKES","type":"uint256"}],"name":"processWaste","outputs":[],"stateMutability":"nonpayable","type":"function"},{"inputs":[],"name":"register","outputs":[],"stateMutability":"nonpayable","type":"function"},{"inputs":[],"name":"renounceOwnership","outputs":[],"stateMutability":"nonpayable","type":"function"},{"inputs":[],"name":"symbol","outputs":[{"internalType":"string","name":"","type":"string"}],"stateMutability":"view","type":"function"},{"inputs":[],"name":"totalCarbonCreditsSold","outputs":[{"internalType":"uint256","name":"","type":"uint256"}],"stateMutability":"view","type":"function"},{"inputs":[],"name":"totalFarmers","outputs":[{"internalType":"uint256","name":"","type":"uint256"}],"stateMutability":"view","type":"function"},{"inputs":[],"name":"totalSupply","outputs":[{"internalType":"uint256","name":"","type":"uint256"}],"stateMutability":"view","type":"function"},{"inputs":[{"internalType":"address","name":"to","type":"address"},{"internalType":"uint256","name":"value","type":"uint256"}],"name":"transfer","outputs":[{"internalType":"bool","name":"","type":"bool"}],"stateMutability":"nonpayable","type":"function"},{"inputs":[{"internalType":"address","name":"from","type":"address"},{"internalType":"address","name":"to","type":"address"},{"internalType":"uint256","name":"value","type":"uint256"}],"name":"transferFrom","outputs":[{"internalType":"bool","name":"","type":"bool"}],"stateMutability":"nonpayable","type":"function"},{"inputs":[{"internalType":"address","name":"newOwner","type":"address"}],"name":"transferOwnership","outputs":[],"stateMutability":"nonpayable","type":"function"},{"inputs":[{"internalType":"address","name":"","type":"address"}],"name":"verifiedFarmers","outputs":[{"internalType":"bool","name":"","type":"bool"}],"stateMutability":"view","type":"function"},{"inputs":[{"internalType":"address","name":"","type":"address"},{"internalType":"uint256","name":"","type":"uint256"}],"name":"wasteHistory","outputs":[{"internalType":"uint256","name":"kgCollected","type":"uint256"},{"internalType":"uint256","name":"timestamp","type":"uint256"},{"internalType":"uint256","name":"workersInvolved","type":"uint256"},{"internalType":"uint256","name":"workersPaymentKES","type":"uint256"},{"internalType":"string","name":"wasteType","type":"string"}],"stateMutability":"view","type":"function"},{"inputs":[{"internalType":"address","name":"","type":"address"},{"internalType":"uint256","name":"","type":"uint256"}],"name":"workerPayments","outputs":[{"internalType":"address","name":"worker","type":"address"},{"internalType":"uint256","name":"amountKES","type":"uint256"},{"internalType":"uint256","name":"timestamp","type":"uint256"}],"stateMutability":"view","type":"function"}],"evm":{"assembly":"// RO data = 0/0 bytes\n// RW data = 408/66000 bytes\n// Stack size = 32768 bytes\n\n// Instructions = 19378\n// Code size = 69525 bytes\n\n      : @0 (gas: 1)\n     0: jump @14 if a0 == a1\n      : @1 (gas: 9)\n     3: a3 = a1 << 0x20\n     6: a3 = a3 >> 0x20\n     9: a4 = a0 << 0x20\n    12: a4 = a4 >> 0x20\n    15: a4 = a4 + a2\n    18: a3 = a3 - a4\n    21: a4 = a2 << 0x1\n    24: a4 = -a4\n    26: jump @7 if a4 >=u a3\n      : @2 (gas: 1)\n    29: jump @11 if a0 >=u a1\n      : @3 (gas: 1)\n    32: jump @14 if a2 == 0\n      : @4 (gas: 3)\n    35: a2 = a2 + a0\n    38: a3 = a0\n    40: fallthrough\n      : @5 (gas: 6)\n    41: a4 = u8 [a1]\n    43: a1 = a1 + 0x1\n    46: a5 = a3 + 0x1\n    49: u8 [a3] = a4\n    51: a3 = a5\n    53: jump @5 if a5 != a2\n      : @6 (gas: 1)\n    56: jump @14\n      : @7 (gas: 1)\n    58: jump @14 if a2 == 0\n      : @8 (gas: 3)\n    61: a2 = a2 + a0\n    64: a3 = a0\n    66: fallthrough\n      : @9 (gas: 6)\n    67: a4 = u8 [a1]\n    69: a1 = a1 + 0x1\n    72: a5 = a3 + 0x1\n    75: u8 [a3] = a4\n    77: a3 = a5\n    79: jump @9 if a5 != a2\n      : @10 (gas: 1)\n    82: jump @14\n      : @11 (gas: 1)\n    84: jump @14 if a2 == 0\n      : @12 (gas: 2)\n    87: i32 a3 = a2 + 0xffffffffffffffff\n    90: fallthrough\n      : @13 (gas: 7)\n    91: a4 = a1 + a3\n    94: a4 = u8 [a4]\n    96: a2 = a2 + 0xffffffffffffffff\n    99: a5 = a0 + a3\n   102: u8 [a5] = a4\n   104: i32 a3 = a3 + 0xffffffffffffffff\n   107: jump @13 if a2 != 0\n      : @14 (gas: 1)\n   110: ret\n      : @15 (gas: 2)\n   112: a1 = i32 [0x201a0]\n   117: jump @230 if a1 == 0\n      : @16 (gas: 4)\n   121: a0 = 0x301d0\n   126: i32 a0 = a0 + 0\n   128: ecalli 12 // 'set_immutable_data'\n   130: jump @230\n      : @17 (gas: 8)\n   133: sp = sp + 0xfffffffffffffff0\n   136: u64 [sp + 0x8] = ra\n   139: u64 [sp] = s0\n   141: a2 = a1\n   143: s0 = a0\n   145: a1 = 0x20\n   148: a0 = a2\n   150: ra = 2, jump @31\n      : @18 [@dyn 1] (gas: 100)\n   155: a1 = u8 [a0 + 0x1]\n   158: a2 = u8 [a0]\n   160: a3 = u8 [a0 + 0x2]\n   163: a4 = u8 [a0 + 0x3]\n   166: a1 = a1 << 0x8\n   169: a1 = a1 | a2\n   172: a3 = a3 << 0x10\n   175: a4 = a4 << 0x18\n   178: a3 = a3 | a4\n   181: a1 = a1 | a3\n   184: a2 = u8 [a0 + 0x5]\n   187: a3 = u8 [a0 + 0x4]\n   190: a4 = u8 [a0 + 0x6]\n   193: a5 = u8 [a0 + 0x7]\n   196: a2 = a2 << 0x8\n   199: a2 = a2 | a3\n   202: a4 = a4 << 0x10\n   205: a5 = a5 << 0x18\n   208: a4 = a4 | a5\n   211: a2 = a2 | a4\n   214: a2 = a2 << 0x20\n   217: t0 = a2 | a1\n   220: a2 = u8 [a0 + 0x9]\n   223: a3 = u8 [a0 + 0x8]\n   226: a4 = u8 [a0 + 0xa]\n   229: a5 = u8 [a0 + 0xb]\n   232: a2 = a2 << 0x8\n   235: a2 = a2 | a3\n   238: a4 = a4 << 0x10\n   241: a5 = a5 << 0x18\n   244: a4 = a4 | a5\n   247: a2 = a2 | a4\n   250: a3 = u8 [a0 + 0xd]\n   253: a4 = u8 [a0 + 0xc]\n   256: a5 = u8 [a0 + 0xe]\n   259: a1 = u8 [a0 + 0xf]\n   262: a3 = a3 << 0x8\n   265: a3 = a3 | a4\n   268: a5 = a5 << 0x10\n   271: a1 = a1 << 0x18\n   274: a1 = a1 | a5\n   277: a1 = a1 | a3\n   280: a1 = a1 << 0x20\n   283: t1 = a1 | a2\n   286: a1 = u8 [a0 + 0x11]\n   289: a3 = u8 [a0 + 0x10]\n   292: a4 = u8 [a0 + 0x12]\n   295: a5 = u8 [a0 + 0x13]\n   298: a1 = a1 << 0x8\n   301: a1 = a1 | a3\n   304: a4 = a4 << 0x10\n   307: a5 = a5 << 0x18\n   310: a4 = a4 | a5\n   313: a1 = a1 | a4\n   316: a3 = u8 [a0 + 0x15]\n   319: a4 = u8 [a0 + 0x14]\n   322: a5 = u8 [a0 + 0x16]\n   325: a2 = u8 [a0 + 0x17]\n   328: a3 = a3 << 0x8\n   331: a3 = a3 | a4\n   334: a5 = a5 << 0x10\n   337: a2 = a2 << 0x18\n   340: a2 = a2 | a5\n   343: a2 = a2 | a3\n   346: a2 = a2 << 0x20\n   349: a3 = a2 | a1\n   352: a1 = u8 [a0 + 0x19]\n   355: a2 = u8 [a0 + 0x18]\n   358: a4 = u8 [a0 + 0x1a]\n   361: a5 = u8 [a0 + 0x1b]\n   364: a1 = a1 << 0x8\n   367: a1 = a1 | a2\n   370: a4 = a4 << 0x10\n   373: a5 = a5 << 0x18\n   376: a4 = a4 | a5\n   379: a1 = a1 | a4\n   382: a2 = u8 [a0 + 0x1d]\n   385: a4 = u8 [a0 + 0x1c]\n   388: a5 = u8 [a0 + 0x1e]\n   391: a0 = u8 [a0 + 0x1f]\n   394: a2 = a2 << 0x8\n   397: a2 = a2 | a4\n   400: a5 = a5 << 0x10\n   403: a0 = a0 << 0x18\n   406: a0 = a0 | a5\n   409: a0 = a0 | a2\n   412: a0 = a0 << 0x20\n   415: a0 = a0 | a1\n   418: a0 = reverse a0\n   420: a1 = reverse a3\n   422: a2 = reverse t1\n   424: a3 = reverse t0\n   426: u64 [s0 + 0x18] = a3\n   429: u64 [s0 + 0x10] = a2\n   432: u64 [s0 + 0x8] = a1\n   435: u64 [s0] = a0\n   437: ra = u64 [sp + 0x8]\n   440: s0 = u64 [sp]\n   442: sp = sp + 0x10\n   445: ret\n      : @19 (gas: 12)\n   447: sp = sp + 0xffffffffffffffd8\n   450: u64 [sp + 0x20] = ra\n   453: u64 [sp + 0x18] = s0\n   456: u64 [sp + 0x10] = s1\n   459: a2 = u64 [a1]\n   461: u64 [sp + 0x8] = a2\n   464: a2 = u64 [a1 + 0x8]\n   467: u64 [sp] = a2\n   469: s0 = u64 [a1 + 0x10]\n   472: s1 = u64 [a1 + 0x18]\n   475: a1 = 0x20\n   478: ra = 4, jump @31\n      : @20 [@dyn 2] (gas: 71)\n   483: a1 = reverse s1\n   485: a2 = reverse s0\n   487: a3 = u64 [sp]\n   489: a3 = reverse a3\n   491: a4 = u64 [sp + 0x8]\n   494: a4 = reverse a4\n   496: u8 [a0 + 0x18] = a4\n   499: u8 [a0 + 0x10] = a3\n   502: u8 [a0 + 0x8] = a2\n   505: u8 [a0] = a1\n   507: a5 = a4 >> 0x38\n   510: u8 [a0 + 0x1f] = a5\n   513: a5 = a4 >> 0x30\n   516: u8 [a0 + 0x1e] = a5\n   519: a5 = a4 >> 0x28\n   522: u8 [a0 + 0x1d] = a5\n   525: a5 = a4 >> 0x20\n   528: u8 [a0 + 0x1c] = a5\n   531: a5 = a4 >> 0x18\n   534: u8 [a0 + 0x1b] = a5\n   537: a5 = a4 >> 0x10\n   540: u8 [a0 + 0x1a] = a5\n   543: a4 = a4 >> 0x8\n   546: u8 [a0 + 0x19] = a4\n   549: a4 = a3 >> 0x38\n   552: u8 [a0 + 0x17] = a4\n   555: a4 = a3 >> 0x30\n   558: u8 [a0 + 0x16] = a4\n   561: a4 = a3 >> 0x28\n   564: u8 [a0 + 0x15] = a4\n   567: a4 = a3 >> 0x20\n   570: u8 [a0 + 0x14] = a4\n   573: a4 = a3 >> 0x18\n   576: u8 [a0 + 0x13] = a4\n   579: a4 = a3 >> 0x10\n   582: u8 [a0 + 0x12] = a4\n   585: a3 = a3 >> 0x8\n   588: u8 [a0 + 0x11] = a3\n   591: a3 = a2 >> 0x38\n   594: u8 [a0 + 0xf] = a3\n   597: a3 = a2 >> 0x30\n   600: u8 [a0 + 0xe] = a3\n   603: a3 = a2 >> 0x28\n   606: u8 [a0 + 0xd] = a3\n   609: a3 = a2 >> 0x20\n   612: u8 [a0 + 0xc] = a3\n   615: a3 = a2 >> 0x18\n   618: u8 [a0 + 0xb] = a3\n   621: a3 = a2 >> 0x10\n   624: u8 [a0 + 0xa] = a3\n   627: a2 = a2 >> 0x8\n   630: u8 [a0 + 0x9] = a2\n   633: a2 = a1 >> 0x38\n   636: u8 [a0 + 0x7] = a2\n   639: a2 = a1 >> 0x30\n   642: u8 [a0 + 0x6] = a2\n   645: a2 = a1 >> 0x28\n   648: u8 [a0 + 0x5] = a2\n   651: a2 = a1 >> 0x20\n   654: u8 [a0 + 0x4] = a2\n   657: a2 = a1 >> 0x18\n   660: u8 [a0 + 0x3] = a2\n   663: a2 = a1 >> 0x10\n   666: u8 [a0 + 0x2] = a2\n   669: a1 = a1 >> 0x8\n   672: u8 [a0 + 0x1] = a1\n   675: ra = u64 [sp + 0x20]\n   678: s0 = u64 [sp + 0x18]\n   681: s1 = u64 [sp + 0x10]\n   684: sp = sp + 0x28\n   687: ret\n      : @21 (gas: 32)\n   689: sp = sp + 0xffffffffffffffa0\n   692: u64 [sp + 0x58] = ra\n   695: u64 [sp + 0x50] = s0\n   698: u64 [sp + 0x48] = s1\n   701: s0 = sp + 0x60\n   704: sp = sp & 0xffffffffffffffe0\n   707: s1 = a0\n   709: a0 = u64 [a1 + 0x18]\n   712: a2 = u64 [a1 + 0x10]\n   715: a3 = u64 [a1 + 0x8]\n   718: a1 = u64 [a1]\n   720: a0 = reverse a0\n   722: a2 = reverse a2\n   724: a3 = reverse a3\n   726: a1 = reverse a1\n   728: u64 [sp + 0x18] = a1\n   731: u64 [sp + 0x10] = a3\n   734: u64 [sp + 0x8] = a2\n   737: u64 [sp] = a0\n   739: u64 [sp + 56] = 0\n   742: u64 [sp + 48] = 0\n   745: u64 [sp + 40] = 0\n   748: u64 [sp + 32] = 0\n   751: u32 [sp + 64] = 0x20\n   755: i32 a1 = sp + 0\n   757: i32 a3 = sp + 0x20\n   760: i32 a4 = sp + 0x40\n   763: a2 = 0xffffffffffffffff\n   766: a0 = 0\n   768: ra = 0x6\n   771: ecalli 6 // 'get_storage'\n   773: fallthrough\n      : @22 [@dyn 3] (gas: 6)\n   774: a0 = u64 [sp + 0x38]\n   777: a1 = u64 [sp + 0x30]\n   780: a2 = u64 [sp + 0x28]\n   783: a3 = u64 [sp + 0x20]\n   786: a0 = reverse a0\n   788: t0 = 8, jump @2361\n      : @23 [@dyn 4] (gas: 5)\n   794: u64 [s1 + 0x18] = a3\n   797: u64 [s1 + 0x10] = a2\n   800: u64 [s1 + 0x8] = a1\n   803: u64 [s1] = a0\n   805: t0 = 10, jump @2431\n      : @24 [@dyn 5] (gas: 1)\n   811: ret\n      : @25 (gas: 40)\n   813: sp = sp + 0xffffffffffffffa0\n   816: u64 [sp + 0x58] = ra\n   819: u64 [sp + 0x50] = s0\n   822: s0 = sp + 0x60\n   825: sp = sp & 0xffffffffffffffe0\n   828: t0 = u64 [a0]\n   830: a3 = u64 [a0 + 0x8]\n   833: a4 = u64 [a0 + 0x10]\n   836: a0 = u64 [a0 + 0x18]\n   839: t1 = u64 [a1]\n   841: a2 = u64 [a1 + 0x8]\n   844: a5 = u64 [a1 + 0x10]\n   847: a1 = u64 [a1 + 0x18]\n   850: t2 = reverse a0\n   852: a4 = reverse a4\n   854: a3 = reverse a3\n   856: a0 = reverse t0\n   858: t0 = reverse a1\n   860: a5 = reverse a5\n   862: a2 = reverse a2\n   864: a1 = reverse t1\n   866: u64 [sp + 0x18] = a0\n   869: u64 [sp + 0x10] = a3\n   872: u64 [sp + 0x8] = a4\n   875: u64 [sp] = t2\n   877: u64 [sp + 0x38] = a1\n   880: u64 [sp + 0x30] = a2\n   883: u64 [sp + 0x28] = a5\n   886: u64 [sp + 0x20] = t0\n   889: i32 a1 = sp + 0\n   891: i32 a3 = sp + 0x20\n   894: a2 = 0xffffffffffffffff\n   897: a4 = 0x20\n   900: a0 = 0\n   902: ecalli 13 // 'set_storage'\n   904: sp = s0 + 0xffffffffffffffa0\n   907: ra = u64 [sp + 0x58]\n   910: s0 = u64 [sp + 0x50]\n   913: sp = sp + 0x60\n   916: ret\n      : @26 (gas: 24)\n   918: sp = sp + 0xffffffffffffff60\n   922: u64 [sp + 0x98] = ra\n   926: u64 [sp + 0x90] = s0\n   930: u64 [sp + 0x88] = s1\n   934: s0 = sp + 0xa0\n   938: sp = sp & 0xffffffffffffffe0\n   941: a4 = u64 [a3]\n   943: u64 [sp + 0x38] = a4\n   946: a4 = u64 [a3 + 0x8]\n   949: u64 [sp + 0x30] = a4\n   952: a4 = u64 [a3 + 0x10]\n   955: u64 [sp + 0x28] = a4\n   958: a3 = u64 [a3 + 0x18]\n   961: u64 [sp + 0x20] = a3\n   964: a3 = u64 [a2]\n   966: u64 [sp + 0x18] = a3\n   969: a3 = u64 [a2 + 0x8]\n   972: u64 [sp + 0x10] = a3\n   975: a3 = u64 [a2 + 0x10]\n   978: u64 [sp + 0x8] = a3\n   981: a2 = u64 [a2 + 0x18]\n   984: u64 [sp] = a2\n   986: s1 = a1\n   988: ra = 12, jump @31\n      : @27 [@dyn 6] (gas: 35)\n   993: a1 = u64 [sp]\n   995: a1 = reverse a1\n   997: a2 = u64 [sp + 0x8]\n  1000: a2 = reverse a2\n  1002: a3 = u64 [sp + 0x10]\n  1005: a3 = reverse a3\n  1007: a4 = u64 [sp + 0x18]\n  1010: a4 = reverse a4\n  1012: u64 [sp + 0x58] = a4\n  1015: u64 [sp + 0x50] = a3\n  1018: u64 [sp + 0x48] = a2\n  1021: u64 [sp + 0x40] = a1\n  1024: a1 = u64 [sp + 0x20]\n  1027: a1 = reverse a1\n  1029: a2 = u64 [sp + 0x28]\n  1032: a2 = reverse a2\n  1034: a3 = u64 [sp + 0x30]\n  1037: a3 = reverse a3\n  1039: a4 = u64 [sp + 0x38]\n  1042: a4 = reverse a4\n  1044: u64 [sp + 0x78] = a4\n  1047: u64 [sp + 0x70] = a3\n  1050: u64 [sp + 0x68] = a2\n  1053: u64 [sp + 0x60] = a1\n  1056: i32 a2 = a0 + 0\n  1058: i32 a3 = s1 + 0\n  1060: i32 a0 = sp + 0x40\n  1063: a1 = 0x2\n  1066: ecalli 5 // 'deposit_event'\n  1068: sp = s0 + 0xffffffffffffff60\n  1072: ra = u64 [sp + 0x98]\n  1076: s0 = u64 [sp + 0x90]\n  1080: s1 = u64 [sp + 0x88]\n  1084: sp = sp + 0xa0\n  1088: ret\n      : @28 (gas: 33)\n  1090: sp = sp + 0xffffffffffffff20\n  1094: u64 [sp + 0xd8] = ra\n  1098: u64 [sp + 0xd0] = s0\n  1102: u64 [sp + 0xc8] = s1\n  1106: s0 = sp + 0xe0\n  1110: sp = sp & 0xffffffffffffffe0\n  1113: a5 = u64 [a4]\n  1115: u64 [sp + 0x40] = a5\n  1118: a5 = u64 [a4 + 0x8]\n  1121: u64 [sp + 0x48] = a5\n  1124: a5 = u64 [a4 + 0x10]\n  1127: u64 [sp + 0x50] = a5\n  1130: a4 = u64 [a4 + 0x18]\n  1133: u64 [sp + 0x58] = a4\n  1136: t0 = 0xe\n  1139: a4 = u64 [a3]\n  1141: u64 [sp + 0x18] = a4\n  1144: a4 = u64 [a3 + 0x8]\n  1147: u64 [sp + 0x20] = a4\n  1150: a4 = u64 [a3 + 0x10]\n  1153: u64 [sp + 0x28] = a4\n  1156: a3 = u64 [a3 + 0x18]\n  1159: u64 [sp + 0x30] = a3\n  1162: s1 = u64 [a2]\n  1164: a3 = u64 [a2 + 0x8]\n  1167: u64 [sp] = a3\n  1169: a3 = u64 [a2 + 0x10]\n  1172: u64 [sp + 0x8] = a3\n  1175: a2 = u64 [a2 + 0x18]\n  1178: u64 [sp + 0x10] = a2\n  1181: u64 [sp + 0x38] = a1\n  1184: ra = 0x10\n  1187: jump @31\n      : @29 [@dyn 7] (gas: 2)\n  1190: u64 [sp + 0x38] = a1\n  1193: ra = 16, jump @31\n      : @30 [@dyn 8] (gas: 46)\n  1198: a1 = reverse s1\n  1200: u64 [sp + 0x78] = a1\n  1203: a1 = u64 [sp]\n  1205: a1 = reverse a1\n  1207: u64 [sp + 0x70] = a1\n  1210: a1 = u64 [sp + 0x8]\n  1213: a1 = reverse a1\n  1215: u64 [sp + 0x68] = a1\n  1218: a1 = u64 [sp + 0x10]\n  1221: a1 = reverse a1\n  1223: u64 [sp + 0x60] = a1\n  1226: a1 = u64 [sp + 0x18]\n  1229: a1 = reverse a1\n  1231: u64 [sp + 0x98] = a1\n  1235: a1 = u64 [sp + 0x20]\n  1238: a1 = reverse a1\n  1240: u64 [sp + 0x90] = a1\n  1244: a1 = u64 [sp + 0x28]\n  1247: a1 = reverse a1\n  1249: u64 [sp + 0x88] = a1\n  1253: a1 = u64 [sp + 0x30]\n  1256: a1 = reverse a1\n  1258: u64 [sp + 0x80] = a1\n  1262: a1 = u64 [sp + 0x40]\n  1265: a1 = reverse a1\n  1267: u64 [sp + 0xb8] = a1\n  1271: a1 = u64 [sp + 0x48]\n  1274: a1 = reverse a1\n  1276: u64 [sp + 0xb0] = a1\n  1280: a1 = u64 [sp + 0x50]\n  1283: a1 = reverse a1\n  1285: u64 [sp + 0xa8] = a1\n  1289: a1 = u64 [sp + 0x58]\n  1292: a1 = reverse a1\n  1294: u64 [sp + 0xa0] = a1\n  1298: i32 a2 = a0 + 0\n  1300: a3 = i32 [sp + 0x38]\n  1303: i32 a0 = sp + 0x60\n  1306: a1 = 0x3\n  1309: ecalli 5 // 'deposit_event'\n  1311: sp = s0 + 0xffffffffffffff20\n  1315: ra = u64 [sp + 0xd8]\n  1319: s0 = u64 [sp + 0xd0]\n  1323: s1 = u64 [sp + 0xc8]\n  1327: sp = sp + 0xe0\n  1331: ret\n      : @31 (gas: 2)\n  1333: i32 a2 = a0 >> 0x10\n  1336: jump @36 if a2 != 0\n      : @32 (gas: 4)\n  1339: a1 = a1 + a0\n  1342: i32 a1 = a1 + 0x1f\n  1345: a1 = a1 & 0xffffffffffffffe0\n  1348: jump @36 if a1 >u 65536\n      : @33 (gas: 3)\n  1354: a2 = 0x2019c\n  1359: a3 = i32 [0x2019c]\n  1364: jump @35 if a3 >=u a1\n      : @34 (gas: 2)\n  1367: u32 [0x2019c] = a1\n  1372: fallthrough\n      : @35 (gas: 4)\n  1373: a1 = 0x201b0\n  1378: i32 a0 = a0 + 0\n  1380: a0 = a0 + a1\n  1383: ret\n      : @36 (gas: 1)\n  1385: trap\n      : @37 (gas: 6)\n  1386: sp = sp + 0xfffffffffffffff0\n  1389: u64 [sp + 0x8] = ra\n  1392: u64 [sp] = s0\n  1394: s0 = a0 & 0x1\n  1397: ecalli 3 // 'call_data_size'\n  1399: fallthrough\n      : @38 (gas: 2)\n  1400: u32 [0x20198] = a0\n  1405: jump @40 if s0 == 0\n      : @39 (gas: 1)\n  1408: ra = 18, jump @41\n      : @40 [@dyn 9] (gas: 18)\n  1412: ra = 0x14\n  1415: sp = sp + 0xfffffffffffffe10\n  1419: u64 [sp + 0x1e8] = ra\n  1423: u64 [sp + 0x1e0] = s0\n  1427: u64 [sp + 0x1d8] = s1\n  1431: s0 = sp + 0x1f0\n  1435: sp = sp + 0xffffffffffffab90\n  1439: sp = sp & 0xffffffffffffffe0\n  1442: s1 = sp\n  1444: a2 = s1 + 0x4118\n  1448: u64 [a2 + 800] = 0\n  1452: u64 [a2 + 792] = 0\n  1456: u64 [a2 + 776] = 0x80\n  1462: a0 = 0x40\n  1465: a1 = s1 + 0x4420\n  1469: u64 [a2 + 784] = 0\n  1473: ra = 0xe8\n  1477: jump @19\n      : @41 [@dyn 10] (gas: 15)\n  1480: sp = sp + 0xfffffffffffffe10\n  1484: u64 [sp + 0x1e8] = ra\n  1488: u64 [sp + 0x1e0] = s0\n  1492: u64 [sp + 0x1d8] = s1\n  1496: s0 = sp + 0x1f0\n  1500: sp = sp + 0xfffffffffffff8f0\n  1504: sp = sp & 0xffffffffffffffe0\n  1507: s1 = sp\n  1509: u64 [s1 + 1624] = 0\n  1513: u64 [s1 + 1616] = 0\n  1517: u64 [s1 + 1600] = 0x80\n  1523: a0 = 0x40\n  1526: a1 = s1 + 0x640\n  1530: u64 [s1 + 1608] = 0\n  1534: ra = 22, jump @19\n      : @42 [@dyn 11] (gas: 7)\n  1539: u64 [s1 + 1656] = 0\n  1543: u64 [s1 + 1648] = 0\n  1547: u64 [s1 + 1640] = 0\n  1551: u64 [s1 + 1632] = 0\n  1555: i32 a0 = s1 + 0x660\n  1559: ecalli 14 // 'value_transferred'\n  1561: fallthrough\n      : @43 (gas: 9)\n  1562: a4 = s1 + 0x600\n  1566: a0 = u64 [a4 + 0x70]\n  1569: a1 = u64 [a4 + 0x78]\n  1572: a2 = u64 [a4 + 0x68]\n  1575: a3 = u64 [a4 + 0x60]\n  1578: a1 = a1 | a2\n  1581: a0 = a0 | a3\n  1584: a0 = a0 | a1\n  1587: jump @45 if a0 == 0\n      : @44 (gas: 1)\n  1590: jump @185\n      : @45 (gas: 3)\n  1593: a0 = s1 + 0x620\n  1597: a1 = 0x40\n  1600: ra = 24, jump @17\n      : @46 [@dyn 12] (gas: 15)\n  1605: t1 = u64 [s1 + 0x638]\n  1609: a4 = u64 [s1 + 0x630]\n  1613: a5 = u64 [s1 + 0x628]\n  1617: t2 = u64 [s1 + 0x620]\n  1621: a0 = t1 >u 0\n  1623: a1 = a4 >u 0\n  1625: a1 = a0 if t1 != 0\n  1628: a0 = a5 >u 0\n  1630: a2 = t2 <u 0xffffffffffffffc0\n  1633: a2 = a2 ^ 0x1\n  1636: a2 = a0 if a5 != 0\n  1639: a0 = a4 | t1\n  1642: u64 [s1 + 0x118] = a0\n  1646: a2 = a1 if a0 != 0\n  1649: jump @48 if a2 == 0\n      : @47 (gas: 1)\n  1652: jump @186\n      : @48 (gas: 20)\n  1655: a0 = t2 + 0x40\n  1658: a1 = a0 <u t2\n  1661: a2 = a5 + a1\n  1664: a3 = a2 <u a5\n  1667: a3 = a1 if a1 == 0\n  1670: a3 = a3 + a4\n  1673: a1 = a3 <u a4\n  1676: t0 = t1 + a1\n  1679: a1 = s1 + 0x600\n  1683: u64 [a1] = a0\n  1685: u64 [a1 + 0x8] = a2\n  1688: u64 [a1 + 0x10] = a3\n  1691: a0 = 0x40\n  1694: a1 = s1 + 0x600\n  1698: u64 [s1 + 0x618] = t0\n  1702: u64 [s1 + 0xa0] = t1\n  1706: u64 [s1 + 0x98] = a4\n  1710: u64 [s1 + 0xa8] = a5\n  1714: u64 [s1 + 0xb0] = t2\n  1718: ra = 26, jump @19\n      : @49 [@dyn 13] (gas: 12)\n  1723: a0 = u64 [s1 + 0xb0]\n  1727: a2 = u64 [s1 + 0x98]\n  1731: a4 = a0 | a2\n  1734: a1 = u64 [s1 + 0xa0]\n  1738: a3 = u64 [s1 + 0xa8]\n  1742: a1 = a1 | a3\n  1745: a4 = a4 | a1\n  1748: a4 = a4 >> 0x20\n  1751: a1 = a1 | a2\n  1754: a1 = a1 << 0x20\n  1757: a1 = a1 | a4\n  1760: jump @51 if a1 == 0\n      : @50 (gas: 1)\n  1763: jump @184\n      : @51 (gas: 6)\n  1766: u64 [s1 + 1528] = 0\n  1770: u64 [s1 + 1520] = 0\n  1774: u64 [s1 + 1512] = 0\n  1778: a1 = s1 + 0x5e0\n  1782: u64 [s1 + 1504] = 0x10\n  1787: ra = 28, jump @19\n      : @52 [@dyn 14] (gas: 8)\n  1792: a2 = u64 [s1 + 0xb0]\n  1796: a0 = 0xffffffe0\n  1806: a0 = a2 <u a0\n  1809: a1 = u64 [s1 + 0xa8]\n  1813: a0 = 0 if a1 != 0\n  1815: a1 = u64 [s1 + 0x118]\n  1819: a0 = 0 if a1 != 0\n  1821: jump @54 if a0 != 0\n      : @53 (gas: 1)\n  1824: jump @184\n      : @54 (gas: 10)\n  1827: i32 a0 = a2 + 0x20\n  1830: u64 [s1 + 1480] = 0\n  1834: a3 = u64 [0x20000]\n  1839: a2 = u64 [0x20008]\n  1844: u64 [s1 + 1472] = 0\n  1848: u64 [s1 + 0x5d8] = a3\n  1852: a1 = s1 + 0x5c0\n  1856: u64 [s1 + 0x5d0] = a2\n  1860: u64 [s1 + 0xd0] = a0\n  1864: ra = 30, jump @19\n      : @55 [@dyn 15] (gas: 3)\n  1869: a0 = s1 + 0x5a0\n  1873: a1 = 0x40\n  1876: ra = 32, jump @17\n      : @56 [@dyn 16] (gas: 16)\n  1881: t2 = u64 [s1 + 0x5b8]\n  1885: a1 = s1 + 0x500\n  1889: a5 = u64 [a1 + 0xb0]\n  1893: a4 = u64 [a1 + 0xa8]\n  1897: a0 = u64 [a1 + 0xa0]\n  1901: a2 = t2 >u 0\n  1903: a1 = a5 >u 0\n  1905: a1 = a2 if t2 != 0\n  1908: a3 = a4 >u 0\n  1910: a2 = a0 <u 0xffffffffffffffc0\n  1913: a2 = a2 ^ 0x1\n  1916: a2 = a3 if a4 != 0\n  1919: a3 = a5 | t2\n  1922: u64 [s1 + 0x118] = a3\n  1926: a2 = a1 if a3 != 0\n  1929: jump @58 if a2 == 0\n      : @57 (gas: 1)\n  1932: jump @192\n      : @58 (gas: 19)\n  1935: t1 = a0 + 0x40\n  1938: a1 = t1 <u a0\n  1941: a2 = a4 + a1\n  1944: a3 = a2 <u a4\n  1947: a3 = a1 if a1 == 0\n  1950: a3 = a3 + a5\n  1953: a1 = a3 <u a5\n  1956: u64 [s1 + 0x80] = a0\n  1960: t0 = t2 + a1\n  1963: u64 [s1 + 0x580] = t1\n  1967: u64 [s1 + 0x588] = a2\n  1971: u64 [s1 + 0x590] = a3\n  1975: a0 = 0x40\n  1978: a1 = s1 + 0x580\n  1982: u64 [s1 + 0x598] = t0\n  1986: u64 [s1 + 0x70] = a5\n  1989: u64 [s1 + 0x78] = a4\n  1992: u64 [s1 + 0x68] = t2\n  1995: ra = 34, jump @19\n      : @59 [@dyn 17] (gas: 12)\n  2000: a0 = u64 [s1 + 0x80]\n  2004: a2 = u64 [s1 + 0x70]\n  2007: a3 = a0 | a2\n  2010: a1 = u64 [s1 + 0x78]\n  2013: a4 = u64 [s1 + 0x68]\n  2016: a1 = a1 | a4\n  2019: a3 = a3 | a1\n  2022: a3 = a3 >> 0x20\n  2025: a1 = a1 | a2\n  2028: a1 = a1 << 0x20\n  2031: a1 = a1 | a3\n  2034: jump @61 if a1 == 0\n      : @60 (gas: 1)\n  2037: jump @184\n      : @61 (gas: 6)\n  2040: u64 [s1 + 1400] = 0\n  2044: u64 [s1 + 1392] = 0\n  2048: u64 [s1 + 1384] = 0\n  2052: a1 = s1 + 0x560\n  2056: u64 [s1 + 1376] = 0x3\n  2061: ra = 36, jump @19\n      : @62 [@dyn 18] (gas: 8)\n  2066: a2 = u64 [s1 + 0x80]\n  2070: a0 = 0xffffffe0\n  2080: a0 = a2 <u a0\n  2083: a1 = u64 [s1 + 0x78]\n  2086: a0 = 0 if a1 != 0\n  2088: a1 = u64 [s1 + 0x118]\n  2092: a0 = 0 if a1 != 0\n  2094: jump @64 if a0 != 0\n      : @63 (gas: 1)\n  2097: jump @184\n      : @64 (gas: 9)\n  2100: i32 a0 = a2 + 0x20\n  2103: u64 [s1 + 1360] = 0\n  2107: u64 [s1 + 1352] = 0\n  2111: u64 [s1 + 1344] = 0\n  2115: a2 = 0x4f57470000000000\n  2125: a1 = s1 + 0x540\n  2129: u64 [s1 + 0x558] = a2\n  2133: u64 [s1 + 0x18] = a0\n  2136: ra = 38, jump @19\n      : @65 [@dyn 19] (gas: 3)\n  2141: a0 = s1 + 0x520\n  2145: a1 = u64 [s1 + 0xb0]\n  2149: ra = 40, jump @17\n      : @66 [@dyn 20] (gas: 17)\n  2154: a0 = s1 + 0x500\n  2158: a3 = u64 [a0 + 0x38]\n  2161: a1 = u64 [a0 + 0x30]\n  2164: a2 = u64 [a0 + 0x28]\n  2167: a0 = a3 >u 0\n  2169: a4 = a1 >u 0\n  2171: a4 = a0 if a3 != 0\n  2174: u64 [s1 + 0xc8] = a2\n  2178: a0 = a2 >u 0\n  2180: u64 [s1 + 0x58] = a1\n  2183: u64 [s1 + 0xc0] = a3\n  2187: a1 = a1 | a3\n  2190: u64 [s1 + 0x50] = a0\n  2193: u64 [s1 + 0x88] = a4\n  2197: u64 [s1 + 0xb8] = a1\n  2201: a0 = a4 if a1 != 0\n  2204: jump @68 if a0 == 0\n      : @67 (gas: 1)\n  2207: jump @198\n      : @68 (gas: 9)\n  2210: a0 = u64 [s1 + 0x520]\n  2214: u64 [s1 + 0x60] = a0\n  2217: u64 [s1 + 1688] = 0\n  2221: u64 [s1 + 1680] = 0\n  2225: u64 [s1 + 1672] = 0\n  2229: u64 [s1 + 1664] = 0x3\n  2234: a0 = s1 + 0x500\n  2238: a1 = s1 + 0x680\n  2242: ra = 42, jump @21\n      : @69 [@dyn 21] (gas: 6)\n  2247: a4 = s1 + 0x500\n  2251: a0 = u64 [a4 + 0x10]\n  2254: a1 = u64 [a4 + 0x8]\n  2257: a2 = u64 [a4]\n  2259: a3 = u64 [a4 + 0x18]\n  2262: t0 = 44, jump @2374\n      : @70 [@dyn 22] (gas: 12)\n  2268: t0 = a2 <u 0x1\n  2271: ra = a1 & 0x7f\n  2274: t2 = a5 & a0\n  2277: a4 = a5 & t1\n  2280: ra = a1 if a2 != 0\n  2283: a1 = ra <u 0x20\n  2286: a5 = a5 & a3\n  2289: a2 = a1\n  2291: a2 = 0 if a4 != 0\n  2293: a0 = t2 | a5\n  2296: a2 = 0 if a0 != 0\n  2298: jump @72 if t0 == a2\n      : @71 (gas: 1)\n  2301: jump @204\n      : @72 (gas: 1)\n  2304: t0 = 46, jump @2392\n      : @73 [@dyn 23] (gas: 4)\n  2310: a0 = u64 [s1 + 0x60]\n  2313: a0 = a0 <u 0x20\n  2316: u64 [s1 + 0x90] = a0\n  2320: jump @85 if a3 == 0\n      : @74 (gas: 11)\n  2324: u64 [s1 + 0xf0] = a4\n  2328: u64 [s1 + 0xf8] = ra\n  2332: u64 [s1 + 0x100] = a5\n  2336: u64 [s1 + 0x110] = t2\n  2340: u64 [s1 + 1272] = 0\n  2344: u64 [s1 + 1264] = 0\n  2348: u64 [s1 + 1256] = 0\n  2352: a1 = s1 + 0x4e0\n  2356: u64 [s1 + 1248] = 0x3\n  2361: a0 = 0\n  2363: ra = 48, jump @19\n      : @75 [@dyn 24] (gas: 2)\n  2368: a1 = i32 [0x2019c]\n  2373: jump @77 if a1 >u 31\n      : @76 (gas: 2)\n  2377: u32 [0x2019c] = 0x20\n  2383: fallthrough\n      : @77 (gas: 11)\n  2384: a0 = sp + 0xffffffffffffffe0\n  2387: a2 = a0 & 0xffffffffffffffe0\n  2390: u64 [s1 + 0x108] = a2\n  2394: sp = a2\n  2396: a0 = 0x201b0\n  2401: i32 a0 = a0 + 0\n  2403: i32 a2 = a2 + 0\n  2405: a1 = 0x20\n  2408: ra = 0x32\n  2411: ecalli 7 // 'hash_keccak_256'\n  2413: fallthrough\n      : @78 [@dyn 25] (gas: 9)\n  2414: a0 = u64 [s1 + 0x60]\n  2417: a1 = a0 + 0x1f\n  2420: a0 = a1 <u a0\n  2423: a5 = u64 [s1 + 0xc8]\n  2427: a2 = a5 + a0\n  2430: a3 = a2 <u a5\n  2433: a3 = a0 if a0 == 0\n  2436: a4 = u64 [s1 + 0x58]\n  2439: t0 = 52, jump @2369\n      : @79 [@dyn 26] (gas: 35)\n  2445: a1 = u64 [s1 + 0x90]\n  2449: a1 = 0 if a5 != 0\n  2451: a3 = u64 [s1 + 0xb8]\n  2455: a1 = 0 if a3 != 0\n  2457: a4 = 0 if a1 != 0\n  2459: a0 = 0 if a1 != 0\n  2461: t0 = t2 + a0\n  2464: a0 = t0 <u t2\n  2467: a5 = a2 + a0\n  2470: a4 = a4 + a5\n  2473: u64 [s1 + 0x118] = a4\n  2477: a5 = a4 ^ a2\n  2480: a3 = a4 <u a2\n  2483: a3 = a0 if a5 == 0\n  2486: u64 [s1 + 0xe0] = a3\n  2490: a0 = u64 [s1 + 0xf8]\n  2494: ra = a0 + 0x1f\n  2497: a4 = ra <u a0\n  2500: a3 = u64 [s1 + 0xf0]\n  2504: a0 = a3 + a4\n  2507: a5 = a0 <u a3\n  2510: a5 = a4 if a4 == 0\n  2513: t1 = u64 [s1 + 0x110]\n  2517: t1 = t1 + a5\n  2520: a4 = t1 << 0x3b\n  2523: a3 = a0 >> 0x5\n  2526: a3 = a3 | a4\n  2529: a0 = a0 << 0x3b\n  2532: a4 = ra >> 0x5\n  2535: a0 = a0 | a4\n  2538: a0 = a0 + t2\n  2541: u64 [s1 + 0xf8] = a0\n  2545: a0 = a0 <u t2\n  2548: t2 = t0\n  2550: t0 = 54, jump @2419\n      : @80 [@dyn 27] (gas: 16)\n  2556: a0 = u64 [s1 + 0x58]\n  2559: a0 = a4 <u a0\n  2562: a3 = u64 [s1 + 0xc0]\n  2566: a0 = a0 + a3\n  2569: a3 = a4 >> 0x5\n  2572: a4 = a0 << 0x3b\n  2575: a3 = a3 | a4\n  2578: a4 = u64 [s1 + 0x108]\n  2582: t0 = u64 [a4]\n  2584: a4 = u64 [a4 + 0x8]\n  2587: a0 = a0 >> 0x5\n  2590: a3 = 0 if a1 != 0\n  2592: a0 = 0 if a1 != 0\n  2594: a1 = reverse a4\n  2596: a4 = reverse t0\n  2598: t0 = 56, jump @2438\n      : @81 [@dyn 28] (gas: 24)\n  2604: t0 = a0 + a3\n  2607: a0 = u64 [s1 + 0x110]\n  2611: a0 = t1 <u a0\n  2614: a3 = u64 [s1 + 0x100]\n  2618: a0 = a0 + a3\n  2621: a3 = t1 >> 0x5\n  2624: a5 = a0 << 0x3b\n  2627: a3 = a3 | a5\n  2630: a0 = a0 >> 0x5\n  2633: a0 = a0 + a4\n  2636: a4 = u64 [s1 + 0x118]\n  2640: a3 = a3 + a1\n  2643: a1 = a3 <u a1\n  2646: a0 = a0 + a1\n  2649: a2 = a2 + a3\n  2652: u64 [s1 + 0xe8] = a2\n  2656: a1 = a2 <u a3\n  2659: a0 = a0 + a1\n  2662: u64 [s1 + 0xe0] = a0\n  2666: a0 = sp + 0xffffffffffffffe0\n  2669: t1 = a0 & 0xffffffffffffffe0\n  2672: sp = t1\n  2674: u64 [s1 + 0xd8] = t1\n  2678: fallthrough\n      : @82 (gas: 20)\n  2679: a0 = u64 [s1 + 0xf8]\n  2683: a0 = t2 <u a0\n  2686: a2 = u64 [s1 + 0xf0]\n  2690: a1 = a4 ^ a2\n  2693: a2 = a4 <u a2\n  2696: a2 = a0 if a1 == 0\n  2699: a5 = u64 [s1 + 0xe8]\n  2703: a0 = ra <u a5\n  2706: a3 = u64 [s1 + 0xe0]\n  2710: a1 = t0 ^ a3\n  2713: a3 = t0 <u a3\n  2716: a3 = a0 if a1 == 0\n  2719: a0 = ra ^ a5\n  2722: a0 = a0 | a1\n  2725: a3 = a2 if a0 == 0\n  2728: u64 [t1] = t2\n  2730: u64 [t1 + 0x8] = a4\n  2733: u64 [t1 + 0x10] = ra\n  2736: u64 [t1 + 0x18] = t0\n  2739: jump @85 if a3 == 0\n      : @83 (gas: 11)\n  2742: u64 [s1 + 1720] = 0\n  2746: u64 [s1 + 1712] = 0\n  2750: u64 [s1 + 1704] = 0\n  2754: u64 [s1 + 1696] = 0\n  2758: a1 = s1 + 0x6a0\n  2762: a0 = t1\n  2764: u64 [s1 + 0x110] = t2\n  2768: u64 [s1 + 0x118] = a4\n  2772: u64 [s1 + 0x108] = t0\n  2776: u64 [s1 + 0x100] = ra\n  2780: ra = 58, jump @25\n      : @84 [@dyn 29] (gas: 15)\n  2785: t1 = u64 [s1 + 0xd8]\n  2789: t0 = u64 [s1 + 0x108]\n  2793: a4 = u64 [s1 + 0x118]\n  2797: t2 = u64 [s1 + 0x110]\n  2801: t2 = t2 + 0x1\n  2804: a0 = t2 <u 0x1\n  2807: a4 = a4 + a0\n  2810: a0 = t2 | a4\n  2813: a0 = a0 <u 0x1\n  2816: a1 = u64 [s1 + 0x100]\n  2820: a0 = a0 + a1\n  2823: a1 = a0 <u a1\n  2826: t0 = t0 + a1\n  2829: ra = a0\n  2831: jump @82\n      : @85 (gas: 26)\n  2834: a0 = u64 [s1 + 0x90]\n  2838: a0 = a0 ^ 0x1\n  2841: a4 = u64 [s1 + 0xc8]\n  2845: a1 = u64 [s1 + 0x50]\n  2848: a0 = a1 if a4 != 0\n  2851: a1 = u64 [s1 + 0x88]\n  2855: a2 = u64 [s1 + 0xb8]\n  2859: a0 = a1 if a2 != 0\n  2862: t1 = u64 [s1 + 0xc0]\n  2866: t0 = a4 | t1\n  2869: a1 = u64 [s1 + 0x58]\n  2872: a2 = a1 >> 0x3f\n  2875: u64 [s1 + 0x50] = a2\n  2878: t1 = t1 << 0x1\n  2881: a5 = a4 >> 0x3f\n  2884: t2 = a1 << 0x1\n  2887: a3 = u64 [s1 + 0x60]\n  2890: ra = a3 >> 0x3f\n  2893: a4 = a4 << 0x1\n  2896: a2 = a3 << 0x1\n  2899: u64 [s1 + 0x40] = a2\n  2902: u64 [s1 + 0x38] = t1\n  2905: u64 [s1 + 0x30] = ra\n  2908: u64 [s1 + 0x28] = a5\n  2911: u64 [s1 + 0x48] = t2\n  2914: jump @95 if a0 == 0\n      : @86 (gas: 11)\n  2918: u64 [s1 + 0x88] = t0\n  2922: u64 [s1 + 0x20] = a4\n  2925: a3 = a3 & 0xffffffffffffffe0\n  2928: u64 [s1 + 0x90] = a3\n  2932: u64 [s1 + 1208] = 0\n  2936: u64 [s1 + 1200] = 0\n  2940: u64 [s1 + 1192] = 0\n  2944: a1 = s1 + 0x4a0\n  2948: u64 [s1 + 1184] = 0x3\n  2953: a0 = 0\n  2955: ra = 60, jump @19\n      : @87 [@dyn 30] (gas: 7)\n  2960: a0 = sp + 0xffffffffffffffe0\n  2963: a0 = a0 & 0xffffffffffffffe0\n  2966: u64 [s1 + 0xf8] = a0\n  2970: sp = a0\n  2972: a1 = 0x20\n  2975: a0 = 0\n  2977: ra = 62, jump @31\n      : @88 [@dyn 31] (gas: 35)\n  2982: a1 = sp + 0xffffffffffffffe0\n  2985: a1 = a1 & 0xffffffffffffffe0\n  2988: u64 [s1 + 0xf0] = a1\n  2992: sp = a1\n  2994: i32 a0 = a0 + 0\n  2996: i32 a2 = a1 + 0\n  2998: a1 = 0x20\n  3001: ecalli 7 // 'hash_keccak_256'\n  3003: u64 [s1 + 280] = 0x20\n  3008: t0 = 0\n  3010: u64 [s1 + 272] = 0\n  3014: u64 [s1 + 264] = 0\n  3018: a4 = 0\n  3020: a5 = 0\n  3022: ra = 0\n  3024: u64 [s1 + 256] = 0\n  3028: a3 = u64 [s1 + 0xf0]\n  3032: a0 = u64 [a3 + 0x18]\n  3035: a1 = u64 [a3 + 0x10]\n  3038: a2 = u64 [a3 + 0x8]\n  3041: t1 = u64 [a3]\n  3043: a0 = reverse a0\n  3045: a1 = reverse a1\n  3047: a3 = reverse a2\n  3049: t1 = reverse t1\n  3051: t2 = t1\n  3053: a2 = u64 [s1 + 0xf8]\n  3057: u64 [a2 + 0x18] = t1\n  3060: u64 [s1 + 0xd0] = a3\n  3064: u64 [a2 + 0x10] = a3\n  3067: u64 [s1 + 0xf0] = a1\n  3071: u64 [a2 + 0x8] = a1\n  3074: a3 = a0\n  3076: u64 [a2] = a0\n  3078: fallthrough\n      : @89 (gas: 25)\n  3079: u64 [s1 + 0xe8] = t2\n  3083: t1 = a3\n  3085: a0 = u64 [s1 + 0x90]\n  3089: u64 [s1 + 0xe0] = a4\n  3093: a0 = a4 <u a0\n  3096: a4 = a0 ^ 0x1\n  3099: u64 [s1 + 0xd8] = a5\n  3103: a4 = 0x1 if a5 != 0\n  3106: a5 = s1 + 0x100\n  3110: a0 = u64 [a5]\n  3112: a0 = ra | a0\n  3115: a4 = 0x1 if a0 != 0\n  3118: a1 = u64 [s1 + 0xb0]\n  3122: a0 = u64 [a5 + 0x18]\n  3125: a1 = a1 + a0\n  3128: a3 = u64 [s1 + 0xa8]\n  3132: a3 = a3 + t0\n  3135: a2 = u64 [s1 + 0x98]\n  3139: a0 = u64 [a5 + 0x10]\n  3142: a2 = a2 + a0\n  3145: a0 = u64 [s1 + 0xa0]\n  3149: t2 = u64 [s1 + 0x108]\n  3153: t2 = t2 + a0\n  3156: a0 = u64 [s1 + 0x88]\n  3160: jump @97 if a4 != 0\n      : @90 (gas: 9)\n  3164: a0 = u64 [s1 + 0x118]\n  3168: a4 = a1 <u a0\n  3171: a3 = a3 + a4\n  3174: a0 = t0\n  3176: t0 = a3 ^ t0\n  3179: u64 [s1 + 0xc0] = a0\n  3183: a5 = a3 <u a0\n  3186: a5 = a4 if t0 == 0\n  3189: t0 = 64, jump @2373\n      : @91 [@dyn 32] (gas: 2)\n  3195: u64 [s1 + 0xc8] = t1\n  3199: jump @184 if a0 != 0\n      : @92 (gas: 3)\n  3203: a0 = s1 + 0x220\n  3207: u64 [s1 + 0xb8] = ra\n  3211: ra = 66, jump @17\n      : @93 [@dyn 33] (gas: 13)\n  3216: a4 = s1 + 0x200\n  3220: a0 = u64 [a4 + 0x38]\n  3223: a1 = u64 [a4 + 0x30]\n  3226: a2 = u64 [a4 + 0x28]\n  3229: a3 = u64 [a4 + 0x20]\n  3232: a4 = s1 + 0x600\n  3236: u64 [a4 + 0xd8] = a0\n  3240: u64 [a4 + 0xd0] = a1\n  3244: u64 [a4 + 0xc8] = a2\n  3248: u64 [a4 + 0xc0] = a3\n  3252: a1 = s1 + 0x6c0\n  3256: a0 = u64 [s1 + 0xf8]\n  3260: ra = 68, jump @25\n      : @94 [@dyn 34] (gas: 57)\n  3265: t2 = u64 [s1 + 0xc8]\n  3269: t2 = t2 + 0x1\n  3272: a0 = t2 <u 0x1\n  3275: t0 = u64 [s1 + 0xf0]\n  3279: t0 = t0 + a0\n  3282: a0 = t2 | t0\n  3285: a0 = a0 <u 0x1\n  3288: a1 = u64 [s1 + 0xd0]\n  3292: t1 = a1 + a0\n  3295: a1 = t1 <u a1\n  3298: a0 = u64 [s1 + 0xe8]\n  3302: a0 = a0 + a1\n  3305: a1 = u64 [s1 + 0x118]\n  3309: a2 = a1 + 0x20\n  3312: u64 [s1 + 0xe8] = a2\n  3316: a3 = a2 <u a1\n  3319: a1 = u64 [s1 + 0xc0]\n  3323: a2 = a1 + a3\n  3326: u64 [s1 + 0xc8] = a2\n  3330: a4 = a2 <u a1\n  3333: a4 = a3 if a3 == 0\n  3336: a1 = u64 [s1 + 0x110]\n  3340: ra = a1 + a4\n  3343: a4 = ra <u a1\n  3346: a1 = u64 [s1 + 0x108]\n  3350: a1 = a1 + a4\n  3353: u64 [s1 + 0x108] = a1\n  3357: a1 = u64 [s1 + 0xe0]\n  3361: a4 = a1 + 0x20\n  3364: a5 = a4 <u a1\n  3367: a2 = u64 [s1 + 0xd8]\n  3371: a1 = a2 + a5\n  3374: a2 = a1 <u a2\n  3377: a2 = a5 if a5 == 0\n  3380: a3 = u64 [s1 + 0xb8]\n  3384: a2 = a2 + a3\n  3387: a5 = a2 <u a3\n  3390: a3 = u64 [s1 + 0x100]\n  3394: a3 = a3 + a5\n  3397: u64 [s1 + 0x100] = a3\n  3401: a3 = t0\n  3403: u64 [s1 + 0xf0] = a3\n  3407: a5 = u64 [s1 + 0xf8]\n  3411: u64 [a5 + 0x8] = a3\n  3414: a3 = t2\n  3416: u64 [a5] = t2\n  3418: u64 [a5 + 0x10] = t1\n  3421: t2 = a0\n  3423: u64 [a5 + 0x18] = a0\n  3426: u64 [s1 + 0xd0] = t1\n  3430: a0 = u64 [s1 + 0xe8]\n  3434: u64 [s1 + 0x118] = a0\n  3438: t0 = u64 [s1 + 0xc8]\n  3442: u64 [s1 + 0x110] = ra\n  3446: a5 = a1\n  3448: ra = a2\n  3450: jump @89\n      : @95 (gas: 4)\n  3453: a2 = u64 [s1 + 0x50]\n  3456: a0 = a3 | a1\n  3459: a0 = a0 | t0\n  3462: jump @111 if a0 != 0\n      : @96 (gas: 9)\n  3466: u64 [s1 + 256] = 0\n  3470: u64 [s1 + 248] = 0\n  3474: u64 [s1 + 264] = 0\n  3478: u64 [s1 + 272] = 0\n  3482: t1 = u64 [s1 + 0x38]\n  3485: t0 = u64 [s1 + 0x30]\n  3488: a1 = u64 [s1 + 0x28]\n  3491: a5 = u64 [s1 + 0x48]\n  3494: jump @113\n      : @97 (gas: 10)\n  3497: ra = t0\n  3499: t1 = u64 [s1 + 0x60]\n  3502: a4 = u64 [s1 + 0x90]\n  3506: a4 = a4 ^ t1\n  3509: a5 = u64 [s1 + 0x58]\n  3512: a4 = a4 | a5\n  3515: a4 = a4 | a0\n  3518: t0 = u64 [s1 + 0x20]\n  3521: a5 = u64 [s1 + 0x48]\n  3524: jump @110 if a4 == 0\n      : @98 (gas: 7)\n  3528: a0 = u64 [s1 + 0x118]\n  3532: a4 = a1 <u a0\n  3535: a3 = a3 + a4\n  3538: t0 = a3 ^ ra\n  3541: a5 = a3 <u ra\n  3544: a5 = a4 if t0 == 0\n  3547: t0 = 70, jump @2373\n      : @99 [@dyn 35] (gas: 1)\n  3553: jump @184 if a0 != 0\n      : @100 (gas: 2)\n  3557: a0 = s1 + 0x480\n  3561: ra = 72, jump @17\n      : @101 [@dyn 36] (gas: 11)\n  3566: a1 = s1 + 0x400\n  3570: a0 = u64 [a1 + 0x98]\n  3574: u64 [s1 + 0x110] = a0\n  3578: a0 = u64 [a1 + 0x90]\n  3582: u64 [s1 + 0x108] = a0\n  3586: a0 = u64 [a1 + 0x88]\n  3590: u64 [s1 + 0x100] = a0\n  3594: a0 = u64 [a1 + 0x80]\n  3598: u64 [s1 + 0xf0] = a0\n  3602: a0 = u64 [s1 + 0x60]\n  3605: t0 = 74, jump @2420\n      : @102 [@dyn 37] (gas: 1)\n  3611: ra = 76, jump @2460\n      : @103 [@dyn 38] (gas: 6)\n  3617: u64 [s1 + 0xe8] = a0\n  3621: u64 [s1 + 0xd0] = a1\n  3625: a0 = 0xffffffffffffffff\n  3628: a1 = 0xffffffffffffffff\n  3631: a2 = u64 [s1 + 0x118]\n  3635: ra = 78, jump @2455\n      : @104 [@dyn 39] (gas: 1)\n  3641: t0 = 80, jump @2428\n      : @105 [@dyn 40] (gas: 1)\n  3647: ra = 82, jump @2455\n      : @106 [@dyn 41] (gas: 1)\n  3653: t0 = 84, jump @2354\n      : @107 [@dyn 42] (gas: 2)\n  3659: a2 = u64 [s1 + 0x100]\n  3663: t0 = 86, jump @2443\n      : @108 [@dyn 43] (gas: 8)\n  3669: a4 = s1 + 0x600\n  3673: u64 [a4 + 0xf8] = a3\n  3677: u64 [a4 + 0xf0] = a2\n  3681: u64 [a4 + 0xe8] = a1\n  3685: u64 [a4 + 0xe0] = a0\n  3689: a1 = s1 + 0x6e0\n  3693: a0 = u64 [s1 + 0xf8]\n  3697: ra = 88, jump @25\n      : @109 [@dyn 44] (gas: 3)\n  3702: a5 = u64 [s1 + 0x48]\n  3705: t0 = u64 [s1 + 0x20]\n  3708: fallthrough\n      : @110 (gas: 22)\n  3709: a0 = u64 [s1 + 0x50]\n  3712: a1 = u64 [s1 + 0x38]\n  3715: a0 = a0 | a1\n  3718: a1 = u64 [s1 + 0x28]\n  3721: a1 = a1 | a5\n  3724: a2 = u64 [s1 + 0x30]\n  3727: a2 = t0 | a2\n  3730: a3 = u64 [s1 + 0x40]\n  3733: a3 = a3 + 0x1\n  3736: u64 [s1 + 1816] = 0\n  3740: u64 [s1 + 1808] = 0\n  3744: u64 [s1 + 1800] = 0\n  3748: a5 = s1 + 0x700\n  3752: u64 [a5 + 0] = 0x3\n  3755: u64 [a5 + 0x20] = a3\n  3758: u64 [a5 + 0x28] = a2\n  3761: u64 [a5 + 0x30] = a1\n  3764: u64 [a5 + 0x38] = a0\n  3767: a0 = s1 + 0x700\n  3771: a1 = s1 + 0x720\n  3775: ra = 0x68\n  3778: jump @25\n      : @111 (gas: 4)\n  3781: a0 = s1 + 0x4c0\n  3785: a1 = u64 [s1 + 0xd0]\n  3789: u64 [s1 + 0x20] = a4\n  3792: ra = 90, jump @17\n      : @112 [@dyn 45] (gas: 16)\n  3797: a5 = u64 [s1 + 0x48]\n  3800: a4 = u64 [s1 + 0x20]\n  3803: a1 = u64 [s1 + 0x28]\n  3806: t0 = u64 [s1 + 0x30]\n  3809: t1 = u64 [s1 + 0x38]\n  3812: a2 = u64 [s1 + 0x50]\n  3815: a3 = u64 [s1 + 0x60]\n  3818: a0 = u64 [s1 + 0x4d8]\n  3822: u64 [s1 + 0x110] = a0\n  3826: a0 = u64 [s1 + 0x4d0]\n  3830: u64 [s1 + 0x108] = a0\n  3834: a0 = u64 [s1 + 0x4c8]\n  3838: u64 [s1 + 0xf8] = a0\n  3842: a0 = u64 [s1 + 0x4c0]\n  3846: u64 [s1 + 0x100] = a0\n  3850: fallthrough\n      : @113 (gas: 7)\n  3851: a0 = a5 | a1\n  3854: u64 [s1 + 0xf0] = a0\n  3858: a0 = t1 | a2\n  3861: u64 [s1 + 0xe8] = a0\n  3865: a0 = a4 | t0\n  3868: u64 [s1 + 0xe0] = a0\n  3872: t0 = 92, jump @2441\n      : @114 [@dyn 46] (gas: 1)\n  3878: ra = 94, jump @2460\n      : @115 [@dyn 47] (gas: 7)\n  3884: u64 [s1 + 0xc0] = a0\n  3888: u64 [s1 + 0xd8] = a1\n  3892: a0 = u64 [s1 + 0x60]\n  3895: i32 a2 = a0 << 0x3\n  3898: a0 = 0xffffffffffffffff\n  3901: a1 = 0xffffffffffffffff\n  3904: ra = 96, jump @2455\n      : @116 [@dyn 48] (gas: 10)\n  3910: u64 [s1 + 0xd0] = a0\n  3914: u64 [s1 + 0xc8] = a1\n  3918: a1 = u64 [s1 + 0xc0]\n  3922: a0 = a0 | a1\n  3925: u64 [s1 + 0xc0] = a0\n  3929: a0 = u64 [s1 + 0x118]\n  3933: i32 a2 = a0 + 0xffffffffffffff80\n  3936: a0 = 0xffffffffffffffff\n  3939: a1 = 0xffffffffffffffff\n  3942: ra = 98, jump @2455\n      : @117 [@dyn 49] (gas: 7)\n  3948: a4 = u64 [s1 + 0x118]\n  3952: a2 = a4 <u 0x80\n  3956: a3 = u64 [s1 + 0xc0]\n  3960: a0 = a3 if a2 != 0\n  3963: a5 = u64 [s1 + 0xc8]\n  3967: a3 = u64 [s1 + 0xd8]\n  3971: t0 = 100, jump @2381\n      : @118 [@dyn 50] (gas: 2)\n  3977: a4 = u64 [s1 + 0xd0]\n  3981: t0 = 102, jump @2376\n      : @119 [@dyn 51] (gas: 20)\n  3987: a4 = u64 [s1 + 0x40]\n  3990: a0 = a0 | a4\n  3993: a4 = u64 [s1 + 0xe0]\n  3997: a1 = a1 | a4\n  4000: a4 = u64 [s1 + 0xe8]\n  4004: a3 = a3 | a4\n  4007: a4 = u64 [s1 + 0xf0]\n  4011: a2 = a2 | a4\n  4014: a5 = s1 + 0x700\n  4018: u64 [a5 + 64] = 0x3\n  4022: u64 [a5 + 0x70] = a2\n  4025: u64 [a5 + 0x78] = a3\n  4028: u64 [a5 + 0x68] = a1\n  4031: u64 [a5 + 0x60] = a0\n  4034: u64 [s1 + 1880] = 0\n  4038: u64 [s1 + 1872] = 0\n  4042: u64 [s1 + 1864] = 0\n  4046: a0 = s1 + 0x740\n  4050: a1 = s1 + 0x760\n  4054: ra = 104, jump @25\n      : @120 [@dyn 52] (gas: 3)\n  4059: a0 = s1 + 0x460\n  4063: a1 = u64 [s1 + 0x80]\n  4067: ra = 106, jump @17\n      : @121 [@dyn 53] (gas: 17)\n  4072: a0 = s1 + 0x400\n  4076: a3 = u64 [a0 + 0x78]\n  4079: a2 = u64 [a0 + 0x70]\n  4082: a1 = u64 [a0 + 0x68]\n  4085: a0 = a3 >u 0\n  4087: a4 = a2 >u 0\n  4089: a4 = a0 if a3 != 0\n  4092: u64 [s1 + 0x98] = a1\n  4096: a0 = a1 >u 0\n  4098: u64 [s1 + 0x90] = a2\n  4102: u64 [s1 + 0x88] = a3\n  4106: a2 = a2 | a3\n  4109: u64 [s1 + 0xb8] = a0\n  4113: u64 [s1 + 0xc0] = a4\n  4117: u64 [s1 + 0xd0] = a2\n  4121: a0 = a4 if a2 != 0\n  4124: jump @210 if a0 != 0\n      : @122 (gas: 9)\n  4128: a0 = u64 [s1 + 0x460]\n  4132: u64 [s1 + 0xa0] = a0\n  4136: u64 [s1 + 1944] = 0\n  4140: u64 [s1 + 1936] = 0\n  4144: u64 [s1 + 1928] = 0\n  4148: u64 [s1 + 1920] = 0x4\n  4153: a0 = s1 + 0x440\n  4157: a1 = s1 + 0x780\n  4161: ra = 108, jump @21\n      : @123 [@dyn 54] (gas: 6)\n  4166: a4 = s1 + 0x400\n  4170: a0 = u64 [a4 + 0x50]\n  4173: a1 = u64 [a4 + 0x48]\n  4176: a2 = u64 [a4 + 0x40]\n  4179: a3 = u64 [a4 + 0x58]\n  4182: t0 = 110, jump @2374\n      : @124 [@dyn 55] (gas: 12)\n  4188: t0 = a2 <u 0x1\n  4191: ra = a1 & 0x7f\n  4194: t2 = a5 & a0\n  4197: a4 = a5 & t1\n  4200: ra = a1 if a2 != 0\n  4203: a1 = ra <u 0x20\n  4206: a5 = a5 & a3\n  4209: a2 = a1\n  4211: a2 = 0 if a4 != 0\n  4213: a0 = t2 | a5\n  4216: a2 = 0 if a0 != 0\n  4218: jump @216 if t0 != a2\n      : @125 (gas: 1)\n  4222: t0 = 112, jump @2392\n      : @126 [@dyn 56] (gas: 4)\n  4228: a0 = u64 [s1 + 0xa0]\n  4232: a0 = a0 <u 0x20\n  4235: u64 [s1 + 0xc8] = a0\n  4239: jump @138 if a3 == 0\n      : @127 (gas: 11)\n  4243: u64 [s1 + 0xf0] = a4\n  4247: u64 [s1 + 0xf8] = ra\n  4251: u64 [s1 + 0x100] = a5\n  4255: u64 [s1 + 0x110] = t2\n  4259: u64 [s1 + 1080] = 0\n  4263: u64 [s1 + 1072] = 0\n  4267: u64 [s1 + 1064] = 0\n  4271: a1 = s1 + 0x420\n  4275: u64 [s1 + 1056] = 0x4\n  4280: a0 = 0\n  4282: ra = 114, jump @19\n      : @128 [@dyn 57] (gas: 2)\n  4287: a1 = i32 [0x2019c]\n  4292: jump @130 if a1 >u 31\n      : @129 (gas: 2)\n  4296: u32 [0x2019c] = 0x20\n  4302: fallthrough\n      : @130 (gas: 11)\n  4303: a0 = sp + 0xffffffffffffffe0\n  4306: a2 = a0 & 0xffffffffffffffe0\n  4309: u64 [s1 + 0x108] = a2\n  4313: sp = a2\n  4315: a0 = 0x201b0\n  4320: i32 a0 = a0 + 0\n  4322: i32 a2 = a2 + 0\n  4324: a1 = 0x20\n  4327: ra = 0x74\n  4330: ecalli 7 // 'hash_keccak_256'\n  4332: fallthrough\n      : @131 [@dyn 58] (gas: 9)\n  4333: a0 = u64 [s1 + 0xa0]\n  4337: a1 = a0 + 0x1f\n  4340: a0 = a1 <u a0\n  4343: a5 = u64 [s1 + 0x98]\n  4347: a2 = a5 + a0\n  4350: a3 = a2 <u a5\n  4353: a3 = a0 if a0 == 0\n  4356: a4 = u64 [s1 + 0x90]\n  4360: t0 = 118, jump @2369\n      : @132 [@dyn 59] (gas: 35)\n  4366: a1 = u64 [s1 + 0xc8]\n  4370: a1 = 0 if a5 != 0\n  4372: a3 = u64 [s1 + 0xd0]\n  4376: a1 = 0 if a3 != 0\n  4378: a4 = 0 if a1 != 0\n  4380: a0 = 0 if a1 != 0\n  4382: t0 = t2 + a0\n  4385: a0 = t0 <u t2\n  4388: a5 = a2 + a0\n  4391: a4 = a4 + a5\n  4394: u64 [s1 + 0x118] = a4\n  4398: a5 = a4 ^ a2\n  4401: a3 = a4 <u a2\n  4404: a3 = a0 if a5 == 0\n  4407: u64 [s1 + 0xe0] = a3\n  4411: a0 = u64 [s1 + 0xf8]\n  4415: ra = a0 + 0x1f\n  4418: a4 = ra <u a0\n  4421: a3 = u64 [s1 + 0xf0]\n  4425: a0 = a3 + a4\n  4428: a5 = a0 <u a3\n  4431: a5 = a4 if a4 == 0\n  4434: t1 = u64 [s1 + 0x110]\n  4438: t1 = t1 + a5\n  4441: a4 = t1 << 0x3b\n  4444: a3 = a0 >> 0x5\n  4447: a3 = a3 | a4\n  4450: a0 = a0 << 0x3b\n  4453: a4 = ra >> 0x5\n  4456: a0 = a0 | a4\n  4459: a0 = a0 + t2\n  4462: u64 [s1 + 0xf8] = a0\n  4466: a0 = a0 <u t2\n  4469: t2 = t0\n  4471: t0 = 120, jump @2419\n      : @133 [@dyn 60] (gas: 16)\n  4477: a0 = u64 [s1 + 0x90]\n  4481: a0 = a4 <u a0\n  4484: a3 = u64 [s1 + 0x88]\n  4488: a0 = a0 + a3\n  4491: a3 = a4 >> 0x5\n  4494: a4 = a0 << 0x3b\n  4497: a3 = a3 | a4\n  4500: a4 = u64 [s1 + 0x108]\n  4504: t0 = u64 [a4]\n  4506: a4 = u64 [a4 + 0x8]\n  4509: a0 = a0 >> 0x5\n  4512: a3 = 0 if a1 != 0\n  4514: a0 = 0 if a1 != 0\n  4516: a1 = reverse a4\n  4518: a4 = reverse t0\n  4520: t0 = 122, jump @2438\n      : @134 [@dyn 61] (gas: 24)\n  4526: t0 = a0 + a3\n  4529: a0 = u64 [s1 + 0x110]\n  4533: a0 = t1 <u a0\n  4536: a3 = u64 [s1 + 0x100]\n  4540: a0 = a0 + a3\n  4543: a3 = t1 >> 0x5\n  4546: a5 = a0 << 0x3b\n  4549: a3 = a3 | a5\n  4552: a0 = a0 >> 0x5\n  4555: a0 = a0 + a4\n  4558: a4 = u64 [s1 + 0x118]\n  4562: a3 = a3 + a1\n  4565: a1 = a3 <u a1\n  4568: a0 = a0 + a1\n  4571: a2 = a2 + a3\n  4574: u64 [s1 + 0xe8] = a2\n  4578: a1 = a2 <u a3\n  4581: a0 = a0 + a1\n  4584: u64 [s1 + 0xe0] = a0\n  4588: a0 = sp + 0xffffffffffffffe0\n  4591: t1 = a0 & 0xffffffffffffffe0\n  4594: sp = t1\n  4596: u64 [s1 + 0xd8] = t1\n  4600: fallthrough\n      : @135 (gas: 20)\n  4601: a0 = u64 [s1 + 0xf8]\n  4605: a0 = t2 <u a0\n  4608: a2 = u64 [s1 + 0xf0]\n  4612: a1 = a4 ^ a2\n  4615: a2 = a4 <u a2\n  4618: a2 = a0 if a1 == 0\n  4621: a5 = u64 [s1 + 0xe8]\n  4625: a0 = ra <u a5\n  4628: a3 = u64 [s1 + 0xe0]\n  4632: a1 = t0 ^ a3\n  4635: a3 = t0 <u a3\n  4638: a3 = a0 if a1 == 0\n  4641: a0 = ra ^ a5\n  4644: a0 = a0 | a1\n  4647: a3 = a2 if a0 == 0\n  4650: u64 [t1] = t2\n  4652: u64 [t1 + 0x8] = a4\n  4655: u64 [t1 + 0x10] = ra\n  4658: u64 [t1 + 0x18] = t0\n  4661: jump @138 if a3 == 0\n      : @136 (gas: 11)\n  4664: u64 [s1 + 1976] = 0\n  4668: u64 [s1 + 1968] = 0\n  4672: u64 [s1 + 1960] = 0\n  4676: u64 [s1 + 1952] = 0\n  4680: a1 = s1 + 0x7a0\n  4684: a0 = t1\n  4686: u64 [s1 + 0x110] = t2\n  4690: u64 [s1 + 0x118] = a4\n  4694: u64 [s1 + 0x108] = t0\n  4698: u64 [s1 + 0x100] = ra\n  4702: ra = 124, jump @25\n      : @137 [@dyn 62] (gas: 15)\n  4707: t1 = u64 [s1 + 0xd8]\n  4711: t0 = u64 [s1 + 0x108]\n  4715: a4 = u64 [s1 + 0x118]\n  4719: t2 = u64 [s1 + 0x110]\n  4723: t2 = t2 + 0x1\n  4726: a0 = t2 <u 0x1\n  4729: a4 = a4 + a0\n  4732: a0 = t2 | a4\n  4735: a0 = a0 <u 0x1\n  4738: a1 = u64 [s1 + 0x100]\n  4742: a0 = a0 + a1\n  4745: a1 = a0 <u a1\n  4748: t0 = t0 + a1\n  4751: ra = a0\n  4753: jump @135\n      : @138 (gas: 9)\n  4756: a0 = u64 [s1 + 0xc8]\n  4760: a0 = a0 ^ 0x1\n  4763: a2 = u64 [s1 + 0x98]\n  4767: a1 = u64 [s1 + 0xb8]\n  4771: a0 = a1 if a2 != 0\n  4774: a1 = u64 [s1 + 0xc0]\n  4778: a3 = u64 [s1 + 0xd0]\n  4782: a0 = a1 if a3 != 0\n  4785: jump @148 if a0 == 0\n      : @139 (gas: 10)\n  4789: a0 = u64 [s1 + 0xa0]\n  4793: a0 = a0 & 0xffffffffffffffe0\n  4796: u64 [s1 + 0xa8] = a0\n  4800: u64 [s1 + 1016] = 0\n  4804: u64 [s1 + 1008] = 0\n  4808: u64 [s1 + 1000] = 0\n  4812: a1 = s1 + 0x3e0\n  4816: u64 [s1 + 992] = 0x4\n  4821: a0 = 0\n  4823: ra = 126, jump @19\n      : @140 [@dyn 63] (gas: 7)\n  4828: a0 = sp + 0xffffffffffffffe0\n  4831: a0 = a0 & 0xffffffffffffffe0\n  4834: u64 [s1 + 0x100] = a0\n  4838: sp = a0\n  4840: a1 = 0x20\n  4843: a0 = 0\n  4845: ra = 128, jump @31\n      : @141 [@dyn 64] (gas: 40)\n  4851: a1 = sp + 0xffffffffffffffe0\n  4854: a1 = a1 & 0xffffffffffffffe0\n  4857: u64 [s1 + 0xf8] = a1\n  4861: sp = a1\n  4863: i32 a0 = a0 + 0\n  4865: i32 a2 = a1 + 0\n  4867: a1 = 0x20\n  4870: ecalli 7 // 'hash_keccak_256'\n  4872: u64 [s1 + 280] = 0x20\n  4877: a5 = 0\n  4879: u64 [s1 + 264] = 0\n  4883: u64 [s1 + 272] = 0\n  4887: a4 = 0\n  4889: a3 = 0\n  4891: a2 = 0\n  4893: t1 = 0\n  4895: a0 = u64 [s1 + 0xf8]\n  4899: t0 = u64 [a0 + 0x18]\n  4902: a1 = u64 [a0 + 0x10]\n  4905: ra = u64 [a0 + 0x8]\n  4908: a0 = u64 [a0]\n  4910: u64 [s1 + 0xf0] = a0\n  4914: a0 = reverse t0\n  4916: u64 [s1 + 0xf8] = a0\n  4920: t2 = reverse a1\n  4922: t0 = reverse ra\n  4924: a0 = u64 [s1 + 0xf0]\n  4928: a1 = reverse a0\n  4930: ra = a1\n  4932: a0 = u64 [s1 + 0x100]\n  4936: u64 [a0 + 0x18] = a1\n  4939: a1 = t0\n  4941: u64 [s1 + 0xb8] = a1\n  4945: u64 [a0 + 0x10] = a1\n  4948: a1 = t2\n  4950: u64 [s1 + 0xe8] = a1\n  4954: u64 [a0 + 0x8] = a1\n  4957: a1 = u64 [s1 + 0xf8]\n  4961: u64 [a0] = a1\n  4963: fallthrough\n      : @142 (gas: 24)\n  4964: u64 [s1 + 0xe0] = ra\n  4968: a0 = u64 [s1 + 0xa8]\n  4972: u64 [s1 + 0xd0] = a4\n  4976: a0 = a4 <u a0\n  4979: a4 = a0 ^ 0x1\n  4982: u64 [s1 + 0xc8] = a3\n  4986: a4 = 0x1 if a3 != 0\n  4989: u64 [s1 + 0xf0] = t1\n  4993: u64 [s1 + 0xd8] = a2\n  4997: a0 = a2 | t1\n  5000: a4 = 0x1 if a0 != 0\n  5003: a0 = u64 [s1 + 0x80]\n  5007: a1 = u64 [s1 + 0x118]\n  5011: a1 = a1 + a0\n  5014: a3 = u64 [s1 + 0x78]\n  5017: u64 [s1 + 0xc0] = a5\n  5021: t0 = a3 + a5\n  5024: t2 = u64 [s1 + 0x70]\n  5027: a2 = u64 [s1 + 0x108]\n  5031: a2 = a2 + t2\n  5034: t1 = u64 [s1 + 0x68]\n  5037: a5 = u64 [s1 + 0x110]\n  5041: t1 = t1 + a5\n  5044: jump @150 if a4 != 0\n      : @143 (gas: 6)\n  5048: ra = a1 <u a0\n  5051: a4 = t0 + ra\n  5054: t0 = a4 ^ a3\n  5057: a5 = a4 <u a3\n  5060: a5 = ra if t0 == 0\n  5063: t0 = 130, jump @2379\n      : @144 [@dyn 65] (gas: 1)\n  5070: jump @184 if a0 != 0\n      : @145 (gas: 2)\n  5074: a0 = s1 + 0x2c0\n  5078: ra = 132, jump @17\n      : @146 [@dyn 66] (gas: 13)\n  5084: a4 = s1 + 0x200\n  5088: a0 = u64 [a4 + 0xd8]\n  5092: a1 = u64 [a4 + 0xd0]\n  5096: a2 = u64 [a4 + 0xc8]\n  5100: a3 = u64 [a4 + 0xc0]\n  5104: a4 = s1 + 0x700\n  5108: u64 [a4 + 0xd8] = a0\n  5112: u64 [a4 + 0xd0] = a1\n  5116: u64 [a4 + 0xc8] = a2\n  5120: u64 [a4 + 0xc0] = a3\n  5124: a1 = s1 + 0x7c0\n  5128: a0 = u64 [s1 + 0x100]\n  5132: ra = 134, jump @25\n      : @147 [@dyn 67] (gas: 55)\n  5138: ra = u64 [s1 + 0xf8]\n  5142: ra = ra + 0x1\n  5145: a0 = ra <u 0x1\n  5148: a3 = u64 [s1 + 0xe8]\n  5152: a3 = a3 + a0\n  5155: a0 = ra | a3\n  5158: a0 = a0 <u 0x1\n  5161: a1 = u64 [s1 + 0xb8]\n  5165: a0 = a0 + a1\n  5168: a1 = a0 <u a1\n  5171: t0 = u64 [s1 + 0xe0]\n  5175: t0 = t0 + a1\n  5178: a1 = u64 [s1 + 0x118]\n  5182: a2 = a1 + 0x20\n  5185: u64 [s1 + 0xe0] = a2\n  5189: a1 = a2 <u a1\n  5192: a2 = u64 [s1 + 0xc0]\n  5196: a4 = a2 + a1\n  5199: u64 [s1 + 0xb0] = a4\n  5203: a4 = a4 <u a2\n  5206: a4 = a1 if a1 == 0\n  5209: a1 = u64 [s1 + 0x108]\n  5213: t2 = a1 + a4\n  5216: a4 = t2 <u a1\n  5219: a1 = u64 [s1 + 0x110]\n  5223: a1 = a1 + a4\n  5226: u64 [s1 + 0x110] = a1\n  5230: a1 = u64 [s1 + 0xd0]\n  5234: a4 = a1 + 0x20\n  5237: a5 = a4 <u a1\n  5240: a2 = u64 [s1 + 0xc8]\n  5244: a1 = a2 + a5\n  5247: a2 = a1 <u a2\n  5250: a2 = a5 if a5 == 0\n  5253: a5 = u64 [s1 + 0xd8]\n  5257: a2 = a2 + a5\n  5260: a5 = a2 <u a5\n  5263: t1 = u64 [s1 + 0xf0]\n  5267: t1 = t1 + a5\n  5270: u64 [s1 + 0xe8] = a3\n  5274: a5 = u64 [s1 + 0x100]\n  5278: u64 [a5 + 0x8] = a3\n  5281: a3 = ra\n  5283: u64 [s1 + 0xf8] = a3\n  5287: u64 [a5] = a3\n  5289: u64 [a5 + 0x10] = a0\n  5292: ra = t0\n  5294: u64 [a5 + 0x18] = t0\n  5297: u64 [s1 + 0xb8] = a0\n  5301: a0 = u64 [s1 + 0xe0]\n  5305: u64 [s1 + 0x118] = a0\n  5309: a5 = u64 [s1 + 0xb0]\n  5313: u64 [s1 + 0x108] = t2\n  5317: a3 = a1\n  5319: jump @142\n      : @148 (gas: 7)\n  5322: a3 = u64 [s1 + 0xa0]\n  5326: a4 = u64 [s1 + 0x90]\n  5330: a0 = a3 | a4\n  5333: a5 = u64 [s1 + 0x88]\n  5337: a1 = a2 | a5\n  5340: a0 = a0 | a1\n  5343: jump @164 if a0 != 0\n      : @149 (gas: 5)\n  5347: u64 [s1 + 256] = 0\n  5351: u64 [s1 + 248] = 0\n  5355: u64 [s1 + 264] = 0\n  5359: u64 [s1 + 272] = 0\n  5363: jump @166\n      : @150 (gas: 12)\n  5366: a4 = u64 [s1 + 0xa8]\n  5370: a5 = u64 [s1 + 0xa0]\n  5374: a4 = a4 ^ a5\n  5377: ra = u64 [s1 + 0x90]\n  5381: a4 = a4 | ra\n  5384: u64 [s1 + 0x118] = a4\n  5388: a5 = u64 [s1 + 0x98]\n  5392: a4 = u64 [s1 + 0x88]\n  5396: a5 = a5 | a4\n  5399: a4 = u64 [s1 + 0x118]\n  5403: a4 = a4 | a5\n  5406: jump @163 if a4 == 0\n      : @151 (gas: 6)\n  5410: ra = a1 <u a0\n  5413: a4 = t0 + ra\n  5416: t0 = a4 ^ a3\n  5419: a5 = a4 <u a3\n  5422: a5 = ra if t0 == 0\n  5425: t0 = 136, jump @2379\n      : @152 [@dyn 68] (gas: 1)\n  5432: jump @184 if a0 != 0\n      : @153 (gas: 2)\n  5436: a0 = s1 + 0x3c0\n  5440: ra = 138, jump @17\n      : @154 [@dyn 69] (gas: 11)\n  5446: a1 = s1 + 0x300\n  5450: a0 = u64 [a1 + 0xd8]\n  5454: u64 [s1 + 0x110] = a0\n  5458: a0 = u64 [a1 + 0xd0]\n  5462: u64 [s1 + 0x108] = a0\n  5466: a0 = u64 [a1 + 0xc8]\n  5470: u64 [s1 + 0xf8] = a0\n  5474: a0 = u64 [a1 + 0xc0]\n  5478: u64 [s1 + 0xf0] = a0\n  5482: a0 = u64 [s1 + 0xa0]\n  5486: t0 = 140, jump @2420\n      : @155 [@dyn 70] (gas: 1)\n  5493: ra = 142, jump @2460\n      : @156 [@dyn 71] (gas: 6)\n  5500: u64 [s1 + 0xe8] = a0\n  5504: u64 [s1 + 0xd0] = a1\n  5508: a0 = 0xffffffffffffffff\n  5511: a1 = 0xffffffffffffffff\n  5514: a2 = u64 [s1 + 0x118]\n  5518: ra = 144, jump @2455\n      : @157 [@dyn 72] (gas: 1)\n  5525: t0 = 146, jump @2428\n      : @158 [@dyn 73] (gas: 1)\n  5532: ra = 148, jump @2455\n      : @159 [@dyn 74] (gas: 1)\n  5539: t0 = 150, jump @2354\n      : @160 [@dyn 75] (gas: 2)\n  5546: a2 = u64 [s1 + 0xf8]\n  5550: t0 = 152, jump @2443\n      : @161 [@dyn 76] (gas: 8)\n  5557: a4 = s1 + 0x700\n  5561: u64 [a4 + 0xf8] = a3\n  5565: u64 [a4 + 0xf0] = a2\n  5569: u64 [a4 + 0xe8] = a1\n  5573: u64 [a4 + 0xe0] = a0\n  5577: a1 = s1 + 0x7e0\n  5581: a0 = u64 [s1 + 0x100]\n  5585: ra = 154, jump @25\n      : @162 [@dyn 77] (gas: 2)\n  5591: ra = u64 [s1 + 0x90]\n  5595: fallthrough\n      : @163 (gas: 36)\n  5596: a0 = ra >> 0x3f\n  5599: a1 = u64 [s1 + 0x88]\n  5603: a1 = a1 << 0x1\n  5606: a0 = a0 | a1\n  5609: a3 = u64 [s1 + 0x98]\n  5613: a1 = a3 >> 0x3f\n  5616: a2 = ra << 0x1\n  5619: a1 = a1 | a2\n  5622: a4 = u64 [s1 + 0xa0]\n  5626: a2 = a4 >> 0x3f\n  5629: a3 = a3 << 0x1\n  5632: a2 = a2 | a3\n  5635: a3 = a4 << 0x1\n  5638: a3 = a3 + 0x1\n  5641: a4 = s1 + 0x1000\n  5645: u64 [a4 + 4294965272] = 0\n  5649: a4 = s1 + 0x1000\n  5653: u64 [a4 + 4294965264] = 0\n  5657: a4 = s1 + 0x1000\n  5661: u64 [a4 + 4294965256] = 0\n  5665: a5 = s1 + 0x1000\n  5669: u64 [a5 + 4294965248] = 0x4\n  5674: a4 = s1 + 0x1000\n  5678: u64 [a4 + 0xfffffffffffff820] = a3\n  5682: a3 = s1 + 0x1000\n  5686: u64 [a3 + 0xfffffffffffff828] = a2\n  5690: a2 = s1 + 0x1000\n  5694: u64 [a2 + 0xfffffffffffff830] = a1\n  5698: a1 = s1 + 0x1000\n  5702: u64 [a1 + 0xfffffffffffff838] = a0\n  5706: a0 = s1 + 0x7ff\n  5710: a0 = a0 + 0x1\n  5713: a1 = s1 + 0x7ff\n  5717: a1 = a1 + 0x21\n  5720: ra = 0xaa\n  5724: jump @25\n      : @164 (gas: 3)\n  5727: a0 = s1 + 0x400\n  5731: a1 = u64 [s1 + 0x18]\n  5734: ra = 156, jump @17\n      : @165 [@dyn 78] (gas: 14)\n  5740: a5 = u64 [s1 + 0x88]\n  5744: a4 = u64 [s1 + 0x90]\n  5748: a2 = u64 [s1 + 0x98]\n  5752: a3 = u64 [s1 + 0xa0]\n  5756: a1 = s1 + 0x400\n  5760: a0 = u64 [a1 + 0x18]\n  5763: u64 [s1 + 0x110] = a0\n  5767: a0 = u64 [a1 + 0x10]\n  5770: u64 [s1 + 0x108] = a0\n  5774: a0 = u64 [a1 + 0x8]\n  5777: u64 [s1 + 0xf8] = a0\n  5781: a0 = u64 [a1]\n  5783: u64 [s1 + 0x100] = a0\n  5787: fallthrough\n      : @166 (gas: 15)\n  5788: a0 = a2 >> 0x3f\n  5791: a1 = a4 << 0x1\n  5794: a0 = a0 | a1\n  5797: u64 [s1 + 0xf0] = a0\n  5801: a0 = a4 >> 0x3f\n  5804: a1 = a5 << 0x1\n  5807: a0 = a0 | a1\n  5810: u64 [s1 + 0xe8] = a0\n  5814: a0 = a3 >> 0x3f\n  5817: a1 = a2 << 0x1\n  5820: a0 = a0 | a1\n  5823: u64 [s1 + 0xe0] = a0\n  5827: a0 = a3 << 0x1\n  5830: u64 [s1 + 0xd8] = a0\n  5834: t0 = 158, jump @2441\n      : @167 [@dyn 79] (gas: 1)\n  5841: ra = 160, jump @2460\n      : @168 [@dyn 80] (gas: 7)\n  5848: u64 [s1 + 0xb8] = a0\n  5852: u64 [s1 + 0xd0] = a1\n  5856: a0 = u64 [s1 + 0xa0]\n  5860: i32 a2 = a0 << 0x3\n  5863: a0 = 0xffffffffffffffff\n  5866: a1 = 0xffffffffffffffff\n  5869: ra = 162, jump @2455\n      : @169 [@dyn 81] (gas: 10)\n  5876: u64 [s1 + 0xc8] = a0\n  5880: u64 [s1 + 0xc0] = a1\n  5884: a1 = u64 [s1 + 0xb8]\n  5888: a0 = a0 | a1\n  5891: u64 [s1 + 0xb8] = a0\n  5895: a0 = u64 [s1 + 0x118]\n  5899: i32 a2 = a0 + 0xffffffffffffff80\n  5902: a0 = 0xffffffffffffffff\n  5905: a1 = 0xffffffffffffffff\n  5908: ra = 164, jump @2455\n      : @170 [@dyn 82] (gas: 7)\n  5915: a4 = u64 [s1 + 0x118]\n  5919: a2 = a4 <u 0x80\n  5923: a3 = u64 [s1 + 0xb8]\n  5927: a0 = a3 if a2 != 0\n  5930: a5 = u64 [s1 + 0xc0]\n  5934: a3 = u64 [s1 + 0xd0]\n  5938: t0 = 166, jump @2381\n      : @171 [@dyn 83] (gas: 2)\n  5945: a4 = u64 [s1 + 0xc8]\n  5949: t0 = 168, jump @2376\n      : @172 [@dyn 84] (gas: 29)\n  5956: a4 = u64 [s1 + 0xd8]\n  5960: a0 = a0 | a4\n  5963: a4 = u64 [s1 + 0xe0]\n  5967: a1 = a1 | a4\n  5970: a4 = u64 [s1 + 0xe8]\n  5974: a3 = a3 | a4\n  5977: a4 = u64 [s1 + 0xf0]\n  5981: a2 = a2 | a4\n  5984: a5 = s1 + 0x1000\n  5988: u64 [a5 + 4294965312] = 0x4\n  5993: a4 = s1 + 0x1000\n  5997: u64 [a4 + 0xfffffffffffff870] = a2\n  6001: a2 = s1 + 0x1000\n  6005: u64 [a2 + 0xfffffffffffff878] = a3\n  6009: a2 = s1 + 0x1000\n  6013: u64 [a2 + 0xfffffffffffff868] = a1\n  6017: a1 = s1 + 0x1000\n  6021: u64 [a1 + 0xfffffffffffff860] = a0\n  6025: a0 = s1 + 0x1000\n  6029: u64 [a0 + 4294965336] = 0\n  6033: a0 = s1 + 0x1000\n  6037: u64 [a0 + 4294965328] = 0\n  6041: a0 = s1 + 0x1000\n  6045: u64 [a0 + 4294965320] = 0\n  6049: a0 = s1 + 0x7ff\n  6053: a0 = a0 + 0x41\n  6056: a1 = s1 + 0x7ff\n  6060: a1 = a1 + 0x61\n  6063: ra = 170, jump @25\n      : @173 [@dyn 85] (gas: 6)\n  6069: a0 = 0x301b0\n  6074: u64 [s1 + 0x118] = a0\n  6078: i32 a0 = a0 + 0\n  6080: u64 [s1 + 0x110] = a0\n  6084: ecalli 4 // 'caller'\n  6086: fallthrough\n      : @174 (gas: 7)\n  6087: a2 = u64 [s1 + 0x118]\n  6091: a0 = u32 [a2 + 0x10]\n  6094: a1 = u64 [a2]\n  6096: a2 = u64 [a2 + 0x8]\n  6099: a0 = a0 | a1\n  6102: a0 = a0 | a2\n  6105: jump @222 if a0 == 0\n      : @175 (gas: 12)\n  6109: a0 = s1 + 0x7ff\n  6113: a0 = a0 + 0x99\n  6117: u64 [a0 + 0] = 0\n  6119: u64 [a0 + 4294967288] = 0\n  6122: a0 = s1 + 0x1000\n  6126: u64 [a0 + 4294965384] = 0\n  6130: a1 = s1 + 0x1000\n  6134: u64 [a1 + 4294965376] = 0x5\n  6139: a0 = s1 + 0x3a0\n  6143: a1 = s1 + 0x7ff\n  6147: a1 = a1 + 0x81\n  6151: ra = 172, jump @21\n      : @176 [@dyn 86] (gas: 14)\n  6157: a0 = u64 [s1 + 0x3a0]\n  6161: u64 [s1 + 0x100] = a0\n  6165: a0 = u64 [s1 + 0x3a8]\n  6169: u64 [s1 + 0xf8] = a0\n  6173: a0 = u64 [s1 + 0x3b8]\n  6177: u64 [s1 + 0xf0] = a0\n  6181: a0 = u64 [s1 + 0x3b0]\n  6185: u64 [s1 + 0x108] = a0\n  6189: a0 = u64 [s1 + 0x110]\n  6193: ra = 0xae\n  6197: ecalli 4 // 'caller'\n  6199: a2 = u64 [s1 + 0x118]\n  6203: t0 = 0xb0\n  6207: jump @2371\n      : @177 [@dyn 87] (gas: 2)\n  6211: a2 = u64 [s1 + 0x118]\n  6215: t0 = 176, jump @2371\n      : @178 [@dyn 88] (gas: 20)\n  6222: a3 = u64 [s1 + 0x108]\n  6226: a3 = a3 >> 0x20\n  6229: a3 = a3 << 0x20\n  6232: a2 = a2 | a3\n  6235: a3 = s1 + 0x7ff\n  6239: a3 = a3 + 0x99\n  6243: u64 [a3 + 32] = 0\n  6246: u64 [a3 + 24] = 0\n  6249: u64 [a3 + 16] = 0\n  6252: u64 [a3 + 8] = 0x5\n  6256: a4 = u64 [s1 + 0xf0]\n  6260: u64 [a3 + 0x40] = a4\n  6263: u64 [a3 + 0x38] = a2\n  6266: u64 [a3 + 0x30] = a0\n  6269: u64 [a3 + 0x28] = a1\n  6272: a0 = s1 + 0x7ff\n  6276: a0 = a0 + 0xa1\n  6280: a1 = s1 + 0x7ff\n  6284: a1 = a1 + 0xc1\n  6288: ra = 178, jump @25\n      : @179 [@dyn 89] (gas: 3)\n  6294: a0 = s1 + 0x380\n  6298: a1 = 0x40\n  6301: ra = 180, jump @17\n      : @180 [@dyn 90] (gas: 12)\n  6307: a0 = u64 [s1 + 0x398]\n  6311: u64 [s1 + 0xf0] = a0\n  6315: a0 = u64 [s1 + 0x390]\n  6319: u64 [s1 + 0xe8] = a0\n  6323: a0 = u64 [s1 + 0x388]\n  6327: u64 [s1 + 0xe0] = a0\n  6331: a0 = u64 [s1 + 0x380]\n  6335: u64 [s1 + 0xd8] = a0\n  6339: a0 = u64 [s1 + 0x110]\n  6343: ra = 0xb6\n  6347: ecalli 4 // 'caller'\n  6349: fallthrough\n      : @181 [@dyn 91] (gas: 3)\n  6350: a4 = s1 + 0x100\n  6354: a2 = u64 [a4 + 0x18]\n  6357: t0 = 184, jump @2359\n      : @182 [@dyn 92] (gas: 34)\n  6364: t0 = a1 | a0\n  6367: a3 = a3 >> 0x20\n  6370: a2 = reverse a2\n  6372: a1 = a2 << 0x20\n  6375: a1 = a1 | a3\n  6378: a2 = a2 >> 0x20\n  6381: a3 = u64 [a4 + 0x8]\n  6384: a3 = a3 << 0x20\n  6387: a3 = a3 >> 0x20\n  6390: u64 [s1 + 824] = 0\n  6394: u64 [s1 + 856] = 0\n  6398: u64 [s1 + 0x350] = a3\n  6402: a0 = u64 [s1 + 0xf8]\n  6406: u64 [s1 + 0x348] = a0\n  6410: a0 = u64 [a4]\n  6412: u64 [s1 + 0x340] = a0\n  6416: a3 = u64 [0x20010]\n  6421: a4 = u64 [0x20018]\n  6426: a5 = u64 [0x20020]\n  6431: a0 = u64 [0x20028]\n  6436: u64 [s1 + 0x378] = a3\n  6440: a3 = s1 + 0x300\n  6444: u64 [a3 + 0x70] = a4\n  6447: u64 [a3 + 0x68] = a5\n  6450: u64 [a3 + 0x60] = a0\n  6453: u64 [a3 + 0x30] = a2\n  6456: u64 [a3 + 0x28] = a1\n  6459: a2 = s1 + 0x360\n  6463: a3 = s1 + 0x340\n  6467: a4 = s1 + 0x320\n  6471: u64 [s1 + 0x320] = t0\n  6475: a0 = 0\n  6477: a1 = 0\n  6479: ra = 186, jump @28\n      : @183 [@dyn 93] (gas: 13)\n  6485: a0 = u64 [s1 + 0xf0]\n  6489: a1 = u64 [s1 + 0xe0]\n  6493: a0 = a0 | a1\n  6496: a1 = u64 [s1 + 0xd8]\n  6500: a2 = a1\n  6502: a3 = u64 [s1 + 0xe8]\n  6506: a1 = a1 | a3\n  6509: a1 = a1 | a0\n  6512: a1 = a1 >> 0x20\n  6515: a0 = a0 | a3\n  6518: a0 = a0 << 0x20\n  6521: a0 = a0 | a1\n  6524: jump @228 if a0 == 0\n      : @184 (gas: 1)\n  6528: trap\n      : @185 (gas: 6)\n  6529: a1 = 0x201b0\n  6534: i32 a1 = a1 + 0\n  6536: a0 = 0x1\n  6539: a2 = 0\n  6541: ecalli 11 // 'seal_return'\n  6543: fallthrough\n      : @186 (gas: 6)\n  6544: u64 [s1 + 336] = 0\n  6548: u64 [s1 + 328] = 0\n  6552: u64 [s1 + 320] = 0\n  6556: t0 = 0xbc\n  6560: a0 = 0x4e487b7100000000\n  6570: fallthrough\n      : @187 [@dyn 94] (gas: 4)\n  6571: a1 = s1 + 0x140\n  6575: u64 [s1 + 0x158] = a0\n  6579: a0 = 0\n  6581: ra = 190, jump @19\n      : @188 [@dyn 95] (gas: 7)\n  6587: u64 [s1 + 312] = 0\n  6591: u64 [s1 + 304] = 0\n  6595: u64 [s1 + 288] = 0x41\n  6600: a0 = 0x4\n  6603: a1 = s1 + 0x120\n  6607: u64 [s1 + 296] = 0\n  6611: ra = 192, jump @19\n      : @189 [@dyn 96] (gas: 2)\n  6617: a1 = i32 [0x2019c]\n  6622: jump @191 if a1 >u 63\n      : @190 (gas: 3)\n  6626: u32 [0x2019c] = 0x40\n  6632: a1 = 0x201b0\n  6637: jump @227\n      : @191 (gas: 2)\n  6640: a1 = 0x201b0\n  6645: jump @227\n      : @192 (gas: 6)\n  6648: u64 [s1 + 400] = 0\n  6652: u64 [s1 + 392] = 0\n  6656: u64 [s1 + 384] = 0\n  6660: t0 = 0xc2\n  6664: a0 = 0x4e487b7100000000\n  6674: fallthrough\n      : @193 [@dyn 97] (gas: 4)\n  6675: a1 = s1 + 0x180\n  6679: u64 [s1 + 0x198] = a0\n  6683: a0 = 0\n  6685: ra = 196, jump @19\n      : @194 [@dyn 98] (gas: 7)\n  6691: u64 [s1 + 376] = 0\n  6695: u64 [s1 + 368] = 0\n  6699: u64 [s1 + 352] = 0x41\n  6704: a0 = 0x4\n  6707: a1 = s1 + 0x160\n  6711: u64 [s1 + 360] = 0\n  6715: ra = 198, jump @19\n      : @195 [@dyn 99] (gas: 2)\n  6721: a1 = i32 [0x2019c]\n  6726: jump @197 if a1 >u 63\n      : @196 (gas: 3)\n  6730: u32 [0x2019c] = 0x40\n  6736: a1 = 0x201b0\n  6741: jump @227\n      : @197 (gas: 2)\n  6744: a1 = 0x201b0\n  6749: jump @227\n      : @198 (gas: 6)\n  6752: u64 [s1 + 464] = 0\n  6756: u64 [s1 + 456] = 0\n  6760: u64 [s1 + 448] = 0\n  6764: t0 = 0xc8\n  6768: a0 = 0x4e487b7100000000\n  6778: fallthrough\n      : @199 [@dyn 100] (gas: 4)\n  6779: a1 = s1 + 0x1c0\n  6783: u64 [s1 + 0x1d8] = a0\n  6787: a0 = 0\n  6789: ra = 202, jump @19\n      : @200 [@dyn 101] (gas: 7)\n  6795: u64 [s1 + 440] = 0\n  6799: u64 [s1 + 432] = 0\n  6803: u64 [s1 + 416] = 0x41\n  6808: a0 = 0x4\n  6811: a1 = s1 + 0x1a0\n  6815: u64 [s1 + 424] = 0\n  6819: ra = 204, jump @19\n      : @201 [@dyn 102] (gas: 2)\n  6825: a1 = i32 [0x2019c]\n  6830: jump @203 if a1 >u 63\n      : @202 (gas: 3)\n  6834: u32 [0x2019c] = 0x40\n  6840: a1 = 0x201b0\n  6845: jump @227\n      : @203 (gas: 2)\n  6848: a1 = 0x201b0\n  6853: jump @227\n      : @204 (gas: 6)\n  6856: u64 [s1 + 528] = 0\n  6860: u64 [s1 + 520] = 0\n  6864: u64 [s1 + 512] = 0\n  6868: t0 = 0xce\n  6872: a0 = 0x4e487b7100000000\n  6882: fallthrough\n      : @205 [@dyn 103] (gas: 4)\n  6883: a1 = s1 + 0x200\n  6887: u64 [s1 + 0x218] = a0\n  6891: a0 = 0\n  6893: ra = 208, jump @19\n      : @206 [@dyn 104] (gas: 7)\n  6899: u64 [s1 + 504] = 0\n  6903: u64 [s1 + 496] = 0\n  6907: u64 [s1 + 480] = 0x22\n  6912: a0 = 0x4\n  6915: a1 = s1 + 0x1e0\n  6919: u64 [s1 + 488] = 0\n  6923: ra = 210, jump @19\n      : @207 [@dyn 105] (gas: 2)\n  6929: a1 = i32 [0x2019c]\n  6934: jump @209 if a1 >u 63\n      : @208 (gas: 3)\n  6938: u32 [0x2019c] = 0x40\n  6944: a1 = 0x201b0\n  6949: jump @227\n      : @209 (gas: 2)\n  6952: a1 = 0x201b0\n  6957: jump @227\n      : @210 (gas: 6)\n  6960: u64 [s1 + 624] = 0\n  6964: u64 [s1 + 616] = 0\n  6968: u64 [s1 + 608] = 0\n  6972: t0 = 0xd4\n  6976: a0 = 0x4e487b7100000000\n  6986: fallthrough\n      : @211 [@dyn 106] (gas: 4)\n  6987: a1 = s1 + 0x260\n  6991: u64 [s1 + 0x278] = a0\n  6995: a0 = 0\n  6997: ra = 214, jump @19\n      : @212 [@dyn 107] (gas: 7)\n  7003: u64 [s1 + 600] = 0\n  7007: u64 [s1 + 592] = 0\n  7011: u64 [s1 + 576] = 0x41\n  7016: a0 = 0x4\n  7019: a1 = s1 + 0x240\n  7023: u64 [s1 + 584] = 0\n  7027: ra = 216, jump @19\n      : @213 [@dyn 108] (gas: 2)\n  7033: a1 = i32 [0x2019c]\n  7038: jump @215 if a1 >u 63\n      : @214 (gas: 3)\n  7042: u32 [0x2019c] = 0x40\n  7048: a1 = 0x201b0\n  7053: jump @227\n      : @215 (gas: 2)\n  7056: a1 = 0x201b0\n  7061: jump @227\n      : @216 (gas: 6)\n  7064: u64 [s1 + 688] = 0\n  7068: u64 [s1 + 680] = 0\n  7072: u64 [s1 + 672] = 0\n  7076: t0 = 0xda\n  7080: a0 = 0x4e487b7100000000\n  7090: fallthrough\n      : @217 [@dyn 109] (gas: 4)\n  7091: a1 = s1 + 0x2a0\n  7095: u64 [s1 + 0x2b8] = a0\n  7099: a0 = 0\n  7101: ra = 220, jump @19\n      : @218 [@dyn 110] (gas: 7)\n  7107: u64 [s1 + 664] = 0\n  7111: u64 [s1 + 656] = 0\n  7115: u64 [s1 + 640] = 0x22\n  7120: a0 = 0x4\n  7123: a1 = s1 + 0x280\n  7127: u64 [s1 + 648] = 0\n  7131: ra = 222, jump @19\n      : @219 [@dyn 111] (gas: 2)\n  7137: a1 = i32 [0x2019c]\n  7142: jump @221 if a1 >u 63\n      : @220 (gas: 3)\n  7146: u32 [0x2019c] = 0x40\n  7152: a1 = 0x201b0\n  7157: jump @227\n      : @221 (gas: 2)\n  7159: a1 = 0x201b0\n  7164: jump @227\n      : @222 (gas: 8)\n  7166: u64 [s1 + 784] = 0\n  7170: u64 [s1 + 776] = 0\n  7174: u64 [s1 + 768] = 0\n  7178: a0 = 0x1e4fbdf700000000\n  7188: a1 = s1 + 0x300\n  7192: u64 [s1 + 0x318] = a0\n  7196: a0 = 0\n  7198: ra = 224, jump @19\n      : @223 [@dyn 112] (gas: 7)\n  7204: u64 [s1 + 760] = 0\n  7208: u64 [s1 + 752] = 0\n  7212: u64 [s1 + 744] = 0\n  7216: a0 = 0x4\n  7219: a1 = s1 + 0x2e0\n  7223: u64 [s1 + 736] = 0\n  7227: ra = 226, jump @19\n      : @224 [@dyn 113] (gas: 2)\n  7233: a1 = i32 [0x2019c]\n  7238: jump @226 if a1 >u 63\n      : @225 (gas: 3)\n  7242: u32 [0x2019c] = 0x40\n  7248: a1 = 0x201b0\n  7253: jump @227\n      : @226 (gas: 2)\n  7255: a1 = 0x201b0\n  7260: fallthrough\n      : @227 (gas: 5)\n  7261: i32 a1 = a1 + 0\n  7263: a0 = 0x1\n  7266: a2 = 0x24\n  7269: ecalli 11 // 'seal_return'\n  7271: fallthrough\n      : @228 (gas: 3)\n  7272: a0 = a2\n  7274: a1 = 0\n  7276: ra = 228, jump @31\n      : @229 [@dyn 114] (gas: 5)\n  7282: i32 a0 = a0 + 0\n  7284: a1 = 0\n  7286: a2 = 0\n  7288: ecalli 1 // 'call_data_copy'\n  7290: jump @15\n      : @230 (gas: 3)\n  7293: a0 = u64 [s1 + 0xd8]\n  7297: a1 = 0\n  7299: ra = 230, jump @31\n      : @231 [@dyn 115] (gas: 5)\n  7305: i32 a1 = a0 + 0\n  7307: a0 = 0\n  7309: a2 = 0\n  7311: ecalli 11 // 'seal_return'\n  7313: jump @186\n      : @232 [@dyn 116] (gas: 4)\n  7316: a0 = 0x20198\n  7321: u64 [s1 + 0x198] = a0\n  7325: a0 = i32 [0x20198]\n  7330: jump @234 if a0 >=u 4\n      : @233 (gas: 1)\n  7334: jump @2055\n      : @234 (gas: 6)\n  7338: a0 = s1 + 0x4000\n  7342: i32 a0 = a0 + 0x440\n  7346: a1 = 0\n  7348: ra = 0xea\n  7352: ecalli 2 // 'call_data_load'\n  7354: fallthrough\n      : @235 [@dyn 117] (gas: 3)\n  7355: a4 = s1 + 0x4118\n  7359: a0 = i32 [a4 + 0x344]\n  7363: jump @237 if a0 != 2376452955\n      : @236 (gas: 1)\n  7370: jump @748\n      : @237 (gas: 1)\n  7373: jump @239 if a0 != 2514000705\n      : @238 (gas: 1)\n  7380: jump @1013\n      : @239 (gas: 2)\n  7383: a2 = s1 + 0x4918\n  7387: jump @241 if a0 != 2720170873\n      : @240 (gas: 1)\n  7394: jump @1134\n      : @241 (gas: 1)\n  7397: jump @243 if a0 != 2835717307\n      : @242 (gas: 1)\n  7404: jump @1116\n      : @243 (gas: 1)\n  7407: jump @320 if a0 == 3019060181\n      : @244 (gas: 1)\n  7415: jump @246 if a0 != 3057509663\n      : @245 (gas: 1)\n  7422: jump @1201\n      : @246 (gas: 1)\n  7425: jump @248 if a0 != 3207655124\n      : @247 (gas: 1)\n  7432: jump @540\n      : @248 (gas: 1)\n  7435: jump @250 if a0 != 3249688461\n      : @249 (gas: 1)\n  7442: jump @565\n      : @250 (gas: 1)\n  7445: jump @252 if a0 != 3268025691\n      : @251 (gas: 1)\n  7452: jump @1091\n      : @252 (gas: 1)\n  7455: jump @254 if a0 != 3316124798\n      : @253 (gas: 1)\n  7462: jump @1034\n      : @254 (gas: 2)\n  7465: a3 = s1 + 0x5118\n  7469: jump @256 if a0 != 3327320899\n      : @255 (gas: 1)\n  7476: jump @869\n      : @256 (gas: 1)\n  7479: jump @258 if a0 != 3345644044\n      : @257 (gas: 1)\n  7486: jump @810\n      : @258 (gas: 1)\n  7489: jump @260 if a0 != 3714247998\n      : @259 (gas: 1)\n  7496: jump @1060\n      : @260 (gas: 1)\n  7499: jump @262 if a0 != 3761585703\n      : @261 (gas: 1)\n  7506: jump @953\n      : @262 (gas: 1)\n  7509: jump @264 if a0 != 3878914144\n      : @263 (gas: 1)\n  7516: jump @762\n      : @264 (gas: 1)\n  7519: jump @345 if a0 == 4217976798\n      : @265 (gas: 1)\n  7527: jump @267 if a0 != 117300739\n      : @266 (gas: 1)\n  7534: jump @646\n      : @267 (gas: 1)\n  7537: jump @269 if a0 != 157198259\n      : @268 (gas: 1)\n  7544: jump @429\n      : @269 (gas: 1)\n  7547: jump @271 if a0 != 205334316\n      : @270 (gas: 1)\n  7554: jump @921\n      : @271 (gas: 1)\n  7557: jump @273 if a0 != 207937292\n      : @272 (gas: 1)\n  7564: jump @493\n      : @273 (gas: 1)\n  7567: jump @275 if a0 != 404098525\n      : @274 (gas: 1)\n  7574: jump @470\n      : @275 (gas: 1)\n  7577: jump @277 if a0 != 444330832\n      : @276 (gas: 1)\n  7584: jump @990\n      : @277 (gas: 1)\n  7587: jump @279 if a0 != 446930952\n      : @278 (gas: 1)\n  7594: jump @505\n      : @279 (gas: 1)\n  7597: jump @281 if a0 != 589272804\n      : @280 (gas: 1)\n  7604: jump @1002\n      : @281 (gas: 1)\n  7607: jump @283 if a0 != 599290589\n      : @282 (gas: 1)\n  7614: jump @678\n      : @283 (gas: 1)\n  7617: jump @285 if a0 != 826074471\n      : @284 (gas: 1)\n  7624: jump @942\n      : @285 (gas: 1)\n  7627: jump @287 if a0 != 1075519848\n      : @286 (gas: 1)\n  7634: jump @822\n      : @287 (gas: 1)\n  7637: jump @289 if a0 != 1492574796\n      : @288 (gas: 1)\n  7644: jump @482\n      : @289 (gas: 1)\n  7647: jump @291 if a0 != 1612140699\n      : @290 (gas: 1)\n  7654: jump @667\n      : @291 (gas: 1)\n  7657: jump @293 if a0 != 1725435034\n      : @292 (gas: 1)\n  7664: jump @602\n      : @293 (gas: 1)\n  7667: jump @295 if a0 == 1799449027\n      : @294 (gas: 1)\n  7674: jump @732\n      : @295 (gas: 8)\n  7677: u64 [a2 + 32] = 0\n  7680: u64 [a2 + 24] = 0\n  7683: u64 [a2 + 16] = 0\n  7686: u64 [a2 + 8] = 0\n  7689: a0 = s1 + 0x5000\n  7693: i32 a0 = a0 + 0xfffffffffffff920\n  7697: ecalli 14 // 'value_transferred'\n  7699: fallthrough\n      : @296 (gas: 9)\n  7700: a3 = s1 + 0x4918\n  7704: a0 = u64 [a3 + 0x18]\n  7707: a1 = u64 [a3 + 0x20]\n  7710: a2 = u64 [a3 + 0x10]\n  7713: a3 = u64 [a3 + 0x8]\n  7716: a1 = a1 | a2\n  7719: a0 = a0 | a3\n  7722: a0 = a0 | a1\n  7725: jump @298 if a0 == 0\n      : @297 (gas: 1)\n  7728: jump @1920\n      : @298 (gas: 3)\n  7732: a0 = u64 [s1 + 0x198]\n  7736: a0 = i32 [a0]\n  7738: jump @300 if a0 >u 3\n      : @299 (gas: 1)\n  7742: jump @1921\n      : @300 (gas: 8)\n  7746: a1 = s1 + 0x4918\n  7750: u64 [a1 + 64] = 0\n  7753: u64 [a1 + 56] = 0\n  7756: u64 [a1 + 48] = 0\n  7759: u64 [a1 + 40] = 0x6\n  7763: a0 = s1 + 0x1460\n  7767: a1 = s1 + 0x4940\n  7771: ra = 236, jump @21\n      : @301 [@dyn 118] (gas: 2)\n  7777: a0 = 0x1000\n  7781: t0 = 238, jump @2396\n      : @302 [@dyn 119] (gas: 16)\n  7788: a0 = u64 [a2 + 0x60]\n  7791: u64 [s1 + 0x120] = a0\n  7795: a0 = u64 [a2 + 0x58]\n  7798: u64 [s1 + 0x118] = a0\n  7802: a0 = u64 [a2 + 0x50]\n  7805: u64 [s1 + 0x110] = a0\n  7809: a0 = u64 [a2 + 0x48]\n  7812: u64 [s1 + 0x108] = a0\n  7816: a1 = s1 + 0x4918\n  7820: u64 [a1 + 96] = 0\n  7823: u64 [a1 + 88] = 0\n  7826: u64 [a1 + 80] = 0\n  7829: u64 [a1 + 72] = 0x7\n  7833: a0 = s1 + 0x1440\n  7837: a1 = s1 + 0x4960\n  7841: ra = 240, jump @21\n      : @303 [@dyn 120] (gas: 2)\n  7847: a0 = 0x1000\n  7851: t0 = 242, jump @2396\n      : @304 [@dyn 121] (gas: 17)\n  7858: a0 = u64 [a2 + 0x40]\n  7861: u64 [s1 + 0x100] = a0\n  7865: a0 = u64 [a2 + 0x38]\n  7868: u64 [s1 + 0xf8] = a0\n  7872: a0 = u64 [a2 + 0x30]\n  7875: u64 [s1 + 0xf0] = a0\n  7879: a0 = u64 [a2 + 0x28]\n  7882: u64 [s1 + 0xe8] = a0\n  7886: a0 = s1 + 0x4918\n  7890: u64 [a0 + 128] = 0\n  7894: u64 [a0 + 120] = 0\n  7897: u64 [a0 + 112] = 0\n  7900: a1 = a0\n  7902: u64 [a1 + 104] = 0x8\n  7906: a0 = s1 + 0x1420\n  7910: a1 = s1 + 0x4980\n  7914: ra = 244, jump @21\n      : @305 [@dyn 122] (gas: 2)\n  7920: a1 = s1 + 0x1118\n  7924: fallthrough\n      : @306 (gas: 54)\n  7925: t0 = u64 [a1 + 0x320]\n  7929: a0 = u64 [a1 + 0x318]\n  7933: t2 = u64 [a1 + 0x310]\n  7937: t1 = u64 [a1 + 0x308]\n  7941: a3 = clz t0\n  7943: a1 = clz a0\n  7945: a2 = a1 + 0x40\n  7948: a2 = a3 if t0 != 0\n  7951: a3 = clz t2\n  7953: a1 = clz t1\n  7955: a1 = a1 + 0x40\n  7958: a1 = a3 if t2 != 0\n  7961: a4 = a1 + 0x80\n  7965: a3 = a0 | t0\n  7968: a2 = a4 if a3 == 0\n  7971: a5 = a4 <u a1\n  7974: a5 = 0 if a3 != 0\n  7976: a4 = a5 >u 0\n  7978: a1 = a2 <u 0xf7\n  7982: a3 = a1 ^ 0x1\n  7985: a4 = a3 if a5 == 0\n  7988: ra = a4 <u 0x1\n  7991: ra = ra + 0xffffffffffffffff\n  7994: a1 = -a4\n  7996: a5 = -a5\n  7998: a3 = a5 - a3\n  8001: a2 = 0xf6 - a2\n  8005: u64 [s1 + 0x190] = a1\n  8009: a5 = a1 >u 0\n  8011: a1 = ra >u 0\n  8013: a1 = a5 if ra == 0\n  8016: u64 [s1 + 0x188] = a2\n  8020: a5 = a2 <u 0x100\n  8024: a5 = a5 ^ 0x1\n  8027: a2 = a3 >u 0\n  8029: a5 = a2 if a3 != 0\n  8032: a5 = a1 if a4 != 0\n  8035: a1 = t2 | t0\n  8038: a2 = t1 | a0\n  8041: a1 = a1 | a2\n  8044: a1 = a1 <u 0x1\n  8047: a1 = a1 | a5\n  8050: u64 [s1 + 0x150] = t0\n  8054: a4 = t0\n  8056: a4 = 0 if a1 != 0\n  8058: a5 = a0\n  8060: a5 = 0 if a1 != 0\n  8062: a2 = t2\n  8064: a2 = 0 if a1 != 0\n  8066: u64 [s1 + 0x178] = a2\n  8070: u64 [s1 + 0x158] = t1\n  8074: t1 = 0 if a1 != 0\n  8076: u64 [s1 + 0x170] = t1\n  8080: jump @308 if a1 == 0\n      : @307 (gas: 1)\n  8083: jump @1379\n      : @308 (gas: 8)\n  8086: t0 = a0\n  8088: t1 = u64 [s1 + 0x188]\n  8092: a1 = t1 ^ 0xff\n  8096: a0 = u64 [s1 + 0x190]\n  8100: a1 = a1 | a0\n  8103: a2 = a3 | ra\n  8106: a1 = a1 | a2\n  8109: jump @310 if a1 != 0\n      : @309 (gas: 1)\n  8112: jump @1379\n      : @310 (gas: 20)\n  8115: a2 = t1 + 0x1\n  8118: u64 [s1 + 0x198] = a2\n  8122: a1 = a2 <u 0x1\n  8125: a1 = a1 + a3\n  8128: u64 [s1 + 0x170] = a1\n  8132: a1 = a1 | a2\n  8135: a1 = a1 <u 0x1\n  8138: a1 = a1 + a0\n  8141: u64 [s1 + 0x160] = a1\n  8145: a1 = a1 <u a0\n  8148: a1 = a1 + ra\n  8151: u64 [s1 + 0x168] = a1\n  8155: a0 = 0xff - t1\n  8159: u64 [s1 + 0x190] = a0\n  8163: a2 = 0x80 - a0\n  8167: a0 = u64 [s1 + 0x158]\n  8171: a1 = t2\n  8173: u64 [s1 + 0x148] = t2\n  8177: u64 [s1 + 0x140] = t0\n  8181: ra = 246, jump @2455\n      : @311 [@dyn 123] (gas: 6)\n  8188: u64 [s1 + 0x188] = a0\n  8192: u64 [s1 + 0x180] = a1\n  8196: a0 = u64 [s1 + 0x140]\n  8200: a1 = u64 [s1 + 0x150]\n  8204: a2 = u64 [s1 + 0x190]\n  8208: ra = 248, jump @2460\n      : @312 [@dyn 124] (gas: 1)\n  8215: t0 = 250, jump @2425\n      : @313 [@dyn 125] (gas: 3)\n  8222: a0 = u64 [s1 + 0x158]\n  8226: a1 = u64 [s1 + 0x148]\n  8230: ra = 252, jump @2460\n      : @314 [@dyn 126] (gas: 7)\n  8237: a2 = u64 [s1 + 0x190]\n  8241: a3 = a2 <u 0x80\n  8245: u64 [s1 + 0x138] = a3\n  8249: a4 = u64 [s1 + 0x180]\n  8253: a1 = a4 if a3 != 0\n  8256: a4 = u64 [s1 + 0x150]\n  8260: t0 = 254, jump @2422\n      : @315 [@dyn 127] (gas: 6)\n  8267: a0 = u64 [s1 + 0x140]\n  8271: a1 = a0 if a2 == 0\n  8274: u64 [s1 + 0x188] = a1\n  8278: a0 = u64 [s1 + 0x158]\n  8282: a1 = u64 [s1 + 0x148]\n  8286: ra = 256, jump @2460\n      : @316 [@dyn 128] (gas: 1)\n  8293: t0 = 258, jump @2411\n      : @317 [@dyn 129] (gas: 6)\n  8300: a3 = u64 [a4 + 0x38]\n  8303: a1 = 0 if a3 == 0\n  8305: u64 [a4 + 0x78] = a1\n  8308: a0 = 0 if a3 == 0\n  8310: u64 [a4 + 0x90] = a0\n  8314: jump @319 if a2 == 0\n      : @318 (gas: 1)\n  8317: jump @1369\n      : @319 (gas: 3)\n  8320: a5 = 0\n  8322: u64 [s1 + 312] = 0\n  8326: jump @1377\n      : @320 (gas: 11)\n  8329: u64 [a2 + 736] = 0\n  8333: u64 [a2 + 728] = 0\n  8337: u64 [a2 + 720] = 0\n  8341: u64 [a2 + 712] = 0\n  8345: a0 = s1 + 0x5000\n  8349: i32 a0 = a0 + 0xfffffffffffffbe0\n  8353: ra = 0x104\n  8357: ecalli 14 // 'value_transferred'\n  8359: a0 = 0x5000\n  8363: t0 = 0x106\n  8367: jump @2440\n      : @321 [@dyn 130] (gas: 2)\n  8371: a0 = 0x5000\n  8375: t0 = 262, jump @2440\n      : @322 [@dyn 131] (gas: 1)\n  8382: t0 = 264, jump @2365\n      : @323 [@dyn 132] (gas: 1)\n  8389: jump @325 if a0 == 0\n      : @324 (gas: 1)\n  8392: jump @1922\n      : @325 (gas: 1)\n  8396: t0 = 266, jump @2389\n      : @326 [@dyn 133] (gas: 1)\n  8403: jump @328 if a1 <u a0\n      : @327 (gas: 1)\n  8406: jump @1923\n      : @328 (gas: 4)\n  8410: a0 = s1 + 0x1ec0\n  8414: ra = 0x10c\n  8418: t0 = 0x8ba\n  8422: jump @2444\n      : @329 [@dyn 134] (gas: 2)\n  8426: a3 = s1 + 0x1918\n  8430: t0 = 270, jump @2432\n      : @330 [@dyn 135] (gas: 4)\n  8437: a1 = s1 + 0x1ea0\n  8441: u64 [a4 + 0x88] = a0\n  8445: a0 = 0\n  8447: ra = 272, jump @19\n      : @331 [@dyn 136] (gas: 3)\n  8453: t0 = 0x112\n  8457: a1 = s1 + 0x1918\n  8461: fallthrough\n      : @332 [@dyn 137] (gas: 8)\n  8462: u64 [a1 + 1408] = 0\n  8466: u64 [a1 + 1400] = 0\n  8470: u64 [a1 + 1384] = 0xe\n  8475: a2 = a1\n  8477: a0 = 0x20\n  8480: a1 = s1 + 0x1e80\n  8484: u64 [a2 + 1392] = 0\n  8488: ra = 276, jump @19\n      : @333 [@dyn 138] (gas: 2)\n  8494: a1 = i32 [0x2019c]\n  8499: jump @335 if a1 >u 63\n      : @334 (gas: 4)\n  8503: a1 = 0x40\n  8506: u32 [0x2019c] = a1\n  8511: t0 = 0x116\n  8515: jump @2364\n      : @335 (gas: 1)\n  8519: t0 = 278, jump @2364\n      : @336 [@dyn 139] (gas: 8)\n  8526: a0 = 0x201b0\n  8531: i32 a0 = a0 + 0\n  8533: i32 a2 = a2 + 0\n  8535: a1 = 0x40\n  8538: ra = 0x118\n  8542: ecalli 7 // 'hash_keccak_256'\n  8544: t0 = 0x11a\n  8548: jump @2339\n      : @337 [@dyn 140] (gas: 1)\n  8552: t0 = 282, jump @2339\n      : @338 [@dyn 141] (gas: 8)\n  8559: u64 [a4 + 0x300] = a3\n  8563: a3 = a4 + 0x200\n  8567: u64 [a3 + 0xf8] = a2\n  8571: u64 [a3 + 0xf0] = a1\n  8575: u64 [a3 + 0xe8] = a0\n  8579: a0 = s1 + 0x1e60\n  8583: a1 = s1 + 0x4c00\n  8587: ra = 284, jump @21\n      : @339 [@dyn 142] (gas: 3)\n  8593: a1 = s1 + 0x1918\n  8597: a2 = a1 + 0x500\n  8601: t0 = 286, jump @2427\n      : @340 [@dyn 143] (gas: 4)\n  8608: i32 a0 = a0 + 0xfffffffffffffe40\n  8612: a0 = a0 + s1\n  8615: a1 = 0x40\n  8618: ra = 288, jump @17\n      : @341 [@dyn 144] (gas: 7)\n  8624: a3 = s1 + 0x1918\n  8628: a5 = a3 + 0x500\n  8632: a0 = u64 [a5 + 0x40]\n  8635: a1 = u64 [a5 + 0x38]\n  8638: a2 = u64 [a5 + 0x30]\n  8641: a4 = u64 [a5 + 0x28]\n  8644: t0 = 290, jump @2349\n      : @342 [@dyn 145] (gas: 1)\n  8651: jump @344 if a0 == 0\n      : @343 (gas: 1)\n  8654: jump @1912\n      : @344 (gas: 15)\n  8658: a2 = s1 + 0x100\n  8662: a0 = u64 [a2 + 0x80]\n  8666: a5 = a3 + 0x500\n  8670: u64 [a5 + 0x8] = a0\n  8673: a0 = u64 [a2 + 0x88]\n  8677: u64 [a5 + 0x10] = a0\n  8680: a0 = u64 [a2 + 0x90]\n  8684: u64 [a5 + 0x18] = a0\n  8687: a1 = s1 + 0x1e20\n  8691: a0 = u64 [a2 + 0x98]\n  8695: u64 [a5 + 0x20] = a0\n  8698: a0 = a4\n  8700: u64 [s1 + 0x198] = a4\n  8704: ra = 0x462\n  8708: jump @19\n      : @345 (gas: 11)\n  8711: u64 [a3 + 1120] = 0\n  8715: u64 [a3 + 1112] = 0\n  8719: u64 [a3 + 1104] = 0\n  8723: u64 [a3 + 1096] = 0\n  8727: a0 = s1 + 0x5000\n  8731: i32 a0 = a0 + 0x560\n  8735: ra = 0x124\n  8739: ecalli 14 // 'value_transferred'\n  8741: a0 = 0x5000\n  8745: t0 = 0x126\n  8749: jump @2445\n      : @346 [@dyn 146] (gas: 2)\n  8753: a0 = 0x5000\n  8757: t0 = 294, jump @2445\n      : @347 [@dyn 147] (gas: 1)\n  8764: t0 = 296, jump @2401\n      : @348 [@dyn 148] (gas: 1)\n  8771: jump @350 if a0 == 0\n      : @349 (gas: 1)\n  8774: jump @1924\n      : @350 (gas: 1)\n  8778: t0 = 298, jump @2389\n      : @351 [@dyn 149] (gas: 1)\n  8785: jump @353 if a1 <u a0\n      : @352 (gas: 1)\n  8788: jump @1925\n      : @353 (gas: 4)\n  8792: a0 = s1 + 0x4400\n  8796: ra = 0x12c\n  8800: t0 = 0x8ba\n  8804: jump @2444\n      : @354 [@dyn 150] (gas: 2)\n  8808: a0 = 0x4000\n  8812: t0 = 302, jump @2446\n      : @355 [@dyn 151] (gas: 13)\n  8819: a0 = u64 [a4 + 0xe8]\n  8823: a1 = u64 [a4 + 0xf0]\n  8827: a2 = u32 [a3 + 0x2f8]\n  8831: u64 [a3 + 736] = 0\n  8835: u64 [s1 + 0x128] = a2\n  8839: u64 [a4 + 0xd8] = a2\n  8843: u64 [s1 + 0x130] = a1\n  8847: u64 [a4 + 0xd0] = a1\n  8851: a1 = s1 + 0x43e0\n  8855: u64 [s1 + 0x138] = a0\n  8859: u64 [a4 + 0xc8] = a0\n  8863: a0 = 0\n  8865: ra = 304, jump @19\n      : @356 [@dyn 152] (gas: 9)\n  8871: a1 = s1 + 0x4118\n  8875: u64 [a1 + 704] = 0\n  8879: u64 [a1 + 696] = 0\n  8883: u64 [a1 + 680] = 0xa\n  8888: a2 = a1\n  8890: a0 = 0x20\n  8893: a1 = s1 + 0x43c0\n  8897: u64 [a2 + 688] = 0\n  8901: ra = 306, jump @19\n      : @357 [@dyn 153] (gas: 1)\n  8907: t0 = 308, jump @2410\n      : @358 [@dyn 154] (gas: 4)\n  8914: a2 = 0x2019c\n  8919: a0 = i32 [0x2019c]\n  8924: a1 = 0x3f\n  8927: jump @360 if a1 <u a0\n      : @359 (gas: 4)\n  8930: u32 [0x2019c] = 0x40\n  8936: u64 [s1 + 0x140] = a2\n  8940: t0 = 0x136\n  8944: jump @2404\n      : @360 (gas: 2)\n  8948: u64 [s1 + 0x140] = a2\n  8952: t0 = 310, jump @2404\n      : @361 [@dyn 155] (gas: 27)\n  8959: a0 = 0x201b0\n  8964: i32 a0 = a0 + 0\n  8966: i32 a2 = a2 + 0\n  8968: a1 = 0x40\n  8971: u64 [s1 + 0x148] = a0\n  8975: ecalli 7 // 'hash_keccak_256'\n  8977: a3 = u64 [s1 + 0x190]\n  8981: a0 = u64 [a3 + 0x18]\n  8984: a1 = u64 [a3 + 0x10]\n  8987: a2 = u64 [a3 + 0x8]\n  8990: a3 = u64 [a3]\n  8992: a5 = reverse a0\n  8994: a4 = reverse a1\n  8996: a0 = reverse a2\n  8998: a1 = reverse a3\n  9000: u64 [s1 + 0x168] = a1\n  9004: a2 = u64 [s1 + 0x198]\n  9008: u64 [a2 + 0x18] = a1\n  9011: u64 [s1 + 0x170] = a0\n  9015: u64 [a2 + 0x10] = a0\n  9018: u64 [s1 + 0x160] = a4\n  9022: u64 [a2 + 0x8] = a4\n  9025: u64 [s1 + 0x158] = a5\n  9029: u64 [a2] = a5\n  9031: a0 = s1 + 0x43a0\n  9035: a1 = 0x40\n  9038: ra = 312, jump @17\n      : @362 [@dyn 156] (gas: 19)\n  9044: t0 = s1 + 0x4118\n  9048: a0 = t0 + 0x200\n  9052: a5 = u64 [a0 + 0xa0]\n  9056: a4 = u64 [a0 + 0x98]\n  9060: a3 = u64 [a0 + 0x90]\n  9064: a2 = u64 [a0 + 0x88]\n  9068: a0 = a5 >u 0\n  9070: a1 = a4 >u 0\n  9072: a1 = a0 if a5 != 0\n  9075: a0 = a3 >u 0\n  9077: u64 [s1 + 0x190] = a2\n  9081: a2 = a2 <u 0xffffffffffffff40\n  9085: a2 = a2 ^ 0x1\n  9088: u64 [s1 + 0x188] = a3\n  9092: a2 = a0 if a3 != 0\n  9095: a0 = a4 | a5\n  9098: u64 [s1 + 0x150] = a0\n  9102: a2 = a1 if a0 != 0\n  9105: jump @364 if a2 == 0\n      : @363 (gas: 1)\n  9108: jump @1926\n      : @364 (gas: 20)\n  9112: a0 = u64 [s1 + 0x190]\n  9116: t1 = a0 + 0xc0\n  9120: a1 = t1 <u a0\n  9123: a2 = u64 [s1 + 0x188]\n  9127: a0 = a2 + a1\n  9130: a3 = a0 <u a2\n  9133: a3 = a1 if a1 == 0\n  9136: a3 = a3 + a4\n  9139: a1 = a3 <u a4\n  9142: u64 [s1 + 0x180] = a4\n  9146: a4 = a5 + a1\n  9149: u64 [t0 + 0x268] = t1\n  9153: a2 = t0 + 0x200\n  9157: u64 [a2 + 0x70] = a0\n  9160: u64 [a2 + 0x78] = a3\n  9163: a0 = 0x40\n  9166: a1 = s1 + 0x4380\n  9170: u64 [a2 + 0x80] = a4\n  9174: u64 [s1 + 0x178] = a5\n  9178: ra = 314, jump @19\n      : @365 [@dyn 157] (gas: 3)\n  9184: a0 = s1 + 0x4360\n  9188: a1 = u64 [s1 + 0x198]\n  9192: ra = 316, jump @21\n      : @366 [@dyn 158] (gas: 13)\n  9198: a4 = s1 + 0x100\n  9202: a0 = u64 [a4 + 0x90]\n  9206: a2 = u64 [a4 + 0x80]\n  9210: a0 = a0 | a2\n  9213: a1 = u64 [a4 + 0x88]\n  9217: a3 = u64 [a4 + 0x78]\n  9220: a1 = a1 | a3\n  9223: a0 = a0 | a1\n  9226: a0 = a0 >> 0x20\n  9229: a1 = a1 | a2\n  9232: a1 = a1 << 0x20\n  9235: a0 = a0 | a1\n  9238: jump @368 if a0 == 0\n      : @367 (gas: 1)\n  9241: jump @1912\n      : @368 (gas: 11)\n  9245: a2 = s1 + 0x4118\n  9249: a0 = u64 [a2 + 0x248]\n  9253: a0 = a0 & 0xff\n  9257: a0 = a0 >u 0\n  9259: u64 [a2 + 576] = 0\n  9263: u64 [a2 + 568] = 0\n  9267: u64 [a2 + 560] = 0\n  9271: a1 = s1 + 0x4340\n  9275: u64 [a2 + 0x228] = a0\n  9279: a0 = u64 [s1 + 0x190]\n  9283: ra = 318, jump @19\n      : @369 [@dyn 159] (gas: 21)\n  9289: a0 = u64 [s1 + 0x158]\n  9293: a0 = a0 + 0x1\n  9296: a1 = a0 <u 0x1\n  9299: a2 = u64 [s1 + 0x160]\n  9303: a1 = a1 + a2\n  9306: a2 = a0 | a1\n  9309: a2 = a2 <u 0x1\n  9312: a3 = u64 [s1 + 0x170]\n  9316: a2 = a2 + a3\n  9319: a3 = a2 <u a3\n  9322: a4 = u64 [s1 + 0x168]\n  9326: a3 = a3 + a4\n  9329: a4 = s1 + 0x5118\n  9333: a5 = a4 + 0x400\n  9337: u64 [a5 + 0x70] = a1\n  9340: u64 [a5 + 0x68] = a0\n  9343: u64 [a5 + 0x78] = a2\n  9346: u64 [a5 + 0x80] = a3\n  9350: a0 = s1 + 0x4320\n  9354: a1 = s1 + 0x5580\n  9358: ra = 320, jump @21\n      : @370 [@dyn 160] (gas: 3)\n  9364: a2 = 0x100000000\n  9374: a0 = 0xffffffe0\n  9384: t0 = 322, jump @2429\n      : @371 [@dyn 161] (gas: 1)\n  9391: jump @373 if a0 != 0\n      : @372 (gas: 1)\n  9394: jump @1912\n      : @373 (gas: 20)\n  9398: a5 = s1 + 0x4118\n  9402: u64 [s1 + 0x198] = a2\n  9406: t0 = u64 [a5 + 0x220]\n  9410: a0 = a5 + 0x200\n  9414: a1 = u64 [a0 + 0x18]\n  9417: a3 = u64 [a0 + 0x10]\n  9420: a4 = u64 [a0 + 0x8]\n  9423: a0 = u64 [s1 + 0x190]\n  9427: i32 a0 = a0 + 0x20\n  9430: u64 [s1 + 0x118] = a4\n  9434: a2 = a5 + 0x100\n  9438: u64 [a2 + 0xe8] = a4\n  9442: u64 [s1 + 0x120] = a3\n  9446: u64 [a2 + 0xf0] = a3\n  9450: u64 [s1 + 0x178] = a1\n  9454: u64 [a2 + 0xf8] = a1\n  9458: a1 = s1 + 0x4300\n  9462: u64 [s1 + 0x180] = t0\n  9466: u64 [a5 + 0x200] = t0\n  9470: ra = 324, jump @19\n      : @374 [@dyn 162] (gas: 3)\n  9476: a1 = u64 [s1 + 0x158]\n  9480: a0 = a1 + 0x2\n  9483: t0 = 326, jump @2337\n      : @375 [@dyn 163] (gas: 7)\n  9490: u64 [a5 + 0x90] = a2\n  9494: u64 [a5 + 0x88] = a0\n  9498: u64 [a5 + 0x98] = a3\n  9502: u64 [a5 + 0xa0] = a1\n  9506: a0 = s1 + 0x42e0\n  9510: a1 = s1 + 0x55a0\n  9514: ra = 328, jump @21\n      : @376 [@dyn 164] (gas: 10)\n  9520: a2 = s1 + 0x100\n  9524: a0 = u64 [a2 + 0x98]\n  9528: a0 = a0 + 0xffffffffffffffc0\n  9531: a1 = u64 [a2 + 0x90]\n  9535: a0 = a1 <u a0\n  9538: a1 = u64 [a2 + 0x88]\n  9542: a0 = 0 if a1 != 0\n  9544: a1 = u64 [a2 + 0x50]\n  9547: a0 = 0 if a1 != 0\n  9549: jump @378 if a0 != 0\n      : @377 (gas: 1)\n  9552: jump @1912\n      : @378 (gas: 18)\n  9556: a5 = s1 + 0x4118\n  9560: t0 = u64 [a5 + 0x1e0]\n  9564: a3 = a5 + 0x100\n  9568: a4 = u64 [a3 + 0xd8]\n  9572: a1 = u64 [a3 + 0xd0]\n  9576: a2 = u64 [a3 + 0xc8]\n  9580: a0 = u64 [s1 + 0x190]\n  9584: i32 a0 = a0 + 0x40\n  9587: u64 [s1 + 0x110] = a2\n  9591: u64 [a3 + 0xa8] = a2\n  9595: u64 [s1 + 0x198] = a1\n  9599: u64 [a3 + 0xb0] = a1\n  9603: u64 [s1 + 0x100] = a4\n  9607: u64 [a3 + 0xb8] = a4\n  9611: a1 = s1 + 0x42c0\n  9615: u64 [s1 + 0x108] = t0\n  9619: u64 [a5 + 0x1c0] = t0\n  9623: ra = 330, jump @19\n      : @379 [@dyn 165] (gas: 3)\n  9629: a1 = u64 [s1 + 0x158]\n  9633: a0 = a1 + 0x3\n  9636: t0 = 332, jump @2337\n      : @380 [@dyn 166] (gas: 7)\n  9643: u64 [a5 + 0xb0] = a2\n  9647: u64 [a5 + 0xa8] = a0\n  9651: u64 [a5 + 0xb8] = a3\n  9655: u64 [a5 + 0xc0] = a1\n  9659: a0 = s1 + 0x42a0\n  9663: a1 = s1 + 0x55c0\n  9667: ra = 334, jump @21\n      : @381 [@dyn 167] (gas: 3)\n  9673: a2 = 0x100000000\n  9683: a0 = 0xffffffa0\n  9693: t0 = 336, jump @2429\n      : @382 [@dyn 168] (gas: 1)\n  9700: jump @384 if a0 != 0\n      : @383 (gas: 1)\n  9703: jump @1912\n      : @384 (gas: 21)\n  9707: a0 = s1 + 0x4118\n  9711: u64 [s1 + 0xf8] = a2\n  9715: a2 = a0\n  9717: t0 = u64 [a0 + 0x1a0]\n  9721: a3 = a0 + 0x100\n  9725: a1 = u64 [a3 + 0x98]\n  9729: a4 = u64 [a3 + 0x90]\n  9733: a5 = u64 [a3 + 0x88]\n  9737: a0 = u64 [s1 + 0x190]\n  9741: i32 a0 = a0 + 0x60\n  9744: u64 [s1 + 0xd8] = a5\n  9748: a3 = a2 + 0x100\n  9752: u64 [a3 + 0x68] = a5\n  9755: u64 [s1 + 0xe0] = a4\n  9759: u64 [a3 + 0x70] = a4\n  9762: u64 [s1 + 0xe8] = a1\n  9766: u64 [a3 + 0x78] = a1\n  9769: a1 = s1 + 0x4280\n  9773: u64 [s1 + 0xf0] = t0\n  9777: u64 [a2 + 0x180] = t0\n  9781: ra = 338, jump @19\n      : @385 [@dyn 169] (gas: 3)\n  9787: a1 = u64 [s1 + 0x158]\n  9791: a0 = a1 + 0x4\n  9794: t0 = 340, jump @2337\n      : @386 [@dyn 170] (gas: 7)\n  9801: u64 [a5 + 0xd0] = a2\n  9805: u64 [a5 + 0xc8] = a0\n  9809: u64 [a5 + 0xd8] = a3\n  9813: u64 [a5 + 0xe0] = a1\n  9817: a0 = s1 + 0x4260\n  9821: a1 = s1 + 0x55e0\n  9825: ra = 342, jump @21\n      : @387 [@dyn 171] (gas: 10)\n  9831: a3 = s1 + 0x100\n  9835: a2 = u64 [a3 + 0x50]\n  9838: a0 = u64 [s1 + 0xf8]\n  9842: a0 = a0 + 0xffffffffffffff80\n  9845: a1 = u64 [a3 + 0x90]\n  9849: a0 = a1 <u a0\n  9852: a1 = u64 [a3 + 0x88]\n  9856: a0 = 0 if a1 != 0\n  9858: a0 = 0 if a2 != 0\n  9860: jump @389 if a0 != 0\n      : @388 (gas: 1)\n  9863: jump @1912\n      : @389 (gas: 15)\n  9867: a4 = s1 + 0x4118\n  9871: t0 = u64 [a4 + 0x160]\n  9875: a5 = a4 + 0x100\n  9879: a1 = u64 [a5 + 0x58]\n  9882: a2 = u64 [a5 + 0x50]\n  9885: a3 = u64 [a5 + 0x48]\n  9888: a0 = u64 [s1 + 0x190]\n  9892: i32 a0 = a0 + 0x80\n  9896: u64 [a5 + 0x28] = a3\n  9899: u64 [a5 + 0x30] = a2\n  9902: u64 [a5 + 0x38] = a1\n  9905: a1 = s1 + 0x4240\n  9909: u64 [a4 + 0x140] = t0\n  9913: u64 [s1 + 0xf8] = a0\n  9917: ra = 344, jump @19\n      : @390 [@dyn 172] (gas: 3)\n  9923: a1 = u64 [s1 + 0x158]\n  9927: a0 = a1 + 0x5\n  9930: t0 = 346, jump @2337\n      : @391 [@dyn 173] (gas: 7)\n  9937: u64 [a5 + 0xf0] = a2\n  9941: u64 [a5 + 0xe8] = a0\n  9945: u64 [a5 + 0xf8] = a3\n  9949: u64 [a4 + 0x500] = a1\n  9953: a0 = s1 + 0x4220\n  9957: a1 = s1 + 0x5600\n  9961: ra = 348, jump @21\n      : @392 [@dyn 174] (gas: 9)\n  9967: a0 = 0xffffff60\n  9977: a2 = s1 + 0x100\n  9981: a1 = u64 [a2 + 0x90]\n  9985: a0 = a1 <u a0\n  9988: a1 = u64 [a2 + 0x88]\n  9992: a0 = 0 if a1 != 0\n  9994: a1 = u64 [a2 + 0x50]\n  9997: a0 = 0 if a1 != 0\n  9999: jump @394 if a0 != 0\n      : @393 (gas: 1)\n 10002: jump @1912\n      : @394 (gas: 15)\n 10006: a5 = s1 + 0x4118\n 10010: t0 = u64 [a5 + 0x120]\n 10014: a0 = a5 + 0x100\n 10018: a1 = u64 [a0 + 0x18]\n 10021: a2 = u64 [a0 + 0x10]\n 10024: a3 = u64 [a0 + 0x8]\n 10027: a4 = u64 [s1 + 0x190]\n 10031: i32 a0 = a4 + 0xa0\n 10035: u64 [a5 + 0xe8] = a3\n 10039: u64 [a5 + 0xf0] = a2\n 10043: u64 [a5 + 0xf8] = a1\n 10047: a1 = s1 + 0x4200\n 10051: u64 [a5 + 0x100] = t0\n 10055: u64 [s1 + 0x190] = a0\n 10059: ra = 350, jump @19\n      : @395 [@dyn 175] (gas: 11)\n 10065: a2 = s1 + 0x4118\n 10069: u64 [a2 + 224] = 0\n 10073: a0 = u64 [s1 + 0x128]\n 10077: u64 [a2 + 0xd8] = a0\n 10081: a0 = u64 [s1 + 0x130]\n 10085: u64 [a2 + 0xd0] = a0\n 10089: a1 = s1 + 0x41e0\n 10093: a0 = u64 [s1 + 0x138]\n 10097: u64 [a2 + 0xc8] = a0\n 10101: a0 = 0\n 10103: ra = 352, jump @19\n      : @396 [@dyn 176] (gas: 9)\n 10109: a0 = s1 + 0x4118\n 10113: u64 [a0 + 192] = 0\n 10117: u64 [a0 + 184] = 0\n 10121: u64 [a0 + 176] = 0\n 10125: a2 = a0\n 10127: a0 = 0x20\n 10130: a1 = s1 + 0x41c0\n 10134: u64 [a2 + 168] = 0\n 10138: ra = 354, jump @19\n      : @397 [@dyn 177] (gas: 3)\n 10144: a2 = u64 [s1 + 0x140]\n 10148: a0 = i32 [a2]\n 10150: jump @399 if a0 >u 63\n      : @398 (gas: 2)\n 10154: u32 [a2 + 0] = 0x40\n 10157: fallthrough\n      : @399 (gas: 12)\n 10158: a0 = sp + 0xffffffffffffffe0\n 10161: a0 = a0 & 0xffffffffffffffe0\n 10164: u64 [s1 + 0x188] = a0\n 10168: sp = a0\n 10170: i32 a2 = a0 + 0\n 10172: a1 = 0x40\n 10175: a0 = u64 [s1 + 0x148]\n 10179: ra = 0x164\n 10183: ecalli 7 // 'hash_keccak_256'\n 10185: a3 = u64 [s1 + 0x188]\n 10189: t0 = 0x166\n 10193: jump @2350\n      : @400 [@dyn 178] (gas: 2)\n 10197: a3 = u64 [s1 + 0x188]\n 10201: t0 = 358, jump @2350\n      : @401 [@dyn 179] (gas: 8)\n 10208: a5 = a4 + 0x500\n 10212: u64 [a5 + 0x20] = a3\n 10215: u64 [a5 + 0x18] = a2\n 10218: u64 [a5 + 0x10] = a1\n 10221: u64 [a5 + 0x8] = a0\n 10224: a0 = s1 + 0x41a0\n 10228: a1 = s1 + 0x5620\n 10232: ra = 360, jump @21\n      : @402 [@dyn 180] (gas: 12)\n 10238: a1 = s1 + 0x4118\n 10242: a0 = u64 [a1 + 0xa0]\n 10246: u64 [s1 + 0xc8] = a0\n 10250: a0 = u64 [a1 + 0x98]\n 10254: u64 [s1 + 0xc0] = a0\n 10258: a0 = u64 [a1 + 0x90]\n 10262: u64 [s1 + 0xb8] = a0\n 10266: a0 = u64 [a1 + 0x88]\n 10270: u64 [s1 + 0xb0] = a0\n 10274: a0 = s1 + 0x4180\n 10278: a1 = u64 [s1 + 0xf8]\n 10282: ra = 362, jump @17\n      : @403 [@dyn 181] (gas: 12)\n 10288: a1 = s1 + 0x4118\n 10292: a0 = u64 [a1 + 0x80]\n 10296: u64 [s1 + 0xa8] = a0\n 10300: a0 = u64 [a1 + 0x78]\n 10303: u64 [s1 + 0xa0] = a0\n 10307: a0 = u64 [a1 + 0x70]\n 10310: u64 [s1 + 0x98] = a0\n 10314: a0 = u64 [a1 + 0x68]\n 10317: u64 [s1 + 0x90] = a0\n 10321: a0 = s1 + 0x4160\n 10325: a1 = u64 [s1 + 0x190]\n 10329: ra = 364, jump @17\n      : @404 [@dyn 182] (gas: 12)\n 10335: a1 = s1 + 0x4118\n 10339: a0 = u64 [a1 + 0x60]\n 10342: u64 [s1 + 0x88] = a0\n 10346: a0 = u64 [a1 + 0x58]\n 10349: u64 [s1 + 0x80] = a0\n 10353: a0 = u64 [a1 + 0x50]\n 10356: u64 [s1 + 0x78] = a0\n 10359: a0 = u64 [a1 + 0x48]\n 10362: u64 [s1 + 0x70] = a0\n 10365: a0 = s1 + 0x4140\n 10369: a1 = 0x40\n 10372: ra = 366, jump @17\n      : @405 [@dyn 183] (gas: 13)\n 10378: a2 = s1 + 0x4118\n 10382: t0 = u64 [a2 + 0x40]\n 10385: a5 = u64 [a2 + 0x38]\n 10388: a4 = u64 [a2 + 0x30]\n 10391: a0 = u64 [a2 + 0x28]\n 10394: a3 = a4 | t0\n 10397: a1 = a0 | a5\n 10400: a1 = a1 | a3\n 10403: a1 = a1 >> 0x20\n 10406: a3 = a3 | a5\n 10409: a3 = a3 << 0x20\n 10412: a1 = a1 | a3\n 10415: jump @407 if a1 == 0\n      : @406 (gas: 1)\n 10418: jump @1912\n      : @407 (gas: 14)\n 10422: a1 = u64 [s1 + 0x118]\n 10426: u64 [a2 + 0x8] = a1\n 10429: a1 = u64 [s1 + 0x120]\n 10433: u64 [a2 + 0x10] = a1\n 10436: a1 = u64 [s1 + 0x178]\n 10440: u64 [a2 + 0x18] = a1\n 10443: a1 = s1 + 0x4120\n 10447: a3 = u64 [s1 + 0x180]\n 10451: u64 [a2 + 0x20] = a3\n 10454: u64 [s1 + 0xf8] = a0\n 10458: u64 [s1 + 0xd0] = a4\n 10462: u64 [s1 + 0x188] = t0\n 10466: u64 [s1 + 0x190] = a5\n 10470: ra = 368, jump @19\n      : @408 [@dyn 184] (gas: 6)\n 10476: a2 = u64 [s1 + 0xd0]\n 10480: a1 = u64 [s1 + 0xf8]\n 10484: a0 = u64 [s1 + 0x190]\n 10488: a3 = u64 [s1 + 0x188]\n 10492: a3 = a3 | a0\n 10495: t0 = 370, jump @2442\n      : @409 [@dyn 185] (gas: 3)\n 10502: a0 = 0 if a2 != 0\n 10504: a0 = 0 if a3 != 0\n 10506: jump @411 if a0 != 0\n      : @410 (gas: 1)\n 10509: jump @1912\n      : @411 (gas: 17)\n 10513: i32 a0 = a1 + 0x20\n 10516: a1 = s1 + 0x3918\n 10520: u64 [s1 + 0x190] = a4\n 10524: a4 = a1\n 10526: a1 = u64 [s1 + 0xd8]\n 10530: a2 = a4 + 0x700\n 10534: u64 [a2 + 0xe8] = a1\n 10538: a1 = u64 [s1 + 0xe0]\n 10542: u64 [a2 + 0xf0] = a1\n 10546: a1 = u64 [s1 + 0xe8]\n 10550: u64 [a2 + 0xf8] = a1\n 10554: a1 = s1 + 0x4100\n 10558: a4 = u64 [s1 + 0xf0]\n 10562: a5 = s1 + 0x4118\n 10566: u64 [a5] = a4\n 10568: u64 [s1 + 0x120] = a3\n 10572: ra = 372, jump @19\n      : @412 [@dyn 186] (gas: 9)\n 10578: a2 = u64 [s1 + 0xf8]\n 10582: a0 = u64 [s1 + 0x190]\n 10586: a0 = a0 + 0xffffffffffffffc0\n 10589: a0 = a2 <u a0\n 10592: a1 = u64 [s1 + 0xd0]\n 10596: a0 = 0 if a1 != 0\n 10598: a1 = u64 [s1 + 0x120]\n 10602: a0 = 0 if a1 != 0\n 10604: jump @414 if a0 != 0\n      : @413 (gas: 1)\n 10607: jump @1912\n      : @414 (gas: 13)\n 10611: i32 a0 = a2 + 0x40\n 10614: a1 = u64 [s1 + 0x110]\n 10618: a4 = s1 + 0x3918\n 10622: a2 = a4 + 0x700\n 10626: u64 [a2 + 0xc8] = a1\n 10630: a1 = u64 [s1 + 0x198]\n 10634: u64 [a2 + 0xd0] = a1\n 10638: a1 = u64 [s1 + 0x100]\n 10642: u64 [a2 + 0xd8] = a1\n 10646: a1 = s1 + 0x40e0\n 10650: a3 = u64 [s1 + 0x108]\n 10654: u64 [a2 + 0xe0] = a3\n 10658: ra = 374, jump @19\n      : @415 [@dyn 187] (gas: 2)\n 10664: a0 = 0xffffffa0\n 10674: t0 = 376, jump @2360\n      : @416 [@dyn 188] (gas: 1)\n 10681: jump @418 if a0 != 0\n      : @417 (gas: 1)\n 10684: jump @1912\n      : @418 (gas: 53)\n 10688: a1 = u64 [s1 + 0x110]\n 10692: t1 = u64 [s1 + 0x100]\n 10696: a0 = a1 | t1\n 10699: a2 = a1\n 10701: t0 = u64 [s1 + 0x198]\n 10705: ra = u64 [s1 + 0x108]\n 10709: a1 = t0 | ra\n 10712: a0 = a0 | a1\n 10715: a0 = a0 <u 0x1\n 10718: u64 [s1 + 0x190] = a0\n 10722: a0 = clz t1\n 10724: a0 = a0 + 0x40\n 10727: a1 = clz ra\n 10729: a1 = a0 if ra == 0\n 10732: a0 = clz a2\n 10734: a0 = a0 + 0x40\n 10737: a2 = clz t0\n 10739: a2 = a0 if t0 == 0\n 10742: a0 = a2 + 0x80\n 10746: a4 = t1 | ra\n 10749: a1 = a0 if a4 == 0\n 10752: a2 = a0 <u a2\n 10755: a2 = 0 if a4 != 0\n 10757: a4 = a2 >u 0\n 10759: a0 = a1 <u 0xf7\n 10763: a5 = a0 ^ 0x1\n 10766: a4 = a5 if a2 == 0\n 10769: a0 = a4 <u 0x1\n 10772: a3 = a0 + 0xffffffffffffffff\n 10775: a0 = -a4\n 10777: a2 = -a2\n 10779: t2 = a2 - a5\n 10782: a2 = 0xf6 - a1\n 10786: u64 [s1 + 0x180] = a0\n 10790: a1 = a0 >u 0\n 10792: a5 = a3 >u 0\n 10794: u64 [s1 + 0x170] = a3\n 10798: a5 = a1 if a3 == 0\n 10801: a1 = t2 >u 0\n 10803: u64 [s1 + 0x168] = a2\n 10807: a3 = a2 <u 0x100\n 10811: a3 = a3 ^ 0x1\n 10814: a3 = a1 if t2 != 0\n 10817: a3 = a5 if a4 != 0\n 10820: a0 = u64 [s1 + 0x190]\n 10824: a0 = a0 | a3\n 10827: ra = 0 if a0 != 0\n 10829: t1 = 0 if a0 != 0\n 10831: a1 = t0\n 10833: a1 = 0 if a0 != 0\n 10835: a4 = u64 [s1 + 0x110]\n 10839: a4 = 0 if a0 != 0\n 10841: jump @420 if a0 == 0\n      : @419 (gas: 1)\n 10844: jump @1839\n      : @420 (gas: 9)\n 10848: a3 = s1 + 0x100\n 10852: a0 = u64 [a3 + 0x68]\n 10855: a0 = a0 ^ 0xff\n 10859: a2 = u64 [a3 + 0x80]\n 10863: t0 = a0 | a2\n 10866: a0 = u64 [a3 + 0x70]\n 10869: a0 = t2 | a0\n 10872: a0 = t0 | a0\n 10875: jump @422 if a0 != 0\n      : @421 (gas: 1)\n 10878: jump @1839\n      : @422 (gas: 21)\n 10882: a2 = u64 [s1 + 0x168]\n 10886: a1 = a2 + 0x1\n 10889: u64 [s1 + 0x190] = a1\n 10893: a0 = a1 <u 0x1\n 10896: a0 = a0 + t2\n 10899: u64 [s1 + 0x188] = a0\n 10903: a0 = a0 | a1\n 10906: a0 = a0 <u 0x1\n 10909: a1 = u64 [s1 + 0x180]\n 10913: a0 = a0 + a1\n 10916: u64 [s1 + 0x178] = a0\n 10920: a0 = a0 <u a1\n 10923: a1 = u64 [s1 + 0x170]\n 10927: a0 = a0 + a1\n 10930: u64 [s1 + 0x180] = a0\n 10934: a1 = 0xff - a2\n 10938: u64 [s1 + 0x170] = a1\n 10942: a2 = 0x80 - a1\n 10946: a0 = u64 [s1 + 0x110]\n 10950: a1 = u64 [s1 + 0x198]\n 10954: ra = 378, jump @2455\n      : @423 [@dyn 189] (gas: 6)\n 10961: u64 [s1 + 0x168] = a0\n 10965: u64 [s1 + 0x160] = a1\n 10969: a0 = u64 [s1 + 0x100]\n 10973: a1 = u64 [s1 + 0x108]\n 10977: a2 = u64 [s1 + 0x170]\n 10981: ra = 380, jump @2460\n      : @424 [@dyn 190] (gas: 9)\n 10988: u64 [s1 + 0x158] = a0\n 10992: a0 = u64 [s1 + 0x160]\n 10996: a0 = a0 | a1\n 10999: u64 [s1 + 0x160] = a0\n 11003: a0 = u64 [s1 + 0x170]\n 11007: a2 = a0 + 0xffffffffffffff80\n 11010: a0 = u64 [s1 + 0x110]\n 11014: a1 = u64 [s1 + 0x198]\n 11018: ra = 382, jump @2460\n      : @425 [@dyn 191] (gas: 18)\n 11025: a2 = u64 [s1 + 0x170]\n 11029: a3 = a2 <u 0x80\n 11033: u64 [s1 + 0x150] = a3\n 11037: a4 = u64 [s1 + 0x160]\n 11041: a1 = a4 if a3 != 0\n 11044: a4 = u64 [s1 + 0x108]\n 11048: a1 = a4 if a2 == 0\n 11051: u64 [s1 + 0x160] = a1\n 11055: a1 = u64 [s1 + 0x168]\n 11059: a4 = u64 [s1 + 0x158]\n 11063: a1 = a1 | a4\n 11066: a1 = a0 if a3 == 0\n 11069: a0 = u64 [s1 + 0x100]\n 11073: a1 = a0 if a2 == 0\n 11076: u64 [s1 + 0x168] = a1\n 11080: a0 = u64 [s1 + 0x110]\n 11084: a1 = u64 [s1 + 0x198]\n 11088: ra = 384, jump @2460\n      : @426 [@dyn 192] (gas: 14)\n 11095: a5 = s1 + 0x100\n 11099: a2 = u64 [a5 + 0x88]\n 11103: a3 = u64 [a5 + 0x80]\n 11107: a2 = a2 | a3\n 11110: a3 = u64 [a5 + 0x90]\n 11114: a4 = u64 [a5 + 0x78]\n 11117: a3 = a3 | a4\n 11120: a2 = a2 | a3\n 11123: a3 = u64 [a5 + 0x50]\n 11126: a1 = 0 if a3 == 0\n 11128: u64 [a5 + 0x58] = a1\n 11131: a0 = 0 if a3 == 0\n 11133: u64 [a5 + 0x70] = a0\n 11136: jump @428 if a2 == 0\n      : @427 (gas: 1)\n 11139: jump @1831\n      : @428 (gas: 3)\n 11143: u64 [s1 + 336] = 0\n 11147: u64 [s1 + 312] = 0\n 11151: jump @1838\n      : @429 (gas: 11)\n 11155: u64 [a4 + 928] = 0\n 11159: u64 [a4 + 920] = 0\n 11163: u64 [a4 + 912] = 0\n 11167: u64 [a4 + 904] = 0\n 11171: a0 = s1 + 0x4000\n 11175: i32 a0 = a0 + 0x4a0\n 11179: ra = 0x182\n 11183: ecalli 14 // 'value_transferred'\n 11185: a0 = 0x4000\n 11189: t0 = 0x184\n 11193: jump @2415\n      : @430 [@dyn 193] (gas: 2)\n 11197: a0 = 0x4000\n 11201: t0 = 388, jump @2415\n      : @431 [@dyn 194] (gas: 1)\n 11208: t0 = 390, jump @2437\n      : @432 [@dyn 195] (gas: 1)\n 11215: jump @434 if a0 == 0\n      : @433 (gas: 1)\n 11218: jump @1932\n      : @434 (gas: 4)\n 11222: a0 = u64 [s1 + 0x198]\n 11226: a0 = i32 [a0]\n 11228: a1 = 0x43\n 11231: jump @436 if a1 <u a0\n      : @435 (gas: 1)\n 11234: jump @1933\n      : @436 (gas: 4)\n 11238: a0 = s1 + 0x580\n 11242: ra = 0x188\n 11246: t0 = 0x8ba\n 11250: jump @2444\n      : @437 [@dyn 196] (gas: 36)\n 11254: a1 = s1 + 0x500\n 11258: a0 = u64 [a1 + 0x90]\n 11262: u64 [s1 + 0x178] = a0\n 11266: a0 = u64 [a1 + 0x88]\n 11270: u64 [s1 + 0x190] = a0\n 11274: a0 = u64 [a1 + 0x80]\n 11278: u64 [s1 + 0x198] = a0\n 11282: a0 = sp + 0xffffffffffffffe0\n 11285: a0 = a0 & 0xffffffffffffffe0\n 11288: u64 [s1 + 0x180] = a0\n 11292: sp = a0\n 11294: a0 = s1 + 0x4000\n 11298: i32 a0 = a0 + 0x4c0\n 11302: a1 = 0x24\n 11305: ecalli 2 // 'call_data_load'\n 11307: a0 = s1 + 0x4118\n 11311: a4 = a0 + 0x300\n 11315: a1 = u64 [a4 + 0xc0]\n 11319: a2 = u64 [a4 + 0xb8]\n 11323: a3 = u64 [a4 + 0xb0]\n 11327: a0 = u64 [a4 + 0xa8]\n 11331: u64 [s1 + 0x130] = a1\n 11335: a4 = u64 [s1 + 0x180]\n 11339: u64 [a4 + 0x18] = a1\n 11342: u64 [s1 + 0x128] = a2\n 11346: u64 [a4 + 0x10] = a2\n 11349: u64 [s1 + 0x120] = a3\n 11353: u64 [a4 + 0x8] = a3\n 11356: u64 [s1 + 0x118] = a0\n 11360: u64 [a4] = a0\n 11362: a0 = 0x301b0\n 11367: u64 [s1 + 0x188] = a0\n 11371: i32 a0 = a0 + 0\n 11373: u64 [s1 + 0x170] = a0\n 11377: ecalli 4 // 'caller'\n 11379: fallthrough\n      : @438 (gas: 7)\n 11380: a2 = u64 [s1 + 0x188]\n 11384: a0 = u32 [a2 + 0x10]\n 11387: a1 = u64 [a2]\n 11389: a2 = u64 [a2 + 0x8]\n 11392: a0 = a0 | a1\n 11395: a0 = a0 | a2\n 11398: jump @440 if a0 != 0\n      : @439 (gas: 1)\n 11401: jump @1934\n      : @440 (gas: 10)\n 11405: a3 = s1 + 0x100\n 11409: a0 = u64 [a3 + 0x78]\n 11412: a0 = a0 << 0x20\n 11415: a1 = a0 >> 0x20\n 11418: a0 = u64 [a3 + 0x90]\n 11422: a2 = u64 [a3 + 0x98]\n 11426: a0 = a0 | a2\n 11429: u64 [a3 + 0x78] = a1\n 11432: a0 = a0 | a1\n 11435: jump @442 if a0 != 0\n      : @441 (gas: 1)\n 11438: jump @1939\n      : @442 (gas: 4)\n 11442: a0 = u64 [s1 + 0x170]\n 11446: ra = 0x18a\n 11450: ecalli 4 // 'caller'\n 11452: fallthrough\n      : @443 [@dyn 197] (gas: 5)\n 11453: a2 = u64 [s1 + 0x188]\n 11457: a0 = u64 [a2 + 0x8]\n 11460: a1 = i32 [a2 + 0x10]\n 11463: a2 = u64 [a2]\n 11465: t0 = 396, jump @2342\n      : @444 [@dyn 198] (gas: 7)\n 11472: u64 [s1 + 1400] = 0\n 11476: u64 [s1 + 0x570] = a1\n 11480: u64 [s1 + 0x568] = a0\n 11484: a1 = s1 + 0x560\n 11488: u64 [s1 + 0x560] = a3\n 11492: a0 = 0\n 11494: ra = 398, jump @19\n      : @445 [@dyn 199] (gas: 7)\n 11500: u64 [s1 + 1368] = 0\n 11504: u64 [s1 + 1360] = 0\n 11508: u64 [s1 + 1344] = 0x1\n 11513: a0 = 0x20\n 11516: a1 = s1 + 0x540\n 11520: u64 [s1 + 1352] = 0\n 11524: ra = 400, jump @19\n      : @446 [@dyn 200] (gas: 3)\n 11530: a1 = 0x2019c\n 11535: a0 = i32 [0x2019c]\n 11540: jump @448 if a0 >u 63\n      : @447 (gas: 2)\n 11544: u32 [0x2019c] = 0x40\n 11550: fallthrough\n      : @448 (gas: 15)\n 11551: a0 = sp + 0xffffffffffffffe0\n 11554: a2 = a0 & 0xffffffffffffffe0\n 11557: u64 [s1 + 0x158] = a2\n 11561: sp = a2\n 11563: a0 = 0x201b0\n 11568: i32 a0 = a0 + 0\n 11570: i32 a2 = a2 + 0\n 11572: u64 [s1 + 0x168] = a1\n 11576: a1 = 0x40\n 11579: u64 [s1 + 0x160] = a0\n 11583: ra = 0x192\n 11587: ecalli 7 // 'hash_keccak_256'\n 11589: a3 = u64 [s1 + 0x158]\n 11593: t0 = 0x194\n 11597: jump @2453\n      : @449 [@dyn 201] (gas: 2)\n 11601: a3 = u64 [s1 + 0x158]\n 11605: t0 = 404, jump @2453\n      : @450 [@dyn 202] (gas: 21)\n 11612: u64 [s1 + 0x150] = a0\n 11616: a0 = reverse a1\n 11618: u64 [s1 + 0x148] = a0\n 11622: a0 = reverse a2\n 11624: u64 [s1 + 0x140] = a0\n 11628: a0 = reverse a3\n 11630: u64 [s1 + 0x138] = a0\n 11634: a0 = sp + 0xffffffffffffffe0\n 11637: a0 = a0 & 0xffffffffffffffe0\n 11640: u64 [s1 + 0x158] = a0\n 11644: sp = a0\n 11646: u64 [s1 + 1336] = 0\n 11650: a0 = u64 [s1 + 0x178]\n 11654: u64 [s1 + 0x530] = a0\n 11658: a0 = u64 [s1 + 0x190]\n 11662: u64 [s1 + 0x528] = a0\n 11666: a1 = s1 + 0x520\n 11670: a0 = u64 [s1 + 0x198]\n 11674: u64 [s1 + 0x520] = a0\n 11678: a0 = 0\n 11680: ra = 406, jump @19\n      : @451 [@dyn 203] (gas: 12)\n 11686: a0 = u64 [s1 + 0x138]\n 11690: a3 = s1 + 0x500\n 11694: u64 [a3 + 0x18] = a0\n 11697: a0 = u64 [s1 + 0x140]\n 11701: u64 [a3 + 0x10] = a0\n 11704: a0 = u64 [s1 + 0x148]\n 11708: u64 [a3 + 0x8] = a0\n 11711: a0 = 0x20\n 11714: a1 = s1 + 0x500\n 11718: a2 = u64 [s1 + 0x150]\n 11722: u64 [a3] = a2\n 11724: ra = 408, jump @19\n      : @452 [@dyn 204] (gas: 3)\n 11730: a1 = u64 [s1 + 0x168]\n 11734: a0 = i32 [a1]\n 11736: jump @454 if a0 >u 63\n      : @453 (gas: 2)\n 11740: u32 [a1 + 0] = 0x40\n 11743: fallthrough\n      : @454 (gas: 10)\n 11744: a0 = sp + 0xffffffffffffffe0\n 11747: a0 = a0 & 0xffffffffffffffe0\n 11750: u64 [s1 + 0x168] = a0\n 11754: sp = a0\n 11756: i32 a2 = a0 + 0\n 11758: a1 = 0x40\n 11761: a0 = u64 [s1 + 0x160]\n 11765: ra = 0x19a\n 11769: ecalli 7 // 'hash_keccak_256'\n 11771: fallthrough\n      : @455 [@dyn 205] (gas: 8)\n 11772: a5 = s1 + 0x100\n 11776: a3 = u64 [a5 + 0x68]\n 11779: a0 = u64 [a3 + 0x18]\n 11782: a1 = u64 [a3 + 0x10]\n 11785: a2 = u64 [a3 + 0x8]\n 11788: a3 = u64 [a3]\n 11790: a4 = reverse a0\n 11792: t0 = 412, jump @2361\n      : @456 [@dyn 206] (gas: 7)\n 11799: a0 = u64 [a5 + 0x58]\n 11802: u64 [a0 + 0x18] = a3\n 11805: u64 [a0 + 0x10] = a2\n 11808: u64 [a0 + 0x8] = a1\n 11811: u64 [a0] = a4\n 11813: a1 = u64 [a5 + 0x80]\n 11817: ra = 414, jump @25\n      : @457 [@dyn 207] (gas: 3)\n 11823: a0 = s1 + 0x4e0\n 11827: a1 = 0x40\n 11830: ra = 416, jump @17\n      : @458 [@dyn 208] (gas: 6)\n 11836: a4 = s1 + 0x400\n 11840: a0 = u64 [a4 + 0xf8]\n 11844: a1 = u64 [a4 + 0xf0]\n 11848: a2 = u64 [a4 + 0xe8]\n 11852: a3 = u64 [a4 + 0xe0]\n 11856: t0 = 418, jump @2383\n      : @459 [@dyn 209] (gas: 1)\n 11863: jump @461 if a0 == 0\n      : @460 (gas: 1)\n 11866: jump @1912\n      : @461 (gas: 12)\n 11870: a0 = u64 [s1 + 0x118]\n 11874: u64 [s1 + 0x4c0] = a0\n 11878: a0 = u64 [s1 + 0x120]\n 11882: u64 [s1 + 0x4c8] = a0\n 11886: a0 = u64 [s1 + 0x128]\n 11890: u64 [s1 + 0x4d0] = a0\n 11894: a1 = s1 + 0x4c0\n 11898: a0 = u64 [s1 + 0x130]\n 11902: u64 [s1 + 0x4d8] = a0\n 11906: a0 = a3\n 11908: u64 [s1 + 0x180] = a3\n 11912: ra = 420, jump @19\n      : @462 [@dyn 210] (gas: 6)\n 11918: a0 = u64 [s1 + 0x170]\n 11922: ra = 0x1a6\n 11926: ecalli 4 // 'caller'\n 11928: a2 = u64 [s1 + 0x188]\n 11932: t0 = 0x1a8\n 11936: jump @2359\n      : @463 [@dyn 211] (gas: 2)\n 11940: a2 = u64 [s1 + 0x188]\n 11944: t0 = 424, jump @2359\n      : @464 [@dyn 212] (gas: 31)\n 11951: t0 = a1 | a0\n 11954: a3 = a3 >> 0x20\n 11957: a2 = reverse a2\n 11959: a1 = a2 << 0x20\n 11962: a1 = a1 | a3\n 11965: a2 = a2 >> 0x20\n 11968: u64 [s1 + 1144] = 0\n 11972: a0 = u64 [s1 + 0x178]\n 11976: u64 [s1 + 0x470] = a0\n 11980: a0 = u64 [s1 + 0x190]\n 11984: u64 [s1 + 0x468] = a0\n 11988: a0 = u64 [s1 + 0x198]\n 11992: u64 [s1 + 0x460] = a0\n 11996: u64 [s1 + 1176] = 0\n 12000: a3 = u64 [0x20138]\n 12005: a4 = u64 [0x20140]\n 12010: a5 = u64 [0x20148]\n 12015: a0 = u64 [0x20150]\n 12020: u64 [s1 + 0x4b8] = a3\n 12024: u64 [s1 + 0x4b0] = a4\n 12028: u64 [s1 + 0x4a8] = a5\n 12032: u64 [s1 + 0x4a0] = a0\n 12036: u64 [s1 + 0x490] = a2\n 12040: u64 [s1 + 0x488] = a1\n 12044: a1 = 0x20\n 12047: a2 = s1 + 0x4a0\n 12051: a3 = s1 + 0x480\n 12055: a4 = s1 + 0x460\n 12059: u64 [s1 + 0x480] = t0\n 12063: a0 = u64 [s1 + 0x180]\n 12067: ra = 426, jump @28\n      : @465 [@dyn 213] (gas: 3)\n 12073: a0 = s1 + 0x440\n 12077: a1 = 0x40\n 12080: ra = 428, jump @17\n      : @466 [@dyn 214] (gas: 6)\n 12086: a4 = s1 + 0x400\n 12090: a3 = u64 [a4 + 0x58]\n 12093: a1 = u64 [a4 + 0x50]\n 12096: a2 = u64 [a4 + 0x48]\n 12099: a0 = u64 [a4 + 0x40]\n 12102: t0 = 430, jump @2380\n      : @467 [@dyn 215] (gas: 1)\n 12109: jump @469 if a1 == 0\n      : @468 (gas: 1)\n 12112: jump @1912\n      : @469 (gas: 8)\n 12116: u64 [s1 + 1080] = 0\n 12120: u64 [s1 + 1072] = 0\n 12124: u64 [s1 + 1064] = 0\n 12128: a1 = s1 + 0x420\n 12132: u64 [s1 + 1056] = 0x1\n 12137: u64 [s1 + 0x198] = a0\n 12141: ra = 0x462\n 12145: jump @19\n      : @470 (gas: 10)\n 12148: u64 [a4 + 1120] = 0\n 12152: u64 [a4 + 1112] = 0\n 12156: u64 [a4 + 1104] = 0\n 12160: u64 [a4 + 1096] = 0\n 12164: a0 = s1 + 0x4000\n 12168: i32 a0 = a0 + 0x560\n 12172: ra = 0x1b0\n 12176: ecalli 14 // 'value_transferred'\n 12178: t0 = 0x1b2\n 12182: jump @2447\n      : @471 [@dyn 216] (gas: 1)\n 12186: t0 = 434, jump @2447\n      : @472 [@dyn 217] (gas: 8)\n 12193: a0 = u64 [a5 + 0x58]\n 12196: a1 = u64 [a5 + 0x60]\n 12199: a2 = u64 [a5 + 0x50]\n 12202: a3 = u64 [a5 + 0x48]\n 12205: a1 = a1 | a2\n 12208: a0 = a0 | a3\n 12211: a0 = a0 | a1\n 12214: jump @474 if a0 == 0\n      : @473 (gas: 1)\n 12217: jump @1944\n      : @474 (gas: 3)\n 12221: a0 = u64 [s1 + 0x198]\n 12225: a0 = i32 [a0]\n 12227: jump @476 if a0 >u 3\n      : @475 (gas: 1)\n 12231: jump @1945\n      : @476 (gas: 7)\n 12235: u64 [a4 + 1152] = 0\n 12239: u64 [a4 + 1144] = 0\n 12243: u64 [a4 + 1136] = 0\n 12247: u64 [a4 + 1128] = 0x2\n 12252: a0 = s1 + 0x700\n 12256: a1 = s1 + 0x4580\n 12260: ra = 436, jump @21\n      : @477 [@dyn 218] (gas: 13)\n 12266: a1 = s1 + 0x700\n 12270: a0 = u64 [a1 + 0x18]\n 12273: a2 = s1 + 0x100\n 12277: u64 [a2 + 0x98] = a0\n 12281: a0 = u64 [a1 + 0x10]\n 12284: u64 [a2 + 0x90] = a0\n 12288: a0 = u64 [a1 + 0x8]\n 12291: u64 [a2 + 0x88] = a0\n 12295: a0 = u64 [a1]\n 12297: u64 [a2 + 0x80] = a0\n 12301: a0 = s1 + 0x6e0\n 12305: a1 = 0x40\n 12308: ra = 438, jump @17\n      : @478 [@dyn 219] (gas: 6)\n 12314: a4 = s1 + 0x600\n 12318: a0 = u64 [a4 + 0xf8]\n 12322: a1 = u64 [a4 + 0xf0]\n 12326: a2 = u64 [a4 + 0xe8]\n 12330: a3 = u64 [a4 + 0xe0]\n 12334: t0 = 440, jump @2383\n      : @479 [@dyn 220] (gas: 1)\n 12341: jump @481 if a0 == 0\n      : @480 (gas: 1)\n 12344: jump @1912\n      : @481 (gas: 15)\n 12348: a2 = s1 + 0x100\n 12352: a0 = u64 [a2 + 0x80]\n 12356: a4 = s1 + 0x600\n 12360: u64 [a4 + 0xc0] = a0\n 12364: a0 = u64 [a2 + 0x88]\n 12368: u64 [a4 + 0xc8] = a0\n 12372: a0 = u64 [a2 + 0x90]\n 12376: u64 [a4 + 0xd0] = a0\n 12380: a1 = s1 + 0x6c0\n 12384: a0 = u64 [a2 + 0x98]\n 12388: u64 [a4 + 0xd8] = a0\n 12392: a0 = a3\n 12394: u64 [s1 + 0x198] = a3\n 12398: ra = 0x462\n 12402: jump @19\n      : @482 (gas: 9)\n 12405: u64 [a4 + 1824] = 0\n 12409: u64 [a4 + 1816] = 0\n 12413: u64 [a4 + 1808] = 0\n 12417: u64 [a4 + 1800] = 0\n 12421: a0 = s1 + 0x5000\n 12425: i32 a0 = a0 + 0xfffffffffffff820\n 12429: ra = 0x1ba\n 12433: ecalli 14 // 'value_transferred'\n 12435: fallthrough\n      : @483 [@dyn 221] (gas: 3)\n 12436: a3 = s1 + 0x4118\n 12440: a4 = a3 + 0x700\n 12444: t0 = 444, jump @2402\n      : @484 [@dyn 222] (gas: 1)\n 12451: jump @486 if a0 == 0\n      : @485 (gas: 1)\n 12454: jump @1946\n      : @486 (gas: 3)\n 12458: a0 = u64 [s1 + 0x198]\n 12462: a0 = i32 [a0]\n 12464: jump @488 if a0 >u 3\n      : @487 (gas: 1)\n 12468: jump @1947\n      : @488 (gas: 4)\n 12472: a0 = s1 + 0x7ff\n 12476: a0 = a0 + 0x701\n 12480: a1 = 0x40\n 12483: ra = 446, jump @17\n      : @489 [@dyn 223] (gas: 8)\n 12489: a3 = s1 + 0x7ff\n 12493: a3 = a3 + 0x119\n 12497: a4 = u64 [a3 + 0x600]\n 12501: a5 = a3 + 0x500\n 12505: a1 = u64 [a5 + 0xf8]\n 12509: a2 = u64 [a5 + 0xf0]\n 12513: a0 = u64 [a5 + 0xe8]\n 12517: t0 = 448, jump @2356\n      : @490 [@dyn 224] (gas: 1)\n 12524: jump @492 if a1 == 0\n      : @491 (gas: 1)\n 12527: jump @1912\n      : @492 (gas: 9)\n 12531: u64 [a3 + 1504] = 0\n 12535: u64 [a3 + 1496] = 0\n 12539: u64 [a3 + 1480] = 0x190\n 12545: a1 = s1 + 0x7ff\n 12549: a1 = a1 + 0x6e1\n 12553: u64 [a3 + 1488] = 0\n 12557: u64 [s1 + 0x198] = a0\n 12561: ra = 0x462\n 12565: jump @19\n      : @493 (gas: 10)\n 12568: u64 [a4 + 1056] = 0\n 12572: u64 [a4 + 1048] = 0\n 12576: u64 [a4 + 1040] = 0\n 12580: u64 [a4 + 1032] = 0\n 12584: a0 = s1 + 0x4000\n 12588: i32 a0 = a0 + 0x520\n 12592: ra = 0x1c2\n 12596: ecalli 14 // 'value_transferred'\n 12598: t0 = 0x1c4\n 12602: jump @2447\n      : @494 [@dyn 225] (gas: 1)\n 12606: t0 = 452, jump @2447\n      : @495 [@dyn 226] (gas: 8)\n 12613: a0 = u64 [a5 + 0x18]\n 12616: a1 = u64 [a5 + 0x20]\n 12619: a2 = u64 [a5 + 0x10]\n 12622: a3 = u64 [a5 + 0x8]\n 12625: a1 = a1 | a2\n 12628: a0 = a0 | a3\n 12631: a0 = a0 | a1\n 12634: jump @497 if a0 == 0\n      : @496 (gas: 1)\n 12637: jump @1948\n      : @497 (gas: 3)\n 12641: a0 = u64 [s1 + 0x198]\n 12645: a0 = i32 [a0]\n 12647: jump @499 if a0 >u 3\n      : @498 (gas: 1)\n 12651: jump @1949\n      : @499 (gas: 7)\n 12655: u64 [a4 + 1088] = 0\n 12659: u64 [a4 + 1080] = 0\n 12663: u64 [a4 + 1072] = 0\n 12667: u64 [a4 + 1064] = 0x8\n 12672: a0 = s1 + 0x6a0\n 12676: a1 = s1 + 0x4540\n 12680: ra = 454, jump @21\n      : @500 [@dyn 227] (gas: 12)\n 12686: a0 = u64 [s1 + 0x6b8]\n 12690: a1 = s1 + 0x100\n 12694: u64 [a1 + 0x98] = a0\n 12698: a0 = u64 [s1 + 0x6b0]\n 12702: u64 [a1 + 0x90] = a0\n 12706: a0 = u64 [s1 + 0x6a8]\n 12710: u64 [a1 + 0x88] = a0\n 12714: a0 = u64 [s1 + 0x6a0]\n 12718: u64 [a1 + 0x80] = a0\n 12722: a0 = s1 + 0x680\n 12726: a1 = 0x40\n 12729: ra = 456, jump @17\n      : @501 [@dyn 228] (gas: 6)\n 12735: a4 = s1 + 0x600\n 12739: a0 = u64 [a4 + 0x98]\n 12743: a1 = u64 [a4 + 0x90]\n 12747: a2 = u64 [a4 + 0x88]\n 12751: a3 = u64 [a4 + 0x80]\n 12755: t0 = 458, jump @2383\n      : @502 [@dyn 229] (gas: 1)\n 12762: jump @504 if a0 == 0\n      : @503 (gas: 1)\n 12765: jump @1912\n      : @504 (gas: 15)\n 12769: a2 = s1 + 0x100\n 12773: a0 = u64 [a2 + 0x80]\n 12777: a4 = s1 + 0x600\n 12781: u64 [a4 + 0x60] = a0\n 12784: a0 = u64 [a2 + 0x88]\n 12788: u64 [a4 + 0x68] = a0\n 12791: a0 = u64 [a2 + 0x90]\n 12795: u64 [a4 + 0x70] = a0\n 12798: a1 = s1 + 0x660\n 12802: a0 = u64 [a2 + 0x98]\n 12806: u64 [a4 + 0x78] = a0\n 12809: a0 = a3\n 12811: u64 [s1 + 0x198] = a3\n 12815: ra = 0x462\n 12819: jump @19\n      : @505 (gas: 11)\n 12822: u64 [a4 + 1248] = 0\n 12826: u64 [a4 + 1240] = 0\n 12830: u64 [a4 + 1232] = 0\n 12834: u64 [a4 + 1224] = 0\n 12838: a0 = s1 + 0x4000\n 12842: i32 a0 = a0 + 0x5e0\n 12846: ra = 0x1cc\n 12850: ecalli 14 // 'value_transferred'\n 12852: a0 = 0x4000\n 12856: t0 = 0x1ce\n 12860: jump @2445\n      : @506 [@dyn 230] (gas: 2)\n 12864: a0 = 0x4000\n 12868: t0 = 462, jump @2445\n      : @507 [@dyn 231] (gas: 1)\n 12875: t0 = 464, jump @2365\n      : @508 [@dyn 232] (gas: 1)\n 12882: jump @510 if a0 == 0\n      : @509 (gas: 1)\n 12885: jump @1950\n      : @510 (gas: 3)\n 12889: a0 = u64 [s1 + 0x198]\n 12893: a0 = i32 [a0]\n 12895: jump @512 if a0 >u 3\n      : @511 (gas: 1)\n 12899: jump @1951\n      : @512 (gas: 9)\n 12903: a0 = 0x301b0\n 12908: u64 [s1 + 0x198] = a0\n 12912: i32 a0 = a0 + 0\n 12914: u64 [s1 + 0x178] = a0\n 12918: ra = 0x1d2\n 12922: ecalli 4 // 'caller'\n 12924: a2 = u64 [s1 + 0x198]\n 12928: t0 = 0x1d4\n 12932: jump @2338\n      : @513 [@dyn 233] (gas: 2)\n 12936: a2 = u64 [s1 + 0x198]\n 12940: t0 = 468, jump @2338\n      : @514 [@dyn 234] (gas: 8)\n 12947: u64 [a2 + 32] = 0\n 12950: u64 [a2 + 0x18] = a1\n 12953: u64 [a2 + 0x10] = a0\n 12956: a1 = s1 + 0x7ff\n 12960: a1 = a1 + 0x121\n 12964: u64 [a2 + 0x8] = a3\n 12967: a0 = 0\n 12969: ra = 470, jump @19\n      : @515 [@dyn 235] (gas: 12)\n 12975: a0 = s1 + 0x7ff\n 12979: a0 = a0 + 0x119\n 12983: u64 [a0 + 0] = 0\n 12985: u64 [a0 + 4294967288] = 0\n 12988: a1 = s1 + 0x1000\n 12992: u64 [a1 + 4294965504] = 0xa\n 12997: a0 = 0x20\n 13000: a1 = s1 + 0x7ff\n 13004: a1 = a1 + 0x101\n 13008: a2 = s1 + 0x1000\n 13012: u64 [a2 + 4294965512] = 0\n 13016: ra = 472, jump @19\n      : @516 [@dyn 236] (gas: 4)\n 13022: a2 = 0x2019c\n 13027: a0 = i32 [0x2019c]\n 13032: a1 = 0x3f\n 13035: jump @518 if a1 <u a0\n      : @517 (gas: 4)\n 13038: u32 [0x2019c] = 0x40\n 13044: u64 [s1 + 0x180] = a2\n 13048: t0 = 0x1da\n 13052: jump @2404\n      : @518 (gas: 2)\n 13056: u64 [s1 + 0x180] = a2\n 13060: t0 = 474, jump @2404\n      : @519 [@dyn 237] (gas: 10)\n 13067: a0 = 0x201b0\n 13072: i32 a0 = a0 + 0\n 13074: i32 a2 = a2 + 0\n 13076: a1 = 0x40\n 13079: u64 [s1 + 0x188] = a0\n 13083: ra = 0x1dc\n 13087: ecalli 7 // 'hash_keccak_256'\n 13089: a3 = u64 [s1 + 0x190]\n 13093: t0 = 0x1de\n 13097: jump @2384\n      : @520 [@dyn 238] (gas: 2)\n 13101: a3 = u64 [s1 + 0x190]\n 13105: t0 = 478, jump @2384\n      : @521 [@dyn 239] (gas: 9)\n 13112: u64 [a4 + 0x500] = a3\n 13116: a3 = a4 + 0x400\n 13120: u64 [a3 + 0xf8] = a2\n 13124: u64 [a3 + 0xf0] = a1\n 13128: u64 [a3 + 0xe8] = a0\n 13132: a0 = s1 + 0x7ff\n 13136: a0 = a0 + 0xe1\n 13140: a1 = s1 + 0x4600\n 13144: ra = 480, jump @21\n      : @522 [@dyn 240] (gas: 3)\n 13150: a0 = s1 + 0x1000\n 13154: a0 = u8 [a0 + 0xfffffffffffff8e0]\n 13158: jump @524 if a0 != 0\n      : @523 (gas: 1)\n 13161: jump @1952\n      : @524 (gas: 4)\n 13165: a0 = s1 + 0x7ff\n 13169: a0 = a0 + 0xc1\n 13173: a1 = 0x40\n 13176: ra = 482, jump @17\n      : @525 [@dyn 241] (gas: 16)\n 13182: a0 = s1 + 0x1000\n 13186: a4 = u64 [a0 + 0xfffffffffffff8d8]\n 13190: a0 = s1 + 0x1000\n 13194: a5 = u64 [a0 + 0xfffffffffffff8d0]\n 13198: a0 = s1 + 0x1000\n 13202: a3 = u64 [a0 + 0xfffffffffffff8c8]\n 13206: a0 = s1 + 0x1000\n 13210: a0 = u64 [a0 + 0xfffffffffffff8c0]\n 13214: a2 = a3 | a4\n 13217: a1 = a0 | a5\n 13220: a1 = a1 | a2\n 13223: a1 = a1 >> 0x20\n 13226: a2 = a2 | a5\n 13229: a2 = a2 << 0x20\n 13232: a1 = a1 | a2\n 13235: jump @527 if a1 == 0\n      : @526 (gas: 1)\n 13238: jump @1912\n      : @527 (gas: 16)\n 13242: a1 = s1 + 0x1000\n 13246: u64 [a1 + 4294965424] = 0\n 13250: a1 = s1 + 0x1000\n 13254: u64 [a1 + 4294965416] = 0\n 13258: a1 = s1 + 0x1000\n 13262: u64 [a1 + 4294965408] = 0\n 13266: a2 = 0x8c379a000000000\n 13276: a1 = s1 + 0x7ff\n 13280: a1 = a1 + 0xa1\n 13284: t0 = s1 + 0x1000\n 13288: u64 [t0 + 0xfffffffffffff8b8] = a2\n 13292: u64 [s1 + 0x198] = a0\n 13296: u64 [s1 + 0x190] = a3\n 13300: u64 [s1 + 0x188] = a4\n 13304: u64 [s1 + 0x180] = a5\n 13308: ra = 484, jump @19\n      : @528 [@dyn 242] (gas: 6)\n 13314: a5 = s1 + 0x100\n 13318: a1 = u64 [a5 + 0x98]\n 13322: a0 = u64 [a5 + 0x88]\n 13326: a3 = u64 [a5 + 0x80]\n 13330: a3 = a3 | a0\n 13333: t0 = 486, jump @2344\n      : @529 [@dyn 243] (gas: 1)\n 13340: jump @531 if a0 != 0\n      : @530 (gas: 1)\n 13343: jump @1912\n      : @531 (gas: 14)\n 13347: i32 a0 = a1 + 0x4\n 13350: a1 = s1 + 0x1000\n 13354: u64 [a1 + 4294965400] = 0\n 13358: a1 = s1 + 0x1000\n 13362: u64 [a1 + 4294965392] = 0\n 13366: a2 = s1 + 0x1000\n 13370: u64 [a2 + 4294965376] = 0x20\n 13375: a1 = s1 + 0x7ff\n 13379: a1 = a1 + 0x81\n 13383: a2 = s1 + 0x1000\n 13387: u64 [a2 + 4294965384] = 0\n 13391: u64 [s1 + 0x188] = a3\n 13395: u64 [s1 + 0x180] = a4\n 13399: ra = 488, jump @19\n      : @532 [@dyn 244] (gas: 1)\n 13405: t0 = 490, jump @2357\n      : @533 [@dyn 245] (gas: 1)\n 13412: jump @535 if a0 != 0\n      : @534 (gas: 1)\n 13415: jump @1912\n      : @535 (gas: 12)\n 13419: i32 a0 = a1 + 0x24\n 13422: a1 = s1 + 0x1000\n 13426: u64 [a1 + 4294965368] = 0\n 13430: a1 = s1 + 0x1000\n 13434: u64 [a1 + 4294965360] = 0\n 13438: a2 = s1 + 0x1000\n 13442: u64 [a2 + 4294965344] = 0x12\n 13447: a1 = s1 + 0x7ff\n 13451: a1 = a1 + 0x61\n 13454: a2 = s1 + 0x1000\n 13458: u64 [a2 + 4294965352] = 0\n 13462: ra = 492, jump @19\n      : @536 [@dyn 246] (gas: 1)\n 13468: t0 = 494, jump @2391\n      : @537 [@dyn 247] (gas: 1)\n 13475: jump @539 if a0 != 0\n      : @538 (gas: 1)\n 13478: jump @1912\n      : @539 (gas: 16)\n 13482: i32 a0 = a2 + 0x44\n 13485: a1 = u64 [0x20128]\n 13490: a2 = u64 [0x20130]\n 13495: a3 = s1 + 0x1000\n 13499: u64 [a3 + 0xfffffffffffff858] = a1\n 13503: a1 = s1 + 0x1000\n 13507: u64 [a1 + 0xfffffffffffff850] = a2\n 13511: a1 = 0x6564000000000000\n 13521: a2 = s1 + 0x1000\n 13525: u64 [a2 + 0xfffffffffffff848] = a1\n 13529: a1 = s1 + 0x7ff\n 13533: a1 = a1 + 0x41\n 13536: a2 = s1 + 0x1000\n 13540: u64 [a2 + 4294965312] = 0\n 13544: ra = 0x54e\n 13548: jump @19\n      : @540 (gas: 11)\n 13551: u64 [a2 + 896] = 0\n 13555: u64 [a2 + 888] = 0\n 13559: u64 [a2 + 880] = 0\n 13563: u64 [a2 + 872] = 0\n 13567: a0 = s1 + 0x5000\n 13571: i32 a0 = a0 + 0xfffffffffffffc80\n 13575: ra = 0x1f0\n 13579: ecalli 14 // 'value_transferred'\n 13581: a0 = 0x5000\n 13585: t0 = 0x1f2\n 13589: jump @2439\n      : @541 [@dyn 248] (gas: 2)\n 13593: a0 = 0x5000\n 13597: t0 = 498, jump @2439\n      : @542 [@dyn 249] (gas: 1)\n 13604: t0 = 500, jump @2405\n      : @543 [@dyn 250] (gas: 1)\n 13611: jump @545 if a0 == 0\n      : @544 (gas: 1)\n 13614: jump @1967\n      : @545 (gas: 1)\n 13618: t0 = 502, jump @2389\n      : @546 [@dyn 251] (gas: 1)\n 13625: jump @548 if a1 <u a0\n      : @547 (gas: 1)\n 13628: jump @1968\n      : @548 (gas: 4)\n 13632: a0 = s1 + 0x2380\n 13636: ra = 0x1f8\n 13640: t0 = 0x8ba\n 13644: jump @2444\n      : @549 [@dyn 252] (gas: 2)\n 13648: a0 = 0x2000\n 13652: t0 = 506, jump @2446\n      : @550 [@dyn 253] (gas: 10)\n 13659: a0 = u64 [a4 + 0x68]\n 13662: a1 = u64 [a4 + 0x70]\n 13665: a2 = u32 [a3 + 0x278]\n 13669: u64 [a3 + 608] = 0\n 13673: u64 [a4 + 0x58] = a2\n 13676: u64 [a4 + 0x50] = a1\n 13679: a1 = s1 + 0x2360\n 13683: u64 [a4 + 0x48] = a0\n 13686: a0 = 0\n 13688: ra = 508, jump @19\n      : @551 [@dyn 254] (gas: 3)\n 13694: t0 = 0x1fe\n 13698: a1 = s1 + 0x2118\n 13702: fallthrough\n      : @552 [@dyn 255] (gas: 8)\n 13703: u64 [a1 + 576] = 0\n 13707: u64 [a1 + 568] = 0\n 13711: u64 [a1 + 552] = 0x10\n 13716: a2 = a1\n 13718: a0 = 0x20\n 13721: a1 = s1 + 0x2340\n 13725: u64 [a2 + 560] = 0\n 13729: ra = 512, jump @19\n      : @553 [@dyn 256] (gas: 2)\n 13735: a1 = i32 [0x2019c]\n 13740: jump @555 if a1 >u 63\n      : @554 (gas: 4)\n 13744: a1 = 0x40\n 13747: u32 [0x2019c] = a1\n 13752: t0 = 0x202\n 13756: jump @2364\n      : @555 (gas: 1)\n 13760: t0 = 514, jump @2364\n      : @556 [@dyn 257] (gas: 8)\n 13767: a0 = 0x201b0\n 13772: i32 a0 = a0 + 0\n 13774: i32 a2 = a2 + 0\n 13776: a1 = 0x40\n 13779: ra = 0x204\n 13783: ecalli 7 // 'hash_keccak_256'\n 13785: t0 = 0x206\n 13789: jump @2339\n      : @557 [@dyn 258] (gas: 1)\n 13793: t0 = 518, jump @2339\n      : @558 [@dyn 259] (gas: 8)\n 13800: a5 = a4 + 0x300\n 13804: u64 [a5 + 0xa0] = a3\n 13808: u64 [a5 + 0x98] = a2\n 13812: u64 [a5 + 0x90] = a1\n 13816: u64 [a5 + 0x88] = a0\n 13820: a0 = s1 + 0x2320\n 13824: a1 = s1 + 0x4ca0\n 13828: ra = 520, jump @21\n      : @559 [@dyn 260] (gas: 3)\n 13834: t0 = 0x20a\n 13838: a1 = s1 + 0x2118\n 13842: fallthrough\n      : @560 [@dyn 261] (gas: 13)\n 13843: a2 = a1 + 0x200\n 13847: a0 = u64 [a2 + 0x20]\n 13850: a1 = s1 + 0x100\n 13854: u64 [a1 + 0x98] = a0\n 13858: a0 = u64 [a2 + 0x18]\n 13861: u64 [a1 + 0x90] = a0\n 13865: a0 = u64 [a2 + 0x10]\n 13868: u64 [a1 + 0x88] = a0\n 13872: a0 = u64 [a2 + 0x8]\n 13875: u64 [a1 + 0x80] = a0\n 13879: a0 = s1 + 0x2300\n 13883: a1 = 0x40\n 13886: ra = 524, jump @17\n      : @561 [@dyn 262] (gas: 7)\n 13892: a3 = s1 + 0x2118\n 13896: a0 = u64 [a3 + 0x200]\n 13900: a5 = a3 + 0x100\n 13904: a1 = u64 [a5 + 0xf8]\n 13908: a2 = u64 [a5 + 0xf0]\n 13912: a4 = u64 [a5 + 0xe8]\n 13916: t0 = 526, jump @2349\n      : @562 [@dyn 263] (gas: 1)\n 13923: jump @564 if a0 == 0\n      : @563 (gas: 1)\n 13926: jump @1912\n      : @564 (gas: 15)\n 13930: a2 = s1 + 0x100\n 13934: a0 = u64 [a2 + 0x80]\n 13938: a5 = a3 + 0x100\n 13942: u64 [a5 + 0xc8] = a0\n 13946: a0 = u64 [a2 + 0x88]\n 13950: u64 [a5 + 0xd0] = a0\n 13954: a0 = u64 [a2 + 0x90]\n 13958: u64 [a5 + 0xd8] = a0\n 13962: a1 = s1 + 0x22e0\n 13966: a0 = u64 [a2 + 0x98]\n 13970: u64 [a5 + 0xe0] = a0\n 13974: a0 = a4\n 13976: u64 [s1 + 0x198] = a4\n 13980: ra = 0x462\n 13984: jump @19\n      : @565 (gas: 11)\n 13987: u64 [a2 + 960] = 0\n 13991: u64 [a2 + 952] = 0\n 13995: u64 [a2 + 944] = 0\n 13999: u64 [a2 + 936] = 0\n 14003: a0 = s1 + 0x5000\n 14007: i32 a0 = a0 + 0xfffffffffffffcc0\n 14011: ra = 0x210\n 14015: ecalli 14 // 'value_transferred'\n 14017: a0 = 0x5000\n 14021: t0 = 0x212\n 14025: jump @2439\n      : @566 [@dyn 264] (gas: 2)\n 14029: a0 = 0x5000\n 14033: t0 = 530, jump @2439\n      : @567 [@dyn 265] (gas: 8)\n 14040: a0 = u64 [a4 + 0xb8]\n 14044: a1 = u64 [a4 + 0xc0]\n 14048: a2 = u64 [a4 + 0xb0]\n 14052: a3 = u64 [a4 + 0xa8]\n 14056: a1 = a1 | a2\n 14059: a0 = a0 | a3\n 14062: a0 = a0 | a1\n 14065: jump @569 if a0 == 0\n      : @568 (gas: 1)\n 14068: jump @1969\n      : @569 (gas: 4)\n 14072: a0 = u64 [s1 + 0x198]\n 14076: a0 = i32 [a0]\n 14078: a1 = 0x43\n 14081: jump @571 if a1 <u a0\n      : @570 (gas: 1)\n 14084: jump @1970\n      : @571 (gas: 4)\n 14088: a0 = s1 + 0x2500\n 14092: ra = 0x214\n 14096: t0 = 0x8ba\n 14100: jump @2444\n      : @572 [@dyn 266] (gas: 33)\n 14104: a1 = s1 + 0x2118\n 14108: a0 = u64 [a1 + 0x3e8]\n 14112: u64 [s1 + 0x178] = a0\n 14116: a0 = u64 [a1 + 0x3f0]\n 14120: u64 [s1 + 0x170] = a0\n 14124: a0 = u32 [a1 + 0x3f8]\n 14128: u64 [s1 + 0x168] = a0\n 14132: a0 = s1 + 0x5000\n 14136: i32 a0 = a0 + 0xfffffffffffffce0\n 14140: a1 = 0x24\n 14143: ecalli 2 // 'call_data_load'\n 14145: a0 = s1 + 0x4918\n 14149: a2 = a0 + 0x300\n 14153: a1 = u64 [a2 + 0xe0]\n 14157: u64 [s1 + 0x198] = a1\n 14161: a1 = u64 [a2 + 0xd8]\n 14165: u64 [s1 + 0x190] = a1\n 14169: a1 = u64 [a2 + 0xd0]\n 14173: u64 [s1 + 0x188] = a1\n 14177: a0 = u64 [a2 + 0xc8]\n 14181: u64 [s1 + 0x180] = a0\n 14185: a0 = s1 + 0x2118\n 14189: u64 [a0 + 992] = 0\n 14193: a1 = u64 [s1 + 0x168]\n 14197: a3 = a0 + 0x300\n 14201: u64 [a3 + 0xd8] = a1\n 14205: a1 = u64 [s1 + 0x170]\n 14209: u64 [a3 + 0xd0] = a1\n 14213: a1 = s1 + 0x24e0\n 14217: a2 = u64 [s1 + 0x178]\n 14221: u64 [a3 + 0xc8] = a2\n 14225: a0 = 0\n 14227: ra = 534, jump @19\n      : @573 [@dyn 267] (gas: 3)\n 14233: t0 = 0x218\n 14237: a1 = s1 + 0x2118\n 14241: fallthrough\n      : @574 [@dyn 268] (gas: 8)\n 14242: u64 [a1 + 960] = 0\n 14246: u64 [a1 + 952] = 0\n 14250: u64 [a1 + 936] = 0xc\n 14255: a2 = a1\n 14257: a0 = 0x20\n 14260: a1 = s1 + 0x24c0\n 14264: u64 [a2 + 944] = 0\n 14268: ra = 538, jump @19\n      : @575 [@dyn 269] (gas: 7)\n 14274: a0 = sp + 0xffffffffffffffe0\n 14277: a0 = a0 & 0xffffffffffffffe0\n 14280: u64 [s1 + 0x168] = a0\n 14284: sp = a0\n 14286: a2 = 0x2019c\n 14291: a0 = i32 [0x2019c]\n 14296: jump @577 if a0 >u 63\n      : @576 (gas: 2)\n 14300: u32 [0x2019c] = 0x40\n 14306: fallthrough\n      : @577 (gas: 31)\n 14307: u64 [s1 + 0x170] = a2\n 14311: a0 = sp + 0xffffffffffffffe0\n 14314: a2 = a0 & 0xffffffffffffffe0\n 14317: u64 [s1 + 0x160] = a2\n 14321: sp = a2\n 14323: a0 = 0x201b0\n 14328: i32 a0 = a0 + 0\n 14330: i32 a2 = a2 + 0\n 14332: a1 = 0x40\n 14335: u64 [s1 + 0x178] = a0\n 14339: ecalli 7 // 'hash_keccak_256'\n 14341: a3 = u64 [s1 + 0x160]\n 14345: a0 = u64 [a3 + 0x18]\n 14348: a1 = u64 [a3 + 0x10]\n 14351: a2 = u64 [a3 + 0x8]\n 14354: a3 = u64 [a3]\n 14356: a4 = reverse a0\n 14358: a5 = reverse a1\n 14360: a2 = reverse a2\n 14362: a0 = reverse a3\n 14364: a1 = u64 [s1 + 0x168]\n 14368: u64 [s1 + 0x160] = a0\n 14372: u64 [a1 + 0x18] = a0\n 14375: u64 [s1 + 0x148] = a2\n 14379: u64 [a1 + 0x10] = a2\n 14382: u64 [s1 + 0x150] = a5\n 14386: u64 [a1 + 0x8] = a5\n 14389: u64 [s1 + 0x158] = a4\n 14393: u64 [a1] = a4\n 14395: a0 = s1 + 0x24a0\n 14399: ra = 540, jump @21\n      : @578 [@dyn 270] (gas: 22)\n 14405: a5 = s1 + 0x2118\n 14409: a2 = a5 + 0x300\n 14413: a0 = u64 [a2 + 0x90]\n 14417: a1 = u64 [a2 + 0x88]\n 14421: t0 = u64 [a5 + 0x398]\n 14425: a3 = u64 [a2 + 0xa0]\n 14429: a2 = u64 [s1 + 0x188]\n 14433: a4 = a2 ^ a0\n 14436: a0 = a2 <u a0\n 14439: a2 = u64 [s1 + 0x180]\n 14443: a1 = a2 <u a1\n 14446: a1 = a0 if a4 != 0\n 14449: a4 = u64 [s1 + 0x198]\n 14453: a0 = a4 ^ a3\n 14456: a3 = a4 <u a3\n 14459: a2 = u64 [s1 + 0x190]\n 14463: a4 = a2 <u t0\n 14466: a4 = a3 if a0 != 0\n 14469: a2 = a2 ^ t0\n 14472: a0 = a0 | a2\n 14475: a1 = a4 if a0 != 0\n 14478: jump @580 if a1 != 0\n      : @579 (gas: 1)\n 14481: jump @1971\n      : @580 (gas: 12)\n 14485: a0 = u64 [s1 + 0x158]\n 14489: a2 = a5 + 0x300\n 14493: u64 [a2 + 0x68] = a0\n 14496: a0 = u64 [s1 + 0x150]\n 14500: u64 [a2 + 0x70] = a0\n 14503: a0 = u64 [s1 + 0x148]\n 14507: u64 [a2 + 0x78] = a0\n 14510: a1 = s1 + 0x2480\n 14514: a0 = u64 [s1 + 0x160]\n 14518: u64 [a2 + 0x80] = a0\n 14522: a0 = 0\n 14524: ra = 542, jump @19\n      : @581 [@dyn 271] (gas: 3)\n 14530: a2 = u64 [s1 + 0x170]\n 14534: a0 = i32 [a2]\n 14536: jump @583 if a0 >u 31\n      : @582 (gas: 2)\n 14540: u32 [a2 + 0] = 0x20\n 14543: fallthrough\n      : @583 (gas: 72)\n 14544: a0 = sp + 0xffffffffffffffe0\n 14547: a0 = a0 & 0xffffffffffffffe0\n 14550: u64 [s1 + 0x170] = a0\n 14554: sp = a0\n 14556: i32 a2 = a0 + 0\n 14558: a1 = 0x20\n 14561: a0 = u64 [s1 + 0x178]\n 14565: ecalli 7 // 'hash_keccak_256'\n 14567: a3 = u64 [s1 + 0x170]\n 14571: a0 = u64 [a3 + 0x18]\n 14574: a1 = u64 [a3 + 0x10]\n 14577: a2 = u64 [a3 + 0x8]\n 14580: a4 = u64 [a3]\n 14582: ra = reverse a0\n 14584: a3 = reverse a1\n 14586: a0 = reverse a2\n 14588: u64 [s1 + 0x170] = a0\n 14592: a0 = reverse a4\n 14594: u64 [s1 + 0x168] = a0\n 14598: a1 = sp + 0xffffffffffffffe0\n 14601: a1 = a1 & 0xffffffffffffffe0\n 14604: sp = a1\n 14606: a4 = 0x3\n 14609: a0 = u64 [s1 + 0x180]\n 14613: a2 = a0 << 0x1\n 14616: a2 = a2 + a0\n 14619: a5 = a0 mulhu a4\n 14622: a4 = u64 [s1 + 0x188]\n 14626: a0 = a4 << 0x1\n 14629: t0 = a0 + a4\n 14632: a0 = t0 + a5\n 14635: t2 = ra + a2\n 14638: ra = t2 <u ra\n 14641: u64 [s1 + 0x178] = t2\n 14645: a5 = a3 + a0\n 14648: t1 = a5 + ra\n 14651: a5 = t1 ^ a3\n 14654: a3 = t1 <u a3\n 14657: u64 [s1 + 0x180] = t1\n 14661: a3 = ra if a5 == 0\n 14664: a0 = a0 <u t0\n 14667: a5 = 0x3\n 14670: a2 = a4 mulhu a5\n 14673: a0 = a0 + a2\n 14676: a4 = u64 [s1 + 0x190]\n 14680: a2 = a4 << 0x1\n 14683: ra = a2 + a4\n 14686: a4 = a4 mulhu a5\n 14689: a2 = u64 [s1 + 0x198]\n 14693: a5 = a2 << 0x1\n 14696: a5 = a5 + a2\n 14699: a4 = a4 + a5\n 14702: a2 = u64 [s1 + 0x168]\n 14706: a4 = a4 + a2\n 14709: a2 = a0 + ra\n 14712: a0 = a2 <u a0\n 14715: a0 = a0 + a4\n 14718: a4 = u64 [s1 + 0x170]\n 14722: a2 = a2 + a4\n 14725: a4 = a2 <u a4\n 14728: a0 = a0 + a4\n 14731: a3 = a3 + a2\n 14734: u64 [s1 + 0x190] = a3\n 14738: a2 = a3 <u a2\n 14741: a0 = a0 + a2\n 14744: u64 [s1 + 0x198] = a0\n 14748: u64 [a1 + 0x8] = t1\n 14751: u64 [a1] = t2\n 14753: u64 [a1 + 0x10] = a3\n 14756: u64 [a1 + 0x18] = a0\n 14759: a0 = s1 + 0x2460\n 14763: ra = 544, jump @21\n      : @584 [@dyn 272] (gas: 2)\n 14769: a0 = 0x2000\n 14773: t0 = 546, jump @2396\n      : @585 [@dyn 273] (gas: 27)\n 14780: a0 = u64 [a2 + 0x58]\n 14783: u64 [s1 + 0x168] = a0\n 14787: a0 = u64 [a2 + 0x50]\n 14790: u64 [s1 + 0x170] = a0\n 14794: a0 = u64 [a2 + 0x48]\n 14797: u64 [s1 + 0x188] = a0\n 14801: a0 = u64 [s1 + 0x178]\n 14805: a0 = a0 + 0x1\n 14808: a1 = a0 <u 0x1\n 14811: a2 = u64 [s1 + 0x180]\n 14815: a1 = a1 + a2\n 14818: a2 = a0 | a1\n 14821: a2 = a2 <u 0x1\n 14824: a3 = u64 [s1 + 0x190]\n 14828: a2 = a2 + a3\n 14831: a3 = a2 <u a3\n 14834: a4 = u64 [s1 + 0x198]\n 14838: a3 = a3 + a4\n 14841: a4 = s1 + 0x4918\n 14845: u64 [a4 + 0x400] = a3\n 14849: a3 = a4 + 0x300\n 14853: u64 [a3 + 0xf8] = a2\n 14857: u64 [a3 + 0xf0] = a1\n 14861: u64 [a3 + 0xe8] = a0\n 14865: a0 = s1 + 0x2440\n 14869: a1 = s1 + 0x4d00\n 14873: ra = 548, jump @21\n      : @586 [@dyn 274] (gas: 8)\n 14879: a5 = s1 + 0x2118\n 14883: a0 = u64 [a5 + 0x340]\n 14887: u64 [s1 + 0x160] = a0\n 14891: a0 = u64 [a5 + 0x338]\n 14895: u64 [s1 + 0x158] = a0\n 14899: a1 = u64 [s1 + 0x178]\n 14903: a0 = a1 + 0x2\n 14906: t0 = 550, jump @2386\n      : @587 [@dyn 275] (gas: 18)\n 14913: a1 = u64 [a5 + 0x330]\n 14917: u64 [s1 + 0x180] = a1\n 14921: a1 = u64 [s1 + 0x190]\n 14925: a3 = a3 + a1\n 14928: a1 = a3 <u a1\n 14931: a4 = u64 [s1 + 0x198]\n 14935: a1 = a1 + a4\n 14938: a4 = u64 [a5 + 0x328]\n 14942: u64 [s1 + 0x190] = a4\n 14946: a4 = s1 + 0x4918\n 14950: a5 = a4 + 0x400\n 14954: u64 [a5 + 0x20] = a1\n 14957: u64 [a5 + 0x18] = a3\n 14960: u64 [a5 + 0x10] = a2\n 14963: u64 [a5 + 0x8] = a0\n 14966: a0 = s1 + 0x2420\n 14970: a1 = s1 + 0x4d20\n 14974: ra = 552, jump @21\n      : @588 [@dyn 276] (gas: 2)\n 14980: a0 = 0x2000\n 14984: t0 = 554, jump @2396\n      : @589 [@dyn 277] (gas: 12)\n 14991: a0 = u64 [a2 + 0x20]\n 14994: a1 = s1 + 0x100\n 14998: u64 [a1 + 0x50] = a0\n 15001: a0 = u64 [a2 + 0x18]\n 15004: u64 [a1 + 0x48] = a0\n 15007: a0 = u64 [a2 + 0x10]\n 15010: u64 [a1 + 0x40] = a0\n 15013: a0 = u64 [a2 + 0x8]\n 15016: u64 [a1 + 0x38] = a0\n 15019: a0 = s1 + 0x2400\n 15023: a1 = 0x40\n 15026: ra = 556, jump @17\n      : @590 [@dyn 278] (gas: 13)\n 15032: a3 = s1 + 0x2118\n 15036: a5 = u64 [a3 + 0x300]\n 15040: t0 = u64 [a3 + 0x2f8]\n 15044: a4 = u64 [a3 + 0x2f0]\n 15048: a0 = u64 [a3 + 0x2e8]\n 15052: a2 = a4 | a5\n 15055: a1 = a0 | t0\n 15058: a1 = a1 | a2\n 15061: a1 = a1 >> 0x20\n 15064: a2 = a2 | t0\n 15067: a2 = a2 << 0x20\n 15070: a1 = a1 | a2\n 15073: jump @592 if a1 == 0\n      : @591 (gas: 1)\n 15076: jump @1912\n      : @592 (gas: 18)\n 15080: u64 [s1 + 0x178] = a4\n 15084: a1 = 0xffffffff\n 15094: a2 = u64 [s1 + 0x168]\n 15098: a2 = a2 & a1\n 15101: a1 = u64 [s1 + 0x170]\n 15105: a1 = a1 & 0xffffffffffffffff\n 15108: u64 [s1 + 0x170] = a5\n 15112: a5 = u64 [s1 + 0x188]\n 15116: a4 = a5 & 0xffffffffffffffff\n 15119: u64 [a3 + 736] = 0\n 15123: a5 = a3 + 0x200\n 15127: u64 [a5 + 0xc8] = a4\n 15131: u64 [a5 + 0xd0] = a1\n 15135: a1 = s1 + 0x23e0\n 15139: u64 [a5 + 0xd8] = a2\n 15143: u64 [s1 + 0x198] = a0\n 15147: u64 [s1 + 0x188] = t0\n 15151: ra = 558, jump @19\n      : @593 [@dyn 279] (gas: 7)\n 15157: a4 = s1 + 0x100\n 15161: a3 = u64 [a4 + 0x78]\n 15164: a1 = u64 [a4 + 0x98]\n 15168: a0 = u64 [a4 + 0x70]\n 15171: a2 = u64 [a4 + 0x88]\n 15175: a2 = a2 | a0\n 15178: t0 = 560, jump @2442\n      : @594 [@dyn 280] (gas: 3)\n 15185: a0 = 0 if a3 != 0\n 15187: a0 = 0 if a2 != 0\n 15189: jump @596 if a0 != 0\n      : @595 (gas: 1)\n 15192: jump @1912\n      : @596 (gas: 16)\n 15196: i32 a0 = a1 + 0x20\n 15199: a1 = u64 [s1 + 0x190]\n 15203: u64 [s1 + 0x188] = a2\n 15207: a2 = s1 + 0x2118\n 15211: u64 [s1 + 0x170] = a4\n 15215: a4 = a2\n 15217: a3 = a2 + 0x200\n 15221: u64 [a3 + 0xa8] = a1\n 15225: a1 = u64 [s1 + 0x180]\n 15229: u64 [a3 + 0xb0] = a1\n 15233: a1 = u64 [s1 + 0x158]\n 15237: u64 [a3 + 0xb8] = a1\n 15241: a1 = s1 + 0x23c0\n 15245: a2 = u64 [s1 + 0x160]\n 15249: u64 [a4 + 0x2c0] = a2\n 15253: ra = 562, jump @19\n      : @597 [@dyn 281] (gas: 10)\n 15259: a2 = s1 + 0x100\n 15263: a3 = u64 [a2 + 0x98]\n 15267: a0 = u64 [a2 + 0x70]\n 15270: a0 = a0 + 0xffffffffffffffc0\n 15273: a0 = a3 <u a0\n 15276: a1 = u64 [a2 + 0x78]\n 15279: a0 = 0 if a1 != 0\n 15281: a1 = u64 [a2 + 0x88]\n 15285: a0 = 0 if a1 != 0\n 15287: jump @599 if a0 != 0\n      : @598 (gas: 1)\n 15290: jump @1912\n      : @599 (gas: 13)\n 15294: i32 a0 = a3 + 0x40\n 15297: a1 = u64 [s1 + 0x138]\n 15301: a4 = s1 + 0x2118\n 15305: a3 = a4 + 0x200\n 15309: u64 [a3 + 0x88] = a1\n 15313: a1 = u64 [s1 + 0x140]\n 15317: u64 [a3 + 0x90] = a1\n 15321: a1 = u64 [s1 + 0x148]\n 15325: u64 [a3 + 0x98] = a1\n 15329: a1 = s1 + 0x23a0\n 15333: a2 = u64 [s1 + 0x150]\n 15337: u64 [a3 + 0xa0] = a2\n 15341: ra = 564, jump @19\n      : @600 [@dyn 282] (gas: 3)\n 15347: a1 = 0x60\n 15350: a0 = u64 [s1 + 0x198]\n 15354: ra = 566, jump @31\n      : @601 [@dyn 283] (gas: 5)\n 15360: i32 a1 = a0 + 0\n 15362: a2 = 0x60\n 15365: a0 = 0\n 15367: ecalli 11 // 'seal_return'\n 15369: jump @1134\n      : @602 (gas: 9)\n 15372: u64 [a4 + 1920] = 0\n 15376: u64 [a4 + 1912] = 0\n 15380: u64 [a4 + 1904] = 0\n 15384: u64 [a4 + 1896] = 0\n 15388: a0 = s1 + 0x5000\n 15392: i32 a0 = a0 + 0xfffffffffffff880\n 15396: ra = 0x238\n 15400: ecalli 14 // 'value_transferred'\n 15402: fallthrough\n      : @603 [@dyn 284] (gas: 3)\n 15403: a3 = s1 + 0x4118\n 15407: a4 = a3 + 0x700\n 15411: t0 = 570, jump @2405\n      : @604 [@dyn 285] (gas: 1)\n 15418: jump @606 if a0 == 0\n      : @605 (gas: 1)\n 15421: jump @1972\n      : @606 (gas: 4)\n 15425: a0 = u64 [s1 + 0x198]\n 15429: a0 = i32 [a0]\n 15431: a1 = 0x43\n 15434: jump @608 if a1 <u a0\n      : @607 (gas: 1)\n 15437: jump @1973\n      : @608 (gas: 4)\n 15441: a0 = s1 + 0x1240\n 15445: ra = 0x23c\n 15449: t0 = 0x8ba\n 15453: jump @2444\n      : @609 [@dyn 286] (gas: 33)\n 15457: a1 = s1 + 0x1118\n 15461: a0 = u64 [a1 + 0x128]\n 15465: u64 [s1 + 0x178] = a0\n 15469: a0 = u64 [a1 + 0x130]\n 15473: u64 [s1 + 0x170] = a0\n 15477: a0 = u32 [a1 + 0x138]\n 15481: u64 [s1 + 0x168] = a0\n 15485: a0 = s1 + 0x5000\n 15489: i32 a0 = a0 + 0xfffffffffffff8a0\n 15493: a1 = 0x24\n 15496: ecalli 2 // 'call_data_load'\n 15498: a0 = s1 + 0x4118\n 15502: a2 = a0 + 0x700\n 15506: a1 = u64 [a2 + 0xa0]\n 15510: u64 [s1 + 0x180] = a1\n 15514: a1 = u64 [a2 + 0x98]\n 15518: u64 [s1 + 0x188] = a1\n 15522: a1 = u64 [a2 + 0x90]\n 15526: u64 [s1 + 0x190] = a1\n 15530: a0 = u64 [a2 + 0x88]\n 15534: u64 [s1 + 0x198] = a0\n 15538: a0 = s1 + 0x1118\n 15542: u64 [a0 + 288] = 0\n 15546: a1 = u64 [s1 + 0x168]\n 15550: a3 = a0 + 0x100\n 15554: u64 [a3 + 0x18] = a1\n 15557: a1 = u64 [s1 + 0x170]\n 15561: u64 [a3 + 0x10] = a1\n 15564: a1 = s1 + 0x1220\n 15568: a2 = u64 [s1 + 0x178]\n 15572: u64 [a3 + 0x8] = a2\n 15575: a0 = 0\n 15577: ra = 574, jump @19\n      : @610 [@dyn 287] (gas: 3)\n 15583: t0 = 0x240\n 15587: a1 = s1 + 0x1118\n 15591: fallthrough\n      : @611 [@dyn 288] (gas: 8)\n 15592: u64 [a1 + 256] = 0\n 15596: u64 [a1 + 248] = 0\n 15600: u64 [a1 + 232] = 0xb\n 15605: a2 = a1\n 15607: a0 = 0x20\n 15610: a1 = s1 + 0x1200\n 15614: u64 [a2 + 240] = 0\n 15618: ra = 578, jump @19\n      : @612 [@dyn 289] (gas: 6)\n 15624: a0 = sp + 0xffffffffffffffe0\n 15627: a0 = a0 & 0xffffffffffffffe0\n 15630: u64 [s1 + 0x160] = a0\n 15634: sp = a0\n 15636: a1 = i32 [0x2019c]\n 15641: jump @614 if a1 >u 63\n      : @613 (gas: 2)\n 15645: u32 [0x2019c] = 0x40\n 15651: fallthrough\n      : @614 (gas: 14)\n 15652: a0 = sp + 0xffffffffffffffe0\n 15655: a2 = a0 & 0xffffffffffffffe0\n 15658: u64 [s1 + 0x178] = a2\n 15662: sp = a2\n 15664: a0 = 0x201b0\n 15669: i32 a0 = a0 + 0\n 15671: i32 a2 = a2 + 0\n 15673: a1 = 0x40\n 15676: u64 [s1 + 0x150] = a0\n 15680: ra = 0x244\n 15684: ecalli 7 // 'hash_keccak_256'\n 15686: a3 = u64 [s1 + 0x178]\n 15690: t0 = 0x246\n 15694: jump @2336\n      : @615 [@dyn 290] (gas: 2)\n 15698: a3 = u64 [s1 + 0x178]\n 15702: t0 = 582, jump @2336\n      : @616 [@dyn 291] (gas: 11)\n 15709: a1 = u64 [s1 + 0x160]\n 15713: u64 [s1 + 0x158] = a3\n 15717: u64 [a1 + 0x18] = a3\n 15720: u64 [s1 + 0x168] = a2\n 15724: u64 [a1 + 0x10] = a2\n 15727: u64 [s1 + 0x170] = a4\n 15731: u64 [a1 + 0x8] = a4\n 15734: u64 [s1 + 0x178] = a0\n 15738: u64 [a1] = a0\n 15740: a0 = s1 + 0x11e0\n 15744: ra = 584, jump @21\n      : @617 [@dyn 292] (gas: 21)\n 15750: a5 = s1 + 0x1118\n 15754: a0 = u64 [a5 + 0xd0]\n 15758: a1 = u64 [a5 + 0xc8]\n 15762: t2 = u64 [a5 + 0xd8]\n 15766: a3 = u64 [a5 + 0xe0]\n 15770: t1 = u64 [s1 + 0x190]\n 15774: a4 = t1 ^ a0\n 15777: a0 = t1 <u a0\n 15780: t0 = u64 [s1 + 0x198]\n 15784: a1 = t0 <u a1\n 15787: a1 = a0 if a4 != 0\n 15790: ra = u64 [s1 + 0x180]\n 15794: a0 = ra ^ a3\n 15797: a2 = ra <u a3\n 15800: a3 = u64 [s1 + 0x188]\n 15804: a4 = a3 <u t2\n 15807: a4 = a2 if a0 != 0\n 15810: a2 = a3 ^ t2\n 15813: a0 = a0 | a2\n 15816: a1 = a4 if a0 != 0\n 15819: jump @619 if a1 != 0\n      : @618 (gas: 1)\n 15822: jump @1974\n      : @619 (gas: 20)\n 15826: a0 = sp + 0xffffffffffffffe0\n 15829: a0 = a0 & 0xffffffffffffffe0\n 15832: u64 [s1 + 0x160] = a0\n 15836: sp = a0\n 15838: u64 [a5 + 0x60] = ra\n 15841: u64 [a5 + 0x58] = a3\n 15844: u64 [a5 + 0x50] = t1\n 15847: u64 [a5 + 0x48] = t0\n 15850: a0 = u64 [s1 + 0x158]\n 15854: u64 [a5 + 0x80] = a0\n 15858: a0 = u64 [s1 + 0x168]\n 15862: u64 [a5 + 0x78] = a0\n 15865: a0 = u64 [s1 + 0x170]\n 15869: u64 [a5 + 0x70] = a0\n 15872: a0 = s1 + 0x11a0\n 15876: a1 = s1 + 0x1180\n 15880: a2 = s1 + 0x1160\n 15884: a3 = u64 [s1 + 0x178]\n 15888: u64 [a5 + 0x68] = a3\n 15891: ra = 586, jump @2147\n      : @620 [@dyn 293] (gas: 17)\n 15898: a1 = s1 + 0x1118\n 15902: a4 = u64 [a1 + 0x98]\n 15906: u64 [s1 + 0x180] = a4\n 15910: a0 = u64 [a1 + 0xa0]\n 15914: u64 [s1 + 0x198] = a0\n 15918: a2 = u64 [a1 + 0x88]\n 15922: u64 [s1 + 0x188] = a2\n 15926: a1 = u64 [a1 + 0x90]\n 15930: u64 [s1 + 0x190] = a1\n 15934: a3 = u64 [s1 + 0x160]\n 15938: u64 [a3 + 0x10] = a4\n 15941: u64 [a3 + 0x18] = a0\n 15944: u64 [a3] = a2\n 15946: u64 [a3 + 0x8] = a1\n 15949: a1 = a3\n 15951: a0 = s1 + 0x1140\n 15955: ra = 588, jump @21\n      : @621 [@dyn 294] (gas: 10)\n 15961: a1 = s1 + 0x1118\n 15965: a0 = u64 [a1 + 0x40]\n 15968: u64 [s1 + 0x178] = a0\n 15972: a0 = u64 [a1 + 0x38]\n 15975: u64 [s1 + 0x170] = a0\n 15979: a0 = u64 [a1 + 0x30]\n 15982: u64 [s1 + 0x168] = a0\n 15986: a0 = u64 [a1 + 0x28]\n 15989: u64 [s1 + 0x160] = a0\n 15993: t0 = 590, jump @2413\n      : @622 [@dyn 295] (gas: 15)\n 16000: a3 = a2 + 0x700\n 16004: u64 [a3 + 0xb0] = a1\n 16008: a1 = a1 | a0\n 16011: u64 [a3 + 0xa8] = a0\n 16015: a0 = a1 <u 0x1\n 16018: a1 = u64 [s1 + 0x180]\n 16022: a0 = a0 + a1\n 16025: u64 [a3 + 0xb8] = a0\n 16029: a0 = a0 <u a1\n 16032: a1 = u64 [s1 + 0x198]\n 16036: a0 = a0 + a1\n 16039: u64 [a3 + 0xc0] = a0\n 16043: a0 = s1 + 0x1120\n 16047: a1 = s1 + 0x48c0\n 16051: ra = 592, jump @21\n      : @623 [@dyn 296] (gas: 30)\n 16057: a1 = s1 + 0x1118\n 16061: a0 = u64 [a1 + 0x20]\n 16064: u64 [s1 + 0x158] = a0\n 16068: a0 = u64 [a1 + 0x18]\n 16071: u64 [s1 + 0x150] = a0\n 16075: a0 = u64 [a1 + 0x10]\n 16078: u64 [s1 + 0x148] = a0\n 16082: a0 = u64 [a1 + 0x8]\n 16085: u64 [s1 + 0x140] = a0\n 16089: a1 = u64 [s1 + 0x188]\n 16093: a0 = a1 + 0x2\n 16096: a1 = a0 <u a1\n 16099: a3 = u64 [s1 + 0x190]\n 16103: a2 = a3 + a1\n 16106: a3 = a2 <u a3\n 16109: a3 = a1 if a1 == 0\n 16112: a1 = u64 [s1 + 0x180]\n 16116: a3 = a3 + a1\n 16119: a1 = a3 <u a1\n 16122: a4 = u64 [s1 + 0x198]\n 16126: a1 = a1 + a4\n 16129: a4 = s1 + 0x4118\n 16133: a5 = a4 + 0x700\n 16137: u64 [a5 + 0xe0] = a1\n 16141: u64 [a5 + 0xd8] = a3\n 16145: u64 [a5 + 0xd0] = a2\n 16149: u64 [a5 + 0xc8] = a0\n 16153: a0 = s1 + 0x1100\n 16157: a1 = s1 + 0x48e0\n 16161: ra = 594, jump @21\n      : @624 [@dyn 297] (gas: 31)\n 16167: a1 = s1 + 0x1118\n 16171: a0 = u64 [a1]\n 16173: u64 [s1 + 0x138] = a0\n 16177: a2 = a1 + 0xffffffffffffff00\n 16181: a0 = u64 [a2 + 0xf8]\n 16185: u64 [s1 + 0x130] = a0\n 16189: a0 = u64 [a2 + 0xf0]\n 16193: u64 [s1 + 0x128] = a0\n 16197: a0 = u64 [a2 + 0xe8]\n 16201: u64 [s1 + 0x120] = a0\n 16205: a1 = u64 [s1 + 0x188]\n 16209: a0 = a1 + 0x3\n 16212: a1 = a0 <u a1\n 16215: a3 = u64 [s1 + 0x190]\n 16219: a2 = a3 + a1\n 16222: a3 = a2 <u a3\n 16225: a3 = a1 if a1 == 0\n 16228: a1 = u64 [s1 + 0x180]\n 16232: a3 = a3 + a1\n 16235: a1 = a3 <u a1\n 16238: a4 = u64 [s1 + 0x198]\n 16242: a1 = a1 + a4\n 16245: a4 = s1 + 0x4918\n 16249: u64 [a4] = a1\n 16251: a1 = a4 + 0xffffffffffffff00\n 16255: u64 [a1 + 0xf8] = a3\n 16259: u64 [a1 + 0xf0] = a2\n 16263: u64 [a1 + 0xe8] = a0\n 16267: a0 = s1 + 0x10e0\n 16271: a1 = s1 + 0x4900\n 16275: ra = 596, jump @21\n      : @625 [@dyn 298] (gas: 30)\n 16281: a5 = s1 + 0x7ff\n 16285: a5 = a5 + 0x119\n 16289: a0 = u64 [a5 + 0x7e0]\n 16293: u64 [s1 + 0x118] = a0\n 16297: a0 = u64 [a5 + 0x7d8]\n 16301: u64 [s1 + 0x110] = a0\n 16305: a0 = u64 [a5 + 0x7d0]\n 16309: u64 [s1 + 0x108] = a0\n 16313: a0 = u64 [s1 + 0x188]\n 16317: a2 = a0 + 0x4\n 16320: a0 = a2 <u a0\n 16323: a3 = u64 [s1 + 0x190]\n 16327: a1 = a3 + a0\n 16330: a3 = a1 <u a3\n 16333: a3 = a0 if a0 == 0\n 16336: a0 = u64 [a5 + 0x7c8]\n 16340: u64 [s1 + 0x100] = a0\n 16344: a0 = u64 [s1 + 0x180]\n 16348: a3 = a3 + a0\n 16351: a0 = a3 <u a0\n 16354: a4 = u64 [s1 + 0x198]\n 16358: a0 = a0 + a4\n 16361: a4 = a5 + 0x700\n 16365: u64 [a4 + 0xa0] = a0\n 16369: u64 [a4 + 0x98] = a3\n 16373: u64 [a4 + 0x90] = a1\n 16377: a0 = s1 + 0x10c0\n 16381: a1 = s1 + 0x10a0\n 16385: u64 [a4 + 0x88] = a2\n 16389: ra = 598, jump @2187\n      : @626 [@dyn 299] (gas: 14)\n 16396: a1 = s1 + 0x7ff\n 16400: a1 = a1 + 0x119\n 16404: a2 = a1 + 0x700\n 16408: a0 = u64 [a2 + 0xc0]\n 16412: u64 [s1 + 0xe0] = a0\n 16416: a0 = u64 [a2 + 0xb8]\n 16420: u64 [s1 + 0xe8] = a0\n 16424: a0 = u64 [a2 + 0xb0]\n 16428: u64 [s1 + 0xf0] = a0\n 16432: a0 = u64 [a2 + 0xa8]\n 16436: u64 [s1 + 0xf8] = a0\n 16440: a0 = s1 + 0x1080\n 16444: a1 = 0x40\n 16447: ra = 600, jump @17\n      : @627 [@dyn 300] (gas: 15)\n 16453: a2 = s1 + 0x7ff\n 16457: a2 = a2 + 0x119\n 16461: t0 = u64 [a2 + 0x780]\n 16465: a1 = a2 + 0x700\n 16469: a5 = u64 [a1 + 0x78]\n 16472: a4 = u64 [a1 + 0x70]\n 16475: a0 = u64 [a1 + 0x68]\n 16478: a3 = a4 | t0\n 16481: a1 = a0 | a5\n 16484: a1 = a1 | a3\n 16487: a1 = a1 >> 0x20\n 16490: a3 = a3 | a5\n 16493: a3 = a3 << 0x20\n 16496: a1 = a1 | a3\n 16499: jump @629 if a1 == 0\n      : @628 (gas: 1)\n 16502: jump @1912\n      : @629 (gas: 14)\n 16506: a1 = u64 [s1 + 0x160]\n 16510: u64 [a2 + 0x748] = a1\n 16514: a1 = u64 [s1 + 0x168]\n 16518: u64 [a2 + 0x750] = a1\n 16522: a1 = u64 [s1 + 0x170]\n 16526: u64 [a2 + 0x758] = a1\n 16530: a1 = s1 + 0x1060\n 16534: a3 = u64 [s1 + 0x178]\n 16538: u64 [a2 + 0x760] = a3\n 16542: u64 [s1 + 0x198] = a0\n 16546: u64 [s1 + 0x190] = a4\n 16550: u64 [s1 + 0x188] = t0\n 16554: u64 [s1 + 0x180] = a5\n 16558: ra = 602, jump @19\n      : @630 [@dyn 301] (gas: 6)\n 16564: a5 = s1 + 0x100\n 16568: a1 = u64 [a5 + 0x98]\n 16572: a0 = u64 [a5 + 0x88]\n 16576: a2 = u64 [a5 + 0x80]\n 16580: a3 = a2 | a0\n 16583: t0 = 604, jump @2442\n      : @631 [@dyn 302] (gas: 4)\n 16590: a2 = u64 [a5 + 0x90]\n 16594: a0 = 0 if a2 != 0\n 16596: a0 = 0 if a3 != 0\n 16598: jump @633 if a0 != 0\n      : @632 (gas: 1)\n 16601: jump @1912\n      : @633 (gas: 17)\n 16605: i32 a0 = a1 + 0x20\n 16608: a1 = s1 + 0x7ff\n 16612: a1 = a1 + 0x119\n 16616: u64 [s1 + 0x178] = a3\n 16620: a3 = a1\n 16622: a1 = u64 [s1 + 0x140]\n 16626: a5 = a3 + 0x700\n 16630: u64 [a5 + 0x28] = a1\n 16633: a1 = u64 [s1 + 0x148]\n 16637: u64 [a5 + 0x30] = a1\n 16640: a1 = u64 [s1 + 0x150]\n 16644: u64 [a5 + 0x38] = a1\n 16647: a1 = s1 + 0x1040\n 16651: a2 = u64 [s1 + 0x158]\n 16655: u64 [a5 + 0x40] = a2\n 16658: u64 [s1 + 0x170] = a4\n 16662: ra = 606, jump @19\n      : @634 [@dyn 303] (gas: 4)\n 16668: a3 = s1 + 0x100\n 16672: a1 = u64 [a3 + 0x98]\n 16676: a0 = u64 [a3 + 0x70]\n 16679: t0 = 608, jump @2451\n      : @635 [@dyn 304] (gas: 1)\n 16686: jump @637 if a0 != 0\n      : @636 (gas: 1)\n 16689: jump @1912\n      : @637 (gas: 14)\n 16693: i32 a0 = a1 + 0x40\n 16696: a2 = s1 + 0x7ff\n 16700: a2 = a2 + 0x119\n 16704: a1 = u64 [s1 + 0x120]\n 16708: a4 = a2 + 0x700\n 16712: u64 [a4 + 0x8] = a1\n 16715: a1 = u64 [s1 + 0x128]\n 16719: u64 [a4 + 0x10] = a1\n 16722: a1 = u64 [s1 + 0x130]\n 16726: u64 [a4 + 0x18] = a1\n 16729: a1 = s1 + 0x1020\n 16733: a3 = u64 [s1 + 0x138]\n 16737: u64 [a4 + 0x20] = a3\n 16740: ra = 610, jump @19\n      : @638 [@dyn 305] (gas: 10)\n 16746: a5 = s1 + 0x100\n 16750: a3 = u64 [a5 + 0x78]\n 16753: a1 = u64 [a5 + 0x98]\n 16757: a4 = 0x100000000\n 16767: a0 = 0xffffffa0\n 16777: a0 = a1 <u a0\n 16780: a2 = u64 [a5 + 0x90]\n 16784: a0 = 0 if a2 != 0\n 16786: a0 = 0 if a3 != 0\n 16788: jump @640 if a0 != 0\n      : @639 (gas: 1)\n 16791: jump @1912\n      : @640 (gas: 15)\n 16795: i32 a0 = a1 + 0x60\n 16798: a2 = s1 + 0x7ff\n 16802: a2 = a2 + 0x119\n 16806: a1 = u64 [s1 + 0x100]\n 16810: a3 = a2 + 0x600\n 16814: u64 [a3 + 0xe8] = a1\n 16818: a1 = u64 [s1 + 0x108]\n 16822: u64 [a3 + 0xf0] = a1\n 16826: a1 = u64 [s1 + 0x110]\n 16830: u64 [a3 + 0xf8] = a1\n 16834: a1 = s1 + 0x1000\n 16838: a3 = u64 [s1 + 0x118]\n 16842: u64 [a2 + 0x700] = a3\n 16846: u64 [s1 + 0x170] = a4\n 16850: ra = 612, jump @19\n      : @641 [@dyn 306] (gas: 10)\n 16856: a4 = s1 + 0x100\n 16860: a2 = u64 [a4 + 0x90]\n 16864: a1 = u64 [a4 + 0x98]\n 16868: a0 = u64 [a4 + 0x70]\n 16871: a0 = a0 + 0xffffffffffffff80\n 16874: a0 = a1 <u a0\n 16877: a0 = 0 if a2 != 0\n 16879: a3 = u64 [a4 + 0x78]\n 16882: a0 = 0 if a3 != 0\n 16884: jump @643 if a0 != 0\n      : @642 (gas: 1)\n 16887: jump @1912\n      : @643 (gas: 10)\n 16891: i32 a0 = a1 + 0x80\n 16895: a3 = s1 + 0x7ff\n 16899: a3 = a3 + 0x119\n 16903: u64 [a3 + 1760] = 0\n 16907: u64 [a3 + 1752] = 0\n 16911: u64 [a3 + 1736] = 0xa0\n 16917: a1 = s1 + 0x7ff\n 16921: a1 = a1 + 0x7e1\n 16925: u64 [a3 + 1744] = 0\n 16929: ra = 614, jump @19\n      : @644 [@dyn 307] (gas: 36)\n 16935: a0 = u64 [s1 + 0x198]\n 16939: a0 = a0 + 0xa0\n 16943: a1 = u64 [s1 + 0x198]\n 16947: a1 = a0 <u a1\n 16950: a3 = u64 [s1 + 0x190]\n 16954: a2 = a3 + a1\n 16957: a3 = a2 <u a3\n 16960: a3 = a1 if a1 == 0\n 16963: a1 = u64 [s1 + 0x180]\n 16967: a3 = a3 + a1\n 16970: a1 = a3 <u a1\n 16973: a4 = u64 [s1 + 0x188]\n 16977: a4 = a4 + a1\n 16980: a1 = s1 + 0x7ff\n 16984: a1 = a1 + 0x119\n 16988: a5 = a1 + 0x600\n 16992: u64 [a5 + 0x70] = a2\n 16995: u64 [a5 + 0x68] = a0\n 16998: a0 = u64 [s1 + 0xe0]\n 17002: u64 [a5 + 0xa0] = a0\n 17006: a0 = u64 [s1 + 0xe8]\n 17010: u64 [a5 + 0x98] = a0\n 17014: a0 = u64 [s1 + 0xf0]\n 17018: u64 [a5 + 0x90] = a0\n 17022: a0 = u64 [s1 + 0xf8]\n 17026: u64 [a5 + 0x88] = a0\n 17030: u64 [a5 + 0x78] = a3\n 17033: a3 = a1\n 17035: a0 = s1 + 0x7ff\n 17039: a0 = a0 + 0x7c1\n 17043: a1 = s1 + 0x7ff\n 17047: a1 = a1 + 0x7a1\n 17051: a2 = s1 + 0x7ff\n 17055: a2 = a2 + 0x781\n 17059: u64 [a3 + 0x680] = a4\n 17063: ra = 616, jump @2120\n      : @645 [@dyn 308] (gas: 19)\n 17070: a0 = s1 + 0x7ff\n 17074: a0 = a0 + 0x119\n 17078: a1 = u64 [a0 + 0x6b0]\n 17082: t0 = u64 [a0 + 0x6c0]\n 17086: t1 = u64 [a0 + 0x6a8]\n 17090: a3 = u64 [a0 + 0x6b8]\n 17094: a2 = s1 + 0x100\n 17098: a0 = u64 [a2 + 0x90]\n 17102: a4 = a1 ^ a0\n 17105: a5 = a1 <u a0\n 17108: ra = a0\n 17110: a0 = u64 [a2 + 0x98]\n 17114: t2 = t1 <u a0\n 17117: a5 = t2 if a4 == 0\n 17120: a0 = u64 [a2 + 0x80]\n 17124: a4 = a3 - a0\n 17127: a3 = a3 <u a0\n 17130: a0 = u64 [a2 + 0x88]\n 17134: jump @1511\n      : @646 (gas: 11)\n 17137: u64 [a4 + 864] = 0\n 17141: u64 [a4 + 856] = 0\n 17145: u64 [a4 + 848] = 0\n 17149: u64 [a4 + 840] = 0\n 17153: a0 = s1 + 0x4000\n 17157: i32 a0 = a0 + 0x460\n 17161: ra = 0x26a\n 17165: ecalli 14 // 'value_transferred'\n 17167: a0 = 0x4000\n 17171: t0 = 0x26c\n 17175: jump @2415\n      : @647 [@dyn 309] (gas: 2)\n 17179: a0 = 0x4000\n 17183: t0 = 620, jump @2415\n      : @648 [@dyn 310] (gas: 1)\n 17190: t0 = 622, jump @2401\n      : @649 [@dyn 311] (gas: 1)\n 17197: jump @651 if a0 == 0\n      : @650 (gas: 1)\n 17200: jump @1975\n      : @651 (gas: 3)\n 17204: a0 = u64 [s1 + 0x198]\n 17208: a0 = i32 [a0]\n 17210: jump @653 if a0 >u 3\n      : @652 (gas: 1)\n 17214: jump @1976\n      : @653 (gas: 3)\n 17218: a0 = s1 + 0x380\n 17222: a1 = 0x40\n 17225: ra = 624, jump @17\n      : @654 [@dyn 312] (gas: 16)\n 17231: a0 = u64 [s1 + 0x398]\n 17235: u64 [s1 + 0xf8] = a0\n 17239: a0 = u64 [s1 + 0x390]\n 17243: u64 [s1 + 0x100] = a0\n 17247: a0 = u64 [s1 + 0x388]\n 17251: u64 [s1 + 0x108] = a0\n 17255: a0 = u64 [s1 + 0x380]\n 17259: u64 [s1 + 0x110] = a0\n 17263: a0 = s1 + 0x4118\n 17267: u64 [a0 + 896] = 0\n 17271: u64 [a0 + 888] = 0\n 17275: u64 [a0 + 880] = 0\n 17279: u64 [a0 + 872] = 0x3\n 17284: a0 = s1 + 0x360\n 17288: a1 = s1 + 0x4480\n 17292: ra = 626, jump @21\n      : @655 [@dyn 313] (gas: 16)\n 17298: a4 = s1 + 0x300\n 17302: a0 = u64 [a4 + 0x78]\n 17305: a1 = u64 [a4 + 0x70]\n 17308: a2 = u64 [a4 + 0x68]\n 17311: a3 = u64 [a4 + 0x60]\n 17314: u64 [s1 + 0x190] = a0\n 17318: u64 [a4 + 0x38] = a0\n 17321: u64 [s1 + 0x188] = a1\n 17325: u64 [a4 + 0x30] = a1\n 17328: u64 [s1 + 0x180] = a2\n 17332: u64 [a4 + 0x28] = a2\n 17335: a0 = s1 + 0x340\n 17339: a1 = s1 + 0x320\n 17343: u64 [s1 + 0x198] = a3\n 17347: u64 [a4 + 0x20] = a3\n 17350: ra = 628, jump @2159\n      : @656 [@dyn 314] (gas: 1)\n 17357: t0 = 630, jump @2397\n      : @657 [@dyn 315] (gas: 1)\n 17364: jump @659 if a1 == 0\n      : @658 (gas: 1)\n 17367: jump @1912\n      : @659 (gas: 15)\n 17371: a5 = s1 + 0x300\n 17375: a2 = u64 [a5 + 0x58]\n 17378: a3 = u64 [a5 + 0x50]\n 17381: a1 = u64 [a5 + 0x48]\n 17384: a4 = u64 [a5 + 0x40]\n 17387: u64 [s1 + 0x140] = a4\n 17391: u64 [a5] = a4\n 17393: u64 [s1 + 0x150] = a1\n 17397: u64 [a5 + 0x8] = a1\n 17400: u64 [s1 + 0x148] = a3\n 17404: u64 [a5 + 0x10] = a3\n 17407: a1 = s1 + 0x300\n 17411: u64 [s1 + 0x158] = a2\n 17415: u64 [a5 + 0x18] = a2\n 17418: ra = 632, jump @19\n      : @660 [@dyn 316] (gas: 3)\n 17424: a3 = u64 [s1 + 0x198]\n 17428: a0 = a3 & 0x1\n 17431: jump @662 if a0 == 0\n      : @661 (gas: 1)\n 17434: jump @1339\n      : @662 (gas: 1)\n 17437: t0 = 634, jump @2382\n      : @663 [@dyn 317] (gas: 1)\n 17444: jump @665 if a1 != 0\n      : @664 (gas: 1)\n 17447: jump @1912\n      : @665 (gas: 12)\n 17451: a1 = a3 & 0xffffffffffffff00\n 17455: i32 a0 = a4 + 0x20\n 17458: a3 = u64 [s1 + 0x180]\n 17462: a2 = s1 + 0x200\n 17466: u64 [a2 + 0x88] = a3\n 17470: u64 [a2 + 0x80] = a1\n 17474: a1 = u64 [s1 + 0x188]\n 17478: u64 [a2 + 0x90] = a1\n 17482: a1 = s1 + 0x280\n 17486: a3 = u64 [s1 + 0x190]\n 17490: u64 [a2 + 0x98] = a3\n 17494: ra = 636, jump @19\n      : @666 [@dyn 318] (gas: 16)\n 17500: a3 = s1 + 0x100\n 17504: a5 = u64 [a3 + 0x10]\n 17507: t2 = 0\n 17509: t1 = 0\n 17511: u64 [s1 + 400] = 0\n 17515: a0 = u64 [a3 + 0x48]\n 17518: a1 = u64 [a3 + 0x40]\n 17521: a0 = a0 | a1\n 17524: a1 = u64 [a3 + 0x58]\n 17527: a2 = u64 [a3 + 0x50]\n 17530: a1 = a1 | a2\n 17533: a0 = a0 | a1\n 17536: a0 = a0 >u 0\n 17538: a0 = a0 << 0x5\n 17541: u64 [a3 + 0x98] = a0\n 17545: jump @1494\n      : @667 (gas: 8)\n 17548: u64 [a4 + 1856] = 0\n 17552: u64 [a4 + 1848] = 0\n 17556: u64 [a4 + 1840] = 0\n 17560: u64 [a4 + 1832] = 0\n 17564: a0 = s1 + 0x5000\n 17568: i32 a0 = a0 + 0xfffffffffffff840\n 17572: ecalli 14 // 'value_transferred'\n 17574: fallthrough\n      : @668 (gas: 10)\n 17575: a4 = s1 + 0x4118\n 17579: a5 = a4 + 0x700\n 17583: a0 = u64 [a5 + 0x38]\n 17586: a1 = u64 [a5 + 0x40]\n 17589: a2 = u64 [a5 + 0x30]\n 17592: a3 = u64 [a5 + 0x28]\n 17595: a1 = a1 | a2\n 17598: a0 = a0 | a3\n 17601: a0 = a0 | a1\n 17604: jump @670 if a0 == 0\n      : @669 (gas: 1)\n 17607: jump @1977\n      : @670 (gas: 3)\n 17611: a0 = u64 [s1 + 0x198]\n 17615: a0 = i32 [a0]\n 17617: jump @672 if a0 >u 3\n      : @671 (gas: 1)\n 17621: jump @1978\n      : @672 (gas: 8)\n 17625: u64 [a4 + 1888] = 0\n 17629: u64 [a4 + 1880] = 0\n 17633: u64 [a4 + 1872] = 0\n 17637: u64 [a4 + 1864] = 0x6\n 17642: a0 = s1 + 0x7ff\n 17646: a0 = a0 + 0x761\n 17650: a1 = s1 + 0x4860\n 17654: ra = 638, jump @21\n      : @673 [@dyn 319] (gas: 16)\n 17660: a1 = s1 + 0x7ff\n 17664: a1 = a1 + 0x119\n 17668: a2 = a1 + 0x600\n 17672: a0 = u64 [a2 + 0x60]\n 17675: a1 = s1 + 0x100\n 17679: u64 [a1 + 0x98] = a0\n 17683: a0 = u64 [a2 + 0x58]\n 17686: u64 [a1 + 0x90] = a0\n 17690: a0 = u64 [a2 + 0x50]\n 17693: u64 [a1 + 0x88] = a0\n 17697: a0 = u64 [a2 + 0x48]\n 17700: u64 [a1 + 0x80] = a0\n 17704: a0 = s1 + 0x7ff\n 17708: a0 = a0 + 0x741\n 17712: a1 = 0x40\n 17715: ra = 640, jump @17\n      : @674 [@dyn 320] (gas: 8)\n 17721: a3 = s1 + 0x7ff\n 17725: a3 = a3 + 0x119\n 17729: a5 = a3 + 0x600\n 17733: a0 = u64 [a5 + 0x40]\n 17736: a1 = u64 [a5 + 0x38]\n 17739: a2 = u64 [a5 + 0x30]\n 17742: a4 = u64 [a5 + 0x28]\n 17745: t0 = 642, jump @2349\n      : @675 [@dyn 321] (gas: 1)\n 17752: jump @677 if a0 == 0\n      : @676 (gas: 1)\n 17755: jump @1912\n      : @677 (gas: 16)\n 17759: a2 = s1 + 0x100\n 17763: a0 = u64 [a2 + 0x80]\n 17767: a5 = a3 + 0x600\n 17771: u64 [a5 + 0x8] = a0\n 17774: a0 = u64 [a2 + 0x88]\n 17778: u64 [a5 + 0x10] = a0\n 17781: a0 = u64 [a2 + 0x90]\n 17785: u64 [a5 + 0x18] = a0\n 17788: a1 = s1 + 0x7ff\n 17792: a1 = a1 + 0x721\n 17796: a0 = u64 [a2 + 0x98]\n 17800: u64 [a5 + 0x20] = a0\n 17803: a0 = a4\n 17805: u64 [s1 + 0x198] = a4\n 17809: ra = 0x462\n 17813: jump @19\n      : @678 (gas: 9)\n 17816: u64 [a4 + 1504] = 0\n 17820: u64 [a4 + 1496] = 0\n 17824: u64 [a4 + 1488] = 0\n 17828: u64 [a4 + 1480] = 0\n 17832: a0 = s1 + 0x4000\n 17836: i32 a0 = a0 + 0x6e0\n 17840: ra = 0x284\n 17844: ecalli 14 // 'value_transferred'\n 17846: fallthrough\n      : @679 [@dyn 322] (gas: 3)\n 17847: a3 = s1 + 0x4118\n 17851: a4 = a3 + 0x500\n 17855: t0 = 646, jump @2365\n      : @680 [@dyn 323] (gas: 1)\n 17862: jump @682 if a0 == 0\n      : @681 (gas: 1)\n 17865: jump @1979\n      : @682 (gas: 4)\n 17869: a0 = u64 [s1 + 0x198]\n 17873: a0 = i32 [a0]\n 17875: a1 = 0x63\n 17878: jump @684 if a1 <u a0\n      : @683 (gas: 1)\n 17881: jump @1980\n      : @684 (gas: 5)\n 17885: a0 = s1 + 0x7ff\n 17889: a0 = a0 + 0x481\n 17893: ra = 0x288\n 17897: t0 = 0x8ba\n 17901: jump @2444\n      : @685 [@dyn 324] (gas: 16)\n 17905: a1 = s1 + 0x7ff\n 17909: a1 = a1 + 0x119\n 17913: a2 = a1 + 0x300\n 17917: a0 = u64 [a2 + 0x80]\n 17921: u64 [s1 + 0x148] = a0\n 17925: a0 = u64 [a2 + 0x78]\n 17928: u64 [s1 + 0x158] = a0\n 17932: a0 = u64 [a2 + 0x70]\n 17935: u64 [s1 + 0x198] = a0\n 17939: a0 = u64 [a2 + 0x68]\n 17942: u64 [s1 + 0x190] = a0\n 17946: a0 = s1 + 0x7ff\n 17950: a0 = a0 + 0x461\n 17954: ra = 0x28a\n 17958: t0 = 0x8c4\n 17962: jump @2444\n      : @686 [@dyn 325] (gas: 43)\n 17966: a1 = s1 + 0x7ff\n 17970: a1 = a1 + 0x119\n 17974: a2 = a1 + 0x300\n 17978: a0 = u64 [a2 + 0x60]\n 17981: u64 [s1 + 0x140] = a0\n 17985: a0 = u64 [a2 + 0x58]\n 17988: u64 [s1 + 0x138] = a0\n 17992: a0 = u64 [a2 + 0x50]\n 17995: u64 [s1 + 0x130] = a0\n 17999: a0 = u64 [a2 + 0x48]\n 18002: u64 [s1 + 0x128] = a0\n 18006: a0 = s1 + 0x4000\n 18010: i32 a0 = a0 + 0x700\n 18014: a1 = 0x44\n 18017: ecalli 2 // 'call_data_load'\n 18019: a0 = s1 + 0x4118\n 18023: a1 = u64 [a0 + 0x600]\n 18027: a3 = s1 + 0x100\n 18031: u64 [a3 + 0x88] = a1\n 18035: a2 = a0 + 0x500\n 18039: a1 = u64 [a2 + 0xf8]\n 18043: u64 [a3 + 0x78] = a1\n 18046: a1 = u64 [a2 + 0xf0]\n 18050: u64 [a3 + 0x68] = a1\n 18053: a0 = u64 [a2 + 0xe8]\n 18057: u64 [a3 + 0x70] = a0\n 18060: a0 = u64 [a3 + 0x58]\n 18063: a0 = a0 << 0x20\n 18066: a0 = a0 >> 0x20\n 18069: a2 = s1 + 0x7ff\n 18073: a2 = a2 + 0x119\n 18077: u64 [a2 + 832] = 0\n 18081: u64 [a3 + 0x18] = a0\n 18084: a4 = a2 + 0x300\n 18088: u64 [a4 + 0x38] = a0\n 18091: a0 = u64 [a3 + 0x98]\n 18095: u64 [a4 + 0x30] = a0\n 18098: a1 = s1 + 0x7ff\n 18102: a1 = a1 + 0x441\n 18106: a0 = u64 [a3 + 0x90]\n 18110: u64 [a4 + 0x28] = a0\n 18113: a0 = 0\n 18115: ra = 652, jump @19\n      : @687 [@dyn 326] (gas: 11)\n 18121: a1 = s1 + 0x7ff\n 18125: a1 = a1 + 0x119\n 18129: u64 [a1 + 800] = 0\n 18133: u64 [a1 + 792] = 0\n 18137: u64 [a1 + 776] = 0x1\n 18142: a2 = a1\n 18144: a0 = 0x20\n 18147: a1 = s1 + 0x7ff\n 18151: a1 = a1 + 0x421\n 18155: u64 [a2 + 784] = 0\n 18159: ra = 654, jump @19\n      : @688 [@dyn 327] (gas: 3)\n 18165: a1 = 0x2019c\n 18170: a0 = i32 [0x2019c]\n 18175: jump @690 if a0 >u 63\n      : @689 (gas: 2)\n 18179: u32 [0x2019c] = 0x40\n 18185: fallthrough\n      : @690 (gas: 15)\n 18186: a0 = sp + 0xffffffffffffffe0\n 18189: a2 = a0 & 0xffffffffffffffe0\n 18192: u64 [s1 + 0x150] = a2\n 18196: sp = a2\n 18198: a0 = 0x201b0\n 18203: i32 a0 = a0 + 0\n 18205: i32 a2 = a2 + 0\n 18207: u64 [s1 + 0x160] = a1\n 18211: a1 = 0x40\n 18214: u64 [s1 + 0x180] = a0\n 18218: ra = 0x290\n 18222: ecalli 7 // 'hash_keccak_256'\n 18224: a3 = u64 [s1 + 0x150]\n 18228: t0 = 0x292\n 18232: jump @2453\n      : @691 [@dyn 328] (gas: 2)\n 18236: a3 = u64 [s1 + 0x150]\n 18240: t0 = 658, jump @2453\n      : @692 [@dyn 329] (gas: 20)\n 18247: u64 [s1 + 0x108] = a0\n 18251: a0 = reverse a1\n 18253: u64 [s1 + 0x100] = a0\n 18257: a0 = reverse a2\n 18259: u64 [s1 + 0xf8] = a0\n 18263: a0 = reverse a3\n 18265: u64 [s1 + 0xf0] = a0\n 18269: a0 = sp + 0xffffffffffffffe0\n 18272: a0 = a0 & 0xffffffffffffffe0\n 18275: u64 [s1 + 0x110] = a0\n 18279: sp = a0\n 18281: a0 = 0x301b0\n 18286: u64 [s1 + 0x150] = a0\n 18290: i32 a0 = a0 + 0\n 18292: u64 [s1 + 0x120] = a0\n 18296: ra = 0x294\n 18300: ecalli 4 // 'caller'\n 18302: a2 = u64 [s1 + 0x150]\n 18306: t0 = 0x296\n 18310: jump @2338\n      : @693 [@dyn 330] (gas: 2)\n 18314: a2 = u64 [s1 + 0x150]\n 18318: t0 = 662, jump @2338\n      : @694 [@dyn 331] (gas: 9)\n 18325: u64 [a2 + 768] = 0\n 18329: a4 = a2 + 0x200\n 18333: u64 [a4 + 0xf8] = a1\n 18337: u64 [a4 + 0xf0] = a0\n 18341: a1 = s1 + 0x7ff\n 18345: a1 = a1 + 0x401\n 18349: u64 [a4 + 0xe8] = a3\n 18353: a0 = 0\n 18355: ra = 664, jump @19\n      : @695 [@dyn 332] (gas: 16)\n 18361: a0 = u64 [s1 + 0xf0]\n 18365: a1 = s1 + 0x7ff\n 18369: a1 = a1 + 0x119\n 18373: a2 = a1 + 0x200\n 18377: u64 [a2 + 0xe0] = a0\n 18381: a0 = u64 [s1 + 0xf8]\n 18385: u64 [a2 + 0xd8] = a0\n 18389: a0 = u64 [s1 + 0x100]\n 18393: u64 [a2 + 0xd0] = a0\n 18397: a3 = a1\n 18399: a0 = 0x20\n 18402: a1 = s1 + 0x7ff\n 18406: a1 = a1 + 0x3e1\n 18410: a2 = u64 [s1 + 0x108]\n 18414: u64 [a3 + 0x2c8] = a2\n 18418: ra = 666, jump @19\n      : @696 [@dyn 333] (gas: 3)\n 18424: a1 = u64 [s1 + 0x160]\n 18428: a0 = i32 [a1]\n 18430: jump @698 if a0 >u 63\n      : @697 (gas: 2)\n 18434: u32 [a1 + 0] = 0x40\n 18437: fallthrough\n      : @698 (gas: 4)\n 18438: a0 = sp + 0xffffffffffffffe0\n 18441: a0 = a0 & 0xffffffffffffffe0\n 18444: u64 [s1 + 0x108] = a0\n 18448: t0 = 668, jump @2370\n      : @699 [@dyn 334] (gas: 5)\n 18455: ra = 0x29e\n 18459: ecalli 7 // 'hash_keccak_256'\n 18461: a3 = u64 [s1 + 0x108]\n 18465: t0 = 0x2a0\n 18469: jump @2336\n      : @700 [@dyn 335] (gas: 2)\n 18473: a3 = u64 [s1 + 0x108]\n 18477: t0 = 672, jump @2336\n      : @701 [@dyn 336] (gas: 8)\n 18484: a1 = u64 [s1 + 0x110]\n 18488: u64 [a1 + 0x18] = a3\n 18491: u64 [a1 + 0x10] = a2\n 18494: u64 [a1 + 0x8] = a4\n 18497: u64 [a1] = a0\n 18499: a0 = s1 + 0x7ff\n 18503: a0 = a0 + 0x3c1\n 18507: ra = 674, jump @21\n      : @702 [@dyn 337] (gas: 10)\n 18513: a3 = s1 + 0x7ff\n 18517: a3 = a3 + 0x119\n 18521: t0 = u64 [a3 + 0x2c0]\n 18525: t2 = u64 [a3 + 0x2b8]\n 18529: a4 = u64 [a3 + 0x2b0]\n 18533: a2 = u64 [a3 + 0x2a8]\n 18537: a0 = a4 & t0\n 18540: a1 = a2 & t2\n 18543: a0 = a0 & a1\n 18546: jump @726 if a0 == 4294967295\n      : @703 (gas: 20)\n 18551: a0 = u64 [s1 + 0x170]\n 18555: u64 [s1 + 0x110] = a2\n 18559: t1 = a2 <u a0\n 18562: a1 = u64 [s1 + 0x168]\n 18566: a0 = a4 ^ a1\n 18569: a5 = a4 <u a1\n 18572: a5 = t1 if a0 == 0\n 18575: a2 = u64 [s1 + 0x178]\n 18579: ra = t2 <u a2\n 18582: a1 = u64 [s1 + 0x188]\n 18586: a0 = t0 ^ a1\n 18589: a1 = t0 <u a1\n 18592: a1 = ra if a0 == 0\n 18595: a2 = t2 ^ a2\n 18598: a0 = a0 | a2\n 18601: a1 = a5 if a0 == 0\n 18604: u64 [s1 + 0x108] = a4\n 18608: u64 [s1 + 0x100] = t0\n 18612: u64 [s1 + 0xf8] = t2\n 18616: jump @705 if a1 == 0\n      : @704 (gas: 1)\n 18619: jump @2025\n      : @705 (gas: 10)\n 18623: u64 [s1 + 0xe0] = ra\n 18627: u64 [s1 + 0xe8] = a5\n 18631: u64 [s1 + 0xf0] = t1\n 18635: a2 = s1 + 0x100\n 18639: a0 = u64 [a2 + 0x90]\n 18643: a1 = u64 [a2 + 0x18]\n 18646: a0 = a0 | a1\n 18649: a1 = u64 [a2 + 0x98]\n 18653: a0 = a0 | a1\n 18656: jump @707 if a0 != 0\n      : @706 (gas: 1)\n 18659: jump @2034\n      : @707 (gas: 3)\n 18663: a0 = u64 [s1 + 0x120]\n 18667: ecalli 4 // 'caller'\n 18669: fallthrough\n      : @708 (gas: 7)\n 18670: a2 = u64 [s1 + 0x150]\n 18674: a0 = u32 [a2 + 0x10]\n 18677: a1 = u64 [a2]\n 18679: a2 = u64 [a2 + 0x8]\n 18682: a0 = a0 | a1\n 18685: a0 = a0 | a2\n 18688: jump @710 if a0 != 0\n      : @709 (gas: 1)\n 18691: jump @2036\n      : @710 (gas: 14)\n 18695: a2 = s1 + 0x7ff\n 18699: a2 = a2 + 0x119\n 18703: u64 [a2 + 672] = 0\n 18707: a0 = u64 [s1 + 0x190]\n 18711: a3 = a2 + 0x200\n 18715: u64 [a3 + 0x88] = a0\n 18719: a0 = u64 [s1 + 0x198]\n 18723: u64 [a3 + 0x90] = a0\n 18727: a1 = s1 + 0x7ff\n 18731: a1 = a1 + 0x3a1\n 18735: a0 = u64 [s1 + 0x118]\n 18739: u64 [a3 + 0x98] = a0\n 18743: a0 = 0\n 18745: ra = 676, jump @19\n      : @711 [@dyn 338] (gas: 11)\n 18751: a1 = s1 + 0x7ff\n 18755: a1 = a1 + 0x119\n 18759: u64 [a1 + 640] = 0\n 18763: u64 [a1 + 632] = 0\n 18767: u64 [a1 + 616] = 0x1\n 18772: a2 = a1\n 18774: a0 = 0x20\n 18777: a1 = s1 + 0x7ff\n 18781: a1 = a1 + 0x381\n 18785: u64 [a2 + 624] = 0\n 18789: ra = 678, jump @19\n      : @712 [@dyn 339] (gas: 3)\n 18795: a1 = u64 [s1 + 0x160]\n 18799: a0 = i32 [a1]\n 18801: jump @714 if a0 >u 63\n      : @713 (gas: 2)\n 18805: u32 [a1 + 0] = 0x40\n 18808: fallthrough\n      : @714 (gas: 4)\n 18809: a0 = sp + 0xffffffffffffffe0\n 18812: a0 = a0 & 0xffffffffffffffe0\n 18815: u64 [s1 + 0x118] = a0\n 18819: t0 = 680, jump @2370\n      : @715 [@dyn 340] (gas: 5)\n 18826: ra = 0x2aa\n 18830: ecalli 7 // 'hash_keccak_256'\n 18832: a3 = u64 [s1 + 0x118]\n 18836: t0 = 0x2ac\n 18840: jump @2453\n      : @716 [@dyn 341] (gas: 2)\n 18844: a3 = u64 [s1 + 0x118]\n 18848: t0 = 684, jump @2453\n      : @717 [@dyn 342] (gas: 17)\n 18855: u64 [s1 + 0xd8] = a0\n 18859: a0 = reverse a1\n 18861: u64 [s1 + 0xd0] = a0\n 18865: a0 = reverse a2\n 18867: u64 [s1 + 0xc8] = a0\n 18871: a0 = reverse a3\n 18873: u64 [s1 + 0xc0] = a0\n 18877: a0 = sp + 0xffffffffffffffe0\n 18880: a0 = a0 & 0xffffffffffffffe0\n 18883: u64 [s1 + 0x118] = a0\n 18887: sp = a0\n 18889: a0 = u64 [s1 + 0x120]\n 18893: ra = 0x2ae\n 18897: ecalli 4 // 'caller'\n 18899: a2 = u64 [s1 + 0x150]\n 18903: t0 = 0x2b0\n 18907: jump @2338\n      : @718 [@dyn 343] (gas: 2)\n 18911: a2 = u64 [s1 + 0x150]\n 18915: t0 = 688, jump @2338\n      : @719 [@dyn 344] (gas: 9)\n 18922: u64 [a2 + 608] = 0\n 18926: a4 = a2 + 0x200\n 18930: u64 [a4 + 0x58] = a1\n 18933: u64 [a4 + 0x50] = a0\n 18936: a1 = s1 + 0x7ff\n 18940: a1 = a1 + 0x361\n 18944: u64 [a4 + 0x48] = a3\n 18947: a0 = 0\n 18949: ra = 690, jump @19\n      : @720 [@dyn 345] (gas: 16)\n 18955: a0 = u64 [s1 + 0xc0]\n 18959: a1 = s1 + 0x7ff\n 18963: a1 = a1 + 0x119\n 18967: a2 = a1 + 0x200\n 18971: u64 [a2 + 0x40] = a0\n 18974: a0 = u64 [s1 + 0xc8]\n 18978: u64 [a2 + 0x38] = a0\n 18981: a0 = u64 [s1 + 0xd0]\n 18985: u64 [a2 + 0x30] = a0\n 18988: a3 = a1\n 18990: a0 = 0x20\n 18993: a1 = s1 + 0x7ff\n 18997: a1 = a1 + 0x341\n 19001: a2 = u64 [s1 + 0xd8]\n 19005: u64 [a3 + 0x228] = a2\n 19009: ra = 692, jump @19\n      : @721 [@dyn 346] (gas: 3)\n 19015: a1 = u64 [s1 + 0x160]\n 19019: a0 = i32 [a1]\n 19021: jump @723 if a0 >u 63\n      : @722 (gas: 2)\n 19025: u32 [a1 + 0] = 0x40\n 19028: fallthrough\n      : @723 (gas: 4)\n 19029: a0 = sp + 0xffffffffffffffe0\n 19032: a0 = a0 & 0xffffffffffffffe0\n 19035: u64 [s1 + 0x160] = a0\n 19039: t0 = 694, jump @2370\n      : @724 [@dyn 347] (gas: 43)\n 19046: ecalli 7 // 'hash_keccak_256'\n 19048: a5 = s1 + 0x100\n 19052: a0 = u64 [a5 + 0x78]\n 19055: a1 = u64 [s1 + 0xf8]\n 19059: a0 = a1 - a0\n 19062: a2 = u64 [s1 + 0xe8]\n 19066: a1 = a0 - a2\n 19069: a0 = a0 <u a2\n 19072: a2 = u64 [a5 + 0x88]\n 19076: a3 = u64 [a5]\n 19078: a2 = a3 - a2\n 19081: a3 = u64 [s1 + 0xe0]\n 19085: a2 = a2 - a3\n 19088: a2 = a2 - a0\n 19091: a0 = u64 [a5 + 0x68]\n 19094: a3 = u64 [a5 + 0x8]\n 19097: a0 = a3 - a0\n 19100: a3 = u64 [s1 + 0xf0]\n 19104: a0 = a0 - a3\n 19107: a3 = s1 + 0x4118\n 19111: u64 [a3 + 0x620] = a2\n 19115: u64 [a3 + 0x618] = a1\n 19119: u64 [a3 + 0x610] = a0\n 19123: a4 = u64 [a5 + 0x60]\n 19126: a0 = u64 [a4]\n 19128: a1 = u64 [a5 + 0x70]\n 19131: a2 = u64 [a5 + 0x10]\n 19134: a1 = a2 - a1\n 19137: u64 [a3 + 0x608] = a1\n 19141: a1 = u64 [a4 + 0x8]\n 19144: a2 = reverse a0\n 19146: a0 = u64 [a5 + 0x18]\n 19149: u64 [a0 + 0x18] = a2\n 19152: a3 = u64 [a4 + 0x10]\n 19155: a2 = u64 [a4 + 0x18]\n 19158: a1 = reverse a1\n 19160: u64 [a0 + 0x10] = a1\n 19163: a1 = reverse a3\n 19165: u64 [a0 + 0x8] = a1\n 19168: a1 = reverse a2\n 19170: u64 [a0] = a1\n 19172: a1 = s1 + 0x4720\n 19176: ra = 696, jump @25\n      : @725 [@dyn 348] (gas: 3)\n 19182: a3 = s1 + 0x7ff\n 19186: a3 = a3 + 0x119\n 19190: fallthrough\n      : @726 (gas: 32)\n 19191: a5 = s1 + 0x100\n 19195: a0 = u64 [a5 + 0x70]\n 19198: u64 [a3 + 0xc8] = a0\n 19202: a0 = u64 [a5 + 0x28]\n 19205: u64 [a3 + 0xe8] = a0\n 19209: a0 = u64 [a5 + 0x90]\n 19213: u64 [a3 + 0x108] = a0\n 19217: a0 = u64 [a5 + 0x68]\n 19220: u64 [a3 + 0xd0] = a0\n 19224: a0 = u64 [a5 + 0x30]\n 19227: u64 [a3 + 0xf0] = a0\n 19231: a0 = u64 [a5 + 0x98]\n 19235: u64 [a3 + 0x110] = a0\n 19239: a0 = u64 [a5 + 0x78]\n 19242: u64 [a3 + 0xd8] = a0\n 19246: a0 = u64 [a5 + 0x38]\n 19249: u64 [a3 + 0xf8] = a0\n 19253: a0 = u64 [a5 + 0x58]\n 19256: u64 [a3 + 0x118] = a0\n 19260: a0 = u64 [a5 + 0x88]\n 19264: u64 [a3 + 0xe0] = a0\n 19268: a0 = u64 [a5 + 0x40]\n 19271: u64 [a3 + 0x100] = a0\n 19275: a0 = s1 + 0x7ff\n 19279: a0 = a0 + 0x221\n 19283: a1 = s1 + 0x7ff\n 19287: a1 = a1 + 0x201\n 19291: a2 = s1 + 0x7ff\n 19295: a2 = a2 + 0x1e1\n 19299: a4 = u64 [a5 + 0x48]\n 19302: u64 [a3 + 0x120] = a4\n 19306: ra = 698, jump @2248\n      : @727 [@dyn 349] (gas: 4)\n 19313: a0 = s1 + 0x7ff\n 19317: a0 = a0 + 0x1c1\n 19321: a1 = 0x40\n 19324: ra = 700, jump @17\n      : @728 [@dyn 350] (gas: 7)\n 19330: a3 = s1 + 0x7ff\n 19334: a3 = a3 + 0x119\n 19338: a4 = u64 [a3 + 0xc0]\n 19342: a1 = u64 [a3 + 0xb8]\n 19346: a2 = u64 [a3 + 0xb0]\n 19350: a0 = u64 [a3 + 0xa8]\n 19354: t0 = 702, jump @2356\n      : @729 [@dyn 351] (gas: 1)\n 19361: jump @731 if a1 == 0\n      : @730 (gas: 1)\n 19364: jump @1912\n      : @731 (gas: 9)\n 19368: u64 [a3 + 160] = 0\n 19372: u64 [a3 + 152] = 0\n 19376: u64 [a3 + 136] = 0x1\n 19381: a1 = s1 + 0x7ff\n 19385: a1 = a1 + 0x1a1\n 19389: u64 [a3 + 144] = 0\n 19393: u64 [s1 + 0x198] = a0\n 19397: ra = 0x462\n 19401: jump @19\n      : @732 (gas: 1)\n 19404: jump @734 if a0 == 1889567281\n      : @733 (gas: 1)\n 19411: jump @1981\n      : @734 (gas: 9)\n 19415: u64 [a2 + 256] = 0\n 19419: u64 [a2 + 248] = 0\n 19423: u64 [a2 + 240] = 0\n 19427: u64 [a2 + 232] = 0\n 19431: a0 = s1 + 0x5000\n 19435: i32 a0 = a0 + 0xfffffffffffffa00\n 19439: ra = 0x2c0\n 19443: ecalli 14 // 'value_transferred'\n 19445: fallthrough\n      : @735 [@dyn 352] (gas: 9)\n 19446: a3 = s1 + 0x4918\n 19450: a0 = u64 [a3 + 0xf8]\n 19454: a1 = u64 [a3 + 0x100]\n 19458: a2 = u64 [a3 + 0xf0]\n 19462: a3 = u64 [a3 + 0xe8]\n 19466: a1 = a1 | a2\n 19469: a0 = a0 | a3\n 19472: a0 = a0 | a1\n 19475: jump @737 if a0 == 0\n      : @736 (gas: 1)\n 19478: jump @1986\n      : @737 (gas: 1)\n 19482: t0 = 706, jump @2389\n      : @738 [@dyn 353] (gas: 1)\n 19489: jump @740 if a1 <u a0\n      : @739 (gas: 1)\n 19492: jump @1987\n      : @740 (gas: 4)\n 19496: a0 = s1 + 0x1500\n 19500: ra = 0x2c4\n 19504: t0 = 0x8ba\n 19508: jump @2444\n      : @741 [@dyn 354] (gas: 13)\n 19512: a4 = s1 + 0x1118\n 19516: a5 = a4 + 0x300\n 19520: a2 = u64 [a5 + 0xe8]\n 19524: a0 = u64 [a5 + 0xf0]\n 19528: a1 = u64 [a5 + 0xf8]\n 19532: a3 = u64 [a4 + 0x400]\n 19536: u64 [a5 + 0xc0] = a3\n 19540: u64 [a5 + 0xb8] = a1\n 19544: u64 [a5 + 0xb0] = a0\n 19548: a0 = s1 + 0x14e0\n 19552: a1 = s1 + 0x14c0\n 19556: u64 [a5 + 0xa8] = a2\n 19560: ra = 710, jump @2224\n      : @742 [@dyn 355] (gas: 2)\n 19567: a0 = 0x1000\n 19571: t0 = 712, jump @2396\n      : @743 [@dyn 356] (gas: 12)\n 19578: a0 = u64 [a2 + 0xe0]\n 19582: a1 = s1 + 0x100\n 19586: u64 [a1 + 0x98] = a0\n 19590: a0 = u64 [a2 + 0xd8]\n 19594: u64 [a1 + 0x90] = a0\n 19598: a0 = u64 [a2 + 0xd0]\n 19602: u64 [a1 + 0x88] = a0\n 19606: a0 = u64 [a2 + 0xc8]\n 19610: u64 [a1 + 0x80] = a0\n 19614: a0 = s1 + 0x14a0\n 19618: a1 = 0x40\n 19621: ra = 714, jump @17\n      : @744 [@dyn 357] (gas: 7)\n 19627: a3 = s1 + 0x1118\n 19631: a5 = a3 + 0x300\n 19635: a0 = u64 [a5 + 0xa0]\n 19639: a1 = u64 [a5 + 0x98]\n 19643: a2 = u64 [a5 + 0x90]\n 19647: a4 = u64 [a5 + 0x88]\n 19651: t0 = 716, jump @2349\n      : @745 [@dyn 358] (gas: 1)\n 19658: jump @747 if a0 == 0\n      : @746 (gas: 1)\n 19661: jump @1912\n      : @747 (gas: 15)\n 19665: a2 = s1 + 0x100\n 19669: a0 = u64 [a2 + 0x80]\n 19673: a5 = a3 + 0x300\n 19677: u64 [a5 + 0x68] = a0\n 19680: a0 = u64 [a2 + 0x88]\n 19684: u64 [a5 + 0x70] = a0\n 19687: a0 = u64 [a2 + 0x90]\n 19691: u64 [a5 + 0x78] = a0\n 19694: a1 = s1 + 0x1480\n 19698: a0 = u64 [a2 + 0x98]\n 19702: u64 [a5 + 0x80] = a0\n 19706: a0 = a4\n 19708: u64 [s1 + 0x198] = a4\n 19712: ra = 0x462\n 19716: jump @19\n      : @748 (gas: 11)\n 19719: a0 = s1 + 0x4918\n 19723: u64 [a0 + 416] = 0\n 19727: u64 [a0 + 408] = 0\n 19731: u64 [a0 + 400] = 0\n 19735: u64 [a0 + 392] = 0\n 19739: a0 = s1 + 0x5000\n 19743: i32 a0 = a0 + 0xfffffffffffffaa0\n 19747: ra = 0x2ce\n 19751: ecalli 14 // 'value_transferred'\n 19753: t0 = 0x2d0\n 19757: jump @2448\n      : @749 [@dyn 359] (gas: 1)\n 19761: t0 = 720, jump @2448\n      : @750 [@dyn 360] (gas: 1)\n 19768: t0 = 722, jump @2437\n      : @751 [@dyn 361] (gas: 1)\n 19775: jump @753 if a0 == 0\n      : @752 (gas: 1)\n 19778: jump @1988\n      : @753 (gas: 3)\n 19782: a0 = u64 [s1 + 0x198]\n 19786: a0 = i32 [a0]\n 19788: jump @755 if a0 >u 3\n      : @754 (gas: 1)\n 19792: jump @1989\n      : @755 (gas: 8)\n 19796: a1 = s1 + 0x4918\n 19800: u64 [a1 + 448] = 0\n 19804: u64 [a1 + 440] = 0\n 19808: u64 [a1 + 432] = 0\n 19812: u64 [a1 + 424] = 0x5\n 19817: a0 = s1 + 0x15e0\n 19821: a1 = s1 + 0x4ac0\n 19825: ra = 724, jump @21\n      : @756 [@dyn 362] (gas: 3)\n 19831: t0 = 0x2d6\n 19835: a1 = s1 + 0x1118\n 19839: fallthrough\n      : @757 [@dyn 363] (gas: 11)\n 19840: a2 = a1 + 0x400\n 19844: a0 = u64 [a2 + 0xd8]\n 19848: a1 = s1 + 0x100\n 19852: u64 [a1 + 0x88] = a0\n 19856: a0 = u64 [a2 + 0xd0]\n 19860: u64 [a1 + 0x98] = a0\n 19864: a0 = u64 [a2 + 0xc8]\n 19868: u64 [a1 + 0x90] = a0\n 19872: a0 = s1 + 0x15c0\n 19876: a1 = 0x40\n 19879: ra = 728, jump @17\n      : @758 [@dyn 364] (gas: 7)\n 19885: a3 = s1 + 0x1118\n 19889: a5 = a3 + 0x400\n 19893: a4 = u64 [a5 + 0xc0]\n 19897: a1 = u64 [a5 + 0xb8]\n 19901: a2 = u64 [a5 + 0xb0]\n 19905: a0 = u64 [a5 + 0xa8]\n 19909: t0 = 730, jump @2356\n      : @759 [@dyn 365] (gas: 1)\n 19916: jump @761 if a1 == 0\n      : @760 (gas: 1)\n 19919: jump @1912\n      : @761 (gas: 15)\n 19923: a4 = s1 + 0x100\n 19927: a1 = u64 [a4 + 0x88]\n 19931: a1 = a1 << 0x20\n 19934: a2 = a1 >> 0x20\n 19937: u64 [a3 + 1184] = 0\n 19941: a1 = u64 [a4 + 0x90]\n 19945: a5 = a3 + 0x400\n 19949: u64 [a5 + 0x88] = a1\n 19953: a1 = u64 [a4 + 0x98]\n 19957: u64 [a5 + 0x90] = a1\n 19961: a1 = s1 + 0x15a0\n 19965: u64 [a5 + 0x98] = a2\n 19969: u64 [s1 + 0x198] = a0\n 19973: ra = 0x462\n 19977: jump @19\n      : @762 (gas: 4)\n 19980: a0 = u64 [s1 + 0x198]\n 19984: a0 = i32 [a0]\n 19986: a1 = 0x63\n 19989: jump @764 if a1 <u a0\n      : @763 (gas: 1)\n 19992: jump @1990\n      : @764 (gas: 4)\n 19996: a0 = s1 + 0x3f20\n 20000: ra = 0x2dc\n 20004: t0 = 0x8ba\n 20008: jump @2444\n      : @765 [@dyn 366] (gas: 14)\n 20012: a0 = s1 + 0x3918\n 20016: a2 = a0 + 0x600\n 20020: a1 = u64 [a2 + 0x18]\n 20023: u64 [s1 + 0x168] = a1\n 20027: a1 = u64 [a2 + 0x10]\n 20030: u64 [s1 + 0x198] = a1\n 20034: a0 = u64 [a2 + 0x8]\n 20037: u64 [s1 + 0x190] = a0\n 20041: a0 = s1 + 0x5000\n 20045: i32 a0 = a0 + 0x2e0\n 20049: a1 = 0x24\n 20052: ra = 0x2de\n 20056: ecalli 2 // 'call_data_load'\n 20058: fallthrough\n      : @766 [@dyn 367] (gas: 29)\n 20059: a0 = s1 + 0x5118\n 20063: t0 = u64 [a0 + 0x1e0]\n 20067: a1 = a0 + 0x100\n 20071: a4 = u64 [a1 + 0xd8]\n 20075: a2 = u64 [a1 + 0xc8]\n 20079: a3 = u64 [a1 + 0xd0]\n 20083: a5 = 0xf4240\n 20088: a0 = a2 mulhu a5\n 20091: a1 = a3 * a5\n 20094: a0 = a0 + a1\n 20097: u64 [s1 + 0x160] = a0\n 20101: a0 = a0 <u a1\n 20104: a1 = a3 mulhu a5\n 20107: a0 = a0 + a1\n 20110: a1 = a4 * a5\n 20113: a1 = a1 + a0\n 20116: u64 [s1 + 0x158] = a1\n 20120: a0 = a1 <u a0\n 20123: u64 [s1 + 0x130] = a3\n 20127: a1 = a3 | t0\n 20130: u64 [s1 + 0x188] = a2\n 20134: a2 = a2 | a4\n 20137: a3 = a2 | a1\n 20140: a2 = t0 * a5\n 20143: u64 [s1 + 0x140] = a4\n 20147: a1 = a4 mulhu a5\n 20150: a2 = a2 + a1\n 20153: a4 = a2 + a0\n 20156: jump @769 if a3 == 0\n      : @767 (gas: 7)\n 20159: a0 = 0 if a4 != 0\n 20161: a1 = a2 <u a1\n 20164: a2 = t0 mulhu a5\n 20167: a2 = a2 >u 0\n 20169: a1 = a1 | a2\n 20172: a0 = a0 | a1\n 20175: jump @769 if a0 == 0\n      : @768 (gas: 1)\n 20178: jump @2042\n      : @769 (gas: 19)\n 20182: u64 [s1 + 384] = 0xf4240\n 20189: a5 = s1 + 0x100\n 20193: u64 [a5 + 0x50] = a4\n 20196: u64 [s1 + 0x138] = t0\n 20200: a0 = u64 [a5 + 0x68]\n 20203: a0 = a0 << 0x20\n 20206: a2 = a0 >> 0x20\n 20209: a3 = s1 + 0x3918\n 20213: u64 [a3 + 1472] = 0\n 20217: a0 = u64 [a5 + 0x90]\n 20221: a4 = a3 + 0x500\n 20225: u64 [a4 + 0xa8] = a0\n 20229: a0 = u64 [a5 + 0x98]\n 20233: u64 [a4 + 0xb0] = a0\n 20237: a1 = s1 + 0x3ec0\n 20241: u64 [a5 + 0x70] = a2\n 20244: u64 [a4 + 0xb8] = a2\n 20248: a0 = 0\n 20250: ra = 736, jump @19\n      : @770 [@dyn 368] (gas: 3)\n 20256: t0 = 0x2e2\n 20260: a1 = s1 + 0x3918\n 20264: fallthrough\n      : @771 [@dyn 369] (gas: 8)\n 20265: u64 [a1 + 1440] = 0\n 20269: u64 [a1 + 1432] = 0\n 20273: u64 [a1 + 1416] = 0xd\n 20278: a2 = a1\n 20280: a0 = 0x20\n 20283: a1 = s1 + 0x3ea0\n 20287: u64 [a2 + 1424] = 0\n 20291: ra = 740, jump @19\n      : @772 [@dyn 370] (gas: 3)\n 20297: a1 = 0x2019c\n 20302: a0 = i32 [0x2019c]\n 20307: jump @774 if a0 >u 63\n      : @773 (gas: 2)\n 20311: u32 [0x2019c] = 0x40\n 20317: fallthrough\n      : @774 (gas: 20)\n 20318: a0 = u64 [s1 + 0x188]\n 20322: a2 = u64 [s1 + 0x180]\n 20326: a0 = a0 * a2\n 20329: u64 [s1 + 0x148] = a0\n 20333: a0 = sp + 0xffffffffffffffe0\n 20336: a2 = a0 & 0xffffffffffffffe0\n 20339: u64 [s1 + 0x128] = a2\n 20343: sp = a2\n 20345: a0 = 0x201b0\n 20350: u64 [s1 + 0x100] = a0\n 20354: i32 a0 = a0 + 0\n 20356: i32 a2 = a2 + 0\n 20358: u64 [s1 + 0x178] = a1\n 20362: a1 = 0x40\n 20365: u64 [s1 + 0x180] = a0\n 20369: ra = 0x2e6\n 20373: ecalli 7 // 'hash_keccak_256'\n 20375: a3 = u64 [s1 + 0x128]\n 20379: t0 = 0x2e8\n 20383: jump @2350\n      : @775 [@dyn 371] (gas: 2)\n 20387: a3 = u64 [s1 + 0x128]\n 20391: t0 = 744, jump @2350\n      : @776 [@dyn 372] (gas: 8)\n 20398: u64 [a4 + 0x200] = a3\n 20402: a3 = a4 + 0x100\n 20406: u64 [a3 + 0xf8] = a2\n 20410: u64 [a3 + 0xf0] = a1\n 20414: u64 [a3 + 0xe8] = a0\n 20418: a0 = s1 + 0x3e80\n 20422: a1 = s1 + 0x5300\n 20426: ra = 746, jump @21\n      : @777 [@dyn 373] (gas: 3)\n 20432: t0 = 0x2ec\n 20436: a1 = s1 + 0x3918\n 20440: fallthrough\n      : @778 [@dyn 374] (gas: 20)\n 20441: a2 = a1 + 0x500\n 20445: a0 = u64 [a2 + 0x80]\n 20449: u64 [s1 + 0x110] = a0\n 20453: a0 = u64 [a2 + 0x78]\n 20456: u64 [s1 + 0x118] = a0\n 20460: a0 = u64 [a2 + 0x70]\n 20463: u64 [s1 + 0x120] = a0\n 20467: a0 = u64 [a2 + 0x68]\n 20470: u64 [s1 + 0x128] = a0\n 20474: u64 [a1 + 1376] = 0\n 20478: a0 = u64 [s1 + 0x170]\n 20482: u64 [a2 + 0x58] = a0\n 20485: a0 = u64 [s1 + 0x198]\n 20489: u64 [a2 + 0x50] = a0\n 20492: a2 = a1\n 20494: a1 = s1 + 0x3e60\n 20498: a0 = u64 [s1 + 0x190]\n 20502: u64 [a2 + 0x548] = a0\n 20506: a0 = 0\n 20508: ra = 750, jump @19\n      : @779 [@dyn 375] (gas: 3)\n 20514: t0 = 0x2f0\n 20518: a1 = s1 + 0x3918\n 20522: fallthrough\n      : @780 [@dyn 376] (gas: 8)\n 20523: u64 [a1 + 1344] = 0\n 20527: u64 [a1 + 1336] = 0\n 20531: u64 [a1 + 1320] = 0xe\n 20536: a2 = a1\n 20538: a0 = 0x20\n 20541: a1 = s1 + 0x3e40\n 20545: u64 [a2 + 1328] = 0\n 20549: ra = 754, jump @19\n      : @781 [@dyn 377] (gas: 3)\n 20555: a1 = u64 [s1 + 0x178]\n 20559: a0 = i32 [a1]\n 20561: jump @783 if a0 >u 63\n      : @782 (gas: 2)\n 20565: u32 [a1 + 0] = 0x40\n 20568: fallthrough\n      : @783 (gas: 4)\n 20569: a0 = sp + 0xffffffffffffffe0\n 20572: a0 = a0 & 0xffffffffffffffe0\n 20575: u64 [s1 + 0x108] = a0\n 20579: t0 = 756, jump @2370\n      : @784 [@dyn 378] (gas: 5)\n 20586: ra = 0x2f6\n 20590: ecalli 7 // 'hash_keccak_256'\n 20592: a3 = u64 [s1 + 0x108]\n 20596: t0 = 0x2f8\n 20600: jump @2350\n      : @785 [@dyn 379] (gas: 2)\n 20604: a3 = u64 [s1 + 0x108]\n 20608: t0 = 760, jump @2350\n      : @786 [@dyn 380] (gas: 8)\n 20615: a5 = a4 + 0x200\n 20619: u64 [a5 + 0x20] = a3\n 20622: u64 [a5 + 0x18] = a2\n 20625: u64 [a5 + 0x10] = a1\n 20628: u64 [a5 + 0x8] = a0\n 20631: a0 = s1 + 0x3e20\n 20635: a1 = s1 + 0x5320\n 20639: ra = 762, jump @21\n      : @787 [@dyn 381] (gas: 23)\n 20645: a4 = s1 + 0x3918\n 20649: a5 = a4 + 0x500\n 20653: a0 = u64 [a5 + 0x8]\n 20656: a1 = u64 [a5 + 0x10]\n 20659: a2 = u64 [a5 + 0x18]\n 20662: a3 = u64 [a5 + 0x20]\n 20665: a5 = a4 + 0x400\n 20669: u64 [a5 + 0xc0] = a3\n 20673: u64 [a5 + 0xb8] = a2\n 20677: u64 [a5 + 0xb0] = a1\n 20681: u64 [a5 + 0xa8] = a0\n 20685: a0 = u64 [s1 + 0x110]\n 20689: u64 [a5 + 0xe0] = a0\n 20693: a0 = u64 [s1 + 0x118]\n 20697: u64 [a5 + 0xd8] = a0\n 20701: a0 = u64 [s1 + 0x120]\n 20705: u64 [a5 + 0xd0] = a0\n 20709: a0 = s1 + 0x3e00\n 20713: a1 = s1 + 0x3de0\n 20717: a2 = s1 + 0x3dc0\n 20721: a3 = u64 [s1 + 0x128]\n 20725: u64 [a5 + 0xc8] = a3\n 20729: ra = 764, jump @2216\n      : @788 [@dyn 382] (gas: 22)\n 20736: t0 = s1 + 0x3918\n 20740: a3 = t0 + 0x400\n 20744: a0 = u64 [a3 + 0xf0]\n 20748: a1 = u64 [a3 + 0xe8]\n 20752: a2 = u64 [a3 + 0xf8]\n 20756: a3 = u64 [t0 + 0x500]\n 20760: a4 = u64 [s1 + 0x160]\n 20764: a5 = a0 ^ a4\n 20767: a0 = a0 <u a4\n 20770: a4 = u64 [s1 + 0x148]\n 20774: a1 = a1 <u a4\n 20777: a1 = a0 if a5 != 0\n 20780: a4 = u64 [s1 + 0x150]\n 20784: a0 = a3 ^ a4\n 20787: a3 = a3 <u a4\n 20790: a5 = u64 [s1 + 0x158]\n 20794: a4 = a2 <u a5\n 20797: a4 = a3 if a0 != 0\n 20800: a2 = a2 ^ a5\n 20803: a0 = a0 | a2\n 20806: a1 = a4 if a0 != 0\n 20809: jump @790 if a1 != 0\n      : @789 (gas: 1)\n 20812: jump @1259\n      : @790 (gas: 3)\n 20815: a0 = s1 + 0x3a80\n 20819: a1 = 0x40\n 20822: ra = 766, jump @17\n      : @791 [@dyn 383] (gas: 14)\n 20828: a2 = s1 + 0x3918\n 20832: t0 = u64 [a2 + 0x180]\n 20836: a1 = a2 + 0x100\n 20840: a5 = u64 [a1 + 0x78]\n 20843: a4 = u64 [a1 + 0x70]\n 20846: a0 = u64 [a1 + 0x68]\n 20849: a3 = a4 | t0\n 20852: a1 = a0 | a5\n 20855: a1 = a1 | a3\n 20858: a1 = a1 >> 0x20\n 20861: a3 = a3 | a5\n 20864: a3 = a3 << 0x20\n 20867: a1 = a1 | a3\n 20870: jump @793 if a1 == 0\n      : @792 (gas: 1)\n 20873: jump @1912\n      : @793 (gas: 11)\n 20877: u64 [a2 + 344] = 0\n 20881: u64 [a2 + 336] = 0\n 20885: u64 [a2 + 328] = 0\n 20889: a3 = 0x8c379a000000000\n 20899: a1 = s1 + 0x3a60\n 20903: u64 [a2 + 0x160] = a3\n 20907: u64 [s1 + 0x198] = a0\n 20911: u64 [s1 + 0x190] = a4\n 20915: u64 [s1 + 0x180] = t0\n 20919: u64 [s1 + 0x188] = a5\n 20923: ra = 768, jump @19\n      : @794 [@dyn 384] (gas: 6)\n 20929: a5 = s1 + 0x100\n 20933: a1 = u64 [a5 + 0x98]\n 20937: a0 = u64 [a5 + 0x88]\n 20941: a3 = u64 [a5 + 0x80]\n 20945: a3 = a3 | a0\n 20948: t0 = 770, jump @2344\n      : @795 [@dyn 385] (gas: 1)\n 20955: jump @797 if a0 != 0\n      : @796 (gas: 1)\n 20958: jump @1912\n      : @797 (gas: 10)\n 20962: i32 a0 = a1 + 0x4\n 20965: a2 = s1 + 0x3918\n 20969: u64 [a2 + 320] = 0\n 20973: u64 [a2 + 312] = 0\n 20977: u64 [a2 + 296] = 0x20\n 20982: a1 = s1 + 0x3a40\n 20986: u64 [a2 + 304] = 0\n 20990: u64 [s1 + 0x188] = a3\n 20994: u64 [s1 + 0x180] = a4\n 20998: ra = 772, jump @19\n      : @798 [@dyn 386] (gas: 5)\n 21004: a3 = s1 + 0x100\n 21008: a1 = u64 [a3 + 0x98]\n 21012: a0 = u64 [a3 + 0x80]\n 21016: a0 = a0 + 0xffffffffffffffdc\n 21019: t0 = 774, jump @2408\n      : @799 [@dyn 387] (gas: 1)\n 21026: jump @801 if a0 != 0\n      : @800 (gas: 1)\n 21029: jump @1912\n      : @801 (gas: 8)\n 21033: i32 a0 = a1 + 0x24\n 21036: a2 = s1 + 0x3918\n 21040: u64 [a2 + 288] = 0\n 21044: u64 [a2 + 280] = 0\n 21048: u64 [a2 + 264] = 0x25\n 21053: a1 = s1 + 0x3a20\n 21057: u64 [a2 + 272] = 0\n 21061: ra = 776, jump @19\n      : @802 [@dyn 388] (gas: 10)\n 21067: a0 = s1 + 0x100\n 21071: a3 = u64 [a0 + 0x88]\n 21075: a4 = u64 [a0 + 0x90]\n 21079: a1 = u64 [a0 + 0x98]\n 21083: a2 = 0x100000000\n 21093: a0 = 0xffffffbc\n 21103: a0 = a1 <u a0\n 21106: a0 = 0 if a4 != 0\n 21108: a0 = 0 if a3 != 0\n 21110: jump @804 if a0 != 0\n      : @803 (gas: 1)\n 21113: jump @1912\n      : @804 (gas: 13)\n 21117: i32 a0 = a1 + 0x44\n 21120: a1 = u64 [0x20070]\n 21125: u64 [s1 + 0x180] = a2\n 21129: a5 = s1 + 0x3918\n 21133: u64 [a5 + 0x100] = a1\n 21137: a1 = u64 [0x20078]\n 21142: a2 = u64 [0x20080]\n 21147: a3 = u64 [0x20088]\n 21152: u64 [a5 + 0xf8] = a1\n 21156: u64 [a5 + 0xf0] = a2\n 21160: a1 = s1 + 0x3a00\n 21164: u64 [a5 + 0xe8] = a3\n 21168: ra = 778, jump @19\n      : @805 [@dyn 389] (gas: 10)\n 21174: a3 = s1 + 0x100\n 21178: a2 = u64 [a3 + 0x98]\n 21182: a0 = u64 [a3 + 0x80]\n 21186: a0 = a0 + 0xffffffffffffff9c\n 21189: a0 = a2 <u a0\n 21192: a1 = u64 [a3 + 0x90]\n 21196: a0 = 0 if a1 != 0\n 21198: a1 = u64 [a3 + 0x88]\n 21202: a0 = 0 if a1 != 0\n 21204: jump @807 if a0 != 0\n      : @806 (gas: 1)\n 21207: jump @1912\n      : @807 (gas: 9)\n 21211: i32 a0 = a2 + 0x64\n 21214: a3 = s1 + 0x3918\n 21218: u64 [a3 + 216] = 0\n 21222: u64 [a3 + 208] = 0\n 21226: a1 = 0x6c61626c65000000\n 21236: u64 [a3 + 0xe0] = a1\n 21240: a1 = s1 + 0x39e0\n 21244: u64 [a3 + 200] = 0\n 21248: ra = 780, jump @19\n      : @808 [@dyn 390] (gas: 3)\n 21254: a1 = 0x84\n 21258: a0 = u64 [s1 + 0x198]\n 21262: ra = 782, jump @31\n      : @809 [@dyn 391] (gas: 5)\n 21268: i32 a1 = a0 + 0\n 21270: a0 = 0x1\n 21273: a2 = 0x84\n 21277: ecalli 11 // 'seal_return'\n 21279: fallthrough\n      : @810 (gas: 11)\n 21280: u64 [a3 + 320] = 0\n 21284: u64 [a3 + 312] = 0\n 21288: u64 [a3 + 304] = 0\n 21292: u64 [a3 + 296] = 0\n 21296: a0 = s1 + 0x5000\n 21300: i32 a0 = a0 + 0x240\n 21304: ra = 0x310\n 21308: ecalli 14 // 'value_transferred'\n 21310: a0 = 0x5000\n 21314: t0 = 0x312\n 21318: jump @2395\n      : @811 [@dyn 392] (gas: 2)\n 21322: a0 = 0x5000\n 21326: t0 = 786, jump @2395\n      : @812 [@dyn 393] (gas: 1)\n 21333: t0 = 788, jump @2452\n      : @813 [@dyn 394] (gas: 1)\n 21340: jump @815 if a0 == 0\n      : @814 (gas: 1)\n 21343: jump @1991\n      : @815 (gas: 3)\n 21347: a0 = u64 [s1 + 0x198]\n 21351: a0 = i32 [a0]\n 21353: jump @817 if a0 >u 3\n      : @816 (gas: 1)\n 21357: jump @1992\n      : @817 (gas: 3)\n 21361: a0 = s1 + 0x36a0\n 21365: a1 = 0x40\n 21368: ra = 790, jump @17\n      : @818 [@dyn 395] (gas: 7)\n 21374: a3 = s1 + 0x3118\n 21378: a5 = a3 + 0x500\n 21382: a4 = u64 [a5 + 0xa0]\n 21386: a1 = u64 [a5 + 0x98]\n 21390: a2 = u64 [a5 + 0x90]\n 21394: a0 = u64 [a5 + 0x88]\n 21398: t0 = 792, jump @2356\n      : @819 [@dyn 396] (gas: 1)\n 21405: jump @821 if a1 == 0\n      : @820 (gas: 1)\n 21408: jump @1912\n      : @821 (gas: 8)\n 21412: u64 [a3 + 1408] = 0\n 21416: u64 [a3 + 1400] = 0\n 21420: u64 [a3 + 1384] = 0x3b9aca00\n 21428: a1 = s1 + 0x3680\n 21432: u64 [a3 + 1392] = 0\n 21436: u64 [s1 + 0x198] = a0\n 21440: ra = 0x462\n 21444: jump @19\n      : @822 (gas: 9)\n 21447: u64 [a4 + 1632] = 0\n 21451: u64 [a4 + 1624] = 0\n 21455: u64 [a4 + 1616] = 0\n 21459: u64 [a4 + 1608] = 0\n 21463: a0 = s1 + 0x4000\n 21467: i32 a0 = a0 + 0x760\n 21471: ra = 0x31a\n 21475: ecalli 14 // 'value_transferred'\n 21477: fallthrough\n      : @823 [@dyn 397] (gas: 3)\n 21478: a3 = s1 + 0x4118\n 21482: a4 = a3 + 0x600\n 21486: t0 = 796, jump @2401\n      : @824 [@dyn 398] (gas: 1)\n 21493: jump @826 if a0 == 0\n      : @825 (gas: 1)\n 21496: jump @1993\n      : @826 (gas: 1)\n 21500: t0 = 798, jump @2389\n      : @827 [@dyn 399] (gas: 1)\n 21507: jump @829 if a1 <u a0\n      : @828 (gas: 1)\n 21510: jump @1994\n      : @829 (gas: 5)\n 21514: a0 = s1 + 0x7ff\n 21518: a0 = a0 + 0x6c1\n 21522: ra = 0x320\n 21526: t0 = 0x8ba\n 21530: jump @2444\n      : @830 [@dyn 400] (gas: 3)\n 21534: a3 = s1 + 0x7ff\n 21538: a3 = a3 + 0x119\n 21542: t0 = 802, jump @2432\n      : @831 [@dyn 401] (gas: 5)\n 21549: a1 = s1 + 0x7ff\n 21553: a1 = a1 + 0x6a1\n 21557: u64 [a4 + 0x88] = a0\n 21561: a0 = 0\n 21563: ra = 804, jump @19\n      : @832 [@dyn 402] (gas: 11)\n 21569: a1 = s1 + 0x7ff\n 21573: a1 = a1 + 0x119\n 21577: u64 [a1 + 1408] = 0\n 21581: u64 [a1 + 1400] = 0\n 21585: u64 [a1 + 1384] = 0xa\n 21590: a2 = a1\n 21592: a0 = 0x20\n 21595: a1 = s1 + 0x7ff\n 21599: a1 = a1 + 0x681\n 21603: u64 [a2 + 1392] = 0\n 21607: ra = 806, jump @19\n      : @833 [@dyn 403] (gas: 6)\n 21613: a0 = sp + 0xffffffffffffffe0\n 21616: a0 = a0 & 0xffffffffffffffe0\n 21619: u64 [s1 + 0x178] = a0\n 21623: sp = a0\n 21625: a1 = i32 [0x2019c]\n 21630: jump @835 if a1 >u 63\n      : @834 (gas: 4)\n 21634: a1 = 0x40\n 21637: u32 [0x2019c] = a1\n 21642: t0 = 0x328\n 21646: jump @2364\n      : @835 (gas: 1)\n 21650: t0 = 808, jump @2364\n      : @836 [@dyn 404] (gas: 26)\n 21657: a0 = 0x201b0\n 21662: i32 a0 = a0 + 0\n 21664: i32 a2 = a2 + 0\n 21666: a1 = 0x40\n 21669: ecalli 7 // 'hash_keccak_256'\n 21671: a3 = u64 [s1 + 0x198]\n 21675: a0 = u64 [a3 + 0x18]\n 21678: a1 = u64 [a3 + 0x10]\n 21681: a2 = u64 [a3 + 0x8]\n 21684: a3 = u64 [a3]\n 21686: a5 = reverse a0\n 21688: u64 [s1 + 0x188] = a5\n 21692: a4 = reverse a1\n 21694: u64 [s1 + 0x190] = a4\n 21698: a2 = reverse a2\n 21700: u64 [s1 + 0x180] = a2\n 21704: a0 = reverse a3\n 21706: u64 [s1 + 0x198] = a0\n 21710: a1 = u64 [s1 + 0x178]\n 21714: u64 [a1 + 0x18] = a0\n 21717: u64 [a1 + 0x10] = a2\n 21720: u64 [a1 + 0x8] = a4\n 21723: u64 [a1] = a5\n 21725: a0 = s1 + 0x7ff\n 21729: a0 = a0 + 0x661\n 21733: ra = 810, jump @21\n      : @837 [@dyn 405] (gas: 5)\n 21739: a0 = s1 + 0x7ff\n 21743: a0 = a0 + 0x119\n 21747: a0 = u64 [a0 + 0x548]\n 21751: u64 [s1 + 0x178] = a0\n 21755: t0 = 812, jump @2413\n      : @838 [@dyn 406] (gas: 16)\n 21762: a3 = a2 + 0x600\n 21766: u64 [a3 + 0x70] = a1\n 21769: a1 = a1 | a0\n 21772: u64 [a3 + 0x68] = a0\n 21775: a0 = a1 <u 0x1\n 21778: a1 = u64 [s1 + 0x180]\n 21782: a0 = a0 + a1\n 21785: u64 [a3 + 0x78] = a0\n 21788: a0 = a0 <u a1\n 21791: a1 = u64 [s1 + 0x198]\n 21795: a0 = a0 + a1\n 21798: u64 [a3 + 0x80] = a0\n 21802: a0 = s1 + 0x7ff\n 21806: a0 = a0 + 0x641\n 21810: a1 = s1 + 0x4780\n 21814: ra = 814, jump @21\n      : @839 [@dyn 407] (gas: 14)\n 21820: a1 = s1 + 0x7ff\n 21824: a1 = a1 + 0x119\n 21828: a2 = a1 + 0x500\n 21832: a0 = u64 [a2 + 0x40]\n 21835: u64 [s1 + 0x170] = a0\n 21839: a0 = u64 [a2 + 0x38]\n 21842: u64 [s1 + 0x168] = a0\n 21846: a0 = u64 [a2 + 0x30]\n 21849: u64 [s1 + 0x160] = a0\n 21853: a0 = u64 [a2 + 0x28]\n 21856: u64 [s1 + 0x158] = a0\n 21860: a1 = u64 [s1 + 0x188]\n 21864: a0 = a1 + 0x2\n 21867: t0 = 816, jump @2340\n      : @840 [@dyn 408] (gas: 8)\n 21874: u64 [a5 + 0xa0] = a1\n 21878: u64 [a5 + 0x98] = a3\n 21882: u64 [a5 + 0x90] = a2\n 21886: u64 [a5 + 0x88] = a0\n 21890: a0 = s1 + 0x7ff\n 21894: a0 = a0 + 0x621\n 21898: a1 = s1 + 0x47a0\n 21902: ra = 818, jump @21\n      : @841 [@dyn 409] (gas: 14)\n 21908: a1 = s1 + 0x7ff\n 21912: a1 = a1 + 0x119\n 21916: a2 = a1 + 0x500\n 21920: a0 = u64 [a2 + 0x20]\n 21923: u64 [s1 + 0x150] = a0\n 21927: a0 = u64 [a2 + 0x18]\n 21930: u64 [s1 + 0x148] = a0\n 21934: a0 = u64 [a2 + 0x10]\n 21937: u64 [s1 + 0x140] = a0\n 21941: a0 = u64 [a2 + 0x8]\n 21944: u64 [s1 + 0x138] = a0\n 21948: a1 = u64 [s1 + 0x188]\n 21952: a0 = a1 + 0x3\n 21955: t0 = 820, jump @2340\n      : @842 [@dyn 410] (gas: 8)\n 21962: u64 [a5 + 0xc0] = a1\n 21966: u64 [a5 + 0xb8] = a3\n 21970: u64 [a5 + 0xb0] = a2\n 21974: u64 [a5 + 0xa8] = a0\n 21978: a0 = s1 + 0x7ff\n 21982: a0 = a0 + 0x601\n 21986: a1 = s1 + 0x47c0\n 21990: ra = 822, jump @21\n      : @843 [@dyn 411] (gas: 14)\n 21996: a1 = s1 + 0x7ff\n 22000: a1 = a1 + 0x119\n 22004: a0 = u64 [a1 + 0x500]\n 22008: u64 [s1 + 0x130] = a0\n 22012: a2 = a1 + 0x400\n 22016: a0 = u64 [a2 + 0xf8]\n 22020: u64 [s1 + 0x128] = a0\n 22024: a0 = u64 [a2 + 0xf0]\n 22028: u64 [s1 + 0x120] = a0\n 22032: a0 = u64 [a2 + 0xe8]\n 22036: u64 [s1 + 0x118] = a0\n 22040: a1 = u64 [s1 + 0x188]\n 22044: a0 = a1 + 0x4\n 22047: t0 = 824, jump @2340\n      : @844 [@dyn 412] (gas: 8)\n 22054: u64 [a5 + 0xe0] = a1\n 22058: u64 [a5 + 0xd8] = a3\n 22062: u64 [a5 + 0xd0] = a2\n 22066: u64 [a5 + 0xc8] = a0\n 22070: a0 = s1 + 0x7ff\n 22074: a0 = a0 + 0x5e1\n 22078: a1 = s1 + 0x47e0\n 22082: ra = 826, jump @21\n      : @845 [@dyn 413] (gas: 32)\n 22088: a5 = s1 + 0x7ff\n 22092: a5 = a5 + 0x119\n 22096: a0 = u64 [a5 + 0x4e0]\n 22100: u64 [s1 + 0x110] = a0\n 22104: a0 = u64 [a5 + 0x4d8]\n 22108: u64 [s1 + 0x108] = a0\n 22112: a1 = u64 [s1 + 0x188]\n 22116: a0 = a1 + 0x5\n 22119: a1 = a0 <u a1\n 22122: a3 = u64 [s1 + 0x190]\n 22126: a2 = a3 + a1\n 22129: a3 = a2 <u a3\n 22132: a3 = a1 if a1 == 0\n 22135: a1 = u64 [a5 + 0x4d0]\n 22139: u64 [s1 + 0x188] = a1\n 22143: a1 = u64 [s1 + 0x180]\n 22147: a3 = a3 + a1\n 22150: a1 = a3 <u a1\n 22153: a4 = u64 [s1 + 0x198]\n 22157: a1 = a1 + a4\n 22160: a4 = u64 [a5 + 0x4c8]\n 22164: u64 [s1 + 0x180] = a4\n 22168: a4 = s1 + 0x4118\n 22172: u64 [a4 + 0x700] = a1\n 22176: a1 = a4 + 0x600\n 22180: u64 [a1 + 0xf8] = a3\n 22184: u64 [a1 + 0xf0] = a2\n 22188: u64 [a1 + 0xe8] = a0\n 22192: a0 = s1 + 0x7ff\n 22196: a0 = a0 + 0x5c1\n 22200: a1 = s1 + 0x4800\n 22204: ra = 828, jump @21\n      : @846 [@dyn 414] (gas: 15)\n 22210: a1 = s1 + 0x7ff\n 22214: a1 = a1 + 0x119\n 22218: a2 = a1 + 0x400\n 22222: a0 = u64 [a2 + 0xc0]\n 22226: u64 [s1 + 0x100] = a0\n 22230: a0 = u64 [a2 + 0xb8]\n 22234: u64 [s1 + 0xf8] = a0\n 22238: a0 = u64 [a2 + 0xb0]\n 22242: u64 [s1 + 0xf0] = a0\n 22246: a0 = u64 [a2 + 0xa8]\n 22250: u64 [s1 + 0xe8] = a0\n 22254: a0 = s1 + 0x7ff\n 22258: a0 = a0 + 0x5a1\n 22262: a1 = 0x40\n 22265: ra = 830, jump @17\n      : @847 [@dyn 415] (gas: 15)\n 22271: a2 = s1 + 0x7ff\n 22275: a2 = a2 + 0x119\n 22279: t0 = u64 [a2 + 0x4a0]\n 22283: a1 = a2 + 0x400\n 22287: a5 = u64 [a1 + 0x98]\n 22291: a4 = u64 [a1 + 0x90]\n 22295: a0 = u64 [a1 + 0x88]\n 22299: a3 = a4 | t0\n 22302: a1 = a0 | a5\n 22305: a1 = a1 | a3\n 22308: a1 = a1 >> 0x20\n 22311: a3 = a3 | a5\n 22314: a3 = a3 << 0x20\n 22317: a1 = a1 | a3\n 22320: jump @849 if a1 == 0\n      : @848 (gas: 1)\n 22323: jump @1912\n      : @849 (gas: 13)\n 22326: a1 = u8 [s1 + 0x178]\n 22330: a3 = a1 >u 0\n 22332: u64 [a2 + 1152] = 0\n 22336: u64 [a2 + 1144] = 0\n 22340: u64 [a2 + 1136] = 0\n 22344: a1 = s1 + 0x7ff\n 22348: a1 = a1 + 0x581\n 22352: u64 [a2 + 0x468] = a3\n 22356: u64 [s1 + 0x198] = a0\n 22360: u64 [s1 + 0x190] = a4\n 22364: u64 [s1 + 0xe0] = t0\n 22368: u64 [s1 + 0x178] = a5\n 22372: ra = 832, jump @19\n      : @850 [@dyn 416] (gas: 5)\n 22378: a5 = s1 + 0x100\n 22382: a1 = u64 [a5 + 0x98]\n 22386: a0 = u64 [a5 + 0x78]\n 22389: a4 = u64 [s1 + 0xe0]\n 22393: t0 = 834, jump @2403\n      : @851 [@dyn 417] (gas: 1)\n 22400: jump @853 if a0 != 0\n      : @852 (gas: 1)\n 22403: jump @1912\n      : @853 (gas: 18)\n 22406: i32 a0 = a1 + 0x20\n 22409: a1 = u64 [s1 + 0x158]\n 22413: a2 = s1 + 0x7ff\n 22417: a2 = a2 + 0x119\n 22421: u64 [s1 + 0xe0] = a3\n 22425: a3 = a2\n 22427: a5 = a2 + 0x400\n 22431: u64 [a5 + 0x48] = a1\n 22434: a1 = u64 [s1 + 0x160]\n 22438: u64 [a5 + 0x50] = a1\n 22441: a1 = u64 [s1 + 0x168]\n 22445: u64 [a5 + 0x58] = a1\n 22448: a1 = s1 + 0x7ff\n 22452: a1 = a1 + 0x561\n 22456: a2 = u64 [s1 + 0x170]\n 22460: u64 [a3 + 0x460] = a2\n 22464: u64 [s1 + 0x178] = a4\n 22468: ra = 836, jump @19\n      : @854 [@dyn 418] (gas: 4)\n 22474: a3 = s1 + 0x100\n 22478: a1 = u64 [a3 + 0x98]\n 22482: a0 = u64 [s1 + 0xe0]\n 22486: t0 = 838, jump @2451\n      : @855 [@dyn 419] (gas: 1)\n 22493: jump @857 if a0 != 0\n      : @856 (gas: 1)\n 22496: jump @1912\n      : @857 (gas: 15)\n 22499: i32 a0 = a1 + 0x40\n 22502: a1 = u64 [s1 + 0x138]\n 22506: a3 = s1 + 0x7ff\n 22510: a3 = a3 + 0x119\n 22514: a4 = a3 + 0x400\n 22518: u64 [a4 + 0x28] = a1\n 22521: a1 = u64 [s1 + 0x140]\n 22525: u64 [a4 + 0x30] = a1\n 22528: a1 = u64 [s1 + 0x148]\n 22532: u64 [a4 + 0x38] = a1\n 22535: a1 = s1 + 0x7ff\n 22539: a1 = a1 + 0x541\n 22543: a2 = u64 [s1 + 0x150]\n 22547: u64 [a4 + 0x40] = a2\n 22550: ra = 840, jump @19\n      : @858 [@dyn 420] (gas: 10)\n 22556: a4 = s1 + 0x100\n 22560: a1 = u64 [a4 + 0x98]\n 22564: a3 = 0x100000000\n 22574: a0 = 0xffffffa0\n 22584: a0 = a1 <u a0\n 22587: a2 = u64 [a4 + 0x90]\n 22591: a0 = 0 if a2 != 0\n 22593: a2 = u64 [a4 + 0x78]\n 22596: a0 = 0 if a2 != 0\n 22598: jump @860 if a0 != 0\n      : @859 (gas: 1)\n 22601: jump @1912\n      : @860 (gas: 17)\n 22604: i32 a0 = a1 + 0x60\n 22607: a1 = u64 [s1 + 0x118]\n 22611: a2 = s1 + 0x7ff\n 22615: a2 = a2 + 0x119\n 22619: u64 [s1 + 0x170] = a3\n 22623: a3 = a2\n 22625: a4 = a2 + 0x400\n 22629: u64 [a4 + 0x8] = a1\n 22632: a1 = u64 [s1 + 0x120]\n 22636: u64 [a4 + 0x10] = a1\n 22639: a1 = u64 [s1 + 0x128]\n 22643: u64 [a4 + 0x18] = a1\n 22646: a1 = s1 + 0x7ff\n 22650: a1 = a1 + 0x521\n 22654: a2 = u64 [s1 + 0x130]\n 22658: u64 [a3 + 0x420] = a2\n 22662: ra = 842, jump @19\n      : @861 [@dyn 421] (gas: 10)\n 22668: a2 = s1 + 0x100\n 22672: a4 = u64 [a2 + 0x78]\n 22675: a3 = u64 [a2 + 0x90]\n 22679: a1 = u64 [a2 + 0x98]\n 22683: a0 = u64 [a2 + 0x70]\n 22686: a0 = a0 + 0xffffffffffffff80\n 22689: a0 = a1 <u a0\n 22692: a0 = 0 if a3 != 0\n 22694: a0 = 0 if a4 != 0\n 22696: jump @863 if a0 != 0\n      : @862 (gas: 1)\n 22699: jump @1912\n      : @863 (gas: 15)\n 22702: i32 a0 = a1 + 0x80\n 22706: a1 = u64 [s1 + 0x180]\n 22710: a4 = s1 + 0x7ff\n 22714: a4 = a4 + 0x119\n 22718: a2 = a4 + 0x300\n 22722: u64 [a2 + 0xe8] = a1\n 22726: a1 = u64 [s1 + 0x188]\n 22730: u64 [a2 + 0xf0] = a1\n 22734: a1 = u64 [s1 + 0x108]\n 22738: u64 [a2 + 0xf8] = a1\n 22742: a1 = s1 + 0x7ff\n 22746: a1 = a1 + 0x501\n 22750: a2 = u64 [s1 + 0x110]\n 22754: u64 [a4 + 0x400] = a2\n 22758: ra = 844, jump @19\n      : @864 [@dyn 422] (gas: 9)\n 22764: a2 = s1 + 0x100\n 22768: a3 = u64 [a2 + 0x98]\n 22772: a0 = 0xffffff60\n 22782: a0 = a3 <u a0\n 22785: a1 = u64 [a2 + 0x90]\n 22789: a0 = 0 if a1 != 0\n 22791: a1 = u64 [a2 + 0x78]\n 22794: a0 = 0 if a1 != 0\n 22796: jump @866 if a0 != 0\n      : @865 (gas: 1)\n 22799: jump @1912\n      : @866 (gas: 15)\n 22802: i32 a0 = a3 + 0xa0\n 22806: a1 = u64 [s1 + 0xe8]\n 22810: a4 = s1 + 0x7ff\n 22814: a4 = a4 + 0x119\n 22818: a3 = a4 + 0x300\n 22822: u64 [a3 + 0xc8] = a1\n 22826: a1 = u64 [s1 + 0xf0]\n 22830: u64 [a3 + 0xd0] = a1\n 22834: a1 = u64 [s1 + 0xf8]\n 22838: u64 [a3 + 0xd8] = a1\n 22842: a1 = s1 + 0x7ff\n 22846: a1 = a1 + 0x4e1\n 22850: a2 = u64 [s1 + 0x100]\n 22854: u64 [a3 + 0xe0] = a2\n 22858: ra = 846, jump @19\n      : @867 [@dyn 423] (gas: 3)\n 22864: a1 = 0xc0\n 22868: a0 = u64 [s1 + 0x198]\n 22872: ra = 848, jump @31\n      : @868 [@dyn 424] (gas: 5)\n 22878: i32 a1 = a0 + 0\n 22880: a2 = 0xc0\n 22884: a0 = 0\n 22886: ecalli 11 // 'seal_return'\n 22888: jump @1134\n      : @869 (gas: 11)\n 22891: u64 [a2 + 1280] = 0\n 22895: u64 [a2 + 1272] = 0\n 22899: u64 [a2 + 1264] = 0\n 22903: u64 [a2 + 1256] = 0\n 22907: a0 = s1 + 0x5000\n 22911: i32 a0 = a0 + 0xfffffffffffffe00\n 22915: ra = 0x352\n 22919: ecalli 14 // 'value_transferred'\n 22921: a0 = 0x5000\n 22925: t0 = 0x354\n 22929: jump @2393\n      : @870 [@dyn 425] (gas: 2)\n 22933: a0 = 0x5000\n 22937: t0 = 852, jump @2393\n      : @871 [@dyn 426] (gas: 8)\n 22944: a0 = u64 [a4 + 0xf8]\n 22948: a1 = u64 [a3 + 0x500]\n 22952: a2 = u64 [a4 + 0xf0]\n 22956: a3 = u64 [a4 + 0xe8]\n 22960: a1 = a1 | a2\n 22963: a0 = a0 | a3\n 22966: a0 = a0 | a1\n 22969: jump @873 if a0 == 0\n      : @872 (gas: 1)\n 22972: jump @1995\n      : @873 (gas: 3)\n 22976: a0 = u64 [s1 + 0x198]\n 22980: a0 = i32 [a0]\n 22982: jump @875 if a0 >u 131\n      : @874 (gas: 1)\n 22987: jump @1996\n      : @875 (gas: 7)\n 22991: a0 = s1 + 0x5000\n 22995: i32 a0 = a0 + 0xfffffffffffffe20\n 22999: a1 = 0x4\n 23002: ra = 0x356\n 23006: ecalli 2 // 'call_data_load'\n 23008: t0 = 0x358\n 23012: jump @2449\n      : @876 [@dyn 427] (gas: 1)\n 23016: t0 = 856, jump @2449\n      : @877 [@dyn 428] (gas: 13)\n 23023: a0 = u64 [a2 + 0x20]\n 23026: u64 [s1 + 0xf0] = a0\n 23030: a0 = u64 [a2 + 0x18]\n 23033: u64 [s1 + 0xe8] = a0\n 23037: a0 = u64 [a2 + 0x10]\n 23040: u64 [s1 + 0x100] = a0\n 23044: a0 = u64 [a2 + 0x8]\n 23047: u64 [s1 + 0xf8] = a0\n 23051: a0 = s1 + 0x5000\n 23055: i32 a0 = a0 + 0xfffffffffffffe40\n 23059: a1 = 0x24\n 23062: ecalli 2 // 'call_data_load'\n 23064: fallthrough\n      : @878 (gas: 9)\n 23065: a2 = s1 + 0x4918\n 23069: a0 = a2 + 0x500\n 23073: a5 = u64 [a0 + 0x40]\n 23076: a3 = u64 [a0 + 0x38]\n 23079: a4 = u64 [a0 + 0x30]\n 23082: a0 = a3 | a5\n 23085: a1 = a4 <u 0x1\n 23088: a1 = 0 if a0 != 0\n 23090: jump @880 if a1 != 0\n      : @879 (gas: 1)\n 23093: jump @1997\n      : @880 (gas: 19)\n 23097: a1 = u64 [a2 + 0x528]\n 23101: a0 = u64 [s1 + 0x198]\n 23105: t1 = u32 [a0]\n 23107: a0 = a1 + 0x23\n 23110: a2 = a0 <u a1\n 23113: t0 = a4 + a2\n 23116: u64 [s1 + 0x180] = a4\n 23120: a4 = t0 <u a4\n 23123: a4 = a2 if a2 == 0\n 23126: a4 = a4 + a3\n 23129: u64 [s1 + 0x188] = a3\n 23133: a2 = a4 <u a3\n 23136: u64 [s1 + 0x190] = a5\n 23140: a2 = a2 + a5\n 23143: a2 = a2 | a4\n 23146: a0 = a0 <u t1\n 23149: a0 = 0 if t0 != 0\n 23151: a0 = 0 if a2 != 0\n 23153: jump @882 if a0 != 0\n      : @881 (gas: 1)\n 23156: jump @1998\n      : @882 (gas: 6)\n 23160: u64 [s1 + 0x178] = a1\n 23164: i32 a1 = a1 + 0x4\n 23167: a0 = s1 + 0x5000\n 23171: i32 a0 = a0 + 0xfffffffffffffe60\n 23175: ecalli 2 // 'call_data_load'\n 23177: fallthrough\n      : @883 (gas: 8)\n 23178: a2 = s1 + 0x4918\n 23182: t1 = u64 [a2 + 0x560]\n 23186: t2 = u64 [a2 + 0x558]\n 23190: a5 = u64 [a2 + 0x550]\n 23194: a0 = t2 | t1\n 23197: a1 = a5 <u 0x1\n 23200: a1 = 0 if a0 != 0\n 23202: jump @885 if a1 != 0\n      : @884 (gas: 1)\n 23205: jump @1999\n      : @885 (gas: 45)\n 23209: t0 = u64 [a2 + 0x548]\n 23213: a0 = u64 [s1 + 0x178]\n 23217: a1 = a0 + 0x24\n 23220: ra = a1 <u a0\n 23223: a2 = u64 [s1 + 0x180]\n 23227: a3 = a2 + ra\n 23230: u64 [s1 + 0x120] = t0\n 23234: t0 = t0 + a1\n 23237: u64 [s1 + 0x80] = a1\n 23241: a4 = t0 <u a1\n 23244: u64 [s1 + 0x118] = a5\n 23248: a0 = a3 + a5\n 23251: a0 = a0 + a4\n 23254: a5 = a0 ^ a3\n 23257: a1 = a0 <u a3\n 23260: a1 = a4 if a5 == 0\n 23263: a3 = a3 <u a2\n 23266: a3 = ra if ra == 0\n 23269: a5 = s1 + 0x100\n 23273: a2 = u64 [a5 + 0x88]\n 23277: a3 = a3 + a2\n 23280: a2 = a3 <u a2\n 23283: u64 [s1 + 0x90] = t1\n 23287: a4 = u64 [a5 + 0x90]\n 23291: a4 = a4 + t1\n 23294: a2 = a2 + a4\n 23297: u64 [s1 + 0x88] = t2\n 23301: a4 = a3 + t2\n 23304: a3 = a4 <u a3\n 23307: a2 = a2 + a3\n 23310: a3 = u64 [a5 + 0x98]\n 23314: a3 = u32 [a3]\n 23316: a1 = a1 + a4\n 23319: a4 = a1 <u a4\n 23322: a2 = a2 + a4\n 23325: a3 = a3 <u t0\n 23328: a4 = a0 <u 0x1\n 23331: a3 = a3 ^ 0x1\n 23334: a3 = a4 if a0 != 0\n 23337: a0 = a2 <u 0x1\n 23340: a4 = a1 <u 0x1\n 23343: a4 = a0 if a2 != 0\n 23346: a1 = a1 | a2\n 23349: a3 = a4 if a1 != 0\n 23352: jump @887 if a3 != 0\n      : @886 (gas: 1)\n 23355: jump @2000\n      : @887 (gas: 7)\n 23359: a0 = s1 + 0x5000\n 23363: i32 a0 = a0 + 0xfffffffffffffe80\n 23367: a1 = 0x44\n 23370: ra = 0x35a\n 23374: ecalli 2 // 'call_data_load'\n 23376: t0 = 0x35c\n 23380: jump @2449\n      : @888 [@dyn 429] (gas: 1)\n 23384: t0 = 860, jump @2449\n      : @889 [@dyn 430] (gas: 15)\n 23391: a0 = u64 [a2 + 0x80]\n 23395: u64 [s1 + 0xd0] = a0\n 23399: a0 = u64 [a2 + 0x78]\n 23402: u64 [s1 + 0xc8] = a0\n 23406: a0 = u64 [a2 + 0x70]\n 23409: u64 [s1 + 0xc0] = a0\n 23413: a0 = u64 [a2 + 0x68]\n 23416: u64 [s1 + 0xb8] = a0\n 23420: a0 = s1 + 0x5000\n 23424: i32 a0 = a0 + 0xfffffffffffffea0\n 23428: a1 = 0x64\n 23431: ra = 0x35e\n 23435: ecalli 2 // 'call_data_load'\n 23437: t0 = 0x360\n 23441: jump @2449\n      : @890 [@dyn 431] (gas: 1)\n 23445: t0 = 864, jump @2449\n      : @891 [@dyn 432] (gas: 16)\n 23452: a0 = u64 [a2 + 0xa0]\n 23456: u64 [s1 + 0xb0] = a0\n 23460: a0 = u64 [a2 + 0x98]\n 23464: u64 [s1 + 0xa8] = a0\n 23468: a0 = u64 [a2 + 0x90]\n 23472: u64 [s1 + 0xa0] = a0\n 23476: a0 = u64 [a2 + 0x88]\n 23480: u64 [s1 + 0x98] = a0\n 23484: a0 = 0x301b0\n 23489: u64 [s1 + 0x108] = a0\n 23493: i32 a0 = a0 + 0\n 23495: u64 [s1 + 0xe0] = a0\n 23499: ra = 0x362\n 23503: ecalli 4 // 'caller'\n 23505: t0 = 0x364\n 23509: jump @2335\n      : @892 [@dyn 433] (gas: 1)\n 23513: t0 = 868, jump @2335\n      : @893 [@dyn 434] (gas: 8)\n 23520: u64 [a2 + 1376] = 0\n 23524: a4 = a2 + 0x500\n 23528: u64 [a4 + 0x58] = a1\n 23531: u64 [a4 + 0x50] = a0\n 23534: a1 = s1 + 0x3660\n 23538: u64 [a4 + 0x48] = a3\n 23541: a0 = 0\n 23543: ra = 870, jump @19\n      : @894 [@dyn 435] (gas: 3)\n 23549: t0 = 0x368\n 23553: a1 = s1 + 0x3118\n 23557: fallthrough\n      : @895 [@dyn 436] (gas: 8)\n 23558: u64 [a1 + 1344] = 0\n 23562: u64 [a1 + 1336] = 0\n 23566: u64 [a1 + 1320] = 0xa\n 23571: a2 = a1\n 23573: a0 = 0x20\n 23576: a1 = s1 + 0x3640\n 23580: u64 [a2 + 1328] = 0\n 23584: ra = 874, jump @19\n      : @896 [@dyn 437] (gas: 4)\n 23590: a2 = 0x2019c\n 23595: a0 = i32 [0x2019c]\n 23600: a1 = 0x3f\n 23603: jump @898 if a1 <u a0\n      : @897 (gas: 4)\n 23606: u32 [0x2019c] = 0x40\n 23612: u64 [s1 + 0x110] = a2\n 23616: t0 = 0x36c\n 23620: jump @2364\n      : @898 (gas: 2)\n 23624: u64 [s1 + 0x110] = a2\n 23628: t0 = 876, jump @2364\n      : @899 [@dyn 438] (gas: 9)\n 23635: a0 = 0x201b0\n 23640: i32 a0 = a0 + 0\n 23642: i32 a2 = a2 + 0\n 23644: a1 = 0x40\n 23647: u64 [s1 + 0xd8] = a0\n 23651: ra = 0x36e\n 23655: ecalli 7 // 'hash_keccak_256'\n 23657: t0 = 0x370\n 23661: jump @2339\n      : @900 [@dyn 439] (gas: 1)\n 23665: t0 = 880, jump @2339\n      : @901 [@dyn 440] (gas: 8)\n 23672: a5 = a4 + 0x500\n 23676: u64 [a5 + 0xc0] = a3\n 23680: u64 [a5 + 0xb8] = a2\n 23684: u64 [a5 + 0xb0] = a1\n 23688: u64 [a5 + 0xa8] = a0\n 23692: a0 = s1 + 0x3620\n 23696: a1 = s1 + 0x4ec0\n 23700: ra = 882, jump @21\n      : @902 [@dyn 441] (gas: 3)\n 23706: a0 = s1 + 0x3118\n 23710: a0 = u8 [a0 + 0x508]\n 23714: jump @904 if a0 == 0\n      : @903 (gas: 1)\n 23717: jump @1303\n      : @904 (gas: 3)\n 23720: a0 = s1 + 0x2940\n 23724: a1 = 0x40\n 23727: ra = 884, jump @17\n      : @905 [@dyn 442] (gas: 13)\n 23733: a4 = s1 + 0x2918\n 23737: t0 = u64 [a4 + 0x40]\n 23740: a5 = u64 [a4 + 0x38]\n 23743: a3 = u64 [a4 + 0x30]\n 23746: a0 = u64 [a4 + 0x28]\n 23749: a2 = a3 | t0\n 23752: a1 = a0 | a5\n 23755: a1 = a1 | a2\n 23758: a1 = a1 >> 0x20\n 23761: a2 = a2 | a5\n 23764: a2 = a2 << 0x20\n 23767: a1 = a1 | a2\n 23770: jump @907 if a1 == 0\n      : @906 (gas: 1)\n 23773: jump @1912\n      : @907 (gas: 11)\n 23776: u64 [a4 + 24] = 0\n 23779: u64 [a4 + 16] = 0\n 23782: u64 [a4 + 8] = 0\n 23785: u64 [s1 + 0x190] = a3\n 23789: a3 = 0x8c379a000000000\n 23799: a1 = s1 + 0x2920\n 23803: u64 [a4 + 0x20] = a3\n 23806: u64 [s1 + 0x198] = a0\n 23810: u64 [s1 + 0x188] = t0\n 23814: u64 [s1 + 0x180] = a5\n 23818: ra = 886, jump @19\n      : @908 [@dyn 443] (gas: 6)\n 23824: a5 = s1 + 0x100\n 23828: a1 = u64 [a5 + 0x98]\n 23832: a0 = u64 [a5 + 0x88]\n 23836: a3 = u64 [a5 + 0x80]\n 23840: a3 = a3 | a0\n 23843: t0 = 888, jump @2344\n      : @909 [@dyn 444] (gas: 1)\n 23850: jump @911 if a0 != 0\n      : @910 (gas: 1)\n 23853: jump @1912\n      : @911 (gas: 4)\n 23856: i32 a0 = a1 + 0x4\n 23859: t0 = 0x37a\n 23863: a2 = s1 + 0x2918\n 23867: fallthrough\n      : @912 [@dyn 445] (gas: 8)\n 23868: u64 [a2 + 0] = 0\n 23870: u64 [a2 + 4294967288] = 0\n 23873: u64 [a2 + 4294967272] = 0x20\n 23877: a1 = s1 + 0x2900\n 23881: u64 [a2 + 4294967280] = 0\n 23884: u64 [s1 + 0x188] = a3\n 23888: u64 [s1 + 0x180] = a4\n 23892: ra = 892, jump @19\n      : @913 [@dyn 446] (gas: 1)\n 23898: t0 = 894, jump @2357\n      : @914 [@dyn 447] (gas: 1)\n 23905: jump @916 if a0 != 0\n      : @915 (gas: 1)\n 23908: jump @1912\n      : @916 (gas: 8)\n 23911: i32 a0 = a1 + 0x24\n 23914: a4 = s1 + 0x2118\n 23918: u64 [a4 + 2016] = 0\n 23922: u64 [a4 + 2008] = 0\n 23926: u64 [a4 + 1992] = 0xe\n 23931: a1 = s1 + 0x28e0\n 23935: u64 [a4 + 2000] = 0\n 23939: ra = 896, jump @19\n      : @917 [@dyn 448] (gas: 1)\n 23945: t0 = 898, jump @2387\n      : @918 [@dyn 449] (gas: 1)\n 23952: jump @920 if a0 != 0\n      : @919 (gas: 1)\n 23955: jump @1912\n      : @920 (gas: 11)\n 23958: i32 a0 = a3 + 0x44\n 23961: a1 = u64 [0x200d8]\n 23966: a2 = u64 [0x200e0]\n 23971: a4 = s1 + 0x2118\n 23975: u64 [a4 + 0x7c0] = a1\n 23979: u64 [a4 + 1968] = 0\n 23983: u64 [a4 + 0x7b8] = a2\n 23987: a1 = s1 + 0x28c0\n 23991: u64 [a4 + 1960] = 0\n 23995: ra = 0x54e\n 23999: jump @19\n      : @921 (gas: 9)\n 24002: u64 [a4 + 992] = 0\n 24006: u64 [a4 + 984] = 0\n 24010: u64 [a4 + 976] = 0\n 24014: u64 [a4 + 968] = 0\n 24018: a0 = s1 + 0x4000\n 24022: i32 a0 = a0 + 0x4e0\n 24026: ra = 0x384\n 24030: ecalli 14 // 'value_transferred'\n 24032: fallthrough\n      : @922 [@dyn 450] (gas: 3)\n 24033: a3 = s1 + 0x4118\n 24037: a4 = a3 + 0x300\n 24041: t0 = 902, jump @2365\n      : @923 [@dyn 451] (gas: 1)\n 24048: jump @925 if a0 == 0\n      : @924 (gas: 1)\n 24051: jump @2001\n      : @925 (gas: 1)\n 24054: t0 = 904, jump @2389\n      : @926 [@dyn 452] (gas: 1)\n 24061: jump @928 if a1 <u a0\n      : @927 (gas: 1)\n 24064: jump @2002\n      : @928 (gas: 4)\n 24067: a0 = s1 + 0x640\n 24071: ra = 0x38a\n 24075: t0 = 0x8ba\n 24079: jump @2444\n      : @929 [@dyn 453] (gas: 10)\n 24083: a0 = u64 [s1 + 0x640]\n 24087: a1 = u64 [s1 + 0x648]\n 24091: a2 = u32 [s1 + 0x650]\n 24095: u64 [s1 + 1592] = 0\n 24099: u64 [s1 + 0x630] = a2\n 24103: u64 [s1 + 0x628] = a1\n 24107: a1 = s1 + 0x620\n 24111: u64 [s1 + 0x620] = a0\n 24115: a0 = 0\n 24117: ra = 908, jump @19\n      : @930 [@dyn 454] (gas: 7)\n 24123: u64 [s1 + 1560] = 0\n 24127: u64 [s1 + 1552] = 0\n 24131: u64 [s1 + 1536] = 0xf\n 24136: a0 = 0x20\n 24139: a1 = s1 + 0x600\n 24143: u64 [s1 + 1544] = 0\n 24147: ra = 910, jump @19\n      : @931 [@dyn 455] (gas: 2)\n 24153: a1 = i32 [0x2019c]\n 24158: jump @933 if a1 >u 63\n      : @932 (gas: 4)\n 24162: a1 = 0x40\n 24165: u32 [0x2019c] = a1\n 24170: t0 = 0x390\n 24174: jump @2364\n      : @933 (gas: 1)\n 24178: t0 = 912, jump @2364\n      : @934 [@dyn 456] (gas: 9)\n 24185: a0 = 0x201b0\n 24190: i32 a0 = a0 + 0\n 24192: i32 a2 = a2 + 0\n 24194: a1 = 0x40\n 24197: ra = 0x392\n 24201: ecalli 7 // 'hash_keccak_256'\n 24203: a3 = u64 [s1 + 0x198]\n 24207: t0 = 0x394\n 24211: jump @2384\n      : @935 [@dyn 457] (gas: 2)\n 24215: a3 = u64 [s1 + 0x198]\n 24219: t0 = 916, jump @2384\n      : @936 [@dyn 458] (gas: 8)\n 24226: u64 [a4 + 0x400] = a3\n 24230: a3 = a4 + 0x300\n 24234: u64 [a3 + 0xf8] = a2\n 24238: u64 [a3 + 0xf0] = a1\n 24242: u64 [a3 + 0xe8] = a0\n 24246: a0 = s1 + 0x5e0\n 24250: a1 = s1 + 0x4500\n 24254: ra = 918, jump @21\n      : @937 [@dyn 459] (gas: 5)\n 24260: a0 = u64 [s1 + 0x5e0]\n 24264: u64 [s1 + 0x198] = a0\n 24268: a0 = s1 + 0x5c0\n 24272: a1 = 0x40\n 24275: ra = 920, jump @17\n      : @938 [@dyn 460] (gas: 6)\n 24281: a4 = s1 + 0x500\n 24285: a3 = u64 [a4 + 0xd8]\n 24289: a1 = u64 [a4 + 0xd0]\n 24293: a2 = u64 [a4 + 0xc8]\n 24297: a0 = u64 [a4 + 0xc0]\n 24301: t0 = 922, jump @2380\n      : @939 [@dyn 461] (gas: 1)\n 24308: jump @941 if a1 == 0\n      : @940 (gas: 1)\n 24311: jump @1912\n      : @941 (gas: 10)\n 24314: a1 = u8 [s1 + 0x198]\n 24318: a2 = a1 >u 0\n 24320: u64 [s1 + 1464] = 0\n 24324: u64 [s1 + 1456] = 0\n 24328: u64 [s1 + 1448] = 0\n 24332: a1 = s1 + 0x5a0\n 24336: u64 [s1 + 0x5a0] = a2\n 24340: u64 [s1 + 0x198] = a0\n 24344: ra = 0x462\n 24348: jump @19\n      : @942 (gas: 9)\n 24351: u64 [a4 + 1600] = 0\n 24355: u64 [a4 + 1592] = 0\n 24359: u64 [a4 + 1584] = 0\n 24363: u64 [a4 + 1576] = 0\n 24367: a0 = s1 + 0x4000\n 24371: i32 a0 = a0 + 0x740\n 24375: ra = 0x39c\n 24379: ecalli 14 // 'value_transferred'\n 24381: fallthrough\n      : @943 [@dyn 462] (gas: 3)\n 24382: a3 = s1 + 0x4118\n 24386: a4 = a3 + 0x600\n 24390: t0 = 926, jump @2452\n      : @944 [@dyn 463] (gas: 1)\n 24397: jump @946 if a0 == 0\n      : @945 (gas: 1)\n 24400: jump @2003\n      : @946 (gas: 3)\n 24403: a0 = u64 [s1 + 0x198]\n 24407: a0 = i32 [a0]\n 24409: jump @948 if a0 >u 3\n      : @947 (gas: 1)\n 24413: jump @2004\n      : @948 (gas: 4)\n 24416: a0 = s1 + 0x7ff\n 24420: a0 = a0 + 0x4c1\n 24424: a1 = 0x40\n 24427: ra = 928, jump @17\n      : @949 [@dyn 464] (gas: 8)\n 24433: a3 = s1 + 0x7ff\n 24437: a3 = a3 + 0x119\n 24441: a5 = a3 + 0x300\n 24445: a4 = u64 [a5 + 0xc0]\n 24449: a1 = u64 [a5 + 0xb8]\n 24453: a2 = u64 [a5 + 0xb0]\n 24457: a0 = u64 [a5 + 0xa8]\n 24461: t0 = 930, jump @2356\n      : @950 [@dyn 465] (gas: 1)\n 24468: jump @952 if a1 == 0\n      : @951 (gas: 1)\n 24471: jump @1912\n      : @952 (gas: 9)\n 24474: u64 [a3 + 928] = 0\n 24478: u64 [a3 + 920] = 0\n 24482: u64 [a3 + 904] = 0x9\n 24487: a1 = s1 + 0x7ff\n 24491: a1 = a1 + 0x4a1\n 24495: u64 [a3 + 912] = 0\n 24499: u64 [s1 + 0x198] = a0\n 24503: ra = 0x462\n 24507: jump @19\n      : @953 (gas: 11)\n 24510: u64 [a3 + 384] = 0\n 24514: u64 [a3 + 376] = 0\n 24518: u64 [a3 + 368] = 0\n 24522: u64 [a3 + 360] = 0\n 24526: a0 = s1 + 0x5000\n 24530: i32 a0 = a0 + 0x280\n 24534: ra = 0x3a4\n 24538: ecalli 14 // 'value_transferred'\n 24540: a0 = 0x5000\n 24544: t0 = 0x3a6\n 24548: jump @2395\n      : @954 [@dyn 466] (gas: 2)\n 24552: a0 = 0x5000\n 24556: t0 = 934, jump @2395\n      : @955 [@dyn 467] (gas: 1)\n 24563: t0 = 936, jump @2405\n      : @956 [@dyn 468] (gas: 1)\n 24570: jump @958 if a0 == 0\n      : @957 (gas: 1)\n 24573: jump @2005\n      : @958 (gas: 1)\n 24576: t0 = 938, jump @2389\n      : @959 [@dyn 469] (gas: 1)\n 24583: jump @961 if a1 <u a0\n      : @960 (gas: 1)\n 24586: jump @2006\n      : @961 (gas: 4)\n 24589: a0 = s1 + 0x39c0\n 24593: ra = 0x3ac\n 24597: t0 = 0x8ba\n 24601: jump @2444\n      : @962 [@dyn 470] (gas: 15)\n 24605: a3 = s1 + 0x3918\n 24609: a0 = u64 [a3 + 0xa8]\n 24613: a1 = u64 [a3 + 0xb0]\n 24617: a2 = u32 [a3 + 0xb8]\n 24621: u64 [a3 + 160] = 0\n 24625: a4 = s1 + 0x100\n 24629: u64 [a4 + 0x88] = a2\n 24633: u64 [a3 + 0x98] = a2\n 24637: u64 [a4 + 0x90] = a1\n 24641: u64 [a3 + 0x90] = a1\n 24645: a1 = s1 + 0x39a0\n 24649: u64 [a4 + 0x98] = a0\n 24653: u64 [a3 + 0x88] = a0\n 24657: a0 = 0\n 24659: ra = 942, jump @19\n      : @963 [@dyn 471] (gas: 9)\n 24665: a1 = s1 + 0x3918\n 24669: u64 [a1 + 128] = 0\n 24673: u64 [a1 + 120] = 0\n 24676: u64 [a1 + 104] = 0xd\n 24680: a2 = a1\n 24682: a0 = 0x20\n 24685: a1 = s1 + 0x3980\n 24689: u64 [a2 + 112] = 0\n 24692: ra = 944, jump @19\n      : @964 [@dyn 472] (gas: 3)\n 24698: a1 = 0x2019c\n 24703: a0 = i32 [0x2019c]\n 24708: jump @966 if a0 >u 63\n      : @965 (gas: 2)\n 24712: u32 [0x2019c] = 0x40\n 24718: fallthrough\n      : @966 (gas: 15)\n 24719: a0 = sp + 0xffffffffffffffe0\n 24722: a2 = a0 & 0xffffffffffffffe0\n 24725: u64 [s1 + 0x170] = a2\n 24729: sp = a2\n 24731: a0 = 0x201b0\n 24736: i32 a0 = a0 + 0\n 24738: i32 a2 = a2 + 0\n 24740: u64 [s1 + 0x180] = a1\n 24744: a1 = 0x40\n 24747: u64 [s1 + 0x178] = a0\n 24751: ra = 0x3b2\n 24755: ecalli 7 // 'hash_keccak_256'\n 24757: a3 = u64 [s1 + 0x170]\n 24761: t0 = 0x3b4\n 24765: jump @2375\n      : @967 [@dyn 473] (gas: 2)\n 24769: a3 = u64 [s1 + 0x170]\n 24773: t0 = 948, jump @2375\n      : @968 [@dyn 474] (gas: 7)\n 24780: u64 [a5 + 0xa0] = a3\n 24784: u64 [a5 + 0x98] = a2\n 24788: u64 [a5 + 0x90] = a1\n 24792: u64 [a5 + 0x88] = a0\n 24796: a0 = s1 + 0x3960\n 24800: a1 = s1 + 0x52a0\n 24804: ra = 950, jump @21\n      : @969 [@dyn 475] (gas: 3)\n 24810: t0 = 0x3b8\n 24814: a1 = s1 + 0x3918\n 24818: fallthrough\n      : @970 [@dyn 476] (gas: 19)\n 24819: a0 = u64 [a1 + 0x60]\n 24822: u64 [s1 + 0x100] = a0\n 24826: a0 = u64 [a1 + 0x58]\n 24829: u64 [s1 + 0xf8] = a0\n 24833: a0 = u64 [a1 + 0x50]\n 24836: u64 [s1 + 0x110] = a0\n 24840: a0 = u64 [a1 + 0x48]\n 24843: u64 [s1 + 0x118] = a0\n 24847: u64 [a1 + 64] = 0\n 24850: a0 = u64 [s1 + 0x188]\n 24854: u64 [a1 + 0x38] = a0\n 24857: a0 = u64 [s1 + 0x190]\n 24861: u64 [a1 + 0x30] = a0\n 24864: a2 = a1\n 24866: a1 = s1 + 0x3940\n 24870: a0 = u64 [s1 + 0x198]\n 24874: u64 [a2 + 0x28] = a0\n 24877: a0 = 0\n 24879: ra = 954, jump @19\n      : @971 [@dyn 477] (gas: 9)\n 24885: a1 = s1 + 0x3918\n 24889: u64 [a1 + 32] = 0\n 24892: u64 [a1 + 24] = 0\n 24895: u64 [a1 + 8] = 0xe\n 24899: a2 = a1\n 24901: a0 = 0x20\n 24904: a1 = s1 + 0x3920\n 24908: u64 [a2 + 16] = 0\n 24911: ra = 956, jump @19\n      : @972 [@dyn 478] (gas: 3)\n 24917: a1 = u64 [s1 + 0x180]\n 24921: a0 = i32 [a1]\n 24923: jump @974 if a0 >u 63\n      : @973 (gas: 3)\n 24927: u32 [a1 + 0] = 0x40\n 24930: t0 = 0x3be\n 24934: jump @2378\n      : @974 (gas: 1)\n 24938: t0 = 958, jump @2378\n      : @975 [@dyn 479] (gas: 6)\n 24945: a0 = u64 [s1 + 0x178]\n 24949: ra = 0x3c0\n 24953: ecalli 7 // 'hash_keccak_256'\n 24955: a3 = u64 [s1 + 0x198]\n 24959: t0 = 0x3c2\n 24963: jump @2375\n      : @976 [@dyn 480] (gas: 2)\n 24967: a3 = u64 [s1 + 0x198]\n 24971: t0 = 962, jump @2375\n      : @977 [@dyn 481] (gas: 7)\n 24978: u64 [a5 + 0xc0] = a3\n 24982: u64 [a5 + 0xb8] = a2\n 24986: u64 [a5 + 0xb0] = a1\n 24990: u64 [a5 + 0xa8] = a0\n 24994: a0 = s1 + 0x3900\n 24998: a1 = s1 + 0x52c0\n 25002: ra = 964, jump @21\n      : @978 [@dyn 482] (gas: 28)\n 25008: a0 = s1 + 0x3918\n 25012: a3 = u64 [a0]\n 25014: a5 = a0 + 0xffffffffffffff00\n 25018: a4 = u64 [a5 + 0xf8]\n 25022: a1 = u64 [a5 + 0xf0]\n 25026: a2 = u64 [a5 + 0xe8]\n 25030: a5 = s1 + 0x3118\n 25034: u64 [s1 + 0xe8] = a3\n 25038: u64 [a5 + 0x7a0] = a3\n 25042: u64 [s1 + 0xe0] = a4\n 25046: u64 [a5 + 0x798] = a4\n 25050: u64 [s1 + 0xf0] = a1\n 25054: a4 = a5 + 0x700\n 25058: u64 [a4 + 0x90] = a1\n 25062: u64 [s1 + 0x108] = a2\n 25066: u64 [a4 + 0x88] = a2\n 25070: a0 = u64 [s1 + 0x100]\n 25074: u64 [a4 + 0xc0] = a0\n 25078: a0 = u64 [s1 + 0xf8]\n 25082: u64 [a4 + 0xb8] = a0\n 25086: a0 = u64 [s1 + 0x110]\n 25090: u64 [a4 + 0xb0] = a0\n 25094: a0 = s1 + 0x38e0\n 25098: a1 = s1 + 0x38c0\n 25102: a2 = s1 + 0x38a0\n 25106: a3 = u64 [s1 + 0x118]\n 25110: u64 [a4 + 0xa8] = a3\n 25114: ra = 966, jump @2216\n      : @979 [@dyn 483] (gas: 59)\n 25121: a0 = s1 + 0x3118\n 25125: t1 = u64 [a0 + 0x7e0]\n 25129: ra = u64 [a0 + 0x7d8]\n 25133: t0 = u64 [a0 + 0x7d0]\n 25137: a2 = u64 [a0 + 0x7c8]\n 25141: u64 [s1 + 0x148] = a2\n 25145: a0 = clz t1\n 25147: a1 = clz ra\n 25149: a3 = a1 + 0x40\n 25152: a3 = a0 if t1 != 0\n 25155: a0 = clz t0\n 25157: a1 = clz a2\n 25159: a1 = a1 + 0x40\n 25162: a1 = a0 if t0 != 0\n 25165: a0 = a1 + 0x80\n 25169: a2 = ra | t1\n 25172: a3 = a0 if a2 == 0\n 25175: a5 = a0 <u a1\n 25178: a5 = 0 if a2 != 0\n 25180: a4 = a5 >u 0\n 25182: a0 = a3 <u 0xed\n 25186: a2 = a0 ^ 0x1\n 25189: a4 = a2 if a5 == 0\n 25192: a0 = a4 <u 0x1\n 25195: a0 = a0 + 0xffffffffffffffff\n 25198: a1 = -a4\n 25200: a5 = -a5\n 25202: t2 = a5 - a2\n 25205: a2 = s1 + 0x100\n 25209: u64 [a2 + 0x80] = a1\n 25213: a5 = a1 >u 0\n 25215: a1 = a0 >u 0\n 25217: u64 [a2 + 0x70] = a0\n 25220: a1 = a5 if a0 == 0\n 25223: a0 = 0xec - a3\n 25227: u64 [a2 + 0x78] = a0\n 25230: a5 = a0 <u 0x100\n 25234: a5 = a5 ^ 0x1\n 25237: a0 = t2 >u 0\n 25239: a5 = a0 if t2 != 0\n 25242: a5 = a1 if a4 != 0\n 25245: a0 = t0 | t1\n 25248: a3 = u64 [a2 + 0x48]\n 25251: a1 = a3 | ra\n 25254: a0 = a0 | a1\n 25257: a0 = a0 <u 0x1\n 25260: a0 = a0 | a5\n 25263: u64 [a2 + 136] = 0xf4240\n 25270: a1 = t1\n 25272: a4 = t1\n 25274: a4 = 0 if a0 != 0\n 25276: a5 = ra\n 25278: a5 = 0 if a0 != 0\n 25280: u64 [s1 + 0x198] = t0\n 25284: a2 = t0\n 25286: t0 = a3\n 25288: a2 = 0 if a0 != 0\n 25290: a3 = 0 if a0 != 0\n 25292: jump @981 if a0 == 0\n      : @980 (gas: 1)\n 25295: jump @1416\n      : @981 (gas: 10)\n 25298: t1 = ra\n 25300: u64 [s1 + 0x140] = a1\n 25304: a0 = u64 [s1 + 0x178]\n 25308: a0 = a0 ^ 0xff\n 25312: a1 = u64 [s1 + 0x180]\n 25316: a0 = a0 | a1\n 25319: ra = u64 [s1 + 0x170]\n 25323: a1 = t2 | ra\n 25326: a0 = a0 | a1\n 25329: jump @983 if a0 != 0\n      : @982 (gas: 1)\n 25332: jump @1416\n      : @983 (gas: 21)\n 25335: a2 = u64 [s1 + 0x178]\n 25339: a1 = a2 + 0x1\n 25342: u64 [s1 + 0x190] = a1\n 25346: a0 = a1 <u 0x1\n 25349: a0 = a0 + t2\n 25352: u64 [s1 + 0x160] = a0\n 25356: a0 = a0 | a1\n 25359: a0 = a0 <u 0x1\n 25362: a1 = u64 [s1 + 0x180]\n 25366: a0 = a0 + a1\n 25369: u64 [s1 + 0x150] = a0\n 25373: a0 = a0 <u a1\n 25376: a0 = a0 + ra\n 25379: u64 [s1 + 0x158] = a0\n 25383: a1 = 0xff - a2\n 25387: u64 [s1 + 0x180] = a1\n 25391: a2 = 0x80 - a1\n 25395: a0 = t0\n 25397: a1 = u64 [s1 + 0x198]\n 25401: u64 [s1 + 0x138] = t1\n 25405: ra = 968, jump @2455\n      : @984 [@dyn 484] (gas: 6)\n 25412: u64 [s1 + 0x178] = a0\n 25416: u64 [s1 + 0x170] = a1\n 25420: a0 = u64 [s1 + 0x138]\n 25424: a1 = u64 [s1 + 0x140]\n 25428: a2 = u64 [s1 + 0x180]\n 25432: ra = 970, jump @2460\n      : @985 [@dyn 485] (gas: 9)\n 25439: u64 [s1 + 0x168] = a0\n 25443: a0 = u64 [s1 + 0x170]\n 25447: a0 = a0 | a1\n 25450: u64 [s1 + 0x170] = a0\n 25454: a0 = u64 [s1 + 0x180]\n 25458: a2 = a0 + 0xffffffffffffff80\n 25461: a0 = u64 [s1 + 0x148]\n 25465: a1 = u64 [s1 + 0x198]\n 25469: ra = 972, jump @2460\n      : @986 [@dyn 486] (gas: 18)\n 25476: a2 = u64 [s1 + 0x180]\n 25480: a3 = a2 <u 0x80\n 25484: u64 [s1 + 0x130] = a3\n 25488: a4 = u64 [s1 + 0x170]\n 25492: a1 = a4 if a3 != 0\n 25495: a4 = u64 [s1 + 0x140]\n 25499: a1 = a4 if a2 == 0\n 25502: u64 [s1 + 0x170] = a1\n 25506: a1 = u64 [s1 + 0x178]\n 25510: a4 = u64 [s1 + 0x168]\n 25514: a1 = a1 | a4\n 25517: a1 = a0 if a3 == 0\n 25520: a0 = u64 [s1 + 0x138]\n 25524: a1 = a0 if a2 == 0\n 25527: u64 [s1 + 0x178] = a1\n 25531: a0 = u64 [s1 + 0x148]\n 25535: a1 = u64 [s1 + 0x198]\n 25539: ra = 974, jump @2460\n      : @987 [@dyn 487] (gas: 14)\n 25546: a3 = u64 [s1 + 0x150]\n 25550: a4 = u64 [s1 + 0x158]\n 25554: a2 = u64 [s1 + 0x160]\n 25558: a2 = a2 | a4\n 25561: a4 = s1 + 0x100\n 25565: a5 = u64 [a4 + 0x90]\n 25569: a5 = a5 | a3\n 25572: a2 = a2 | a5\n 25575: a3 = u64 [a4 + 0x30]\n 25578: a1 = 0 if a3 == 0\n 25580: u64 [a4 + 0x68] = a1\n 25583: a0 = 0 if a3 == 0\n 25585: u64 [a4 + 0x80] = a0\n 25589: jump @989 if a2 == 0\n      : @988 (gas: 1)\n 25592: jump @1407\n      : @989 (gas: 3)\n 25595: a5 = 0\n 25597: u64 [s1 + 304] = 0\n 25601: jump @1415\n      : @990 (gas: 10)\n 25604: u64 [a4 + 1184] = 0\n 25608: u64 [a4 + 1176] = 0\n 25612: u64 [a4 + 1168] = 0\n 25616: u64 [a4 + 1160] = 0\n 25620: a0 = s1 + 0x4000\n 25624: i32 a0 = a0 + 0x5a0\n 25628: ra = 0x3d0\n 25632: ecalli 14 // 'value_transferred'\n 25634: t0 = 0x3d2\n 25638: jump @2447\n      : @991 [@dyn 488] (gas: 1)\n 25642: t0 = 978, jump @2447\n      : @992 [@dyn 489] (gas: 8)\n 25649: a0 = u64 [a5 + 0x98]\n 25653: a1 = u64 [a5 + 0xa0]\n 25657: a2 = u64 [a5 + 0x90]\n 25661: a3 = u64 [a5 + 0x88]\n 25665: a1 = a1 | a2\n 25668: a0 = a0 | a3\n 25671: a0 = a0 | a1\n 25674: jump @994 if a0 == 0\n      : @993 (gas: 1)\n 25677: jump @2007\n      : @994 (gas: 3)\n 25680: a0 = u64 [s1 + 0x198]\n 25684: a0 = i32 [a0]\n 25686: jump @996 if a0 >u 3\n      : @995 (gas: 1)\n 25690: jump @2008\n      : @996 (gas: 7)\n 25693: u64 [a4 + 1216] = 0\n 25697: u64 [a4 + 1208] = 0\n 25701: u64 [a4 + 1200] = 0\n 25705: u64 [a4 + 1192] = 0x9\n 25710: a0 = s1 + 0x760\n 25714: a1 = s1 + 0x45c0\n 25718: ra = 980, jump @21\n      : @997 [@dyn 490] (gas: 12)\n 25724: a0 = u64 [s1 + 0x778]\n 25728: a1 = s1 + 0x100\n 25732: u64 [a1 + 0x98] = a0\n 25736: a0 = u64 [s1 + 0x770]\n 25740: u64 [a1 + 0x90] = a0\n 25744: a0 = u64 [s1 + 0x768]\n 25748: u64 [a1 + 0x88] = a0\n 25752: a0 = u64 [s1 + 0x760]\n 25756: u64 [a1 + 0x80] = a0\n 25760: a0 = s1 + 0x740\n 25764: a1 = 0x40\n 25767: ra = 982, jump @17\n      : @998 [@dyn 491] (gas: 6)\n 25773: a4 = s1 + 0x700\n 25777: a0 = u64 [a4 + 0x58]\n 25780: a1 = u64 [a4 + 0x50]\n 25783: a2 = u64 [a4 + 0x48]\n 25786: a3 = u64 [a4 + 0x40]\n 25789: t0 = 984, jump @2383\n      : @999 [@dyn 492] (gas: 1)\n 25796: jump @1001 if a0 == 0\n      : @1000 (gas: 1)\n 25799: jump @1912\n      : @1001 (gas: 15)\n 25802: a2 = s1 + 0x100\n 25806: a0 = u64 [a2 + 0x80]\n 25810: a4 = s1 + 0x700\n 25814: u64 [a4 + 0x20] = a0\n 25817: a0 = u64 [a2 + 0x88]\n 25821: u64 [a4 + 0x28] = a0\n 25824: a0 = u64 [a2 + 0x90]\n 25828: u64 [a4 + 0x30] = a0\n 25831: a1 = s1 + 0x720\n 25835: a0 = u64 [a2 + 0x98]\n 25839: u64 [a4 + 0x38] = a0\n 25842: a0 = a3\n 25844: u64 [s1 + 0x198] = a3\n 25848: ra = 0x462\n 25852: jump @19\n      : @1002 (gas: 8)\n 25855: u64 [a4 + 1440] = 0\n 25859: u64 [a4 + 1432] = 0\n 25863: u64 [a4 + 1424] = 0\n 25867: u64 [a4 + 1416] = 0\n 25871: a0 = s1 + 0x4000\n 25875: i32 a0 = a0 + 0x6a0\n 25879: ecalli 14 // 'value_transferred'\n 25881: fallthrough\n      : @1003 (gas: 10)\n 25882: a4 = s1 + 0x4118\n 25886: a5 = a4 + 0x500\n 25890: a0 = u64 [a5 + 0x98]\n 25894: a1 = u64 [a5 + 0xa0]\n 25898: a2 = u64 [a5 + 0x90]\n 25902: a3 = u64 [a5 + 0x88]\n 25906: a1 = a1 | a2\n 25909: a0 = a0 | a3\n 25912: a0 = a0 | a1\n 25915: jump @1005 if a0 == 0\n      : @1004 (gas: 1)\n 25918: jump @2009\n      : @1005 (gas: 3)\n 25921: a0 = u64 [s1 + 0x198]\n 25925: a0 = i32 [a0]\n 25927: jump @1007 if a0 >u 3\n      : @1006 (gas: 1)\n 25931: jump @2010\n      : @1007 (gas: 8)\n 25934: u64 [a4 + 1472] = 0\n 25938: u64 [a4 + 1464] = 0\n 25942: u64 [a4 + 1456] = 0\n 25946: u64 [a4 + 1448] = 0x7\n 25951: a0 = s1 + 0x7ff\n 25955: a0 = a0 + 0x181\n 25959: a1 = s1 + 0x46c0\n 25963: ra = 986, jump @21\n      : @1008 [@dyn 493] (gas: 15)\n 25969: a1 = s1 + 0x7ff\n 25973: a1 = a1 + 0x119\n 25977: a0 = u64 [a1 + 0x80]\n 25981: a2 = s1 + 0x100\n 25985: u64 [a2 + 0x98] = a0\n 25989: a0 = u64 [a1 + 0x78]\n 25992: u64 [a2 + 0x90] = a0\n 25996: a0 = u64 [a1 + 0x70]\n 25999: u64 [a2 + 0x88] = a0\n 26003: a0 = u64 [a1 + 0x68]\n 26006: u64 [a2 + 0x80] = a0\n 26010: a0 = s1 + 0x7ff\n 26014: a0 = a0 + 0x161\n 26018: a1 = 0x40\n 26021: ra = 988, jump @17\n      : @1009 [@dyn 494] (gas: 7)\n 26027: a3 = s1 + 0x7ff\n 26031: a3 = a3 + 0x119\n 26035: a0 = u64 [a3 + 0x60]\n 26038: a1 = u64 [a3 + 0x58]\n 26041: a2 = u64 [a3 + 0x50]\n 26044: a4 = u64 [a3 + 0x48]\n 26047: t0 = 990, jump @2349\n      : @1010 [@dyn 495] (gas: 1)\n 26054: jump @1012 if a0 == 0\n      : @1011 (gas: 1)\n 26057: jump @1912\n      : @1012 (gas: 15)\n 26060: a2 = s1 + 0x100\n 26064: a0 = u64 [a2 + 0x80]\n 26068: u64 [a3 + 0x28] = a0\n 26071: a0 = u64 [a2 + 0x88]\n 26075: u64 [a3 + 0x30] = a0\n 26078: a0 = u64 [a2 + 0x90]\n 26082: u64 [a3 + 0x38] = a0\n 26085: a1 = s1 + 0x7ff\n 26089: a1 = a1 + 0x141\n 26093: a0 = u64 [a2 + 0x98]\n 26097: u64 [a3 + 0x40] = a0\n 26100: a0 = a4\n 26102: u64 [s1 + 0x198] = a4\n 26106: ra = 0x462\n 26110: jump @19\n      : @1013 (gas: 11)\n 26113: a0 = s1 + 0x4918\n 26117: u64 [a0 + 480] = 0\n 26121: u64 [a0 + 472] = 0\n 26125: u64 [a0 + 464] = 0\n 26129: u64 [a0 + 456] = 0\n 26133: a0 = s1 + 0x5000\n 26137: i32 a0 = a0 + 0xfffffffffffffae0\n 26141: ra = 0x3e0\n 26145: ecalli 14 // 'value_transferred'\n 26147: t0 = 0x3e2\n 26151: jump @2448\n      : @1014 [@dyn 496] (gas: 1)\n 26155: t0 = 994, jump @2448\n      : @1015 [@dyn 497] (gas: 1)\n 26162: t0 = 996, jump @2365\n      : @1016 [@dyn 498] (gas: 1)\n 26169: jump @1018 if a0 == 0\n      : @1017 (gas: 1)\n 26172: jump @2011\n      : @1018 (gas: 3)\n 26175: a0 = u64 [s1 + 0x198]\n 26179: a0 = i32 [a0]\n 26181: jump @1020 if a0 >u 3\n      : @1019 (gas: 1)\n 26185: jump @2012\n      : @1020 (gas: 3)\n 26188: a0 = s1 + 0x17e0\n 26192: a1 = 0x40\n 26195: ra = 998, jump @17\n      : @1021 [@dyn 499] (gas: 18)\n 26201: a1 = s1 + 0x1118\n 26205: a2 = a1 + 0x600\n 26209: a0 = u64 [a2 + 0xe0]\n 26213: u64 [s1 + 0xf8] = a0\n 26217: a0 = u64 [a2 + 0xd8]\n 26221: u64 [s1 + 0x100] = a0\n 26225: a0 = u64 [a2 + 0xd0]\n 26229: u64 [s1 + 0x108] = a0\n 26233: a0 = u64 [a2 + 0xc8]\n 26237: u64 [s1 + 0x110] = a0\n 26241: a1 = s1 + 0x4918\n 26245: u64 [a1 + 512] = 0\n 26249: u64 [a1 + 504] = 0\n 26253: u64 [a1 + 496] = 0\n 26257: u64 [a1 + 488] = 0x4\n 26262: a0 = s1 + 0x17c0\n 26266: a1 = s1 + 0x4b00\n 26270: ra = 1000, jump @21\n      : @1022 [@dyn 500] (gas: 17)\n 26276: a4 = s1 + 0x1118\n 26280: a5 = a4 + 0x600\n 26284: a0 = u64 [a5 + 0xc0]\n 26288: a1 = u64 [a5 + 0xb8]\n 26292: a2 = u64 [a5 + 0xb0]\n 26296: a3 = u64 [a5 + 0xa8]\n 26300: u64 [s1 + 0x190] = a0\n 26304: u64 [a5 + 0x80] = a0\n 26308: u64 [s1 + 0x188] = a1\n 26312: u64 [a5 + 0x78] = a1\n 26315: u64 [s1 + 0x180] = a2\n 26319: u64 [a5 + 0x70] = a2\n 26322: a0 = s1 + 0x17a0\n 26326: a1 = s1 + 0x1780\n 26330: u64 [s1 + 0x198] = a3\n 26334: u64 [a5 + 0x68] = a3\n 26337: ra = 1002, jump @2159\n      : @1023 [@dyn 501] (gas: 1)\n 26344: t0 = 1004, jump @2397\n      : @1024 [@dyn 502] (gas: 1)\n 26351: jump @1026 if a1 == 0\n      : @1025 (gas: 1)\n 26354: jump @1912\n      : @1026 (gas: 16)\n 26357: a5 = s1 + 0x1118\n 26361: a2 = u64 [a5 + 0x6a0]\n 26365: a3 = u64 [a5 + 0x698]\n 26369: a1 = u64 [a5 + 0x690]\n 26373: a4 = u64 [a5 + 0x688]\n 26377: u64 [s1 + 0x140] = a4\n 26381: u64 [a5 + 0x648] = a4\n 26385: u64 [s1 + 0x150] = a1\n 26389: a4 = a5 + 0x600\n 26393: u64 [a4 + 0x50] = a1\n 26396: u64 [s1 + 0x148] = a3\n 26400: u64 [a4 + 0x58] = a3\n 26403: a1 = s1 + 0x1760\n 26407: u64 [s1 + 0x158] = a2\n 26411: u64 [a4 + 0x60] = a2\n 26414: ra = 1006, jump @19\n      : @1027 [@dyn 503] (gas: 3)\n 26420: a3 = u64 [s1 + 0x198]\n 26424: a0 = a3 & 0x1\n 26427: jump @1029 if a0 == 0\n      : @1028 (gas: 1)\n 26430: jump @1463\n      : @1029 (gas: 1)\n 26433: t0 = 1008, jump @2382\n      : @1030 [@dyn 504] (gas: 1)\n 26440: jump @1032 if a1 != 0\n      : @1031 (gas: 1)\n 26443: jump @1912\n      : @1032 (gas: 13)\n 26446: a1 = a3 & 0xffffffffffffff00\n 26450: i32 a0 = a4 + 0x20\n 26453: a3 = s1 + 0x1118\n 26457: a2 = u64 [s1 + 0x180]\n 26461: a4 = a3 + 0x500\n 26465: u64 [a4 + 0xd0] = a2\n 26469: u64 [a4 + 0xc8] = a1\n 26473: a1 = u64 [s1 + 0x188]\n 26477: u64 [a4 + 0xd8] = a1\n 26481: a1 = s1 + 0x16e0\n 26485: a2 = u64 [s1 + 0x190]\n 26489: u64 [a4 + 0xe0] = a2\n 26493: ra = 1010, jump @19\n      : @1033 [@dyn 505] (gas: 17)\n 26499: a5 = s1 + 0x1118\n 26503: t0 = u64 [s1 + 0x110]\n 26507: t2 = 0\n 26509: t1 = 0\n 26511: u64 [s1 + 400] = 0\n 26515: a3 = s1 + 0x100\n 26519: a0 = u64 [a3 + 0x48]\n 26522: a1 = u64 [a3 + 0x40]\n 26525: a0 = a0 | a1\n 26528: a1 = u64 [a3 + 0x58]\n 26531: a2 = u64 [a3 + 0x50]\n 26534: a1 = a1 | a2\n 26537: a0 = a0 | a1\n 26540: a0 = a0 >u 0\n 26542: a0 = a0 << 0x5\n 26545: u64 [a3 + 0x98] = a0\n 26549: jump @1503\n      : @1034 (gas: 11)\n 26552: u64 [a2 + 1152] = 0\n 26556: u64 [a2 + 1144] = 0\n 26560: u64 [a2 + 1136] = 0\n 26564: u64 [a2 + 1128] = 0\n 26568: a0 = s1 + 0x5000\n 26572: i32 a0 = a0 + 0xfffffffffffffd80\n 26576: ra = 0x3f4\n 26580: ecalli 14 // 'value_transferred'\n 26582: a0 = 0x5000\n 26586: t0 = 0x3f6\n 26590: jump @2393\n      : @1035 [@dyn 506] (gas: 2)\n 26594: a0 = 0x5000\n 26598: t0 = 1014, jump @2393\n      : @1036 [@dyn 507] (gas: 1)\n 26605: t0 = 1016, jump @2405\n      : @1037 [@dyn 508] (gas: 1)\n 26612: jump @1039 if a0 == 0\n      : @1038 (gas: 1)\n 26615: jump @2013\n      : @1039 (gas: 1)\n 26618: t0 = 1018, jump @2389\n      : @1040 [@dyn 509] (gas: 1)\n 26625: jump @1042 if a1 <u a0\n      : @1041 (gas: 1)\n 26628: jump @2014\n      : @1042 (gas: 5)\n 26631: a0 = s1 + 0x5000\n 26635: i32 a0 = a0 + 0xfffffffffffffda0\n 26639: a1 = 0x4\n 26642: ecalli 2 // 'call_data_load'\n 26644: fallthrough\n      : @1043 (gas: 9)\n 26645: a0 = s1 + 0x4918\n 26649: t0 = u64 [a0 + 0x4a0]\n 26653: ra = u64 [a0 + 0x498]\n 26657: t1 = u64 [a0 + 0x490]\n 26661: t2 = u64 [a0 + 0x488]\n 26665: a0 = t1 | t0\n 26668: a1 = t2 | ra\n 26671: a0 = a0 | a1\n 26674: jump @1045 if a0 == 0\n      : @1044 (gas: 1)\n 26677: jump @1324\n      : @1045 (gas: 3)\n 26680: a0 = s1 + 0x2660\n 26684: a1 = 0x40\n 26687: ra = 1020, jump @17\n      : @1046 [@dyn 510] (gas: 14)\n 26693: a2 = s1 + 0x2118\n 26697: t0 = u64 [a2 + 0x560]\n 26701: a1 = a2 + 0x500\n 26705: a5 = u64 [a1 + 0x58]\n 26708: a4 = u64 [a1 + 0x50]\n 26711: a0 = u64 [a1 + 0x48]\n 26714: a3 = a4 | t0\n 26717: a1 = a0 | a5\n 26720: a1 = a1 | a3\n 26723: a1 = a1 >> 0x20\n 26726: a3 = a3 | a5\n 26729: a3 = a3 << 0x20\n 26732: a1 = a1 | a3\n 26735: jump @1048 if a1 == 0\n      : @1047 (gas: 1)\n 26738: jump @1912\n      : @1048 (gas: 11)\n 26741: u64 [a2 + 1336] = 0\n 26745: u64 [a2 + 1328] = 0\n 26749: u64 [a2 + 1320] = 0\n 26753: a3 = 0x8c379a000000000\n 26763: a1 = s1 + 0x2640\n 26767: u64 [a2 + 0x540] = a3\n 26771: u64 [s1 + 0x198] = a0\n 26775: u64 [s1 + 0x190] = a4\n 26779: u64 [s1 + 0x180] = t0\n 26783: u64 [s1 + 0x188] = a5\n 26787: ra = 1022, jump @19\n      : @1049 [@dyn 511] (gas: 6)\n 26793: a5 = s1 + 0x100\n 26797: a1 = u64 [a5 + 0x98]\n 26801: a0 = u64 [a5 + 0x88]\n 26805: a3 = u64 [a5 + 0x80]\n 26809: a3 = a3 | a0\n 26812: t0 = 1024, jump @2344\n      : @1050 [@dyn 512] (gas: 1)\n 26819: jump @1052 if a0 != 0\n      : @1051 (gas: 1)\n 26822: jump @1912\n      : @1052 (gas: 11)\n 26825: i32 a0 = a1 + 0x4\n 26828: a2 = s1 + 0x2118\n 26832: u64 [a2 + 1312] = 0\n 26836: u64 [a2 + 1304] = 0\n 26840: u64 [a2 + 1296] = 0\n 26844: a5 = 0x20\n 26847: a1 = s1 + 0x2620\n 26851: u64 [a2 + 0x508] = a5\n 26855: u64 [s1 + 0x188] = a3\n 26859: u64 [s1 + 0x180] = a4\n 26863: ra = 1026, jump @19\n      : @1053 [@dyn 513] (gas: 10)\n 26869: a2 = s1 + 0x100\n 26873: a4 = u64 [a2 + 0x88]\n 26877: a3 = u64 [a2 + 0x90]\n 26881: a1 = u64 [a2 + 0x98]\n 26885: a0 = u64 [a2 + 0x80]\n 26889: a0 = a0 + 0xffffffffffffffdc\n 26892: a0 = a1 <u a0\n 26895: a0 = 0 if a3 != 0\n 26897: a0 = 0 if a4 != 0\n 26899: jump @1055 if a0 != 0\n      : @1054 (gas: 1)\n 26902: jump @1912\n      : @1055 (gas: 8)\n 26905: i32 a0 = a1 + 0x24\n 26908: a2 = s1 + 0x2118\n 26912: u64 [a2 + 1280] = 0\n 26916: u64 [a2 + 1272] = 0\n 26920: u64 [a2 + 1256] = 0x20\n 26925: a1 = s1 + 0x2600\n 26929: u64 [a2 + 1264] = 0\n 26933: ra = 1028, jump @19\n      : @1056 [@dyn 514] (gas: 1)\n 26939: t0 = 1030, jump @2387\n      : @1057 [@dyn 515] (gas: 1)\n 26946: jump @1059 if a0 != 0\n      : @1058 (gas: 1)\n 26949: jump @1912\n      : @1059 (gas: 14)\n 26952: i32 a0 = a3 + 0x44\n 26955: a1 = u64 [0x20108]\n 26960: a4 = s1 + 0x2118\n 26964: a5 = a4 + 0x400\n 26968: u64 [a5 + 0xe0] = a1\n 26972: a1 = u64 [0x20110]\n 26977: a2 = u64 [0x20118]\n 26982: a3 = u64 [0x20120]\n 26987: u64 [a5 + 0xd8] = a1\n 26991: u64 [a5 + 0xd0] = a2\n 26995: a1 = s1 + 0x25e0\n 26999: u64 [a5 + 0xc8] = a3\n 27003: ra = 0x54e\n 27007: jump @19\n      : @1060 (gas: 11)\n 27010: u64 [a3 + 352] = 0\n 27014: u64 [a3 + 344] = 0\n 27018: u64 [a3 + 336] = 0\n 27022: u64 [a3 + 328] = 0\n 27026: a0 = s1 + 0x5000\n 27030: i32 a0 = a0 + 0x260\n 27034: ra = 0x408\n 27038: ecalli 14 // 'value_transferred'\n 27040: a0 = 0x5000\n 27044: t0 = 0x40a\n 27048: jump @2395\n      : @1061 [@dyn 516] (gas: 2)\n 27052: a0 = 0x5000\n 27056: t0 = 1034, jump @2395\n      : @1062 [@dyn 517] (gas: 1)\n 27063: t0 = 1036, jump @2401\n      : @1063 [@dyn 518] (gas: 1)\n 27070: jump @1065 if a0 == 0\n      : @1064 (gas: 1)\n 27073: jump @2015\n      : @1065 (gas: 4)\n 27076: a0 = u64 [s1 + 0x198]\n 27080: a0 = i32 [a0]\n 27082: a1 = 0x43\n 27085: jump @1067 if a1 <u a0\n      : @1066 (gas: 1)\n 27088: jump @2016\n      : @1067 (gas: 6)\n 27091: a0 = 0xffffffff\n 27101: u64 [s1 + 0x198] = a0\n 27105: a0 = s1 + 0x37c0\n 27109: ra = 0x40e\n 27113: t0 = 0x8ba\n 27117: jump @2444\n      : @1068 [@dyn 519] (gas: 11)\n 27121: a1 = s1 + 0x3118\n 27125: a0 = u64 [a1 + 0x6a8]\n 27129: u64 [s1 + 0x190] = a0\n 27133: a0 = u64 [a1 + 0x6b0]\n 27137: u64 [s1 + 0x170] = a0\n 27141: a0 = u32 [a1 + 0x6b8]\n 27145: u64 [s1 + 0x168] = a0\n 27149: a0 = s1 + 0x37a0\n 27153: ra = 0x410\n 27157: t0 = 0x8c4\n 27161: jump @2444\n      : @1069 [@dyn 520] (gas: 3)\n 27165: t0 = 0x412\n 27169: a1 = s1 + 0x3118\n 27173: fallthrough\n      : @1070 [@dyn 521] (gas: 19)\n 27174: a2 = a1 + 0x600\n 27178: a0 = u64 [a2 + 0x98]\n 27182: a3 = s1 + 0x100\n 27186: u64 [a3 + 0x88] = a0\n 27190: a0 = u64 [a2 + 0x90]\n 27194: u64 [a3 + 0x80] = a0\n 27198: a0 = u64 [a2 + 0x88]\n 27202: u64 [a3 + 0x78] = a0\n 27205: u64 [a1 + 1664] = 0\n 27209: a0 = u64 [a3 + 0x68]\n 27212: u64 [a2 + 0x78] = a0\n 27215: a0 = u64 [a3 + 0x70]\n 27218: u64 [a2 + 0x70] = a0\n 27221: a2 = a1\n 27223: a1 = s1 + 0x3780\n 27227: a0 = u64 [a3 + 0x90]\n 27231: u64 [a2 + 0x668] = a0\n 27235: a0 = 0\n 27237: ra = 1044, jump @19\n      : @1071 [@dyn 522] (gas: 3)\n 27243: t0 = 0x416\n 27247: a1 = s1 + 0x3118\n 27251: fallthrough\n      : @1072 [@dyn 523] (gas: 8)\n 27252: u64 [a1 + 1632] = 0\n 27256: u64 [a1 + 1624] = 0\n 27260: u64 [a1 + 1608] = 0x1\n 27265: a2 = a1\n 27267: a0 = 0x20\n 27270: a1 = s1 + 0x3760\n 27274: u64 [a2 + 1616] = 0\n 27278: ra = 1048, jump @19\n      : @1073 [@dyn 524] (gas: 3)\n 27284: a1 = 0x2019c\n 27289: a0 = i32 [0x2019c]\n 27294: jump @1075 if a0 >u 63\n      : @1074 (gas: 2)\n 27298: u32 [0x2019c] = 0x40\n 27304: fallthrough\n      : @1075 (gas: 15)\n 27305: a0 = sp + 0xffffffffffffffe0\n 27308: a2 = a0 & 0xffffffffffffffe0\n 27311: u64 [s1 + 0x168] = a2\n 27315: sp = a2\n 27317: a0 = 0x201b0\n 27322: i32 a0 = a0 + 0\n 27324: i32 a2 = a2 + 0\n 27326: u64 [s1 + 0x190] = a1\n 27330: a1 = 0x40\n 27333: u64 [s1 + 0x170] = a0\n 27337: ra = 0x41a\n 27341: ecalli 7 // 'hash_keccak_256'\n 27343: a3 = u64 [s1 + 0x168]\n 27347: t0 = 0x41c\n 27351: jump @2453\n      : @1076 [@dyn 525] (gas: 2)\n 27355: a3 = u64 [s1 + 0x168]\n 27359: t0 = 1052, jump @2453\n      : @1077 [@dyn 526] (gas: 27)\n 27366: u64 [s1 + 0x160] = a0\n 27370: a0 = reverse a1\n 27372: u64 [s1 + 0x158] = a0\n 27376: a0 = reverse a2\n 27378: u64 [s1 + 0x150] = a0\n 27382: a0 = reverse a3\n 27384: u64 [s1 + 0x148] = a0\n 27388: a0 = sp + 0xffffffffffffffe0\n 27391: a0 = a0 & 0xffffffffffffffe0\n 27394: u64 [s1 + 0x168] = a0\n 27398: sp = a0\n 27400: a0 = u64 [s1 + 0x178]\n 27404: a0 = a0 & 0xffffffffffffffff\n 27407: a2 = u64 [s1 + 0x180]\n 27411: a1 = a2 & 0xffffffffffffffff\n 27414: a2 = u64 [s1 + 0x198]\n 27418: a3 = u64 [s1 + 0x188]\n 27422: a2 = a2 & a3\n 27425: a3 = s1 + 0x3118\n 27429: u64 [a3 + 1600] = 0\n 27433: a4 = a3 + 0x600\n 27437: u64 [a4 + 0x38] = a2\n 27440: u64 [a4 + 0x30] = a1\n 27443: a1 = s1 + 0x3740\n 27447: u64 [a4 + 0x28] = a0\n 27450: a0 = 0\n 27452: ra = 1054, jump @19\n      : @1078 [@dyn 527] (gas: 14)\n 27458: a0 = u64 [s1 + 0x148]\n 27462: a1 = s1 + 0x3118\n 27466: a2 = a1 + 0x600\n 27470: u64 [a2 + 0x20] = a0\n 27473: a0 = u64 [s1 + 0x150]\n 27477: u64 [a2 + 0x18] = a0\n 27480: a0 = u64 [s1 + 0x158]\n 27484: u64 [a2 + 0x10] = a0\n 27487: a3 = a1\n 27489: a0 = 0x20\n 27492: a1 = s1 + 0x3720\n 27496: a2 = u64 [s1 + 0x160]\n 27500: u64 [a3 + 0x608] = a2\n 27504: ra = 1056, jump @19\n      : @1079 [@dyn 528] (gas: 3)\n 27510: a1 = u64 [s1 + 0x190]\n 27514: a0 = i32 [a1]\n 27516: jump @1081 if a0 >u 63\n      : @1080 (gas: 3)\n 27520: u32 [a1 + 0] = 0x40\n 27523: t0 = 0x422\n 27527: jump @2378\n      : @1081 (gas: 1)\n 27531: t0 = 1058, jump @2378\n      : @1082 [@dyn 529] (gas: 6)\n 27538: a0 = u64 [s1 + 0x170]\n 27542: ra = 0x424\n 27546: ecalli 7 // 'hash_keccak_256'\n 27548: a3 = u64 [s1 + 0x198]\n 27552: t0 = 0x426\n 27556: jump @2336\n      : @1083 [@dyn 530] (gas: 2)\n 27560: a3 = u64 [s1 + 0x198]\n 27564: t0 = 1062, jump @2336\n      : @1084 [@dyn 531] (gas: 7)\n 27571: a1 = u64 [s1 + 0x168]\n 27575: u64 [a1 + 0x18] = a3\n 27578: u64 [a1 + 0x10] = a2\n 27581: u64 [a1 + 0x8] = a4\n 27584: u64 [a1] = a0\n 27586: a0 = s1 + 0x3700\n 27590: ra = 1064, jump @21\n      : @1085 [@dyn 532] (gas: 3)\n 27596: t0 = 0x42a\n 27600: a1 = s1 + 0x3118\n 27604: fallthrough\n      : @1086 [@dyn 533] (gas: 13)\n 27605: a0 = u64 [a1 + 0x600]\n 27609: a2 = s1 + 0x100\n 27613: u64 [a2 + 0x98] = a0\n 27617: a3 = a1 + 0x500\n 27621: a0 = u64 [a3 + 0xf8]\n 27625: u64 [a2 + 0x90] = a0\n 27629: a0 = u64 [a3 + 0xf0]\n 27633: u64 [a2 + 0x88] = a0\n 27637: a0 = u64 [a3 + 0xe8]\n 27641: u64 [a2 + 0x80] = a0\n 27645: a0 = s1 + 0x36e0\n 27649: a1 = 0x40\n 27652: ra = 1068, jump @17\n      : @1087 [@dyn 534] (gas: 7)\n 27658: a3 = s1 + 0x3118\n 27662: a5 = a3 + 0x500\n 27666: a0 = u64 [a5 + 0xe0]\n 27670: a1 = u64 [a5 + 0xd8]\n 27674: a2 = u64 [a5 + 0xd0]\n 27678: a4 = u64 [a5 + 0xc8]\n 27682: t0 = 1070, jump @2349\n      : @1088 [@dyn 535] (gas: 1)\n 27689: jump @1090 if a0 == 0\n      : @1089 (gas: 1)\n 27692: jump @1912\n      : @1090 (gas: 15)\n 27695: a2 = s1 + 0x100\n 27699: a0 = u64 [a2 + 0x80]\n 27703: a5 = a3 + 0x500\n 27707: u64 [a5 + 0xa8] = a0\n 27711: a0 = u64 [a2 + 0x88]\n 27715: u64 [a5 + 0xb0] = a0\n 27719: a0 = u64 [a2 + 0x90]\n 27723: u64 [a5 + 0xb8] = a0\n 27727: a1 = s1 + 0x36c0\n 27731: a0 = u64 [a2 + 0x98]\n 27735: u64 [a5 + 0xc0] = a0\n 27739: a0 = a4\n 27741: u64 [s1 + 0x198] = a4\n 27745: ra = 0x462\n 27749: jump @19\n      : @1091 (gas: 11)\n 27752: u64 [a2 + 1088] = 0\n 27756: u64 [a2 + 1080] = 0\n 27760: u64 [a2 + 1072] = 0\n 27764: u64 [a2 + 1064] = 0\n 27768: a0 = s1 + 0x5000\n 27772: i32 a0 = a0 + 0xfffffffffffffd40\n 27776: ra = 0x430\n 27780: ecalli 14 // 'value_transferred'\n 27782: a0 = 0x5000\n 27786: t0 = 0x432\n 27790: jump @2393\n      : @1092 [@dyn 536] (gas: 2)\n 27794: a0 = 0x5000\n 27798: t0 = 1074, jump @2393\n      : @1093 [@dyn 537] (gas: 1)\n 27805: t0 = 1076, jump @2452\n      : @1094 [@dyn 538] (gas: 1)\n 27812: jump @1096 if a0 == 0\n      : @1095 (gas: 1)\n 27815: jump @2021\n      : @1096 (gas: 1)\n 27818: t0 = 1078, jump @2389\n      : @1097 [@dyn 539] (gas: 1)\n 27825: jump @1099 if a1 <u a0\n      : @1098 (gas: 1)\n 27828: jump @2017\n      : @1099 (gas: 4)\n 27831: a0 = s1 + 0x25c0\n 27835: ra = 0x438\n 27839: t0 = 0x8ba\n 27843: jump @2444\n      : @1100 [@dyn 540] (gas: 2)\n 27847: a0 = 0x2000\n 27851: t0 = 1082, jump @2445\n      : @1101 [@dyn 541] (gas: 10)\n 27858: a0 = u64 [a4 + 0xa8]\n 27862: a1 = u64 [a4 + 0xb0]\n 27866: a2 = u32 [a3 + 0x4b8]\n 27870: u64 [a3 + 1184] = 0\n 27874: u64 [a4 + 0x98] = a2\n 27878: u64 [a4 + 0x90] = a1\n 27882: a1 = s1 + 0x25a0\n 27886: u64 [a4 + 0x88] = a0\n 27890: a0 = 0\n 27892: ra = 1084, jump @19\n      : @1102 [@dyn 542] (gas: 3)\n 27898: t0 = 0x43e\n 27902: a1 = s1 + 0x2118\n 27906: fallthrough\n      : @1103 [@dyn 543] (gas: 8)\n 27907: u64 [a1 + 1152] = 0\n 27911: u64 [a1 + 1144] = 0\n 27915: u64 [a1 + 1128] = 0xd\n 27920: a2 = a1\n 27922: a0 = 0x20\n 27925: a1 = s1 + 0x2580\n 27929: u64 [a2 + 1136] = 0\n 27933: ra = 1088, jump @19\n      : @1104 [@dyn 544] (gas: 2)\n 27939: a1 = i32 [0x2019c]\n 27944: jump @1106 if a1 >u 63\n      : @1105 (gas: 4)\n 27948: a1 = 0x40\n 27951: u32 [0x2019c] = a1\n 27956: t0 = 0x442\n 27960: jump @2364\n      : @1106 (gas: 1)\n 27964: t0 = 1090, jump @2364\n      : @1107 [@dyn 545] (gas: 8)\n 27971: a0 = 0x201b0\n 27976: i32 a0 = a0 + 0\n 27978: i32 a2 = a2 + 0\n 27980: a1 = 0x40\n 27983: ra = 0x444\n 27987: ecalli 7 // 'hash_keccak_256'\n 27989: t0 = 0x446\n 27993: jump @2339\n      : @1108 [@dyn 546] (gas: 1)\n 27997: t0 = 1094, jump @2339\n      : @1109 [@dyn 547] (gas: 8)\n 28004: a5 = a4 + 0x400\n 28008: u64 [a5 + 0x60] = a3\n 28011: u64 [a5 + 0x58] = a2\n 28014: u64 [a5 + 0x50] = a1\n 28017: u64 [a5 + 0x48] = a0\n 28020: a0 = s1 + 0x2560\n 28024: a1 = s1 + 0x4d60\n 28028: ra = 1096, jump @21\n      : @1110 [@dyn 548] (gas: 3)\n 28034: a1 = s1 + 0x2118\n 28038: a2 = a1 + 0x400\n 28042: t0 = 1098, jump @2427\n      : @1111 [@dyn 549] (gas: 4)\n 28049: i32 a0 = a0 + 0x540\n 28053: a0 = a0 + s1\n 28056: a1 = 0x40\n 28059: ra = 1100, jump @17\n      : @1112 [@dyn 550] (gas: 7)\n 28065: a3 = s1 + 0x2118\n 28069: a5 = a3 + 0x400\n 28073: a0 = u64 [a5 + 0x40]\n 28076: a1 = u64 [a5 + 0x38]\n 28079: a2 = u64 [a5 + 0x30]\n 28082: a4 = u64 [a5 + 0x28]\n 28085: t0 = 1102, jump @2349\n      : @1113 [@dyn 551] (gas: 1)\n 28092: jump @1115 if a0 == 0\n      : @1114 (gas: 1)\n 28095: jump @1912\n      : @1115 (gas: 15)\n 28098: a2 = s1 + 0x100\n 28102: a0 = u64 [a2 + 0x80]\n 28106: a5 = a3 + 0x400\n 28110: u64 [a5 + 0x8] = a0\n 28113: a0 = u64 [a2 + 0x88]\n 28117: u64 [a5 + 0x10] = a0\n 28120: a0 = u64 [a2 + 0x90]\n 28124: u64 [a5 + 0x18] = a0\n 28127: a1 = s1 + 0x2520\n 28131: a0 = u64 [a2 + 0x98]\n 28135: u64 [a5 + 0x20] = a0\n 28138: a0 = a4\n 28140: u64 [s1 + 0x198] = a4\n 28144: ra = 0x462\n 28148: jump @19\n      : @1116 (gas: 11)\n 28151: u64 [a2 + 672] = 0\n 28155: u64 [a2 + 664] = 0\n 28159: u64 [a2 + 656] = 0\n 28163: u64 [a2 + 648] = 0\n 28167: a0 = s1 + 0x5000\n 28171: i32 a0 = a0 + 0xfffffffffffffba0\n 28175: ra = 0x450\n 28179: ecalli 14 // 'value_transferred'\n 28181: a0 = 0x5000\n 28185: t0 = 0x452\n 28189: jump @2440\n      : @1117 [@dyn 552] (gas: 2)\n 28193: a0 = 0x5000\n 28197: t0 = 1106, jump @2440\n      : @1118 [@dyn 553] (gas: 1)\n 28204: t0 = 1108, jump @2437\n      : @1119 [@dyn 554] (gas: 1)\n 28211: jump @1121 if a0 == 0\n      : @1120 (gas: 1)\n 28214: jump @2022\n      : @1121 (gas: 4)\n 28217: a0 = u64 [s1 + 0x198]\n 28221: a0 = i32 [a0]\n 28223: a1 = 0x43\n 28226: jump @1123 if a1 <u a0\n      : @1122 (gas: 1)\n 28229: jump @2018\n      : @1123 (gas: 4)\n 28232: a0 = s1 + 0x1e00\n 28236: ra = 0x456\n 28240: t0 = 0x8ba\n 28244: jump @2444\n      : @1124 [@dyn 555] (gas: 30)\n 28248: a1 = s1 + 0x1918\n 28252: a2 = a1 + 0x400\n 28256: a0 = u64 [a2 + 0xe8]\n 28260: u64 [s1 + 0x198] = a0\n 28264: a0 = u64 [a2 + 0xf0]\n 28268: u64 [s1 + 0x190] = a0\n 28272: a0 = u64 [a2 + 0xf8]\n 28276: u64 [s1 + 0x188] = a0\n 28280: a0 = u64 [a1 + 0x500]\n 28284: u64 [s1 + 0x180] = a0\n 28288: a0 = s1 + 0x5000\n 28292: i32 a0 = a0 + 0xfffffffffffffbc0\n 28296: a1 = 0x24\n 28299: ecalli 2 // 'call_data_load'\n 28301: a0 = s1 + 0x4918\n 28305: a2 = a0 + 0x200\n 28309: a1 = u64 [a2 + 0xa8]\n 28313: u64 [s1 + 0x178] = a1\n 28317: a1 = u64 [a2 + 0xb0]\n 28321: u64 [s1 + 0x170] = a1\n 28325: a1 = u64 [a2 + 0xb8]\n 28329: u64 [s1 + 0x168] = a1\n 28333: a0 = u64 [a2 + 0xc0]\n 28337: u64 [s1 + 0x160] = a0\n 28341: a0 = 0x301b0\n 28346: u64 [s1 + 0x158] = a0\n 28350: i32 a0 = a0 + 0\n 28352: ra = 0x458\n 28356: ecalli 4 // 'caller'\n 28358: fallthrough\n      : @1125 [@dyn 556] (gas: 3)\n 28359: a5 = s1 + 0x100\n 28363: a2 = u64 [a5 + 0x58]\n 28366: t0 = 1114, jump @2371\n      : @1126 [@dyn 557] (gas: 26)\n 28373: a3 = s1 + 0x1918\n 28377: a4 = u64 [a5 + 0x60]\n 28380: u64 [a3 + 0x4a0] = a4\n 28384: a4 = u64 [a5 + 0x68]\n 28387: u64 [a3 + 0x498] = a4\n 28391: a4 = u64 [a5 + 0x70]\n 28394: u64 [a3 + 0x490] = a4\n 28398: a4 = u64 [a5 + 0x78]\n 28401: u64 [a3 + 0x488] = a4\n 28405: a4 = u64 [a5 + 0x80]\n 28409: u64 [a3 + 0x4c0] = a4\n 28413: a4 = u64 [a5 + 0x88]\n 28417: u64 [a3 + 0x4b8] = a4\n 28421: a4 = u64 [a5 + 0x90]\n 28425: u64 [a3 + 0x4b0] = a4\n 28429: a4 = u64 [a5 + 0x98]\n 28433: a5 = a3 + 0x400\n 28437: u64 [a5 + 0xa8] = a4\n 28441: u64 [a5 + 0xd8] = a2\n 28445: u64 [a5 + 0xd0] = a0\n 28449: u64 [a5 + 0xc8] = a1\n 28453: a0 = s1 + 0x1de0\n 28457: a1 = s1 + 0x1dc0\n 28461: a2 = s1 + 0x1da0\n 28465: u64 [a3 + 1248] = 0\n 28469: ra = 1116, jump @2248\n      : @1127 [@dyn 558] (gas: 3)\n 28476: a0 = s1 + 0x1d80\n 28480: a1 = 0x40\n 28483: ra = 1118, jump @17\n      : @1128 [@dyn 559] (gas: 7)\n 28489: a3 = s1 + 0x1918\n 28493: a5 = a3 + 0x400\n 28497: a4 = u64 [a5 + 0x80]\n 28501: a1 = u64 [a5 + 0x78]\n 28504: a2 = u64 [a5 + 0x70]\n 28507: a0 = u64 [a5 + 0x68]\n 28510: t0 = 1120, jump @2356\n      : @1129 [@dyn 560] (gas: 1)\n 28517: jump @1131 if a1 == 0\n      : @1130 (gas: 1)\n 28520: jump @1912\n      : @1131 (gas: 7)\n 28523: u64 [a3 + 1120] = 0\n 28527: u64 [a3 + 1112] = 0\n 28531: u64 [a3 + 1096] = 0x1\n 28536: a1 = s1 + 0x1d60\n 28540: u64 [a3 + 1104] = 0\n 28544: u64 [s1 + 0x198] = a0\n 28548: ra = 1122, jump @19\n      : @1132 [@dyn 561] (gas: 3)\n 28554: a1 = 0x20\n 28557: a0 = u64 [s1 + 0x198]\n 28561: ra = 1124, jump @31\n      : @1133 [@dyn 562] (gas: 5)\n 28567: i32 a1 = a0 + 0\n 28569: a2 = 0x20\n 28572: a0 = 0\n 28574: ecalli 11 // 'seal_return'\n 28576: fallthrough\n      : @1134 (gas: 11)\n 28577: u64 [a2 + 544] = 0\n 28581: u64 [a2 + 536] = 0\n 28585: u64 [a2 + 528] = 0\n 28589: u64 [a2 + 520] = 0\n 28593: a0 = s1 + 0x5000\n 28597: i32 a0 = a0 + 0xfffffffffffffb20\n 28601: ra = 0x466\n 28605: ecalli 14 // 'value_transferred'\n 28607: a0 = 0x5000\n 28611: t0 = 0x468\n 28615: jump @2440\n      : @1135 [@dyn 563] (gas: 2)\n 28619: a0 = 0x5000\n 28623: t0 = 1128, jump @2440\n      : @1136 [@dyn 564] (gas: 1)\n 28630: t0 = 1130, jump @2402\n      : @1137 [@dyn 565] (gas: 1)\n 28637: jump @1139 if a0 == 0\n      : @1138 (gas: 1)\n 28640: jump @2023\n      : @1139 (gas: 1)\n 28643: t0 = 1132, jump @2389\n      : @1140 [@dyn 566] (gas: 1)\n 28650: jump @1142 if a1 <u a0\n      : @1141 (gas: 1)\n 28653: jump @2019\n      : @1142 (gas: 4)\n 28656: a0 = s1 + 0x1d40\n 28660: ra = 0x46e\n 28664: t0 = 0x8ba\n 28668: jump @2444\n      : @1143 [@dyn 567] (gas: 2)\n 28672: a0 = 0x2000\n 28676: t0 = 1136, jump @2393\n      : @1144 [@dyn 568] (gas: 10)\n 28683: a0 = u64 [a4 + 0x28]\n 28686: a1 = u64 [a4 + 0x30]\n 28689: a2 = u32 [a3 + 0x438]\n 28693: u64 [a3 + 1056] = 0\n 28697: u64 [a4 + 0x18] = a2\n 28700: u64 [a4 + 0x10] = a1\n 28703: a1 = s1 + 0x1d20\n 28707: u64 [a4 + 0x8] = a0\n 28710: a0 = 0\n 28712: ra = 1138, jump @19\n      : @1145 [@dyn 569] (gas: 3)\n 28718: t0 = 0x474\n 28722: a1 = s1 + 0x1918\n 28726: fallthrough\n      : @1146 [@dyn 570] (gas: 8)\n 28727: u64 [a1 + 1024] = 0\n 28731: u64 [a1 + 1016] = 0\n 28735: u64 [a1 + 1000] = 0xb\n 28740: a2 = a1\n 28742: a0 = 0x20\n 28745: a1 = s1 + 0x1d00\n 28749: u64 [a2 + 1008] = 0\n 28753: ra = 1142, jump @19\n      : @1147 [@dyn 571] (gas: 1)\n 28759: t0 = 1144, jump @2410\n      : @1148 [@dyn 572] (gas: 4)\n 28766: a2 = 0x2019c\n 28771: a0 = i32 [0x2019c]\n 28776: a1 = 0x3f\n 28779: jump @1150 if a1 <u a0\n      : @1149 (gas: 4)\n 28782: u32 [0x2019c] = 0x40\n 28788: u64 [s1 + 0x160] = a2\n 28792: t0 = 0x47a\n 28796: jump @2404\n      : @1150 (gas: 2)\n 28800: u64 [s1 + 0x160] = a2\n 28804: t0 = 1146, jump @2404\n      : @1151 [@dyn 573] (gas: 10)\n 28811: a0 = 0x201b0\n 28816: i32 a0 = a0 + 0\n 28818: i32 a2 = a2 + 0\n 28820: a1 = 0x40\n 28823: u64 [s1 + 0x158] = a0\n 28827: ra = 0x47c\n 28831: ecalli 7 // 'hash_keccak_256'\n 28833: a3 = u64 [s1 + 0x190]\n 28837: t0 = 0x47e\n 28841: jump @2336\n      : @1152 [@dyn 574] (gas: 2)\n 28845: a3 = u64 [s1 + 0x190]\n 28849: t0 = 1150, jump @2336\n      : @1153 [@dyn 575] (gas: 11)\n 28856: u64 [s1 + 0x138] = a3\n 28860: a1 = u64 [s1 + 0x198]\n 28864: u64 [a1 + 0x18] = a3\n 28867: u64 [s1 + 0x140] = a2\n 28871: u64 [a1 + 0x10] = a2\n 28874: u64 [s1 + 0x148] = a4\n 28878: u64 [a1 + 0x8] = a4\n 28881: u64 [s1 + 0x150] = a0\n 28885: u64 [a1] = a0\n 28887: a0 = s1 + 0x1ce0\n 28891: ra = 1152, jump @21\n      : @1154 [@dyn 576] (gas: 17)\n 28897: a4 = s1 + 0x1918\n 28901: a5 = a4 + 0x300\n 28905: a0 = u64 [a5 + 0xe0]\n 28909: a1 = u64 [a5 + 0xd8]\n 28913: a2 = u64 [a5 + 0xd0]\n 28917: a3 = u64 [a5 + 0xc8]\n 28921: u64 [s1 + 0xf8] = a0\n 28925: u64 [a5 + 0xa0] = a0\n 28929: u64 [s1 + 0xf0] = a1\n 28933: u64 [a5 + 0x98] = a1\n 28937: u64 [s1 + 0xe8] = a2\n 28941: u64 [a5 + 0x90] = a2\n 28945: a0 = s1 + 0x1cc0\n 28949: a1 = s1 + 0x1ca0\n 28953: u64 [s1 + 0xe0] = a3\n 28957: u64 [a5 + 0x88] = a3\n 28961: ra = 1154, jump @2232\n      : @1155 [@dyn 577] (gas: 3)\n 28968: t0 = 0x484\n 28972: a1 = s1 + 0x1918\n 28976: fallthrough\n      : @1156 [@dyn 578] (gas: 12)\n 28977: a2 = a1 + 0x300\n 28981: a0 = u64 [a2 + 0xa8]\n 28985: u64 [s1 + 0x180] = a0\n 28989: a0 = u64 [a2 + 0xb0]\n 28993: u64 [s1 + 0x178] = a0\n 28997: a0 = u64 [a2 + 0xb8]\n 29001: u64 [s1 + 0x170] = a0\n 29005: a0 = u64 [a2 + 0xc0]\n 29009: u64 [s1 + 0x168] = a0\n 29013: a0 = s1 + 0x1c80\n 29017: a1 = 0x40\n 29020: ra = 1158, jump @17\n      : @1157 [@dyn 579] (gas: 26)\n 29026: a0 = s1 + 0x1918\n 29030: a2 = u64 [a0 + 0x380]\n 29034: u64 [s1 + 0x198] = a2\n 29038: a1 = u64 [a0 + 0x378]\n 29042: u64 [s1 + 0x190] = a1\n 29046: a4 = u64 [a0 + 0x370]\n 29050: u64 [s1 + 0x188] = a4\n 29054: a5 = u64 [a0 + 0x368]\n 29058: u64 [s1 + 0xb0] = a5\n 29062: a3 = u64 [s1 + 0x168]\n 29066: u64 [a0 + 0x340] = a3\n 29070: a3 = u64 [s1 + 0x170]\n 29074: u64 [a0 + 0x338] = a3\n 29078: a3 = u64 [s1 + 0x178]\n 29082: u64 [a0 + 0x330] = a3\n 29086: a3 = u64 [s1 + 0x180]\n 29090: u64 [a0 + 0x328] = a3\n 29094: a3 = a0 + 0x300\n 29098: u64 [a3 + 0x60] = a2\n 29101: u64 [a3 + 0x58] = a1\n 29104: u64 [a3 + 0x50] = a4\n 29107: a2 = a0\n 29109: a0 = s1 + 0x1c60\n 29113: a1 = s1 + 0x1c40\n 29117: u64 [a2 + 0x348] = a5\n 29121: ra = 1160, jump @2177\n      : @1158 [@dyn 580] (gas: 2)\n 29127: a0 = u64 [s1 + 0xb0]\n 29131: t0 = 1162, jump @2407\n      : @1159 [@dyn 581] (gas: 1)\n 29138: jump @1161 if a1 == 0\n      : @1160 (gas: 1)\n 29141: jump @1912\n      : @1161 (gas: 12)\n 29144: a3 = s1 + 0x1918\n 29148: a1 = u64 [s1 + 0xe0]\n 29152: a4 = a3 + 0x300\n 29156: u64 [a4 + 0x8] = a1\n 29159: a1 = u64 [s1 + 0xe8]\n 29163: u64 [a4 + 0x10] = a1\n 29166: a1 = u64 [s1 + 0xf0]\n 29170: u64 [a4 + 0x18] = a1\n 29173: a1 = s1 + 0x1c20\n 29177: a2 = u64 [s1 + 0xf8]\n 29181: u64 [a4 + 0x20] = a2\n 29184: ra = 1164, jump @19\n      : @1162 [@dyn 582] (gas: 27)\n 29190: a1 = u64 [s1 + 0xb0]\n 29194: a0 = a1 + 0x20\n 29197: u64 [s1 + 0xd0] = a0\n 29201: a0 = a0 <u a1\n 29204: a2 = u64 [s1 + 0x188]\n 29208: a1 = a2 + a0\n 29211: u64 [s1 + 0xc8] = a1\n 29215: a1 = a1 <u a2\n 29218: a1 = a0 if a0 == 0\n 29221: a0 = u64 [s1 + 0x190]\n 29225: a1 = a1 + a0\n 29228: u64 [s1 + 0xc0] = a1\n 29232: a0 = a1 <u a0\n 29235: u64 [s1 + 0x190] = a0\n 29239: a0 = u64 [s1 + 0x138]\n 29243: a1 = s1 + 0x1918\n 29247: u64 [a1 + 0x300] = a0\n 29251: a0 = u64 [s1 + 0x140]\n 29255: u64 [a1 + 0x2f8] = a0\n 29259: a0 = u64 [s1 + 0x148]\n 29263: u64 [a1 + 0x2f0] = a0\n 29267: a2 = a1\n 29269: a1 = s1 + 0x1c00\n 29273: a0 = u64 [s1 + 0x150]\n 29277: u64 [a2 + 0x2e8] = a0\n 29281: a0 = 0\n 29283: ra = 1166, jump @19\n      : @1163 [@dyn 583] (gas: 7)\n 29289: a0 = sp + 0xffffffffffffffe0\n 29292: a0 = a0 & 0xffffffffffffffe0\n 29295: u64 [s1 + 0x128] = a0\n 29299: sp = a0\n 29301: a2 = u64 [s1 + 0x160]\n 29305: a0 = i32 [a2]\n 29307: jump @1165 if a0 >u 31\n      : @1164 (gas: 2)\n 29311: u32 [a2 + 0] = 0x20\n 29314: fallthrough\n      : @1165 (gas: 5)\n 29315: a0 = u64 [s1 + 0x198]\n 29319: a1 = u64 [s1 + 0x190]\n 29323: a0 = a0 + a1\n 29326: u64 [s1 + 0xb8] = a0\n 29330: t0 = 1168, jump @2435\n      : @1166 [@dyn 584] (gas: 38)\n 29337: a0 = u64 [s1 + 0x158]\n 29341: ecalli 7 // 'hash_keccak_256'\n 29343: a2 = 0\n 29345: a3 = 0\n 29347: a5 = 0\n 29349: t0 = 0\n 29351: a0 = u64 [s1 + 0x198]\n 29355: t2 = u64 [a0 + 0x18]\n 29358: a1 = u64 [a0 + 0x10]\n 29361: a4 = u64 [a0 + 0x8]\n 29364: t1 = u64 [a0]\n 29366: t2 = reverse t2\n 29368: ra = reverse a1\n 29370: a4 = reverse a4\n 29372: a1 = reverse t1\n 29374: a0 = u64 [s1 + 0x128]\n 29378: u64 [s1 + 0x180] = a1\n 29382: u64 [a0 + 0x18] = a1\n 29385: a1 = s1 + 0x100\n 29389: u64 [a1 + 0x90] = a4\n 29393: u64 [a0 + 0x10] = a4\n 29396: u64 [s1 + 0x170] = ra\n 29400: u64 [a0 + 0x8] = ra\n 29403: u64 [s1 + 0x178] = t2\n 29407: u64 [a0] = t2\n 29409: a0 = 0x100000000\n 29419: u64 [a1 + 0x30] = a0\n 29422: a0 = 0xffffffe0\n 29432: u64 [s1 + 0xd8] = a0\n 29436: a0 = u64 [s1 + 0xd0]\n 29440: u64 [a1 + 0x48] = a0\n 29443: a0 = u64 [s1 + 0xc8]\n 29447: u64 [a1 + 0x40] = a0\n 29450: a0 = u64 [s1 + 0xc0]\n 29454: u64 [a1 + 0x50] = a0\n 29457: a0 = u64 [s1 + 0xb8]\n 29461: u64 [a1 + 0x58] = a0\n 29464: fallthrough\n      : @1167 (gas: 23)\n 29465: a0 = u64 [s1 + 0xe0]\n 29469: u64 [s1 + 0x118] = a2\n 29473: a0 = a2 <u a0\n 29476: a2 = u64 [s1 + 0xe8]\n 29480: a1 = a3 ^ a2\n 29483: u64 [s1 + 0x110] = a3\n 29487: a2 = a3 <u a2\n 29490: a2 = a0 if a1 == 0\n 29493: a4 = u64 [s1 + 0xf0]\n 29497: a0 = a5 <u a4\n 29500: a3 = u64 [s1 + 0xf8]\n 29504: a1 = t0 ^ a3\n 29507: u64 [s1 + 0x108] = t0\n 29511: a3 = t0 <u a3\n 29514: a3 = a0 if a1 == 0\n 29517: u64 [s1 + 0x100] = a5\n 29521: a0 = a5 ^ a4\n 29524: a0 = a0 | a1\n 29527: a3 = a2 if a0 == 0\n 29530: u64 [s1 + 0x160] = a3\n 29534: a0 = s1 + 0x1be0\n 29538: a1 = 0x40\n 29541: ra = 1170, jump @17\n      : @1168 [@dyn 585] (gas: 14)\n 29547: ra = s1 + 0x1918\n 29551: t2 = u64 [ra + 0x2e0]\n 29555: a0 = ra + 0x200\n 29559: a1 = u64 [a0 + 0xd8]\n 29563: a3 = u64 [a0 + 0xc8]\n 29567: a5 = u64 [a0 + 0xd0]\n 29571: a0 = a3 | a1\n 29574: a4 = a5 | t2\n 29577: u64 [s1 + 0x198] = a3\n 29581: u64 [s1 + 0x188] = a5\n 29585: a2 = u64 [s1 + 0x160]\n 29589: u64 [s1 + 0x138] = t2\n 29593: u64 [s1 + 0x168] = a1\n 29597: jump @1170 if a2 != 0\n      : @1169 (gas: 1)\n 29600: jump @1586\n      : @1170 (gas: 9)\n 29603: a2 = ra\n 29605: u64 [a2 + 0x68] = a3\n 29608: u64 [a2 + 0x70] = a5\n 29611: u64 [a2 + 0x78] = a1\n 29614: u64 [s1 + 0x160] = a0\n 29618: a0 = s1 + 0x1980\n 29622: u64 [ra + 0x80] = t2\n 29626: u64 [s1 + 0x120] = a4\n 29630: ra = 1172, jump @2168\n      : @1171 [@dyn 586] (gas: 3)\n 29636: a0 = s1 + 0x1960\n 29640: a1 = u64 [s1 + 0x128]\n 29644: ra = 1174, jump @21\n      : @1172 [@dyn 587] (gas: 10)\n 29650: a3 = s1 + 0x100\n 29654: a0 = u64 [a3 + 0x60]\n 29657: a2 = u64 [a3 + 0x20]\n 29660: a0 = a0 | a2\n 29663: a0 = a0 >> 0x20\n 29666: a1 = u64 [a3 + 0x68]\n 29669: a1 = a1 | a2\n 29672: a1 = a1 << 0x20\n 29675: a0 = a0 | a1\n 29678: jump @1174 if a0 == 0\n      : @1173 (gas: 1)\n 29681: jump @1912\n      : @1174 (gas: 12)\n 29684: a4 = s1 + 0x1918\n 29688: a0 = u64 [a4 + 0x60]\n 29691: a1 = u64 [a4 + 0x58]\n 29694: a2 = u64 [a4 + 0x50]\n 29697: a3 = u64 [a4 + 0x48]\n 29700: u64 [a4 + 0x28] = a3\n 29703: u64 [a4 + 0x30] = a2\n 29706: u64 [a4 + 0x38] = a1\n 29709: a1 = s1 + 0x1940\n 29713: u64 [a4 + 0x40] = a0\n 29716: a0 = u64 [s1 + 0x198]\n 29720: ra = 1176, jump @19\n      : @1175 [@dyn 588] (gas: 1)\n 29726: t0 = 1178, jump @2352\n      : @1176 [@dyn 589] (gas: 8)\n 29733: a5 = a4 + 0x200\n 29737: u64 [a5 + 0x30] = a1\n 29740: u64 [a5 + 0x28] = a0\n 29743: u64 [a5 + 0x38] = a2\n 29746: u64 [a5 + 0x40] = a3\n 29749: a0 = s1 + 0x1920\n 29753: a1 = s1 + 0x4b40\n 29757: ra = 1180, jump @21\n      : @1177 [@dyn 590] (gas: 12)\n 29763: a3 = s1 + 0x100\n 29767: a0 = u64 [a3 + 0x38]\n 29770: a1 = u64 [a3 + 0x68]\n 29773: a1 = a1 | a0\n 29776: a0 = u64 [s1 + 0xd8]\n 29780: a5 = u64 [a3 + 0x98]\n 29784: a0 = a5 <u a0\n 29787: a2 = u64 [a3 + 0x88]\n 29791: a0 = 0 if a2 != 0\n 29793: u64 [a3 + 0x60] = a1\n 29796: a0 = 0 if a1 != 0\n 29798: jump @1179 if a0 != 0\n      : @1178 (gas: 1)\n 29801: jump @1912\n      : @1179 (gas: 13)\n 29804: a2 = s1 + 0x1918\n 29808: t0 = u64 [a2 + 0x20]\n 29811: a1 = u64 [a2 + 0x18]\n 29814: a3 = u64 [a2 + 0x10]\n 29817: a4 = u64 [a2 + 0x8]\n 29820: i32 a0 = a5 + 0x20\n 29823: a5 = s1 + 0x1118\n 29827: u64 [a5 + 0x7e8] = a4\n 29831: u64 [a5 + 0x7f0] = a3\n 29835: u64 [a5 + 0x7f8] = a1\n 29839: a1 = s1 + 0x1900\n 29843: u64 [a2] = t0\n 29845: ra = 1182, jump @19\n      : @1180 [@dyn 591] (gas: 1)\n 29851: t0 = 1184, jump @2353\n      : @1181 [@dyn 592] (gas: 8)\n 29858: a5 = a4 + 0x200\n 29862: u64 [a5 + 0x50] = a2\n 29865: u64 [a5 + 0x48] = a0\n 29868: u64 [a5 + 0x58] = a3\n 29871: u64 [a5 + 0x60] = a1\n 29874: a0 = s1 + 0x18e0\n 29878: a1 = s1 + 0x4b60\n 29882: ra = 1186, jump @21\n      : @1182 [@dyn 593] (gas: 5)\n 29888: a2 = s1 + 0x100\n 29892: a5 = u64 [a2 + 0x98]\n 29896: a0 = u64 [a2 + 0x30]\n 29899: a0 = a0 + 0xffffffffffffffc0\n 29902: t0 = 1188, jump @2412\n      : @1183 [@dyn 594] (gas: 1)\n 29909: jump @1185 if a0 != 0\n      : @1184 (gas: 1)\n 29912: jump @1912\n      : @1185 (gas: 13)\n 29915: a2 = s1 + 0x1118\n 29919: t0 = u64 [a2 + 0x7e0]\n 29923: a1 = u64 [a2 + 0x7d8]\n 29927: a3 = u64 [a2 + 0x7d0]\n 29931: a4 = u64 [a2 + 0x7c8]\n 29935: i32 a0 = a5 + 0x40\n 29938: a5 = a2 + 0x700\n 29942: u64 [a5 + 0xa8] = a4\n 29946: u64 [a5 + 0xb0] = a3\n 29950: u64 [a5 + 0xb8] = a1\n 29954: a1 = s1 + 0x18c0\n 29958: u64 [a2 + 0x7c0] = t0\n 29962: ra = 1190, jump @19\n      : @1186 [@dyn 595] (gas: 21)\n 29968: a1 = u64 [s1 + 0x178]\n 29972: a0 = a1 + 0x3\n 29975: a1 = a0 <u a1\n 29978: a3 = u64 [s1 + 0x170]\n 29982: a2 = a3 + a1\n 29985: a3 = a2 <u a3\n 29988: a3 = a1 if a1 == 0\n 29991: a1 = u64 [s1 + 0x190]\n 29995: a3 = a3 + a1\n 29998: a1 = a3 <u a1\n 30001: a4 = u64 [s1 + 0x180]\n 30005: a1 = a1 + a4\n 30008: a4 = s1 + 0x4918\n 30012: a5 = a4 + 0x200\n 30016: u64 [a5 + 0x70] = a2\n 30019: u64 [a5 + 0x68] = a0\n 30022: u64 [a5 + 0x78] = a3\n 30025: u64 [a5 + 0x80] = a1\n 30029: a0 = s1 + 0x18a0\n 30033: a1 = s1 + 0x4b80\n 30037: ra = 1192, jump @21\n      : @1187 [@dyn 596] (gas: 5)\n 30043: a2 = s1 + 0x100\n 30047: a5 = u64 [a2 + 0x98]\n 30051: a0 = u64 [a2 + 0x30]\n 30054: a0 = a0 + 0xffffffffffffffa0\n 30057: t0 = 1194, jump @2412\n      : @1188 [@dyn 597] (gas: 1)\n 30064: jump @1190 if a0 != 0\n      : @1189 (gas: 1)\n 30067: jump @1912\n      : @1190 (gas: 13)\n 30070: a2 = s1 + 0x1118\n 30074: t0 = u64 [a2 + 0x7a0]\n 30078: a1 = u64 [a2 + 0x798]\n 30082: a3 = u64 [a2 + 0x790]\n 30086: a4 = u64 [a2 + 0x788]\n 30090: i32 a0 = a5 + 0x60\n 30093: a5 = a2 + 0x700\n 30097: u64 [a5 + 0x68] = a4\n 30100: u64 [a5 + 0x70] = a3\n 30103: u64 [a5 + 0x78] = a1\n 30106: a1 = s1 + 0x1880\n 30110: u64 [a2 + 0x780] = t0\n 30114: ra = 1196, jump @19\n      : @1191 [@dyn 598] (gas: 22)\n 30120: a1 = u64 [s1 + 0x178]\n 30124: a0 = a1 + 0x4\n 30127: a1 = a0 <u a1\n 30130: a3 = u64 [s1 + 0x170]\n 30134: a2 = a3 + a1\n 30137: a3 = a2 <u a3\n 30140: a3 = a1 if a1 == 0\n 30143: a1 = u64 [s1 + 0x190]\n 30147: a3 = a3 + a1\n 30150: a1 = a3 <u a1\n 30153: a4 = u64 [s1 + 0x180]\n 30157: a4 = a4 + a1\n 30160: a1 = s1 + 0x1118\n 30164: a5 = a1 + 0x700\n 30168: u64 [a5 + 0x38] = a3\n 30171: u64 [a5 + 0x30] = a2\n 30174: u64 [a5 + 0x28] = a0\n 30177: a2 = a1\n 30179: a0 = s1 + 0x1860\n 30183: a1 = s1 + 0x1840\n 30187: u64 [a2 + 0x740] = a4\n 30191: ra = 1198, jump @2187\n      : @1192 [@dyn 599] (gas: 5)\n 30197: a2 = s1 + 0x100\n 30201: a5 = u64 [a2 + 0x98]\n 30205: a0 = u64 [a2 + 0x30]\n 30208: a0 = a0 + 0xffffffffffffff80\n 30211: t0 = 1200, jump @2412\n      : @1193 [@dyn 600] (gas: 1)\n 30218: jump @1195 if a0 != 0\n      : @1194 (gas: 1)\n 30221: jump @1912\n      : @1195 (gas: 13)\n 30224: a2 = s1 + 0x1118\n 30228: t0 = u64 [a2 + 0x760]\n 30232: a1 = u64 [a2 + 0x758]\n 30236: a3 = u64 [a2 + 0x750]\n 30240: a4 = u64 [a2 + 0x748]\n 30244: i32 a0 = a5 + 0x80\n 30248: a5 = a2 + 0x700\n 30252: u64 [a5 + 0x8] = a4\n 30255: u64 [a5 + 0x10] = a3\n 30258: u64 [a5 + 0x18] = a1\n 30261: a1 = s1 + 0x1820\n 30265: u64 [a2 + 0x720] = t0\n 30269: ra = 1202, jump @19\n      : @1196 [@dyn 601] (gas: 13)\n 30275: a1 = s1 + 0x100\n 30279: a3 = u64 [a1 + 0x50]\n 30282: a4 = u64 [a1 + 0x48]\n 30285: a0 = a4 | a3\n 30288: a2 = u64 [a1 + 0x58]\n 30291: a5 = u64 [a1 + 0x40]\n 30294: a1 = a5 | a2\n 30297: a0 = a0 | a1\n 30300: a0 = a0 >> 0x20\n 30303: a1 = a1 | a3\n 30306: a1 = a1 << 0x20\n 30309: a0 = a0 | a1\n 30312: jump @1198 if a0 == 0\n      : @1197 (gas: 1)\n 30315: jump @1912\n      : @1198 (gas: 17)\n 30318: t0 = s1 + 0x1118\n 30322: a0 = u64 [s1 + 0x198]\n 30326: a1 = t0 + 0x600\n 30330: u64 [a1 + 0xe8] = a0\n 30334: a0 = u64 [s1 + 0x188]\n 30338: u64 [a1 + 0xf0] = a0\n 30342: a0 = u64 [s1 + 0x168]\n 30346: u64 [a1 + 0xf8] = a0\n 30350: a1 = s1 + 0x1800\n 30354: a0 = u64 [s1 + 0x138]\n 30358: u64 [t0 + 0x700] = a0\n 30362: a0 = a4\n 30364: u64 [s1 + 0x158] = a2\n 30368: u64 [s1 + 0x150] = a3\n 30372: u64 [s1 + 0x148] = a4\n 30376: u64 [s1 + 0x140] = a5\n 30380: ra = 1204, jump @19\n      : @1199 [@dyn 602] (gas: 18)\n 30386: a1 = u64 [s1 + 0x148]\n 30390: a0 = a1 + 0x20\n 30393: u64 [s1 + 0x198] = a0\n 30397: a2 = a0 <u a1\n 30400: a1 = u64 [s1 + 0x140]\n 30404: a0 = a1 + a2\n 30407: u64 [s1 + 0x188] = a0\n 30411: a3 = a0 <u a1\n 30414: a3 = a2 if a2 == 0\n 30417: a0 = u64 [s1 + 0x150]\n 30421: t2 = a0 + a3\n 30424: a3 = t2 <u a0\n 30427: a0 = u64 [s1 + 0x158]\n 30431: a0 = a0 + a3\n 30434: u64 [s1 + 0x158] = a0\n 30438: a0 = u64 [s1 + 0x178]\n 30442: ra = a0 + 0x5\n 30445: t0 = 1206, jump @2345\n      : @1200 [@dyn 603] (gas: 19)\n 30452: t0 = u64 [s1 + 0x108]\n 30456: t0 = t0 + a1\n 30459: a1 = u64 [s1 + 0x128]\n 30463: u64 [a1 + 0x8] = t1\n 30466: u64 [a1] = ra\n 30468: u64 [a1 + 0x10] = a5\n 30471: u64 [s1 + 0x180] = a0\n 30475: u64 [a1 + 0x18] = a0\n 30478: a1 = s1 + 0x100\n 30482: a0 = u64 [a1 + 0x98]\n 30486: u64 [a1 + 0x48] = a0\n 30489: a0 = u64 [a1 + 0x88]\n 30493: u64 [a1 + 0x40] = a0\n 30496: u64 [s1 + 0x150] = t2\n 30500: u64 [s1 + 0x178] = ra\n 30504: u64 [s1 + 0x170] = t1\n 30508: u64 [a1 + 0x90] = a5\n 30512: a5 = a4\n 30514: jump @1167\n      : @1201 (gas: 11)\n 30517: u64 [a2 + 800] = 0\n 30521: u64 [a2 + 792] = 0\n 30525: u64 [a2 + 784] = 0\n 30529: u64 [a2 + 776] = 0\n 30533: a0 = s1 + 0x5000\n 30537: i32 a0 = a0 + 0xfffffffffffffc20\n 30541: ra = 0x4b8\n 30545: ecalli 14 // 'value_transferred'\n 30547: a0 = 0x5000\n 30551: t0 = 0x4ba\n 30555: jump @2439\n      : @1202 [@dyn 604] (gas: 2)\n 30559: a0 = 0x5000\n 30563: t0 = 1210, jump @2439\n      : @1203 [@dyn 605] (gas: 1)\n 30570: t0 = 1212, jump @2402\n      : @1204 [@dyn 606] (gas: 1)\n 30577: jump @1206 if a0 == 0\n      : @1205 (gas: 1)\n 30580: jump @2024\n      : @1206 (gas: 1)\n 30583: t0 = 1214, jump @2389\n      : @1207 [@dyn 607] (gas: 1)\n 30590: jump @1209 if a1 <u a0\n      : @1208 (gas: 1)\n 30593: jump @2020\n      : @1209 (gas: 4)\n 30596: a0 = s1 + 0x22c0\n 30600: ra = 0x4c0\n 30604: t0 = 0x8ba\n 30608: jump @2444\n      : @1210 [@dyn 608] (gas: 2)\n 30612: a0 = 0x2000\n 30616: t0 = 1218, jump @2395\n      : @1211 [@dyn 609] (gas: 10)\n 30623: a0 = u64 [a4 + 0xa8]\n 30627: a1 = u64 [a4 + 0xb0]\n 30631: a2 = u32 [a3 + 0x1b8]\n 30635: u64 [a3 + 416] = 0\n 30639: u64 [a4 + 0x98] = a2\n 30643: u64 [a4 + 0x90] = a1\n 30647: a1 = s1 + 0x22a0\n 30651: u64 [a4 + 0x88] = a0\n 30655: a0 = 0\n 30657: ra = 1220, jump @19\n      : @1212 [@dyn 610] (gas: 3)\n 30663: t0 = 0x4c6\n 30667: a1 = s1 + 0x2118\n 30671: fallthrough\n      : @1213 [@dyn 611] (gas: 8)\n 30672: u64 [a1 + 384] = 0\n 30676: u64 [a1 + 376] = 0\n 30680: u64 [a1 + 360] = 0xc\n 30685: a2 = a1\n 30687: a0 = 0x20\n 30690: a1 = s1 + 0x2280\n 30694: u64 [a2 + 368] = 0\n 30698: ra = 1224, jump @19\n      : @1214 [@dyn 612] (gas: 1)\n 30704: t0 = 1226, jump @2410\n      : @1215 [@dyn 613] (gas: 4)\n 30711: a2 = 0x2019c\n 30716: a0 = i32 [0x2019c]\n 30721: a1 = 0x3f\n 30724: jump @1217 if a1 <u a0\n      : @1216 (gas: 4)\n 30727: u32 [0x2019c] = 0x40\n 30733: u64 [s1 + 0x98] = a2\n 30737: t0 = 0x4cc\n 30741: jump @2404\n      : @1217 (gas: 2)\n 30745: u64 [s1 + 0x98] = a2\n 30749: t0 = 1228, jump @2404\n      : @1218 [@dyn 614] (gas: 10)\n 30756: a0 = 0x201b0\n 30761: i32 a0 = a0 + 0\n 30763: i32 a2 = a2 + 0\n 30765: a1 = 0x40\n 30768: u64 [s1 + 0x90] = a0\n 30772: ra = 0x4ce\n 30776: ecalli 7 // 'hash_keccak_256'\n 30778: a3 = u64 [s1 + 0x190]\n 30782: t0 = 0x4d0\n 30786: jump @2336\n      : @1219 [@dyn 615] (gas: 2)\n 30790: a3 = u64 [s1 + 0x190]\n 30794: t0 = 1232, jump @2336\n      : @1220 [@dyn 616] (gas: 11)\n 30801: u64 [s1 + 0x148] = a3\n 30805: a1 = u64 [s1 + 0x198]\n 30809: u64 [a1 + 0x18] = a3\n 30812: u64 [s1 + 0x150] = a2\n 30816: u64 [a1 + 0x10] = a2\n 30819: u64 [s1 + 0x158] = a4\n 30823: u64 [a1 + 0x8] = a4\n 30826: u64 [s1 + 0x160] = a0\n 30830: u64 [a1] = a0\n 30832: a0 = s1 + 0x2260\n 30836: ra = 1234, jump @21\n      : @1221 [@dyn 617] (gas: 17)\n 30842: a4 = s1 + 0x2118\n 30846: a5 = a4 + 0x100\n 30850: a0 = u64 [a5 + 0x60]\n 30853: a1 = u64 [a5 + 0x58]\n 30856: a2 = u64 [a5 + 0x50]\n 30859: a3 = u64 [a5 + 0x48]\n 30862: u64 [s1 + 0xf0] = a0\n 30866: u64 [a5 + 0x20] = a0\n 30869: u64 [s1 + 0xe8] = a1\n 30873: u64 [a5 + 0x18] = a1\n 30876: u64 [s1 + 0xe0] = a2\n 30880: u64 [a5 + 0x10] = a2\n 30883: a0 = s1 + 0x2240\n 30887: a1 = s1 + 0x2220\n 30891: u64 [s1 + 0xd8] = a3\n 30895: u64 [a5 + 0x8] = a3\n 30898: ra = 1236, jump @2232\n      : @1222 [@dyn 618] (gas: 3)\n 30904: t0 = 0x4d6\n 30908: a1 = s1 + 0x2118\n 30912: fallthrough\n      : @1223 [@dyn 619] (gas: 12)\n 30913: a2 = a1 + 0x100\n 30917: a0 = u64 [a2 + 0x28]\n 30920: u64 [s1 + 0x180] = a0\n 30924: a0 = u64 [a2 + 0x30]\n 30927: u64 [s1 + 0x178] = a0\n 30931: a0 = u64 [a2 + 0x38]\n 30934: u64 [s1 + 0x170] = a0\n 30938: a0 = u64 [a2 + 0x40]\n 30941: u64 [s1 + 0x168] = a0\n 30945: a0 = s1 + 0x2200\n 30949: a1 = 0x40\n 30952: ra = 1240, jump @17\n      : @1224 [@dyn 620] (gas: 25)\n 30958: a0 = s1 + 0x2118\n 30962: a2 = u64 [a0 + 0x100]\n 30966: u64 [s1 + 0x198] = a2\n 30970: a1 = u64 [a0 + 0xf8]\n 30974: u64 [s1 + 0x190] = a1\n 30978: a4 = u64 [a0 + 0xf0]\n 30982: u64 [s1 + 0x188] = a4\n 30986: a5 = u64 [a0 + 0xe8]\n 30990: u64 [s1 + 0xa0] = a5\n 30994: a3 = u64 [s1 + 0x168]\n 30998: u64 [a0 + 0xc0] = a3\n 31002: a3 = u64 [s1 + 0x170]\n 31006: u64 [a0 + 0xb8] = a3\n 31010: a3 = u64 [s1 + 0x178]\n 31014: u64 [a0 + 0xb0] = a3\n 31018: a3 = u64 [s1 + 0x180]\n 31022: u64 [a0 + 0xa8] = a3\n 31026: u64 [a0 + 0xe0] = a2\n 31030: u64 [a0 + 0xd8] = a1\n 31034: u64 [a0 + 0xd0] = a4\n 31038: a2 = a0\n 31040: a0 = s1 + 0x21e0\n 31044: a1 = s1 + 0x21c0\n 31048: u64 [a2 + 0xc8] = a5\n 31052: ra = 1242, jump @2177\n      : @1225 [@dyn 621] (gas: 2)\n 31058: a0 = u64 [s1 + 0xa0]\n 31062: t0 = 1244, jump @2407\n      : @1226 [@dyn 622] (gas: 1)\n 31069: jump @1228 if a1 == 0\n      : @1227 (gas: 1)\n 31072: jump @1912\n      : @1228 (gas: 11)\n 31075: a3 = s1 + 0x2118\n 31079: a1 = u64 [s1 + 0xd8]\n 31083: u64 [a3 + 0x88] = a1\n 31087: a1 = u64 [s1 + 0xe0]\n 31091: u64 [a3 + 0x90] = a1\n 31095: a1 = u64 [s1 + 0xe8]\n 31099: u64 [a3 + 0x98] = a1\n 31103: a1 = s1 + 0x21a0\n 31107: a2 = u64 [s1 + 0xf0]\n 31111: u64 [a3 + 0xa0] = a2\n 31115: ra = 1246, jump @19\n      : @1229 [@dyn 623] (gas: 27)\n 31121: a1 = u64 [s1 + 0xa0]\n 31125: a0 = a1 + 0x20\n 31128: u64 [s1 + 0xa8] = a0\n 31132: a0 = a0 <u a1\n 31135: a2 = u64 [s1 + 0x188]\n 31139: a1 = a2 + a0\n 31142: u64 [s1 + 0xc0] = a1\n 31146: a1 = a1 <u a2\n 31149: a1 = a0 if a0 == 0\n 31152: a0 = u64 [s1 + 0x190]\n 31156: a1 = a1 + a0\n 31159: u64 [s1 + 0xb8] = a1\n 31163: a0 = a1 <u a0\n 31166: u64 [s1 + 0x190] = a0\n 31170: a0 = u64 [s1 + 0x148]\n 31174: a1 = s1 + 0x2118\n 31178: u64 [a1 + 0x80] = a0\n 31182: a0 = u64 [s1 + 0x150]\n 31186: u64 [a1 + 0x78] = a0\n 31189: a0 = u64 [s1 + 0x158]\n 31193: u64 [a1 + 0x70] = a0\n 31196: a2 = a1\n 31198: a1 = s1 + 0x2180\n 31202: a0 = u64 [s1 + 0x160]\n 31206: u64 [a2 + 0x68] = a0\n 31209: a0 = 0\n 31211: ra = 1248, jump @19\n      : @1230 [@dyn 624] (gas: 7)\n 31217: a0 = sp + 0xffffffffffffffe0\n 31220: a0 = a0 & 0xffffffffffffffe0\n 31223: u64 [s1 + 0x138] = a0\n 31227: sp = a0\n 31229: a2 = u64 [s1 + 0x98]\n 31233: a0 = i32 [a2]\n 31235: jump @1232 if a0 >u 31\n      : @1231 (gas: 2)\n 31239: u32 [a2 + 0] = 0x20\n 31242: fallthrough\n      : @1232 (gas: 7)\n 31243: a0 = 0xffffffff\n 31253: u64 [s1 + 0xf8] = a0\n 31257: a0 = u64 [s1 + 0x198]\n 31261: a1 = u64 [s1 + 0x190]\n 31265: a0 = a0 + a1\n 31268: u64 [s1 + 0xb0] = a0\n 31272: t0 = 1250, jump @2435\n      : @1233 [@dyn 625] (gas: 38)\n 31279: a0 = u64 [s1 + 0x90]\n 31283: ecalli 7 // 'hash_keccak_256'\n 31285: a2 = 0\n 31287: a3 = 0\n 31289: a5 = 0\n 31291: t0 = 0\n 31293: a0 = u64 [s1 + 0x198]\n 31297: t2 = u64 [a0 + 0x18]\n 31300: a1 = u64 [a0 + 0x10]\n 31303: a4 = u64 [a0 + 0x8]\n 31306: t1 = u64 [a0]\n 31308: t2 = reverse t2\n 31310: ra = reverse a1\n 31312: a4 = reverse a4\n 31314: a1 = reverse t1\n 31316: a0 = u64 [s1 + 0x138]\n 31320: u64 [s1 + 0x180] = a1\n 31324: u64 [a0 + 0x18] = a1\n 31327: a1 = s1 + 0x100\n 31331: u64 [a1 + 0x90] = a4\n 31335: u64 [a0 + 0x10] = a4\n 31338: u64 [s1 + 0x170] = ra\n 31342: u64 [a0 + 0x8] = ra\n 31345: u64 [s1 + 0x178] = t2\n 31349: u64 [a0] = t2\n 31351: a0 = 0x100000000\n 31361: u64 [s1 + 0xc8] = a0\n 31365: a0 = 0xffffffe0\n 31375: u64 [s1 + 0xd0] = a0\n 31379: a0 = u64 [s1 + 0xa8]\n 31383: u64 [a1 + 0x58] = a0\n 31386: a0 = u64 [s1 + 0xc0]\n 31390: u64 [a1 + 0x50] = a0\n 31393: a0 = u64 [s1 + 0xb8]\n 31397: u64 [a1 + 0x60] = a0\n 31400: a0 = u64 [s1 + 0xb0]\n 31404: u64 [a1 + 0x68] = a0\n 31407: fallthrough\n      : @1234 (gas: 23)\n 31408: a0 = u64 [s1 + 0xd8]\n 31412: u64 [s1 + 0x118] = a2\n 31416: a0 = a2 <u a0\n 31419: a2 = u64 [s1 + 0xe0]\n 31423: a1 = a3 ^ a2\n 31426: u64 [s1 + 0x110] = a3\n 31430: a2 = a3 <u a2\n 31433: a2 = a0 if a1 == 0\n 31436: a4 = u64 [s1 + 0xe8]\n 31440: a0 = a5 <u a4\n 31443: a3 = u64 [s1 + 0xf0]\n 31447: a1 = t0 ^ a3\n 31450: u64 [s1 + 0x108] = t0\n 31454: a3 = t0 <u a3\n 31457: a3 = a0 if a1 == 0\n 31460: u64 [s1 + 0x100] = a5\n 31464: a0 = a5 ^ a4\n 31467: a0 = a0 | a1\n 31470: a3 = a2 if a0 == 0\n 31473: u64 [s1 + 0x140] = a3\n 31477: a0 = s1 + 0x2160\n 31481: a1 = 0x40\n 31484: ra = 1252, jump @17\n      : @1235 [@dyn 626] (gas: 13)\n 31490: a2 = s1 + 0x2118\n 31494: a4 = u64 [a2 + 0x60]\n 31497: t1 = u64 [a2 + 0x58]\n 31500: t0 = u64 [a2 + 0x48]\n 31503: a5 = u64 [a2 + 0x50]\n 31506: a0 = t0 | t1\n 31509: a1 = a5 | a4\n 31512: u64 [s1 + 0x188] = a5\n 31516: u64 [s1 + 0x148] = t1\n 31520: a3 = u64 [s1 + 0x140]\n 31524: u64 [s1 + 0x198] = t0\n 31528: u64 [s1 + 0x120] = a4\n 31532: jump @1237 if a3 != 0\n      : @1236 (gas: 1)\n 31535: jump @1553\n      : @1237 (gas: 14)\n 31538: a3 = s1 + 0x100\n 31542: u64 [a3 + 0x28] = a0\n 31545: u64 [a3 + 0x30] = a1\n 31548: a0 = a5 >u 0\n 31550: a1 = t0 <u 0xffffffffffffffa0\n 31553: a1 = a1 ^ 0x1\n 31556: a1 = a0 if a5 != 0\n 31559: a0 = t1 >u 0\n 31561: a2 = a4 >u 0\n 31563: a2 = a0 if a4 == 0\n 31566: a0 = t1 | a4\n 31569: u64 [a3 + 0x40] = a0\n 31572: a2 = a1 if a0 == 0\n 31575: jump @1239 if a2 == 0\n      : @1238 (gas: 1)\n 31578: jump @1913\n      : @1239 (gas: 17)\n 31581: a0 = t0 + 0x60\n 31584: a1 = a0 <u t0\n 31587: a2 = a5 + a1\n 31590: a3 = a2 <u a5\n 31593: a3 = a1 if a1 == 0\n 31596: a3 = a3 + t1\n 31599: a1 = a3 <u t1\n 31602: t1 = a4 + a1\n 31605: a4 = s1 + 0x1918\n 31609: a1 = a4 + 0x600\n 31613: u64 [a1 + 0xe8] = a0\n 31617: u64 [a1 + 0xf0] = a2\n 31621: u64 [a1 + 0xf8] = a3\n 31625: a0 = 0x40\n 31628: a1 = s1 + 0x2000\n 31632: u64 [a4 + 0x700] = t1\n 31636: ra = 1254, jump @19\n      : @1240 [@dyn 627] (gas: 3)\n 31642: a0 = s1 + 0x1fe0\n 31646: a1 = u64 [s1 + 0x138]\n 31650: ra = 1256, jump @21\n      : @1241 [@dyn 628] (gas: 10)\n 31656: a3 = s1 + 0x100\n 31660: a2 = u64 [a3 + 0x30]\n 31663: a0 = u64 [a3 + 0x28]\n 31666: a0 = a0 | a2\n 31669: a0 = a0 >> 0x20\n 31672: a1 = u64 [a3 + 0x48]\n 31675: a1 = a1 | a2\n 31678: a1 = a1 << 0x20\n 31681: a0 = a0 | a1\n 31684: jump @1243 if a0 == 0\n      : @1242 (gas: 1)\n 31687: jump @1912\n      : @1243 (gas: 16)\n 31690: a4 = s1 + 0x1918\n 31694: a5 = a4 + 0x600\n 31698: a0 = u64 [a5 + 0xd8]\n 31702: a1 = u64 [a5 + 0xd0]\n 31706: a2 = u64 [a5 + 0xc8]\n 31710: a3 = u64 [s1 + 0xf8]\n 31714: a0 = a0 & a3\n 31717: a1 = a1 & 0xffffffffffffffff\n 31720: a2 = a2 & 0xffffffffffffffff\n 31723: u64 [a4 + 1728] = 0\n 31727: u64 [a5 + 0xa8] = a2\n 31731: u64 [a5 + 0xb0] = a1\n 31735: a1 = s1 + 0x1fc0\n 31739: u64 [a5 + 0xb8] = a0\n 31743: a0 = u64 [s1 + 0x198]\n 31747: ra = 1258, jump @19\n      : @1244 [@dyn 629] (gas: 1)\n 31753: t0 = 1260, jump @2352\n      : @1245 [@dyn 630] (gas: 8)\n 31760: a5 = a4 + 0x300\n 31764: u64 [a5 + 0x30] = a1\n 31767: u64 [a5 + 0x28] = a0\n 31770: u64 [a5 + 0x38] = a2\n 31773: u64 [a5 + 0x40] = a3\n 31776: a0 = s1 + 0x1fa0\n 31780: a1 = s1 + 0x4c40\n 31784: ra = 1262, jump @21\n      : @1246 [@dyn 631] (gas: 9)\n 31790: a0 = u64 [s1 + 0xd0]\n 31794: a2 = s1 + 0x100\n 31798: a5 = u64 [a2 + 0x98]\n 31802: a0 = a5 <u a0\n 31805: a1 = u64 [a2 + 0x88]\n 31809: a0 = 0 if a1 != 0\n 31811: a1 = u64 [a2 + 0x40]\n 31814: a0 = 0 if a1 != 0\n 31816: jump @1248 if a0 != 0\n      : @1247 (gas: 1)\n 31819: jump @1912\n      : @1248 (gas: 13)\n 31822: a2 = s1 + 0x1918\n 31826: t0 = u64 [a2 + 0x6a0]\n 31830: a1 = u64 [a2 + 0x698]\n 31834: a3 = u64 [a2 + 0x690]\n 31838: a4 = u64 [a2 + 0x688]\n 31842: i32 a0 = a5 + 0x20\n 31845: a5 = a2 + 0x600\n 31849: u64 [a5 + 0x68] = a4\n 31852: u64 [a5 + 0x70] = a3\n 31855: u64 [a5 + 0x78] = a1\n 31858: a1 = s1 + 0x1f80\n 31862: u64 [a2 + 0x680] = t0\n 31866: ra = 1264, jump @19\n      : @1249 [@dyn 632] (gas: 1)\n 31872: t0 = 1266, jump @2353\n      : @1250 [@dyn 633] (gas: 8)\n 31879: a5 = a4 + 0x300\n 31883: u64 [a5 + 0x50] = a2\n 31886: u64 [a5 + 0x48] = a0\n 31889: u64 [a5 + 0x58] = a3\n 31892: u64 [a5 + 0x60] = a1\n 31895: a0 = s1 + 0x1f60\n 31899: a1 = s1 + 0x4c60\n 31903: ra = 1268, jump @21\n      : @1251 [@dyn 634] (gas: 10)\n 31909: a2 = s1 + 0x100\n 31913: a5 = u64 [a2 + 0x98]\n 31917: a0 = u64 [s1 + 0xc8]\n 31921: a0 = a0 + 0xffffffffffffffc0\n 31924: a0 = a5 <u a0\n 31927: a1 = u64 [a2 + 0x88]\n 31931: a0 = 0 if a1 != 0\n 31933: a1 = u64 [a2 + 0x40]\n 31936: a0 = 0 if a1 != 0\n 31938: jump @1253 if a0 != 0\n      : @1252 (gas: 1)\n 31941: jump @1912\n      : @1253 (gas: 13)\n 31944: a2 = s1 + 0x1918\n 31948: t0 = u64 [a2 + 0x660]\n 31952: a1 = u64 [a2 + 0x658]\n 31956: a3 = u64 [a2 + 0x650]\n 31960: a4 = u64 [a2 + 0x648]\n 31964: i32 a0 = a5 + 0x40\n 31967: a5 = a2 + 0x600\n 31971: u64 [a5 + 0x28] = a4\n 31974: u64 [a5 + 0x30] = a3\n 31977: u64 [a5 + 0x38] = a1\n 31980: a1 = s1 + 0x1f40\n 31984: u64 [a2 + 0x640] = t0\n 31988: ra = 1270, jump @19\n      : @1254 [@dyn 635] (gas: 13)\n 31994: a1 = s1 + 0x100\n 31998: a3 = u64 [a1 + 0x60]\n 32001: a4 = u64 [a1 + 0x58]\n 32004: a0 = a4 | a3\n 32007: a2 = u64 [a1 + 0x68]\n 32010: a5 = u64 [a1 + 0x50]\n 32013: a1 = a5 | a2\n 32016: a0 = a0 | a1\n 32019: a0 = a0 >> 0x20\n 32022: a1 = a1 | a3\n 32025: a1 = a1 << 0x20\n 32028: a0 = a0 | a1\n 32031: jump @1256 if a0 == 0\n      : @1255 (gas: 1)\n 32034: jump @1912\n      : @1256 (gas: 16)\n 32037: t0 = s1 + 0x1918\n 32041: a0 = u64 [s1 + 0x198]\n 32045: u64 [t0 + 0x608] = a0\n 32049: a0 = u64 [s1 + 0x188]\n 32053: u64 [t0 + 0x610] = a0\n 32057: a0 = u64 [s1 + 0x148]\n 32061: u64 [t0 + 0x618] = a0\n 32065: a1 = s1 + 0x1f20\n 32069: a0 = u64 [s1 + 0x120]\n 32073: u64 [t0 + 0x620] = a0\n 32077: a0 = a4\n 32079: u64 [s1 + 0x168] = a2\n 32083: u64 [s1 + 0x160] = a3\n 32087: u64 [s1 + 0x158] = a4\n 32091: u64 [s1 + 0x150] = a5\n 32095: ra = 1272, jump @19\n      : @1257 [@dyn 636] (gas: 18)\n 32101: a1 = u64 [s1 + 0x158]\n 32105: a0 = a1 + 0x20\n 32108: u64 [s1 + 0x198] = a0\n 32112: a2 = a0 <u a1\n 32115: a1 = u64 [s1 + 0x150]\n 32119: a0 = a1 + a2\n 32122: u64 [s1 + 0x188] = a0\n 32126: a3 = a0 <u a1\n 32129: a3 = a2 if a2 == 0\n 32132: a0 = u64 [s1 + 0x160]\n 32136: t2 = a0 + a3\n 32139: a3 = t2 <u a0\n 32142: a0 = u64 [s1 + 0x168]\n 32146: a0 = a0 + a3\n 32149: u64 [s1 + 0x168] = a0\n 32153: a0 = u64 [s1 + 0x178]\n 32157: ra = a0 + 0x3\n 32160: t0 = 1274, jump @2345\n      : @1258 [@dyn 637] (gas: 19)\n 32167: t0 = u64 [s1 + 0x108]\n 32171: t0 = t0 + a1\n 32174: a1 = u64 [s1 + 0x138]\n 32178: u64 [a1 + 0x8] = t1\n 32181: u64 [a1] = ra\n 32183: u64 [a1 + 0x10] = a5\n 32186: u64 [s1 + 0x180] = a0\n 32190: u64 [a1 + 0x18] = a0\n 32193: a1 = s1 + 0x100\n 32197: a0 = u64 [a1 + 0x98]\n 32201: u64 [a1 + 0x58] = a0\n 32204: a0 = u64 [a1 + 0x88]\n 32208: u64 [a1 + 0x50] = a0\n 32211: u64 [s1 + 0x160] = t2\n 32215: u64 [s1 + 0x178] = ra\n 32219: u64 [s1 + 0x170] = t1\n 32223: u64 [a1 + 0x90] = a5\n 32227: a5 = a4\n 32229: jump @1234\n      : @1259 (gas: 11)\n 32232: u64 [t0 + 1184] = 0\n 32236: a0 = u64 [s1 + 0x190]\n 32240: a2 = t0 + 0x400\n 32244: u64 [a2 + 0x88] = a0\n 32248: a0 = u64 [s1 + 0x198]\n 32252: u64 [a2 + 0x90] = a0\n 32256: a1 = s1 + 0x3da0\n 32260: a0 = u64 [s1 + 0x170]\n 32264: u64 [a2 + 0x98] = a0\n 32268: a0 = 0\n 32270: ra = 1276, jump @19\n      : @1260 [@dyn 638] (gas: 3)\n 32276: t0 = 0x4fe\n 32280: a1 = s1 + 0x3918\n 32284: fallthrough\n      : @1261 [@dyn 639] (gas: 8)\n 32285: u64 [a1 + 1152] = 0\n 32289: u64 [a1 + 1144] = 0\n 32293: u64 [a1 + 1128] = 0xe\n 32298: a2 = a1\n 32300: a0 = 0x20\n 32303: a1 = s1 + 0x3d80\n 32307: u64 [a2 + 1136] = 0\n 32311: ra = 1280, jump @19\n      : @1262 [@dyn 640] (gas: 7)\n 32317: a0 = sp + 0xffffffffffffffe0\n 32320: a0 = a0 & 0xffffffffffffffe0\n 32323: u64 [s1 + 0x128] = a0\n 32327: sp = a0\n 32329: a1 = u64 [s1 + 0x178]\n 32333: a0 = i32 [a1]\n 32335: jump @1264 if a0 >u 63\n      : @1263 (gas: 2)\n 32339: u32 [a1 + 0] = 0x40\n 32342: fallthrough\n      : @1264 (gas: 4)\n 32343: a0 = sp + 0xffffffffffffffe0\n 32346: a0 = a0 & 0xffffffffffffffe0\n 32349: u64 [s1 + 0x120] = a0\n 32353: t0 = 1282, jump @2370\n      : @1265 [@dyn 641] (gas: 5)\n 32360: ra = 0x504\n 32364: ecalli 7 // 'hash_keccak_256'\n 32366: a3 = u64 [s1 + 0x120]\n 32370: t0 = 0x506\n 32374: jump @2336\n      : @1266 [@dyn 642] (gas: 2)\n 32378: a3 = u64 [s1 + 0x120]\n 32382: t0 = 1286, jump @2336\n      : @1267 [@dyn 643] (gas: 7)\n 32389: a1 = u64 [s1 + 0x128]\n 32393: u64 [a1 + 0x18] = a3\n 32396: u64 [a1 + 0x10] = a2\n 32399: u64 [a1 + 0x8] = a4\n 32402: u64 [a1] = a0\n 32404: a0 = s1 + 0x3d60\n 32408: ra = 1288, jump @21\n      : @1268 [@dyn 644] (gas: 22)\n 32414: a5 = s1 + 0x3918\n 32418: a3 = u64 [a5 + 0x448]\n 32422: a0 = u64 [a5 + 0x450]\n 32426: a1 = u64 [a5 + 0x458]\n 32430: a2 = u64 [a5 + 0x460]\n 32434: a4 = u64 [s1 + 0x150]\n 32438: u64 [a5 + 0x400] = a4\n 32442: a4 = u64 [s1 + 0x158]\n 32446: u64 [a5 + 0x3f8] = a4\n 32450: a4 = u64 [s1 + 0x160]\n 32454: u64 [a5 + 0x3f0] = a4\n 32458: a4 = u64 [s1 + 0x148]\n 32462: u64 [a5 + 0x3e8] = a4\n 32466: a4 = a5 + 0x400\n 32470: u64 [a4 + 0x20] = a2\n 32473: u64 [a4 + 0x18] = a1\n 32476: u64 [a4 + 0x10] = a0\n 32479: a0 = s1 + 0x3d40\n 32483: a1 = s1 + 0x3d20\n 32487: a2 = s1 + 0x3d00\n 32491: u64 [a4 + 0x8] = a3\n 32494: ra = 1290, jump @2240\n      : @1269 [@dyn 645] (gas: 2)\n 32500: a0 = 0x4000\n 32504: t0 = 1292, jump @2393\n      : @1270 [@dyn 646] (gas: 13)\n 32511: a0 = u64 [a4 + 0x40]\n 32514: a1 = u64 [a4 + 0x38]\n 32517: a2 = u64 [a4 + 0x30]\n 32520: a3 = u64 [a4 + 0x28]\n 32523: a4 = s1 + 0x5118\n 32527: a5 = a4 + 0x200\n 32531: u64 [a5 + 0x40] = a0\n 32534: u64 [a5 + 0x38] = a1\n 32537: u64 [a5 + 0x30] = a2\n 32540: u64 [a5 + 0x28] = a3\n 32543: a1 = s1 + 0x5340\n 32547: a0 = u64 [s1 + 0x128]\n 32551: ra = 1294, jump @25\n      : @1271 [@dyn 647] (gas: 7)\n 32557: a0 = 0x301b0\n 32562: u64 [s1 + 0x160] = a0\n 32566: i32 a0 = a0 + 0\n 32568: u64 [s1 + 0x128] = a0\n 32572: ra = 0x510\n 32576: ecalli 4 // 'caller'\n 32578: fallthrough\n      : @1272 [@dyn 648] (gas: 5)\n 32579: a2 = u64 [s1 + 0x160]\n 32583: a0 = u64 [a2 + 0x8]\n 32586: a1 = i32 [a2 + 0x10]\n 32589: a2 = u64 [a2]\n 32591: t0 = 1298, jump @2342\n      : @1273 [@dyn 649] (gas: 9)\n 32598: a2 = s1 + 0x3918\n 32602: u64 [a2 + 992] = 0\n 32606: a4 = a2 + 0x300\n 32610: u64 [a4 + 0xd8] = a1\n 32614: u64 [a4 + 0xd0] = a0\n 32618: a1 = s1 + 0x3ce0\n 32622: u64 [a4 + 0xc8] = a3\n 32626: a0 = 0\n 32628: ra = 1300, jump @19\n      : @1274 [@dyn 650] (gas: 3)\n 32634: t0 = 0x516\n 32638: a1 = s1 + 0x3918\n 32642: fallthrough\n      : @1275 [@dyn 651] (gas: 8)\n 32643: u64 [a1 + 960] = 0\n 32647: u64 [a1 + 952] = 0\n 32651: u64 [a1 + 936] = 0x10\n 32656: a2 = a1\n 32658: a0 = 0x20\n 32661: a1 = s1 + 0x3cc0\n 32665: u64 [a2 + 944] = 0\n 32669: ra = 1304, jump @19\n      : @1276 [@dyn 652] (gas: 7)\n 32675: a1 = u64 [s1 + 0x178]\n 32679: a0 = sp + 0xffffffffffffffe0\n 32682: a0 = a0 & 0xffffffffffffffe0\n 32685: u64 [s1 + 0x158] = a0\n 32689: sp = a0\n 32691: a0 = i32 [a1]\n 32693: jump @1278 if a0 >u 63\n      : @1277 (gas: 2)\n 32697: u32 [a1 + 0] = 0x40\n 32700: fallthrough\n      : @1278 (gas: 4)\n 32701: a0 = sp + 0xffffffffffffffe0\n 32704: a0 = a0 & 0xffffffffffffffe0\n 32707: u64 [s1 + 0x178] = a0\n 32711: t0 = 1306, jump @2370\n      : @1279 [@dyn 653] (gas: 5)\n 32718: ra = 0x51c\n 32722: ecalli 7 // 'hash_keccak_256'\n 32724: a3 = u64 [s1 + 0x178]\n 32728: t0 = 0x51e\n 32732: jump @2336\n      : @1280 [@dyn 654] (gas: 2)\n 32736: a3 = u64 [s1 + 0x178]\n 32740: t0 = 1310, jump @2336\n      : @1281 [@dyn 655] (gas: 7)\n 32747: a1 = u64 [s1 + 0x158]\n 32751: u64 [a1 + 0x18] = a3\n 32754: u64 [a1 + 0x10] = a2\n 32757: u64 [a1 + 0x8] = a4\n 32760: u64 [a1] = a0\n 32762: a0 = s1 + 0x3ca0\n 32766: ra = 1312, jump @21\n      : @1282 [@dyn 656] (gas: 22)\n 32772: a4 = s1 + 0x3918\n 32776: a3 = u64 [a4 + 0x388]\n 32780: a0 = u64 [a4 + 0x390]\n 32784: a1 = u64 [a4 + 0x398]\n 32788: a2 = u64 [a4 + 0x3a0]\n 32792: a5 = u64 [s1 + 0x138]\n 32796: u64 [a4 + 0x340] = a5\n 32800: a5 = u64 [s1 + 0x140]\n 32804: u64 [a4 + 0x338] = a5\n 32808: a5 = u64 [s1 + 0x130]\n 32812: u64 [a4 + 0x330] = a5\n 32816: a5 = u64 [s1 + 0x188]\n 32820: u64 [a4 + 0x328] = a5\n 32824: a5 = a4 + 0x300\n 32828: u64 [a5 + 0x60] = a2\n 32831: u64 [a5 + 0x58] = a1\n 32834: u64 [a5 + 0x50] = a0\n 32837: a0 = s1 + 0x3c80\n 32841: a1 = s1 + 0x3c60\n 32845: a2 = s1 + 0x3c40\n 32849: u64 [a5 + 0x48] = a3\n 32852: ra = 1314, jump @2240\n      : @1283 [@dyn 657] (gas: 2)\n 32858: a0 = 0x4000\n 32862: t0 = 1316, jump @2439\n      : @1284 [@dyn 658] (gas: 13)\n 32869: a0 = u64 [a4 + 0x80]\n 32873: a1 = u64 [a4 + 0x78]\n 32876: a2 = u64 [a4 + 0x70]\n 32879: a3 = u64 [a4 + 0x68]\n 32882: a4 = s1 + 0x5118\n 32886: a5 = a4 + 0x200\n 32890: u64 [a5 + 0x60] = a0\n 32893: u64 [a5 + 0x58] = a1\n 32896: u64 [a5 + 0x50] = a2\n 32899: u64 [a5 + 0x48] = a3\n 32902: a1 = s1 + 0x5360\n 32906: a0 = u64 [s1 + 0x158]\n 32910: ra = 1318, jump @25\n      : @1285 [@dyn 659] (gas: 8)\n 32916: a0 = s1 + 0x5118\n 32920: u64 [a0 + 640] = 0\n 32924: u64 [a0 + 632] = 0\n 32928: u64 [a0 + 624] = 0\n 32932: u64 [a0 + 616] = 0x9\n 32937: a0 = s1 + 0x3c20\n 32941: a1 = s1 + 0x5380\n 32945: ra = 1320, jump @21\n      : @1286 [@dyn 660] (gas: 23)\n 32951: a4 = s1 + 0x3918\n 32955: a5 = a4 + 0x300\n 32959: a3 = u64 [a5 + 0x8]\n 32962: a0 = u64 [a5 + 0x10]\n 32965: a1 = u64 [a5 + 0x18]\n 32968: a2 = u64 [a5 + 0x20]\n 32971: a5 = u64 [s1 + 0x138]\n 32975: u64 [a4 + 0x2c0] = a5\n 32979: a5 = u64 [s1 + 0x140]\n 32983: u64 [a4 + 0x2b8] = a5\n 32987: a5 = u64 [s1 + 0x130]\n 32991: u64 [a4 + 0x2b0] = a5\n 32995: a5 = u64 [s1 + 0x188]\n 32999: u64 [a4 + 0x2a8] = a5\n 33003: a5 = a4 + 0x200\n 33007: u64 [a5 + 0xe0] = a2\n 33011: u64 [a5 + 0xd8] = a1\n 33015: u64 [a5 + 0xd0] = a0\n 33019: a0 = s1 + 0x3c00\n 33023: a1 = s1 + 0x3be0\n 33027: a2 = s1 + 0x3bc0\n 33031: u64 [a5 + 0xc8] = a3\n 33035: ra = 1322, jump @2240\n      : @1287 [@dyn 661] (gas: 2)\n 33041: a0 = 0x4000\n 33045: t0 = 1324, jump @2440\n      : @1288 [@dyn 662] (gas: 17)\n 33052: a0 = u64 [a4 + 0xe8]\n 33056: a1 = u64 [a4 + 0xf0]\n 33060: a2 = u64 [a4 + 0xf8]\n 33064: a3 = u64 [a3 + 0x300]\n 33068: a4 = s1 + 0x5118\n 33072: u64 [a4 + 672] = 0\n 33076: u64 [a4 + 664] = 0\n 33080: u64 [a4 + 656] = 0\n 33084: u64 [a4 + 648] = 0x9\n 33089: a5 = a4 + 0x200\n 33093: u64 [a5 + 0xc0] = a3\n 33097: u64 [a5 + 0xb8] = a2\n 33101: u64 [a5 + 0xb0] = a1\n 33105: u64 [a5 + 0xa8] = a0\n 33109: a0 = s1 + 0x53a0\n 33113: a1 = s1 + 0x53c0\n 33117: ra = 1326, jump @25\n      : @1289 [@dyn 663] (gas: 69)\n 33123: a0 = s1 + 0x5118\n 33127: u64 [a0 + 736] = 0\n 33131: u64 [a0 + 728] = 0\n 33135: u64 [a0 + 720] = 0\n 33139: u64 [a0 + 712] = 0\n 33143: a0 = s1 + 0x5000\n 33147: i32 a0 = a0 + 0x3e0\n 33151: ecalli 14 // 'value_transferred'\n 33153: a0 = s1 + 0x5118\n 33157: u64 [a0 + 768] = 0\n 33161: u64 [a0 + 760] = 0\n 33165: u64 [a0 + 752] = 0\n 33169: u64 [a0 + 744] = 0\n 33173: a0 = s1 + 0x5000\n 33177: i32 a0 = a0 + 0x400\n 33181: ecalli 14 // 'value_transferred'\n 33183: a0 = u64 [s1 + 0x198]\n 33187: a0 = reverse a0\n 33189: a1 = a0 << 0x20\n 33192: a2 = u64 [s1 + 0x168]\n 33196: a2 = reverse a2\n 33198: a2 = a2 >> 0x20\n 33201: a1 = a1 | a2\n 33204: a2 = u64 [s1 + 0x190]\n 33208: a2 = reverse a2\n 33210: a3 = a2 << 0x20\n 33213: a0 = a0 >> 0x20\n 33216: a0 = a0 | a3\n 33219: a4 = s1 + 0x5118\n 33223: a3 = u64 [a4 + 0x2f0]\n 33227: a5 = u64 [s1 + 0x160]\n 33231: u64 [a5 + 0x8] = a0\n 33234: a0 = u64 [a4 + 0x2f8]\n 33238: u64 [a5] = a1\n 33240: a1 = u64 [a4 + 0x300]\n 33244: a2 = a2 >> 0x20\n 33247: u32 [a5 + 0x10] = a2\n 33250: a2 = u64 [a4 + 0x2e8]\n 33254: u64 [a4 + 0x320] = a1\n 33258: a1 = a4 + 0x300\n 33262: u64 [a1 + 0x18] = a0\n 33265: u64 [a1 + 0x10] = a3\n 33268: u64 [a1 + 0x8] = a2\n 33271: u32 [a4 + 808] = 0\n 33275: u64 [a4 + 864] = 0\n 33279: u64 [a4 + 856] = 0\n 33283: u64 [a4 + 848] = 0\n 33287: u64 [a4 + 840] = 0\n 33291: a0 = a5 << 0x20\n 33294: a0 = a0 >> 0x20\n 33297: a1 = s1 + 0x5420\n 33301: a1 = a1 << 0x20\n 33304: a1 = a1 >> 0x20\n 33307: a2 = s1 + 0x5460\n 33311: a2 = a2 << 0x20\n 33314: a3 = a2 | a1\n 33317: a4 = u64 [s1 + 0x100]\n 33321: a4 = a4 << 0x20\n 33324: a4 = a4 >> 0x20\n 33327: a1 = s1 + 0x5440\n 33331: a1 = a1 << 0x20\n 33334: a5 = a1 | a4\n 33337: a1 = 0xffffffffffffffff\n 33340: a2 = 0xffffffffffffffff\n 33343: ecalli 0 // 'call'\n 33344: u64 [s1 + 0x148] = a0\n 33348: a0 = s1 + 0x3ba0\n 33352: a1 = 0x40\n 33355: ra = 1328, jump @17\n      : @1290 [@dyn 664] (gas: 2)\n 33362: a1 = s1 + 0x3918\n 33366: fallthrough\n      : @1291 (gas: 12)\n 33367: a2 = a1 + 0x200\n 33371: a0 = u64 [a2 + 0xa0]\n 33375: a1 = s1 + 0x100\n 33379: u64 [a1 + 0x58] = a0\n 33382: a0 = u64 [a2 + 0x98]\n 33386: u64 [a1 + 0x68] = a0\n 33389: a0 = u64 [a2 + 0x90]\n 33393: u64 [a1 + 0x78] = a0\n 33396: a0 = u64 [a2 + 0x88]\n 33400: u64 [a1 + 0x50] = a0\n 33403: a0 = u64 [a1 + 0x48]\n 33406: jump @1355 if a0 != 0\n      : @1292 (gas: 16)\n 33410: a0 = u64 [s1 + 0x128]\n 33414: ecalli 4 // 'caller'\n 33416: a1 = u64 [s1 + 0x160]\n 33420: a0 = u32 [a1 + 0x10]\n 33423: u64 [s1 + 0x110] = a0\n 33427: a0 = u64 [a1 + 0x8]\n 33430: u64 [s1 + 0x108] = a0\n 33434: a0 = u64 [a1]\n 33436: u64 [s1 + 0x118] = a0\n 33440: a0 = s1 + 0x5000\n 33444: i32 a0 = a0 + 0x4a0\n 33448: ra = 0x532\n 33452: ecalli 8 // 'now'\n 33454: a0 = 0x5000\n 33458: t0 = 0x534\n 33462: jump @2396\n      : @1293 [@dyn 665] (gas: 2)\n 33466: a0 = 0x5000\n 33470: t0 = 1332, jump @2396\n      : @1294 [@dyn 666] (gas: 16)\n 33477: a0 = u64 [a2 + 0x88]\n 33481: u64 [s1 + 0x160] = a0\n 33485: a0 = u64 [a2 + 0x90]\n 33489: u64 [s1 + 0x148] = a0\n 33493: a0 = u64 [a2 + 0x98]\n 33497: u64 [s1 + 0x128] = a0\n 33501: a0 = u64 [a2 + 0xa0]\n 33505: u64 [s1 + 0x120] = a0\n 33509: a0 = s1 + 0x5000\n 33513: i32 a0 = a0 + 0x4c0\n 33517: a1 = 0x44\n 33520: ra = 0x536\n 33524: ecalli 2 // 'call_data_load'\n 33526: a0 = 0x5000\n 33530: t0 = 0x538\n 33534: jump @2415\n      : @1295 [@dyn 667] (gas: 2)\n 33538: a0 = 0x5000\n 33542: t0 = 1336, jump @2415\n      : @1296 [@dyn 668] (gas: 41)\n 33549: a0 = u64 [a4 + 0xa8]\n 33553: a1 = u64 [a4 + 0xb0]\n 33557: a2 = u64 [a4 + 0xb8]\n 33561: a3 = u64 [a4 + 0xc0]\n 33565: a4 = s1 + 0x3918\n 33569: a5 = u64 [s1 + 0x120]\n 33573: u64 [a4 + 0x200] = a5\n 33577: a5 = u64 [s1 + 0x128]\n 33581: u64 [a4 + 0x1f8] = a5\n 33585: a5 = u64 [s1 + 0x148]\n 33589: u64 [a4 + 0x1f0] = a5\n 33593: a5 = u64 [s1 + 0x160]\n 33597: u64 [a4 + 0x1e8] = a5\n 33601: a5 = a4 + 0x200\n 33605: u64 [a5 + 0x20] = a3\n 33608: u64 [a5 + 0x18] = a2\n 33611: u64 [a5 + 0x10] = a1\n 33614: u64 [a5 + 0x8] = a0\n 33617: a0 = u64 [s1 + 0x138]\n 33621: u64 [a5 + 0x40] = a0\n 33624: a0 = u64 [s1 + 0x140]\n 33628: u64 [a5 + 0x38] = a0\n 33631: a0 = u64 [s1 + 0x130]\n 33635: u64 [a5 + 0x30] = a0\n 33638: a0 = u64 [s1 + 0x188]\n 33642: u64 [a5 + 0x28] = a0\n 33645: a0 = u64 [s1 + 0x158]\n 33649: u64 [a5 + 0x60] = a0\n 33652: a0 = u64 [s1 + 0x168]\n 33656: u64 [a5 + 0x58] = a0\n 33659: a0 = u64 [s1 + 0x178]\n 33663: u64 [a5 + 0x50] = a0\n 33666: t0 = a4\n 33668: a0 = s1 + 0x3b80\n 33672: a1 = s1 + 0x3b60\n 33676: a2 = s1 + 0x3b40\n 33680: a3 = s1 + 0x3b20\n 33684: a4 = s1 + 0x3b00\n 33688: a5 = u64 [s1 + 0x150]\n 33692: u64 [t0 + 0x248] = a5\n 33696: ra = 1338, jump @2208\n      : @1297 [@dyn 669] (gas: 13)\n 33702: a5 = s1 + 0x100\n 33706: a2 = u64 [a5 + 0x68]\n 33709: a4 = u64 [a5 + 0x50]\n 33712: a0 = a4 | a2\n 33715: a1 = u64 [a5 + 0x58]\n 33718: a3 = u64 [a5 + 0x78]\n 33721: a1 = a1 | a3\n 33724: a0 = a0 | a1\n 33727: a0 = a0 >> 0x20\n 33730: a1 = a1 | a2\n 33733: a1 = a1 << 0x20\n 33736: a0 = a0 | a1\n 33739: jump @1299 if a0 == 0\n      : @1298 (gas: 1)\n 33742: jump @1912\n      : @1299 (gas: 38)\n 33745: t0 = s1 + 0x3918\n 33749: a2 = t0 + 0x200\n 33753: a0 = u64 [a2 + 0x70]\n 33756: a1 = u64 [a2 + 0x80]\n 33760: u64 [s1 + 0x188] = a1\n 33764: t1 = u64 [t0 + 0x268]\n 33768: a3 = u64 [a2 + 0x78]\n 33771: a2 = u64 [s1 + 0x178]\n 33775: t0 = a0 ^ a2\n 33778: a5 = a0 <u a2\n 33781: a1 = t1 <u a4\n 33784: a5 = a1 if t0 == 0\n 33787: t0 = a4\n 33789: t2 = u64 [s1 + 0x168]\n 33793: a4 = a3 - t2\n 33796: ra = a4 - a5\n 33799: a4 = a4 <u a5\n 33802: u64 [s1 + 0x160] = a4\n 33806: a3 = a3 <u t2\n 33809: t2 = t0\n 33811: a5 = u64 [s1 + 0x158]\n 33815: a4 = u64 [s1 + 0x188]\n 33819: a5 = a4 - a5\n 33822: a5 = a5 - a3\n 33825: a3 = u64 [s1 + 0x160]\n 33829: a5 = a5 - a3\n 33832: a0 = a0 - a2\n 33835: a0 = a0 - a1\n 33838: a1 = t1 - t0\n 33841: a0 = a0 | a5\n 33844: a3 = a1 | ra\n 33847: a3 = a3 | a0\n 33850: a0 = a0 | ra\n 33853: a3 = a3 >> 0x20\n 33856: a0 = a0 << 0x20\n 33859: a0 = a0 | a3\n 33862: t0 = s1 + 0x3918\n 33866: jump @1301 if a0 == 0\n      : @1300 (gas: 1)\n 33869: jump @1912\n      : @1301 (gas: 38)\n 33872: a0 = u64 [s1 + 0x108]\n 33876: a2 = reverse a0\n 33878: a0 = a2 << 0x20\n 33881: a3 = u64 [s1 + 0x110]\n 33885: a3 = reverse a3\n 33887: a3 = a3 >> 0x20\n 33890: t1 = a3 | a0\n 33893: a0 = u64 [s1 + 0x118]\n 33897: a3 = reverse a0\n 33899: a4 = a3 << 0x20\n 33902: a2 = a2 >> 0x20\n 33905: a2 = a2 | a4\n 33908: a3 = a3 >> 0x20\n 33911: a4 = u64 [0x20050]\n 33916: a5 = u64 [0x20058]\n 33921: a0 = u64 [s1 + 0x190]\n 33925: u64 [t0 + 0x1a8] = a0\n 33929: a0 = u64 [s1 + 0x198]\n 33933: u64 [t0 + 0x1b0] = a0\n 33937: u64 [t0 + 0x1e0] = a4\n 33941: u64 [t0 + 0x1d8] = a5\n 33945: a4 = u64 [0x20060]\n 33950: a5 = u64 [0x20068]\n 33955: u64 [t0 + 416] = 0\n 33959: u64 [t0 + 448] = 0\n 33963: u64 [t0 + 0x1d0] = a4\n 33967: a4 = t0 + 0x100\n 33971: u64 [a4 + 0xc8] = a5\n 33975: u64 [a4 + 0x98] = a3\n 33979: a0 = u64 [s1 + 0x170]\n 33983: u64 [a4 + 0xb8] = a0\n 33987: u64 [a4 + 0x90] = a2\n 33991: a2 = s1 + 0x3ae0\n 33995: a3 = s1 + 0x3ac0\n 33999: a4 = s1 + 0x3aa0\n 34003: u64 [t0 + 0x188] = t1\n 34007: a0 = t2\n 34009: ra = 1340, jump @28\n      : @1302 [@dyn 670] (gas: 5)\n 34016: a0 = 0\n 34018: a1 = u64 [s1 + 0x180]\n 34022: a2 = 0\n 34024: ecalli 11 // 'seal_return'\n 34026: jump @2057\n      : @1303 (gas: 14)\n 34029: a5 = u64 [s1 + 0x100]\n 34033: a0 = a5 >u 0\n 34035: t0 = u64 [s1 + 0xf8]\n 34039: a1 = t0 <u 0xa\n 34042: a2 = a1 ^ 0x1\n 34045: a2 = a0 if a5 != 0\n 34048: a4 = u64 [s1 + 0xe8]\n 34052: a0 = a4 >u 0\n 34054: t1 = u64 [s1 + 0xf0]\n 34058: a3 = t1 >u 0\n 34060: a3 = a0 if t1 == 0\n 34063: a1 = a4 | t1\n 34066: a3 = a2 if a1 == 0\n 34069: jump @1305 if a3 == 0\n      : @1304 (gas: 1)\n 34072: jump @1478\n      : @1305 (gas: 3)\n 34075: a0 = s1 + 0x29e0\n 34079: a1 = 0x40\n 34082: ra = 1342, jump @17\n      : @1306 [@dyn 671] (gas: 13)\n 34089: a2 = s1 + 0x2918\n 34093: t0 = u64 [a2 + 0xe0]\n 34097: a5 = u64 [a2 + 0xd8]\n 34101: a4 = u64 [a2 + 0xd0]\n 34105: a0 = u64 [a2 + 0xc8]\n 34109: a3 = a4 | t0\n 34112: a1 = a0 | a5\n 34115: a1 = a1 | a3\n 34118: a1 = a1 >> 0x20\n 34121: a3 = a3 | a5\n 34124: a3 = a3 << 0x20\n 34127: a1 = a1 | a3\n 34130: jump @1308 if a1 == 0\n      : @1307 (gas: 1)\n 34133: jump @1912\n      : @1308 (gas: 11)\n 34136: u64 [a2 + 184] = 0\n 34140: u64 [a2 + 176] = 0\n 34144: u64 [a2 + 168] = 0\n 34148: a3 = 0x8c379a000000000\n 34158: a1 = s1 + 0x29c0\n 34162: u64 [a2 + 0xc0] = a3\n 34166: u64 [s1 + 0x198] = a0\n 34170: u64 [s1 + 0x190] = a4\n 34174: u64 [s1 + 0x180] = t0\n 34178: u64 [s1 + 0x188] = a5\n 34182: ra = 1344, jump @19\n      : @1309 [@dyn 672] (gas: 6)\n 34189: a5 = s1 + 0x100\n 34193: a1 = u64 [a5 + 0x98]\n 34197: a0 = u64 [a5 + 0x88]\n 34201: a3 = u64 [a5 + 0x80]\n 34205: a3 = a3 | a0\n 34208: t0 = 1346, jump @2344\n      : @1310 [@dyn 673] (gas: 1)\n 34214: jump @1312 if a0 != 0\n      : @1311 (gas: 1)\n 34217: jump @1912\n      : @1312 (gas: 4)\n 34220: i32 a0 = a1 + 0x4\n 34223: t0 = 0x544\n 34227: a2 = s1 + 0x2918\n 34231: fallthrough\n      : @1313 [@dyn 674] (gas: 9)\n 34232: a5 = 0\n 34234: u64 [a2 + 160] = 0\n 34238: u64 [a2 + 152] = 0\n 34242: u64 [a2 + 136] = 0x20\n 34247: a1 = s1 + 0x29a0\n 34251: u64 [a2 + 144] = 0\n 34255: u64 [s1 + 0x188] = a3\n 34259: u64 [s1 + 0x180] = a4\n 34263: ra = 1350, jump @19\n      : @1314 [@dyn 675] (gas: 1)\n 34270: t0 = 1352, jump @2357\n      : @1315 [@dyn 676] (gas: 1)\n 34277: jump @1317 if a0 != 0\n      : @1316 (gas: 1)\n 34280: jump @1912\n      : @1317 (gas: 8)\n 34283: i32 a0 = a1 + 0x24\n 34286: a3 = s1 + 0x2918\n 34290: u64 [a3 + 128] = 0\n 34294: u64 [a3 + 120] = 0\n 34297: u64 [a3 + 104] = 0xc\n 34301: a1 = s1 + 0x2980\n 34305: u64 [a3 + 112] = 0\n 34308: ra = 1354, jump @19\n      : @1318 [@dyn 677] (gas: 1)\n 34315: t0 = 1356, jump @2391\n      : @1319 [@dyn 678] (gas: 1)\n 34322: jump @1321 if a0 != 0\n      : @1320 (gas: 1)\n 34325: jump @1912\n      : @1321 (gas: 10)\n 34328: i32 a0 = a2 + 0x44\n 34331: a1 = u64 [0x200d0]\n 34336: a3 = s1 + 0x2918\n 34340: u64 [a3 + 80] = 0\n 34343: u64 [a3 + 0x60] = a1\n 34346: a1 = 0x31306b6700000000\n 34356: u64 [a3 + 0x58] = a1\n 34359: a1 = s1 + 0x2960\n 34363: u64 [a3 + 72] = 0\n 34366: ra = 1358, jump @19\n      : @1322 [@dyn 679] (gas: 3)\n 34373: a1 = 0x64\n 34376: a0 = u64 [s1 + 0x198]\n 34380: ra = 1360, jump @31\n      : @1323 [@dyn 680] (gas: 6)\n 34387: i32 a1 = a0 + 0\n 34389: a0 = 0x1\n 34392: a2 = 0x64\n 34395: ra = 0x552\n 34399: ecalli 11 // 'seal_return'\n 34401: fallthrough\n      : @1324 [@dyn 681] (gas: 50)\n 34402: a0 = a0 <u 0x1\n 34405: u64 [s1 + 0x198] = a0\n 34409: a1 = clz ra\n 34411: a2 = a1 + 0x40\n 34414: a1 = clz t0\n 34416: a1 = a2 if t0 == 0\n 34419: a2 = clz t2\n 34421: a2 = a2 + 0x40\n 34424: u64 [s1 + 0x120] = t2\n 34428: a3 = clz t1\n 34430: a3 = a2 if t1 == 0\n 34433: a2 = a3 + 0x80\n 34437: a0 = ra | t0\n 34440: a1 = a2 if a0 == 0\n 34443: a3 = a2 <u a3\n 34446: u64 [s1 + 0x100] = a0\n 34450: a3 = 0 if a0 != 0\n 34452: a4 = a3 >u 0\n 34454: a2 = a1 <u 0xfd\n 34458: a5 = a2 ^ 0x1\n 34461: a4 = a5 if a3 == 0\n 34464: a2 = a4 <u 0x1\n 34467: t2 = a2 + 0xffffffffffffffff\n 34470: a0 = -a4\n 34472: a3 = -a3\n 34474: a3 = a3 - a5\n 34477: a2 = 0xfc - a1\n 34481: u64 [s1 + 0x188] = a0\n 34485: a1 = a0 >u 0\n 34487: a5 = t2 >u 0\n 34489: a5 = a1 if t2 == 0\n 34492: a1 = a3 >u 0\n 34494: u64 [s1 + 0x190] = a2\n 34498: a0 = a2 <u 0x100\n 34502: a0 = a0 ^ 0x1\n 34505: a0 = a1 if a3 != 0\n 34508: a0 = a5 if a4 != 0\n 34511: a2 = u64 [s1 + 0x198]\n 34515: a2 = a2 | a0\n 34518: u64 [s1 + 0x108] = t0\n 34522: t0 = 0 if a2 != 0\n 34524: u64 [s1 + 0x110] = ra\n 34528: a5 = ra\n 34530: a5 = 0 if a2 != 0\n 34532: u64 [s1 + 0x118] = t1\n 34536: a4 = t1\n 34538: a4 = 0 if a2 != 0\n 34540: t1 = u64 [s1 + 0x120]\n 34544: t1 = 0 if a2 != 0\n 34546: jump @1326 if a2 == 0\n      : @1325 (gas: 1)\n 34549: jump @1524\n      : @1326 (gas: 7)\n 34552: a0 = u64 [s1 + 0x190]\n 34556: a2 = a0 ^ 0xff\n 34560: ra = u64 [s1 + 0x188]\n 34564: a0 = a2 | ra\n 34567: a2 = a3 | t2\n 34570: a2 = a2 | a0\n 34573: jump @1328 if a2 != 0\n      : @1327 (gas: 1)\n 34576: jump @1524\n      : @1328 (gas: 19)\n 34579: a2 = u64 [s1 + 0x190]\n 34583: a1 = a2 + 0x1\n 34586: u64 [s1 + 0x198] = a1\n 34590: a0 = a1 <u 0x1\n 34593: a0 = a0 + a3\n 34596: u64 [s1 + 0x178] = a0\n 34600: a0 = a0 | a1\n 34603: a0 = a0 <u 0x1\n 34606: a0 = a0 + ra\n 34609: u64 [s1 + 0x168] = a0\n 34613: a0 = a0 <u ra\n 34616: a0 = a0 + t2\n 34619: u64 [s1 + 0x170] = a0\n 34623: a1 = 0xff - a2\n 34627: u64 [s1 + 0x190] = a1\n 34631: a2 = 0x80 - a1\n 34635: a0 = u64 [s1 + 0x120]\n 34639: a1 = u64 [s1 + 0x118]\n 34643: ra = 1364, jump @2455\n      : @1329 [@dyn 682] (gas: 6)\n 34650: u64 [s1 + 0x188] = a0\n 34654: u64 [s1 + 0x160] = a1\n 34658: a0 = u64 [s1 + 0x110]\n 34662: a1 = u64 [s1 + 0x108]\n 34666: a2 = u64 [s1 + 0x190]\n 34670: ra = 1366, jump @2460\n      : @1330 [@dyn 683] (gas: 1)\n 34677: t0 = 1368, jump @2424\n      : @1331 [@dyn 684] (gas: 3)\n 34684: a0 = u64 [s1 + 0x120]\n 34688: a1 = u64 [s1 + 0x118]\n 34692: ra = 1370, jump @2460\n      : @1332 [@dyn 685] (gas: 1)\n 34699: t0 = 1372, jump @2436\n      : @1333 [@dyn 686] (gas: 2)\n 34706: a4 = u64 [s1 + 0x108]\n 34710: t0 = 1374, jump @2421\n      : @1334 [@dyn 687] (gas: 6)\n 34717: a0 = u64 [s1 + 0x110]\n 34721: a1 = a0 if a2 == 0\n 34724: u64 [s1 + 0x188] = a1\n 34728: a0 = u64 [s1 + 0x120]\n 34732: a1 = u64 [s1 + 0x118]\n 34736: ra = 1376, jump @2460\n      : @1335 [@dyn 688] (gas: 1)\n 34743: t0 = 1378, jump @2362\n      : @1336 [@dyn 689] (gas: 1)\n 34749: jump @1338 if a3 == 0\n      : @1337 (gas: 1)\n 34752: jump @1513\n      : @1338 (gas: 4)\n 34755: a5 = 0\n 34757: u64 [s1 + 312] = 0\n 34761: ra = u64 [s1 + 0x150]\n 34765: jump @1523\n      : @1339 (gas: 7)\n 34768: u64 [s1 + 760] = 0\n 34772: u64 [s1 + 752] = 0\n 34776: u64 [s1 + 744] = 0\n 34780: a1 = s1 + 0x2e0\n 34784: u64 [s1 + 736] = 0x3\n 34789: a0 = 0\n 34791: ra = 1380, jump @19\n      : @1340 [@dyn 690] (gas: 6)\n 34798: a0 = sp + 0xffffffffffffffe0\n 34801: a0 = a0 & 0xffffffffffffffe0\n 34804: u64 [s1 + 0x138] = a0\n 34808: sp = a0\n 34810: a1 = i32 [0x2019c]\n 34815: jump @1342 if a1 >u 31\n      : @1341 (gas: 4)\n 34819: a1 = 0x20\n 34822: u32 [0x2019c] = a1\n 34827: t0 = 0x566\n 34831: jump @2434\n      : @1342 (gas: 1)\n 34835: t0 = 1382, jump @2434\n      : @1343 [@dyn 691] (gas: 6)\n 34842: a0 = 0x201b0\n 34847: i32 a0 = a0 + 0\n 34849: i32 a2 = a2 + 0\n 34851: a1 = 0x20\n 34854: ecalli 7 // 'hash_keccak_256'\n 34856: t0 = 1384, jump @2341\n      : @1344 [@dyn 692] (gas: 19)\n 34862: t0 = u64 [s1 + 0x138]\n 34866: a3 = a2\n 34868: a5 = t0\n 34870: u64 [a5 + 0x18] = a2\n 34873: u64 [s1 + 0x160] = ra\n 34877: u64 [t0 + 0x10] = ra\n 34880: ra = a1\n 34882: u64 [a5 + 0x8] = a1\n 34885: a2 = a0\n 34887: u64 [a5] = a0\n 34889: a5 = s1 + 0x100\n 34893: a0 = u64 [a5]\n 34895: a4 = a4 + a0\n 34898: u64 [a5 + 0x20] = a4\n 34901: a0 = a4 <u a0\n 34904: a1 = u64 [s1 + 0xf8]\n 34908: a0 = a0 + a1\n 34911: u64 [a5 + 0x18] = a0\n 34914: fallthrough\n      : @1345 (gas: 22)\n 34915: a5 = s1 + 0x100\n 34919: u64 [a5 + 0x68] = a3\n 34922: u64 [s1 + 0x170] = ra\n 34926: u64 [a5 + 0x78] = a2\n 34929: a0 = u64 [a5 + 0x40]\n 34932: a1 = u64 [a5 + 0x98]\n 34936: a0 = a1 <u a0\n 34939: a2 = u64 [a5 + 0x50]\n 34942: a1 = t2 ^ a2\n 34945: a2 = t2 <u a2\n 34948: a2 = a0 if a1 == 0\n 34951: a4 = u64 [a5 + 0x48]\n 34954: a0 = t1 <u a4\n 34957: a3 = u64 [a5 + 0x58]\n 34960: a1 = u64 [a5 + 0x90]\n 34964: a5 = a1 ^ a3\n 34967: a3 = a1 <u a3\n 34970: a3 = a0 if a5 == 0\n 34973: a0 = t1 ^ a4\n 34976: a0 = a0 | a5\n 34979: a3 = a2 if a0 == 0\n 34982: jump @1347 if a3 != 0\n      : @1346 (gas: 1)\n 34985: jump @1493\n      : @1347 (gas: 5)\n 34988: a0 = s1 + 0x2c0\n 34992: a1 = t0\n 34994: u64 [s1 + 0x188] = t1\n 34998: u64 [s1 + 0x180] = t2\n 35002: ra = 1386, jump @21\n      : @1348 [@dyn 693] (gas: 1)\n 35009: t0 = 1388, jump @2351\n      : @1349 [@dyn 694] (gas: 6)\n 35015: t0 = a1 <u a5\n 35018: a5 = u64 [s1 + 0x190]\n 35022: a3 = u64 [s1 + 0x118]\n 35026: a5 = a5 + a3\n 35029: a5 = a5 + t0\n 35032: t0 = 1390, jump @2409\n      : @1350 [@dyn 695] (gas: 1)\n 35039: jump @1352 if a1 == 0\n      : @1351 (gas: 1)\n 35042: jump @1912\n      : @1352 (gas: 12)\n 35045: a3 = s1 + 0x200\n 35049: a2 = u64 [a3 + 0xd8]\n 35053: a1 = u64 [a3 + 0xd0]\n 35057: a5 = u64 [a3 + 0xc8]\n 35061: a4 = u64 [a3 + 0xc0]\n 35065: u64 [a3 + 0xa0] = a4\n 35069: u64 [a3 + 0xa8] = a5\n 35073: u64 [a3 + 0xb0] = a1\n 35077: a1 = s1 + 0x2a0\n 35081: u64 [a3 + 0xb8] = a2\n 35085: u64 [s1 + 0x198] = t2\n 35089: ra = 1392, jump @19\n      : @1353 [@dyn 696] (gas: 31)\n 35096: t0 = u64 [s1 + 0x178]\n 35100: t0 = t0 + 0x1\n 35103: a0 = t0 <u 0x1\n 35106: a3 = u64 [s1 + 0x170]\n 35110: a3 = a3 + a0\n 35113: a0 = t0 | a3\n 35116: a0 = a0 <u 0x1\n 35119: a1 = u64 [s1 + 0x160]\n 35123: t2 = a1 + a0\n 35126: a1 = t2 <u a1\n 35129: a0 = u64 [s1 + 0x168]\n 35133: a0 = a0 + a1\n 35136: a1 = u64 [s1 + 0x198]\n 35140: t1 = a1 + 0x20\n 35143: a2 = t1 <u a1\n 35146: a4 = u64 [s1 + 0x180]\n 35150: a1 = a4 + a2\n 35153: a4 = a1 <u a4\n 35156: a4 = a2 if a2 == 0\n 35159: a2 = u64 [s1 + 0x188]\n 35163: a4 = a4 + a2\n 35166: a2 = a4 <u a2\n 35169: a5 = u64 [s1 + 0x190]\n 35173: a5 = a5 + a2\n 35176: u64 [s1 + 0x190] = a5\n 35180: ra = a3\n 35182: a5 = u64 [s1 + 0x138]\n 35186: u64 [a5 + 0x8] = a3\n 35189: a2 = t0\n 35191: u64 [a5] = t0\n 35193: t0 = 1394, jump @2454\n      : @1354 [@dyn 697] (gas: 2)\n 35200: t0 = a5\n 35202: jump @1345\n      : @1355 (gas: 2)\n 35205: ecalli 10 // 'return_data_size'\n 35207: fallthrough\n      : @1356 (gas: 12)\n 35208: a3 = u64 [s1 + 0x168]\n 35212: a5 = u64 [s1 + 0x150]\n 35216: a1 = a5 | a3\n 35219: a2 = u64 [s1 + 0x178]\n 35223: a4 = u64 [s1 + 0x158]\n 35227: a2 = a2 | a4\n 35230: a1 = a1 | a2\n 35233: a1 = a1 >> 0x20\n 35236: a2 = a2 | a3\n 35239: a2 = a2 << 0x20\n 35242: a1 = a1 | a2\n 35245: jump @1358 if a1 == 0\n      : @1357 (gas: 1)\n 35248: jump @1912\n      : @1358 (gas: 3)\n 35251: a2 = a0\n 35253: a1 = a0 >> 0x20\n 35256: jump @1360 if a1 == 0\n      : @1359 (gas: 1)\n 35259: jump @1912\n      : @1360 (gas: 6)\n 35262: a0 = a5\n 35264: i32 a1 = a2 + 0\n 35266: u64 [s1 + 0x198] = a1\n 35270: a1 = a2\n 35272: u64 [s1 + 0x190] = a2\n 35276: ra = 1396, jump @31\n      : @1361 [@dyn 698] (gas: 9)\n 35283: a1 = s1 + 0x5118\n 35287: a2 = u64 [s1 + 0x190]\n 35291: u32 [a1 + 0x368] = a2\n 35295: i32 a0 = a0 + 0\n 35297: a1 = s1 + 0x5000\n 35301: i32 a1 = a1 + 0x480\n 35305: a2 = 0\n 35307: ecalli 9 // 'return_data_copy'\n 35309: fallthrough\n      : @1362 (gas: 4)\n 35310: a0 = s1 + 0x5118\n 35314: a0 = i32 [a0 + 0x368]\n 35318: a1 = u64 [s1 + 0x198]\n 35322: jump @1364 if a0 >=u a1\n      : @1363 (gas: 1)\n 35325: jump @1912\n      : @1364 (gas: 2)\n 35328: ecalli 10 // 'return_data_size'\n 35330: fallthrough\n      : @1365 (gas: 3)\n 35331: a1 = a0\n 35333: a0 = a0 >> 0x20\n 35336: jump @1367 if a0 == 0\n      : @1366 (gas: 1)\n 35339: jump @1912\n      : @1367 (gas: 3)\n 35342: a0 = u64 [s1 + 0x150]\n 35346: u64 [s1 + 0x198] = a1\n 35350: ra = 1398, jump @31\n      : @1368 [@dyn 699] (gas: 5)\n 35357: i32 a1 = a0 + 0\n 35359: a2 = i32 [s1 + 0x198]\n 35363: a0 = 0x1\n 35366: ecalli 11 // 'seal_return'\n 35368: fallthrough\n      : @1369 (gas: 5)\n 35369: a0 = u64 [s1 + 0x198]\n 35373: a2 = a0 + 0xffffffffffffff80\n 35376: a0 = u64 [s1 + 0x140]\n 35380: a1 = u64 [s1 + 0x150]\n 35384: ra = 1400, jump @2455\n      : @1370 [@dyn 700] (gas: 6)\n 35391: u64 [s1 + 0x138] = a0\n 35395: u64 [s1 + 0x128] = a1\n 35399: a0 = u64 [s1 + 0x158]\n 35403: a1 = u64 [s1 + 0x148]\n 35407: a2 = u64 [s1 + 0x198]\n 35411: ra = 1402, jump @2455\n      : @1371 [@dyn 701] (gas: 3)\n 35418: u64 [s1 + 0xe0] = a0\n 35422: u64 [s1 + 0x130] = a1\n 35426: t0 = 1404, jump @2416\n      : @1372 [@dyn 702] (gas: 3)\n 35433: a0 = u64 [s1 + 0x140]\n 35437: a1 = u64 [s1 + 0x150]\n 35441: ra = 1406, jump @2460\n      : @1373 [@dyn 703] (gas: 21)\n 35448: a2 = u64 [s1 + 0x130]\n 35452: a1 = a1 | a2\n 35455: a3 = u64 [s1 + 0x198]\n 35459: a4 = a3 <u 0x80\n 35463: u64 [s1 + 0x130] = a4\n 35467: a2 = u64 [s1 + 0x128]\n 35471: a1 = a2 if a4 == 0\n 35474: a2 = u64 [s1 + 0x148]\n 35478: a2 = a1 if a3 != 0\n 35481: u64 [s1 + 0x148] = a2\n 35485: a1 = u64 [s1 + 0xe0]\n 35489: a0 = a0 | a1\n 35492: a1 = u64 [s1 + 0x138]\n 35496: a0 = a1 if a4 == 0\n 35499: a1 = u64 [s1 + 0x158]\n 35503: a1 = a0 if a3 != 0\n 35506: a2 = a3\n 35508: u64 [s1 + 0x158] = a1\n 35512: a0 = u64 [s1 + 0x140]\n 35516: a1 = u64 [s1 + 0x150]\n 35520: ra = 1408, jump @2455\n      : @1374 [@dyn 704] (gas: 10)\n 35527: a5 = 0\n 35529: a3 = s1 + 0x100\n 35533: a2 = u64 [a3 + 0x30]\n 35536: a1 = 0 if a2 == 0\n 35538: a0 = 0 if a2 == 0\n 35540: u64 [a3 + 48] = 0x3e7\n 35545: u64 [a3 + 40] = 0\n 35548: t2 = u64 [s1 + 0x148]\n 35552: t0 = u64 [s1 + 0x158]\n 35556: fallthrough\n      : @1375 (gas: 54)\n 35557: u64 [s1 + 0x148] = a1\n 35561: u64 [s1 + 0x150] = a5\n 35565: u64 [s1 + 312] = 0\n 35569: a2 = t0 >> 0x3f\n 35572: a3 = t2 << 0x1\n 35575: a3 = a3 | a2\n 35578: a2 = t0 << 0x1\n 35581: ra = u64 [s1 + 0x180]\n 35585: a4 = ra >> 0x3f\n 35588: a4 = a4 | a2\n 35591: u64 [s1 + 0x158] = a4\n 35595: a2 = u64 [s1 + 0x128]\n 35599: a1 = a2 ^ a3\n 35602: u64 [s1 + 0x140] = a1\n 35606: a1 = a2 <u a3\n 35609: a5 = u64 [s1 + 0x130]\n 35613: t0 = a5 <u a4\n 35616: a4 = u64 [s1 + 0x140]\n 35620: t0 = a1 if a4 != 0\n 35623: a1 = u64 [s1 + 0x148]\n 35627: a1 = a1 << 0x1\n 35630: a4 = a0 >> 0x3f\n 35633: a1 = a1 | a4\n 35636: u64 [s1 + 0x148] = a1\n 35640: a4 = t2 >> 0x3f\n 35643: a0 = a0 << 0x1\n 35646: a4 = a4 | a0\n 35649: a0 = ra << 0x1\n 35652: a1 = u64 [s1 + 0x188]\n 35656: a5 = a1 >> 0x3f\n 35659: a0 = a0 | a5\n 35662: u64 [s1 + 0x180] = a0\n 35666: a5 = a1 << 0x1\n 35669: a0 = u64 [s1 + 0x178]\n 35673: a1 = a0 >> 0x3f\n 35676: t2 = a5 | a1\n 35679: a5 = a0 << 0x1\n 35682: a0 = u64 [s1 + 0x190]\n 35686: ra = a0 >> 0x3f\n 35689: a5 = a5 | ra\n 35692: a0 = a0 << 0x1\n 35695: a1 = u64 [s1 + 0x150]\n 35699: a0 = a0 | a1\n 35702: u64 [s1 + 0x190] = a0\n 35706: a0 = a5 | 0\n 35708: u64 [s1 + 0x178] = a0\n 35712: a0 = t2 | 0\n 35714: u64 [s1 + 0x188] = a0\n 35718: a0 = u64 [s1 + 0x180]\n 35722: a0 = a0 | 0\n 35724: u64 [s1 + 0x180] = a0\n 35728: a0 = a2 - a4\n 35731: a0 = a0 <u t0\n 35734: t0 = 1410, jump @2399\n      : @1376 [@dyn 705] (gas: 30)\n 35740: a1 = u64 [s1 + 0x158]\n 35744: t0 = a1 - a0\n 35747: a1 = a1 <u a0\n 35750: t2 = a3 - a1\n 35753: a1 = 0 if a3 != 0\n 35755: a0 = a4 - a1\n 35758: a1 = a4 <u a1\n 35761: a1 = t1 - a1\n 35764: a3 = u64 [s1 + 0x198]\n 35768: a5 = u64 [s1 + 0x170]\n 35772: a2 = a3 | a5\n 35775: a2 = a2 <u 0x1\n 35778: a4 = u64 [s1 + 0x160]\n 35782: t1 = a4 <u a2\n 35785: a4 = a4 - a2\n 35788: a2 = a3 <u 0x1\n 35791: a5 = a5 - a2\n 35794: a2 = u64 [s1 + 0x168]\n 35798: a2 = a2 - t1\n 35801: a3 = a3 + 0xffffffffffffffff\n 35804: u64 [s1 + 0x170] = a5\n 35808: u64 [s1 + 0x168] = a2\n 35812: a2 = a2 | a5\n 35815: u64 [s1 + 0x198] = a3\n 35819: a3 = a3 | a4\n 35822: a2 = a2 | a3\n 35825: a5 = ra & 0x1\n 35828: u64 [s1 + 0x160] = a4\n 35832: t1 = 0\n 35834: jump @1375 if a2 != 0\n      : @1377 (gas: 7)\n 35838: a2 = u64 [s1 + 0x188]\n 35842: a0 = a2 >> 0x3f\n 35845: a1 = u64 [s1 + 0x180]\n 35849: a1 = a1 << 0x1\n 35852: a0 = a0 | a1\n 35855: a3 = u64 [s1 + 0x178]\n 35859: t0 = 1412, jump @2377\n      : @1378 [@dyn 706] (gas: 10)\n 35865: a4 = a4 | a5\n 35868: a5 = s1 + 0x100\n 35872: u64 [a5 + 0x70] = a4\n 35875: a4 = u64 [a5 + 0x38]\n 35878: a2 = a2 | a4\n 35881: a2 = a2 | a3\n 35884: u64 [a5 + 0x78] = a2\n 35887: a5 = a4 | a1\n 35890: a4 = a4 | a0\n 35893: fallthrough\n      : @1379 (gas: 10)\n 35894: u64 [s1 + 0x160] = a5\n 35898: u64 [s1 + 0x168] = a4\n 35902: a1 = s1 + 0x4918\n 35906: u64 [a1 + 160] = 0\n 35910: u64 [a1 + 152] = 0\n 35914: u64 [a1 + 144] = 0\n 35918: u64 [a1 + 136] = 0x2\n 35923: a0 = s1 + 0x1400\n 35927: a1 = s1 + 0x49a0\n 35931: ra = 1414, jump @21\n      : @1380 [@dyn 707] (gas: 1)\n 35938: t0 = 1416, jump @2430\n      : @1381 [@dyn 708] (gas: 16)\n 35945: a0 = u64 [a2 + 0xe8]\n 35949: u64 [s1 + 0x198] = a0\n 35953: a0 = u64 [a2 + 0xf0]\n 35957: u64 [s1 + 0x190] = a0\n 35961: a0 = u64 [a2 + 0xf8]\n 35965: u64 [s1 + 0x188] = a0\n 35969: a0 = u64 [a1 + 0x300]\n 35973: u64 [s1 + 0x180] = a0\n 35977: a1 = s1 + 0x4918\n 35981: u64 [a1 + 192] = 0\n 35985: u64 [a1 + 184] = 0\n 35989: u64 [a1 + 176] = 0\n 35993: u64 [a1 + 168] = 0x5\n 35998: a0 = s1 + 0x13e0\n 36002: a1 = s1 + 0x49c0\n 36006: ra = 1418, jump @21\n      : @1382 [@dyn 709] (gas: 2)\n 36013: a0 = 0x1000\n 36017: t0 = 1420, jump @2446\n      : @1383 [@dyn 710] (gas: 10)\n 36024: a2 = u64 [a4 + 0xc8]\n 36028: a0 = u64 [a4 + 0xd0]\n 36032: a1 = u32 [a3 + 0x2d8]\n 36036: u64 [a3 + 672] = 0\n 36040: u64 [a4 + 0x98] = a1\n 36044: u64 [a4 + 0x90] = a0\n 36048: a0 = s1 + 0x13c0\n 36052: a1 = s1 + 0x13a0\n 36056: u64 [a4 + 0x88] = a2\n 36060: ra = 1422, jump @2224\n      : @1384 [@dyn 711] (gas: 22)\n 36066: a4 = s1 + 0x1118\n 36070: a5 = a4 + 0x200\n 36074: a0 = u64 [a5 + 0xa8]\n 36078: a1 = u64 [a5 + 0xb0]\n 36082: a2 = u64 [a5 + 0xb8]\n 36086: a3 = u64 [a5 + 0xc0]\n 36090: u64 [a5 + 0x40] = a3\n 36093: u64 [a5 + 0x38] = a2\n 36096: u64 [a5 + 0x30] = a1\n 36099: u64 [a5 + 0x28] = a0\n 36102: a0 = u64 [s1 + 0x180]\n 36106: u64 [a5 + 0x60] = a0\n 36109: a0 = u64 [s1 + 0x188]\n 36113: u64 [a5 + 0x58] = a0\n 36116: a0 = u64 [s1 + 0x190]\n 36120: u64 [a5 + 0x50] = a0\n 36123: a0 = s1 + 0x1380\n 36127: a1 = s1 + 0x1360\n 36131: a2 = s1 + 0x1340\n 36135: a3 = u64 [s1 + 0x198]\n 36139: u64 [a5 + 0x48] = a3\n 36142: ra = 1424, jump @2216\n      : @1385 [@dyn 712] (gas: 1)\n 36148: t0 = 1426, jump @2430\n      : @1386 [@dyn 713] (gas: 17)\n 36155: a0 = u64 [a2 + 0x80]\n 36159: u64 [s1 + 0x188] = a0\n 36163: a0 = u64 [a2 + 0x78]\n 36166: u64 [s1 + 0x180] = a0\n 36170: a0 = u64 [a2 + 0x70]\n 36173: u64 [s1 + 0x158] = a0\n 36177: a0 = u64 [a2 + 0x68]\n 36180: u64 [s1 + 0x150] = a0\n 36184: a0 = s1 + 0x4918\n 36188: u64 [a0 + 224] = 0\n 36192: u64 [a0 + 216] = 0\n 36196: u64 [a0 + 208] = 0\n 36200: a1 = a0\n 36202: u64 [a1 + 200] = 0x9\n 36207: a0 = s1 + 0x1320\n 36211: a1 = s1 + 0x49e0\n 36215: ra = 1428, jump @21\n      : @1387 [@dyn 714] (gas: 1)\n 36222: t0 = 1430, jump @2430\n      : @1388 [@dyn 715] (gas: 12)\n 36229: a0 = u64 [a2 + 0x20]\n 36232: a1 = s1 + 0x100\n 36236: u64 [a1 + 0x48] = a0\n 36239: a0 = u64 [a2 + 0x18]\n 36242: u64 [a1 + 0x40] = a0\n 36245: a0 = u64 [a2 + 0x10]\n 36248: u64 [a1 + 0x38] = a0\n 36251: a0 = u64 [a2 + 0x8]\n 36254: u64 [a1 + 0x30] = a0\n 36257: a0 = s1 + 0x1300\n 36261: a1 = 0x40\n 36264: ra = 1432, jump @17\n      : @1389 [@dyn 716] (gas: 14)\n 36271: a2 = s1 + 0x1118\n 36275: t0 = u64 [a2 + 0x200]\n 36279: a0 = a2 + 0x100\n 36283: a5 = u64 [a0 + 0xf8]\n 36287: a4 = u64 [a0 + 0xf0]\n 36291: a3 = u64 [a0 + 0xe8]\n 36295: a0 = a4 | t0\n 36298: a1 = a3 | a5\n 36301: a1 = a1 | a0\n 36304: a1 = a1 >> 0x20\n 36307: a0 = a0 | a5\n 36310: a0 = a0 << 0x20\n 36313: a0 = a0 | a1\n 36316: jump @1391 if a0 == 0\n      : @1390 (gas: 1)\n 36319: jump @1912\n      : @1391 (gas: 15)\n 36322: a0 = u64 [s1 + 0x108]\n 36326: u64 [a2 + 0x1c8] = a0\n 36330: a0 = u64 [s1 + 0x110]\n 36334: u64 [a2 + 0x1d0] = a0\n 36338: a0 = u64 [s1 + 0x118]\n 36342: u64 [a2 + 0x1d8] = a0\n 36346: a1 = s1 + 0x12e0\n 36350: a0 = u64 [s1 + 0x120]\n 36354: u64 [a2 + 0x1e0] = a0\n 36358: a0 = a3\n 36360: u64 [s1 + 0x198] = a3\n 36364: u64 [s1 + 0x190] = a4\n 36368: u64 [s1 + 0x120] = t0\n 36372: u64 [s1 + 0x128] = a5\n 36376: ra = 1434, jump @19\n      : @1392 [@dyn 717] (gas: 5)\n 36383: a5 = s1 + 0x100\n 36387: a1 = u64 [a5 + 0x98]\n 36391: a0 = u64 [a5 + 0x28]\n 36394: a4 = u64 [a5 + 0x20]\n 36397: t0 = 1436, jump @2403\n      : @1393 [@dyn 718] (gas: 1)\n 36403: jump @1395 if a0 != 0\n      : @1394 (gas: 1)\n 36406: jump @1912\n      : @1395 (gas: 16)\n 36409: i32 a0 = a1 + 0x20\n 36412: a1 = u64 [s1 + 0xe8]\n 36416: a2 = s1 + 0x1118\n 36420: u64 [s1 + 0x120] = a3\n 36424: a3 = a2\n 36426: a5 = a2 + 0x100\n 36430: u64 [a5 + 0xa8] = a1\n 36434: a1 = u64 [s1 + 0xf0]\n 36438: u64 [a5 + 0xb0] = a1\n 36442: a1 = u64 [s1 + 0xf8]\n 36446: u64 [a5 + 0xb8] = a1\n 36450: a1 = s1 + 0x12c0\n 36454: a2 = u64 [s1 + 0x100]\n 36458: u64 [a3 + 0x1c0] = a2\n 36462: u64 [s1 + 0x128] = a4\n 36466: ra = 1438, jump @19\n      : @1396 [@dyn 719] (gas: 10)\n 36473: a3 = s1 + 0x100\n 36477: a1 = u64 [a3 + 0x98]\n 36481: a0 = u64 [a3 + 0x20]\n 36484: a0 = a0 + 0xffffffffffffffc0\n 36487: a0 = a1 <u a0\n 36490: a2 = u64 [a3 + 0x90]\n 36494: a0 = 0 if a2 != 0\n 36496: a2 = u64 [a3 + 0x28]\n 36499: a0 = 0 if a2 != 0\n 36501: jump @1398 if a0 != 0\n      : @1397 (gas: 1)\n 36504: jump @1912\n      : @1398 (gas: 13)\n 36507: i32 a0 = a1 + 0x40\n 36510: a1 = u64 [s1 + 0x170]\n 36514: a3 = s1 + 0x1118\n 36518: a4 = a3 + 0x100\n 36522: u64 [a4 + 0x88] = a1\n 36526: a1 = u64 [s1 + 0x178]\n 36530: u64 [a4 + 0x90] = a1\n 36534: a1 = u64 [s1 + 0x160]\n 36538: u64 [a4 + 0x98] = a1\n 36542: a1 = s1 + 0x12a0\n 36546: a2 = u64 [s1 + 0x168]\n 36550: u64 [a4 + 0xa0] = a2\n 36554: ra = 1440, jump @19\n      : @1399 [@dyn 720] (gas: 10)\n 36561: a0 = s1 + 0x100\n 36565: a4 = u64 [a0 + 0x28]\n 36568: a3 = u64 [a0 + 0x90]\n 36572: a1 = u64 [a0 + 0x98]\n 36576: a2 = 0x100000000\n 36586: a0 = 0xffffffa0\n 36596: a0 = a1 <u a0\n 36599: a0 = 0 if a3 != 0\n 36601: a0 = 0 if a4 != 0\n 36603: jump @1401 if a0 != 0\n      : @1400 (gas: 1)\n 36606: jump @1912\n      : @1401 (gas: 14)\n 36609: i32 a0 = a1 + 0x60\n 36612: a1 = u64 [s1 + 0x150]\n 36616: u64 [s1 + 0x178] = a2\n 36620: a4 = s1 + 0x1118\n 36624: a3 = a4 + 0x100\n 36628: u64 [a3 + 0x68] = a1\n 36631: a1 = u64 [s1 + 0x158]\n 36635: u64 [a3 + 0x70] = a1\n 36638: a1 = u64 [s1 + 0x180]\n 36642: u64 [a3 + 0x78] = a1\n 36645: a1 = s1 + 0x1280\n 36649: a2 = u64 [s1 + 0x188]\n 36653: u64 [a3 + 0x80] = a2\n 36657: ra = 1442, jump @19\n      : @1402 [@dyn 721] (gas: 10)\n 36664: a2 = s1 + 0x100\n 36668: a3 = u64 [a2 + 0x98]\n 36672: a0 = u64 [a2 + 0x78]\n 36675: a0 = a0 + 0xffffffffffffff80\n 36678: a0 = a3 <u a0\n 36681: a1 = u64 [a2 + 0x90]\n 36685: a0 = 0 if a1 != 0\n 36687: a1 = u64 [a2 + 0x28]\n 36690: a0 = 0 if a1 != 0\n 36692: jump @1404 if a0 != 0\n      : @1403 (gas: 1)\n 36695: jump @1912\n      : @1404 (gas: 13)\n 36698: i32 a0 = a3 + 0x80\n 36702: a1 = u64 [s1 + 0x130]\n 36706: a4 = s1 + 0x1118\n 36710: a3 = a4 + 0x100\n 36714: u64 [a3 + 0x48] = a1\n 36717: a1 = u64 [s1 + 0x138]\n 36721: u64 [a3 + 0x50] = a1\n 36724: a1 = u64 [s1 + 0x140]\n 36728: u64 [a3 + 0x58] = a1\n 36731: a1 = s1 + 0x1260\n 36735: a2 = u64 [s1 + 0x148]\n 36739: u64 [a3 + 0x60] = a2\n 36742: ra = 1444, jump @19\n      : @1405 [@dyn 722] (gas: 3)\n 36749: a1 = 0xa0\n 36753: a0 = u64 [s1 + 0x198]\n 36757: ra = 1446, jump @31\n      : @1406 [@dyn 723] (gas: 5)\n 36764: i32 a1 = a0 + 0\n 36766: a2 = 0xa0\n 36770: a0 = 0\n 36772: ecalli 11 // 'seal_return'\n 36774: jump @1134\n      : @1407 (gas: 5)\n 36777: a0 = u64 [s1 + 0x190]\n 36781: a2 = a0 + 0xffffffffffffff80\n 36784: a0 = u64 [s1 + 0x138]\n 36788: a1 = u64 [s1 + 0x140]\n 36792: ra = 1448, jump @2455\n      : @1408 [@dyn 724] (gas: 6)\n 36798: u64 [s1 + 0x130] = a0\n 36802: u64 [s1 + 0x120] = a1\n 36806: a0 = u64 [s1 + 0x148]\n 36810: a1 = u64 [s1 + 0x198]\n 36814: a2 = u64 [s1 + 0x190]\n 36818: ra = 1450, jump @2455\n      : @1409 [@dyn 725] (gas: 7)\n 36824: u64 [s1 + 0xd8] = a0\n 36828: u64 [s1 + 0x128] = a1\n 36832: a1 = u64 [s1 + 0x190]\n 36836: a2 = 0x80 - a1\n 36840: a0 = u64 [s1 + 0x138]\n 36844: a1 = u64 [s1 + 0x140]\n 36848: ra = 1452, jump @2460\n      : @1410 [@dyn 726] (gas: 21)\n 36854: a2 = u64 [s1 + 0x128]\n 36858: a1 = a1 | a2\n 36861: a3 = u64 [s1 + 0x190]\n 36865: a4 = a3 <u 0x80\n 36869: u64 [s1 + 0x128] = a4\n 36873: a2 = u64 [s1 + 0x120]\n 36877: a1 = a2 if a4 == 0\n 36880: a2 = u64 [s1 + 0x198]\n 36884: a2 = a1 if a3 != 0\n 36887: u64 [s1 + 0x198] = a2\n 36891: a1 = u64 [s1 + 0xd8]\n 36895: a0 = a0 | a1\n 36898: a1 = u64 [s1 + 0x130]\n 36902: a0 = a1 if a4 == 0\n 36905: a1 = u64 [s1 + 0x148]\n 36909: a1 = a0 if a3 != 0\n 36912: a2 = a3\n 36914: u64 [s1 + 0x148] = a1\n 36918: a0 = u64 [s1 + 0x138]\n 36922: a1 = u64 [s1 + 0x140]\n 36926: ra = 1454, jump @2455\n      : @1411 [@dyn 727] (gas: 4)\n 36932: a5 = 0\n 36934: a4 = 0\n 36936: a2 = u64 [s1 + 0x128]\n 36940: t0 = 1456, jump @2388\n      : @1412 [@dyn 728] (gas: 3)\n 36946: t2 = u64 [s1 + 0x198]\n 36950: t0 = u64 [s1 + 0x148]\n 36954: fallthrough\n      : @1413 (gas: 58)\n 36955: u64 [s1 + 0x198] = t2\n 36959: u64 [s1 + 0x140] = a5\n 36963: u64 [s1 + 304] = 0\n 36967: a2 = t0 >> 0x3f\n 36970: a3 = t2 << 0x1\n 36973: t1 = a3 | a2\n 36976: a2 = t0 << 0x1\n 36979: ra = u64 [s1 + 0x170]\n 36983: a3 = a4\n 36985: a4 = ra >> 0x3f\n 36988: a4 = a4 | a2\n 36991: u64 [s1 + 0x148] = a4\n 36995: a2 = u64 [s1 + 0x120]\n 36999: a5 = a2 ^ t1\n 37002: u64 [s1 + 0x138] = a5\n 37006: t2 = a1\n 37008: a1 = a2 <u t1\n 37011: a5 = u64 [s1 + 0x128]\n 37015: t0 = a5 <u a4\n 37018: a4 = u64 [s1 + 0x138]\n 37022: t0 = a1 if a4 != 0\n 37025: a1 = t2 << 0x1\n 37028: a4 = a0 >> 0x3f\n 37031: a1 = a1 | a4\n 37034: u64 [s1 + 0x138] = a1\n 37038: a4 = u64 [s1 + 0x198]\n 37042: a4 = a4 >> 0x3f\n 37045: a0 = a0 << 0x1\n 37048: a4 = a4 | a0\n 37051: a0 = ra << 0x1\n 37054: a1 = u64 [s1 + 0x178]\n 37058: a5 = a1 >> 0x3f\n 37061: a0 = a0 | a5\n 37064: u64 [s1 + 0x198] = a0\n 37068: a5 = a1 << 0x1\n 37071: a0 = u64 [s1 + 0x168]\n 37075: a1 = a0 >> 0x3f\n 37078: t2 = a5 | a1\n 37081: a5 = a0 << 0x1\n 37084: a0 = u64 [s1 + 0x180]\n 37088: ra = a0 >> 0x3f\n 37091: a5 = a5 | ra\n 37094: a0 = a0 << 0x1\n 37097: a1 = u64 [s1 + 0x140]\n 37101: a0 = a0 | a1\n 37104: u64 [s1 + 0x180] = a0\n 37108: a0 = a3 | a5\n 37111: u64 [s1 + 0x168] = a0\n 37115: a0 = a3 | t2\n 37118: u64 [s1 + 0x178] = a0\n 37122: a0 = u64 [s1 + 0x198]\n 37126: a0 = a0 | a3\n 37129: u64 [s1 + 0x170] = a0\n 37133: a0 = a2 - a4\n 37136: a0 = a0 <u t0\n 37139: a1 = a2 <u a4\n 37142: a3 = u64 [s1 + 0x138]\n 37146: t0 = 1458, jump @2450\n      : @1414 [@dyn 729] (gas: 30)\n 37152: a1 = u64 [s1 + 0x148]\n 37156: t0 = a1 - a0\n 37159: a1 = a1 <u a0\n 37162: t2 = t1 - a1\n 37165: a1 = 0 if t1 != 0\n 37167: a0 = a4 - a1\n 37170: a1 = a4 <u a1\n 37173: a1 = a3 - a1\n 37176: a3 = u64 [s1 + 0x190]\n 37180: a5 = u64 [s1 + 0x160]\n 37184: a2 = a3 | a5\n 37187: a2 = a2 <u 0x1\n 37190: a4 = u64 [s1 + 0x150]\n 37194: t1 = a4 <u a2\n 37197: a4 = a4 - a2\n 37200: a2 = a3 <u 0x1\n 37203: a5 = a5 - a2\n 37206: a2 = u64 [s1 + 0x158]\n 37210: a2 = a2 - t1\n 37213: a3 = a3 + 0xffffffffffffffff\n 37216: u64 [s1 + 0x160] = a5\n 37220: u64 [s1 + 0x158] = a2\n 37224: a2 = a2 | a5\n 37227: u64 [s1 + 0x190] = a3\n 37231: a3 = a3 | a4\n 37234: a2 = a2 | a3\n 37237: a5 = ra & 0x1\n 37240: u64 [s1 + 0x150] = a4\n 37244: a4 = 0\n 37246: jump @1413 if a2 != 0\n      : @1415 (gas: 20)\n 37250: a2 = u64 [s1 + 0x178]\n 37254: a0 = a2 >> 0x3f\n 37257: a1 = u64 [s1 + 0x170]\n 37261: a1 = a1 << 0x1\n 37264: t0 = a1 | a0\n 37267: a0 = u64 [s1 + 0x168]\n 37271: a1 = a0 >> 0x3f\n 37274: a2 = a2 << 0x1\n 37277: a1 = a1 | a2\n 37280: a4 = u64 [s1 + 0x180]\n 37284: a2 = a4 >> 0x3f\n 37287: a0 = a0 << 0x1\n 37290: a4 = a4 << 0x1\n 37293: a3 = a5 | a4\n 37296: a4 = u64 [s1 + 0x130]\n 37300: a2 = a2 | a4\n 37303: a2 = a2 | a0\n 37306: a5 = a4 | a1\n 37309: a4 = a4 | t0\n 37312: fallthrough\n      : @1416 (gas: 7)\n 37313: u64 [s1 + 0x98] = a3\n 37317: u64 [s1 + 0xa0] = a2\n 37321: u64 [s1 + 0xa8] = a5\n 37325: u64 [s1 + 0xb0] = a4\n 37329: a0 = s1 + 0x3880\n 37333: a1 = 0x40\n 37336: ra = 1460, jump @17\n      : @1417 [@dyn 730] (gas: 64)\n 37343: t2 = s1 + 0x3118\n 37347: a0 = u64 [t2 + 0x780]\n 37351: u64 [s1 + 0xd8] = a0\n 37355: a0 = u64 [t2 + 0x778]\n 37359: u64 [s1 + 0xd0] = a0\n 37363: t1 = u64 [s1 + 0xe0]\n 37367: a0 = clz t1\n 37369: a0 = a0 + 0x40\n 37372: t2 = u64 [s1 + 0xe8]\n 37376: a2 = clz t2\n 37378: a2 = a0 if t2 == 0\n 37381: a0 = u64 [s1 + 0x108]\n 37385: a0 = clz a0\n 37387: a0 = a0 + 0x40\n 37390: ra = u64 [s1 + 0xf0]\n 37394: a1 = clz ra\n 37396: a1 = a0 if ra == 0\n 37399: a0 = a1 + 0x80\n 37403: a3 = t1 | t2\n 37406: a2 = a0 if a3 == 0\n 37409: a5 = a0 <u a1\n 37412: a5 = 0 if a3 != 0\n 37414: a4 = a5 >u 0\n 37416: a0 = a2 <u 0xed\n 37420: a3 = a0 ^ 0x1\n 37423: a4 = a3 if a5 == 0\n 37426: a0 = a4 <u 0x1\n 37429: t0 = a0 + 0xffffffffffffffff\n 37432: a0 = -a4\n 37434: a5 = -a5\n 37436: a3 = a5 - a3\n 37439: a2 = 0xec - a2\n 37443: u64 [s1 + 0x190] = a0\n 37447: a5 = a0 >u 0\n 37449: a0 = t0\n 37451: a1 = t0 >u 0\n 37453: a1 = a5 if t0 == 0\n 37456: a5 = a3 >u 0\n 37458: u64 [s1 + 0x180] = a2\n 37462: a2 = a2 <u 0x100\n 37466: a2 = a2 ^ 0x1\n 37469: a2 = a5 if a3 != 0\n 37472: a5 = s1 + 0x3118\n 37476: a5 = u64 [a5 + 0x770]\n 37480: u64 [s1 + 0xc0] = a5\n 37484: a2 = a1 if a4 != 0\n 37487: t0 = u64 [s1 + 0x108]\n 37491: a1 = t0 | t1\n 37494: a4 = ra | t2\n 37497: a1 = a1 | a4\n 37500: a4 = s1 + 0x3118\n 37504: a4 = u64 [a4 + 0x768]\n 37508: u64 [s1 + 0xc8] = a4\n 37512: a1 = a1 <u 0x1\n 37515: a1 = a1 | a2\n 37518: a4 = t2\n 37520: a4 = 0 if a1 != 0\n 37522: a5 = t1\n 37524: a5 = 0 if a1 != 0\n 37526: a2 = ra\n 37528: a2 = 0 if a1 != 0\n 37530: u64 [s1 + 0xb8] = a2\n 37534: t0 = 0 if a1 != 0\n 37536: jump @1436 if a1 != 0\n      : @1418 (gas: 7)\n 37540: a1 = u64 [s1 + 0x180]\n 37544: a1 = a1 ^ 0xff\n 37548: a2 = u64 [s1 + 0x190]\n 37552: a1 = a1 | a2\n 37555: a2 = a3 | a0\n 37558: a1 = a1 | a2\n 37561: jump @1436 if a1 == 0\n      : @1419 (gas: 21)\n 37565: a4 = u64 [s1 + 0x180]\n 37569: a2 = a4 + 0x1\n 37572: u64 [s1 + 0x198] = a2\n 37576: a1 = a2 <u 0x1\n 37579: a1 = a1 + a3\n 37582: u64 [s1 + 0x168] = a1\n 37586: a1 = a1 | a2\n 37589: a1 = a1 <u 0x1\n 37592: a2 = a0\n 37594: a0 = u64 [s1 + 0x190]\n 37598: a1 = a1 + a0\n 37601: u64 [s1 + 0x158] = a1\n 37605: a1 = a1 <u a0\n 37608: a1 = a1 + a2\n 37611: u64 [s1 + 0x160] = a1\n 37615: a1 = 0xff - a4\n 37619: u64 [s1 + 0x190] = a1\n 37623: a2 = 0x80 - a1\n 37627: a0 = u64 [s1 + 0x108]\n 37631: a1 = ra\n 37633: ra = 1462, jump @2455\n      : @1420 [@dyn 731] (gas: 6)\n 37639: u64 [s1 + 0x180] = a0\n 37643: u64 [s1 + 0x178] = a1\n 37647: a0 = u64 [s1 + 0xe0]\n 37651: a1 = u64 [s1 + 0xe8]\n 37655: a2 = u64 [s1 + 0x190]\n 37659: ra = 1464, jump @2460\n      : @1421 [@dyn 732] (gas: 9)\n 37665: u64 [s1 + 0x170] = a0\n 37669: a0 = u64 [s1 + 0x178]\n 37673: a0 = a0 | a1\n 37676: u64 [s1 + 0x178] = a0\n 37680: a0 = u64 [s1 + 0x190]\n 37684: a2 = a0 + 0xffffffffffffff80\n 37687: a0 = u64 [s1 + 0x108]\n 37691: a1 = u64 [s1 + 0xf0]\n 37695: ra = 1466, jump @2460\n      : @1422 [@dyn 733] (gas: 18)\n 37701: a2 = u64 [s1 + 0x190]\n 37705: a4 = a2 <u 0x80\n 37709: u64 [s1 + 0x150] = a4\n 37713: a3 = u64 [s1 + 0x178]\n 37717: a1 = a3 if a4 != 0\n 37720: a3 = u64 [s1 + 0xe8]\n 37724: a1 = a3 if a2 == 0\n 37727: u64 [s1 + 0x178] = a1\n 37731: a1 = u64 [s1 + 0x180]\n 37735: a3 = u64 [s1 + 0x170]\n 37739: a1 = a1 | a3\n 37742: a1 = a0 if a4 == 0\n 37745: a0 = u64 [s1 + 0xe0]\n 37749: a1 = a0 if a2 == 0\n 37752: u64 [s1 + 0x180] = a1\n 37756: a0 = u64 [s1 + 0x108]\n 37760: a1 = u64 [s1 + 0xf0]\n 37764: ra = 1468, jump @2460\n      : @1423 [@dyn 734] (gas: 14)\n 37770: a3 = u64 [s1 + 0x158]\n 37774: a4 = u64 [s1 + 0x160]\n 37778: a2 = u64 [s1 + 0x168]\n 37782: a2 = a2 | a4\n 37785: a4 = s1 + 0x100\n 37789: a5 = u64 [a4 + 0x98]\n 37793: a5 = a5 | a3\n 37796: a2 = a2 | a5\n 37799: a3 = u64 [a4 + 0x50]\n 37802: a1 = 0 if a3 == 0\n 37804: u64 [a4 + 0x70] = a1\n 37807: a0 = 0 if a3 == 0\n 37809: u64 [a4 + 0x90] = a0\n 37813: jump @1425 if a2 != 0\n      : @1424 (gas: 3)\n 37816: a5 = 0\n 37818: u64 [s1 + 304] = 0\n 37822: jump @1434\n      : @1425 (gas: 5)\n 37825: a0 = u64 [s1 + 0x198]\n 37829: a2 = a0 + 0xffffffffffffff80\n 37832: a0 = u64 [s1 + 0xe0]\n 37836: a1 = u64 [s1 + 0xe8]\n 37840: ra = 1470, jump @2455\n      : @1426 [@dyn 735] (gas: 6)\n 37846: u64 [s1 + 0x150] = a0\n 37850: u64 [s1 + 0x140] = a1\n 37854: a0 = u64 [s1 + 0x108]\n 37858: a1 = u64 [s1 + 0xf0]\n 37862: a2 = u64 [s1 + 0x198]\n 37866: ra = 1472, jump @2455\n      : @1427 [@dyn 736] (gas: 3)\n 37872: u64 [s1 + 0x138] = a0\n 37876: u64 [s1 + 0x148] = a1\n 37880: t0 = 1474, jump @2416\n      : @1428 [@dyn 737] (gas: 3)\n 37886: a0 = u64 [s1 + 0xe0]\n 37890: a1 = u64 [s1 + 0xe8]\n 37894: ra = 1476, jump @2460\n      : @1429 [@dyn 738] (gas: 21)\n 37900: a2 = u64 [s1 + 0x148]\n 37904: a1 = a1 | a2\n 37907: a3 = u64 [s1 + 0x198]\n 37911: a4 = a3 <u 0x80\n 37915: u64 [s1 + 0x148] = a4\n 37919: a2 = u64 [s1 + 0x140]\n 37923: a1 = a2 if a4 == 0\n 37926: a2 = u64 [s1 + 0xf0]\n 37930: a2 = a1 if a3 != 0\n 37933: u64 [s1 + 0xf0] = a2\n 37937: a1 = u64 [s1 + 0x138]\n 37941: a0 = a0 | a1\n 37944: a1 = u64 [s1 + 0x150]\n 37948: a0 = a1 if a4 == 0\n 37951: a1 = u64 [s1 + 0x108]\n 37955: a1 = a0 if a3 != 0\n 37958: a2 = a3\n 37960: u64 [s1 + 0x108] = a1\n 37964: a0 = u64 [s1 + 0xe0]\n 37968: a1 = u64 [s1 + 0xe8]\n 37972: ra = 1478, jump @2455\n      : @1430 [@dyn 739] (gas: 4)\n 37978: a5 = 0\n 37980: a4 = 0\n 37982: a2 = u64 [s1 + 0x148]\n 37986: t0 = 1480, jump @2388\n      : @1431 [@dyn 740] (gas: 3)\n 37992: t2 = u64 [s1 + 0xf0]\n 37996: t0 = u64 [s1 + 0x108]\n 38000: fallthrough\n      : @1432 (gas: 57)\n 38001: u64 [s1 + 0x140] = a1\n 38005: u64 [s1 + 0x148] = a5\n 38009: u64 [s1 + 304] = 0\n 38013: a2 = t0 >> 0x3f\n 38016: a3 = t2 << 0x1\n 38019: t1 = a3 | a2\n 38022: a2 = t0 << 0x1\n 38025: ra = u64 [s1 + 0x178]\n 38029: a3 = a4\n 38031: a4 = ra >> 0x3f\n 38034: a4 = a4 | a2\n 38037: u64 [s1 + 0x150] = a4\n 38041: a2 = u64 [s1 + 0x120]\n 38045: a1 = a2 ^ t1\n 38048: u64 [s1 + 0x138] = a1\n 38052: a1 = a2 <u t1\n 38055: a5 = u64 [s1 + 0x128]\n 38059: t0 = a5 <u a4\n 38062: a4 = u64 [s1 + 0x138]\n 38066: t0 = a1 if a4 != 0\n 38069: a1 = u64 [s1 + 0x140]\n 38073: a1 = a1 << 0x1\n 38076: a4 = a0 >> 0x3f\n 38079: a1 = a1 | a4\n 38082: u64 [s1 + 0x140] = a1\n 38086: a4 = t2 >> 0x3f\n 38089: a0 = a0 << 0x1\n 38092: a4 = a4 | a0\n 38095: a0 = ra << 0x1\n 38098: a1 = u64 [s1 + 0x180]\n 38102: a5 = a1 >> 0x3f\n 38105: a0 = a0 | a5\n 38108: u64 [s1 + 0x178] = a0\n 38112: a5 = a1 << 0x1\n 38115: a0 = u64 [s1 + 0x170]\n 38119: a1 = a0 >> 0x3f\n 38122: t2 = a5 | a1\n 38125: a5 = a0 << 0x1\n 38128: a0 = u64 [s1 + 0x190]\n 38132: ra = a0 >> 0x3f\n 38135: a5 = a5 | ra\n 38138: a0 = a0 << 0x1\n 38141: a1 = u64 [s1 + 0x148]\n 38145: a0 = a0 | a1\n 38148: u64 [s1 + 0x190] = a0\n 38152: a0 = a3 | a5\n 38155: u64 [s1 + 0x170] = a0\n 38159: a0 = a3 | t2\n 38162: u64 [s1 + 0x180] = a0\n 38166: a0 = u64 [s1 + 0x178]\n 38170: a0 = a0 | a3\n 38173: u64 [s1 + 0x178] = a0\n 38177: a0 = a2 - a4\n 38180: a0 = a0 <u t0\n 38183: a1 = a2 <u a4\n 38186: a3 = u64 [s1 + 0x140]\n 38190: t0 = 1482, jump @2450\n      : @1433 [@dyn 741] (gas: 30)\n 38196: a1 = u64 [s1 + 0x150]\n 38200: t0 = a1 - a0\n 38203: a1 = a1 <u a0\n 38206: t2 = t1 - a1\n 38209: a1 = 0 if t1 != 0\n 38211: a0 = a4 - a1\n 38214: a1 = a4 <u a1\n 38217: a1 = a3 - a1\n 38220: a3 = u64 [s1 + 0x198]\n 38224: a5 = u64 [s1 + 0x168]\n 38228: a2 = a3 | a5\n 38231: a2 = a2 <u 0x1\n 38234: a4 = u64 [s1 + 0x158]\n 38238: t1 = a4 <u a2\n 38241: a4 = a4 - a2\n 38244: a2 = a3 <u 0x1\n 38247: a5 = a5 - a2\n 38250: a2 = u64 [s1 + 0x160]\n 38254: a2 = a2 - t1\n 38257: a3 = a3 + 0xffffffffffffffff\n 38260: u64 [s1 + 0x168] = a5\n 38264: u64 [s1 + 0x160] = a2\n 38268: a2 = a2 | a5\n 38271: u64 [s1 + 0x198] = a3\n 38275: a3 = a3 | a4\n 38278: a2 = a2 | a3\n 38281: a5 = ra & 0x1\n 38284: u64 [s1 + 0x158] = a4\n 38288: a4 = 0\n 38290: jump @1432 if a2 != 0\n      : @1434 (gas: 7)\n 38294: a2 = u64 [s1 + 0x180]\n 38298: a0 = a2 >> 0x3f\n 38301: a1 = u64 [s1 + 0x178]\n 38305: a1 = a1 << 0x1\n 38308: a0 = a0 | a1\n 38311: a3 = u64 [s1 + 0x170]\n 38315: t0 = 1484, jump @2377\n      : @1435 [@dyn 742] (gas: 8)\n 38321: t0 = a5 | a4\n 38324: a4 = u64 [s1 + 0x130]\n 38328: a2 = a2 | a4\n 38331: a2 = a2 | a3\n 38334: u64 [s1 + 0xb8] = a2\n 38338: a5 = a4 | a1\n 38341: a4 = a4 | a0\n 38344: fallthrough\n      : @1436 (gas: 56)\n 38345: u64 [s1 + 0xe8] = t0\n 38349: u64 [s1 + 0xf0] = a5\n 38353: u64 [s1 + 0x108] = a4\n 38357: a3 = u64 [s1 + 0x118]\n 38361: ra = u64 [s1 + 0xf8]\n 38365: a0 = a3 | ra\n 38368: t0 = u64 [s1 + 0x110]\n 38372: t1 = u64 [s1 + 0x100]\n 38376: a1 = t0 | t1\n 38379: a0 = a0 | a1\n 38382: a0 = a0 <u 0x1\n 38385: u64 [s1 + 0x198] = a0\n 38389: a1 = clz ra\n 38391: a2 = a1 + 0x40\n 38394: a1 = clz t1\n 38396: a1 = a2 if t1 == 0\n 38399: a2 = clz a3\n 38401: a2 = a2 + 0x40\n 38404: a3 = clz t0\n 38406: a3 = a2 if t0 == 0\n 38409: a2 = a3 + 0x80\n 38413: a4 = ra | t1\n 38416: a1 = a2 if a4 == 0\n 38419: a5 = a2 <u a3\n 38422: a5 = 0 if a4 != 0\n 38424: a3 = a5 >u 0\n 38426: a2 = a1 <u 0xed\n 38430: a4 = a2 ^ 0x1\n 38433: a3 = a4 if a5 == 0\n 38436: a2 = a3 <u 0x1\n 38439: t2 = a2 + 0xffffffffffffffff\n 38442: a0 = -a3\n 38444: a5 = -a5\n 38446: a5 = a5 - a4\n 38449: a2 = 0xec - a1\n 38453: u64 [s1 + 0x188] = a0\n 38457: a1 = a0 >u 0\n 38459: a4 = t2 >u 0\n 38461: a4 = a1 if t2 == 0\n 38464: a1 = a5 >u 0\n 38466: u64 [s1 + 0x190] = a2\n 38470: a0 = a2 <u 0x100\n 38474: a0 = a0 ^ 0x1\n 38477: a0 = a1 if a5 != 0\n 38480: a0 = a4 if a3 != 0\n 38483: a2 = u64 [s1 + 0x198]\n 38487: a2 = a2 | a0\n 38490: t1 = 0 if a2 != 0\n 38492: a3 = ra\n 38494: a3 = 0 if a2 != 0\n 38496: a4 = t0\n 38498: a0 = u64 [s1 + 0x118]\n 38502: a4 = 0 if a2 != 0\n 38504: a1 = a0\n 38506: a1 = 0 if a2 != 0\n 38508: jump @1455 if a2 != 0\n      : @1437 (gas: 7)\n 38512: a2 = u64 [s1 + 0x190]\n 38516: a2 = a2 ^ 0xff\n 38520: ra = u64 [s1 + 0x188]\n 38524: t0 = a2 | ra\n 38527: a2 = a5 | t2\n 38530: a2 = t0 | a2\n 38533: jump @1455 if a2 == 0\n      : @1438 (gas: 18)\n 38537: a3 = u64 [s1 + 0x190]\n 38541: a2 = a3 + 0x1\n 38544: u64 [s1 + 0x198] = a2\n 38548: a1 = a2 <u 0x1\n 38551: a1 = a1 + a5\n 38554: u64 [s1 + 0x170] = a1\n 38558: a1 = a1 | a2\n 38561: a1 = a1 <u 0x1\n 38564: a1 = a1 + ra\n 38567: u64 [s1 + 0x160] = a1\n 38571: a1 = a1 <u ra\n 38574: a1 = a1 + t2\n 38577: u64 [s1 + 0x168] = a1\n 38581: a2 = 0xff - a3\n 38585: u64 [s1 + 0x190] = a2\n 38589: a2 = 0x80 - a2\n 38593: a1 = u64 [s1 + 0x110]\n 38597: ra = 1486, jump @2455\n      : @1439 [@dyn 743] (gas: 6)\n 38603: u64 [s1 + 0x188] = a0\n 38607: u64 [s1 + 0x180] = a1\n 38611: a0 = u64 [s1 + 0xf8]\n 38615: a1 = u64 [s1 + 0x100]\n 38619: a2 = u64 [s1 + 0x190]\n 38623: ra = 1488, jump @2460\n      : @1440 [@dyn 744] (gas: 1)\n 38629: t0 = 1490, jump @2425\n      : @1441 [@dyn 745] (gas: 3)\n 38635: a0 = u64 [s1 + 0x118]\n 38639: a1 = u64 [s1 + 0x110]\n 38643: ra = 1492, jump @2460\n      : @1442 [@dyn 746] (gas: 7)\n 38649: a2 = u64 [s1 + 0x190]\n 38653: a3 = a2 <u 0x80\n 38657: u64 [s1 + 0x158] = a3\n 38661: a4 = u64 [s1 + 0x180]\n 38665: a1 = a4 if a3 != 0\n 38668: a4 = u64 [s1 + 0x100]\n 38672: t0 = 1494, jump @2422\n      : @1443 [@dyn 747] (gas: 6)\n 38678: a0 = u64 [s1 + 0xf8]\n 38682: a1 = a0 if a2 == 0\n 38685: u64 [s1 + 0x188] = a1\n 38689: a0 = u64 [s1 + 0x118]\n 38693: a1 = u64 [s1 + 0x110]\n 38697: ra = 1496, jump @2460\n      : @1444 [@dyn 748] (gas: 1)\n 38703: t0 = 1498, jump @2411\n      : @1445 [@dyn 749] (gas: 6)\n 38709: a3 = u64 [a4 + 0x58]\n 38712: a1 = 0 if a3 == 0\n 38714: u64 [a4 + 0x78] = a1\n 38717: a0 = 0 if a3 == 0\n 38719: u64 [a4 + 0x90] = a0\n 38723: jump @1447 if a2 != 0\n      : @1446 (gas: 3)\n 38726: a5 = 0\n 38728: u64 [s1 + 312] = 0\n 38732: jump @1454\n      : @1447 (gas: 6)\n 38735: u64 [s1 + 304] = 0xf4240\n 38742: a0 = u64 [s1 + 0x198]\n 38746: a2 = a0 + 0xffffffffffffff80\n 38749: a0 = u64 [s1 + 0xf8]\n 38753: a1 = u64 [s1 + 0x100]\n 38757: ra = 1500, jump @2455\n      : @1448 [@dyn 750] (gas: 6)\n 38763: u64 [s1 + 0x158] = a0\n 38767: u64 [s1 + 0x148] = a1\n 38771: a0 = u64 [s1 + 0x118]\n 38775: a1 = u64 [s1 + 0x110]\n 38779: a2 = u64 [s1 + 0x198]\n 38783: ra = 1502, jump @2455\n      : @1449 [@dyn 751] (gas: 3)\n 38789: u64 [s1 + 0x140] = a0\n 38793: u64 [s1 + 0x150] = a1\n 38797: t0 = 1504, jump @2416\n      : @1450 [@dyn 752] (gas: 3)\n 38803: a0 = u64 [s1 + 0xf8]\n 38807: a1 = u64 [s1 + 0x100]\n 38811: ra = 1506, jump @2460\n      : @1451 [@dyn 753] (gas: 21)\n 38817: a2 = u64 [s1 + 0x150]\n 38821: a1 = a1 | a2\n 38824: a3 = u64 [s1 + 0x198]\n 38828: a4 = a3 <u 0x80\n 38832: u64 [s1 + 0x150] = a4\n 38836: a2 = u64 [s1 + 0x148]\n 38840: a1 = a2 if a4 == 0\n 38843: a2 = u64 [s1 + 0x110]\n 38847: a2 = a1 if a3 != 0\n 38850: u64 [s1 + 0x110] = a2\n 38854: a1 = u64 [s1 + 0x140]\n 38858: a0 = a0 | a1\n 38861: a1 = u64 [s1 + 0x158]\n 38865: a0 = a1 if a4 == 0\n 38868: a1 = u64 [s1 + 0x118]\n 38872: a1 = a0 if a3 != 0\n 38875: a2 = a3\n 38877: u64 [s1 + 0x118] = a1\n 38881: a0 = u64 [s1 + 0xf8]\n 38885: a1 = u64 [s1 + 0x100]\n 38889: ra = 1508, jump @2455\n      : @1452 [@dyn 754] (gas: 14)\n 38895: a5 = 0\n 38897: a3 = s1 + 0x100\n 38901: a2 = u64 [a3 + 0x50]\n 38904: a1 = 0 if a2 == 0\n 38906: a0 = 0 if a2 == 0\n 38908: a4 = u64 [a3 + 0x30]\n 38911: a2 = a4 + 0xffffffffffffffff\n 38914: u64 [a3 + 0x28] = a2\n 38917: a2 = a4 >u 0\n 38919: a2 = a2 + 0xffffffffffffffff\n 38922: u64 [a3 + 0x20] = a2\n 38925: t2 = u64 [s1 + 0x110]\n 38929: t0 = u64 [s1 + 0x118]\n 38933: fallthrough\n      : @1453 (gas: 90)\n 38934: u64 [s1 + 0x148] = a1\n 38938: u64 [s1 + 0x150] = a5\n 38942: u64 [s1 + 312] = 0\n 38946: a2 = t0 >> 0x3f\n 38949: a3 = t2 << 0x1\n 38952: a3 = a3 | a2\n 38955: a2 = t0 << 0x1\n 38958: ra = u64 [s1 + 0x180]\n 38962: a4 = ra >> 0x3f\n 38965: a4 = a4 | a2\n 38968: u64 [s1 + 0x158] = a4\n 38972: a2 = u64 [s1 + 0x120]\n 38976: a1 = a2 ^ a3\n 38979: u64 [s1 + 0x140] = a1\n 38983: a1 = a2 <u a3\n 38986: a5 = u64 [s1 + 0x128]\n 38990: t0 = a5 <u a4\n 38993: a4 = u64 [s1 + 0x140]\n 38997: t0 = a1 if a4 != 0\n 39000: a1 = u64 [s1 + 0x148]\n 39004: a1 = a1 << 0x1\n 39007: a4 = a0 >> 0x3f\n 39010: a1 = a1 | a4\n 39013: u64 [s1 + 0x148] = a1\n 39017: a4 = t2 >> 0x3f\n 39020: a0 = a0 << 0x1\n 39023: a4 = a4 | a0\n 39026: a0 = ra << 0x1\n 39029: a1 = u64 [s1 + 0x188]\n 39033: a5 = a1 >> 0x3f\n 39036: a0 = a0 | a5\n 39039: u64 [s1 + 0x180] = a0\n 39043: a5 = a1 << 0x1\n 39046: a0 = u64 [s1 + 0x178]\n 39050: a1 = a0 >> 0x3f\n 39053: t2 = a5 | a1\n 39056: a5 = a0 << 0x1\n 39059: a0 = u64 [s1 + 0x190]\n 39063: ra = a0 >> 0x3f\n 39066: a5 = a5 | ra\n 39069: a0 = a0 << 0x1\n 39072: a1 = u64 [s1 + 0x150]\n 39076: a0 = a0 | a1\n 39079: u64 [s1 + 0x190] = a0\n 39083: a0 = a5 | 0\n 39085: u64 [s1 + 0x178] = a0\n 39089: a0 = t2 | 0\n 39091: u64 [s1 + 0x188] = a0\n 39095: a0 = u64 [s1 + 0x180]\n 39099: a0 = a0 | 0\n 39101: u64 [s1 + 0x180] = a0\n 39105: a0 = a2 - a4\n 39108: a0 = a0 <u t0\n 39111: a1 = a2 <u a4\n 39114: t1 = u64 [s1 + 0x148]\n 39118: a5 = a2 - t1\n 39121: a5 = a5 - a1\n 39124: a5 = a5 - a0\n 39127: ra = a5 >>a 0x3f\n 39130: a0 = u64 [s1 + 0x130]\n 39134: a0 = ra & a0\n 39137: a1 = u64 [s1 + 0x158]\n 39141: t0 = a1 - a0\n 39144: a1 = a1 <u a0\n 39147: t2 = a3 - a1\n 39150: a1 = 0 if a3 != 0\n 39152: a0 = a4 - a1\n 39155: a1 = a4 <u a1\n 39158: a1 = t1 - a1\n 39161: a3 = u64 [s1 + 0x198]\n 39165: a5 = u64 [s1 + 0x170]\n 39169: a2 = a3 | a5\n 39172: a2 = a2 <u 0x1\n 39175: a4 = u64 [s1 + 0x160]\n 39179: t1 = a4 <u a2\n 39182: a4 = a4 - a2\n 39185: a2 = a3 <u 0x1\n 39188: a5 = a5 - a2\n 39191: a2 = u64 [s1 + 0x168]\n 39195: a2 = a2 - t1\n 39198: a3 = a3 + 0xffffffffffffffff\n 39201: u64 [s1 + 0x170] = a5\n 39205: u64 [s1 + 0x168] = a2\n 39209: a2 = a2 | a5\n 39212: u64 [s1 + 0x198] = a3\n 39216: a3 = a3 | a4\n 39219: a2 = a2 | a3\n 39222: a5 = ra & 0x1\n 39225: u64 [s1 + 0x160] = a4\n 39229: jump @1453 if a2 != 0\n      : @1454 (gas: 20)\n 39233: a2 = u64 [s1 + 0x188]\n 39237: a0 = a2 >> 0x3f\n 39240: a1 = u64 [s1 + 0x180]\n 39244: a1 = a1 << 0x1\n 39247: a0 = a0 | a1\n 39250: a4 = u64 [s1 + 0x178]\n 39254: a1 = a4 >> 0x3f\n 39257: a2 = a2 << 0x1\n 39260: a2 = a2 | a1\n 39263: a1 = u64 [s1 + 0x190]\n 39267: a3 = a1 >> 0x3f\n 39270: a4 = a4 << 0x1\n 39273: a1 = a1 << 0x1\n 39276: a1 = a1 | a5\n 39279: a5 = u64 [s1 + 0x138]\n 39283: a3 = a3 | a5\n 39286: a4 = a4 | a3\n 39289: a3 = a5 | a2\n 39292: t1 = a5 | a0\n 39295: fallthrough\n      : @1455 (gas: 36)\n 39296: t0 = s1 + 0x3118\n 39300: a0 = u64 [s1 + 0xe8]\n 39304: a2 = t0 + 0x600\n 39308: u64 [a2 + 0xc8] = a0\n 39312: u64 [a2 + 0xe8] = a1\n 39316: a0 = u64 [s1 + 0x98]\n 39320: u64 [t0 + 0x708] = a0\n 39324: a0 = u64 [s1 + 0xb8]\n 39328: u64 [a2 + 0xd0] = a0\n 39332: u64 [a2 + 0xf0] = a4\n 39336: a0 = u64 [s1 + 0xa0]\n 39340: u64 [t0 + 0x710] = a0\n 39344: a0 = u64 [s1 + 0xf0]\n 39348: u64 [a2 + 0xd8] = a0\n 39352: a0 = u64 [s1 + 0xc8]\n 39356: u64 [t0 + 0x728] = a0\n 39360: a0 = u64 [s1 + 0xc0]\n 39364: u64 [t0 + 0x730] = a0\n 39368: u64 [a2 + 0xf8] = a3\n 39372: a0 = u64 [s1 + 0xa8]\n 39376: u64 [t0 + 0x718] = a0\n 39380: a0 = u64 [s1 + 0xd0]\n 39384: u64 [t0 + 0x738] = a0\n 39388: a0 = u64 [s1 + 0x108]\n 39392: u64 [a2 + 0xe0] = a0\n 39396: u64 [t0 + 0x700] = t1\n 39400: a0 = u64 [s1 + 0xb0]\n 39404: u64 [t0 + 0x720] = a0\n 39408: a0 = s1 + 0x3860\n 39412: a1 = s1 + 0x3840\n 39416: a2 = s1 + 0x3820\n 39420: a3 = s1 + 0x3800\n 39424: a4 = s1 + 0x37e0\n 39428: a5 = u64 [s1 + 0xd8]\n 39432: u64 [t0 + 0x740] = a5\n 39436: ra = 1510, jump @2208\n      : @1456 [@dyn 755] (gas: 13)\n 39442: a4 = u64 [s1 + 0xc0]\n 39446: t0 = u64 [s1 + 0xd0]\n 39450: a1 = u64 [s1 + 0xd8]\n 39454: a0 = u64 [s1 + 0xc8]\n 39458: t1 = a0\n 39460: a0 = a0 | t0\n 39463: a1 = a1 | a4\n 39466: a0 = a0 | a1\n 39469: a0 = a0 >> 0x20\n 39472: a1 = a1 | t0\n 39475: a1 = a1 << 0x20\n 39478: a0 = a0 | a1\n 39481: jump @1458 if a0 == 0\n      : @1457 (gas: 1)\n 39484: jump @1912\n      : @1458 (gas: 34)\n 39487: a0 = s1 + 0x3118\n 39491: a2 = a0 + 0x700\n 39495: a1 = u64 [a2 + 0x50]\n 39498: a5 = u64 [a2 + 0x60]\n 39501: u64 [s1 + 0x198] = a5\n 39505: t2 = u64 [a0 + 0x748]\n 39509: a3 = u64 [a2 + 0x58]\n 39512: a0 = a4\n 39514: a4 = a4 ^ a1\n 39517: a5 = a1 <u a0\n 39520: ra = t2 <u t1\n 39523: a5 = ra if a4 == 0\n 39526: a4 = a3 - t0\n 39529: a2 = a4 - a5\n 39532: a4 = a4 <u a5\n 39535: u64 [s1 + 0x190] = a4\n 39539: a3 = a3 <u t0\n 39542: a5 = u64 [s1 + 0x198]\n 39546: a4 = u64 [s1 + 0xd8]\n 39550: a5 = a5 - a4\n 39553: a5 = a5 - a3\n 39556: a3 = u64 [s1 + 0x190]\n 39560: a5 = a5 - a3\n 39563: a0 = a1 - a0\n 39566: a0 = a0 - ra\n 39569: a1 = t2 - t1\n 39572: a0 = a0 | a5\n 39575: a3 = a1 | a2\n 39578: a3 = a3 | a0\n 39581: a0 = a0 | a2\n 39584: a3 = a3 >> 0x20\n 39587: a0 = a0 << 0x20\n 39590: a3 = a3 | a0\n 39593: jump @1460 if a3 == 0\n      : @1459 (gas: 1)\n 39596: jump @1912\n      : @1460 (gas: 4)\n 39599: a0 = t1\n 39601: u64 [s1 + 0x198] = a1\n 39605: ra = 0x5e8\n 39609: jump @31\n      : @1461 (gas: 2)\n 39613: u64 [s1 + 0x198] = a1\n 39617: ra = 1512, jump @31\n      : @1462 [@dyn 756] (gas: 5)\n 39624: i32 a1 = a0 + 0\n 39626: a2 = i32 [s1 + 0x198]\n 39630: a0 = 0\n 39632: ecalli 11 // 'seal_return'\n 39634: jump @1134\n      : @1463 (gas: 8)\n 39637: a2 = s1 + 0x1118\n 39641: u64 [a2 + 1600] = 0\n 39645: u64 [a2 + 1592] = 0\n 39649: u64 [a2 + 1584] = 0\n 39653: a1 = s1 + 0x1740\n 39657: u64 [a2 + 1576] = 0x4\n 39662: a0 = 0\n 39664: ra = 1514, jump @19\n      : @1464 [@dyn 757] (gas: 6)\n 39671: a0 = sp + 0xffffffffffffffe0\n 39674: a0 = a0 & 0xffffffffffffffe0\n 39677: u64 [s1 + 0x138] = a0\n 39681: sp = a0\n 39683: a1 = i32 [0x2019c]\n 39688: jump @1466 if a1 >u 31\n      : @1465 (gas: 4)\n 39692: a1 = 0x20\n 39695: u32 [0x2019c] = a1\n 39700: t0 = 0x5ec\n 39704: jump @2434\n      : @1466 (gas: 1)\n 39707: t0 = 1516, jump @2434\n      : @1467 [@dyn 758] (gas: 6)\n 39713: a0 = 0x201b0\n 39718: i32 a0 = a0 + 0\n 39720: i32 a2 = a2 + 0\n 39722: a1 = 0x20\n 39725: ecalli 7 // 'hash_keccak_256'\n 39727: t0 = 1518, jump @2341\n      : @1468 [@dyn 759] (gas: 19)\n 39733: t0 = u64 [s1 + 0x138]\n 39737: a3 = a2\n 39739: a5 = t0\n 39741: u64 [a5 + 0x18] = a2\n 39744: u64 [s1 + 0x160] = ra\n 39748: u64 [t0 + 0x10] = ra\n 39751: ra = a1\n 39753: u64 [a5 + 0x8] = a1\n 39756: a2 = a0\n 39758: u64 [a5] = a0\n 39760: a5 = s1 + 0x100\n 39764: a0 = u64 [a5]\n 39766: a4 = a4 + a0\n 39769: u64 [a5 + 0x20] = a4\n 39772: a0 = a4 <u a0\n 39775: a1 = u64 [s1 + 0xf8]\n 39779: a0 = a0 + a1\n 39782: u64 [a5 + 0x18] = a0\n 39785: fallthrough\n      : @1469 (gas: 22)\n 39786: a5 = s1 + 0x100\n 39790: u64 [a5 + 0x68] = a3\n 39793: u64 [s1 + 0x170] = ra\n 39797: u64 [a5 + 0x78] = a2\n 39800: a0 = u64 [a5 + 0x40]\n 39803: a1 = u64 [a5 + 0x98]\n 39807: a0 = a1 <u a0\n 39810: a2 = u64 [a5 + 0x50]\n 39813: a1 = t2 ^ a2\n 39816: a2 = t2 <u a2\n 39819: a2 = a0 if a1 == 0\n 39822: a4 = u64 [a5 + 0x48]\n 39825: a0 = t1 <u a4\n 39828: a3 = u64 [a5 + 0x58]\n 39831: a1 = u64 [a5 + 0x90]\n 39835: a5 = a1 ^ a3\n 39838: a3 = a1 <u a3\n 39841: a3 = a0 if a5 == 0\n 39844: a0 = t1 ^ a4\n 39847: a0 = a0 | a5\n 39850: a3 = a2 if a0 == 0\n 39853: jump @1502 if a3 == 0\n      : @1470 (gas: 5)\n 39857: a0 = s1 + 0x1720\n 39861: a1 = t0\n 39863: u64 [s1 + 0x188] = t1\n 39867: u64 [s1 + 0x180] = t2\n 39871: ra = 1520, jump @21\n      : @1471 [@dyn 760] (gas: 1)\n 39878: t0 = 1522, jump @2351\n      : @1472 [@dyn 761] (gas: 6)\n 39884: t0 = a1 <u a5\n 39887: a5 = u64 [s1 + 0x190]\n 39891: a3 = u64 [s1 + 0x118]\n 39895: a5 = a5 + a3\n 39898: a5 = a5 + t0\n 39901: t0 = 1524, jump @2409\n      : @1473 [@dyn 762] (gas: 1)\n 39907: jump @1475 if a1 == 0\n      : @1474 (gas: 1)\n 39910: jump @1912\n      : @1475 (gas: 14)\n 39913: a5 = s1 + 0x1118\n 39917: t0 = u64 [a5 + 0x620]\n 39921: a3 = a5 + 0x600\n 39925: a1 = u64 [a3 + 0x18]\n 39928: a2 = u64 [a3 + 0x10]\n 39931: a4 = u64 [a3 + 0x8]\n 39934: a3 = a5 + 0x500\n 39938: u64 [a3 + 0xe8] = a4\n 39942: u64 [a3 + 0xf0] = a2\n 39946: u64 [a3 + 0xf8] = a1\n 39950: a1 = s1 + 0x1700\n 39954: u64 [a5 + 0x600] = t0\n 39958: u64 [s1 + 0x198] = t2\n 39962: ra = 1526, jump @19\n      : @1476 [@dyn 763] (gas: 31)\n 39969: t0 = u64 [s1 + 0x178]\n 39973: t0 = t0 + 0x1\n 39976: a0 = t0 <u 0x1\n 39979: a3 = u64 [s1 + 0x170]\n 39983: a3 = a3 + a0\n 39986: a0 = t0 | a3\n 39989: a0 = a0 <u 0x1\n 39992: a1 = u64 [s1 + 0x160]\n 39996: t2 = a1 + a0\n 39999: a1 = t2 <u a1\n 40002: a0 = u64 [s1 + 0x168]\n 40006: a0 = a0 + a1\n 40009: a1 = u64 [s1 + 0x198]\n 40013: t1 = a1 + 0x20\n 40016: a2 = t1 <u a1\n 40019: a4 = u64 [s1 + 0x180]\n 40023: a1 = a4 + a2\n 40026: a4 = a1 <u a4\n 40029: a4 = a2 if a2 == 0\n 40032: a2 = u64 [s1 + 0x188]\n 40036: a4 = a4 + a2\n 40039: a2 = a4 <u a2\n 40042: a5 = u64 [s1 + 0x190]\n 40046: a5 = a5 + a2\n 40049: u64 [s1 + 0x190] = a5\n 40053: ra = a3\n 40055: a5 = u64 [s1 + 0x138]\n 40059: u64 [a5 + 0x8] = a3\n 40062: a2 = t0\n 40064: u64 [a5] = t0\n 40066: t0 = 1528, jump @2454\n      : @1477 [@dyn 764] (gas: 2)\n 40072: t0 = a5\n 40074: jump @1469\n      : @1478 (gas: 46)\n 40077: a0 = t0 | a4\n 40080: a2 = a5 | t1\n 40083: a0 = a0 | a2\n 40086: a0 = a0 <u 0x1\n 40089: u64 [s1 + 0x198] = a0\n 40093: a2 = clz a4\n 40095: a3 = a2 + 0x40\n 40098: a2 = clz t1\n 40100: a2 = a3 if t1 == 0\n 40103: a3 = clz t0\n 40105: a3 = a3 + 0x40\n 40108: a4 = clz a5\n 40110: a4 = a3 if a5 == 0\n 40113: a3 = a4 + 0x80\n 40117: a2 = a3 if a1 == 0\n 40120: a4 = a3 <u a4\n 40123: a4 = 0 if a1 != 0\n 40125: a3 = a4 >u 0\n 40127: a1 = a2 <u 0xfd\n 40131: a5 = a1 ^ 0x1\n 40134: a3 = a5 if a4 == 0\n 40137: a1 = a3 <u 0x1\n 40140: ra = a1 + 0xffffffffffffffff\n 40143: a0 = -a3\n 40145: a4 = -a4\n 40147: t1 = a4 - a5\n 40150: a5 = a0\n 40152: t2 = 0xfc - a2\n 40156: a4 = a0 >u 0\n 40158: a0 = ra >u 0\n 40160: a0 = a4 if ra == 0\n 40163: a4 = t1 >u 0\n 40165: a2 = t2 <u 0x100\n 40169: a2 = a2 ^ 0x1\n 40172: a2 = a4 if t1 != 0\n 40175: a2 = a0 if a3 != 0\n 40178: a0 = u64 [s1 + 0x198]\n 40182: a2 = a2 | a0\n 40185: a0 = u64 [s1 + 0xf0]\n 40189: a0 = 0 if a2 != 0\n 40191: a4 = u64 [s1 + 0xe8]\n 40195: a4 = 0 if a2 != 0\n 40197: a3 = u64 [s1 + 0x100]\n 40201: a3 = 0 if a2 != 0\n 40203: t0 = 0 if a2 != 0\n 40205: jump @1480 if a2 == 0\n      : @1479 (gas: 1)\n 40208: jump @1654\n      : @1480 (gas: 5)\n 40211: a2 = t2 ^ 0xff\n 40215: a2 = a2 | a5\n 40218: a1 = t1 | ra\n 40221: a1 = a1 | a2\n 40224: jump @1482 if a1 != 0\n      : @1481 (gas: 1)\n 40227: jump @1654\n      : @1482 (gas: 18)\n 40230: a1 = t2 + 0x1\n 40233: u64 [s1 + 0x198] = a1\n 40237: a0 = a1 <u 0x1\n 40240: a0 = a0 + t1\n 40243: u64 [s1 + 0x178] = a0\n 40247: a0 = a0 | a1\n 40250: a0 = a0 <u 0x1\n 40253: a0 = a0 + a5\n 40256: u64 [s1 + 0x168] = a0\n 40260: a0 = a0 <u a5\n 40263: a0 = a0 + ra\n 40266: u64 [s1 + 0x170] = a0\n 40270: a1 = 0xff - t2\n 40274: u64 [s1 + 0x190] = a1\n 40278: a2 = 0x80 - a1\n 40282: a0 = u64 [s1 + 0xf8]\n 40286: a1 = u64 [s1 + 0x100]\n 40290: ra = 1530, jump @2455\n      : @1483 [@dyn 765] (gas: 6)\n 40296: u64 [s1 + 0x188] = a0\n 40300: u64 [s1 + 0x160] = a1\n 40304: a0 = u64 [s1 + 0xe8]\n 40308: a1 = u64 [s1 + 0xf0]\n 40312: a2 = u64 [s1 + 0x190]\n 40316: ra = 1532, jump @2460\n      : @1484 [@dyn 766] (gas: 1)\n 40322: t0 = 1534, jump @2424\n      : @1485 [@dyn 767] (gas: 3)\n 40328: a0 = u64 [s1 + 0xf8]\n 40332: a1 = u64 [s1 + 0x100]\n 40336: ra = 1536, jump @2460\n      : @1486 [@dyn 768] (gas: 1)\n 40342: t0 = 1538, jump @2436\n      : @1487 [@dyn 769] (gas: 2)\n 40348: a4 = u64 [s1 + 0xf0]\n 40352: t0 = 1540, jump @2421\n      : @1488 [@dyn 770] (gas: 6)\n 40358: a0 = u64 [s1 + 0xe8]\n 40362: a1 = a0 if a2 == 0\n 40365: u64 [s1 + 0x188] = a1\n 40369: a0 = u64 [s1 + 0xf8]\n 40373: a1 = u64 [s1 + 0x100]\n 40377: ra = 1542, jump @2460\n      : @1489 [@dyn 771] (gas: 1)\n 40383: t0 = 1544, jump @2362\n      : @1490 [@dyn 772] (gas: 1)\n 40389: jump @1492 if a3 == 0\n      : @1491 (gas: 1)\n 40392: jump @1642\n      : @1492 (gas: 4)\n 40395: a5 = 0\n 40397: u64 [s1 + 312] = 0\n 40401: ra = u64 [s1 + 0x150]\n 40405: jump @1652\n      : @1493 (gas: 2)\n 40408: a5 = u64 [s1 + 0x110]\n 40412: fallthrough\n      : @1494 (gas: 24)\n 40413: a1 = u64 [s1 + 0x198]\n 40417: a0 = a1 + 0x20\n 40420: a1 = a0 <u a1\n 40423: a2 = t2 + a1\n 40426: a3 = a2 <u t2\n 40429: a3 = a1 if a1 == 0\n 40432: a3 = a3 + t1\n 40435: a1 = a3 <u t1\n 40438: a4 = u64 [s1 + 0x190]\n 40442: a4 = a4 + a1\n 40445: u64 [s1 + 0x260] = a5\n 40449: u64 [s1 + 0x240] = a0\n 40453: a0 = u64 [s1 + 0x108]\n 40457: u64 [s1 + 0x268] = a0\n 40461: a0 = u64 [s1 + 0x100]\n 40465: u64 [s1 + 0x270] = a0\n 40469: u64 [s1 + 0x248] = a2\n 40473: a0 = u64 [s1 + 0xf8]\n 40477: u64 [s1 + 0x278] = a0\n 40481: u64 [s1 + 0x250] = a3\n 40485: a0 = s1 + 0x260\n 40489: a1 = s1 + 0x240\n 40493: u64 [s1 + 0x258] = a4\n 40497: ra = 1546, jump @2177\n      : @1495 [@dyn 773] (gas: 3)\n 40503: a0 = s1 + 0x220\n 40507: a1 = 0x40\n 40510: ra = 1548, jump @17\n      : @1496 [@dyn 774] (gas: 13)\n 40517: a1 = s1 + 0x200\n 40521: a4 = u64 [a1 + 0x38]\n 40524: a5 = u64 [a1 + 0x30]\n 40527: a3 = u64 [a1 + 0x28]\n 40530: a0 = u64 [a1 + 0x20]\n 40533: a2 = a3 | a4\n 40536: a1 = a0 | a5\n 40539: a1 = a1 | a2\n 40542: a1 = a1 >> 0x20\n 40545: a2 = a2 | a5\n 40548: a2 = a2 << 0x20\n 40551: a1 = a1 | a2\n 40554: jump @1498 if a1 == 0\n      : @1497 (gas: 1)\n 40557: jump @1912\n      : @1498 (gas: 10)\n 40560: u64 [s1 + 536] = 0\n 40564: u64 [s1 + 528] = 0\n 40568: u64 [s1 + 520] = 0\n 40572: a1 = s1 + 0x200\n 40576: u64 [s1 + 512] = 0x20\n 40581: u64 [s1 + 0x198] = a0\n 40585: u64 [s1 + 0x180] = a3\n 40589: u64 [s1 + 0x190] = a4\n 40593: u64 [s1 + 0x188] = a5\n 40597: ra = 1550, jump @19\n      : @1499 [@dyn 775] (gas: 4)\n 40604: a0 = u64 [s1 + 0x198]\n 40608: a0 = a0 + 0x20\n 40611: a1 = u64 [s1 + 0x198]\n 40615: t0 = 1552, jump @2386\n      : @1500 [@dyn 776] (gas: 21)\n 40621: a1 = u64 [s1 + 0x188]\n 40625: a3 = a3 + a1\n 40628: a1 = a3 <u a1\n 40631: a4 = u64 [s1 + 0x190]\n 40635: a4 = a4 + a1\n 40638: u64 [s1 + 0x1a8] = a2\n 40642: u64 [s1 + 0x1a0] = a0\n 40646: a0 = u64 [s1 + 0xf8]\n 40650: u64 [s1 + 0x1d8] = a0\n 40654: a0 = u64 [s1 + 0x100]\n 40658: u64 [s1 + 0x1d0] = a0\n 40662: a0 = u64 [s1 + 0x108]\n 40666: u64 [s1 + 0x1c8] = a0\n 40670: a0 = u64 [s1 + 0x110]\n 40674: u64 [s1 + 0x1c0] = a0\n 40678: u64 [s1 + 0x1b0] = a3\n 40682: a0 = s1 + 0x1e0\n 40686: a1 = s1 + 0x1c0\n 40690: a2 = s1 + 0x1a0\n 40694: u64 [s1 + 0x1b8] = a4\n 40698: ra = 1554, jump @2120\n      : @1501 [@dyn 777] (gas: 5)\n 40704: a1 = u64 [s1 + 0x1e8]\n 40708: t0 = u64 [s1 + 0x1f8]\n 40712: t1 = u64 [s1 + 0x1e0]\n 40716: a3 = u64 [s1 + 0x1f0]\n 40720: jump @1510\n      : @1502 (gas: 3)\n 40723: a5 = s1 + 0x1118\n 40727: t0 = u64 [s1 + 0x110]\n 40731: fallthrough\n      : @1503 (gas: 25)\n 40732: a1 = u64 [s1 + 0x198]\n 40736: a0 = a1 + 0x20\n 40739: a1 = a0 <u a1\n 40742: a2 = t2 + a1\n 40745: a3 = a2 <u t2\n 40748: a3 = a1 if a1 == 0\n 40751: a3 = a3 + t1\n 40754: a1 = a3 <u t1\n 40757: a4 = u64 [s1 + 0x190]\n 40761: a4 = a4 + a1\n 40764: u64 [a5 + 0x5a8] = t0\n 40768: u64 [a5 + 0x588] = a0\n 40772: a0 = u64 [s1 + 0x108]\n 40776: u64 [a5 + 0x5b0] = a0\n 40780: a0 = u64 [s1 + 0x100]\n 40784: u64 [a5 + 0x5b8] = a0\n 40788: u64 [a5 + 0x590] = a2\n 40792: a0 = u64 [s1 + 0xf8]\n 40796: a2 = a5 + 0x500\n 40800: u64 [a2 + 0xc0] = a0\n 40804: u64 [a2 + 0x98] = a3\n 40808: a0 = s1 + 0x16c0\n 40812: a1 = s1 + 0x16a0\n 40816: u64 [a2 + 0xa0] = a4\n 40820: ra = 1556, jump @2177\n      : @1504 [@dyn 778] (gas: 3)\n 40826: a0 = s1 + 0x1680\n 40830: a1 = 0x40\n 40833: ra = 1558, jump @17\n      : @1505 [@dyn 779] (gas: 14)\n 40840: a4 = s1 + 0x1118\n 40844: a1 = a4 + 0x500\n 40848: a3 = u64 [a1 + 0x80]\n 40852: a5 = u64 [a1 + 0x78]\n 40855: t0 = u64 [a4 + 0x570]\n 40859: a0 = u64 [a1 + 0x68]\n 40862: a2 = t0 | a3\n 40865: a1 = a0 | a5\n 40868: a1 = a1 | a2\n 40871: a1 = a1 >> 0x20\n 40874: a2 = a2 | a5\n 40877: a2 = a2 << 0x20\n 40880: a1 = a1 | a2\n 40883: jump @1507 if a1 == 0\n      : @1506 (gas: 1)\n 40886: jump @1912\n      : @1507 (gas: 10)\n 40889: u64 [a4 + 1376] = 0\n 40893: u64 [a4 + 1368] = 0\n 40897: u64 [a4 + 1360] = 0\n 40901: u64 [s1 + 0x190] = a3\n 40905: a1 = s1 + 0x1660\n 40909: u64 [a4 + 1352] = 0x20\n 40914: u64 [s1 + 0x198] = a0\n 40918: u64 [s1 + 0x180] = t0\n 40922: u64 [s1 + 0x188] = a5\n 40926: ra = 1560, jump @19\n      : @1508 [@dyn 780] (gas: 33)\n 40933: a5 = s1 + 0x100\n 40937: a0 = u64 [a5 + 0x98]\n 40941: a0 = a0 + 0x20\n 40944: a1 = u64 [a5 + 0x98]\n 40948: a1 = a0 <u a1\n 40951: a3 = u64 [a5 + 0x80]\n 40955: a2 = a3 + a1\n 40958: a3 = a2 <u a3\n 40961: a3 = a1 if a1 == 0\n 40964: a1 = u64 [a5 + 0x88]\n 40968: a3 = a3 + a1\n 40971: a1 = a3 <u a1\n 40974: a4 = u64 [a5 + 0x90]\n 40978: a4 = a4 + a1\n 40981: a1 = s1 + 0x1118\n 40985: u64 [a1 + 0x4f0] = a2\n 40989: u64 [a1 + 0x4e8] = a0\n 40993: a0 = u64 [s1 + 0xf8]\n 40997: a2 = a1 + 0x500\n 41001: u64 [a2 + 0x20] = a0\n 41004: a0 = u64 [a5]\n 41006: u64 [a2 + 0x18] = a0\n 41009: a0 = u64 [a5 + 0x8]\n 41012: u64 [a2 + 0x10] = a0\n 41015: a0 = u64 [a5 + 0x10]\n 41018: u64 [a2 + 0x8] = a0\n 41021: u64 [a1 + 0x4f8] = a3\n 41025: a3 = a1\n 41027: a0 = s1 + 0x1640\n 41031: a1 = s1 + 0x1620\n 41035: a2 = s1 + 0x1600\n 41039: u64 [a3 + 0x500] = a4\n 41043: ra = 1562, jump @2120\n      : @1509 [@dyn 781] (gas: 6)\n 41049: a0 = s1 + 0x1118\n 41053: a1 = u64 [a0 + 0x530]\n 41057: t0 = u64 [a0 + 0x540]\n 41061: t1 = u64 [a0 + 0x528]\n 41065: a3 = u64 [a0 + 0x538]\n 41069: fallthrough\n      : @1510 (gas: 13)\n 41070: a2 = s1 + 0x100\n 41074: a0 = u64 [a2 + 0x80]\n 41078: a4 = a1 ^ a0\n 41081: a5 = a1 <u a0\n 41084: ra = a0\n 41086: a0 = u64 [a2 + 0x98]\n 41090: t2 = t1 <u a0\n 41093: a5 = t2 if a4 == 0\n 41096: a0 = u64 [a2 + 0x88]\n 41100: a4 = a3 - a0\n 41103: a3 = a3 <u a0\n 41106: a0 = u64 [a2 + 0x90]\n 41110: fallthrough\n      : @1511 (gas: 17)\n 41111: a2 = t0 - a0\n 41114: a2 = a2 - a3\n 41117: a3 = a4 <u a5\n 41120: a2 = a2 - a3\n 41123: a0 = u64 [s1 + 0x198]\n 41127: a4 = a4 - a5\n 41130: a1 = a1 - ra\n 41133: a3 = a1 - t2\n 41136: a1 = t1 - a0\n 41139: a2 = a2 | a3\n 41142: a3 = a1 | a4\n 41145: a3 = a3 | a2\n 41148: a2 = a2 | a4\n 41151: a3 = a3 >> 0x20\n 41154: a2 = a2 << 0x20\n 41157: a2 = a2 | a3\n 41160: jump @1461 if a2 == 0\n      : @1512 (gas: 1)\n 41164: jump @1912\n      : @1513 (gas: 5)\n 41167: a0 = u64 [s1 + 0x198]\n 41171: a2 = a0 + 0xffffffffffffff80\n 41174: a0 = u64 [s1 + 0x110]\n 41178: a1 = u64 [s1 + 0x108]\n 41182: ra = 1564, jump @2455\n      : @1514 [@dyn 782] (gas: 6)\n 41188: u64 [s1 + 0x158] = a0\n 41192: u64 [s1 + 0x160] = a1\n 41196: a0 = u64 [s1 + 0x120]\n 41200: a1 = u64 [s1 + 0x118]\n 41204: a2 = u64 [s1 + 0x198]\n 41208: ra = 1566, jump @2455\n      : @1515 [@dyn 783] (gas: 3)\n 41214: u64 [s1 + 0x140] = a0\n 41218: u64 [s1 + 0x148] = a1\n 41222: t0 = 1568, jump @2416\n      : @1516 [@dyn 784] (gas: 3)\n 41228: a0 = u64 [s1 + 0x110]\n 41232: a1 = u64 [s1 + 0x108]\n 41236: ra = 1570, jump @2460\n      : @1517 [@dyn 785] (gas: 1)\n 41242: t0 = 1572, jump @2406\n      : @1518 [@dyn 786] (gas: 2)\n 41248: a4 = u64 [s1 + 0x118]\n 41252: t0 = 1574, jump @2423\n      : @1519 [@dyn 787] (gas: 6)\n 41258: a1 = u64 [s1 + 0x120]\n 41262: a0 = a1 if a2 == 0\n 41265: u64 [s1 + 0x158] = a0\n 41269: a0 = u64 [s1 + 0x110]\n 41273: a1 = u64 [s1 + 0x108]\n 41277: ra = 1576, jump @2455\n      : @1520 [@dyn 788] (gas: 1)\n 41283: t0 = 1578, jump @2367\n      : @1521 [@dyn 789] (gas: 1)\n 41289: t0 = 1580, jump @2347\n      : @1522 [@dyn 790] (gas: 75)\n 41295: t0 = a2 <u a4\n 41298: a2 = u64 [s1 + 0x158]\n 41302: t0 = a1 if a2 != 0\n 41305: a1 = u64 [s1 + 0x140]\n 41309: a1 = a1 << 0x1\n 41312: a4 = a0 >> 0x3f\n 41315: a1 = a1 | a4\n 41318: u64 [s1 + 0x140] = a1\n 41322: a4 = a5 >> 0x3f\n 41325: a0 = a0 << 0x1\n 41328: a4 = a4 | a0\n 41331: a0 = ra << 0x1\n 41334: a1 = u64 [s1 + 0x188]\n 41338: a5 = a1 >> 0x3f\n 41341: a0 = a0 | a5\n 41344: u64 [s1 + 0x160] = a0\n 41348: a5 = a1 << 0x1\n 41351: a0 = u64 [s1 + 0x180]\n 41355: a1 = a0 >> 0x3f\n 41358: a1 = a1 | a5\n 41361: a5 = a0 << 0x1\n 41364: a0 = u64 [s1 + 0x190]\n 41368: ra = a0 >> 0x3f\n 41371: a5 = a5 | ra\n 41374: a0 = a0 << 0x1\n 41377: a2 = u64 [s1 + 0x148]\n 41381: a0 = a0 | a2\n 41384: u64 [s1 + 0x190] = a0\n 41388: a0 = t2 | a5\n 41391: u64 [s1 + 0x180] = a0\n 41395: a0 = t2 | a1\n 41398: u64 [s1 + 0x188] = a0\n 41402: a0 = u64 [s1 + 0x160]\n 41406: ra = t2 | a0\n 41409: a0 = a3 - a4\n 41412: a0 = a0 <u t0\n 41415: a1 = a3 <u a4\n 41418: t2 = u64 [s1 + 0x140]\n 41422: a5 = a3 - t2\n 41425: a5 = a5 - a1\n 41428: a5 = a5 - a0\n 41431: t0 = a5 >>a 0x3f\n 41434: a0 = t0 & 0xa\n 41437: a2 = u64 [s1 + 0x150]\n 41441: a1 = a2 - a0\n 41444: u64 [s1 + 0x158] = a1\n 41448: a1 = a2 <u a0\n 41451: a0 = t1 - a1\n 41454: u64 [s1 + 0x160] = a0\n 41458: a1 = 0 if t1 != 0\n 41460: a0 = a4 - a1\n 41463: a1 = a4 <u a1\n 41466: a1 = t2 - a1\n 41469: a3 = u64 [s1 + 0x198]\n 41473: a5 = u64 [s1 + 0x178]\n 41477: a2 = a3 | a5\n 41480: a2 = a2 <u 0x1\n 41483: a4 = u64 [s1 + 0x168]\n 41487: t1 = a4 <u a2\n 41490: a4 = a4 - a2\n 41493: a2 = a3 <u 0x1\n 41496: a5 = a5 - a2\n 41499: a2 = u64 [s1 + 0x170]\n 41503: a2 = a2 - t1\n 41506: a3 = a3 + 0xffffffffffffffff\n 41509: u64 [s1 + 0x178] = a5\n 41513: u64 [s1 + 0x170] = a2\n 41517: a2 = a2 | a5\n 41520: u64 [s1 + 0x198] = a3\n 41524: a3 = a3 | a4\n 41527: a2 = a2 | a3\n 41530: a5 = t0 & 0x1\n 41533: u64 [s1 + 0x168] = a4\n 41537: t2 = 0\n 41539: jump @1521 if a2 != 0\n      : @1523 (gas: 19)\n 41543: a2 = u64 [s1 + 0x188]\n 41547: a0 = a2 >> 0x3f\n 41550: a1 = ra << 0x1\n 41553: a1 = a1 | a0\n 41556: a4 = u64 [s1 + 0x180]\n 41560: a0 = a4 >> 0x3f\n 41563: a2 = a2 << 0x1\n 41566: a2 = a2 | a0\n 41569: a0 = u64 [s1 + 0x190]\n 41573: a3 = a0 >> 0x3f\n 41576: a4 = a4 << 0x1\n 41579: a0 = a0 << 0x1\n 41582: t1 = a5 | a0\n 41585: a0 = u64 [s1 + 0x138]\n 41589: a3 = a3 | a0\n 41592: a4 = a4 | a3\n 41595: a5 = a0 | a2\n 41598: t0 = a0 | a1\n 41601: fallthrough\n      : @1524 (gas: 23)\n 41602: a2 = 0x3b9aca00\n 41608: a3 = t1 mulhu a2\n 41611: a1 = a4 * a2\n 41614: a3 = a3 + a1\n 41617: u64 [s1 + 0x180] = a3\n 41621: a1 = a3 <u a1\n 41624: a3 = a4 mulhu a2\n 41627: a1 = a1 + a3\n 41630: a3 = a5 * a2\n 41633: a3 = a3 + a1\n 41636: u64 [s1 + 0x178] = a3\n 41640: a3 = a3 <u a1\n 41643: a4 = a5 mulhu a2\n 41646: a5 = t0 * a2\n 41649: a5 = a5 + a4\n 41652: a1 = u64 [s1 + 0x120]\n 41656: a1 = a1 <u 0xa\n 41659: a0 = u64 [s1 + 0x118]\n 41663: a1 = 0 if a0 != 0\n 41665: a0 = u64 [s1 + 0x100]\n 41669: a1 = 0 if a0 != 0\n 41671: a0 = a5 + a3\n 41674: jump @1527 if a1 != 0\n      : @1525 (gas: 7)\n 41677: a3 = 0 if a0 != 0\n 41679: a1 = a5 <u a4\n 41682: a4 = t0 mulhu a2\n 41685: a4 = a4 >u 0\n 41687: a1 = a1 | a4\n 41690: a1 = a1 | a3\n 41693: jump @1527 if a1 == 0\n      : @1526 (gas: 1)\n 41696: jump @2063\n      : @1527 (gas: 11)\n 41699: u64 [s1 + 0x170] = a0\n 41703: a0 = t1 * 0x3b9aca00\n 41709: u64 [s1 + 0x168] = a0\n 41713: a0 = 0x301b0\n 41718: u64 [s1 + 0x198] = a0\n 41722: i32 a0 = a0 + 0\n 41724: u64 [s1 + 0x160] = a0\n 41728: ra = 0x62e\n 41732: ecalli 4 // 'caller'\n 41734: t0 = 0x630\n 41738: jump @2358\n      : @1528 [@dyn 791] (gas: 1)\n 41741: t0 = 1584, jump @2358\n      : @1529 [@dyn 792] (gas: 8)\n 41747: u64 [a2 + 1888] = 0\n 41751: a4 = a2 + 0x700\n 41755: u64 [a4 + 0x58] = a1\n 41758: u64 [a4 + 0x50] = a0\n 41761: a1 = s1 + 0x2860\n 41765: u64 [a4 + 0x48] = a3\n 41768: a0 = 0\n 41770: ra = 1586, jump @19\n      : @1530 [@dyn 793] (gas: 3)\n 41777: t0 = 0x634\n 41781: a1 = s1 + 0x2118\n 41785: fallthrough\n      : @1531 [@dyn 794] (gas: 8)\n 41786: u64 [a1 + 1856] = 0\n 41790: u64 [a1 + 1848] = 0\n 41794: u64 [a1 + 1832] = 0xa\n 41799: a2 = a1\n 41801: a0 = 0x20\n 41804: a1 = s1 + 0x2840\n 41808: u64 [a2 + 1840] = 0\n 41812: ra = 1590, jump @19\n      : @1532 [@dyn 795] (gas: 6)\n 41819: a0 = sp + 0xffffffffffffffe0\n 41822: a0 = a0 & 0xffffffffffffffe0\n 41825: u64 [s1 + 0x190] = a0\n 41829: sp = a0\n 41831: a1 = i32 [0x2019c]\n 41836: jump @1534 if a1 >u 63\n      : @1533 (gas: 4)\n 41840: a1 = 0x40\n 41843: u32 [0x2019c] = a1\n 41848: t0 = 0x638\n 41852: jump @2434\n      : @1534 (gas: 1)\n 41855: t0 = 1592, jump @2434\n      : @1535 [@dyn 796] (gas: 10)\n 41861: a0 = 0x201b0\n 41866: i32 a0 = a0 + 0\n 41868: i32 a2 = a2 + 0\n 41870: a1 = 0x40\n 41873: u64 [s1 + 0x148] = a0\n 41877: ra = 0x63a\n 41881: ecalli 7 // 'hash_keccak_256'\n 41883: a3 = u64 [s1 + 0x188]\n 41887: t0 = 0x63c\n 41891: jump @2343\n      : @1536 [@dyn 797] (gas: 2)\n 41894: a3 = u64 [s1 + 0x188]\n 41898: t0 = 1596, jump @2343\n      : @1537 [@dyn 798] (gas: 15)\n 41904: a4 = a3 + 0x3\n 41907: a3 = a4 <u a3\n 41910: a5 = a2 + a3\n 41913: a2 = a5 <u a2\n 41916: a2 = a3 if a3 == 0\n 41919: a2 = a2 + a1\n 41922: a1 = a2 <u a1\n 41925: a0 = a0 + a1\n 41928: a1 = u64 [s1 + 0x190]\n 41932: u64 [a1] = a4\n 41934: u64 [a1 + 0x8] = a5\n 41937: u64 [a1 + 0x10] = a2\n 41940: u64 [a1 + 0x18] = a0\n 41943: a0 = s1 + 0x2820\n 41947: ra = 1598, jump @21\n      : @1538 [@dyn 799] (gas: 23)\n 41954: a5 = s1 + 0x2118\n 41958: a4 = a5 + 0x700\n 41962: a3 = u64 [a4 + 0x8]\n 41965: a0 = u64 [a4 + 0x10]\n 41968: a1 = u64 [a4 + 0x18]\n 41971: a2 = u64 [a4 + 0x20]\n 41974: a4 = u64 [s1 + 0x108]\n 41978: u64 [a5 + 0x6c0] = a4\n 41982: a4 = u64 [s1 + 0x110]\n 41986: u64 [a5 + 0x6b8] = a4\n 41990: a4 = u64 [s1 + 0x118]\n 41994: u64 [a5 + 0x6b0] = a4\n 41998: a4 = u64 [s1 + 0x120]\n 42002: u64 [a5 + 0x6a8] = a4\n 42006: a4 = a5 + 0x600\n 42010: u64 [a4 + 0xe0] = a2\n 42014: u64 [a4 + 0xd8] = a1\n 42018: u64 [a4 + 0xd0] = a0\n 42022: a0 = s1 + 0x2800\n 42026: a1 = s1 + 0x27e0\n 42030: a2 = s1 + 0x27c0\n 42034: u64 [a4 + 0xc8] = a3\n 42038: ra = 1600, jump @2240\n      : @1539 [@dyn 800] (gas: 15)\n 42044: a3 = s1 + 0x2118\n 42048: a0 = u64 [a3 + 0x700]\n 42052: a4 = a3 + 0x600\n 42056: a1 = u64 [a4 + 0xf8]\n 42060: a2 = u64 [a4 + 0xf0]\n 42064: a3 = u64 [a4 + 0xe8]\n 42068: a4 = s1 + 0x4918\n 42072: a5 = a4 + 0x400\n 42076: u64 [a5 + 0xc0] = a0\n 42080: u64 [a5 + 0xb8] = a1\n 42084: u64 [a5 + 0xb0] = a2\n 42088: u64 [a5 + 0xa8] = a3\n 42092: a1 = s1 + 0x4dc0\n 42096: a0 = u64 [s1 + 0x190]\n 42100: ra = 1602, jump @25\n      : @1540 [@dyn 801] (gas: 5)\n 42107: a0 = u64 [s1 + 0x160]\n 42111: ra = 0x644\n 42115: ecalli 4 // 'caller'\n 42117: t0 = 0x646\n 42121: jump @2358\n      : @1541 [@dyn 802] (gas: 1)\n 42124: t0 = 1606, jump @2358\n      : @1542 [@dyn 803] (gas: 16)\n 42130: a4 = u64 [s1 + 0x170]\n 42134: a5 = a2 + 0x600\n 42138: u64 [a5 + 0x80] = a4\n 42142: a4 = u64 [s1 + 0x178]\n 42146: u64 [a5 + 0x78] = a4\n 42149: a4 = u64 [s1 + 0x180]\n 42153: u64 [a5 + 0x70] = a4\n 42156: a4 = u64 [s1 + 0x168]\n 42160: u64 [a5 + 0x68] = a4\n 42163: u64 [a2 + 1696] = 0\n 42167: u64 [a5 + 0x98] = a1\n 42171: u64 [a5 + 0x90] = a0\n 42175: a0 = s1 + 0x27a0\n 42179: a1 = s1 + 0x2780\n 42183: u64 [a5 + 0x88] = a3\n 42187: ra = 1608, jump @2309\n      : @1543 [@dyn 804] (gas: 3)\n 42193: a0 = s1 + 0x2760\n 42197: a1 = 0x40\n 42200: ra = 1610, jump @17\n      : @1544 [@dyn 805] (gas: 26)\n 42207: a1 = s1 + 0x2118\n 42211: a2 = a1 + 0x600\n 42215: a0 = u64 [a2 + 0x60]\n 42218: u64 [s1 + 0x188] = a0\n 42222: a0 = u64 [a2 + 0x58]\n 42225: u64 [s1 + 0x158] = a0\n 42229: a0 = u64 [a2 + 0x50]\n 42232: u64 [s1 + 0x150] = a0\n 42236: a0 = u64 [a2 + 0x48]\n 42239: u64 [s1 + 0x190] = a0\n 42243: a0 = u64 [s1 + 0x160]\n 42247: ecalli 4 // 'caller'\n 42249: a1 = u64 [s1 + 0x198]\n 42253: a0 = u32 [a1 + 0x10]\n 42256: u64 [s1 + 0x160] = a0\n 42260: a0 = u64 [a1 + 0x8]\n 42263: u64 [s1 + 0x140] = a0\n 42267: a0 = u64 [a1]\n 42269: u64 [s1 + 0x198] = a0\n 42273: a0 = s1 + 0x5000\n 42277: i32 a0 = a0 + 0xfffffffffffffde0\n 42281: ra = 0x64c\n 42285: ecalli 8 // 'now'\n 42287: a0 = 0x5000\n 42291: t0 = 0x64e\n 42295: jump @2393\n      : @1545 [@dyn 806] (gas: 2)\n 42298: a0 = 0x5000\n 42302: t0 = 1614, jump @2393\n      : @1546 [@dyn 807] (gas: 42)\n 42308: a0 = u64 [a4 + 0xc8]\n 42312: a1 = u64 [a4 + 0xd0]\n 42316: a2 = u64 [a4 + 0xd8]\n 42320: a3 = u64 [a4 + 0xe0]\n 42324: a4 = s1 + 0x2118\n 42328: a5 = a4 + 0x500\n 42332: u64 [a5 + 0xc0] = a3\n 42336: u64 [a5 + 0xb8] = a2\n 42340: u64 [a5 + 0xb0] = a1\n 42344: u64 [a5 + 0xa8] = a0\n 42348: a0 = u64 [s1 + 0x170]\n 42352: u64 [a5 + 0xe0] = a0\n 42356: a0 = u64 [s1 + 0x178]\n 42360: u64 [a5 + 0xd8] = a0\n 42364: a0 = u64 [s1 + 0x180]\n 42368: u64 [a5 + 0xd0] = a0\n 42372: a0 = u64 [s1 + 0x168]\n 42376: u64 [a5 + 0xc8] = a0\n 42380: a0 = u64 [s1 + 0x108]\n 42384: a1 = a4 + 0x600\n 42388: u64 [a1] = a0\n 42390: a0 = u64 [s1 + 0x110]\n 42394: u64 [a5 + 0xf8] = a0\n 42398: a0 = u64 [s1 + 0x118]\n 42402: u64 [a5 + 0xf0] = a0\n 42406: a0 = u64 [s1 + 0x120]\n 42410: u64 [a5 + 0xe8] = a0\n 42414: a0 = u64 [s1 + 0x188]\n 42418: u64 [a1 + 0x20] = a0\n 42421: a0 = u64 [s1 + 0x158]\n 42425: u64 [a1 + 0x18] = a0\n 42428: a0 = u64 [s1 + 0x150]\n 42432: u64 [a1 + 0x10] = a0\n 42435: t0 = a4\n 42437: a0 = s1 + 0x2740\n 42441: a1 = s1 + 0x2720\n 42445: a2 = s1 + 0x2700\n 42449: a3 = s1 + 0x26e0\n 42453: a4 = s1 + 0x26c0\n 42457: a5 = u64 [s1 + 0x190]\n 42461: u64 [t0 + 0x608] = a5\n 42465: ra = 1616, jump @2208\n      : @1547 [@dyn 808] (gas: 14)\n 42471: a4 = s1 + 0x100\n 42475: a3 = u64 [a4 + 0x50]\n 42478: a2 = a3\n 42480: a0 = u64 [a4 + 0x88]\n 42484: a0 = a0 | a3\n 42487: a3 = u64 [a4 + 0x58]\n 42490: a1 = u64 [a4 + 0x90]\n 42494: a1 = a1 | a3\n 42497: a1 = a1 | a0\n 42500: a1 = a1 >> 0x20\n 42503: a0 = a0 | a3\n 42506: a0 = a0 << 0x20\n 42509: a0 = a0 | a1\n 42512: jump @1549 if a0 == 0\n      : @1548 (gas: 1)\n 42515: jump @1912\n      : @1549 (gas: 35)\n 42518: a4 = a3\n 42520: a0 = s1 + 0x2118\n 42524: a5 = a0 + 0x600\n 42528: a1 = u64 [a5 + 0x30]\n 42531: a3 = u64 [a5 + 0x40]\n 42534: u64 [s1 + 0x180] = a3\n 42538: t2 = u64 [a0 + 0x628]\n 42542: a3 = u64 [a5 + 0x38]\n 42545: a0 = a1 ^ a2\n 42548: a5 = a1 <u a2\n 42551: ra = u64 [s1 + 0x190]\n 42555: t0 = t2 <u ra\n 42558: a5 = t0 if a0 == 0\n 42561: a0 = a4\n 42563: a4 = a3 - a4\n 42566: t1 = a4 - a5\n 42569: a4 = a4 <u a5\n 42572: a3 = a3 <u a0\n 42575: a5 = u64 [s1 + 0x188]\n 42579: a0 = u64 [s1 + 0x180]\n 42583: a5 = a0 - a5\n 42586: a5 = a5 - a3\n 42589: a5 = a5 - a4\n 42592: a0 = a1 - a2\n 42595: a0 = a0 - t0\n 42598: a1 = t2 - ra\n 42601: a0 = a0 | a5\n 42604: a3 = a1 | t1\n 42607: a3 = a3 | a0\n 42610: a0 = a0 | t1\n 42613: a3 = a3 >> 0x20\n 42616: a0 = a0 << 0x20\n 42619: a0 = a0 | a3\n 42622: t1 = s1 + 0x2118\n 42626: jump @1551 if a0 == 0\n      : @1550 (gas: 1)\n 42629: jump @1912\n      : @1551 (gas: 30)\n 42632: a0 = u64 [s1 + 0x140]\n 42636: a2 = reverse a0\n 42638: a0 = a2 << 0x20\n 42641: a3 = u64 [s1 + 0x160]\n 42645: a3 = reverse a3\n 42647: a3 = a3 >> 0x20\n 42650: t0 = a3 | a0\n 42653: a0 = u64 [s1 + 0x198]\n 42657: a3 = reverse a0\n 42659: a4 = a3 << 0x20\n 42662: a2 = a2 >> 0x20\n 42665: a2 = a2 | a4\n 42668: a3 = a3 >> 0x20\n 42671: a4 = u64 [0x200e8]\n 42676: u64 [t1 + 0x5a0] = a4\n 42680: a4 = u64 [0x200f0]\n 42685: a5 = u64 [0x200f8]\n 42690: a0 = u64 [0x20100]\n 42695: u64 [t1 + 0x598] = a4\n 42699: a4 = t1 + 0x500\n 42703: u64 [a4 + 0x90] = a5\n 42707: u64 [t1 + 1408] = 0\n 42711: u64 [a4 + 0x88] = a0\n 42715: u64 [a4 + 0x78] = a3\n 42718: u64 [a4 + 0x70] = a2\n 42721: a2 = s1 + 0x26a0\n 42725: a3 = s1 + 0x2680\n 42729: u64 [t1 + 0x568] = t0\n 42733: a0 = u64 [s1 + 0x190]\n 42737: ra = 1618, jump @26\n      : @1552 [@dyn 809] (gas: 5)\n 42744: a0 = 0\n 42746: a1 = u64 [s1 + 0x148]\n 42750: a2 = 0\n 42752: ecalli 11 // 'seal_return'\n 42754: jump @2057\n      : @1553 (gas: 6)\n 42757: a0 = a0 | a1\n 42760: a0 = a0 >> 0x20\n 42763: a1 = a1 | t1\n 42766: a1 = a1 << 0x20\n 42769: a0 = a0 | a1\n 42772: jump @1555 if a0 == 0\n      : @1554 (gas: 1)\n 42775: jump @1912\n      : @1555 (gas: 19)\n 42778: a0 = t0 + 0x20\n 42781: u64 [s1 + 0x180] = a0\n 42785: a0 = a0 <u t0\n 42788: a1 = a5 + a0\n 42791: u64 [s1 + 0x190] = a1\n 42795: a1 = a1 <u a5\n 42798: a1 = a0 if a0 == 0\n 42801: a1 = a1 + t1\n 42804: u64 [s1 + 0x170] = a1\n 42808: a0 = a1 <u t1\n 42811: a0 = a0 + a4\n 42814: u64 [s1 + 0x178] = a0\n 42818: u64 [a2 + 64] = 0\n 42821: u64 [a2 + 56] = 0\n 42824: u64 [a2 + 48] = 0\n 42827: a1 = s1 + 0x2140\n 42831: u64 [a2 + 40] = 0x20\n 42835: a0 = t0\n 42837: ra = 1620, jump @19\n      : @1556 [@dyn 810] (gas: 3)\n 42844: a0 = s1 + 0x2120\n 42848: a1 = u64 [s1 + 0xa0]\n 42852: ra = 1622, jump @17\n      : @1557 [@dyn 811] (gas: 13)\n 42859: a4 = s1 + 0x100\n 42863: a5 = u64 [a4 + 0x80]\n 42867: a2 = u64 [a4 + 0x70]\n 42870: a0 = a5 | a2\n 42873: a1 = u64 [a4 + 0x90]\n 42877: a3 = u64 [a4 + 0x78]\n 42880: a1 = a1 | a3\n 42883: a0 = a0 | a1\n 42886: a0 = a0 >> 0x20\n 42889: a1 = a1 | a2\n 42892: a1 = a1 << 0x20\n 42895: a0 = a0 | a1\n 42898: jump @1559 if a0 == 0\n      : @1558 (gas: 1)\n 42901: jump @1912\n      : @1559 (gas: 17)\n 42904: t0 = s1 + 0x2118\n 42908: a2 = u64 [t0 + 0x20]\n 42911: a1 = u64 [t0 + 0x18]\n 42914: a3 = u64 [t0 + 0x10]\n 42917: a4 = u64 [t0 + 0x8]\n 42920: a0 = s1 + 0x1918\n 42924: u64 [s1 + 0xe8] = a4\n 42928: u64 [a0 + 0x7e8] = a4\n 42932: u64 [s1 + 0xf0] = a3\n 42936: u64 [a0 + 0x7f0] = a3\n 42940: u64 [s1 + 0x100] = a1\n 42944: u64 [a0 + 0x7f8] = a1\n 42948: a1 = s1 + 0x2100\n 42952: u64 [s1 + 0x108] = a2\n 42956: u64 [t0] = a2\n 42958: a0 = a5\n 42960: ra = 1624, jump @19\n      : @1560 [@dyn 812] (gas: 28)\n 42967: ra = 0\n 42969: a4 = 0\n 42971: t0 = 0\n 42973: t2 = 0\n 42975: a3 = s1 + 0x100\n 42979: a1 = u64 [a3 + 0x98]\n 42983: a0 = a1 + 0x40\n 42986: u64 [a3 + 0x90] = a0\n 42990: a0 = a0 <u a1\n 42993: a2 = u64 [a3 + 0x88]\n 42997: a1 = a2 + a0\n 43000: u64 [a3 + 0x80] = a1\n 43004: a1 = a1 <u a2\n 43007: a1 = a0 if a0 == 0\n 43010: a0 = u64 [a3 + 0x48]\n 43013: a1 = a1 + a0\n 43016: u64 [a3 + 0x70] = a1\n 43019: a0 = a1 <u a0\n 43022: a1 = u64 [a3 + 0x20]\n 43025: a0 = a0 + a1\n 43028: u64 [a3 + 0x78] = a0\n 43031: a0 = 0x100000000\n 43041: u64 [s1 + 0xe0] = a0\n 43045: a0 = 0xffffffe0\n 43055: u64 [a3 + 0x58] = a0\n 43058: a1 = u64 [s1 + 0xa8]\n 43062: t1 = u64 [s1 + 0xb0]\n 43066: fallthrough\n      : @1561 (gas: 17)\n 43067: a0 = u64 [s1 + 0xe8]\n 43071: a0 = ra <u a0\n 43074: a2 = u64 [s1 + 0xf0]\n 43078: a3 = a4 ^ a2\n 43081: u64 [s1 + 0x138] = a4\n 43085: a2 = a4 <u a2\n 43088: a2 = a0 if a3 == 0\n 43091: a5 = u64 [s1 + 0x100]\n 43095: a0 = t0 <u a5\n 43098: a3 = u64 [s1 + 0x108]\n 43102: a4 = t2 ^ a3\n 43105: a3 = t2 <u a3\n 43108: a3 = a0 if a4 == 0\n 43111: a0 = t0 ^ a5\n 43114: a0 = a0 | a4\n 43117: a3 = a2 if a0 == 0\n 43120: jump @1563 if a3 != 0\n      : @1562 (gas: 1)\n 43123: jump @1825\n      : @1563 (gas: 14)\n 43126: u64 [s1 + 0x118] = t0\n 43130: u64 [s1 + 0x128] = t2\n 43134: u64 [s1 + 0x130] = ra\n 43138: a3 = u64 [s1 + 0xb8]\n 43142: a0 = a1 | a3\n 43145: u64 [s1 + 0xb0] = t1\n 43149: a2 = u64 [s1 + 0xc0]\n 43153: a2 = a2 | t1\n 43156: a0 = a0 | a2\n 43159: a0 = a0 >> 0x20\n 43162: a2 = a2 | a3\n 43165: a2 = a2 << 0x20\n 43168: a0 = a0 | a2\n 43171: jump @1565 if a0 == 0\n      : @1564 (gas: 1)\n 43174: jump @1912\n      : @1565 (gas: 3)\n 43177: a0 = s1 + 0x20e0\n 43181: u64 [s1 + 0xa8] = a1\n 43185: ra = 1626, jump @17\n      : @1566 [@dyn 813] (gas: 18)\n 43192: a0 = s1 + 0x1918\n 43196: a5 = a0 + 0x700\n 43200: a3 = u64 [a5 + 0xe0]\n 43204: a4 = u64 [a5 + 0xd8]\n 43208: a2 = u64 [a5 + 0xd0]\n 43212: a1 = u64 [a5 + 0xc8]\n 43216: a5 = s1 + 0x100\n 43220: u64 [a5 + 0x68] = a2\n 43223: u64 [a5 + 0x50] = a3\n 43226: a0 = a2 | a3\n 43229: a2 = a1 | a4\n 43232: a2 = a2 | a0\n 43235: a2 = a2 >> 0x20\n 43238: u64 [a5 + 0x40] = a4\n 43241: a0 = a0 | a4\n 43244: a0 = a0 << 0x20\n 43247: a0 = a0 | a2\n 43250: jump @1568 if a0 == 0\n      : @1567 (gas: 1)\n 43253: jump @1912\n      : @1568 (gas: 3)\n 43256: a0 = s1 + 0x20c0\n 43260: u64 [s1 + 0x160] = a1\n 43264: ra = 1628, jump @17\n      : @1569 [@dyn 814] (gas: 1)\n 43271: t0 = 1630, jump @2400\n      : @1570 [@dyn 815] (gas: 1)\n 43277: jump @1572 if a0 == 0\n      : @1571 (gas: 1)\n 43280: jump @1912\n      : @1572 (gas: 17)\n 43283: a3 = s1 + 0x1918\n 43287: a0 = u64 [a3 + 0x7b8]\n 43291: a1 = u64 [a3 + 0x7b0]\n 43295: a2 = u64 [a3 + 0x7a8]\n 43299: a4 = u64 [s1 + 0xf8]\n 43303: a0 = a0 & a4\n 43306: a1 = a1 & 0xffffffffffffffff\n 43309: a2 = a2 & 0xffffffffffffffff\n 43312: u64 [a3 + 1952] = 0\n 43316: a4 = a3 + 0x700\n 43320: u64 [a4 + 0x88] = a2\n 43324: u64 [a4 + 0x90] = a1\n 43328: a1 = s1 + 0x20a0\n 43332: u64 [a4 + 0x98] = a0\n 43336: a0 = a5\n 43338: u64 [s1 + 0x190] = a5\n 43342: ra = 1632, jump @19\n      : @1573 [@dyn 816] (gas: 12)\n 43349: a4 = s1 + 0x100\n 43353: a0 = u64 [a4 + 0x50]\n 43356: a1 = u64 [a4 + 0x40]\n 43359: a3 = a1 | a0\n 43362: a1 = u64 [a4 + 0x60]\n 43365: a0 = u64 [a4 + 0x58]\n 43368: a0 = a1 <u a0\n 43371: a2 = u64 [a4 + 0x68]\n 43374: a0 = 0 if a2 != 0\n 43376: u64 [a4 + 0x50] = a3\n 43379: a0 = 0 if a3 != 0\n 43381: jump @1575 if a0 != 0\n      : @1574 (gas: 1)\n 43384: jump @1912\n      : @1575 (gas: 3)\n 43387: i32 a1 = a1 + 0x20\n 43390: a0 = s1 + 0x2080\n 43394: ra = 1634, jump @17\n      : @1576 [@dyn 817] (gas: 12)\n 43401: a4 = s1 + 0x100\n 43405: a0 = u64 [a4 + 0x78]\n 43408: a1 = u64 [a4 + 0x70]\n 43411: a2 = a1 | a0\n 43414: a3 = u64 [a4 + 0x90]\n 43418: a0 = u64 [a4 + 0x58]\n 43421: a0 = a3 <u a0\n 43424: a1 = u64 [a4 + 0x80]\n 43428: a0 = 0 if a1 != 0\n 43430: u64 [a4 + 0x40] = a2\n 43433: a0 = 0 if a2 != 0\n 43435: jump @1578 if a0 != 0\n      : @1577 (gas: 1)\n 43438: jump @1912\n      : @1578 (gas: 14)\n 43441: a2 = a3\n 43443: a5 = s1 + 0x1918\n 43447: t0 = u64 [a5 + 0x780]\n 43451: a1 = u64 [a5 + 0x778]\n 43455: a3 = u64 [a5 + 0x770]\n 43459: a4 = u64 [a5 + 0x768]\n 43463: i32 a0 = a2 + 0x20\n 43466: a2 = a5 + 0x700\n 43470: u64 [a2 + 0x48] = a4\n 43473: u64 [a2 + 0x50] = a3\n 43476: u64 [a2 + 0x58] = a1\n 43479: a1 = s1 + 0x2060\n 43483: u64 [a5 + 0x760] = t0\n 43487: ra = 1636, jump @19\n      : @1579 [@dyn 818] (gas: 11)\n 43494: a0 = u64 [s1 + 0xe0]\n 43498: a0 = a0 + 0xffffffffffffffc0\n 43501: a3 = s1 + 0x100\n 43505: a1 = u64 [a3 + 0x60]\n 43508: u64 [a3 + 0x10] = a0\n 43511: a0 = a1 <u a0\n 43514: a2 = u64 [a3 + 0x68]\n 43517: a0 = 0 if a2 != 0\n 43519: a2 = u64 [a3 + 0x50]\n 43522: a0 = 0 if a2 != 0\n 43524: jump @1581 if a0 != 0\n      : @1580 (gas: 1)\n 43527: jump @1912\n      : @1581 (gas: 3)\n 43530: i32 a1 = a1 + 0x40\n 43533: a0 = s1 + 0x2040\n 43537: ra = 1638, jump @17\n      : @1582 [@dyn 819] (gas: 9)\n 43544: a3 = s1 + 0x100\n 43548: a2 = u64 [a3 + 0x90]\n 43552: a0 = u64 [a3 + 0x10]\n 43555: a0 = a2 <u a0\n 43558: a1 = u64 [a3 + 0x80]\n 43562: a0 = 0 if a1 != 0\n 43564: a1 = u64 [a3 + 0x40]\n 43567: a0 = 0 if a1 != 0\n 43569: jump @1584 if a0 != 0\n      : @1583 (gas: 1)\n 43572: jump @1912\n      : @1584 (gas: 13)\n 43575: a5 = s1 + 0x1918\n 43579: t0 = u64 [a5 + 0x740]\n 43583: a1 = u64 [a5 + 0x738]\n 43587: a3 = u64 [a5 + 0x730]\n 43591: a4 = u64 [a5 + 0x728]\n 43595: i32 a0 = a2 + 0x40\n 43598: a2 = a5 + 0x700\n 43602: u64 [a2 + 0x8] = a4\n 43605: u64 [a2 + 0x10] = a3\n 43608: u64 [a2 + 0x18] = a1\n 43611: a1 = s1 + 0x2020\n 43615: u64 [a5 + 0x720] = t0\n 43619: ra = 1640, jump @19\n      : @1585 [@dyn 820] (gas: 52)\n 43626: a1 = u64 [s1 + 0x190]\n 43630: a0 = a1 + 0x60\n 43633: u64 [s1 + 0x168] = a0\n 43637: a2 = a0 <u a1\n 43640: a0 = u64 [s1 + 0x180]\n 43644: a1 = a0 + a2\n 43647: u64 [s1 + 0x160] = a1\n 43651: a3 = a1 <u a0\n 43654: a3 = a2 if a2 == 0\n 43657: a0 = u64 [s1 + 0x170]\n 43661: a2 = a0 + a3\n 43664: a3 = a2 <u a0\n 43667: a0 = u64 [s1 + 0x178]\n 43671: a0 = a0 + a3\n 43674: u64 [s1 + 0x178] = a0\n 43678: a0 = u64 [s1 + 0xa8]\n 43682: a3 = a0 + 0x20\n 43685: a4 = a3 <u a0\n 43688: a0 = u64 [s1 + 0xc0]\n 43692: a5 = a0 + a4\n 43695: a0 = a5 <u a0\n 43698: a0 = a4 if a4 == 0\n 43701: a1 = u64 [s1 + 0xb8]\n 43705: a0 = a0 + a1\n 43708: a4 = a0 <u a1\n 43711: t1 = u64 [s1 + 0xb0]\n 43715: t1 = t1 + a4\n 43718: ra = u64 [s1 + 0x130]\n 43722: ra = ra + 0x1\n 43725: a4 = ra <u 0x1\n 43728: t2 = u64 [s1 + 0x138]\n 43732: t2 = t2 + a4\n 43735: a4 = ra | t2\n 43738: a4 = a4 <u 0x1\n 43741: a1 = u64 [s1 + 0x118]\n 43745: a4 = a4 + a1\n 43748: a1 = a4 <u a1\n 43751: t0 = u64 [s1 + 0x128]\n 43755: t0 = t0 + a1\n 43758: a1 = u64 [s1 + 0x168]\n 43762: u64 [s1 + 0x190] = a1\n 43766: a1 = u64 [s1 + 0x160]\n 43770: u64 [s1 + 0x180] = a1\n 43774: u64 [s1 + 0x170] = a2\n 43778: a1 = a3\n 43780: u64 [s1 + 0xc0] = a5\n 43784: u64 [s1 + 0xb8] = a0\n 43788: a0 = a4\n 43790: a4 = t2\n 43792: t2 = t0\n 43794: t0 = a0\n 43796: jump @1561\n      : @1586 (gas: 7)\n 43799: a0 = a0 | a4\n 43802: a0 = a0 >> 0x20\n 43805: t0 = a1\n 43807: a1 = a1 | a4\n 43810: a1 = a1 << 0x20\n 43813: a0 = a0 | a1\n 43816: jump @1588 if a0 == 0\n      : @1587 (gas: 1)\n 43819: jump @1912\n      : @1588 (gas: 19)\n 43822: a0 = a3 + 0x20\n 43825: u64 [s1 + 0x180] = a0\n 43829: t1 = a0 <u a3\n 43832: a0 = a5 + t1\n 43835: u64 [s1 + 0x190] = a0\n 43839: a1 = a0 <u a5\n 43842: a1 = t1 if t1 == 0\n 43845: a1 = a1 + t0\n 43848: u64 [s1 + 0x170] = a1\n 43852: a0 = a1 <u t0\n 43855: a0 = a0 + t2\n 43858: u64 [s1 + 0x178] = a0\n 43862: u64 [ra + 704] = 0\n 43866: u64 [ra + 696] = 0\n 43870: u64 [ra + 688] = 0\n 43874: a1 = s1 + 0x1bc0\n 43878: u64 [ra + 680] = 0x20\n 43883: a0 = a3\n 43885: ra = 1642, jump @19\n      : @1589 [@dyn 821] (gas: 3)\n 43892: a0 = s1 + 0x1ba0\n 43896: a1 = u64 [s1 + 0xb0]\n 43900: ra = 1644, jump @17\n      : @1590 [@dyn 822] (gas: 13)\n 43907: a5 = s1 + 0x100\n 43911: a0 = u64 [a5 + 0x80]\n 43915: a3 = u64 [a5 + 0x70]\n 43918: a2 = a0 | a3\n 43921: a1 = u64 [a5 + 0x90]\n 43925: a4 = u64 [a5 + 0x78]\n 43928: a1 = a1 | a4\n 43931: a2 = a2 | a1\n 43934: a2 = a2 >> 0x20\n 43937: a1 = a1 | a3\n 43940: a1 = a1 << 0x20\n 43943: a1 = a1 | a2\n 43946: jump @1592 if a1 == 0\n      : @1591 (gas: 1)\n 43949: jump @1912\n      : @1592 (gas: 16)\n 43952: a5 = s1 + 0x1918\n 43956: a4 = u64 [a5 + 0x2a0]\n 43960: u64 [s1 + 0xd8] = a4\n 43964: a2 = u64 [a5 + 0x298]\n 43968: u64 [s1 + 0xb0] = a2\n 43972: a1 = u64 [a5 + 0x290]\n 43976: u64 [s1 + 0xe0] = a1\n 43980: a3 = u64 [a5 + 0x288]\n 43984: u64 [s1 + 0xa8] = a3\n 43988: u64 [a5 + 0x268] = a3\n 43992: a3 = a5 + 0x200\n 43996: u64 [a3 + 0x70] = a1\n 43999: u64 [a3 + 0x78] = a2\n 44002: a1 = s1 + 0x1b80\n 44006: u64 [a3 + 0x80] = a4\n 44010: ra = 1646, jump @19\n      : @1593 [@dyn 823] (gas: 63)\n 44017: ra = 0\n 44019: a3 = 0\n 44021: t2 = 0\n 44023: t1 = 0\n 44025: a0 = u64 [s1 + 0x198]\n 44029: a4 = a0 + 0x40\n 44032: a0 = a4 <u a0\n 44035: u64 [s1 + 0x178] = a0\n 44039: a1 = u64 [s1 + 0x188]\n 44043: a0 = a0 + a1\n 44046: a5 = u64 [s1 + 0xa8]\n 44050: a2 = a5 >> 0x3b\n 44053: u64 [s1 + 0x190] = a2\n 44057: a2 = u64 [s1 + 0xe0]\n 44061: a2 = a2 << 0x5\n 44064: t0 = u64 [s1 + 0x190]\n 44068: t0 = a2 | t0\n 44071: a2 = a5 << 0x5\n 44074: a5 = a0 + t0\n 44077: a2 = a2 + a4\n 44080: u64 [s1 + 0x140] = a4\n 44084: u64 [s1 + 0x190] = a2\n 44088: a2 = a2 <u a4\n 44091: a5 = a5 + a2\n 44094: a4 = a5 ^ a0\n 44097: u64 [s1 + 0x180] = a5\n 44101: a5 = a5 <u a0\n 44104: a5 = a2 if a4 == 0\n 44107: u64 [s1 + 0x130] = a0\n 44111: a1 = a0 <u a1\n 44114: a0 = u64 [s1 + 0x178]\n 44118: a1 = a0 if a0 == 0\n 44121: a4 = u64 [s1 + 0xb0]\n 44125: a0 = a4 >> 0x3b\n 44128: a2 = u64 [s1 + 0xd8]\n 44132: a2 = a2 << 0x5\n 44135: t0 = a2 | a0\n 44138: a2 = u64 [s1 + 0xe0]\n 44142: a2 = a2 >> 0x3b\n 44145: a4 = a4 << 0x5\n 44148: a2 = a2 | a4\n 44151: a0 = u64 [s1 + 0x168]\n 44155: a4 = a0 + a1\n 44158: a1 = a4 <u a0\n 44161: a0 = u64 [s1 + 0x138]\n 44165: a1 = a1 + a0\n 44168: a2 = a2 + a4\n 44171: u64 [s1 + 0x128] = a1\n 44175: a0 = a1 + t0\n 44178: u64 [s1 + 0x118] = a4\n 44182: a1 = a2 <u a4\n 44185: a0 = a0 + a1\n 44188: a5 = a5 + a2\n 44191: a4 = s1 + 0x100\n 44195: u64 [a4 + 0x70] = a5\n 44198: a1 = a5 <u a2\n 44201: a0 = a0 + a1\n 44204: u64 [a4 + 0x78] = a0\n 44207: a0 = 0x100000000\n 44217: u64 [a4 + 0x20] = a0\n 44220: a0 = 0xffffffe0\n 44230: u64 [a4 + 0x10] = a0\n 44233: fallthrough\n      : @1594 (gas: 39)\n 44234: a0 = u64 [s1 + 0xa8]\n 44238: u64 [s1 + 0x108] = ra\n 44242: a0 = ra <u a0\n 44245: a2 = u64 [s1 + 0xe0]\n 44249: a1 = a3 ^ a2\n 44252: u64 [s1 + 0x100] = a3\n 44256: a2 = a3 <u a2\n 44259: a2 = a0 if a1 == 0\n 44262: a5 = u64 [s1 + 0xb0]\n 44266: a0 = t2 <u a5\n 44269: a3 = u64 [s1 + 0xd8]\n 44273: a1 = t1 ^ a3\n 44276: u64 [s1 + 0xf8] = t1\n 44280: a4 = t1 <u a3\n 44283: a4 = a0 if a1 == 0\n 44286: u64 [s1 + 0xf0] = t2\n 44290: a0 = t2 ^ a5\n 44293: a0 = a0 | a1\n 44296: a4 = a2 if a0 == 0\n 44299: t0 = u64 [s1 + 0x190]\n 44303: ra = u64 [s1 + 0x198]\n 44307: a0 = t0 <u ra\n 44310: t2 = u64 [s1 + 0x188]\n 44314: t1 = u64 [s1 + 0x180]\n 44318: a1 = t1 ^ t2\n 44321: u64 [s1 + 0x158] = a1\n 44325: a1 = t1 <u t2\n 44328: a3 = u64 [s1 + 0x168]\n 44332: a2 = u64 [s1 + 0x170]\n 44336: a5 = a2 - a3\n 44339: a2 = a2 <u a3\n 44342: u64 [s1 + 0x160] = a2\n 44346: a3 = u64 [s1 + 0x178]\n 44350: a2 = u64 [s1 + 0x138]\n 44354: a3 = a3 - a2\n 44357: u64 [s1 + 0x150] = a3\n 44361: t1 = t1 - t2\n 44364: a2 = t0 - ra\n 44367: jump @1596 if a4 != 0\n      : @1595 (gas: 1)\n 44370: jump @1828\n      : @1596 (gas: 12)\n 44373: t2 = u64 [s1 + 0x140]\n 44377: t0 = u64 [s1 + 0x118]\n 44381: ra = t2 | t0\n 44384: a4 = u64 [s1 + 0x130]\n 44388: a3 = u64 [s1 + 0x128]\n 44392: a4 = a4 | a3\n 44395: a3 = ra | a4\n 44398: a3 = a3 >> 0x20\n 44401: a4 = a4 | t0\n 44404: a4 = a4 << 0x20\n 44407: a3 = a3 | a4\n 44410: jump @1598 if a3 == 0\n      : @1597 (gas: 1)\n 44413: jump @1912\n      : @1598 (gas: 31)\n 44416: a3 = u64 [s1 + 0x158]\n 44420: a1 = a0 if a3 == 0\n 44423: t0 = a5 <u a1\n 44426: a4 = u64 [s1 + 0x160]\n 44430: a3 = u64 [s1 + 0x150]\n 44434: a4 = a3 - a4\n 44437: a3 = a4 - t0\n 44440: a4 = a5 - a1\n 44443: a0 = t1 - a0\n 44446: a1 = a4 <u 0x1\n 44449: t0 = a3 - a1\n 44452: a1 = a2 + 0xffffffffffffffc0\n 44455: a3 = a1 <u a2\n 44458: a5 = a0 + a3\n 44461: a5 = a5 + 0xffffffffffffffff\n 44464: a2 = a5 ^ a0\n 44467: a0 = a5 <u a0\n 44470: a0 = a3 if a2 == 0\n 44473: a2 = a4 + 0xffffffffffffffff\n 44476: a0 = a0 + a2\n 44479: a2 = a0 <u a2\n 44482: a2 = a2 + t0\n 44485: a3 = s1 + 0x1918\n 44489: a4 = a3 + 0x200\n 44493: u64 [a4 + 0x48] = a1\n 44496: u64 [a4 + 0x50] = a5\n 44499: u64 [a4 + 0x58] = a0\n 44502: a1 = s1 + 0x1b60\n 44506: u64 [a4 + 0x60] = a2\n 44509: a0 = t2\n 44511: ra = 1648, jump @19\n      : @1599 [@dyn 824] (gas: 12)\n 44518: a1 = u64 [s1 + 0xd0]\n 44522: a3 = u64 [s1 + 0xc0]\n 44526: a0 = a1 | a3\n 44529: a2 = u64 [s1 + 0xc8]\n 44533: a4 = u64 [s1 + 0xb8]\n 44537: a2 = a2 | a4\n 44540: a0 = a0 | a2\n 44543: a0 = a0 >> 0x20\n 44546: a2 = a2 | a3\n 44549: a2 = a2 << 0x20\n 44552: a0 = a0 | a2\n 44555: jump @1601 if a0 == 0\n      : @1600 (gas: 1)\n 44558: jump @1912\n      : @1601 (gas: 2)\n 44561: a0 = s1 + 0x1b40\n 44565: ra = 1650, jump @17\n      : @1602 [@dyn 825] (gas: 3)\n 44572: t0 = 0x674\n 44576: a1 = s1 + 0x1918\n 44580: fallthrough\n      : @1603 [@dyn 826] (gas: 17)\n 44581: a4 = a1 + 0x200\n 44585: a2 = u64 [a4 + 0x40]\n 44588: a3 = u64 [a4 + 0x38]\n 44591: a0 = u64 [a4 + 0x30]\n 44594: a1 = u64 [a4 + 0x28]\n 44597: a4 = s1 + 0x100\n 44601: u64 [a4 + 0x60] = a0\n 44604: u64 [a4 + 0x50] = a2\n 44607: a0 = a0 | a2\n 44610: a2 = a1 | a3\n 44613: a2 = a2 | a0\n 44616: a2 = a2 >> 0x20\n 44619: u64 [a4 + 0x48] = a3\n 44622: a0 = a0 | a3\n 44625: a0 = a0 << 0x20\n 44628: a0 = a0 | a2\n 44631: jump @1605 if a0 == 0\n      : @1604 (gas: 1)\n 44634: jump @1912\n      : @1605 (gas: 3)\n 44637: a0 = s1 + 0x1b20\n 44641: u64 [s1 + 0x158] = a1\n 44645: ra = 1654, jump @17\n      : @1606 [@dyn 827] (gas: 1)\n 44652: t0 = 1656, jump @2400\n      : @1607 [@dyn 828] (gas: 1)\n 44658: jump @1609 if a0 == 0\n      : @1608 (gas: 1)\n 44661: jump @1912\n      : @1609 (gas: 13)\n 44664: a4 = s1 + 0x1918\n 44668: a0 = u64 [a4 + 0x220]\n 44672: a1 = u64 [a4 + 0x218]\n 44676: a2 = u64 [a4 + 0x210]\n 44680: a3 = u64 [a4 + 0x208]\n 44684: u64 [a4 + 0x1e8] = a3\n 44688: u64 [a4 + 0x1f0] = a2\n 44692: u64 [a4 + 0x1f8] = a1\n 44696: a1 = s1 + 0x1b00\n 44700: u64 [a4 + 0x200] = a0\n 44704: a0 = a5\n 44706: u64 [s1 + 0x190] = a5\n 44710: ra = 1658, jump @19\n      : @1610 [@dyn 829] (gas: 12)\n 44717: a4 = s1 + 0x100\n 44721: a0 = u64 [a4 + 0x50]\n 44724: a3 = u64 [a4 + 0x48]\n 44727: a3 = a3 | a0\n 44730: a1 = u64 [a4 + 0x58]\n 44733: a0 = u64 [a4 + 0x10]\n 44736: a0 = a1 <u a0\n 44739: a2 = u64 [a4 + 0x60]\n 44742: a0 = 0 if a2 != 0\n 44744: u64 [a4 + 0x50] = a3\n 44747: a0 = 0 if a3 != 0\n 44749: jump @1612 if a0 != 0\n      : @1611 (gas: 1)\n 44752: jump @1912\n      : @1612 (gas: 3)\n 44755: i32 a1 = a1 + 0x20\n 44758: a0 = s1 + 0x1ae0\n 44762: ra = 1660, jump @17\n      : @1613 [@dyn 830] (gas: 12)\n 44769: a4 = s1 + 0x100\n 44773: a0 = u64 [a4 + 0x78]\n 44776: a1 = u64 [a4 + 0x70]\n 44779: a2 = a1 | a0\n 44782: a3 = u64 [a4 + 0x90]\n 44786: a0 = u64 [a4 + 0x10]\n 44789: a0 = a3 <u a0\n 44792: a1 = u64 [a4 + 0x80]\n 44796: a0 = 0 if a1 != 0\n 44798: u64 [a4 + 0x48] = a2\n 44801: a0 = 0 if a2 != 0\n 44803: jump @1615 if a0 != 0\n      : @1614 (gas: 1)\n 44806: jump @1912\n      : @1615 (gas: 14)\n 44809: a2 = a3\n 44811: a5 = s1 + 0x1918\n 44815: t0 = u64 [a5 + 0x1e0]\n 44819: a1 = u64 [a5 + 0x1d8]\n 44823: a3 = u64 [a5 + 0x1d0]\n 44827: a4 = u64 [a5 + 0x1c8]\n 44831: i32 a0 = a2 + 0x20\n 44834: a2 = a5 + 0x100\n 44838: u64 [a2 + 0xa8] = a4\n 44842: u64 [a2 + 0xb0] = a3\n 44846: u64 [a2 + 0xb8] = a1\n 44850: a1 = s1 + 0x1ac0\n 44854: u64 [a5 + 0x1c0] = t0\n 44858: ra = 1662, jump @19\n      : @1616 [@dyn 831] (gas: 4)\n 44865: a3 = s1 + 0x100\n 44869: a0 = u64 [a3 + 0x20]\n 44872: a0 = a0 + 0xffffffffffffffc0\n 44875: t0 = 1664, jump @2385\n      : @1617 [@dyn 832] (gas: 1)\n 44881: jump @1619 if a0 != 0\n      : @1618 (gas: 1)\n 44884: jump @1912\n      : @1619 (gas: 3)\n 44887: i32 a1 = a1 + 0x40\n 44890: a0 = s1 + 0x1aa0\n 44894: ra = 1666, jump @17\n      : @1620 [@dyn 833] (gas: 1)\n 44901: t0 = 1668, jump @2417\n      : @1621 [@dyn 834] (gas: 1)\n 44907: jump @1623 if a0 != 0\n      : @1622 (gas: 1)\n 44910: jump @1912\n      : @1623 (gas: 13)\n 44913: a5 = s1 + 0x1918\n 44917: t0 = u64 [a5 + 0x1a0]\n 44921: a1 = u64 [a5 + 0x198]\n 44925: a3 = u64 [a5 + 0x190]\n 44929: a4 = u64 [a5 + 0x188]\n 44933: i32 a0 = a2 + 0x40\n 44936: a2 = a5 + 0x100\n 44940: u64 [a2 + 0x68] = a4\n 44943: u64 [a2 + 0x70] = a3\n 44946: u64 [a2 + 0x78] = a1\n 44949: a1 = s1 + 0x1a80\n 44953: u64 [a5 + 0x180] = t0\n 44957: ra = 1670, jump @19\n      : @1624 [@dyn 835] (gas: 4)\n 44964: a3 = s1 + 0x100\n 44968: a0 = u64 [a3 + 0x20]\n 44971: a0 = a0 + 0xffffffffffffffa0\n 44974: t0 = 1672, jump @2385\n      : @1625 [@dyn 836] (gas: 1)\n 44980: jump @1627 if a0 != 0\n      : @1626 (gas: 1)\n 44983: jump @1912\n      : @1627 (gas: 3)\n 44986: i32 a1 = a1 + 0x60\n 44989: a0 = s1 + 0x1a60\n 44993: ra = 1674, jump @17\n      : @1628 [@dyn 837] (gas: 1)\n 45000: t0 = 1676, jump @2417\n      : @1629 [@dyn 838] (gas: 1)\n 45006: jump @1631 if a0 != 0\n      : @1630 (gas: 1)\n 45009: jump @1912\n      : @1631 (gas: 13)\n 45012: a5 = s1 + 0x1918\n 45016: t0 = u64 [a5 + 0x160]\n 45020: a1 = u64 [a5 + 0x158]\n 45024: a3 = u64 [a5 + 0x150]\n 45028: a4 = u64 [a5 + 0x148]\n 45032: i32 a0 = a2 + 0x60\n 45035: a2 = a5 + 0x100\n 45039: u64 [a2 + 0x28] = a4\n 45042: u64 [a2 + 0x30] = a3\n 45045: u64 [a2 + 0x38] = a1\n 45048: a1 = s1 + 0x1a40\n 45052: u64 [a5 + 0x140] = t0\n 45056: ra = 1678, jump @19\n      : @1632 [@dyn 839] (gas: 4)\n 45063: a3 = s1 + 0x100\n 45067: a0 = u64 [a3 + 0x20]\n 45070: a0 = a0 + 0xffffffffffffff80\n 45073: t0 = 1680, jump @2385\n      : @1633 [@dyn 840] (gas: 1)\n 45079: jump @1635 if a0 != 0\n      : @1634 (gas: 1)\n 45082: jump @1912\n      : @1635 (gas: 3)\n 45085: i32 a1 = a1 + 0x80\n 45089: a0 = s1 + 0x1a20\n 45093: ra = 1682, jump @17\n      : @1636 [@dyn 841] (gas: 9)\n 45100: a2 = s1 + 0x100\n 45104: a3 = u64 [a2 + 0x90]\n 45108: a0 = u64 [s1 + 0xe8]\n 45112: a0 = a3 <u a0\n 45115: a1 = u64 [a2 + 0x80]\n 45119: a0 = 0 if a1 != 0\n 45121: a1 = u64 [a2 + 0x48]\n 45124: a0 = 0 if a1 != 0\n 45126: jump @1638 if a0 != 0\n      : @1637 (gas: 1)\n 45129: jump @1912\n      : @1638 (gas: 17)\n 45132: a4 = s1 + 0x1918\n 45136: a1 = a4 + 0x100\n 45140: a0 = u64 [a1 + 0x20]\n 45143: u64 [s1 + 0x148] = a0\n 45147: a0 = u64 [a1 + 0x18]\n 45150: u64 [s1 + 0x150] = a0\n 45154: a0 = u64 [a1 + 0x10]\n 45157: u64 [s1 + 0x158] = a0\n 45161: a0 = u64 [a1 + 0x8]\n 45164: u64 [s1 + 0x160] = a0\n 45168: i32 a0 = a3 + 0x80\n 45172: u64 [a4 + 256] = 0\n 45176: u64 [a4 + 248] = 0\n 45180: u64 [a4 + 240] = 0\n 45184: a1 = s1 + 0x1a00\n 45188: u64 [a4 + 232] = 0xa0\n 45194: ra = 1684, jump @19\n      : @1639 [@dyn 842] (gas: 3)\n 45201: a1 = u64 [s1 + 0x190]\n 45205: a0 = a1 + 0xa0\n 45209: t0 = 1686, jump @2386\n      : @1640 [@dyn 843] (gas: 23)\n 45215: a1 = u64 [s1 + 0x170]\n 45219: a3 = a3 + a1\n 45222: a1 = a3 <u a1\n 45225: a4 = u64 [s1 + 0x178]\n 45229: a4 = a4 + a1\n 45232: a1 = s1 + 0x1918\n 45236: u64 [a1 + 0x90] = a2\n 45240: u64 [a1 + 0x88] = a0\n 45244: a0 = u64 [s1 + 0x148]\n 45248: u64 [a1 + 0xc0] = a0\n 45252: a0 = u64 [s1 + 0x150]\n 45256: u64 [a1 + 0xb8] = a0\n 45260: a0 = u64 [s1 + 0x158]\n 45264: u64 [a1 + 0xb0] = a0\n 45268: a0 = u64 [s1 + 0x160]\n 45272: u64 [a1 + 0xa8] = a0\n 45276: u64 [a1 + 0x98] = a3\n 45280: a3 = a1\n 45282: a0 = s1 + 0x19e0\n 45286: a1 = s1 + 0x19c0\n 45290: a2 = s1 + 0x19a0\n 45294: u64 [a3 + 0xa0] = a4\n 45298: ra = 1688, jump @2120\n      : @1641 [@dyn 844] (gas: 58)\n 45304: t1 = s1 + 0x1918\n 45308: a0 = u64 [t1 + 0xe0]\n 45312: u64 [s1 + 0x178] = a0\n 45316: a0 = u64 [s1 + 0xd0]\n 45320: a1 = a0 + 0x20\n 45323: u64 [s1 + 0x160] = a1\n 45327: a2 = a1 <u a0\n 45330: a0 = u64 [s1 + 0xc8]\n 45334: t0 = a0 + a2\n 45337: a3 = t0 <u a0\n 45340: a3 = a2 if a2 == 0\n 45343: a0 = u64 [s1 + 0xc0]\n 45347: t2 = a0 + a3\n 45350: a3 = t2 <u a0\n 45353: a0 = u64 [s1 + 0xb8]\n 45357: a0 = a0 + a3\n 45360: u64 [s1 + 0xb8] = a0\n 45364: a0 = u64 [s1 + 0x140]\n 45368: a2 = a0 + 0x20\n 45371: a5 = a2 <u a0\n 45374: a0 = u64 [s1 + 0x130]\n 45378: a4 = a0 + a5\n 45381: a0 = a4 <u a0\n 45384: a0 = a5 if a5 == 0\n 45387: a1 = u64 [t1 + 0xd8]\n 45391: u64 [s1 + 0x170] = a1\n 45395: a1 = u64 [s1 + 0x118]\n 45399: a0 = a0 + a1\n 45402: a5 = a0 <u a1\n 45405: a1 = u64 [s1 + 0x128]\n 45409: a1 = a1 + a5\n 45412: u64 [s1 + 0x128] = a1\n 45416: ra = u64 [s1 + 0x108]\n 45420: ra = ra + 0x1\n 45423: a5 = ra <u 0x1\n 45426: a3 = u64 [s1 + 0x100]\n 45430: a3 = a3 + a5\n 45433: a5 = ra | a3\n 45436: a5 = a5 <u 0x1\n 45439: a1 = u64 [t1 + 0xd0]\n 45443: u64 [s1 + 0x180] = a1\n 45447: a1 = u64 [t1 + 0xc8]\n 45451: u64 [s1 + 0x190] = a1\n 45455: a1 = u64 [s1 + 0xf0]\n 45459: a5 = a5 + a1\n 45462: a1 = a5 <u a1\n 45465: t1 = u64 [s1 + 0xf8]\n 45469: t1 = t1 + a1\n 45472: a1 = u64 [s1 + 0x160]\n 45476: u64 [s1 + 0xd0] = a1\n 45480: u64 [s1 + 0xc8] = t0\n 45484: u64 [s1 + 0xc0] = t2\n 45488: a1 = s1 + 0x100\n 45492: u64 [a1 + 0x40] = a2\n 45495: u64 [a1 + 0x30] = a4\n 45498: u64 [a1 + 0x18] = a0\n 45501: t2 = a5\n 45503: jump @1594\n      : @1642 (gas: 5)\n 45506: a0 = u64 [s1 + 0x198]\n 45510: a2 = a0 + 0xffffffffffffff80\n 45513: a0 = u64 [s1 + 0xe8]\n 45517: a1 = u64 [s1 + 0xf0]\n 45521: ra = 1690, jump @2455\n      : @1643 [@dyn 845] (gas: 6)\n 45527: u64 [s1 + 0x158] = a0\n 45531: u64 [s1 + 0x160] = a1\n 45535: a0 = u64 [s1 + 0xf8]\n 45539: a1 = u64 [s1 + 0x100]\n 45543: a2 = u64 [s1 + 0x198]\n 45547: ra = 1692, jump @2455\n      : @1644 [@dyn 846] (gas: 3)\n 45553: u64 [s1 + 0x140] = a0\n 45557: u64 [s1 + 0x148] = a1\n 45561: t0 = 1694, jump @2416\n      : @1645 [@dyn 847] (gas: 3)\n 45567: a0 = u64 [s1 + 0xe8]\n 45571: a1 = u64 [s1 + 0xf0]\n 45575: ra = 1696, jump @2460\n      : @1646 [@dyn 848] (gas: 1)\n 45581: t0 = 1698, jump @2406\n      : @1647 [@dyn 849] (gas: 2)\n 45587: a4 = u64 [s1 + 0x100]\n 45591: t0 = 1700, jump @2423\n      : @1648 [@dyn 850] (gas: 6)\n 45597: a1 = u64 [s1 + 0xf8]\n 45601: a0 = a1 if a2 == 0\n 45604: u64 [s1 + 0x158] = a0\n 45608: a0 = u64 [s1 + 0xe8]\n 45612: a1 = u64 [s1 + 0xf0]\n 45616: ra = 1702, jump @2455\n      : @1649 [@dyn 851] (gas: 1)\n 45622: t0 = 1704, jump @2367\n      : @1650 [@dyn 852] (gas: 1)\n 45628: t0 = 1706, jump @2347\n      : @1651 [@dyn 853] (gas: 75)\n 45634: t0 = a2 <u a4\n 45637: a2 = u64 [s1 + 0x158]\n 45641: t0 = a1 if a2 != 0\n 45644: a1 = u64 [s1 + 0x140]\n 45648: a1 = a1 << 0x1\n 45651: a4 = a0 >> 0x3f\n 45654: a1 = a1 | a4\n 45657: u64 [s1 + 0x140] = a1\n 45661: a4 = a5 >> 0x3f\n 45664: a0 = a0 << 0x1\n 45667: a4 = a4 | a0\n 45670: a0 = ra << 0x1\n 45673: a1 = u64 [s1 + 0x188]\n 45677: a5 = a1 >> 0x3f\n 45680: a0 = a0 | a5\n 45683: u64 [s1 + 0x160] = a0\n 45687: a5 = a1 << 0x1\n 45690: a0 = u64 [s1 + 0x180]\n 45694: a1 = a0 >> 0x3f\n 45697: a1 = a1 | a5\n 45700: a5 = a0 << 0x1\n 45703: a0 = u64 [s1 + 0x190]\n 45707: ra = a0 >> 0x3f\n 45710: a5 = a5 | ra\n 45713: a0 = a0 << 0x1\n 45716: a2 = u64 [s1 + 0x148]\n 45720: a0 = a0 | a2\n 45723: u64 [s1 + 0x190] = a0\n 45727: a0 = t2 | a5\n 45730: u64 [s1 + 0x180] = a0\n 45734: a0 = t2 | a1\n 45737: u64 [s1 + 0x188] = a0\n 45741: a0 = u64 [s1 + 0x160]\n 45745: ra = t2 | a0\n 45748: a0 = a3 - a4\n 45751: a0 = a0 <u t0\n 45754: a1 = a3 <u a4\n 45757: t2 = u64 [s1 + 0x140]\n 45761: a5 = a3 - t2\n 45764: a5 = a5 - a1\n 45767: a5 = a5 - a0\n 45770: t0 = a5 >>a 0x3f\n 45773: a0 = t0 & 0xa\n 45776: a2 = u64 [s1 + 0x150]\n 45780: a1 = a2 - a0\n 45783: u64 [s1 + 0x158] = a1\n 45787: a1 = a2 <u a0\n 45790: a0 = t1 - a1\n 45793: u64 [s1 + 0x160] = a0\n 45797: a1 = 0 if t1 != 0\n 45799: a0 = a4 - a1\n 45802: a1 = a4 <u a1\n 45805: a1 = t2 - a1\n 45808: a3 = u64 [s1 + 0x198]\n 45812: a5 = u64 [s1 + 0x178]\n 45816: a2 = a3 | a5\n 45819: a2 = a2 <u 0x1\n 45822: a4 = u64 [s1 + 0x168]\n 45826: t1 = a4 <u a2\n 45829: a4 = a4 - a2\n 45832: a2 = a3 <u 0x1\n 45835: a5 = a5 - a2\n 45838: a2 = u64 [s1 + 0x170]\n 45842: a2 = a2 - t1\n 45845: a3 = a3 + 0xffffffffffffffff\n 45848: u64 [s1 + 0x178] = a5\n 45852: u64 [s1 + 0x170] = a2\n 45856: a2 = a2 | a5\n 45859: u64 [s1 + 0x198] = a3\n 45863: a3 = a3 | a4\n 45866: a2 = a2 | a3\n 45869: a5 = t0 & 0x1\n 45872: u64 [s1 + 0x168] = a4\n 45876: t2 = 0\n 45878: jump @1650 if a2 != 0\n      : @1652 (gas: 6)\n 45882: a2 = u64 [s1 + 0x188]\n 45886: a0 = a2 >> 0x3f\n 45889: a1 = ra << 0x1\n 45892: a0 = a0 | a1\n 45895: a3 = u64 [s1 + 0x180]\n 45899: t0 = 1708, jump @2377\n      : @1653 [@dyn 854] (gas: 7)\n 45905: t0 = a5 | a4\n 45908: a5 = u64 [s1 + 0x138]\n 45912: a2 = a2 | a5\n 45915: a3 = a3 | a2\n 45918: a4 = a5 | a1\n 45921: a0 = a0 | a5\n 45924: fallthrough\n      : @1654 (gas: 24)\n 45925: a5 = 0x3b9aca00\n 45931: a1 = t0 mulhu a5\n 45934: a2 = a3 * a5\n 45937: a1 = a1 + a2\n 45940: u64 [s1 + 0x58] = a1\n 45943: a1 = a1 <u a2\n 45946: a2 = a3 mulhu a5\n 45949: a1 = a1 + a2\n 45952: a2 = a4 * a5\n 45955: a2 = a2 + a1\n 45958: u64 [s1 + 0x50] = a2\n 45961: a1 = a2 <u a1\n 45964: a2 = a4 mulhu a5\n 45967: a3 = a0 * a5\n 45970: a3 = a3 + a2\n 45973: a4 = a3 + a1\n 45976: u64 [s1 + 0x48] = a4\n 45979: a1 = 0 if a4 != 0\n 45981: a2 = a3 <u a2\n 45984: a0 = a0 mulhu a5\n 45987: a0 = a0 >u 0\n 45989: a0 = a0 | a2\n 45992: a0 = a0 | a1\n 45995: jump @1656 if a0 == 0\n      : @1655 (gas: 1)\n 45998: jump @2071\n      : @1656 (gas: 30)\n 46001: u64 [s1 + 56] = 0x3b9aca00\n 46008: u64 [s1 + 0x40] = t0\n 46011: a5 = 0x190\n 46015: a0 = u64 [s1 + 0xf8]\n 46019: a0 = a0 mulhu a5\n 46022: a2 = u64 [s1 + 0x100]\n 46026: a1 = a2 * a5\n 46029: a0 = a0 + a1\n 46032: u64 [s1 + 0x78] = a0\n 46035: a0 = a0 <u a1\n 46038: a1 = a2 mulhu a5\n 46041: a0 = a0 + a1\n 46044: a4 = u64 [s1 + 0xe8]\n 46048: a1 = a4 mulhu a5\n 46051: a3 = u64 [s1 + 0xf0]\n 46055: a2 = a3 * a5\n 46058: a2 = a2 + a1\n 46061: a1 = a2 <u a1\n 46064: a3 = a3 mulhu a5\n 46067: a3 = a3 >u 0\n 46069: a1 = a1 | a3\n 46072: a3 = a4 * a5\n 46075: a3 = a3 + a0\n 46078: u64 [s1 + 0x68] = a3\n 46081: a0 = a3 <u a0\n 46084: a2 = a2 + a0\n 46087: u64 [s1 + 0x70] = a2\n 46090: a0 = 0 if a2 != 0\n 46092: a0 = a0 | a1\n 46095: jump @1658 if a0 == 0\n      : @1657 (gas: 1)\n 46098: jump @2075\n      : @1658 (gas: 5)\n 46101: a0 = u64 [s1 + 0xe0]\n 46105: ra = 0x6ae\n 46109: ecalli 4 // 'caller'\n 46111: t0 = 0x6b0\n 46115: jump @2335\n      : @1659 [@dyn 855] (gas: 1)\n 46118: t0 = 1712, jump @2335\n      : @1660 [@dyn 856] (gas: 8)\n 46124: u64 [a2 + 1280] = 0\n 46128: a4 = a2 + 0x400\n 46132: u64 [a4 + 0xf8] = a1\n 46136: u64 [a4 + 0xf0] = a0\n 46140: a1 = s1 + 0x3600\n 46144: u64 [a4 + 0xe8] = a3\n 46148: a0 = 0\n 46150: ra = 1714, jump @19\n      : @1661 [@dyn 857] (gas: 9)\n 46157: a0 = s1 + 0x3118\n 46161: u64 [a0 + 1248] = 0\n 46165: u64 [a0 + 1240] = 0\n 46169: u64 [a0 + 1232] = 0\n 46173: a3 = a0\n 46175: a0 = 0x20\n 46178: a1 = s1 + 0x35e0\n 46182: u64 [a3 + 1224] = 0xa\n 46187: ra = 1716, jump @19\n      : @1662 [@dyn 858] (gas: 1)\n 46194: t0 = 1718, jump @2410\n      : @1663 [@dyn 859] (gas: 3)\n 46200: a1 = u64 [s1 + 0x110]\n 46204: a0 = i32 [a1]\n 46206: jump @1665 if a0 >u 63\n      : @1664 (gas: 3)\n 46210: u32 [a1 + 0] = 0x40\n 46213: t0 = 0x6b8\n 46217: jump @2348\n      : @1665 (gas: 1)\n 46220: t0 = 1720, jump @2348\n      : @1666 [@dyn 860] (gas: 5)\n 46226: ra = 0x6ba\n 46230: ecalli 7 // 'hash_keccak_256'\n 46232: a3 = u64 [s1 + 0x190]\n 46236: t0 = 0x6bc\n 46240: jump @2343\n      : @1667 [@dyn 861] (gas: 2)\n 46243: a3 = u64 [s1 + 0x190]\n 46247: t0 = 1724, jump @2343\n      : @1668 [@dyn 862] (gas: 15)\n 46253: a3 = a3 + 0x1\n 46256: a4 = a3 <u 0x1\n 46259: a2 = a2 + a4\n 46262: a4 = a3 | a2\n 46265: a4 = a4 <u 0x1\n 46268: a4 = a4 + a1\n 46271: a1 = a4 <u a1\n 46274: a0 = a0 + a1\n 46277: a1 = u64 [s1 + 0x198]\n 46281: u64 [a1] = a3\n 46283: u64 [a1 + 0x8] = a2\n 46286: u64 [a1 + 0x10] = a4\n 46289: u64 [a1 + 0x18] = a0\n 46292: a0 = s1 + 0x35c0\n 46296: ra = 1726, jump @21\n      : @1669 [@dyn 863] (gas: 22)\n 46303: a5 = s1 + 0x3118\n 46307: a3 = u64 [a5 + 0x4a8]\n 46311: a0 = u64 [a5 + 0x4b0]\n 46315: a1 = u64 [a5 + 0x4b8]\n 46319: a2 = u64 [a5 + 0x4c0]\n 46323: a4 = u64 [s1 + 0xf0]\n 46327: u64 [a5 + 0x460] = a4\n 46331: a4 = u64 [s1 + 0xe8]\n 46335: u64 [a5 + 0x458] = a4\n 46339: a4 = u64 [s1 + 0x100]\n 46343: u64 [a5 + 0x450] = a4\n 46347: a4 = u64 [s1 + 0xf8]\n 46351: u64 [a5 + 0x448] = a4\n 46355: a4 = a5 + 0x400\n 46359: u64 [a4 + 0x80] = a2\n 46363: u64 [a4 + 0x78] = a1\n 46366: u64 [a4 + 0x70] = a0\n 46369: a0 = s1 + 0x35a0\n 46373: a1 = s1 + 0x3580\n 46377: a2 = s1 + 0x3560\n 46381: u64 [a4 + 0x68] = a3\n 46384: ra = 1728, jump @2240\n      : @1670 [@dyn 864] (gas: 2)\n 46390: a0 = 0x3000\n 46394: t0 = 1730, jump @2445\n      : @1671 [@dyn 865] (gas: 1)\n 46400: t0 = 1732, jump @2414\n      : @1672 [@dyn 866] (gas: 8)\n 46406: a5 = a4 + 0x500\n 46410: u64 [a5 + 0xe0] = a0\n 46414: u64 [a5 + 0xd8] = a1\n 46418: u64 [a5 + 0xd0] = a2\n 46422: u64 [a5 + 0xc8] = a3\n 46426: a1 = s1 + 0x4ee0\n 46430: a0 = u64 [s1 + 0x198]\n 46434: ra = 1734, jump @25\n      : @1673 [@dyn 867] (gas: 5)\n 46441: a0 = u64 [s1 + 0xe0]\n 46445: ra = 0x6c8\n 46449: ecalli 4 // 'caller'\n 46451: t0 = 0x6ca\n 46455: jump @2335\n      : @1674 [@dyn 868] (gas: 1)\n 46458: t0 = 1738, jump @2335\n      : @1675 [@dyn 869] (gas: 8)\n 46464: u64 [a2 + 1088] = 0\n 46468: a4 = a2 + 0x400\n 46472: u64 [a4 + 0x38] = a1\n 46475: u64 [a4 + 0x30] = a0\n 46478: a1 = s1 + 0x3540\n 46482: u64 [a4 + 0x28] = a3\n 46485: a0 = 0\n 46487: ra = 1740, jump @19\n      : @1676 [@dyn 870] (gas: 3)\n 46494: t0 = 0x6ce\n 46498: a1 = s1 + 0x3118\n 46502: fallthrough\n      : @1677 [@dyn 871] (gas: 8)\n 46503: u64 [a1 + 1056] = 0\n 46507: u64 [a1 + 1048] = 0\n 46511: u64 [a1 + 1032] = 0xa\n 46516: a2 = a1\n 46518: a0 = 0x20\n 46521: a1 = s1 + 0x3520\n 46525: u64 [a2 + 1040] = 0\n 46529: ra = 1744, jump @19\n      : @1678 [@dyn 872] (gas: 1)\n 46536: t0 = 1746, jump @2355\n      : @1679 [@dyn 873] (gas: 1)\n 46542: jump @1681 if a2 <u a0\n      : @1680 (gas: 3)\n 46545: u32 [a1 + 0] = 0x40\n 46548: t0 = 0x6d4\n 46552: jump @2348\n      : @1681 (gas: 1)\n 46555: t0 = 1748, jump @2348\n      : @1682 [@dyn 874] (gas: 5)\n 46561: ra = 0x6d6\n 46565: ecalli 7 // 'hash_keccak_256'\n 46567: a3 = u64 [s1 + 0x190]\n 46571: t0 = 0x6d8\n 46575: jump @2343\n      : @1683 [@dyn 875] (gas: 2)\n 46578: a3 = u64 [s1 + 0x190]\n 46582: t0 = 1752, jump @2343\n      : @1684 [@dyn 876] (gas: 2)\n 46588: a4 = a3 + 0x4\n 46591: t0 = 1754, jump @2346\n      : @1685 [@dyn 877] (gas: 3)\n 46597: i32 a0 = a0 + 0x500\n 46601: a0 = a0 + s1\n 46604: ra = 1756, jump @21\n      : @1686 [@dyn 878] (gas: 22)\n 46611: a5 = s1 + 0x3118\n 46615: a3 = u64 [a5 + 0x3e8]\n 46619: a0 = u64 [a5 + 0x3f0]\n 46623: a1 = u64 [a5 + 0x3f8]\n 46627: a2 = u64 [a5 + 0x400]\n 46631: a4 = u64 [s1 + 0xd0]\n 46635: u64 [a5 + 0x3a0] = a4\n 46639: a4 = u64 [s1 + 0xc8]\n 46643: u64 [a5 + 0x398] = a4\n 46647: a4 = u64 [s1 + 0xc0]\n 46651: u64 [a5 + 0x390] = a4\n 46655: a4 = u64 [s1 + 0xb8]\n 46659: u64 [a5 + 0x388] = a4\n 46663: a4 = a5 + 0x300\n 46667: u64 [a4 + 0xc0] = a2\n 46671: u64 [a4 + 0xb8] = a1\n 46675: u64 [a4 + 0xb0] = a0\n 46679: a0 = s1 + 0x34e0\n 46683: a1 = s1 + 0x34c0\n 46687: a2 = s1 + 0x34a0\n 46691: u64 [a4 + 0xa8] = a3\n 46695: ra = 1758, jump @2240\n      : @1687 [@dyn 879] (gas: 2)\n 46701: a0 = 0x3000\n 46705: t0 = 1760, jump @2415\n      : @1688 [@dyn 880] (gas: 13)\n 46711: a0 = u64 [a4 + 0xe0]\n 46715: a1 = u64 [a4 + 0xd8]\n 46719: a2 = u64 [a4 + 0xd0]\n 46723: a3 = u64 [a4 + 0xc8]\n 46727: a4 = s1 + 0x4918\n 46731: u64 [a4 + 0x600] = a0\n 46735: a0 = a4 + 0x500\n 46739: u64 [a0 + 0xf8] = a1\n 46743: u64 [a0 + 0xf0] = a2\n 46747: u64 [a0 + 0xe8] = a3\n 46751: a1 = s1 + 0x4f00\n 46755: a0 = u64 [s1 + 0x198]\n 46759: ra = 1762, jump @25\n      : @1689 [@dyn 881] (gas: 5)\n 46766: a0 = u64 [s1 + 0xe0]\n 46770: ra = 0x6e4\n 46774: ecalli 4 // 'caller'\n 46776: t0 = 0x6e6\n 46780: jump @2335\n      : @1690 [@dyn 882] (gas: 1)\n 46783: t0 = 1766, jump @2335\n      : @1691 [@dyn 883] (gas: 8)\n 46789: u64 [a2 + 896] = 0\n 46793: a4 = a2 + 0x300\n 46797: u64 [a4 + 0x78] = a1\n 46800: u64 [a4 + 0x70] = a0\n 46803: a1 = s1 + 0x3480\n 46807: u64 [a4 + 0x68] = a3\n 46810: a0 = 0\n 46812: ra = 1768, jump @19\n      : @1692 [@dyn 884] (gas: 9)\n 46819: a0 = s1 + 0x3118\n 46823: u64 [a0 + 864] = 0\n 46827: u64 [a0 + 856] = 0\n 46831: u64 [a0 + 848] = 0\n 46835: a3 = a0\n 46837: a0 = 0x20\n 46840: a1 = s1 + 0x3460\n 46844: u64 [a3 + 840] = 0xa\n 46849: ra = 1770, jump @19\n      : @1693 [@dyn 885] (gas: 1)\n 46856: t0 = 1772, jump @2355\n      : @1694 [@dyn 886] (gas: 1)\n 46862: jump @1696 if a2 <u a0\n      : @1695 (gas: 2)\n 46865: u32 [a1 + 0] = 0x40\n 46868: fallthrough\n      : @1696 (gas: 4)\n 46869: a0 = u64 [s1 + 0xf8]\n 46873: a0 = a0 * 0x190\n 46877: u64 [s1 + 0x60] = a0\n 46880: t0 = 1774, jump @2348\n      : @1697 [@dyn 887] (gas: 5)\n 46886: ra = 0x6f0\n 46890: ecalli 7 // 'hash_keccak_256'\n 46892: a3 = u64 [s1 + 0x190]\n 46896: t0 = 0x6f2\n 46900: jump @2343\n      : @1698 [@dyn 888] (gas: 2)\n 46903: a3 = u64 [s1 + 0x190]\n 46907: t0 = 1778, jump @2343\n      : @1699 [@dyn 889] (gas: 2)\n 46913: a4 = a3 + 0x5\n 46916: t0 = 1780, jump @2346\n      : @1700 [@dyn 890] (gas: 3)\n 46922: i32 a0 = a0 + 0x440\n 46926: a0 = a0 + s1\n 46929: ra = 1782, jump @21\n      : @1701 [@dyn 891] (gas: 22)\n 46936: a5 = s1 + 0x3118\n 46940: a3 = u64 [a5 + 0x328]\n 46944: a0 = u64 [a5 + 0x330]\n 46948: a1 = u64 [a5 + 0x338]\n 46952: a2 = u64 [a5 + 0x340]\n 46956: a4 = u64 [s1 + 0xb0]\n 46960: u64 [a5 + 0x2e0] = a4\n 46964: a4 = u64 [s1 + 0xa8]\n 46968: u64 [a5 + 0x2d8] = a4\n 46972: a4 = u64 [s1 + 0xa0]\n 46976: u64 [a5 + 0x2d0] = a4\n 46980: a4 = u64 [s1 + 0x98]\n 46984: u64 [a5 + 0x2c8] = a4\n 46988: u64 [a5 + 0x300] = a2\n 46992: a4 = a5 + 0x200\n 46996: u64 [a4 + 0xf8] = a1\n 47000: u64 [a4 + 0xf0] = a0\n 47004: a0 = s1 + 0x3420\n 47008: a1 = s1 + 0x3400\n 47012: a2 = s1 + 0x33e0\n 47016: u64 [a4 + 0xe8] = a3\n 47020: ra = 1784, jump @2240\n      : @1702 [@dyn 892] (gas: 2)\n 47026: a0 = 0x3000\n 47030: t0 = 1786, jump @2415\n      : @1703 [@dyn 893] (gas: 13)\n 47036: a0 = u64 [a4 + 0x20]\n 47039: a1 = u64 [a4 + 0x18]\n 47042: a2 = u64 [a4 + 0x10]\n 47045: a3 = u64 [a4 + 0x8]\n 47048: a4 = s1 + 0x4918\n 47052: a5 = a4 + 0x600\n 47056: u64 [a5 + 0x20] = a0\n 47059: u64 [a5 + 0x18] = a1\n 47062: u64 [a5 + 0x10] = a2\n 47065: u64 [a5 + 0x8] = a3\n 47068: a1 = s1 + 0x4f20\n 47072: a0 = u64 [s1 + 0x198]\n 47076: ra = 1788, jump @25\n      : @1704 [@dyn 894] (gas: 5)\n 47083: a0 = u64 [s1 + 0xe0]\n 47087: ra = 0x6fe\n 47091: ecalli 4 // 'caller'\n 47093: t0 = 0x700\n 47097: jump @2335\n      : @1705 [@dyn 895] (gas: 1)\n 47100: t0 = 1792, jump @2335\n      : @1706 [@dyn 896] (gas: 8)\n 47106: u64 [a2 + 704] = 0\n 47110: a4 = a2 + 0x200\n 47114: u64 [a4 + 0xb8] = a1\n 47118: u64 [a4 + 0xb0] = a0\n 47122: a1 = s1 + 0x33c0\n 47126: u64 [a4 + 0xa8] = a3\n 47130: a0 = 0\n 47132: ra = 1794, jump @19\n      : @1707 [@dyn 897] (gas: 3)\n 47139: t0 = 0x704\n 47143: a1 = s1 + 0x3118\n 47147: fallthrough\n      : @1708 [@dyn 898] (gas: 8)\n 47148: u64 [a1 + 672] = 0\n 47152: u64 [a1 + 664] = 0\n 47156: u64 [a1 + 648] = 0xa\n 47161: a2 = a1\n 47163: a0 = 0x20\n 47166: a1 = s1 + 0x33a0\n 47170: u64 [a2 + 656] = 0\n 47174: ra = 1798, jump @19\n      : @1709 [@dyn 899] (gas: 1)\n 47181: t0 = 1800, jump @2355\n      : @1710 [@dyn 900] (gas: 1)\n 47187: jump @1712 if a2 <u a0\n      : @1711 (gas: 3)\n 47190: u32 [a1 + 0] = 0x40\n 47193: t0 = 0x70a\n 47197: jump @2348\n      : @1712 (gas: 1)\n 47200: t0 = 1802, jump @2348\n      : @1713 [@dyn 901] (gas: 5)\n 47206: ra = 0x70c\n 47210: ecalli 7 // 'hash_keccak_256'\n 47212: a3 = u64 [s1 + 0x190]\n 47216: t0 = 0x70e\n 47220: jump @2343\n      : @1714 [@dyn 902] (gas: 2)\n 47223: a3 = u64 [s1 + 0x190]\n 47227: t0 = 1806, jump @2343\n      : @1715 [@dyn 903] (gas: 2)\n 47233: a4 = a3 + 0x2\n 47236: t0 = 1808, jump @2346\n      : @1716 [@dyn 904] (gas: 3)\n 47242: i32 a0 = a0 + 0x380\n 47246: a0 = a0 + s1\n 47249: ra = 1810, jump @21\n      : @1717 [@dyn 905] (gas: 22)\n 47256: a5 = s1 + 0x3118\n 47260: a3 = u64 [a5 + 0x268]\n 47264: a0 = u64 [a5 + 0x270]\n 47268: a1 = u64 [a5 + 0x278]\n 47272: a2 = u64 [a5 + 0x280]\n 47276: a4 = u64 [s1 + 0x70]\n 47279: u64 [a5 + 0x220] = a4\n 47283: a4 = u64 [s1 + 0x68]\n 47286: u64 [a5 + 0x218] = a4\n 47290: a4 = u64 [s1 + 0x78]\n 47293: u64 [a5 + 0x210] = a4\n 47297: a4 = u64 [s1 + 0x60]\n 47300: u64 [a5 + 0x208] = a4\n 47304: a4 = a5 + 0x200\n 47308: u64 [a4 + 0x40] = a2\n 47311: u64 [a4 + 0x38] = a1\n 47314: u64 [a4 + 0x30] = a0\n 47317: a0 = s1 + 0x3360\n 47321: a1 = s1 + 0x3340\n 47325: a2 = s1 + 0x3320\n 47329: u64 [a4 + 0x28] = a3\n 47332: ra = 1812, jump @2240\n      : @1718 [@dyn 906] (gas: 2)\n 47338: a0 = 0x3000\n 47342: t0 = 1814, jump @2446\n      : @1719 [@dyn 907] (gas: 13)\n 47348: a0 = u64 [a4 + 0x60]\n 47351: a1 = u64 [a4 + 0x58]\n 47354: a2 = u64 [a4 + 0x50]\n 47357: a3 = u64 [a4 + 0x48]\n 47360: a4 = s1 + 0x4918\n 47364: a5 = a4 + 0x600\n 47368: u64 [a5 + 0x40] = a0\n 47371: u64 [a5 + 0x38] = a1\n 47374: u64 [a5 + 0x30] = a2\n 47377: u64 [a5 + 0x28] = a3\n 47380: a1 = s1 + 0x4f40\n 47384: a0 = u64 [s1 + 0x198]\n 47388: ra = 1816, jump @25\n      : @1720 [@dyn 908] (gas: 5)\n 47395: a0 = u64 [s1 + 0xe0]\n 47399: ra = 0x71a\n 47403: ecalli 4 // 'caller'\n 47405: t0 = 0x71c\n 47409: jump @2335\n      : @1721 [@dyn 909] (gas: 1)\n 47412: t0 = 1820, jump @2335\n      : @1722 [@dyn 910] (gas: 8)\n 47418: u64 [a2 + 512] = 0\n 47422: a4 = a2 + 0x100\n 47426: u64 [a4 + 0xf8] = a1\n 47430: u64 [a4 + 0xf0] = a0\n 47434: a1 = s1 + 0x3300\n 47438: u64 [a4 + 0xe8] = a3\n 47442: a0 = 0\n 47444: ra = 1822, jump @19\n      : @1723 [@dyn 911] (gas: 3)\n 47451: t0 = 0x720\n 47455: a1 = s1 + 0x3118\n 47459: fallthrough\n      : @1724 [@dyn 912] (gas: 8)\n 47460: u64 [a1 + 480] = 0\n 47464: u64 [a1 + 472] = 0\n 47468: u64 [a1 + 456] = 0xd\n 47473: a2 = a1\n 47475: a0 = 0x20\n 47478: a1 = s1 + 0x32e0\n 47482: u64 [a2 + 464] = 0\n 47486: ra = 1826, jump @19\n      : @1725 [@dyn 913] (gas: 1)\n 47493: t0 = 1828, jump @2355\n      : @1726 [@dyn 914] (gas: 1)\n 47499: jump @1728 if a2 <u a0\n      : @1727 (gas: 3)\n 47502: u32 [a1 + 0] = 0x40\n 47505: t0 = 0x726\n 47509: jump @2348\n      : @1728 (gas: 1)\n 47512: t0 = 1830, jump @2348\n      : @1729 [@dyn 915] (gas: 4)\n 47518: ra = 0x728\n 47522: ecalli 7 // 'hash_keccak_256'\n 47524: t0 = 0x72a\n 47528: jump @2363\n      : @1730 [@dyn 916] (gas: 1)\n 47531: t0 = 1834, jump @2363\n      : @1731 [@dyn 917] (gas: 2)\n 47537: a0 = s1 + 0x32c0\n 47541: ra = 1836, jump @21\n      : @1732 [@dyn 918] (gas: 22)\n 47548: a5 = s1 + 0x3118\n 47552: a3 = u64 [a5 + 0x1a8]\n 47556: a0 = u64 [a5 + 0x1b0]\n 47560: a1 = u64 [a5 + 0x1b8]\n 47564: a2 = u64 [a5 + 0x1c0]\n 47568: a4 = u64 [s1 + 0x70]\n 47571: u64 [a5 + 0x160] = a4\n 47575: a4 = u64 [s1 + 0x68]\n 47578: u64 [a5 + 0x158] = a4\n 47582: a4 = u64 [s1 + 0x78]\n 47585: u64 [a5 + 0x150] = a4\n 47589: a4 = u64 [s1 + 0x60]\n 47592: u64 [a5 + 0x148] = a4\n 47596: a4 = a5 + 0x100\n 47600: u64 [a4 + 0x80] = a2\n 47604: u64 [a4 + 0x78] = a1\n 47607: u64 [a4 + 0x70] = a0\n 47610: a0 = s1 + 0x32a0\n 47614: a1 = s1 + 0x3280\n 47618: a2 = s1 + 0x3260\n 47622: u64 [a4 + 0x68] = a3\n 47625: ra = 1838, jump @2240\n      : @1733 [@dyn 919] (gas: 2)\n 47631: a0 = 0x3000\n 47635: t0 = 1840, jump @2395\n      : @1734 [@dyn 920] (gas: 1)\n 47641: t0 = 1842, jump @2414\n      : @1735 [@dyn 921] (gas: 8)\n 47647: a5 = a4 + 0x600\n 47651: u64 [a5 + 0x60] = a0\n 47654: u64 [a5 + 0x58] = a1\n 47657: u64 [a5 + 0x50] = a2\n 47660: u64 [a5 + 0x48] = a3\n 47663: a1 = s1 + 0x4f60\n 47667: a0 = u64 [s1 + 0x198]\n 47671: ra = 1844, jump @25\n      : @1736 [@dyn 922] (gas: 8)\n 47678: a0 = s1 + 0x4918\n 47682: u64 [a0 + 1664] = 0\n 47686: u64 [a0 + 1656] = 0\n 47690: u64 [a0 + 1648] = 0\n 47694: u64 [a0 + 1640] = 0x7\n 47699: a0 = s1 + 0x3240\n 47703: a1 = s1 + 0x4f80\n 47707: ra = 1846, jump @21\n      : @1737 [@dyn 923] (gas: 21)\n 47714: a5 = s1 + 0x3118\n 47718: a3 = u64 [a5 + 0x128]\n 47722: a0 = u64 [a5 + 0x130]\n 47726: a1 = u64 [a5 + 0x138]\n 47730: a2 = u64 [a5 + 0x140]\n 47734: a4 = u64 [s1 + 0xf0]\n 47738: u64 [a5 + 0xe0] = a4\n 47742: a4 = u64 [s1 + 0xe8]\n 47746: u64 [a5 + 0xd8] = a4\n 47750: a4 = u64 [s1 + 0x100]\n 47754: u64 [a5 + 0xd0] = a4\n 47758: a4 = u64 [s1 + 0xf8]\n 47762: u64 [a5 + 0xc8] = a4\n 47766: u64 [a5 + 0x100] = a2\n 47770: u64 [a5 + 0xf8] = a1\n 47774: u64 [a5 + 0xf0] = a0\n 47778: a0 = s1 + 0x3220\n 47782: a1 = s1 + 0x3200\n 47786: a2 = s1 + 0x31e0\n 47790: u64 [a5 + 0xe8] = a3\n 47794: ra = 1848, jump @2240\n      : @1738 [@dyn 924] (gas: 2)\n 47800: a0 = 0x3000\n 47804: t0 = 1850, jump @2395\n      : @1739 [@dyn 925] (gas: 17)\n 47810: a0 = u64 [a4 + 0x8]\n 47813: a1 = u64 [a4 + 0x10]\n 47816: a2 = u64 [a4 + 0x18]\n 47819: a3 = u64 [a4 + 0x20]\n 47822: a4 = s1 + 0x4918\n 47826: u64 [a4 + 1696] = 0\n 47830: u64 [a4 + 1688] = 0\n 47834: u64 [a4 + 1680] = 0\n 47838: u64 [a4 + 1672] = 0x7\n 47843: a5 = a4 + 0x600\n 47847: u64 [a5 + 0xc0] = a3\n 47851: u64 [a5 + 0xb8] = a2\n 47855: u64 [a5 + 0xb0] = a1\n 47859: u64 [a5 + 0xa8] = a0\n 47863: a0 = s1 + 0x4fa0\n 47867: a1 = s1 + 0x4fc0\n 47871: ra = 1852, jump @25\n      : @1740 [@dyn 926] (gas: 8)\n 47878: a0 = s1 + 0x4918\n 47882: u64 [a0 + 1760] = 0\n 47886: u64 [a0 + 1752] = 0\n 47890: u64 [a0 + 1744] = 0\n 47894: u64 [a0 + 1736] = 0x8\n 47899: a0 = s1 + 0x31c0\n 47903: a1 = s1 + 0x4fe0\n 47907: ra = 1854, jump @21\n      : @1741 [@dyn 927] (gas: 21)\n 47914: a4 = s1 + 0x3118\n 47918: a3 = u64 [a4 + 0xa8]\n 47922: a0 = u64 [a4 + 0xb0]\n 47926: a1 = u64 [a4 + 0xb8]\n 47930: a2 = u64 [a4 + 0xc0]\n 47934: a5 = u64 [s1 + 0x70]\n 47937: u64 [a4 + 0x60] = a5\n 47940: a5 = u64 [s1 + 0x68]\n 47943: u64 [a4 + 0x58] = a5\n 47946: a5 = u64 [s1 + 0x78]\n 47949: u64 [a4 + 0x50] = a5\n 47952: a5 = u64 [s1 + 0x60]\n 47955: u64 [a4 + 0x48] = a5\n 47958: u64 [a4 + 0x80] = a2\n 47962: u64 [a4 + 0x78] = a1\n 47965: u64 [a4 + 0x70] = a0\n 47968: a0 = s1 + 0x31a0\n 47972: a1 = s1 + 0x3180\n 47976: a2 = s1 + 0x3160\n 47980: u64 [a4 + 0x68] = a3\n 47983: ra = 1856, jump @2240\n      : @1742 [@dyn 928] (gas: 18)\n 47989: a3 = s1 + 0x3118\n 47993: a0 = u64 [a3 + 0x88]\n 47997: a1 = u64 [a3 + 0x90]\n 48001: a2 = u64 [a3 + 0x98]\n 48005: a3 = u64 [a3 + 0xa0]\n 48009: a4 = s1 + 0x4918\n 48013: u64 [a4 + 1792] = 0\n 48017: u64 [a4 + 1784] = 0\n 48021: u64 [a4 + 1776] = 0\n 48025: u64 [a4 + 1768] = 0x8\n 48030: a5 = a4 + 0x700\n 48034: u64 [a5 + 0x20] = a3\n 48037: u64 [a5 + 0x18] = a2\n 48040: u64 [a5 + 0x10] = a1\n 48043: u64 [a5 + 0x8] = a0\n 48046: a0 = s1 + 0x5000\n 48050: a1 = s1 + 0x5020\n 48054: ra = 1858, jump @25\n      : @1743 [@dyn 929] (gas: 5)\n 48061: a0 = u64 [s1 + 0xe0]\n 48065: ra = 0x744\n 48069: ecalli 4 // 'caller'\n 48071: t0 = 0x746\n 48075: jump @2335\n      : @1744 [@dyn 930] (gas: 1)\n 48078: t0 = 1862, jump @2335\n      : @1745 [@dyn 931] (gas: 7)\n 48084: u64 [a2 + 64] = 0\n 48087: u64 [a2 + 0x38] = a1\n 48090: u64 [a2 + 0x30] = a0\n 48093: a1 = s1 + 0x3140\n 48097: u64 [a2 + 0x28] = a3\n 48100: a0 = 0\n 48102: ra = 1864, jump @19\n      : @1746 [@dyn 932] (gas: 3)\n 48109: t0 = 0x74a\n 48113: a1 = s1 + 0x3118\n 48117: fallthrough\n      : @1747 [@dyn 933] (gas: 8)\n 48118: u64 [a1 + 32] = 0\n 48121: u64 [a1 + 24] = 0\n 48124: u64 [a1 + 8] = 0xb\n 48128: a2 = a1\n 48130: a0 = 0x20\n 48133: a1 = s1 + 0x3120\n 48137: u64 [a2 + 16] = 0\n 48140: ra = 1868, jump @19\n      : @1748 [@dyn 934] (gas: 7)\n 48147: a1 = u64 [s1 + 0x110]\n 48151: a0 = sp + 0xffffffffffffffe0\n 48154: a0 = a0 & 0xffffffffffffffe0\n 48157: u64 [s1 + 0x178] = a0\n 48161: sp = a0\n 48163: a0 = i32 [a1]\n 48165: jump @1750 if a0 >u 63\n      : @1749 (gas: 3)\n 48169: u32 [a1 + 0] = 0x40\n 48172: t0 = 0x74e\n 48176: jump @2378\n      : @1750 (gas: 1)\n 48179: t0 = 1870, jump @2378\n      : @1751 [@dyn 935] (gas: 4)\n 48185: a0 = u64 [s1 + 0xd8]\n 48189: ra = 0x750\n 48193: ecalli 7 // 'hash_keccak_256'\n 48195: fallthrough\n      : @1752 [@dyn 936] (gas: 7)\n 48196: a3 = u64 [s1 + 0x198]\n 48200: a0 = u64 [a3 + 0x18]\n 48203: a1 = u64 [a3 + 0x10]\n 48206: a2 = u64 [a3 + 0x8]\n 48209: a3 = u64 [a3]\n 48211: a4 = reverse a0\n 48213: t0 = 1874, jump @2361\n      : @1753 [@dyn 937] (gas: 12)\n 48219: a0 = u64 [s1 + 0x178]\n 48223: u64 [s1 + 0x158] = a3\n 48227: u64 [a0 + 0x18] = a3\n 48230: u64 [s1 + 0x160] = a2\n 48234: u64 [a0 + 0x10] = a2\n 48237: u64 [s1 + 0x168] = a1\n 48241: u64 [a0 + 0x8] = a1\n 48244: u64 [s1 + 0x170] = a4\n 48248: u64 [a0] = a4\n 48250: a0 = s1 + 0x3100\n 48254: a1 = 0x40\n 48257: ra = 1876, jump @17\n      : @1754 [@dyn 938] (gas: 18)\n 48264: a0 = s1 + 0x3118\n 48268: a2 = u64 [a0]\n 48270: u64 [s1 + 0x188] = a2\n 48274: a1 = a0 + 0xffffffffffffff00\n 48278: a3 = u64 [a1 + 0xf8]\n 48282: u64 [s1 + 0x180] = a3\n 48286: a4 = u64 [a1 + 0xf0]\n 48290: u64 [s1 + 0x190] = a4\n 48294: a5 = u64 [a1 + 0xe8]\n 48298: u64 [s1 + 0x198] = a5\n 48302: a1 = s1 + 0x2918\n 48306: u64 [a1 + 0x7e0] = a2\n 48310: a2 = a1 + 0x700\n 48314: u64 [a2 + 0xd8] = a3\n 48318: u64 [a2 + 0xd0] = a4\n 48322: a0 = s1 + 0x30e0\n 48326: u64 [a2 + 0xc8] = a5\n 48330: ra = 1878, jump @2168\n      : @1755 [@dyn 939] (gas: 13)\n 48336: a4 = s1 + 0x100\n 48340: a2 = u64 [a4 + 0x98]\n 48344: a0 = u64 [a4 + 0x88]\n 48348: a1 = u64 [a4 + 0x90]\n 48352: a0 = a0 | a1\n 48355: a3 = u64 [a4 + 0x80]\n 48359: a1 = a2 | a3\n 48362: a1 = a1 | a0\n 48365: a1 = a1 >> 0x20\n 48368: a0 = a0 | a3\n 48371: a0 = a0 << 0x20\n 48374: a0 = a0 | a1\n 48377: jump @1757 if a0 == 0\n      : @1756 (gas: 1)\n 48380: jump @1912\n      : @1757 (gas: 2)\n 48383: a0 = u64 [s1 + 0xf8]\n 48387: t0 = 1880, jump @2433\n      : @1758 [@dyn 940] (gas: 10)\n 48393: u64 [a4 + 0xa8] = a0\n 48397: a0 = u64 [s1 + 0x100]\n 48401: u64 [a4 + 0xb0] = a0\n 48405: a0 = u64 [s1 + 0xe8]\n 48409: u64 [a4 + 0xb8] = a0\n 48413: a1 = s1 + 0x30c0\n 48417: a0 = u64 [s1 + 0xf0]\n 48421: u64 [a4 + 0xc0] = a0\n 48425: a0 = a2\n 48427: ra = 1882, jump @19\n      : @1759 [@dyn 941] (gas: 4)\n 48434: a0 = s1 + 0x5000\n 48438: i32 a0 = a0 + 0x40\n 48441: ecalli 8 // 'now'\n 48443: fallthrough\n      : @1760 (gas: 12)\n 48444: a5 = s1 + 0x100\n 48448: a4 = u64 [a5 + 0x98]\n 48452: a0 = u64 [a5 + 0x88]\n 48456: a1 = u64 [a5 + 0x80]\n 48460: a1 = a1 | a0\n 48463: a3 = 0x100000000\n 48473: a0 = 0xffffffe0\n 48483: a0 = a4 <u a0\n 48486: a2 = u64 [a5 + 0x90]\n 48490: a0 = 0 if a2 != 0\n 48492: a0 = 0 if a1 != 0\n 48494: jump @1762 if a0 != 0\n      : @1761 (gas: 1)\n 48497: jump @1912\n      : @1762 (gas: 17)\n 48500: a0 = s1 + 0x4918\n 48504: u64 [s1 + 0x188] = a1\n 48508: u64 [s1 + 0x180] = a3\n 48512: a5 = u64 [a0 + 0x728]\n 48516: a1 = u64 [a0 + 0x730]\n 48520: a2 = u64 [a0 + 0x738]\n 48524: a3 = u64 [a0 + 0x740]\n 48528: i32 a0 = a4 + 0x20\n 48531: a4 = s1 + 0x2918\n 48535: u64 [a4 + 0x7a0] = a3\n 48539: a3 = a4 + 0x700\n 48543: u64 [a3 + 0x98] = a2\n 48547: u64 [a3 + 0x90] = a1\n 48551: a1 = s1 + 0x30a0\n 48555: u64 [a3 + 0x88] = a5\n 48559: u64 [s1 + 0x150] = a0\n 48563: ra = 1884, jump @19\n      : @1763 [@dyn 942] (gas: 5)\n 48570: a3 = s1 + 0x100\n 48574: a1 = u64 [a3 + 0x98]\n 48578: a0 = u64 [a3 + 0x80]\n 48582: a0 = a0 + 0xffffffffffffffc0\n 48585: t0 = 1886, jump @2408\n      : @1764 [@dyn 943] (gas: 1)\n 48591: jump @1766 if a0 != 0\n      : @1765 (gas: 1)\n 48594: jump @1912\n      : @1766 (gas: 3)\n 48597: i32 a2 = a1 + 0x40\n 48600: a0 = u64 [s1 + 0xb8]\n 48604: t0 = 1888, jump @2433\n      : @1767 [@dyn 944] (gas: 11)\n 48610: u64 [a4 + 0x68] = a0\n 48613: a0 = u64 [s1 + 0xc0]\n 48617: u64 [a4 + 0x70] = a0\n 48620: a0 = u64 [s1 + 0xc8]\n 48624: u64 [a4 + 0x78] = a0\n 48627: a1 = s1 + 0x3080\n 48631: a0 = u64 [s1 + 0xd0]\n 48635: u64 [a4 + 0x80] = a0\n 48639: u64 [s1 + 0x130] = a2\n 48643: a0 = a2\n 48645: ra = 1890, jump @19\n      : @1768 [@dyn 945] (gas: 4)\n 48652: a3 = s1 + 0x100\n 48656: a1 = u64 [a3 + 0x98]\n 48660: a0 = 0xffffffa0\n 48670: t0 = 1892, jump @2408\n      : @1769 [@dyn 946] (gas: 1)\n 48676: jump @1771 if a0 != 0\n      : @1770 (gas: 1)\n 48679: jump @1912\n      : @1771 (gas: 3)\n 48682: i32 a2 = a1 + 0x60\n 48685: a0 = u64 [s1 + 0x98]\n 48689: t0 = 1894, jump @2433\n      : @1772 [@dyn 947] (gas: 11)\n 48695: u64 [a4 + 0x48] = a0\n 48698: a0 = u64 [s1 + 0xa0]\n 48702: u64 [a4 + 0x50] = a0\n 48705: a0 = u64 [s1 + 0xa8]\n 48709: u64 [a4 + 0x58] = a0\n 48712: a1 = s1 + 0x3060\n 48716: a0 = u64 [s1 + 0xb0]\n 48720: u64 [a4 + 0x60] = a0\n 48723: u64 [s1 + 0x128] = a2\n 48727: a0 = a2\n 48729: ra = 1896, jump @19\n      : @1773 [@dyn 948] (gas: 3)\n 48736: a0 = s1 + 0x3040\n 48740: a1 = 0x40\n 48743: ra = 1898, jump @17\n      : @1774 [@dyn 949] (gas: 33)\n 48750: a4 = s1 + 0x2918\n 48754: t1 = u64 [a4 + 0x740]\n 48758: u64 [s1 + 0x180] = t1\n 48762: t0 = u64 [a4 + 0x738]\n 48766: u64 [s1 + 0x148] = t0\n 48770: a5 = u64 [a4 + 0x730]\n 48774: u64 [s1 + 0x140] = a5\n 48778: t2 = u64 [a4 + 0x728]\n 48782: u64 [s1 + 0x138] = t2\n 48786: a1 = u64 [s1 + 0x120]\n 48790: a0 = a1 + 0x1f\n 48793: a1 = a0 <u a1\n 48796: a2 = u64 [s1 + 0x118]\n 48800: a1 = a1 + a2\n 48803: a1 = a1 & 0x1\n 48806: a0 = a0 & 0xffffffffffffffe0\n 48809: a2 = a0 + 0x20\n 48812: a0 = a2 <u a0\n 48815: a3 = a1 + a0\n 48818: a1 = a3 <u a1\n 48821: a1 = a0 if a0 == 0\n 48824: u64 [a4 + 1792] = 0\n 48828: a0 = a4 + 0x600\n 48832: u64 [a0 + 0xf8] = a1\n 48836: u64 [a0 + 0xf0] = a3\n 48840: u64 [a0 + 0xe8] = a2\n 48844: u64 [a4 + 0x720] = t1\n 48848: u64 [a4 + 0x718] = t0\n 48852: u64 [a4 + 0x710] = a5\n 48856: a0 = s1 + 0x3020\n 48860: a1 = s1 + 0x3000\n 48864: u64 [a4 + 0x708] = t2\n 48868: ra = 1900, jump @2177\n      : @1775 [@dyn 950] (gas: 13)\n 48874: a4 = s1 + 0x100\n 48878: a3 = u64 [a4 + 0x38]\n 48881: a1 = u64 [a4 + 0x40]\n 48884: a2 = u64 [a4 + 0x48]\n 48887: a0 = u64 [a4 + 0x80]\n 48891: a0 = a0 | a1\n 48894: a1 = a3 | a2\n 48897: a1 = a1 | a0\n 48900: a1 = a1 >> 0x20\n 48903: a0 = a0 | a2\n 48906: a0 = a0 << 0x20\n 48909: a0 = a0 | a1\n 48912: jump @1777 if a0 == 0\n      : @1776 (gas: 1)\n 48915: jump @1912\n      : @1777 (gas: 13)\n 48918: a0 = s1 + 0x2918\n 48922: a1 = u64 [s1 + 0x120]\n 48926: a4 = a0 + 0x600\n 48930: u64 [a4 + 0xc8] = a1\n 48934: a1 = u64 [s1 + 0x118]\n 48938: u64 [a4 + 0xd0] = a1\n 48942: a1 = u64 [s1 + 0x88]\n 48946: u64 [a4 + 0xd8] = a1\n 48950: a1 = s1 + 0x2fe0\n 48954: a2 = u64 [s1 + 0x90]\n 48958: u64 [a4 + 0xe0] = a2\n 48962: a0 = a3\n 48964: ra = 1902, jump @19\n      : @1778 [@dyn 951] (gas: 12)\n 48971: a2 = u64 [s1 + 0x88]\n 48975: a3 = u64 [s1 + 0x120]\n 48979: a0 = a3 | a2\n 48982: a4 = u64 [s1 + 0x118]\n 48986: a1 = u64 [s1 + 0x90]\n 48990: a1 = a1 | a4\n 48993: a0 = a0 | a1\n 48996: a0 = a0 >> 0x20\n 48999: a1 = a1 | a2\n 49002: a1 = a1 << 0x20\n 49005: a0 = a0 | a1\n 49008: jump @1780 if a0 == 0\n      : @1779 (gas: 1)\n 49011: jump @1912\n      : @1780 (gas: 13)\n 49014: a1 = a3\n 49016: a5 = s1 + 0x100\n 49020: a0 = u64 [a5 + 0x80]\n 49024: a2 = u64 [a5 + 0x48]\n 49027: a0 = a0 | a2\n 49030: a2 = 0xffffffe0\n 49040: u64 [s1 + 0x30] = a2\n 49043: a4 = u64 [a5 + 0x38]\n 49046: a2 = a4 <u a2\n 49049: a3 = u64 [a5 + 0x40]\n 49052: a2 = 0 if a3 != 0\n 49054: a2 = 0 if a0 != 0\n 49056: jump @1782 if a2 != 0\n      : @1781 (gas: 1)\n 49059: jump @1912\n      : @1782 (gas: 4)\n 49062: a0 = i32 [s1 + 0x80]\n 49066: u64 [s1 + 0x80] = a0\n 49070: i32 a0 = a4 + 0x20\n 49073: ra = 1904, jump @31\n      : @1783 [@dyn 952] (gas: 5)\n 49080: i32 a0 = a0 + 0\n 49082: a1 = i32 [s1 + 0x120]\n 49086: a2 = u64 [s1 + 0x80]\n 49090: ecalli 1 // 'call_data_copy'\n 49092: fallthrough\n      : @1784 (gas: 28)\n 49093: a0 = u64 [s1 + 0x120]\n 49097: t0 = u64 [s1 + 0x138]\n 49101: t0 = t0 + a0\n 49104: a1 = t0 <u a0\n 49107: a4 = u64 [s1 + 0x118]\n 49111: a2 = u64 [s1 + 0x140]\n 49115: a2 = a2 + a4\n 49118: a2 = a2 + a1\n 49121: a3 = a2 ^ a4\n 49124: a4 = a2 <u a4\n 49127: a4 = a1 if a3 == 0\n 49130: a3 = u64 [s1 + 0x88]\n 49134: a1 = u64 [s1 + 0x148]\n 49138: a1 = a1 + a3\n 49141: a3 = a1 <u a3\n 49144: a5 = u64 [s1 + 0x90]\n 49148: a0 = u64 [s1 + 0x180]\n 49152: a5 = a5 + a0\n 49155: a3 = a3 + a5\n 49158: a4 = a4 + a1\n 49161: a1 = a4 <u a1\n 49164: a1 = a1 + a3\n 49167: a1 = a1 | a4\n 49170: a3 = u64 [s1 + 0x30]\n 49173: a3 = t0 <u a3\n 49176: a3 = 0 if a2 != 0\n 49178: a3 = 0 if a1 != 0\n 49180: jump @1786 if a3 != 0\n      : @1785 (gas: 1)\n 49183: jump @1912\n      : @1786 (gas: 4)\n 49186: i32 a0 = t0 + 0x20\n 49189: t0 = 0x772\n 49193: a2 = s1 + 0x2918\n 49197: fallthrough\n      : @1787 [@dyn 953] (gas: 6)\n 49198: u64 [a2 + 1728] = 0\n 49202: u64 [a2 + 1720] = 0\n 49206: u64 [a2 + 1712] = 0\n 49210: a1 = s1 + 0x2fc0\n 49214: u64 [a2 + 1704] = 0\n 49218: ra = 1908, jump @19\n      : @1788 [@dyn 954] (gas: 9)\n 49225: a0 = 0xffffff80\n 49235: a2 = s1 + 0x100\n 49239: a1 = u64 [a2 + 0x98]\n 49243: a0 = a1 <u a0\n 49246: a1 = u64 [a2 + 0x90]\n 49250: a0 = 0 if a1 != 0\n 49252: a1 = u64 [a2 + 0x88]\n 49256: a0 = 0 if a1 != 0\n 49258: jump @1790 if a0 != 0\n      : @1789 (gas: 1)\n 49261: jump @1912\n      : @1790 (gas: 16)\n 49264: a0 = u64 [s1 + 0x198]\n 49268: i32 a2 = a0 + 0x80\n 49272: a3 = s1 + 0x2918\n 49276: a0 = u64 [s1 + 0x138]\n 49280: a4 = a3 + 0x600\n 49284: u64 [a4 + 0x88] = a0\n 49288: a0 = u64 [s1 + 0x140]\n 49292: u64 [a4 + 0x90] = a0\n 49296: a0 = u64 [s1 + 0x148]\n 49300: u64 [a4 + 0x98] = a0\n 49304: a1 = s1 + 0x2fa0\n 49308: a0 = u64 [s1 + 0x180]\n 49312: u64 [a4 + 0xa0] = a0\n 49316: u64 [s1 + 0x140] = a2\n 49320: a0 = a2\n 49322: ra = 1910, jump @19\n      : @1791 [@dyn 955] (gas: 3)\n 49329: a0 = s1 + 0x2f80\n 49333: a1 = u64 [s1 + 0x178]\n 49337: ra = 1912, jump @21\n      : @1792 [@dyn 956] (gas: 14)\n 49344: a0 = s1 + 0x2918\n 49348: a1 = a0 + 0x600\n 49352: a5 = u64 [a1 + 0x80]\n 49356: a3 = u64 [a1 + 0x78]\n 49359: a2 = u64 [a1 + 0x70]\n 49362: a0 = a5 >u 0\n 49364: a1 = a3 >u 0\n 49366: a1 = a0 if a5 != 0\n 49369: a4 = a3\n 49371: a0 = a3 | a5\n 49374: a3 = a2\n 49376: a2 = a2 >u 0\n 49378: a2 = a1 if a0 != 0\n 49381: jump @1794 if a2 == 0\n      : @1793 (gas: 1)\n 49384: jump @2094\n      : @1794 (gas: 23)\n 49387: a0 = s1 + 0x2918\n 49391: a0 = u64 [a0 + 0x668]\n 49395: u64 [s1 + 0x190] = a0\n 49399: a0 = a0 + 0x1\n 49402: a1 = a0 <u 0x1\n 49405: u64 [s1 + 0x188] = a3\n 49409: a1 = a1 + a3\n 49412: a2 = a0 | a1\n 49415: a2 = a2 <u 0x1\n 49418: u64 [s1 + 0x180] = a4\n 49422: a2 = a2 + a4\n 49425: a3 = a2 <u a4\n 49428: u64 [s1 + 0x138] = a5\n 49432: a3 = a3 + a5\n 49435: a4 = s1 + 0x4918\n 49439: a5 = a4 + 0x700\n 49443: u64 [a5 + 0x48] = a0\n 49446: u64 [a5 + 0x50] = a1\n 49449: u64 [a5 + 0x58] = a2\n 49452: u64 [a5 + 0x60] = a3\n 49455: a1 = s1 + 0x5060\n 49459: a0 = u64 [s1 + 0x178]\n 49463: ra = 1914, jump @25\n      : @1795 [@dyn 957] (gas: 28)\n 49470: a0 = sp + 0xffffffffffffffe0\n 49473: a0 = a0 & 0xffffffffffffffe0\n 49476: u64 [s1 + 0x148] = a0\n 49480: sp = a0\n 49482: a1 = s1 + 0x2918\n 49486: a0 = u64 [s1 + 0x138]\n 49490: a2 = a1 + 0x600\n 49494: u64 [a2] = a0\n 49496: a0 = u64 [s1 + 0x180]\n 49500: a3 = a1 + 0x500\n 49504: u64 [a3 + 0xf8] = a0\n 49508: a0 = u64 [s1 + 0x188]\n 49512: u64 [a3 + 0xf0] = a0\n 49516: a0 = u64 [s1 + 0x190]\n 49520: u64 [a3 + 0xe8] = a0\n 49524: a0 = u64 [s1 + 0x158]\n 49528: u64 [a2 + 0x20] = a0\n 49531: a0 = u64 [s1 + 0x160]\n 49535: u64 [a2 + 0x18] = a0\n 49538: a0 = u64 [s1 + 0x168]\n 49542: u64 [a2 + 0x10] = a0\n 49545: a4 = a1\n 49547: a0 = s1 + 0x2f40\n 49551: a1 = s1 + 0x2f20\n 49555: a2 = s1 + 0x2f00\n 49559: a3 = u64 [s1 + 0x170]\n 49563: u64 [a4 + 0x608] = a3\n 49567: ra = 1916, jump @2147\n      : @1796 [@dyn 958] (gas: 2)\n 49573: a1 = s1 + 0x2918\n 49577: fallthrough\n      : @1797 (gas: 23)\n 49578: t0 = u64 [a1 + 0x658]\n 49582: t1 = u64 [a1 + 0x648]\n 49586: t2 = u64 [a1 + 0x660]\n 49590: a3 = a1 + 0x600\n 49594: a2 = u64 [a3 + 0x50]\n 49597: a4 = u64 [a3 + 0x38]\n 49600: a5 = u64 [a3 + 0x40]\n 49603: a0 = u64 [a3 + 0x28]\n 49606: a1 = u64 [a3 + 0x30]\n 49609: u64 [s1 + 0x190] = a4\n 49613: a3 = u64 [s1 + 0x148]\n 49617: u64 [a3 + 0x10] = a4\n 49620: a4 = s1 + 0x100\n 49624: u64 [a4 + 0x88] = a5\n 49628: u64 [a3 + 0x18] = a5\n 49631: u64 [a4 + 0x78] = a0\n 49634: u64 [a3] = a0\n 49636: a2 = a2 | t2\n 49639: a0 = t1 | t0\n 49642: a0 = a0 | a2\n 49645: u64 [a4 + 0x80] = a1\n 49649: u64 [a3 + 0x8] = a1\n 49652: jump @1799 if a0 == 0\n      : @1798 (gas: 1)\n 49655: jump @2098\n      : @1799 (gas: 3)\n 49658: a0 = s1 + 0x2ea0\n 49662: a1 = u64 [s1 + 0x198]\n 49666: ra = 1918, jump @17\n      : @1800 [@dyn 959] (gas: 3)\n 49673: a3 = s1 + 0x2918\n 49677: a4 = a3 + 0x500\n 49681: t0 = 1920, jump @2414\n      : @1801 [@dyn 960] (gas: 8)\n 49687: a5 = a4 + 0x700\n 49691: u64 [a5 + 0x80] = a0\n 49695: u64 [a5 + 0x78] = a1\n 49698: u64 [a5 + 0x70] = a2\n 49701: u64 [a5 + 0x68] = a3\n 49704: a1 = s1 + 0x5080\n 49708: a0 = u64 [s1 + 0x148]\n 49712: ra = 1922, jump @25\n      : @1802 [@dyn 961] (gas: 3)\n 49719: a0 = s1 + 0x2e80\n 49723: a1 = u64 [s1 + 0x150]\n 49727: ra = 1924, jump @17\n      : @1803 [@dyn 962] (gas: 31)\n 49734: a0 = s1 + 0x2918\n 49738: t0 = u64 [a0 + 0x568]\n 49742: a4 = a0 + 0x500\n 49746: a1 = u64 [a4 + 0x70]\n 49749: a2 = u64 [a4 + 0x78]\n 49752: a3 = u64 [a4 + 0x80]\n 49756: a4 = u64 [s1 + 0x178]\n 49760: a4 = a4 + 0x1\n 49763: a5 = a4 <u 0x1\n 49766: a0 = u64 [s1 + 0x180]\n 49770: a5 = a5 + a0\n 49773: a0 = s1 + 0x4918\n 49777: u64 [a0 + 0x790] = a5\n 49781: a5 = a5 | a4\n 49784: u64 [a0 + 0x788] = a4\n 49788: a4 = a5 <u 0x1\n 49791: a5 = u64 [s1 + 0x190]\n 49795: a4 = a4 + a5\n 49798: u64 [a0 + 0x798] = a4\n 49802: a4 = a4 <u a5\n 49805: a5 = u64 [s1 + 0x188]\n 49809: a4 = a4 + a5\n 49812: a5 = a0 + 0x700\n 49816: u64 [a5 + 0xa0] = a4\n 49820: u64 [a5 + 0xc0] = a3\n 49824: u64 [a5 + 0xb8] = a2\n 49828: u64 [a5 + 0xb0] = a1\n 49832: u64 [a0 + 0x7a8] = t0\n 49836: a0 = s1 + 0x50a0\n 49840: a1 = s1 + 0x50c0\n 49844: ra = 1926, jump @25\n      : @1804 [@dyn 963] (gas: 3)\n 49851: a0 = s1 + 0x2e60\n 49855: a1 = u64 [s1 + 0x130]\n 49859: ra = 1928, jump @17\n      : @1805 [@dyn 964] (gas: 31)\n 49866: a0 = s1 + 0x2918\n 49870: t0 = u64 [a0 + 0x548]\n 49874: t1 = u64 [a0 + 0x550]\n 49878: t2 = u64 [a0 + 0x558]\n 49882: a3 = u64 [a0 + 0x560]\n 49886: a0 = u64 [s1 + 0x178]\n 49890: a4 = a0 + 0x2\n 49893: a5 = a4 <u a0\n 49896: a1 = u64 [s1 + 0x180]\n 49900: a0 = a1 + a5\n 49903: a1 = a0 <u a1\n 49906: a1 = a5 if a5 == 0\n 49909: a2 = u64 [s1 + 0x190]\n 49913: a1 = a1 + a2\n 49916: a5 = a1 <u a2\n 49919: a2 = u64 [s1 + 0x188]\n 49923: a5 = a5 + a2\n 49926: a2 = s1 + 0x4918\n 49930: u64 [a2 + 0x7e0] = a5\n 49934: a5 = a2 + 0x700\n 49938: u64 [a5 + 0xd8] = a1\n 49942: u64 [a5 + 0xd0] = a0\n 49946: u64 [a5 + 0xc8] = a4\n 49950: a0 = s1 + 0x5118\n 49954: u64 [a0] = a3\n 49956: u64 [a0 + 0xfffffffffffffff8] = t2\n 49959: u64 [a0 + 0xfffffffffffffff0] = t1\n 49962: u64 [a0 + 0xffffffffffffffe8] = t0\n 49965: a0 = s1 + 0x50e0\n 49969: a1 = s1 + 0x5100\n 49973: ra = 1930, jump @25\n      : @1806 [@dyn 965] (gas: 3)\n 49980: a0 = s1 + 0x2e40\n 49984: a1 = u64 [s1 + 0x128]\n 49988: ra = 1932, jump @17\n      : @1807 [@dyn 966] (gas: 29)\n 49995: a0 = s1 + 0x2918\n 49999: t0 = u64 [a0 + 0x528]\n 50003: t1 = u64 [a0 + 0x530]\n 50007: t2 = u64 [a0 + 0x538]\n 50011: a3 = u64 [a0 + 0x540]\n 50015: a0 = u64 [s1 + 0x178]\n 50019: a4 = a0 + 0x3\n 50022: a5 = a4 <u a0\n 50025: a0 = u64 [s1 + 0x180]\n 50029: a2 = a0 + a5\n 50032: a1 = a2 <u a0\n 50035: a1 = a5 if a5 == 0\n 50038: a0 = u64 [s1 + 0x190]\n 50042: a1 = a1 + a0\n 50045: a5 = a1 <u a0\n 50048: a0 = u64 [s1 + 0x188]\n 50052: a5 = a5 + a0\n 50055: a0 = s1 + 0x5118\n 50059: u64 [a0 + 0x20] = a5\n 50062: u64 [a0 + 0x18] = a1\n 50065: u64 [a0 + 0x10] = a2\n 50068: u64 [a0 + 0x8] = a4\n 50071: u64 [a0 + 0x40] = a3\n 50074: u64 [a0 + 0x38] = t2\n 50077: u64 [a0 + 0x30] = t1\n 50080: u64 [a0 + 0x28] = t0\n 50083: a0 = s1 + 0x5120\n 50087: a1 = s1 + 0x5140\n 50091: ra = 1934, jump @25\n      : @1808 [@dyn 967] (gas: 27)\n 50098: a0 = sp + 0xffffffffffffffe0\n 50101: a2 = a0 & 0xffffffffffffffe0\n 50104: sp = a2\n 50106: a0 = u64 [s1 + 0x178]\n 50110: a3 = a0 + 0x4\n 50113: a0 = a3 <u a0\n 50116: a1 = u64 [s1 + 0x180]\n 50120: a4 = a1 + a0\n 50123: a1 = a4 <u a1\n 50126: a1 = a0 if a0 == 0\n 50129: a0 = u64 [s1 + 0x190]\n 50133: a1 = a1 + a0\n 50136: a0 = a1 <u a0\n 50139: a5 = u64 [s1 + 0x188]\n 50143: a0 = a0 + a5\n 50146: u64 [s1 + 0x138] = a0\n 50150: u64 [a2 + 0x18] = a0\n 50153: u64 [s1 + 0x28] = a1\n 50156: u64 [a2 + 0x10] = a1\n 50159: u64 [s1 + 0x148] = a4\n 50163: u64 [a2 + 0x8] = a4\n 50166: u64 [s1 + 0x80] = a2\n 50170: u64 [s1 + 0x150] = a3\n 50174: u64 [a2] = a3\n 50176: a0 = s1 + 0x2e20\n 50180: a1 = u64 [s1 + 0x140]\n 50184: ra = 1936, jump @17\n      : @1809 [@dyn 968] (gas: 3)\n 50191: t0 = 0x792\n 50195: a1 = s1 + 0x2918\n 50199: fallthrough\n      : @1810 [@dyn 969] (gas: 18)\n 50200: a4 = a1 + 0x500\n 50204: a2 = u64 [a4 + 0x20]\n 50207: a3 = u64 [a4 + 0x18]\n 50210: a0 = u64 [a4 + 0x10]\n 50213: a1 = u64 [a4 + 0x8]\n 50216: a4 = s1 + 0x100\n 50220: u64 [a4 + 0x28] = a0\n 50223: u64 [a4 + 0x20] = a2\n 50226: a0 = a0 | a2\n 50229: u64 [a4 + 0x30] = a1\n 50232: a1 = a1 | a3\n 50235: a1 = a1 | a0\n 50238: a1 = a1 >> 0x20\n 50241: u64 [a4 + 0x18] = a3\n 50244: a0 = a0 | a3\n 50247: a0 = a0 << 0x20\n 50250: a0 = a0 | a1\n 50253: jump @1812 if a0 == 0\n      : @1811 (gas: 1)\n 50256: jump @1912\n      : @1812 (gas: 3)\n 50259: a0 = s1 + 0x2e00\n 50263: a1 = u64 [s1 + 0x130]\n 50267: ra = 1940, jump @17\n      : @1813 [@dyn 970] (gas: 17)\n 50274: a0 = s1 + 0x2918\n 50278: a3 = u64 [a0 + 0x500]\n 50282: a2 = u64 [a0 + 0x4f8]\n 50286: a1 = u64 [a0 + 0x4f0]\n 50290: a0 = a3 >u 0\n 50292: a4 = a2 >u 0\n 50294: a4 = a0 if a3 != 0\n 50297: u64 [s1 + 0x88] = a1\n 50301: a0 = a1 >u 0\n 50303: u64 [s1 + 0x30] = a2\n 50306: u64 [s1 + 0x20] = a3\n 50309: a2 = a2 | a3\n 50312: u64 [s1 + 0x8] = a0\n 50315: u64 [s1 + 0x10] = a4\n 50318: u64 [s1 + 0x140] = a2\n 50322: a0 = a4 if a2 != 0\n 50325: jump @1815 if a0 == 0\n      : @1814 (gas: 1)\n 50328: jump @2101\n      : @1815 (gas: 6)\n 50331: a0 = s1 + 0x2918\n 50335: a0 = u64 [a0 + 0x4e8]\n 50339: u64 [s1 + 0x90] = a0\n 50343: a0 = s1 + 0x2de0\n 50347: a1 = u64 [s1 + 0x80]\n 50351: ra = 1942, jump @21\n      : @1816 [@dyn 971] (gas: 13)\n 50358: a4 = s1 + 0x2918\n 50362: a5 = a4 + 0x400\n 50366: a2 = u64 [a5 + 0xc8]\n 50370: a0 = u64 [a5 + 0xd0]\n 50374: a1 = u64 [a5 + 0xd8]\n 50378: a3 = u64 [a5 + 0xe0]\n 50382: u64 [a5 + 0xa0] = a3\n 50386: u64 [a5 + 0x98] = a1\n 50390: u64 [a5 + 0x90] = a0\n 50394: a0 = s1 + 0x2dc0\n 50398: a1 = s1 + 0x2da0\n 50402: u64 [a5 + 0x88] = a2\n 50406: ra = 1944, jump @2159\n      : @1817 [@dyn 972] (gas: 23)\n 50412: a0 = s1 + 0x2918\n 50416: a1 = a0 + 0x400\n 50420: a3 = u64 [a1 + 0xc0]\n 50424: a4 = u64 [a1 + 0xb8]\n 50428: a5 = u64 [a1 + 0xb0]\n 50432: a2 = u64 [a1 + 0xa8]\n 50436: a0 = a3 >u 0\n 50438: a1 = a4 >u 0\n 50440: a1 = a0 if a3 != 0\n 50443: a0 = a5 >u 0\n 50445: u64 [s1 + 0x178] = a2\n 50449: a2 = a2 <u 0x20\n 50452: a2 = a2 ^ 0x1\n 50455: u64 [s1 + 0x180] = a5\n 50459: a2 = a0 if a5 != 0\n 50462: u64 [s1 + 0x188] = a3\n 50466: u64 [s1 + 0x190] = a4\n 50470: a0 = a4 | a3\n 50473: a2 = a1 if a0 != 0\n 50476: a0 = u64 [s1 + 0x90]\n 50480: a0 = a0 <u 0x20\n 50483: u64 [s1 + 0x18] = a0\n 50486: jump @1851 if a2 == 0\n      : @1818 (gas: 13)\n 50490: a0 = s1 + 0x2918\n 50494: a1 = u64 [s1 + 0x150]\n 50498: a3 = a0 + 0x400\n 50502: u64 [a3 + 0x68] = a1\n 50505: a1 = u64 [s1 + 0x148]\n 50509: u64 [a3 + 0x70] = a1\n 50512: a1 = u64 [s1 + 0x28]\n 50515: u64 [a3 + 0x78] = a1\n 50518: a1 = s1 + 0x2d80\n 50522: a2 = u64 [s1 + 0x138]\n 50526: u64 [a3 + 0x80] = a2\n 50530: a0 = 0\n 50532: ra = 1946, jump @19\n      : @1819 [@dyn 973] (gas: 3)\n 50539: a0 = u64 [s1 + 0x110]\n 50543: a0 = i32 [a0]\n 50545: jump @1821 if a0 >u 31\n      : @1820 (gas: 3)\n 50549: a1 = u64 [s1 + 0x110]\n 50553: u32 [a1 + 0] = 0x20\n 50556: fallthrough\n      : @1821 (gas: 117)\n 50557: a0 = sp + 0xffffffffffffffe0\n 50560: a0 = a0 & 0xffffffffffffffe0\n 50563: u64 [s1 + 0x160] = a0\n 50567: sp = a0\n 50569: i32 a2 = a0 + 0\n 50571: a1 = 0x20\n 50574: a0 = u64 [s1 + 0xd8]\n 50578: ecalli 7 // 'hash_keccak_256'\n 50580: a0 = u64 [s1 + 0x90]\n 50584: a1 = a0 + 0x1f\n 50587: a0 = a1 <u a0\n 50590: a5 = u64 [s1 + 0x88]\n 50594: a2 = a5 + a0\n 50597: a3 = a2 <u a5\n 50600: a3 = a0 if a0 == 0\n 50603: a4 = u64 [s1 + 0x30]\n 50606: a3 = a3 + a4\n 50609: u64 [s1 + 0x158] = a3\n 50613: a3 = a3 << 0x3b\n 50616: a4 = a2 >> 0x5\n 50619: a4 = a4 | a3\n 50622: a0 = u64 [s1 + 0x160]\n 50626: t1 = u64 [a0 + 0x18]\n 50629: a2 = a2 << 0x3b\n 50632: a3 = u64 [a0 + 0x10]\n 50635: a1 = a1 >> 0x5\n 50638: a0 = a1 | a2\n 50641: t2 = reverse t1\n 50643: a2 = reverse a3\n 50645: a1 = u64 [s1 + 0x18]\n 50648: a1 = 0 if a5 != 0\n 50650: a3 = u64 [s1 + 0x140]\n 50654: a1 = 0 if a3 != 0\n 50656: a4 = 0 if a1 != 0\n 50658: a0 = 0 if a1 != 0\n 50660: t0 = t2 + a0\n 50663: a0 = t0 <u t2\n 50666: a5 = a2 + a0\n 50669: a4 = a4 + a5\n 50672: u64 [s1 + 0x198] = a4\n 50676: a5 = a4 ^ a2\n 50679: a3 = a4 <u a2\n 50682: a3 = a0 if a5 == 0\n 50685: u64 [s1 + 0x110] = a3\n 50689: a0 = u64 [s1 + 0x178]\n 50693: ra = a0 + 0x1f\n 50696: a4 = ra <u a0\n 50699: a3 = u64 [s1 + 0x180]\n 50703: a0 = a3 + a4\n 50706: a5 = a0 <u a3\n 50709: a5 = a4 if a4 == 0\n 50712: t1 = u64 [s1 + 0x190]\n 50716: t1 = t1 + a5\n 50719: a4 = t1 << 0x3b\n 50722: a3 = a0 >> 0x5\n 50725: a3 = a3 | a4\n 50728: a0 = a0 << 0x3b\n 50731: a4 = ra >> 0x5\n 50734: a0 = a0 | a4\n 50737: a0 = a0 + t2\n 50740: u64 [s1 + 0x170] = a0\n 50744: a0 = a0 <u t2\n 50747: t2 = t0\n 50749: a4 = a2 + a0\n 50752: a4 = a4 + a3\n 50755: a3 = a4 ^ a2\n 50758: u64 [s1 + 0x168] = a4\n 50762: a2 = a4 <u a2\n 50765: a2 = a0 if a3 == 0\n 50768: a4 = u64 [s1 + 0x158]\n 50772: a0 = u64 [s1 + 0x30]\n 50775: a0 = a4 <u a0\n 50778: a3 = u64 [s1 + 0x20]\n 50781: a0 = a0 + a3\n 50784: a3 = a4 >> 0x5\n 50787: a4 = a0 << 0x3b\n 50790: a3 = a3 | a4\n 50793: a4 = u64 [s1 + 0x160]\n 50797: t0 = u64 [a4]\n 50799: a4 = u64 [a4 + 0x8]\n 50802: a0 = a0 >> 0x5\n 50805: a3 = 0 if a1 != 0\n 50807: a0 = 0 if a1 != 0\n 50809: a1 = reverse a4\n 50811: a4 = reverse t0\n 50813: a0 = a0 + a4\n 50816: a3 = a3 + a1\n 50819: a5 = a3 <u a1\n 50822: a0 = a0 + a5\n 50825: ra = u64 [s1 + 0x110]\n 50829: ra = ra + a3\n 50832: a3 = ra <u a3\n 50835: t0 = a0 + a3\n 50838: a0 = u64 [s1 + 0x190]\n 50842: a0 = t1 <u a0\n 50845: a3 = u64 [s1 + 0x188]\n 50849: a0 = a0 + a3\n 50852: a3 = t1 >> 0x5\n 50855: a5 = a0 << 0x3b\n 50858: a3 = a3 | a5\n 50861: a0 = a0 >> 0x5\n 50864: a0 = a0 + a4\n 50867: a5 = s1 + 0x100\n 50871: a4 = u64 [a5 + 0x98]\n 50875: a3 = a3 + a1\n 50878: a1 = a3 <u a1\n 50881: a0 = a0 + a1\n 50884: a2 = a2 + a3\n 50887: u64 [a5 + 0x60] = a2\n 50890: a1 = a2 <u a3\n 50893: a0 = a0 + a1\n 50896: u64 [a5 + 0x58] = a0\n 50899: a0 = sp + 0xffffffffffffffe0\n 50902: a0 = a0 & 0xffffffffffffffe0\n 50905: u64 [a5 + 0x90] = a0\n 50909: sp = a0\n 50911: fallthrough\n      : @1822 (gas: 25)\n 50912: a0 = u64 [s1 + 0x170]\n 50916: a0 = t2 <u a0\n 50919: a2 = u64 [s1 + 0x168]\n 50923: a1 = a4 ^ a2\n 50926: a2 = a4 <u a2\n 50929: a2 = a0 if a1 == 0\n 50932: a5 = u64 [s1 + 0x160]\n 50936: a0 = ra <u a5\n 50939: a3 = u64 [s1 + 0x158]\n 50943: a1 = t0 ^ a3\n 50946: a3 = t0 <u a3\n 50949: a3 = a0 if a1 == 0\n 50952: a0 = ra ^ a5\n 50955: a0 = a0 | a1\n 50958: a3 = a2 if a0 == 0\n 50961: u64 [s1 + 0x188] = t2\n 50965: a0 = u64 [s1 + 0x190]\n 50969: u64 [a0] = t2\n 50971: u64 [s1 + 0x198] = a4\n 50975: u64 [a0 + 0x8] = a4\n 50978: u64 [s1 + 0x178] = ra\n 50982: u64 [a0 + 0x10] = ra\n 50985: u64 [s1 + 0x180] = t0\n 50989: u64 [a0 + 0x18] = t0\n 50992: jump @1851 if a3 == 0\n      : @1823 (gas: 8)\n 50996: a0 = s1 + 0x5118\n 51000: u64 [a0 + 96] = 0\n 51003: u64 [a0 + 88] = 0\n 51006: u64 [a0 + 80] = 0\n 51009: u64 [a0 + 72] = 0\n 51012: a1 = s1 + 0x5160\n 51016: a0 = u64 [s1 + 0x190]\n 51020: ra = 1948, jump @25\n      : @1824 [@dyn 974] (gas: 14)\n 51027: t2 = u64 [s1 + 0x188]\n 51031: t2 = t2 + 0x1\n 51034: a0 = t2 <u 0x1\n 51037: a4 = u64 [s1 + 0x198]\n 51041: a4 = a4 + a0\n 51044: a0 = t2 | a4\n 51047: a0 = a0 <u 0x1\n 51050: a1 = u64 [s1 + 0x178]\n 51054: a0 = a0 + a1\n 51057: a1 = a0 <u a1\n 51060: t0 = u64 [s1 + 0x180]\n 51064: t0 = t0 + a1\n 51067: ra = a0\n 51069: jump @1822\n      : @1825 (gas: 31)\n 51072: t0 = u64 [s1 + 0x198]\n 51076: t2 = u64 [s1 + 0x190]\n 51080: ra = t2 <u t0\n 51083: a5 = u64 [s1 + 0x188]\n 51087: a1 = u64 [s1 + 0x180]\n 51091: a3 = a1 ^ a5\n 51094: a2 = a1 <u a5\n 51097: a2 = ra if a3 == 0\n 51100: a3 = u64 [s1 + 0x148]\n 51104: a4 = u64 [s1 + 0x170]\n 51108: a0 = a4 - a3\n 51111: t1 = a4 <u a3\n 51114: a4 = u64 [s1 + 0x120]\n 51118: a3 = u64 [s1 + 0x178]\n 51122: a4 = a3 - a4\n 51125: a4 = a4 - t1\n 51128: a3 = a0 <u a2\n 51131: a4 = a4 - a3\n 51134: a3 = a0 - a2\n 51137: a2 = a1 - a5\n 51140: a2 = a2 - ra\n 51143: a0 = t2 - t0\n 51146: a2 = a2 | a4\n 51149: a4 = a0\n 51151: a0 = a0 | a3\n 51154: a0 = a0 | a2\n 51157: a1 = a2 | a3\n 51160: a0 = a0 >> 0x20\n 51163: a1 = a1 << 0x20\n 51166: a0 = a0 | a1\n 51169: jump @1912 if a0 != 0\n      : @1826 (gas: 4)\n 51173: a0 = u64 [s1 + 0x198]\n 51177: a1 = a4\n 51179: u64 [s1 + 0x190] = a4\n 51183: ra = 1950, jump @31\n      : @1827 [@dyn 975] (gas: 5)\n 51190: i32 a1 = a0 + 0\n 51192: a2 = i32 [s1 + 0x190]\n 51196: a0 = 0\n 51198: ecalli 11 // 'seal_return'\n 51200: jump @1134\n      : @1828 (gas: 17)\n 51203: a3 = u64 [s1 + 0x158]\n 51207: a1 = a0 if a3 == 0\n 51210: t0 = a5 <u a1\n 51213: a4 = u64 [s1 + 0x160]\n 51217: a3 = u64 [s1 + 0x150]\n 51221: a4 = a3 - a4\n 51224: a4 = a4 - t0\n 51227: a5 = a5 - a1\n 51230: a0 = t1 - a0\n 51233: a1 = a2 | a5\n 51236: a0 = a0 | a4\n 51239: a1 = a1 | a0\n 51242: a1 = a1 >> 0x20\n 51245: a0 = a0 | a5\n 51248: a0 = a0 << 0x20\n 51251: a0 = a0 | a1\n 51254: jump @1912 if a0 != 0\n      : @1829 (gas: 5)\n 51258: a3 = a2\n 51260: a0 = u64 [s1 + 0x198]\n 51264: a1 = a2\n 51266: u64 [s1 + 0x148] = a3\n 51270: ra = 1952, jump @31\n      : @1830 [@dyn 976] (gas: 5)\n 51277: i32 a1 = a0 + 0\n 51279: a2 = i32 [s1 + 0x148]\n 51283: a0 = 0\n 51285: ecalli 11 // 'seal_return'\n 51287: jump @1134\n      : @1831 (gas: 5)\n 51290: a0 = u64 [s1 + 0x190]\n 51294: a2 = a0 + 0xffffffffffffff80\n 51297: a0 = u64 [s1 + 0x100]\n 51301: a1 = u64 [s1 + 0x108]\n 51305: ra = 1954, jump @2455\n      : @1832 [@dyn 977] (gas: 6)\n 51311: u64 [s1 + 0x150] = a0\n 51315: u64 [s1 + 0x148] = a1\n 51319: a0 = u64 [s1 + 0x110]\n 51323: a1 = u64 [s1 + 0x198]\n 51327: a2 = u64 [s1 + 0x190]\n 51331: ra = 1956, jump @2455\n      : @1833 [@dyn 978] (gas: 7)\n 51337: u64 [s1 + 0x140] = a0\n 51341: u64 [s1 + 0x138] = a1\n 51345: a1 = u64 [s1 + 0x190]\n 51349: a2 = 0x80 - a1\n 51353: a0 = u64 [s1 + 0x100]\n 51357: a1 = u64 [s1 + 0x108]\n 51361: ra = 1958, jump @2460\n      : @1834 [@dyn 979] (gas: 20)\n 51367: a2 = u64 [s1 + 0x138]\n 51371: a1 = a1 | a2\n 51374: a2 = u64 [s1 + 0x190]\n 51378: a4 = a2 <u 0x80\n 51382: u64 [s1 + 0x138] = a4\n 51386: a3 = u64 [s1 + 0x148]\n 51390: a1 = a3 if a4 == 0\n 51393: a3 = u64 [s1 + 0x198]\n 51397: a3 = a1 if a2 != 0\n 51400: u64 [s1 + 0x198] = a3\n 51404: a1 = u64 [s1 + 0x140]\n 51408: a0 = a0 | a1\n 51411: a1 = u64 [s1 + 0x150]\n 51415: a0 = a1 if a4 == 0\n 51418: a1 = u64 [s1 + 0x110]\n 51422: a1 = a0 if a2 != 0\n 51425: u64 [s1 + 0x110] = a1\n 51429: a0 = u64 [s1 + 0x100]\n 51433: a1 = u64 [s1 + 0x108]\n 51437: ra = 1960, jump @2455\n      : @1835 [@dyn 980] (gas: 11)\n 51443: t0 = u64 [s1 + 0x110]\n 51447: u64 [s1 + 336] = 0\n 51451: u64 [s1 + 320] = 0\n 51455: a3 = s1 + 0x100\n 51459: a2 = u64 [a3 + 0x38]\n 51462: a1 = 0 if a2 == 0\n 51464: u64 [a3 + 0x48] = a1\n 51467: a0 = 0 if a2 == 0\n 51469: u64 [a3 + 48] = 0x3e7\n 51474: u64 [a3 + 40] = 0\n 51477: fallthrough\n      : @1836 (gas: 51)\n 51478: u64 [s1 + 312] = 0\n 51482: a2 = t0 >> 0x3f\n 51485: ra = u64 [s1 + 0x198]\n 51489: a3 = ra << 0x1\n 51492: a3 = a3 | a2\n 51495: a2 = t0 << 0x1\n 51498: a1 = u64 [s1 + 0x160]\n 51502: a4 = a1 >> 0x3f\n 51505: t2 = a2 | a4\n 51508: a2 = u64 [s1 + 0x128]\n 51512: a4 = a2 ^ a3\n 51515: t1 = a2 <u a3\n 51518: a5 = u64 [s1 + 0x130]\n 51522: t0 = a5 <u t2\n 51525: t0 = t1 if a4 != 0\n 51528: a5 = u64 [s1 + 0x148]\n 51532: a5 = a5 << 0x1\n 51535: a4 = a0 >> 0x3f\n 51538: a4 = a4 | a5\n 51541: u64 [s1 + 0x148] = a4\n 51545: a4 = ra >> 0x3f\n 51548: a0 = a0 << 0x1\n 51551: a4 = a4 | a0\n 51554: a0 = a1 << 0x1\n 51557: a1 = u64 [s1 + 0x168]\n 51561: a5 = a1 >> 0x3f\n 51564: a0 = a0 | a5\n 51567: u64 [s1 + 0x198] = a0\n 51571: a5 = a1 << 0x1\n 51574: a0 = u64 [s1 + 0x158]\n 51578: a1 = a0 >> 0x3f\n 51581: t1 = a5 | a1\n 51584: a5 = a0 << 0x1\n 51587: a0 = u64 [s1 + 0x170]\n 51591: ra = a0 >> 0x3f\n 51594: a5 = a5 | ra\n 51597: a0 = a0 << 0x1\n 51600: a1 = u64 [s1 + 0x150]\n 51604: a0 = a0 | a1\n 51607: u64 [s1 + 0x170] = a0\n 51611: a1 = u64 [s1 + 0x140]\n 51615: a0 = a1 | a5\n 51618: u64 [s1 + 0x158] = a0\n 51622: a0 = a1 | t1\n 51625: u64 [s1 + 0x168] = a0\n 51629: a0 = u64 [s1 + 0x198]\n 51633: a0 = a0 | a1\n 51636: u64 [s1 + 0x160] = a0\n 51640: a0 = a2 - a4\n 51643: a0 = a0 <u t0\n 51646: t0 = 1962, jump @2399\n      : @1837 [@dyn 981] (gas: 33)\n 51652: t0 = t2 - a0\n 51655: a1 = t2 <u a0\n 51658: a0 = a3 - a1\n 51661: u64 [s1 + 0x198] = a0\n 51665: a1 = 0 if a3 != 0\n 51667: a0 = a4 - a1\n 51670: a1 = a4 <u a1\n 51673: a1 = t1 - a1\n 51676: u64 [s1 + 0x148] = a1\n 51680: a1 = s1 + 0x100\n 51684: a3 = u64 [a1 + 0x90]\n 51688: a5 = u64 [a1 + 0x88]\n 51692: a2 = a3 | a5\n 51695: a2 = a2 <u 0x1\n 51698: a4 = u64 [a1 + 0x78]\n 51701: t2 = a4 <u a2\n 51704: a4 = a4 - a2\n 51707: a2 = a3 <u 0x1\n 51710: a5 = a5 - a2\n 51713: a2 = u64 [a1 + 0x80]\n 51717: a2 = a2 - t2\n 51720: a3 = a3 + 0xffffffffffffffff\n 51723: u64 [a1 + 0x88] = a5\n 51727: u64 [a1 + 0x80] = a2\n 51731: a2 = a2 | a5\n 51734: u64 [a1 + 0x90] = a3\n 51738: a3 = a3 | a4\n 51741: a2 = a2 | a3\n 51744: a3 = ra & 0x1\n 51747: u64 [a1 + 0x50] = a3\n 51750: u64 [a1 + 0x78] = a4\n 51753: u64 [s1 + 320] = 0\n 51757: jump @1836 if a2 != 0\n      : @1838 (gas: 21)\n 51761: a2 = u64 [s1 + 0x168]\n 51765: a0 = a2 >> 0x3f\n 51768: a1 = u64 [s1 + 0x160]\n 51772: a1 = a1 << 0x1\n 51775: t0 = a1 | a0\n 51778: a3 = u64 [s1 + 0x158]\n 51782: a1 = a3 >> 0x3f\n 51785: a2 = a2 << 0x1\n 51788: a2 = a2 | a1\n 51791: a4 = u64 [s1 + 0x170]\n 51795: a1 = a4 >> 0x3f\n 51798: a0 = a3 << 0x1\n 51801: a4 = a4 << 0x1\n 51804: a5 = u64 [s1 + 0x150]\n 51808: a4 = a4 | a5\n 51811: a3 = u64 [s1 + 0x138]\n 51815: a1 = a1 | a3\n 51818: a1 = a1 | a0\n 51821: t1 = a3 | a2\n 51824: ra = a3 | t0\n 51827: fallthrough\n      : @1839 (gas: 9)\n 51828: a0 = u64 [s1 + 0xf8]\n 51832: i32 a0 = a0 + 0x60\n 51835: a2 = s1 + 0x3918\n 51839: u64 [a2 + 0x7a8] = a4\n 51843: u64 [a2 + 0x7b0] = a1\n 51847: u64 [a2 + 0x7b8] = t1\n 51851: a1 = s1 + 0x40c0\n 51855: u64 [a2 + 0x7c0] = ra\n 51859: ra = 1964, jump @19\n      : @1840 [@dyn 982] (gas: 4)\n 51866: a0 = 0x100000000\n 51876: u64 [s1 + 0x198] = a0\n 51880: a0 = 0xffffff80\n 51890: t0 = 1966, jump @2360\n      : @1841 [@dyn 983] (gas: 1)\n 51896: jump @1912 if a0 == 0\n      : @1842 (gas: 14)\n 51900: a0 = u64 [s1 + 0xf8]\n 51904: i32 a0 = a0 + 0x80\n 51908: a2 = s1 + 0x3918\n 51912: a1 = u64 [s1 + 0xb0]\n 51916: a4 = a2 + 0x700\n 51920: u64 [a4 + 0x88] = a1\n 51924: a1 = u64 [s1 + 0xb8]\n 51928: u64 [a4 + 0x90] = a1\n 51932: a1 = u64 [s1 + 0xc0]\n 51936: u64 [a4 + 0x98] = a1\n 51940: a1 = s1 + 0x40a0\n 51944: a3 = u64 [s1 + 0xc8]\n 51948: u64 [a4 + 0xa0] = a3\n 51952: ra = 1968, jump @19\n      : @1843 [@dyn 984] (gas: 3)\n 51959: a0 = u64 [s1 + 0x198]\n 51963: a0 = a0 + 0xffffffffffffff60\n 51967: t0 = 1970, jump @2360\n      : @1844 [@dyn 985] (gas: 1)\n 51973: jump @1912 if a0 == 0\n      : @1845 (gas: 14)\n 51977: a0 = u64 [s1 + 0xf8]\n 51981: i32 a0 = a0 + 0xa0\n 51985: a2 = s1 + 0x3918\n 51989: a1 = u64 [s1 + 0x90]\n 51993: a4 = a2 + 0x700\n 51997: u64 [a4 + 0x68] = a1\n 52000: a1 = u64 [s1 + 0x98]\n 52004: u64 [a4 + 0x70] = a1\n 52007: a1 = u64 [s1 + 0xa0]\n 52011: u64 [a4 + 0x78] = a1\n 52014: a1 = s1 + 0x4080\n 52018: a3 = u64 [s1 + 0xa8]\n 52022: u64 [a4 + 0x80] = a3\n 52026: ra = 1972, jump @19\n      : @1846 [@dyn 986] (gas: 2)\n 52033: a0 = 0xffffff40\n 52043: t0 = 1974, jump @2360\n      : @1847 [@dyn 987] (gas: 1)\n 52049: jump @1912 if a0 == 0\n      : @1848 (gas: 14)\n 52053: a0 = u64 [s1 + 0xf8]\n 52057: i32 a0 = a0 + 0xc0\n 52061: a2 = s1 + 0x3918\n 52065: a1 = u64 [s1 + 0x70]\n 52068: a4 = a2 + 0x700\n 52072: u64 [a4 + 0x48] = a1\n 52075: a1 = u64 [s1 + 0x78]\n 52078: u64 [a4 + 0x50] = a1\n 52081: a1 = u64 [s1 + 0x80]\n 52085: u64 [a4 + 0x58] = a1\n 52088: a1 = s1 + 0x4060\n 52092: a3 = u64 [s1 + 0x88]\n 52096: u64 [a4 + 0x60] = a3\n 52099: ra = 1976, jump @19\n      : @1849 [@dyn 988] (gas: 3)\n 52106: a1 = 0xe0\n 52110: a0 = u64 [s1 + 0xf8]\n 52114: ra = 1978, jump @31\n      : @1850 [@dyn 989] (gas: 5)\n 52121: i32 a1 = a0 + 0\n 52123: a2 = 0xe0\n 52127: a0 = 0\n 52129: ecalli 11 // 'seal_return'\n 52131: jump @1134\n      : @1851 (gas: 9)\n 52134: a0 = u64 [s1 + 0x18]\n 52137: a0 = a0 ^ 0x1\n 52140: a1 = u64 [s1 + 0x88]\n 52144: a2 = u64 [s1 + 0x8]\n 52147: a0 = a2 if a1 != 0\n 52150: a1 = u64 [s1 + 0x10]\n 52153: a2 = u64 [s1 + 0x140]\n 52157: a0 = a1 if a2 != 0\n 52160: jump @1860 if a0 == 0\n      : @1852 (gas: 16)\n 52164: a0 = u64 [s1 + 0x90]\n 52168: a0 = a0 & 0xffffffffffffffe0\n 52171: u64 [s1 + 0x110] = a0\n 52175: a0 = s1 + 0x2918\n 52179: a1 = u64 [s1 + 0x150]\n 52183: a3 = a0 + 0x400\n 52187: u64 [a3 + 0x28] = a1\n 52190: a1 = u64 [s1 + 0x148]\n 52194: u64 [a3 + 0x30] = a1\n 52197: a1 = u64 [s1 + 0x28]\n 52200: u64 [a3 + 0x38] = a1\n 52203: a1 = s1 + 0x2d40\n 52207: a2 = u64 [s1 + 0x138]\n 52211: u64 [a3 + 0x40] = a2\n 52214: a0 = 0\n 52216: ra = 1980, jump @19\n      : @1853 [@dyn 990] (gas: 7)\n 52223: a0 = sp + 0xffffffffffffffe0\n 52226: a0 = a0 & 0xffffffffffffffe0\n 52229: u64 [s1 + 0x170] = a0\n 52233: sp = a0\n 52235: a1 = 0x20\n 52238: a0 = 0\n 52240: ra = 1982, jump @31\n      : @1854 [@dyn 991] (gas: 34)\n 52247: a1 = sp + 0xffffffffffffffe0\n 52250: a1 = a1 & 0xffffffffffffffe0\n 52253: u64 [s1 + 0x168] = a1\n 52257: sp = a1\n 52259: i32 a0 = a0 + 0\n 52261: i32 a2 = a1 + 0\n 52263: a1 = 0x20\n 52266: ecalli 7 // 'hash_keccak_256'\n 52268: u64 [s1 + 408] = 0x20\n 52273: a5 = 0\n 52275: u64 [s1 + 400] = 0\n 52279: u64 [s1 + 392] = 0\n 52283: u64 [s1 + 376] = 0\n 52287: u64 [s1 + 384] = 0\n 52291: a3 = u64 [s1 + 0x168]\n 52295: a0 = u64 [a3 + 0x18]\n 52298: a1 = u64 [a3 + 0x10]\n 52301: a2 = u64 [a3 + 0x8]\n 52304: a3 = u64 [a3]\n 52306: t1 = reverse a0\n 52308: t2 = reverse a1\n 52310: ra = reverse a2\n 52312: a2 = 0\n 52314: a4 = u64 [s1 + 0x178]\n 52318: a0 = reverse a3\n 52320: a3 = 0\n 52322: t0 = a0\n 52324: a1 = u64 [s1 + 0x170]\n 52328: u64 [a1 + 0x18] = a0\n 52331: u64 [s1 + 0x150] = ra\n 52335: u64 [a1 + 0x10] = ra\n 52338: u64 [a1 + 0x8] = t2\n 52341: u64 [a1] = t1\n 52343: fallthrough\n      : @1855 (gas: 24)\n 52344: u64 [s1 + 0x168] = t0\n 52348: a0 = u64 [s1 + 0x110]\n 52352: u64 [s1 + 0x178] = a4\n 52356: a0 = a4 <u a0\n 52359: a4 = a0 ^ 0x1\n 52362: u64 [s1 + 0x158] = a3\n 52366: a4 = 0x1 if a3 != 0\n 52369: u64 [s1 + 0x160] = a2\n 52373: a0 = u64 [s1 + 0x180]\n 52377: a0 = a0 | a2\n 52380: a4 = 0x1 if a0 != 0\n 52383: a1 = u64 [s1 + 0x130]\n 52387: a0 = u64 [s1 + 0x198]\n 52391: a1 = a1 + a0\n 52394: a3 = u64 [s1 + 0x128]\n 52398: a3 = a3 + a5\n 52401: a2 = u64 [s1 + 0x118]\n 52405: a0 = u64 [s1 + 0x190]\n 52409: a2 = a2 + a0\n 52412: a0 = u64 [s1 + 0x120]\n 52416: ra = a5\n 52418: a5 = u64 [s1 + 0x188]\n 52422: a0 = a0 + a5\n 52425: jump @1862 if a4 != 0\n      : @1856 (gas: 23)\n 52429: a4 = u64 [s1 + 0x198]\n 52433: a4 = a1 <u a4\n 52436: a3 = a3 + a4\n 52439: t0 = a3 ^ ra\n 52442: u64 [s1 + 0x138] = ra\n 52446: a5 = a3 <u ra\n 52449: a5 = a4 if t0 == 0\n 52452: a5 = a5 + a2\n 52455: t0 = a5 <u a2\n 52458: a4 = u64 [s1 + 0x190]\n 52462: a2 = a2 <u a4\n 52465: a0 = a0 + a2\n 52468: a0 = a0 + t0\n 52471: a2 = a1 | a5\n 52474: a0 = a0 | a3\n 52477: a2 = a2 | a0\n 52480: a2 = a2 >> 0x20\n 52483: a0 = a0 | a5\n 52486: a0 = a0 << 0x20\n 52489: a0 = a0 | a2\n 52492: u64 [s1 + 0x148] = t1\n 52496: u64 [s1 + 0x140] = t2\n 52500: jump @1912 if a0 != 0\n      : @1857 (gas: 2)\n 52504: a0 = s1 + 0x2b00\n 52508: ra = 1984, jump @17\n      : @1858 [@dyn 992] (gas: 14)\n 52515: a3 = s1 + 0x2918\n 52519: a0 = u64 [a3 + 0x200]\n 52523: a4 = a3 + 0x100\n 52527: a1 = u64 [a4 + 0xf8]\n 52531: a2 = u64 [a4 + 0xf0]\n 52535: a3 = u64 [a4 + 0xe8]\n 52539: a4 = s1 + 0x5118\n 52543: u64 [a4 + 0x80] = a0\n 52547: u64 [a4 + 0x78] = a1\n 52550: u64 [a4 + 0x70] = a2\n 52553: u64 [a4 + 0x68] = a3\n 52556: a1 = s1 + 0x5180\n 52560: a0 = u64 [s1 + 0x170]\n 52564: ra = 1986, jump @25\n      : @1859 [@dyn 993] (gas: 53)\n 52571: t1 = u64 [s1 + 0x148]\n 52575: t1 = t1 + 0x1\n 52578: a0 = t1 <u 0x1\n 52581: t2 = u64 [s1 + 0x140]\n 52585: t2 = t2 + a0\n 52588: a0 = t1 | t2\n 52591: a0 = a0 <u 0x1\n 52594: a1 = u64 [s1 + 0x150]\n 52598: ra = a1 + a0\n 52601: a1 = ra <u a1\n 52604: a0 = u64 [s1 + 0x168]\n 52608: a0 = a0 + a1\n 52611: a1 = u64 [s1 + 0x198]\n 52615: a2 = a1 + 0x20\n 52618: u64 [s1 + 0x168] = a2\n 52622: a3 = a2 <u a1\n 52625: a1 = u64 [s1 + 0x138]\n 52629: a2 = a1 + a3\n 52632: u64 [s1 + 0x148] = a2\n 52636: a4 = a2 <u a1\n 52639: a4 = a3 if a3 == 0\n 52642: a1 = u64 [s1 + 0x190]\n 52646: a3 = a1 + a4\n 52649: a4 = a3 <u a1\n 52652: a1 = u64 [s1 + 0x188]\n 52656: a1 = a1 + a4\n 52659: u64 [s1 + 0x188] = a1\n 52663: a1 = u64 [s1 + 0x178]\n 52667: a4 = a1 + 0x20\n 52670: a5 = a4 <u a1\n 52673: a2 = u64 [s1 + 0x158]\n 52677: a1 = a2 + a5\n 52680: a2 = a1 <u a2\n 52683: a2 = a5 if a5 == 0\n 52686: a5 = u64 [s1 + 0x160]\n 52690: a2 = a2 + a5\n 52693: a5 = a2 <u a5\n 52696: t0 = u64 [s1 + 0x180]\n 52700: t0 = t0 + a5\n 52703: u64 [s1 + 0x180] = t0\n 52707: a5 = u64 [s1 + 0x170]\n 52711: u64 [a5 + 0x8] = t2\n 52714: u64 [a5] = t1\n 52716: u64 [a5 + 0x10] = ra\n 52719: t0 = a0\n 52721: u64 [a5 + 0x18] = a0\n 52724: u64 [s1 + 0x150] = ra\n 52728: a0 = u64 [s1 + 0x168]\n 52732: u64 [s1 + 0x198] = a0\n 52736: a5 = u64 [s1 + 0x148]\n 52740: u64 [s1 + 0x190] = a3\n 52744: a3 = a1\n 52746: jump @1855\n      : @1860 (gas: 8)\n 52749: a0 = u64 [s1 + 0x90]\n 52753: a1 = u64 [s1 + 0x30]\n 52756: a0 = a0 | a1\n 52759: a1 = u64 [s1 + 0x88]\n 52763: a2 = u64 [s1 + 0x20]\n 52766: a1 = a1 | a2\n 52769: a0 = a0 | a1\n 52772: jump @1870 if a0 != 0\n      : @1861 (gas: 5)\n 52776: u64 [s1 + 320] = 0\n 52780: u64 [s1 + 312] = 0\n 52784: u64 [s1 + 328] = 0\n 52788: u64 [s1 + 336] = 0\n 52792: jump @1873\n      : @1862 (gas: 12)\n 52795: t2 = u64 [s1 + 0x190]\n 52799: t1 = u64 [s1 + 0x198]\n 52803: a4 = u64 [s1 + 0x90]\n 52807: a5 = u64 [s1 + 0x110]\n 52811: a4 = a4 ^ a5\n 52814: a5 = u64 [s1 + 0x30]\n 52817: t0 = a4 | a5\n 52820: a5 = u64 [s1 + 0x88]\n 52824: a4 = u64 [s1 + 0x20]\n 52827: a5 = a5 | a4\n 52830: a4 = t0 | a5\n 52833: jump @1869 if a4 == 0\n      : @1863 (gas: 18)\n 52837: a4 = a1 <u t1\n 52840: a3 = a3 + a4\n 52843: t0 = a3 ^ ra\n 52846: a5 = a3 <u ra\n 52849: a5 = a4 if t0 == 0\n 52852: a5 = a5 + a2\n 52855: a4 = a5 <u a2\n 52858: a2 = a2 <u t2\n 52861: a0 = a0 + a2\n 52864: a0 = a0 + a4\n 52867: a2 = a1 | a5\n 52870: a0 = a0 | a3\n 52873: a2 = a2 | a0\n 52876: a2 = a2 >> 0x20\n 52879: a0 = a0 | a5\n 52882: a0 = a0 << 0x20\n 52885: a0 = a0 | a2\n 52888: jump @1912 if a0 != 0\n      : @1864 (gas: 2)\n 52892: a0 = s1 + 0x2d20\n 52896: ra = 1988, jump @17\n      : @1865 [@dyn 994] (gas: 18)\n 52903: a0 = s1 + 0x2918\n 52907: a2 = a0 + 0x400\n 52911: a1 = u64 [a2 + 0x20]\n 52914: u64 [s1 + 0x190] = a1\n 52918: a1 = u64 [a2 + 0x18]\n 52921: u64 [s1 + 0x188] = a1\n 52925: a1 = u64 [a2 + 0x10]\n 52928: u64 [s1 + 0x180] = a1\n 52932: a0 = u64 [a2 + 0x8]\n 52935: u64 [s1 + 0x178] = a0\n 52939: a0 = u64 [s1 + 0x90]\n 52943: a0 = a0 << 0x3b\n 52946: a1 = a0 >> 0x38\n 52949: u64 [s1 + 0x198] = a1\n 52953: a2 = 0x80 - a1\n 52957: a0 = 0xffffffffffffffff\n 52960: a1 = 0xffffffffffffffff\n 52963: ra = 1990, jump @2460\n      : @1866 [@dyn 995] (gas: 6)\n 52969: u64 [s1 + 0x168] = a0\n 52973: u64 [s1 + 0x150] = a1\n 52977: a0 = 0xffffffffffffffff\n 52980: a1 = 0xffffffffffffffff\n 52983: a2 = u64 [s1 + 0x198]\n 52987: ra = 1992, jump @2455\n      : @1867 [@dyn 996] (gas: 10)\n 52993: u64 [s1 + 0x158] = a0\n 52997: u64 [s1 + 0x160] = a1\n 53001: a0 = u64 [s1 + 0x150]\n 53005: a0 = a0 | a1\n 53008: u64 [s1 + 0x150] = a0\n 53012: a0 = u64 [s1 + 0x198]\n 53016: a2 = a0 + 0xffffffffffffff80\n 53019: a0 = 0xffffffffffffffff\n 53022: a1 = 0xffffffffffffffff\n 53025: ra = 1994, jump @2455\n      : @1868 [@dyn 997] (gas: 29)\n 53031: a4 = u64 [s1 + 0x198]\n 53035: a2 = a4 <u 0x80\n 53039: a3 = u64 [s1 + 0x150]\n 53043: a1 = a3 if a2 != 0\n 53046: a5 = u64 [s1 + 0x158]\n 53050: a3 = u64 [s1 + 0x168]\n 53054: a3 = a3 | a5\n 53057: a3 = a0 if a2 == 0\n 53060: a1 = 0xffffffffffffffff if a4 == 0\n 53063: a3 = 0xffffffffffffffff if a4 == 0\n 53066: a4 = u64 [s1 + 0x160]\n 53070: a4 = 0 if a2 == 0\n 53072: a5 = 0 if a2 == 0\n 53074: a0 = u64 [s1 + 0x178]\n 53078: a0 = a0 & ~a3\n 53081: a2 = u64 [s1 + 0x180]\n 53085: a1 = a2 & ~a1\n 53088: a2 = u64 [s1 + 0x188]\n 53092: a2 = a2 & ~a5\n 53095: a3 = u64 [s1 + 0x190]\n 53099: a3 = a3 & ~a4\n 53102: a4 = s1 + 0x5118\n 53106: u64 [a4 + 0xa0] = a3\n 53110: u64 [a4 + 0x98] = a2\n 53114: u64 [a4 + 0x90] = a1\n 53118: u64 [a4 + 0x88] = a0\n 53122: a1 = s1 + 0x51a0\n 53126: a0 = u64 [s1 + 0x170]\n 53130: ra = 1996, jump @25\n      : @1869 [@dyn 998] (gas: 22)\n 53137: a2 = u64 [s1 + 0x30]\n 53140: a0 = a2 >> 0x3f\n 53143: a1 = u64 [s1 + 0x20]\n 53146: a1 = a1 << 0x1\n 53149: a0 = a0 | a1\n 53152: a3 = u64 [s1 + 0x88]\n 53156: a1 = a3 >> 0x3f\n 53159: a2 = a2 << 0x1\n 53162: a1 = a1 | a2\n 53165: a4 = u64 [s1 + 0x90]\n 53169: a2 = a4 >> 0x3f\n 53172: a3 = a3 << 0x1\n 53175: a2 = a2 | a3\n 53178: a3 = a4 << 0x1\n 53181: a3 = a3 + 0x1\n 53184: a4 = s1 + 0x5118\n 53188: u64 [a4 + 0xa8] = a3\n 53192: u64 [a4 + 0xb0] = a2\n 53196: u64 [a4 + 0xb8] = a1\n 53200: u64 [a4 + 0xc0] = a0\n 53204: a0 = 0x51c0\n 53208: jump @1878\n      : @1870 (gas: 11)\n 53211: a3 = s1 + 0x100\n 53215: a0 = u64 [a3 + 0x20]\n 53218: a1 = u64 [a3 + 0x18]\n 53221: a0 = a0 | a1\n 53224: a1 = 0xffffffe0\n 53234: a2 = u64 [a3 + 0x30]\n 53237: a1 = a2 <u a1\n 53240: a2 = u64 [a3 + 0x28]\n 53243: a1 = 0 if a2 != 0\n 53245: a1 = 0 if a0 != 0\n 53247: jump @1912 if a1 == 0\n      : @1871 (gas: 4)\n 53251: a0 = u64 [s1 + 0x130]\n 53255: i32 a1 = a0 + 0x20\n 53258: a0 = s1 + 0x2d60\n 53262: ra = 1998, jump @17\n      : @1872 [@dyn 999] (gas: 12)\n 53269: a0 = s1 + 0x2918\n 53273: a2 = a0 + 0x400\n 53277: a1 = u64 [a2 + 0x60]\n 53280: a3 = s1 + 0x100\n 53284: u64 [a3 + 0x50] = a1\n 53287: a1 = u64 [a2 + 0x58]\n 53290: u64 [a3 + 0x48] = a1\n 53293: a1 = u64 [a2 + 0x50]\n 53296: u64 [a3 + 0x38] = a1\n 53299: a0 = u64 [a2 + 0x48]\n 53302: u64 [a3 + 0x40] = a0\n 53305: fallthrough\n      : @1873 (gas: 24)\n 53306: a2 = u64 [s1 + 0x88]\n 53310: a0 = a2 >> 0x3f\n 53313: a3 = u64 [s1 + 0x30]\n 53316: a1 = a3 << 0x1\n 53319: a0 = a0 | a1\n 53322: u64 [s1 + 0x190] = a0\n 53326: a0 = a3 >> 0x3f\n 53329: a1 = u64 [s1 + 0x20]\n 53332: a1 = a1 << 0x1\n 53335: a0 = a0 | a1\n 53338: u64 [s1 + 0x188] = a0\n 53342: a3 = u64 [s1 + 0x90]\n 53346: a0 = a3 >> 0x3f\n 53349: a1 = a2 << 0x1\n 53352: a0 = a0 | a1\n 53355: u64 [s1 + 0x180] = a0\n 53359: a0 = a3 << 0x1\n 53362: u64 [s1 + 0x178] = a0\n 53366: a1 = a3 << 0x3\n 53369: u64 [s1 + 0x198] = a1\n 53373: i32 a2 = 0x80 - a1\n 53377: a0 = 0xffffffffffffffff\n 53380: a1 = 0xffffffffffffffff\n 53383: ra = 2000, jump @2460\n      : @1874 [@dyn 1000] (gas: 7)\n 53389: u64 [s1 + 0x158] = a0\n 53393: u64 [s1 + 0x170] = a1\n 53397: a0 = u64 [s1 + 0x90]\n 53401: i32 a2 = a0 << 0x3\n 53404: a0 = 0xffffffffffffffff\n 53407: a1 = 0xffffffffffffffff\n 53410: ra = 2002, jump @2455\n      : @1875 [@dyn 1001] (gas: 10)\n 53416: u64 [s1 + 0x168] = a0\n 53420: u64 [s1 + 0x160] = a1\n 53424: a1 = u64 [s1 + 0x158]\n 53428: a0 = a0 | a1\n 53431: u64 [s1 + 0x158] = a0\n 53435: a0 = u64 [s1 + 0x198]\n 53439: i32 a2 = a0 + 0xffffffffffffff80\n 53442: a0 = 0xffffffffffffffff\n 53445: a1 = 0xffffffffffffffff\n 53448: ra = 2004, jump @2455\n      : @1876 [@dyn 1002] (gas: 7)\n 53454: a4 = u64 [s1 + 0x198]\n 53458: a2 = a4 <u 0x80\n 53462: a3 = u64 [s1 + 0x158]\n 53466: a0 = a3 if a2 != 0\n 53469: a5 = u64 [s1 + 0x160]\n 53473: a3 = u64 [s1 + 0x170]\n 53477: t0 = 2006, jump @2381\n      : @1877 [@dyn 1003] (gas: 26)\n 53483: a4 = u64 [s1 + 0x168]\n 53487: a4 = 0 if a2 == 0\n 53489: a1 = u64 [s1 + 0x138]\n 53493: a1 = a1 & ~a3\n 53496: a2 = u64 [s1 + 0x140]\n 53500: a0 = a2 & ~a0\n 53503: a2 = u64 [s1 + 0x148]\n 53507: a2 = a2 & ~a4\n 53510: a3 = u64 [s1 + 0x150]\n 53514: a3 = a3 & ~a5\n 53517: a5 = s1 + 0x100\n 53521: a4 = u64 [a5 + 0x78]\n 53524: a0 = a0 | a4\n 53527: a4 = u64 [a5 + 0x80]\n 53531: a1 = a1 | a4\n 53534: a4 = u64 [a5 + 0x88]\n 53538: a3 = a3 | a4\n 53541: a4 = u64 [a5 + 0x90]\n 53545: a2 = a2 | a4\n 53548: a4 = s1 + 0x5118\n 53552: u64 [a4 + 0xd8] = a2\n 53556: u64 [a4 + 0xe0] = a3\n 53560: u64 [a4 + 0xd0] = a1\n 53564: u64 [a4 + 0xc8] = a0\n 53568: a0 = 0x51e0\n 53572: fallthrough\n      : @1878 (gas: 7)\n 53573: a1 = s1 + a0\n 53576: a0 = u64 [s1 + 0x40]\n 53579: a2 = u64 [s1 + 0x38]\n 53582: a0 = a0 * a2\n 53585: u64 [s1 + 0x190] = a0\n 53589: a0 = u64 [s1 + 0x80]\n 53593: ra = 2008, jump @25\n      : @1879 [@dyn 1004] (gas: 33)\n 53600: a0 = u64 [s1 + 0xe0]\n 53604: ecalli 4 // 'caller'\n 53606: a2 = u64 [s1 + 0x108]\n 53610: a0 = u64 [a2 + 0x8]\n 53613: a1 = i32 [a2 + 0x10]\n 53616: a2 = u64 [a2]\n 53618: a0 = reverse a0\n 53620: a3 = a0 << 0x20\n 53623: a1 = reverse a1\n 53625: a1 = a1 >> 0x20\n 53628: a3 = a3 | a1\n 53631: a0 = a0 >> 0x20\n 53634: a1 = reverse a2\n 53636: a2 = a1 << 0x20\n 53639: a0 = a0 | a2\n 53642: a1 = a1 >> 0x20\n 53645: a4 = s1 + 0x2918\n 53649: a2 = u64 [s1 + 0x48]\n 53652: a5 = a4 + 0x300\n 53656: u64 [a5 + 0xe0] = a2\n 53660: a2 = u64 [s1 + 0x50]\n 53663: u64 [a5 + 0xd8] = a2\n 53667: a2 = u64 [s1 + 0x58]\n 53670: u64 [a5 + 0xd0] = a2\n 53674: a2 = u64 [s1 + 0x190]\n 53678: u64 [a5 + 0xc8] = a2\n 53682: u64 [a4 + 1024] = 0\n 53686: u64 [a5 + 0xf8] = a1\n 53690: u64 [a5 + 0xf0] = a0\n 53694: a0 = s1 + 0x2d00\n 53698: a1 = s1 + 0x2ce0\n 53702: u64 [a5 + 0xe8] = a3\n 53706: ra = 2010, jump @2309\n      : @1880 [@dyn 1005] (gas: 3)\n 53712: a0 = s1 + 0x2cc0\n 53716: a1 = 0x40\n 53719: ra = 2012, jump @17\n      : @1881 [@dyn 1006] (gas: 3)\n 53726: t0 = 0x7de\n 53730: a1 = s1 + 0x2918\n 53734: fallthrough\n      : @1882 [@dyn 1007] (gas: 18)\n 53735: a4 = a1 + 0x300\n 53739: a2 = u64 [a4 + 0xc0]\n 53743: a3 = u64 [a4 + 0xb8]\n 53747: a0 = u64 [a4 + 0xb0]\n 53751: a1 = u64 [a4 + 0xa8]\n 53755: a4 = s1 + 0x100\n 53759: u64 [a4 + 0x88] = a0\n 53763: u64 [a4 + 0x80] = a2\n 53767: a0 = a0 | a2\n 53770: u64 [a4 + 0x98] = a1\n 53774: a1 = a1 | a3\n 53777: a1 = a1 | a0\n 53780: a1 = a1 >> 0x20\n 53783: u64 [a4 + 0x78] = a3\n 53786: a0 = a0 | a3\n 53789: a0 = a0 << 0x20\n 53792: a0 = a0 | a1\n 53795: jump @1912 if a0 != 0\n      : @1883 (gas: 13)\n 53799: a0 = s1 + 0x2918\n 53803: a1 = u64 [s1 + 0xf8]\n 53807: a3 = a0 + 0x300\n 53811: u64 [a3 + 0x88] = a1\n 53815: a1 = u64 [s1 + 0x100]\n 53819: u64 [a3 + 0x90] = a1\n 53823: a1 = u64 [s1 + 0xe8]\n 53827: u64 [a3 + 0x98] = a1\n 53831: a1 = s1 + 0x2ca0\n 53835: a2 = u64 [s1 + 0xf0]\n 53839: u64 [a3 + 0xa0] = a2\n 53843: a0 = u64 [s1 + 0x198]\n 53847: ra = 2016, jump @19\n      : @1884 [@dyn 1008] (gas: 14)\n 53854: a3 = s1 + 0x100\n 53858: a0 = u64 [a3 + 0x80]\n 53862: a2 = u64 [a3 + 0x78]\n 53865: a2 = a2 | a0\n 53868: a0 = 0x100000000\n 53878: u64 [a3 + 0x78] = a0\n 53881: a0 = 0xffffffe0\n 53891: a1 = u64 [a3 + 0x98]\n 53895: a0 = a1 <u a0\n 53898: a1 = u64 [a3 + 0x88]\n 53902: a0 = 0 if a1 != 0\n 53904: u64 [a3 + 0x80] = a2\n 53908: a0 = 0 if a2 != 0\n 53910: jump @1912 if a0 == 0\n      : @1885 (gas: 5)\n 53914: a0 = u64 [s1 + 0x198]\n 53918: i32 a0 = a0 + 0x20\n 53921: t0 = 0x7e2\n 53925: a2 = s1 + 0x2918\n 53929: fallthrough\n      : @1886 [@dyn 1009] (gas: 11)\n 53930: a1 = u64 [s1 + 0x190]\n 53934: a4 = a2 + 0x300\n 53938: u64 [a4 + 0x68] = a1\n 53941: a1 = u64 [s1 + 0x58]\n 53944: u64 [a4 + 0x70] = a1\n 53947: a1 = u64 [s1 + 0x50]\n 53950: u64 [a4 + 0x78] = a1\n 53953: a1 = s1 + 0x2c80\n 53957: a3 = u64 [s1 + 0x48]\n 53960: u64 [a4 + 0x80] = a3\n 53964: ra = 2020, jump @19\n      : @1887 [@dyn 1010] (gas: 4)\n 53971: a2 = s1 + 0x100\n 53975: a0 = u64 [a2 + 0x78]\n 53978: a0 = a0 + 0xffffffffffffffc0\n 53981: t0 = 2022, jump @2366\n      : @1888 [@dyn 1011] (gas: 1)\n 53987: jump @1912 if a0 == 0\n      : @1889 (gas: 5)\n 53991: a0 = u64 [s1 + 0x198]\n 53995: i32 a0 = a0 + 0x40\n 53998: t0 = 0x7e8\n 54002: a2 = s1 + 0x2918\n 54006: fallthrough\n      : @1890 [@dyn 1012] (gas: 11)\n 54007: a1 = u64 [s1 + 0x60]\n 54010: a4 = a2 + 0x300\n 54014: u64 [a4 + 0x48] = a1\n 54017: a1 = u64 [s1 + 0x78]\n 54020: u64 [a4 + 0x50] = a1\n 54023: a1 = u64 [s1 + 0x68]\n 54026: u64 [a4 + 0x58] = a1\n 54029: a1 = s1 + 0x2c60\n 54033: a3 = u64 [s1 + 0x70]\n 54036: u64 [a4 + 0x60] = a3\n 54039: ra = 2026, jump @19\n      : @1891 [@dyn 1013] (gas: 5)\n 54046: a0 = 0x100000000\n 54056: a2 = s1 + 0x100\n 54060: u64 [a2 + 0x90] = a0\n 54064: a0 = 0xffffffa0\n 54074: t0 = 2028, jump @2366\n      : @1892 [@dyn 1014] (gas: 1)\n 54080: jump @1912 if a0 == 0\n      : @1893 (gas: 5)\n 54084: a0 = u64 [s1 + 0x198]\n 54088: i32 a0 = a0 + 0x60\n 54091: t0 = 0x7ee\n 54095: a2 = s1 + 0x2918\n 54099: fallthrough\n      : @1894 [@dyn 1015] (gas: 11)\n 54100: a1 = u64 [s1 + 0xb8]\n 54104: a4 = a2 + 0x300\n 54108: u64 [a4 + 0x28] = a1\n 54111: a1 = u64 [s1 + 0xc0]\n 54115: u64 [a4 + 0x30] = a1\n 54118: a1 = u64 [s1 + 0xc8]\n 54122: u64 [a4 + 0x38] = a1\n 54125: a1 = s1 + 0x2c40\n 54129: a3 = u64 [s1 + 0xd0]\n 54133: u64 [a4 + 0x40] = a3\n 54136: ra = 2032, jump @19\n      : @1895 [@dyn 1016] (gas: 4)\n 54143: a2 = s1 + 0x100\n 54147: a0 = u64 [a2 + 0x90]\n 54151: a0 = a0 + 0xffffffffffffff80\n 54154: t0 = 2034, jump @2366\n      : @1896 [@dyn 1017] (gas: 1)\n 54160: jump @1912 if a0 == 0\n      : @1897 (gas: 5)\n 54164: a0 = u64 [s1 + 0x198]\n 54168: i32 a0 = a0 + 0x80\n 54172: t0 = 0x7f4\n 54176: a2 = s1 + 0x2918\n 54180: fallthrough\n      : @1898 [@dyn 1018] (gas: 11)\n 54181: a1 = u64 [s1 + 0x98]\n 54185: a4 = a2 + 0x300\n 54189: u64 [a4 + 0x8] = a1\n 54192: a1 = u64 [s1 + 0xa0]\n 54196: u64 [a4 + 0x10] = a1\n 54199: a1 = u64 [s1 + 0xa8]\n 54203: u64 [a4 + 0x18] = a1\n 54206: a1 = s1 + 0x2c20\n 54210: a3 = u64 [s1 + 0xb0]\n 54214: u64 [a4 + 0x20] = a3\n 54217: ra = 2038, jump @19\n      : @1899 [@dyn 1019] (gas: 5)\n 54224: a0 = s1 + 0x5000\n 54228: i32 a0 = a0 + 0x200\n 54232: ra = 0x7f8\n 54236: ecalli 8 // 'now'\n 54238: fallthrough\n      : @1900 [@dyn 1020] (gas: 3)\n 54239: a0 = 0xffffff60\n 54249: a2 = s1 + 0x100\n 54253: t0 = 2042, jump @2366\n      : @1901 [@dyn 1021] (gas: 1)\n 54259: jump @1912 if a0 == 0\n      : @1902 (gas: 15)\n 54263: a0 = s1 + 0x5118\n 54267: a2 = u64 [a0 + 0xe8]\n 54271: a1 = u64 [a0 + 0xf0]\n 54275: a3 = u64 [a0 + 0xf8]\n 54279: a4 = u64 [a0 + 0x100]\n 54283: a0 = u64 [s1 + 0x198]\n 54287: i32 a0 = a0 + 0xa0\n 54291: a5 = s1 + 0x2918\n 54295: u64 [a5 + 0x300] = a4\n 54299: a4 = a5 + 0x200\n 54303: u64 [a4 + 0xf8] = a3\n 54307: u64 [a4 + 0xf0] = a1\n 54311: a1 = s1 + 0x2c00\n 54315: u64 [a4 + 0xe8] = a2\n 54319: ra = 2044, jump @19\n      : @1903 [@dyn 1022] (gas: 6)\n 54326: a0 = u64 [s1 + 0xe0]\n 54330: ra = 0x7fe\n 54334: ecalli 4 // 'caller'\n 54336: a2 = u64 [s1 + 0x108]\n 54340: t0 = 0x800\n 54344: jump @2359\n      : @1904 [@dyn 1023] (gas: 2)\n 54347: a2 = u64 [s1 + 0x108]\n 54351: t0 = 2048, jump @2359\n      : @1905 [@dyn 1024] (gas: 25)\n 54357: t0 = a1 | a0\n 54360: a3 = a3 >> 0x20\n 54363: a2 = reverse a2\n 54365: a1 = a2 << 0x20\n 54368: a1 = a1 | a3\n 54371: a2 = a2 >> 0x20\n 54374: a3 = u64 [0x20090]\n 54379: a0 = s1 + 0x2918\n 54383: u64 [a0 + 0x2e0] = a3\n 54387: a3 = u64 [0x20098]\n 54392: a4 = u64 [0x200a0]\n 54397: a5 = u64 [0x200a8]\n 54402: u64 [a0 + 0x2d8] = a3\n 54406: a3 = a0 + 0x200\n 54410: u64 [a3 + 0xd0] = a4\n 54414: u64 [a0 + 704] = 0\n 54418: u64 [a3 + 0xc8] = a5\n 54422: u64 [a3 + 0xb8] = a2\n 54426: u64 [a3 + 0xb0] = a1\n 54430: a1 = 0xc0\n 54434: a2 = s1 + 0x2be0\n 54438: a3 = s1 + 0x2bc0\n 54442: u64 [a0 + 0x2a8] = t0\n 54446: a0 = u64 [s1 + 0x198]\n 54450: ra = 2050, jump @26\n      : @1906 [@dyn 1025] (gas: 3)\n 54457: a0 = s1 + 0x2ba0\n 54461: a1 = 0x40\n 54464: ra = 2052, jump @17\n      : @1907 [@dyn 1026] (gas: 3)\n 54471: t0 = 0x806\n 54475: a1 = s1 + 0x2918\n 54479: fallthrough\n      : @1908 [@dyn 1027] (gas: 18)\n 54480: a4 = a1 + 0x200\n 54484: a2 = u64 [a4 + 0xa0]\n 54488: a3 = u64 [a4 + 0x98]\n 54492: a0 = u64 [a4 + 0x90]\n 54496: a1 = u64 [a4 + 0x88]\n 54500: a4 = s1 + 0x100\n 54504: u64 [a4 + 0x90] = a0\n 54508: u64 [a4 + 0x88] = a2\n 54512: a0 = a0 | a2\n 54515: u64 [a4 + 0x98] = a1\n 54519: a1 = a1 | a3\n 54522: a1 = a1 | a0\n 54525: a1 = a1 >> 0x20\n 54528: u64 [a4 + 0x80] = a3\n 54532: a0 = a0 | a3\n 54535: a0 = a0 << 0x20\n 54538: a0 = a0 | a1\n 54541: jump @1912 if a0 != 0\n      : @1909 (gas: 13)\n 54544: a0 = s1 + 0x2918\n 54548: a1 = u64 [s1 + 0x60]\n 54551: a3 = a0 + 0x200\n 54555: u64 [a3 + 0x68] = a1\n 54558: a1 = u64 [s1 + 0x78]\n 54561: u64 [a3 + 0x70] = a1\n 54564: a1 = u64 [s1 + 0x68]\n 54567: u64 [a3 + 0x78] = a1\n 54570: a1 = s1 + 0x2b80\n 54574: a2 = u64 [s1 + 0x70]\n 54577: u64 [a3 + 0x80] = a2\n 54581: a0 = u64 [s1 + 0x198]\n 54585: ra = 2056, jump @19\n      : @1910 [@dyn 1028] (gas: 4)\n 54592: a0 = s1 + 0x5000\n 54596: i32 a0 = a0 + 0x220\n 54600: ecalli 8 // 'now'\n 54602: fallthrough\n      : @1911 (gas: 11)\n 54603: a3 = s1 + 0x100\n 54607: a0 = u64 [a3 + 0x88]\n 54611: a1 = u64 [a3 + 0x80]\n 54615: a0 = a0 | a1\n 54618: a1 = 0xffffffe0\n 54628: a2 = u64 [a3 + 0x98]\n 54632: a1 = a2 <u a1\n 54635: a2 = u64 [a3 + 0x90]\n 54639: a1 = 0 if a2 != 0\n 54641: a1 = 0 if a0 != 0\n 54643: jump @2105 if a1 != 0\n      : @1912 (gas: 1)\n 54647: trap\n      : @1913 (gas: 2)\n 54648: a0 = 0x2000\n 54652: t0 = 2058, jump @2390\n      : @1914 [@dyn 1029] (gas: 4)\n 54658: a1 = s1 + 0x1f00\n 54662: u64 [a2 + 0x600] = a0\n 54666: a0 = 0\n 54668: ra = 2060, jump @19\n      : @1915 [@dyn 1030] (gas: 3)\n 54675: t0 = 0x80e\n 54679: a1 = s1 + 0x1918\n 54683: fallthrough\n      : @1916 [@dyn 1031] (gas: 8)\n 54684: u64 [a1 + 1504] = 0\n 54688: u64 [a1 + 1496] = 0\n 54692: u64 [a1 + 1480] = 0x41\n 54697: a2 = a1\n 54699: a0 = 0x4\n 54702: a1 = s1 + 0x1ee0\n 54706: u64 [a2 + 1488] = 0\n 54710: ra = 2064, jump @19\n      : @1917 [@dyn 1032] (gas: 3)\n 54717: a0 = u64 [s1 + 0x98]\n 54721: a0 = i32 [a0]\n 54723: jump @1919 if a0 >u 63\n      : @1918 (gas: 3)\n 54727: a1 = u64 [s1 + 0x98]\n 54731: u32 [a1 + 0] = 0x40\n 54734: fallthrough\n      : @1919 (gas: 5)\n 54735: a0 = 0x1\n 54738: a2 = 0x24\n 54741: a1 = u64 [s1 + 0x90]\n 54745: ecalli 11 // 'seal_return'\n 54747: fallthrough\n      : @1920 (gas: 6)\n 54748: a1 = 0x201b0\n 54753: i32 a1 = a1 + 0\n 54755: a0 = 0x1\n 54758: a2 = 0\n 54760: ecalli 11 // 'seal_return'\n 54762: jump @2057\n      : @1921 (gas: 6)\n 54765: a1 = 0x201b0\n 54770: i32 a1 = a1 + 0\n 54772: a0 = 0x1\n 54775: a2 = 0\n 54777: ecalli 11 // 'seal_return'\n 54779: jump @2057\n      : @1922 (gas: 6)\n 54782: a1 = 0x201b0\n 54787: i32 a1 = a1 + 0\n 54789: a0 = 0x1\n 54792: a2 = 0\n 54794: ecalli 11 // 'seal_return'\n 54796: jump @2057\n      : @1923 (gas: 6)\n 54799: a1 = 0x201b0\n 54804: i32 a1 = a1 + 0\n 54806: a0 = 0x1\n 54809: a2 = 0\n 54811: ecalli 11 // 'seal_return'\n 54813: jump @2057\n      : @1924 (gas: 6)\n 54816: a1 = 0x201b0\n 54821: i32 a1 = a1 + 0\n 54823: a0 = 0x1\n 54826: a2 = 0\n 54828: ecalli 11 // 'seal_return'\n 54830: jump @2057\n      : @1925 (gas: 6)\n 54833: a1 = 0x201b0\n 54838: i32 a1 = a1 + 0\n 54840: a0 = 0x1\n 54843: a2 = 0\n 54845: ecalli 11 // 'seal_return'\n 54847: jump @2057\n      : @1926 (gas: 10)\n 54850: a0 = s1 + 0x3918\n 54854: u64 [a0 + 1848] = 0\n 54858: u64 [a0 + 1840] = 0\n 54862: u64 [a0 + 1832] = 0\n 54866: a2 = a0\n 54868: a0 = 0x4e487b7100000000\n 54878: a1 = s1 + 0x4040\n 54882: u64 [a2 + 0x740] = a0\n 54886: a0 = 0\n 54888: ra = 2066, jump @19\n      : @1927 [@dyn 1033] (gas: 3)\n 54895: t0 = 0x814\n 54899: a1 = s1 + 0x3918\n 54903: fallthrough\n      : @1928 [@dyn 1034] (gas: 8)\n 54904: u64 [a1 + 1824] = 0\n 54908: u64 [a1 + 1816] = 0\n 54912: u64 [a1 + 1800] = 0x41\n 54917: a2 = a1\n 54919: a0 = 0x4\n 54922: a1 = s1 + 0x4020\n 54926: u64 [a2 + 1808] = 0\n 54930: ra = 2070, jump @19\n      : @1929 [@dyn 1035] (gas: 3)\n 54937: a0 = u64 [s1 + 0x140]\n 54941: a0 = i32 [a0]\n 54943: jump @1931 if a0 >u 63\n      : @1930 (gas: 3)\n 54947: a1 = u64 [s1 + 0x140]\n 54951: u32 [a1 + 0] = 0x40\n 54954: fallthrough\n      : @1931 (gas: 5)\n 54955: a0 = 0x1\n 54958: a2 = 0x24\n 54961: a1 = u64 [s1 + 0x148]\n 54965: ecalli 11 // 'seal_return'\n 54967: fallthrough\n      : @1932 (gas: 6)\n 54968: a1 = 0x201b0\n 54973: i32 a1 = a1 + 0\n 54975: a0 = 0x1\n 54978: a2 = 0\n 54980: ecalli 11 // 'seal_return'\n 54982: jump @2057\n      : @1933 (gas: 6)\n 54985: a1 = 0x201b0\n 54990: i32 a1 = a1 + 0\n 54992: a0 = 0x1\n 54995: a2 = 0\n 54997: ecalli 11 // 'seal_return'\n 54999: jump @2057\n      : @1934 (gas: 8)\n 55002: u64 [s1 + 976] = 0\n 55006: u64 [s1 + 968] = 0\n 55010: u64 [s1 + 960] = 0\n 55014: a0 = 0xe602df0500000000\n 55024: a1 = s1 + 0x3c0\n 55028: u64 [s1 + 0x3d8] = a0\n 55032: a0 = 0\n 55034: ra = 2072, jump @19\n      : @1935 [@dyn 1036] (gas: 7)\n 55041: u64 [s1 + 952] = 0\n 55045: u64 [s1 + 944] = 0\n 55049: u64 [s1 + 936] = 0\n 55053: a0 = 0x4\n 55056: a1 = s1 + 0x3a0\n 55060: u64 [s1 + 928] = 0\n 55064: ra = 2074, jump @19\n      : @1936 [@dyn 1037] (gas: 2)\n 55071: a1 = i32 [0x2019c]\n 55076: jump @1938 if a1 >u 63\n      : @1937 (gas: 3)\n 55080: u32 [0x2019c] = 0x40\n 55086: a1 = 0x201b0\n 55091: jump @2070\n      : @1938 (gas: 2)\n 55094: a1 = 0x201b0\n 55099: jump @2070\n      : @1939 (gas: 8)\n 55102: u64 [s1 + 1040] = 0\n 55106: u64 [s1 + 1032] = 0\n 55110: u64 [s1 + 1024] = 0\n 55114: a0 = 0x94280d6200000000\n 55124: a1 = s1 + 0x400\n 55128: u64 [s1 + 0x418] = a0\n 55132: a0 = 0\n 55134: ra = 2076, jump @19\n      : @1940 [@dyn 1038] (gas: 7)\n 55141: u64 [s1 + 1016] = 0\n 55145: u64 [s1 + 1008] = 0\n 55149: u64 [s1 + 1000] = 0\n 55153: a0 = 0x4\n 55156: a1 = s1 + 0x3e0\n 55160: u64 [s1 + 992] = 0\n 55164: ra = 2078, jump @19\n      : @1941 [@dyn 1039] (gas: 2)\n 55171: a1 = i32 [0x2019c]\n 55176: jump @1943 if a1 >u 63\n      : @1942 (gas: 3)\n 55180: u32 [0x2019c] = 0x40\n 55186: a1 = 0x201b0\n 55191: jump @2070\n      : @1943 (gas: 2)\n 55194: a1 = 0x201b0\n 55199: jump @2070\n      : @1944 (gas: 6)\n 55202: a1 = 0x201b0\n 55207: i32 a1 = a1 + 0\n 55209: a0 = 0x1\n 55212: a2 = 0\n 55214: ecalli 11 // 'seal_return'\n 55216: jump @2057\n      : @1945 (gas: 6)\n 55219: a1 = 0x201b0\n 55224: i32 a1 = a1 + 0\n 55226: a0 = 0x1\n 55229: a2 = 0\n 55231: ecalli 11 // 'seal_return'\n 55233: jump @2057\n      : @1946 (gas: 6)\n 55236: a1 = 0x201b0\n 55241: i32 a1 = a1 + 0\n 55243: a0 = 0x1\n 55246: a2 = 0\n 55248: ecalli 11 // 'seal_return'\n 55250: jump @2057\n      : @1947 (gas: 6)\n 55253: a1 = 0x201b0\n 55258: i32 a1 = a1 + 0\n 55260: a0 = 0x1\n 55263: a2 = 0\n 55265: ecalli 11 // 'seal_return'\n 55267: jump @2057\n      : @1948 (gas: 6)\n 55270: a1 = 0x201b0\n 55275: i32 a1 = a1 + 0\n 55277: a0 = 0x1\n 55280: a2 = 0\n 55282: ecalli 11 // 'seal_return'\n 55284: jump @2057\n      : @1949 (gas: 6)\n 55287: a1 = 0x201b0\n 55292: i32 a1 = a1 + 0\n 55294: a0 = 0x1\n 55297: a2 = 0\n 55299: ecalli 11 // 'seal_return'\n 55301: jump @2057\n      : @1950 (gas: 6)\n 55304: a1 = 0x201b0\n 55309: i32 a1 = a1 + 0\n 55311: a0 = 0x1\n 55314: a2 = 0\n 55316: ecalli 11 // 'seal_return'\n 55318: jump @2057\n      : @1951 (gas: 6)\n 55321: a1 = 0x201b0\n 55326: i32 a1 = a1 + 0\n 55328: a0 = 0x1\n 55331: a2 = 0\n 55333: ecalli 11 // 'seal_return'\n 55335: jump @2057\n      : @1952 (gas: 4)\n 55338: a0 = u64 [s1 + 0x178]\n 55342: ra = 0x820\n 55346: ecalli 4 // 'caller'\n 55348: fallthrough\n      : @1953 [@dyn 1040] (gas: 5)\n 55349: a2 = u64 [s1 + 0x198]\n 55353: a0 = u64 [a2 + 0x8]\n 55356: a1 = i32 [a2 + 0x10]\n 55359: a2 = u64 [a2]\n 55361: t0 = 2082, jump @2342\n      : @1954 [@dyn 1041] (gas: 12)\n 55367: a2 = s1 + 0x1000\n 55371: u64 [a2 + 4294965304] = 0\n 55375: a2 = s1 + 0x1000\n 55379: u64 [a2 + 0xfffffffffffff830] = a1\n 55383: a1 = s1 + 0x1000\n 55387: u64 [a1 + 0xfffffffffffff828] = a0\n 55391: a1 = s1 + 0x7ff\n 55395: a1 = a1 + 0x21\n 55398: a0 = s1 + 0x1000\n 55402: u64 [a0 + 0xfffffffffffff820] = a3\n 55406: a0 = 0\n 55408: ra = 2084, jump @19\n      : @1955 [@dyn 1042] (gas: 12)\n 55415: a0 = s1 + 0x1000\n 55419: u64 [a0 + 4294965272] = 0\n 55423: a0 = s1 + 0x1000\n 55427: u64 [a0 + 4294965264] = 0\n 55431: a1 = s1 + 0x1000\n 55435: u64 [a1 + 4294965248] = 0xa\n 55440: a0 = 0x20\n 55443: a1 = s1 + 0x7ff\n 55447: a1 = a1 + 0x1\n 55450: a2 = s1 + 0x1000\n 55454: u64 [a2 + 4294965256] = 0\n 55458: ra = 2086, jump @19\n      : @1956 [@dyn 1043] (gas: 1)\n 55465: t0 = 2088, jump @2410\n      : @1957 [@dyn 1044] (gas: 3)\n 55471: a0 = u64 [s1 + 0x180]\n 55475: a0 = i32 [a0]\n 55477: jump @1959 if a0 >u 63\n      : @1958 (gas: 3)\n 55481: a1 = u64 [s1 + 0x180]\n 55485: u32 [a1 + 0] = 0x40\n 55488: fallthrough\n      : @1959 (gas: 11)\n 55489: a0 = sp + 0xffffffffffffffe0\n 55492: a0 = a0 & 0xffffffffffffffe0\n 55495: u64 [s1 + 0x190] = a0\n 55499: sp = a0\n 55501: i32 a2 = a0 + 0\n 55503: a1 = 0x40\n 55506: a0 = u64 [s1 + 0x188]\n 55510: ra = 0x82a\n 55514: ecalli 7 // 'hash_keccak_256'\n 55516: t0 = 0x82c\n 55520: jump @2363\n      : @1960 [@dyn 1045] (gas: 1)\n 55523: t0 = 2092, jump @2363\n      : @1961 [@dyn 1046] (gas: 2)\n 55529: a0 = s1 + 0x7e0\n 55533: ra = 2094, jump @21\n      : @1962 [@dyn 1047] (gas: 15)\n 55540: a0 = u64 [s1 + 0x7e0]\n 55544: a1 = u64 [s1 + 0x7e8]\n 55548: a2 = u64 [s1 + 0x7f8]\n 55552: a3 = u64 [s1 + 0x7f0]\n 55556: a0 = a0 & 0xffffffffffffff00\n 55560: a0 = a0 | 0x1\n 55563: a4 = s1 + 0x4118\n 55567: a5 = a4 + 0x500\n 55571: u64 [a5 + 0x20] = a2\n 55574: u64 [a5 + 0x18] = a3\n 55577: u64 [a5 + 0x10] = a1\n 55580: u64 [a5 + 0x8] = a0\n 55583: a1 = s1 + 0x4620\n 55587: a0 = u64 [s1 + 0x198]\n 55591: ra = 2096, jump @25\n      : @1963 [@dyn 1048] (gas: 9)\n 55598: a0 = s1 + 0x4118\n 55602: u64 [a0 + 1344] = 0\n 55606: u64 [a0 + 1336] = 0\n 55610: u64 [a0 + 1328] = 0\n 55614: a1 = a0\n 55616: u64 [a1 + 1320] = 0x6\n 55621: a0 = s1 + 0x7c0\n 55625: a1 = s1 + 0x4640\n 55629: ra = 2098, jump @21\n      : @1964 [@dyn 1049] (gas: 17)\n 55636: a2 = s1 + 0x700\n 55640: a0 = u64 [a2 + 0xc0]\n 55644: a3 = u64 [a2 + 0xd8]\n 55648: a1 = u64 [a2 + 0xc8]\n 55652: a4 = u64 [a2 + 0xd0]\n 55656: a0 = a0 + 0x1\n 55659: a2 = a0 <u 0x1\n 55662: a1 = a1 + a2\n 55665: a2 = a0 | a1\n 55668: a2 = a2 <u 0x1\n 55671: a2 = a2 + a4\n 55674: a4 = a2 <u a4\n 55677: a3 = a3 + a4\n 55680: a4 = a1 | a3\n 55683: a5 = a0 | a2\n 55686: a4 = a4 | a5\n 55689: jump @2057 if a4 == 0\n      : @1965 (gas: 13)\n 55693: a4 = s1 + 0x4118\n 55697: u64 [a4 + 1376] = 0\n 55701: u64 [a4 + 1368] = 0\n 55705: u64 [a4 + 1360] = 0\n 55709: u64 [a4 + 1352] = 0x6\n 55714: a5 = a4 + 0x500\n 55718: u64 [a5 + 0x68] = a0\n 55721: u64 [a5 + 0x70] = a1\n 55724: u64 [a5 + 0x78] = a2\n 55727: u64 [a5 + 0x80] = a3\n 55731: a0 = s1 + 0x4660\n 55735: a1 = s1 + 0x4680\n 55739: ra = 2100, jump @25\n      : @1966 [@dyn 1050] (gas: 5)\n 55746: a0 = 0\n 55748: a1 = u64 [s1 + 0x188]\n 55752: a2 = 0\n 55754: ecalli 11 // 'seal_return'\n 55756: jump @2057\n      : @1967 (gas: 6)\n 55759: a1 = 0x201b0\n 55764: i32 a1 = a1 + 0\n 55766: a0 = 0x1\n 55769: a2 = 0\n 55771: ecalli 11 // 'seal_return'\n 55773: jump @2057\n      : @1968 (gas: 6)\n 55776: a1 = 0x201b0\n 55781: i32 a1 = a1 + 0\n 55783: a0 = 0x1\n 55786: a2 = 0\n 55788: ecalli 11 // 'seal_return'\n 55790: jump @2057\n      : @1969 (gas: 6)\n 55793: a1 = 0x201b0\n 55798: i32 a1 = a1 + 0\n 55800: a0 = 0x1\n 55803: a2 = 0\n 55805: ecalli 11 // 'seal_return'\n 55807: jump @2057\n      : @1970 (gas: 6)\n 55810: a1 = 0x201b0\n 55815: i32 a1 = a1 + 0\n 55817: a0 = 0x1\n 55820: a2 = 0\n 55822: ecalli 11 // 'seal_return'\n 55824: jump @2057\n      : @1971 (gas: 5)\n 55827: a0 = 0x1\n 55830: a1 = u64 [s1 + 0x178]\n 55834: a2 = 0\n 55836: ecalli 11 // 'seal_return'\n 55838: jump @2057\n      : @1972 (gas: 6)\n 55841: a1 = 0x201b0\n 55846: i32 a1 = a1 + 0\n 55848: a0 = 0x1\n 55851: a2 = 0\n 55853: ecalli 11 // 'seal_return'\n 55855: jump @2057\n      : @1973 (gas: 6)\n 55858: a1 = 0x201b0\n 55863: i32 a1 = a1 + 0\n 55865: a0 = 0x1\n 55868: a2 = 0\n 55870: ecalli 11 // 'seal_return'\n 55872: jump @2057\n      : @1974 (gas: 5)\n 55875: a0 = 0x1\n 55878: a1 = u64 [s1 + 0x150]\n 55882: a2 = 0\n 55884: ecalli 11 // 'seal_return'\n 55886: jump @2057\n      : @1975 (gas: 6)\n 55889: a1 = 0x201b0\n 55894: i32 a1 = a1 + 0\n 55896: a0 = 0x1\n 55899: a2 = 0\n 55901: ecalli 11 // 'seal_return'\n 55903: jump @2057\n      : @1976 (gas: 6)\n 55906: a1 = 0x201b0\n 55911: i32 a1 = a1 + 0\n 55913: a0 = 0x1\n 55916: a2 = 0\n 55918: ecalli 11 // 'seal_return'\n 55920: jump @2057\n      : @1977 (gas: 6)\n 55923: a1 = 0x201b0\n 55928: i32 a1 = a1 + 0\n 55930: a0 = 0x1\n 55933: a2 = 0\n 55935: ecalli 11 // 'seal_return'\n 55937: jump @2057\n      : @1978 (gas: 6)\n 55940: a1 = 0x201b0\n 55945: i32 a1 = a1 + 0\n 55947: a0 = 0x1\n 55950: a2 = 0\n 55952: ecalli 11 // 'seal_return'\n 55954: jump @2057\n      : @1979 (gas: 6)\n 55957: a1 = 0x201b0\n 55962: i32 a1 = a1 + 0\n 55964: a0 = 0x1\n 55967: a2 = 0\n 55969: ecalli 11 // 'seal_return'\n 55971: jump @2057\n      : @1980 (gas: 6)\n 55974: a1 = 0x201b0\n 55979: i32 a1 = a1 + 0\n 55981: a0 = 0x1\n 55984: a2 = 0\n 55986: ecalli 11 // 'seal_return'\n 55988: jump @2057\n      : @1981 (gas: 1)\n 55991: jump @2049 if a0 != 4076725131\n      : @1982 (gas: 10)\n 55999: a0 = s1 + 0x5118\n 56003: u64 [a0 + 992] = 0\n 56007: u64 [a0 + 984] = 0\n 56011: u64 [a0 + 976] = 0\n 56015: u64 [a0 + 968] = 0\n 56019: a0 = s1 + 0x5000\n 56023: i32 a0 = a0 + 0x4e0\n 56027: ra = 0x836\n 56031: ecalli 14 // 'value_transferred'\n 56033: fallthrough\n      : @1983 [@dyn 1051] (gas: 3)\n 56034: a3 = s1 + 0x5118\n 56038: a4 = a3 + 0x300\n 56042: t0 = 2104, jump @2365\n      : @1984 [@dyn 1052] (gas: 1)\n 56048: jump @2082 if a0 == 0\n      : @1985 (gas: 6)\n 56052: a1 = 0x201b0\n 56057: i32 a1 = a1 + 0\n 56059: a0 = 0x1\n 56062: a2 = 0\n 56064: ecalli 11 // 'seal_return'\n 56066: jump @2057\n      : @1986 (gas: 6)\n 56069: a1 = 0x201b0\n 56074: i32 a1 = a1 + 0\n 56076: a0 = 0x1\n 56079: a2 = 0\n 56081: ecalli 11 // 'seal_return'\n 56083: jump @2057\n      : @1987 (gas: 6)\n 56086: a1 = 0x201b0\n 56091: i32 a1 = a1 + 0\n 56093: a0 = 0x1\n 56096: a2 = 0\n 56098: ecalli 11 // 'seal_return'\n 56100: jump @2057\n      : @1988 (gas: 6)\n 56103: a1 = 0x201b0\n 56108: i32 a1 = a1 + 0\n 56110: a0 = 0x1\n 56113: a2 = 0\n 56115: ecalli 11 // 'seal_return'\n 56117: jump @2057\n      : @1989 (gas: 6)\n 56120: a1 = 0x201b0\n 56125: i32 a1 = a1 + 0\n 56127: a0 = 0x1\n 56130: a2 = 0\n 56132: ecalli 11 // 'seal_return'\n 56134: jump @2057\n      : @1990 (gas: 6)\n 56137: a1 = 0x201b0\n 56142: i32 a1 = a1 + 0\n 56144: a0 = 0x1\n 56147: a2 = 0\n 56149: ecalli 11 // 'seal_return'\n 56151: jump @2057\n      : @1991 (gas: 6)\n 56154: a1 = 0x201b0\n 56159: i32 a1 = a1 + 0\n 56161: a0 = 0x1\n 56164: a2 = 0\n 56166: ecalli 11 // 'seal_return'\n 56168: jump @2057\n      : @1992 (gas: 6)\n 56171: a1 = 0x201b0\n 56176: i32 a1 = a1 + 0\n 56178: a0 = 0x1\n 56181: a2 = 0\n 56183: ecalli 11 // 'seal_return'\n 56185: jump @2057\n      : @1993 (gas: 6)\n 56188: a1 = 0x201b0\n 56193: i32 a1 = a1 + 0\n 56195: a0 = 0x1\n 56198: a2 = 0\n 56200: ecalli 11 // 'seal_return'\n 56202: jump @2057\n      : @1994 (gas: 6)\n 56205: a1 = 0x201b0\n 56210: i32 a1 = a1 + 0\n 56212: a0 = 0x1\n 56215: a2 = 0\n 56217: ecalli 11 // 'seal_return'\n 56219: jump @2057\n      : @1995 (gas: 6)\n 56222: a1 = 0x201b0\n 56227: i32 a1 = a1 + 0\n 56229: a0 = 0x1\n 56232: a2 = 0\n 56234: ecalli 11 // 'seal_return'\n 56236: jump @2057\n      : @1996 (gas: 6)\n 56239: a1 = 0x201b0\n 56244: i32 a1 = a1 + 0\n 56246: a0 = 0x1\n 56249: a2 = 0\n 56251: ecalli 11 // 'seal_return'\n 56253: jump @2057\n      : @1997 (gas: 6)\n 56256: a1 = 0x201b0\n 56261: i32 a1 = a1 + 0\n 56263: a0 = 0x1\n 56266: a2 = 0\n 56268: ecalli 11 // 'seal_return'\n 56270: jump @2057\n      : @1998 (gas: 6)\n 56273: a1 = 0x201b0\n 56278: i32 a1 = a1 + 0\n 56280: a0 = 0x1\n 56283: a2 = 0\n 56285: ecalli 11 // 'seal_return'\n 56287: jump @2057\n      : @1999 (gas: 6)\n 56290: a1 = 0x201b0\n 56295: i32 a1 = a1 + 0\n 56297: a0 = 0x1\n 56300: a2 = 0\n 56302: ecalli 11 // 'seal_return'\n 56304: jump @2057\n      : @2000 (gas: 6)\n 56307: a1 = 0x201b0\n 56312: i32 a1 = a1 + 0\n 56314: a0 = 0x1\n 56317: a2 = 0\n 56319: ecalli 11 // 'seal_return'\n 56321: jump @2057\n      : @2001 (gas: 6)\n 56324: a1 = 0x201b0\n 56329: i32 a1 = a1 + 0\n 56331: a0 = 0x1\n 56334: a2 = 0\n 56336: ecalli 11 // 'seal_return'\n 56338: jump @2057\n      : @2002 (gas: 6)\n 56341: a1 = 0x201b0\n 56346: i32 a1 = a1 + 0\n 56348: a0 = 0x1\n 56351: a2 = 0\n 56353: ecalli 11 // 'seal_return'\n 56355: jump @2057\n      : @2003 (gas: 6)\n 56358: a1 = 0x201b0\n 56363: i32 a1 = a1 + 0\n 56365: a0 = 0x1\n 56368: a2 = 0\n 56370: ecalli 11 // 'seal_return'\n 56372: jump @2057\n      : @2004 (gas: 6)\n 56375: a1 = 0x201b0\n 56380: i32 a1 = a1 + 0\n 56382: a0 = 0x1\n 56385: a2 = 0\n 56387: ecalli 11 // 'seal_return'\n 56389: jump @2057\n      : @2005 (gas: 6)\n 56392: a1 = 0x201b0\n 56397: i32 a1 = a1 + 0\n 56399: a0 = 0x1\n 56402: a2 = 0\n 56404: ecalli 11 // 'seal_return'\n 56406: jump @2057\n      : @2006 (gas: 6)\n 56409: a1 = 0x201b0\n 56414: i32 a1 = a1 + 0\n 56416: a0 = 0x1\n 56419: a2 = 0\n 56421: ecalli 11 // 'seal_return'\n 56423: jump @2057\n      : @2007 (gas: 6)\n 56426: a1 = 0x201b0\n 56431: i32 a1 = a1 + 0\n 56433: a0 = 0x1\n 56436: a2 = 0\n 56438: ecalli 11 // 'seal_return'\n 56440: jump @2057\n      : @2008 (gas: 6)\n 56443: a1 = 0x201b0\n 56448: i32 a1 = a1 + 0\n 56450: a0 = 0x1\n 56453: a2 = 0\n 56455: ecalli 11 // 'seal_return'\n 56457: jump @2057\n      : @2009 (gas: 6)\n 56460: a1 = 0x201b0\n 56465: i32 a1 = a1 + 0\n 56467: a0 = 0x1\n 56470: a2 = 0\n 56472: ecalli 11 // 'seal_return'\n 56474: jump @2057\n      : @2010 (gas: 6)\n 56477: a1 = 0x201b0\n 56482: i32 a1 = a1 + 0\n 56484: a0 = 0x1\n 56487: a2 = 0\n 56489: ecalli 11 // 'seal_return'\n 56491: jump @2057\n      : @2011 (gas: 6)\n 56494: a1 = 0x201b0\n 56499: i32 a1 = a1 + 0\n 56501: a0 = 0x1\n 56504: a2 = 0\n 56506: ecalli 11 // 'seal_return'\n 56508: jump @2057\n      : @2012 (gas: 6)\n 56511: a1 = 0x201b0\n 56516: i32 a1 = a1 + 0\n 56518: a0 = 0x1\n 56521: a2 = 0\n 56523: ecalli 11 // 'seal_return'\n 56525: jump @2057\n      : @2013 (gas: 6)\n 56528: a1 = 0x201b0\n 56533: i32 a1 = a1 + 0\n 56535: a0 = 0x1\n 56538: a2 = 0\n 56540: ecalli 11 // 'seal_return'\n 56542: jump @2057\n      : @2014 (gas: 6)\n 56545: a1 = 0x201b0\n 56550: i32 a1 = a1 + 0\n 56552: a0 = 0x1\n 56555: a2 = 0\n 56557: ecalli 11 // 'seal_return'\n 56559: jump @2057\n      : @2015 (gas: 6)\n 56562: a1 = 0x201b0\n 56567: i32 a1 = a1 + 0\n 56569: a0 = 0x1\n 56572: a2 = 0\n 56574: ecalli 11 // 'seal_return'\n 56576: jump @2057\n      : @2016 (gas: 6)\n 56579: a1 = 0x201b0\n 56584: i32 a1 = a1 + 0\n 56586: a0 = 0x1\n 56589: a2 = 0\n 56591: ecalli 11 // 'seal_return'\n 56593: jump @2057\n      : @2017 (gas: 6)\n 56596: a1 = 0x201b0\n 56601: i32 a1 = a1 + 0\n 56603: a0 = 0x1\n 56606: a2 = 0\n 56608: ecalli 11 // 'seal_return'\n 56610: jump @2057\n      : @2018 (gas: 6)\n 56613: a1 = 0x201b0\n 56618: i32 a1 = a1 + 0\n 56620: a0 = 0x1\n 56623: a2 = 0\n 56625: ecalli 11 // 'seal_return'\n 56627: jump @2057\n      : @2019 (gas: 6)\n 56630: a1 = 0x201b0\n 56635: i32 a1 = a1 + 0\n 56637: a0 = 0x1\n 56640: a2 = 0\n 56642: ecalli 11 // 'seal_return'\n 56644: jump @2057\n      : @2020 (gas: 6)\n 56647: a1 = 0x201b0\n 56652: i32 a1 = a1 + 0\n 56654: a0 = 0x1\n 56657: a2 = 0\n 56659: ecalli 11 // 'seal_return'\n 56661: jump @2057\n      : @2021 (gas: 6)\n 56664: a1 = 0x201b0\n 56669: i32 a1 = a1 + 0\n 56671: a0 = 0x1\n 56674: a2 = 0\n 56676: ecalli 11 // 'seal_return'\n 56678: jump @2057\n      : @2022 (gas: 6)\n 56681: a1 = 0x201b0\n 56686: i32 a1 = a1 + 0\n 56688: a0 = 0x1\n 56691: a2 = 0\n 56693: ecalli 11 // 'seal_return'\n 56695: jump @2057\n      : @2023 (gas: 6)\n 56698: a1 = 0x201b0\n 56703: i32 a1 = a1 + 0\n 56705: a0 = 0x1\n 56708: a2 = 0\n 56710: ecalli 11 // 'seal_return'\n 56712: jump @2057\n      : @2024 (gas: 6)\n 56715: a1 = 0x201b0\n 56720: i32 a1 = a1 + 0\n 56722: a0 = 0x1\n 56725: a2 = 0\n 56727: ecalli 11 // 'seal_return'\n 56729: jump @2057\n      : @2025 (gas: 9)\n 56732: u64 [a3 + 408] = 0\n 56736: u64 [a3 + 400] = 0\n 56740: u64 [a3 + 392] = 0\n 56744: a0 = 0xfb8f41b200000000\n 56754: a1 = s1 + 0x7ff\n 56758: a1 = a1 + 0x2a1\n 56762: u64 [a3 + 0x1a0] = a0\n 56766: a0 = 0\n 56768: ra = 2106, jump @19\n      : @2026 [@dyn 1053] (gas: 6)\n 56775: a0 = u64 [s1 + 0x120]\n 56779: ra = 0x83c\n 56783: ecalli 4 // 'caller'\n 56785: a2 = u64 [s1 + 0x150]\n 56789: t0 = 0x83e\n 56793: jump @2338\n      : @2027 [@dyn 1054] (gas: 2)\n 56796: a2 = u64 [s1 + 0x150]\n 56800: t0 = 2110, jump @2338\n      : @2028 [@dyn 1055] (gas: 9)\n 56806: u64 [a2 + 384] = 0\n 56810: a4 = a2 + 0x100\n 56814: u64 [a4 + 0x78] = a1\n 56817: u64 [a4 + 0x70] = a0\n 56820: a0 = 0x4\n 56823: a1 = s1 + 0x7ff\n 56827: a1 = a1 + 0x281\n 56831: u64 [a4 + 0x68] = a3\n 56834: ra = 2112, jump @19\n      : @2029 [@dyn 1056] (gas: 15)\n 56841: a3 = s1 + 0x7ff\n 56845: a3 = a3 + 0x119\n 56849: a0 = u64 [s1 + 0x100]\n 56853: a4 = a3 + 0x100\n 56857: u64 [a4 + 0x60] = a0\n 56860: a0 = u64 [s1 + 0xf8]\n 56864: u64 [a4 + 0x58] = a0\n 56867: a0 = u64 [s1 + 0x108]\n 56871: u64 [a4 + 0x50] = a0\n 56874: a0 = 0x24\n 56877: a1 = s1 + 0x7ff\n 56881: a1 = a1 + 0x261\n 56885: a2 = u64 [s1 + 0x110]\n 56889: u64 [a4 + 0x48] = a2\n 56892: ra = 2114, jump @19\n      : @2030 [@dyn 1057] (gas: 16)\n 56899: a0 = u64 [s1 + 0x188]\n 56903: a1 = s1 + 0x7ff\n 56907: a1 = a1 + 0x119\n 56911: a2 = a1 + 0x100\n 56915: u64 [a2 + 0x40] = a0\n 56918: a0 = u64 [s1 + 0x178]\n 56922: u64 [a2 + 0x38] = a0\n 56925: a0 = u64 [s1 + 0x168]\n 56929: u64 [a2 + 0x30] = a0\n 56932: a3 = a1\n 56934: a0 = 0x44\n 56937: a1 = s1 + 0x7ff\n 56941: a1 = a1 + 0x241\n 56945: a2 = u64 [s1 + 0x170]\n 56949: u64 [a3 + 0x128] = a2\n 56953: ra = 2116, jump @19\n      : @2031 [@dyn 1058] (gas: 3)\n 56960: a0 = u64 [s1 + 0x160]\n 56964: a0 = i32 [a0]\n 56966: jump @2033 if a0 >u 127\n      : @2032 (gas: 5)\n 56970: a1 = u64 [s1 + 0x160]\n 56974: u32 [a1 + 0] = 0x80\n 56978: a0 = 0x1\n 56981: a2 = 0x64\n 56984: jump @2041\n      : @2033 (gas: 8)\n 56987: a0 = 0x1\n 56990: a2 = 0x64\n 56993: a1 = u64 [s1 + 0x180]\n 56997: ra = 0x84c\n 57001: ecalli 11 // 'seal_return'\n 57003: a0 = 0x4000\n 57007: t0 = 0x84e\n 57011: jump @2390\n      : @2034 (gas: 12)\n 57014: a0 = s1 + 0x7ff\n 57018: a0 = a0 + 0x119\n 57022: u64 [a0 + 472] = 0\n 57026: u64 [a0 + 464] = 0\n 57030: u64 [a0 + 456] = 0\n 57034: a2 = a0\n 57036: a0 = 0xe602df0500000000\n 57046: a1 = s1 + 0x7ff\n 57050: a1 = a1 + 0x2e1\n 57054: u64 [a2 + 0x1e0] = a0\n 57058: a0 = 0\n 57060: ra = 2118, jump @19\n      : @2035 [@dyn 1059] (gas: 12)\n 57067: a0 = s1 + 0x7ff\n 57071: a0 = a0 + 0x119\n 57075: u64 [a0 + 448] = 0\n 57079: u64 [a0 + 440] = 0\n 57083: u64 [a0 + 432] = 0\n 57087: a2 = a0\n 57089: a0 = 0x4\n 57092: a1 = s1 + 0x7ff\n 57096: a1 = a1 + 0x2c1\n 57100: u64 [a2 + 424] = 0\n 57104: ra = 0x84a\n 57108: jump @19\n      : @2036 (gas: 12)\n 57112: a0 = s1 + 0x7ff\n 57116: a0 = a0 + 0x119\n 57120: u64 [a0 + 536] = 0\n 57124: u64 [a0 + 528] = 0\n 57128: u64 [a0 + 520] = 0\n 57132: a2 = a0\n 57134: a0 = 0x94280d6200000000\n 57144: a1 = s1 + 0x7ff\n 57148: a1 = a1 + 0x321\n 57152: u64 [a2 + 0x220] = a0\n 57156: a0 = 0\n 57158: ra = 2120, jump @19\n      : @2037 [@dyn 1060] (gas: 11)\n 57165: a0 = s1 + 0x7ff\n 57169: a0 = a0 + 0x119\n 57173: u64 [a0 + 512] = 0\n 57177: u64 [a0 + 504] = 0\n 57181: u64 [a0 + 496] = 0\n 57185: a2 = a0\n 57187: a0 = 0x4\n 57190: a1 = s1 + 0x7ff\n 57194: a1 = a1 + 0x301\n 57198: u64 [a2 + 488] = 0\n 57202: ra = 2122, jump @19\n      : @2038 [@dyn 1061] (gas: 3)\n 57209: a0 = u64 [s1 + 0x160]\n 57213: a0 = i32 [a0]\n 57215: jump @2040 if a0 >u 63\n      : @2039 (gas: 5)\n 57219: a1 = u64 [s1 + 0x160]\n 57223: u32 [a1 + 0] = 0x40\n 57226: a0 = 0x1\n 57229: a2 = 0x24\n 57232: jump @2041\n      : @2040 (gas: 8)\n 57234: a0 = 0x1\n 57237: a2 = 0x24\n 57240: a1 = u64 [s1 + 0x180]\n 57244: ra = 0x84c\n 57248: ecalli 11 // 'seal_return'\n 57250: a0 = 0x4000\n 57254: t0 = 0x84e\n 57258: jump @2390\n      : @2041 (gas: 6)\n 57261: a1 = u64 [s1 + 0x180]\n 57265: ra = 0x84c\n 57269: ecalli 11 // 'seal_return'\n 57271: a0 = 0x4000\n 57275: t0 = 0x84e\n 57279: jump @2390\n      : @2042 [@dyn 1062] (gas: 2)\n 57282: a0 = 0x4000\n 57286: t0 = 2126, jump @2390\n      : @2043 [@dyn 1063] (gas: 4)\n 57292: a1 = s1 + 0x3f00\n 57296: u64 [a2 + 0x600] = a0\n 57300: a0 = 0\n 57302: ra = 2128, jump @19\n      : @2044 [@dyn 1064] (gas: 3)\n 57309: t0 = 0x852\n 57313: a1 = s1 + 0x3918\n 57317: fallthrough\n      : @2045 [@dyn 1065] (gas: 8)\n 57318: u64 [a1 + 1504] = 0\n 57322: u64 [a1 + 1496] = 0\n 57326: u64 [a1 + 1480] = 0x11\n 57331: a2 = a1\n 57333: a0 = 0x4\n 57336: a1 = s1 + 0x3ee0\n 57340: u64 [a2 + 1488] = 0\n 57344: ra = 2132, jump @19\n      : @2046 [@dyn 1066] (gas: 2)\n 57351: a1 = i32 [0x2019c]\n 57356: jump @2048 if a1 >u 63\n      : @2047 (gas: 3)\n 57360: u32 [0x2019c] = 0x40\n 57366: a1 = 0x201b0\n 57371: jump @2070\n      : @2048 (gas: 2)\n 57374: a1 = 0x201b0\n 57379: jump @2070\n      : @2049 (gas: 1)\n 57382: jump @2055 if a0 != 1901074598\n      : @2050 (gas: 11)\n 57389: a0 = s1 + 0x4918\n 57393: u64 [a0 + 288] = 0\n 57397: u64 [a0 + 280] = 0\n 57401: u64 [a0 + 272] = 0\n 57405: u64 [a0 + 264] = 0\n 57409: a0 = s1 + 0x5000\n 57413: i32 a0 = a0 + 0xfffffffffffffa20\n 57417: ra = 0x856\n 57421: ecalli 14 // 'value_transferred'\n 57423: t0 = 0x858\n 57427: jump @2448\n      : @2051 [@dyn 1067] (gas: 1)\n 57430: t0 = 2136, jump @2448\n      : @2052 [@dyn 1068] (gas: 1)\n 57436: t0 = 2138, jump @2402\n      : @2053 [@dyn 1069] (gas: 1)\n 57442: jump @2085 if a0 == 0\n      : @2054 (gas: 6)\n 57446: a1 = 0x201b0\n 57451: i32 a1 = a1 + 0\n 57453: a0 = 0x1\n 57456: a2 = 0\n 57458: ecalli 11 // 'seal_return'\n 57460: jump @2057\n      : @2055 (gas: 6)\n 57462: a1 = 0x201b0\n 57467: i32 a1 = a1 + 0\n 57469: a0 = 0x1\n 57472: a2 = 0\n 57474: ecalli 11 // 'seal_return'\n 57476: jump @2057\n      : @2056 (gas: 5)\n 57478: i32 a1 = a1 + 0\n 57480: a0 = 0x1\n 57483: a2 = 0\n 57485: ecalli 11 // 'seal_return'\n 57487: fallthrough\n      : @2057 (gas: 6)\n 57488: u64 [s1 + 1968] = 0\n 57492: u64 [s1 + 1960] = 0\n 57496: u64 [s1 + 1952] = 0\n 57500: t0 = 0x85c\n 57504: a0 = 0x4e487b7100000000\n 57514: fallthrough\n      : @2058 [@dyn 1070] (gas: 4)\n 57515: a1 = s1 + 0x7a0\n 57519: u64 [s1 + 0x7b8] = a0\n 57523: a0 = 0\n 57525: ra = 2142, jump @19\n      : @2059 [@dyn 1071] (gas: 7)\n 57532: u64 [s1 + 1944] = 0\n 57536: u64 [s1 + 1936] = 0\n 57540: u64 [s1 + 1920] = 0x11\n 57545: a0 = 0x4\n 57548: a1 = s1 + 0x780\n 57552: u64 [s1 + 1928] = 0\n 57556: ra = 2144, jump @19\n      : @2060 [@dyn 1072] (gas: 3)\n 57563: a0 = u64 [s1 + 0x180]\n 57567: a0 = i32 [a0]\n 57569: jump @2062 if a0 >u 63\n      : @2061 (gas: 3)\n 57573: a1 = u64 [s1 + 0x180]\n 57577: u32 [a1 + 0] = 0x40\n 57580: fallthrough\n      : @2062 (gas: 6)\n 57581: a0 = 0x1\n 57584: a2 = 0x24\n 57587: a1 = u64 [s1 + 0x188]\n 57591: ra = 0x862\n 57595: ecalli 11 // 'seal_return'\n 57597: fallthrough\n      : @2063 [@dyn 1073] (gas: 5)\n 57598: a0 = s1 + 0x2118\n 57602: u64 [a0 + 1944] = 0\n 57606: u64 [a0 + 1936] = 0\n 57610: u64 [a0 + 1928] = 0\n 57614: t0 = 2148, jump @2368\n      : @2064 [@dyn 1074] (gas: 5)\n 57620: i32 a1 = a1 + 0xfffffffffffff8a0\n 57624: a1 = a1 + s1\n 57627: u64 [a2 + 0x7a0] = a0\n 57631: a0 = 0\n 57633: ra = 2150, jump @19\n      : @2065 [@dyn 1075] (gas: 3)\n 57640: t0 = 0x868\n 57644: a1 = s1 + 0x2118\n 57648: fallthrough\n      : @2066 [@dyn 1076] (gas: 8)\n 57649: u64 [a1 + 1920] = 0\n 57653: u64 [a1 + 1912] = 0\n 57657: u64 [a1 + 1896] = 0x11\n 57662: a2 = a1\n 57664: a0 = 0x4\n 57667: a1 = s1 + 0x2880\n 57671: u64 [a2 + 1904] = 0\n 57675: ra = 2154, jump @19\n      : @2067 [@dyn 1077] (gas: 2)\n 57682: a1 = i32 [0x2019c]\n 57687: jump @2069 if a1 >u 63\n      : @2068 (gas: 3)\n 57691: u32 [0x2019c] = 0x40\n 57697: a1 = 0x201b0\n 57702: jump @2070\n      : @2069 (gas: 2)\n 57704: a1 = 0x201b0\n 57709: fallthrough\n      : @2070 (gas: 6)\n 57710: i32 a1 = a1 + 0\n 57712: a0 = 0x1\n 57715: a2 = 0x24\n 57718: ra = 0x86c\n 57722: ecalli 11 // 'seal_return'\n 57724: fallthrough\n      : @2071 [@dyn 1078] (gas: 5)\n 57725: a0 = s1 + 0x2918\n 57729: u64 [a0 + 280] = 0\n 57733: u64 [a0 + 272] = 0\n 57737: u64 [a0 + 264] = 0\n 57741: t0 = 2158, jump @2368\n      : @2072 [@dyn 1079] (gas: 5)\n 57747: i32 a1 = a1 + 0xfffffffffffffa20\n 57751: a1 = a1 + s1\n 57754: u64 [a2 + 0x120] = a0\n 57758: a0 = 0\n 57760: ra = 2160, jump @19\n      : @2073 [@dyn 1080] (gas: 3)\n 57767: t0 = 0x872\n 57771: a1 = s1 + 0x2918\n 57775: fallthrough\n      : @2074 [@dyn 1081] (gas: 9)\n 57776: u64 [a1 + 256] = 0\n 57780: u64 [a1 + 248] = 0\n 57784: u64 [a1 + 232] = 0x11\n 57789: a2 = a1\n 57791: a0 = 0x4\n 57794: a1 = s1 + 0x2a00\n 57798: u64 [a2 + 240] = 0\n 57802: ra = 0x87a\n 57806: jump @19\n      : @2075 (gas: 5)\n 57810: a0 = s1 + 0x2918\n 57814: u64 [a0 + 344] = 0\n 57818: u64 [a0 + 336] = 0\n 57822: u64 [a0 + 328] = 0\n 57826: t0 = 2164, jump @2368\n      : @2076 [@dyn 1082] (gas: 5)\n 57832: i32 a1 = a1 + 0xfffffffffffffa60\n 57836: a1 = a1 + s1\n 57839: u64 [a2 + 0x160] = a0\n 57843: a0 = 0\n 57845: ra = 2166, jump @19\n      : @2077 [@dyn 1083] (gas: 3)\n 57852: t0 = 0x878\n 57856: a1 = s1 + 0x2918\n 57860: fallthrough\n      : @2078 [@dyn 1084] (gas: 8)\n 57861: u64 [a1 + 320] = 0\n 57865: u64 [a1 + 312] = 0\n 57869: u64 [a1 + 296] = 0x11\n 57874: a2 = a1\n 57876: a0 = 0x4\n 57879: a1 = s1 + 0x2a40\n 57883: u64 [a2 + 304] = 0\n 57887: ra = 2170, jump @19\n      : @2079 [@dyn 1085] (gas: 3)\n 57894: a0 = u64 [s1 + 0x110]\n 57898: a0 = i32 [a0]\n 57900: jump @2081 if a0 >u 63\n      : @2080 (gas: 3)\n 57904: a1 = u64 [s1 + 0x110]\n 57908: u32 [a1 + 0] = 0x40\n 57911: fallthrough\n      : @2081 (gas: 7)\n 57912: a0 = 0x1\n 57915: a2 = 0x24\n 57918: a1 = u64 [s1 + 0xd8]\n 57922: ra = 0x87c\n 57926: ecalli 11 // 'seal_return'\n 57928: t0 = 0x87e\n 57932: jump @2389\n      : @2082 [@dyn 1086] (gas: 1)\n 57935: t0 = 2174, jump @2389\n      : @2083 [@dyn 1087] (gas: 1)\n 57941: jump @2087 if a1 <u a0\n      : @2084 (gas: 2)\n 57944: a1 = 0x201b0\n 57949: jump @2056\n      : @2085 (gas: 3)\n 57952: a0 = u64 [s1 + 0x198]\n 57956: a0 = i32 [a0]\n 57958: jump @2110 if a0 >u 3\n      : @2086 (gas: 2)\n 57963: a1 = 0x201b0\n 57968: jump @2056\n      : @2087 (gas: 4)\n 57971: a0 = s1 + 0x4000\n 57975: ra = 0x880\n 57979: t0 = 0x8ba\n 57983: jump @2444\n      : @2088 [@dyn 1088] (gas: 8)\n 57986: a0 = s1 + 0x3918\n 57990: a1 = u64 [a0 + 0x6f0]\n 57994: u64 [s1 + 0x190] = a1\n 57998: a1 = u64 [a0 + 0x6e8]\n 58002: u64 [s1 + 0x198] = a1\n 58006: a0 = u32 [a0 + 0x6f8]\n 58010: u64 [s1 + 0x188] = a0\n 58014: ra = 2178, jump @2298\n      : @2089 [@dyn 1089] (gas: 7)\n 58020: a2 = s1 + 0x100\n 58024: a0 = u64 [a2 + 0x98]\n 58028: a1 = u64 [a2 + 0x88]\n 58032: a0 = a0 | a1\n 58035: a1 = u64 [a2 + 0x90]\n 58039: a0 = a0 | a1\n 58042: jump @2115 if a0 == 0\n      : @2090 (gas: 10)\n 58046: a0 = 0xffffffff\n 58056: u64 [s1 + 0x180] = a0\n 58060: a0 = s1 + 0x5118\n 58064: u64 [a0 + 1024] = 0\n 58068: u64 [a0 + 1016] = 0\n 58072: u64 [a0 + 1008] = 0\n 58076: u64 [a0 + 1000] = 0x5\n 58081: a0 = s1 + 0x3fe0\n 58085: a1 = s1 + 0x5500\n 58089: ra = 2180, jump @21\n      : @2091 [@dyn 1090] (gas: 28)\n 58096: a1 = s1 + 0x3918\n 58100: a3 = a1 + 0x600\n 58104: a0 = u64 [a3 + 0xd0]\n 58108: u64 [s1 + 0x178] = a0\n 58112: a0 = u64 [a3 + 0xe0]\n 58116: a2 = u64 [a3 + 0xd8]\n 58120: u64 [s1 + 0x168] = a2\n 58124: a1 = u64 [a3 + 0xc8]\n 58128: u64 [s1 + 0x170] = a1\n 58132: a1 = s1 + 0x5118\n 58136: a4 = a1 + 0x400\n 58140: u64 [a4 + 8] = 0x5\n 58144: u64 [a4 + 0x40] = a0\n 58147: a0 = a2 >> 0x20\n 58150: a0 = a0 << 0x20\n 58153: a2 = u64 [s1 + 0x188]\n 58157: a0 = a0 | a2\n 58160: u64 [a4 + 0x38] = a0\n 58163: u64 [a1 + 1056] = 0\n 58167: u64 [a1 + 1048] = 0\n 58171: u64 [a1 + 1040] = 0\n 58175: a0 = u64 [s1 + 0x190]\n 58179: u64 [a4 + 0x30] = a0\n 58182: a0 = u64 [s1 + 0x198]\n 58186: u64 [a4 + 0x28] = a0\n 58189: a0 = s1 + 0x5520\n 58193: a1 = s1 + 0x5540\n 58197: ra = 2182, jump @25\n      : @2092 [@dyn 1091] (gas: 36)\n 58204: a5 = s1 + 0x100\n 58208: a0 = u64 [a5 + 0x70]\n 58211: a0 = a0 & 0xffffffffffffffff\n 58214: a2 = u64 [a5 + 0x78]\n 58217: a1 = a2 & 0xffffffffffffffff\n 58220: a2 = u64 [a5 + 0x80]\n 58224: a3 = u64 [a5 + 0x68]\n 58227: a2 = a2 & a3\n 58230: a4 = s1 + 0x3918\n 58234: u64 [a4 + 1664] = 0\n 58238: a3 = u64 [a5 + 0x88]\n 58242: u64 [a4 + 0x678] = a3\n 58246: a3 = u64 [a5 + 0x90]\n 58250: u64 [a4 + 0x670] = a3\n 58254: a3 = u64 [a5 + 0x98]\n 58258: a5 = a4 + 0x600\n 58262: u64 [a5 + 0x68] = a3\n 58265: u64 [a4 + 1696] = 0\n 58269: u64 [a5 + 0x98] = a2\n 58273: u64 [a5 + 0x90] = a1\n 58277: a1 = u64 [0x20030]\n 58282: a2 = u64 [0x20038]\n 58287: a3 = u64 [0x20040]\n 58292: u64 [a5 + 0x88] = a0\n 58296: u64 [a5 + 0xc0] = a1\n 58300: u64 [a5 + 0xb8] = a2\n 58304: u64 [a5 + 0xb0] = a3\n 58308: a1 = a4\n 58310: a0 = u64 [0x20048]\n 58315: a2 = s1 + 0x3fc0\n 58319: a3 = s1 + 0x3fa0\n 58323: a4 = s1 + 0x3f80\n 58327: u64 [a1 + 0x6a8] = a0\n 58331: a0 = 0\n 58333: a1 = 0\n 58335: ra = 2184, jump @28\n      : @2093 [@dyn 1092] (gas: 6)\n 58342: a1 = 0x201b0\n 58347: i32 a1 = a1 + 0\n 58349: a0 = 0\n 58351: a2 = 0\n 58353: ecalli 11 // 'seal_return'\n 58355: jump @2057\n      : @2094 (gas: 5)\n 58358: a0 = s1 + 0x2918\n 58362: u64 [a0 + 408] = 0\n 58366: u64 [a0 + 400] = 0\n 58370: u64 [a0 + 392] = 0\n 58374: t0 = 2186, jump @2368\n      : @2095 [@dyn 1093] (gas: 5)\n 58380: i32 a1 = a1 + 0xfffffffffffffaa0\n 58384: a1 = a1 + s1\n 58387: u64 [a2 + 0x1a0] = a0\n 58391: a0 = 0\n 58393: ra = 2188, jump @19\n      : @2096 [@dyn 1094] (gas: 3)\n 58400: t0 = 0x88e\n 58404: a1 = s1 + 0x2918\n 58408: fallthrough\n      : @2097 [@dyn 1095] (gas: 9)\n 58409: u64 [a1 + 384] = 0\n 58413: u64 [a1 + 376] = 0\n 58417: u64 [a1 + 360] = 0x41\n 58422: a2 = a1\n 58424: a0 = 0x4\n 58427: a1 = s1 + 0x2a80\n 58431: u64 [a2 + 368] = 0\n 58435: ra = 0x87a\n 58439: jump @19\n      : @2098 (gas: 5)\n 58443: a0 = s1 + 0x2918\n 58447: u64 [a0 + 1496] = 0\n 58451: u64 [a0 + 1488] = 0\n 58455: u64 [a0 + 1480] = 0\n 58459: t0 = 2192, jump @2368\n      : @2099 [@dyn 1096] (gas: 5)\n 58465: i32 a1 = a1 + 0xfffffffffffffee0\n 58469: a1 = a1 + s1\n 58472: u64 [a2 + 0x5e0] = a0\n 58476: a0 = 0\n 58478: ra = 2194, jump @19\n      : @2100 [@dyn 1097] (gas: 10)\n 58485: a0 = s1 + 0x2918\n 58489: u64 [a0 + 1472] = 0\n 58493: u64 [a0 + 1464] = 0\n 58497: u64 [a0 + 1456] = 0\n 58501: a2 = a0\n 58503: a0 = 0x4\n 58506: a1 = s1 + 0x2ec0\n 58510: u64 [a2 + 1448] = 0\n 58514: ra = 0x87a\n 58518: jump @19\n      : @2101 (gas: 5)\n 58522: a0 = s1 + 0x2918\n 58526: u64 [a0 + 472] = 0\n 58530: u64 [a0 + 464] = 0\n 58534: u64 [a0 + 456] = 0\n 58538: t0 = 2196, jump @2368\n      : @2102 [@dyn 1098] (gas: 5)\n 58544: i32 a1 = a1 + 0xfffffffffffffae0\n 58548: a1 = a1 + s1\n 58551: u64 [a2 + 0x1e0] = a0\n 58555: a0 = 0\n 58557: ra = 2198, jump @19\n      : @2103 [@dyn 1099] (gas: 3)\n 58564: t0 = 0x898\n 58568: a1 = s1 + 0x2918\n 58572: fallthrough\n      : @2104 [@dyn 1100] (gas: 9)\n 58573: u64 [a1 + 448] = 0\n 58577: u64 [a1 + 440] = 0\n 58581: u64 [a1 + 424] = 0x41\n 58586: a2 = a1\n 58588: a0 = 0x4\n 58591: a1 = s1 + 0x2ac0\n 58595: u64 [a2 + 432] = 0\n 58599: ra = 0x87a\n 58603: jump @19\n      : @2105 (gas: 16)\n 58607: a0 = s1 + 0x5118\n 58611: a5 = a0 + 0x100\n 58615: a2 = u64 [a5 + 0x8]\n 58618: a1 = u64 [a5 + 0x10]\n 58621: a3 = u64 [a5 + 0x18]\n 58624: a4 = u64 [a5 + 0x20]\n 58627: a0 = u64 [s1 + 0x198]\n 58631: i32 a0 = a0 + 0x20\n 58634: a5 = s1 + 0x2918\n 58638: u64 [a5 + 0x260] = a4\n 58642: a4 = a5 + 0x200\n 58646: u64 [a4 + 0x58] = a3\n 58649: u64 [a4 + 0x50] = a1\n 58652: a1 = s1 + 0x2b60\n 58656: u64 [a4 + 0x48] = a2\n 58659: ra = 2202, jump @19\n      : @2106 [@dyn 1101] (gas: 6)\n 58666: a0 = u64 [s1 + 0xe0]\n 58670: ra = 0x89c\n 58674: ecalli 4 // 'caller'\n 58676: a2 = u64 [s1 + 0x108]\n 58680: t0 = 0x89e\n 58684: jump @2359\n      : @2107 [@dyn 1102] (gas: 2)\n 58687: a2 = u64 [s1 + 0x108]\n 58691: t0 = 2206, jump @2359\n      : @2108 [@dyn 1103] (gas: 25)\n 58697: t0 = a1 | a0\n 58700: a3 = a3 >> 0x20\n 58703: a2 = reverse a2\n 58705: a1 = a2 << 0x20\n 58708: a1 = a1 | a3\n 58711: a2 = a2 >> 0x20\n 58714: a3 = u64 [0x200b0]\n 58719: a0 = s1 + 0x2918\n 58723: u64 [a0 + 0x240] = a3\n 58727: a3 = u64 [0x200b8]\n 58732: a4 = u64 [0x200c0]\n 58737: a5 = u64 [0x200c8]\n 58742: u64 [a0 + 0x238] = a3\n 58746: a3 = a0 + 0x200\n 58750: u64 [a3 + 0x30] = a4\n 58753: u64 [a0 + 544] = 0\n 58757: u64 [a3 + 0x28] = a5\n 58760: u64 [a3 + 0x18] = a2\n 58763: u64 [a3 + 0x10] = a1\n 58766: a1 = 0x40\n 58769: a2 = s1 + 0x2b40\n 58773: a3 = s1 + 0x2b20\n 58777: u64 [a0 + 0x208] = t0\n 58781: a0 = u64 [s1 + 0x198]\n 58785: ra = 2208, jump @26\n      : @2109 [@dyn 1104] (gas: 5)\n 58792: a0 = 0\n 58794: a1 = u64 [s1 + 0xd8]\n 58798: a2 = 0\n 58800: ecalli 11 // 'seal_return'\n 58802: jump @2057\n      : @2110 (gas: 1)\n 58805: ra = 2210, jump @2298\n      : @2111 [@dyn 1105] (gas: 8)\n 58811: a1 = s1 + 0x4918\n 58815: u64 [a1 + 320] = 0\n 58819: u64 [a1 + 312] = 0\n 58823: u64 [a1 + 304] = 0\n 58827: u64 [a1 + 296] = 0x5\n 58832: a0 = s1 + 0x1580\n 58836: a1 = s1 + 0x4a40\n 58840: ra = 2212, jump @21\n      : @2112 [@dyn 1106] (gas: 24)\n 58847: a1 = s1 + 0x1118\n 58851: a3 = a1 + 0x400\n 58855: a2 = u64 [a3 + 0x78]\n 58858: u64 [s1 + 0x188] = a2\n 58862: a0 = u64 [a3 + 0x68]\n 58865: u64 [s1 + 0x198] = a0\n 58869: a0 = u64 [a3 + 0x70]\n 58872: u64 [s1 + 0x190] = a0\n 58876: a0 = u64 [a3 + 0x80]\n 58880: a1 = a2 >> 0x20\n 58883: a1 = a1 << 0x20\n 58886: a2 = s1 + 0x4918\n 58890: u64 [a2 + 352] = 0\n 58894: u64 [a2 + 344] = 0\n 58898: u64 [a2 + 336] = 0\n 58902: a4 = a2 + 0x100\n 58906: u64 [a4 + 72] = 0x5\n 58910: u64 [a2 + 368] = 0\n 58914: u64 [a2 + 360] = 0\n 58918: u64 [a4 + 0x80] = a0\n 58922: u64 [a4 + 0x78] = a1\n 58925: a0 = s1 + 0x4a60\n 58929: a1 = s1 + 0x4a80\n 58933: ra = 2214, jump @25\n      : @2113 [@dyn 1107] (gas: 31)\n 58940: a5 = s1 + 0x100\n 58944: a0 = u64 [a5 + 0x88]\n 58948: a0 = a0 << 0x20\n 58951: a0 = a0 >> 0x20\n 58954: a3 = s1 + 0x1118\n 58958: u64 [a3 + 1056] = 0\n 58962: u64 [a3 + 1048] = 0\n 58966: u64 [a3 + 1040] = 0\n 58970: u64 [a3 + 1032] = 0\n 58974: u64 [a3 + 1088] = 0\n 58978: u64 [a3 + 0x438] = a0\n 58982: a0 = u64 [a5 + 0x90]\n 58986: u64 [a3 + 0x430] = a0\n 58990: a0 = u64 [0x20030]\n 58995: a1 = u64 [0x20038]\n 59000: a2 = u64 [0x20040]\n 59005: a4 = u64 [a5 + 0x98]\n 59009: a5 = a3 + 0x400\n 59013: u64 [a5 + 0x28] = a4\n 59016: u64 [a5 + 0x60] = a0\n 59019: u64 [a5 + 0x58] = a1\n 59022: u64 [a5 + 0x50] = a2\n 59025: a1 = a3\n 59027: a0 = u64 [0x20048]\n 59032: a2 = s1 + 0x1560\n 59036: a3 = s1 + 0x1540\n 59040: a4 = s1 + 0x1520\n 59044: u64 [a1 + 0x448] = a0\n 59048: a0 = 0\n 59050: a1 = 0\n 59052: ra = 2216, jump @28\n      : @2114 [@dyn 1108] (gas: 6)\n 59059: a1 = 0x201b0\n 59064: i32 a1 = a1 + 0\n 59066: a0 = 0\n 59068: a2 = 0\n 59070: ecalli 11 // 'seal_return'\n 59072: jump @2057\n      : @2115 (gas: 10)\n 59075: a0 = s1 + 0x3918\n 59079: u64 [a0 + 1624] = 0\n 59083: u64 [a0 + 1616] = 0\n 59087: u64 [a0 + 1608] = 0\n 59091: a2 = a0\n 59093: a0 = 0x1e4fbdf700000000\n 59103: a1 = s1 + 0x3f60\n 59107: u64 [a2 + 0x660] = a0\n 59111: a0 = 0\n 59113: ra = 2218, jump @19\n      : @2116 [@dyn 1109] (gas: 9)\n 59120: a0 = s1 + 0x3918\n 59124: u64 [a0 + 1600] = 0\n 59128: u64 [a0 + 1592] = 0\n 59132: u64 [a0 + 1584] = 0\n 59136: a2 = a0\n 59138: a0 = 0x4\n 59141: a1 = s1 + 0x3f40\n 59145: u64 [a2 + 1576] = 0\n 59149: ra = 2220, jump @19\n      : @2117 [@dyn 1110] (gas: 2)\n 59156: a1 = i32 [0x2019c]\n 59161: jump @2119 if a1 >u 63\n      : @2118 (gas: 3)\n 59165: u32 [0x2019c] = 0x40\n 59171: a1 = 0x201b0\n 59176: jump @2070\n      : @2119 (gas: 2)\n 59179: a1 = 0x201b0\n 59184: jump @2070\n      : @2120 (gas: 21)\n 59187: sp = sp + 0xffffffffffffff10\n 59191: u64 [sp + 0xe8] = ra\n 59195: u64 [sp + 0xe0] = s0\n 59199: u64 [sp + 0xd8] = s1\n 59203: s0 = sp + 0xf0\n 59207: sp = sp & 0xfffffffffffffff0\n 59210: a5 = u64 [a1 + 0x10]\n 59213: a4 = u64 [a1 + 0x18]\n 59216: a3 = u64 [a1 + 0x8]\n 59219: a1 = u64 [a1]\n 59221: u64 [sp + 0x28] = a3\n 59224: u64 [sp + 0x18] = a4\n 59227: a4 = a4 | a3\n 59230: a3 = a1 | a5\n 59233: a3 = a3 | a4\n 59236: a3 = a3 >> 0x20\n 59239: u64 [sp + 0x20] = a5\n 59242: a4 = a4 | a5\n 59245: a4 = a4 << 0x20\n 59248: a3 = a3 | a4\n 59251: jump @2133 if a3 != 0\n      : @2121 (gas: 11)\n 59255: u64 [sp + 0x8] = a0\n 59258: a0 = u64 [a2 + 0x18]\n 59261: u64 [sp + 0x68] = a0\n 59264: s1 = u64 [a2 + 0x10]\n 59267: a0 = u64 [a2 + 0x8]\n 59270: u64 [sp + 0x60] = a0\n 59273: a0 = u64 [a2]\n 59275: u64 [sp + 0x58] = a0\n 59278: a0 = sp + 0xb0\n 59282: u64 [sp + 0x10] = a1\n 59285: ra = 2222, jump @17\n      : @2122 [@dyn 1111] (gas: 12)\n 59292: a0 = u64 [sp + 0x58]\n 59295: a2 = a0 | s1\n 59298: a1 = u64 [sp + 0x68]\n 59301: a3 = u64 [sp + 0x60]\n 59304: a1 = a1 | a3\n 59307: a2 = a2 | a1\n 59310: a2 = a2 >> 0x20\n 59313: u64 [sp + 0x50] = s1\n 59316: a1 = a1 | s1\n 59319: a1 = a1 << 0x20\n 59322: a1 = a1 | a2\n 59325: jump @2133 if a1 != 0\n      : @2123 (gas: 15)\n 59329: a2 = u64 [sp + 0xc8]\n 59333: a3 = u64 [sp + 0xc0]\n 59337: a4 = u64 [sp + 0xb8]\n 59341: a1 = u64 [sp + 0xb0]\n 59345: u64 [sp + 0x30] = a1\n 59348: u64 [sp + 0x90] = a1\n 59352: u64 [sp + 0x38] = a4\n 59355: u64 [sp + 0x98] = a4\n 59359: u64 [sp + 0x40] = a3\n 59362: u64 [sp + 0xa0] = a3\n 59366: a1 = sp + 0x90\n 59370: u64 [sp + 0x48] = a2\n 59373: u64 [sp + 0xa8] = a2\n 59377: s1 = a0\n 59379: ra = 2224, jump @19\n      : @2124 [@dyn 1112] (gas: 9)\n 59386: a0 = u64 [sp + 0x68]\n 59389: a1 = u64 [sp + 0x50]\n 59392: a1 = a1 | a0\n 59395: a0 = 0xffffffe0\n 59405: a2 = s1 <u a0\n 59408: a3 = u64 [sp + 0x60]\n 59411: a2 = 0 if a3 != 0\n 59413: a2 = 0 if a1 != 0\n 59415: jump @2133 if a2 == 0\n      : @2125 (gas: 9)\n 59419: a1 = u64 [sp + 0x20]\n 59422: a2 = u64 [sp + 0x18]\n 59425: a1 = a1 | a2\n 59428: a2 = u64 [sp + 0x10]\n 59431: a0 = a2 <u a0\n 59434: a3 = u64 [sp + 0x28]\n 59437: a0 = 0 if a3 != 0\n 59439: a0 = 0 if a1 != 0\n 59441: jump @2133 if a0 == 0\n      : @2126 (gas: 13)\n 59445: a5 = s1\n 59447: s1 = u64 [sp + 0x30]\n 59450: a3 = u64 [sp + 0x40]\n 59453: a0 = s1 | a3\n 59456: a1 = u64 [sp + 0x48]\n 59459: a4 = u64 [sp + 0x38]\n 59462: a1 = a1 | a4\n 59465: a0 = a0 | a1\n 59468: a0 = a0 >> 0x20\n 59471: a1 = a1 | a3\n 59474: a1 = a1 << 0x20\n 59477: a0 = a0 | a1\n 59480: jump @2133 if a0 != 0\n      : @2127 (gas: 5)\n 59484: i32 a0 = a5 + 0x20\n 59487: i32 a1 = a2 + 0x20\n 59490: u64 [sp + 0x28] = a1\n 59493: a1 = s1\n 59495: ra = 2226, jump @31\n      : @2128 [@dyn 1113] (gas: 4)\n 59502: u64 [sp + 0x20] = a0\n 59505: a0 = u64 [sp + 0x28]\n 59508: a1 = s1\n 59510: ra = 2228, jump @31\n      : @2129 [@dyn 1114] (gas: 4)\n 59517: a1 = a0\n 59519: a0 = u64 [sp + 0x20]\n 59522: a2 = s1\n 59524: ra = 2230, jump @0\n      : @2130 [@dyn 1115] (gas: 27)\n 59531: a0 = u64 [sp + 0x58]\n 59534: a0 = a0 + s1\n 59537: a1 = a0 <u s1\n 59540: a2 = u64 [sp + 0x60]\n 59543: a4 = u64 [sp + 0x38]\n 59546: a2 = a2 + a4\n 59549: a2 = a2 + a1\n 59552: a3 = a2 ^ a4\n 59555: a4 = a2 <u a4\n 59558: a4 = a1 if a3 == 0\n 59561: a1 = u64 [sp + 0x50]\n 59564: a3 = u64 [sp + 0x40]\n 59567: a1 = a1 + a3\n 59570: a3 = a1 <u a3\n 59573: a5 = u64 [sp + 0x68]\n 59576: s1 = u64 [sp + 0x48]\n 59579: a5 = a5 + s1\n 59582: a3 = a3 + a5\n 59585: a4 = a4 + a1\n 59588: a1 = a4 <u a1\n 59591: a1 = a1 + a3\n 59594: a1 = a1 | a4\n 59597: a3 = 0xffffffe0\n 59607: a3 = a0 <u a3\n 59610: a3 = 0 if a2 != 0\n 59612: a3 = 0 if a1 != 0\n 59614: jump @2133 if a3 == 0\n      : @2131 (gas: 7)\n 59618: i32 a0 = a0 + 0x20\n 59621: u64 [sp + 136] = 0\n 59625: u64 [sp + 128] = 0\n 59629: u64 [sp + 120] = 0\n 59632: a1 = sp + 0x70\n 59635: u64 [sp + 112] = 0\n 59638: ra = 2232, jump @19\n      : @2132 [@dyn 1116] (gas: 35)\n 59645: s1 = u64 [sp + 0x30]\n 59648: s1 = s1 + 0x1f\n 59651: a0 = 0x1ffffffe0\n 59661: a0 = a0 & s1\n 59664: a1 = u64 [sp + 0x58]\n 59667: a0 = a0 + a1\n 59670: a1 = a0 <u a1\n 59673: a3 = u64 [sp + 0x60]\n 59676: a2 = a3 + a1\n 59679: a3 = a2 <u a3\n 59682: a3 = a1 if a1 == 0\n 59685: a1 = u64 [sp + 0x50]\n 59688: a3 = a3 + a1\n 59691: a1 = a3 <u a1\n 59694: a4 = u64 [sp + 0x68]\n 59697: a1 = a1 + a4\n 59700: a4 = a0 + 0x20\n 59703: a0 = a4 <u a0\n 59706: a5 = a2 + a0\n 59709: a2 = a5 <u a2\n 59712: a2 = a0 if a0 == 0\n 59715: a2 = a2 + a3\n 59718: a0 = a2 <u a3\n 59721: a0 = a0 + a1\n 59724: a1 = u64 [sp + 0x8]\n 59727: u64 [a1] = a4\n 59729: u64 [a1 + 0x8] = a5\n 59732: u64 [a1 + 0x10] = a2\n 59735: u64 [a1 + 0x18] = a0\n 59738: sp = s0 + 0xffffffffffffff10\n 59742: ra = u64 [sp + 0xe8]\n 59746: s0 = u64 [sp + 0xe0]\n 59750: s1 = u64 [sp + 0xd8]\n 59754: sp = sp + 0xf0\n 59758: ret\n      : @2133 (gas: 1)\n 59760: trap\n      : @2134 [@dyn 1117] (gas: 5)\n 59761: a1 = 0x4\n 59764: ra = 0x8bc\n 59768: ecalli 2 // 'call_data_load'\n 59770: t0 = 0x8be\n 59774: jump @2394\n      : @2135 [@dyn 1118] (gas: 1)\n 59777: t0 = 2238, jump @2394\n      : @2136 [@dyn 1119] (gas: 1)\n 59783: jump @2139 if a3 == 0\n      : @2137 (gas: 1)\n 59786: t0 = 2240, jump @2418\n      : @2138 [@dyn 1120] (gas: 1)\n 59792: ret\n      : @2139 (gas: 8)\n 59794: a1 = 0x201b0\n 59799: i32 a1 = a1 + 0\n 59801: a0 = 0x1\n 59804: a2 = 0\n 59806: ra = 0x8c2\n 59810: ecalli 11 // 'seal_return'\n 59812: t0 = 0x8c4\n 59816: jump @2444\n      : @2140 [@dyn 1121] (gas: 1)\n 59819: t0 = 2244, jump @2444\n      : @2141 [@dyn 1122] (gas: 5)\n 59825: a1 = 0x24\n 59828: ra = 0x8c6\n 59832: ecalli 2 // 'call_data_load'\n 59834: t0 = 0x8c8\n 59838: jump @2394\n      : @2142 [@dyn 1123] (gas: 1)\n 59841: t0 = 2248, jump @2394\n      : @2143 [@dyn 1124] (gas: 1)\n 59847: jump @2146 if a3 == 0\n      : @2144 (gas: 1)\n 59850: t0 = 2250, jump @2418\n      : @2145 [@dyn 1125] (gas: 1)\n 59856: ret\n      : @2146 (gas: 7)\n 59858: a1 = 0x201b0\n 59863: i32 a1 = a1 + 0\n 59865: a0 = 0x1\n 59868: a2 = 0\n 59870: ra = 0x8cc\n 59874: ecalli 11 // 'seal_return'\n 59876: fallthrough\n      : @2147 [@dyn 1126] (gas: 31)\n 59877: sp = sp + 0xfffffffffffffee0\n 59881: u64 [sp + 0x118] = ra\n 59885: u64 [sp + 0x110] = s0\n 59889: u64 [sp + 0x108] = s1\n 59893: s0 = sp + 0x120\n 59897: sp = sp & 0xffffffffffffffe0\n 59900: s1 = sp\n 59902: u64 [s1 + 0x38] = a0\n 59905: a0 = u64 [a2]\n 59907: u64 [s1 + 0x40] = a0\n 59910: a0 = u64 [a2 + 0x8]\n 59913: u64 [s1 + 0x48] = a0\n 59916: a0 = u64 [a2 + 0x10]\n 59919: u64 [s1 + 0x50] = a0\n 59922: a0 = u64 [a2 + 0x18]\n 59925: u64 [s1 + 0x58] = a0\n 59928: a0 = u64 [a1 + 0x18]\n 59931: a2 = u64 [a1 + 0x10]\n 59934: a3 = u64 [a1 + 0x8]\n 59937: a1 = u64 [a1]\n 59939: u64 [s1 + 0x30] = a0\n 59942: u64 [s1 + 0xf8] = a0\n 59946: u64 [s1 + 0x28] = a2\n 59949: u64 [s1 + 0xf0] = a2\n 59953: u64 [s1 + 0x20] = a3\n 59956: u64 [s1 + 0xe8] = a3\n 59960: u64 [s1 + 0x18] = a1\n 59963: u64 [s1 + 0xe0] = a1\n 59967: a0 = s1 + 0xc0\n 59971: a1 = s1 + 0xe0\n 59975: ra = 2254, jump @21\n      : @2148 [@dyn 1127] (gas: 20)\n 59982: a0 = u64 [s1 + 0xd8]\n 59986: t0 = u64 [s1 + 0xc0]\n 59990: a2 = u64 [s1 + 0xd0]\n 59994: a3 = u64 [s1 + 0xc8]\n 59998: a1 = u64 [s1 + 0x58]\n 60001: a4 = a0 ^ a1\n 60004: a1 = a1 <u a0\n 60007: a0 = u64 [s1 + 0x50]\n 60010: a5 = a0 <u a2\n 60013: a5 = a1 if a4 != 0\n 60016: a1 = u64 [s1 + 0x48]\n 60019: t1 = a3 ^ a1\n 60022: a3 = a1 <u a3\n 60025: a1 = u64 [s1 + 0x40]\n 60028: a1 = a1 <u t0\n 60031: a1 = a3 if t1 != 0\n 60034: a0 = a0 ^ a2\n 60037: a0 = a0 | a4\n 60040: a1 = a5 if a0 != 0\n 60043: jump @2153 if a1 == 0\n      : @2149 (gas: 11)\n 60047: a0 = u64 [s1 + 0x18]\n 60050: u64 [s1 + 0x60] = a0\n 60053: a0 = u64 [s1 + 0x20]\n 60056: u64 [s1 + 0x68] = a0\n 60059: a0 = u64 [s1 + 0x28]\n 60062: u64 [s1 + 0x70] = a0\n 60065: a1 = s1 + 0x60\n 60068: a0 = u64 [s1 + 0x30]\n 60071: u64 [s1 + 0x78] = a0\n 60074: a0 = 0\n 60076: ra = 2256, jump @19\n      : @2150 [@dyn 1128] (gas: 2)\n 60083: a1 = i32 [0x2019c]\n 60088: jump @2152 if a1 >u 31\n      : @2151 (gas: 2)\n 60092: u32 [0x2019c] = 0x20\n 60098: fallthrough\n      : @2152 (gas: 72)\n 60099: a0 = sp + 0xffffffffffffffe0\n 60102: a2 = a0 & 0xffffffffffffffe0\n 60105: u64 [s1 + 0x30] = a2\n 60108: sp = a2\n 60110: a0 = 0x201b0\n 60115: i32 a0 = a0 + 0\n 60117: i32 a2 = a2 + 0\n 60119: a1 = 0x20\n 60122: ecalli 7 // 'hash_keccak_256'\n 60124: t0 = u64 [s1 + 0x30]\n 60127: a0 = u64 [t0 + 0x18]\n 60130: a1 = u64 [t0 + 0x10]\n 60133: a3 = reverse a0\n 60135: a1 = reverse a1\n 60137: a4 = 0x5\n 60140: a0 = u64 [s1 + 0x40]\n 60143: a2 = a0 << 0x2\n 60146: t1 = a2 + a0\n 60149: a4 = a0 mulhu a4\n 60152: a2 = u64 [s1 + 0x48]\n 60155: a5 = a2 << 0x2\n 60158: a5 = a5 + a2\n 60161: a4 = a4 + a5\n 60164: t1 = t1 + a3\n 60167: a3 = t1 <u a3\n 60170: a0 = a1 + a4\n 60173: ra = a0 + a3\n 60176: a0 = ra ^ a1\n 60179: a1 = ra <u a1\n 60182: a1 = a3 if a0 == 0\n 60185: a0 = a4 <u a5\n 60188: a4 = 0x5\n 60191: a3 = a2 mulhu a4\n 60194: a0 = a0 + a3\n 60197: a2 = u64 [s1 + 0x50]\n 60200: a3 = a2 << 0x2\n 60203: t2 = a3 + a2\n 60206: a4 = a2 mulhu a4\n 60209: a5 = u64 [t0]\n 60211: a2 = u64 [s1 + 0x58]\n 60214: a3 = a2 << 0x2\n 60217: a3 = a3 + a2\n 60220: a3 = a3 + a4\n 60223: a4 = reverse a5\n 60225: a3 = a3 + a4\n 60228: a4 = u64 [t0 + 0x8]\n 60231: t2 = t2 + a0\n 60234: a0 = t2 <u a0\n 60237: a0 = a0 + a3\n 60240: a3 = reverse a4\n 60242: t2 = t2 + a3\n 60245: a3 = t2 <u a3\n 60248: a0 = a0 + a3\n 60251: a1 = a1 + t2\n 60254: a3 = a1 <u t2\n 60257: a0 = a0 + a3\n 60260: a3 = u64 [s1 + 0x38]\n 60263: u64 [a3] = t1\n 60265: u64 [a3 + 0x8] = ra\n 60268: u64 [a3 + 0x10] = a1\n 60271: u64 [a3 + 0x18] = a0\n 60274: a0 = 0\n 60276: u64 [a3 + 56] = 0\n 60279: u64 [a3 + 48] = 0\n 60282: u64 [a3 + 40] = 0\n 60285: u64 [a3 + 32] = 0\n 60288: sp = s0 + 0xfffffffffffffee0\n 60292: ra = u64 [sp + 0x118]\n 60296: s0 = u64 [sp + 0x110]\n 60300: s1 = u64 [sp + 0x108]\n 60304: sp = sp + 0x120\n 60308: ret\n      : @2153 (gas: 6)\n 60310: u64 [s1 + 176] = 0\n 60314: u64 [s1 + 168] = 0\n 60318: u64 [s1 + 160] = 0\n 60322: t0 = 0x8d2\n 60326: a0 = 0x4e487b7100000000\n 60336: fallthrough\n      : @2154 [@dyn 1129] (gas: 4)\n 60337: a1 = s1 + 0xa0\n 60341: u64 [s1 + 0xb8] = a0\n 60345: a0 = 0\n 60347: ra = 2260, jump @19\n      : @2155 [@dyn 1130] (gas: 7)\n 60354: u64 [s1 + 152] = 0\n 60358: u64 [s1 + 144] = 0\n 60362: u64 [s1 + 128] = 0x32\n 60367: a0 = 0x4\n 60370: a1 = s1 + 0x80\n 60374: u64 [s1 + 136] = 0\n 60378: ra = 2262, jump @19\n      : @2156 [@dyn 1131] (gas: 2)\n 60385: a1 = i32 [0x2019c]\n 60390: jump @2158 if a1 >u 63\n      : @2157 (gas: 2)\n 60394: u32 [0x2019c] = 0x40\n 60400: fallthrough\n      : @2158 (gas: 7)\n 60401: a1 = 0x201b0\n 60406: i32 a1 = a1 + 0\n 60408: a0 = 0x1\n 60411: a2 = 0x24\n 60414: ra = 0x8d8\n 60418: ecalli 11 // 'seal_return'\n 60420: fallthrough\n      : @2159 [@dyn 1132] (gas: 33)\n 60421: sp = sp + 0xffffffffffffffa0\n 60424: u64 [sp + 0x58] = ra\n 60427: u64 [sp + 0x50] = s0\n 60430: u64 [sp + 0x48] = s1\n 60433: s0 = sp + 0x60\n 60436: sp = sp & 0xfffffffffffffff0\n 60439: a2 = u64 [a1 + 0x10]\n 60442: a5 = u64 [a1 + 0x8]\n 60445: a4 = u64 [a1]\n 60447: a1 = u64 [a1 + 0x18]\n 60450: t0 = a2 << 0x3f\n 60453: a3 = a5 >> 0x1\n 60456: t0 = a3 | t0\n 60459: a3 = a1 << 0x3f\n 60462: a2 = a2 >> 0x1\n 60465: a3 = a3 | a2\n 60468: a5 = a5 << 0x3f\n 60471: a2 = a4 >> 0x1\n 60474: a5 = a5 | a2\n 60477: t1 = a1 >> 0x1\n 60480: a4 = a4 & 0x1\n 60483: a1 = -a4\n 60485: s1 = a4 <u 0x1\n 60488: a2 = a5 & 0x7f\n 60491: t2 = a1 & a3\n 60494: a3 = a1 & t0\n 60497: a2 = a5 if a4 != 0\n 60500: a4 = a1 & t1\n 60503: a1 = a2 <u 0x20\n 60506: a1 = 0 if a3 != 0\n 60508: a5 = t2 | a4\n 60511: a1 = 0 if a5 != 0\n 60513: jump @2162 if s1 != a1\n      : @2160 (gas: 5)\n 60516: u64 [a0] = a2\n 60518: u64 [a0 + 0x8] = a3\n 60521: u64 [a0 + 0x10] = t2\n 60524: u64 [a0 + 0x18] = a4\n 60527: t0 = 2266, jump @2431\n      : @2161 [@dyn 1133] (gas: 1)\n 60533: ret\n      : @2162 (gas: 1)\n 60535: t0 = 2268, jump @2372\n      : @2163 [@dyn 1134] (gas: 1)\n 60541: ra = 2270, jump @19\n      : @2164 [@dyn 1135] (gas: 7)\n 60548: u64 [sp + 24] = 0\n 60551: u64 [sp + 16] = 0\n 60554: u64 [sp + 0] = 0x22\n 60557: a0 = 0x4\n 60560: a1 = sp\n 60562: u64 [sp + 8] = 0\n 60565: ra = 2272, jump @19\n      : @2165 [@dyn 1136] (gas: 2)\n 60572: a1 = i32 [0x2019c]\n 60577: jump @2167 if a1 >u 63\n      : @2166 (gas: 2)\n 60581: u32 [0x2019c] = 0x40\n 60587: fallthrough\n      : @2167 (gas: 7)\n 60588: a1 = 0x201b0\n 60593: i32 a1 = a1 + 0\n 60595: a0 = 0x1\n 60598: a2 = 0x24\n 60601: ra = 0x8e2\n 60605: ecalli 11 // 'seal_return'\n 60607: fallthrough\n      : @2168 [@dyn 1137] (gas: 19)\n 60608: sp = sp + 0xffffffffffffff90\n 60611: u64 [sp + 0x68] = ra\n 60614: u64 [sp + 0x60] = s0\n 60617: s0 = sp + 0x70\n 60620: sp = sp & 0xfffffffffffffff0\n 60623: a3 = u64 [a0 + 0x18]\n 60626: a2 = u64 [a0 + 0x10]\n 60629: t1 = u64 [a0]\n 60631: a0 = u64 [a0 + 0x8]\n 60634: a4 = a3 >u 0\n 60636: a5 = a2 >u 0\n 60638: a5 = a4 if a3 != 0\n 60641: t0 = a0 >u 0\n 60643: a4 = t1 <u 0xffffffffffffff60\n 60647: a4 = a4 ^ 0x1\n 60650: a4 = t0 if a0 != 0\n 60653: a1 = a2 | a3\n 60656: a4 = a5 if a1 != 0\n 60659: jump @2171 if a4 != 0\n      : @2169 (gas: 15)\n 60662: a1 = t1 + 0xa0\n 60666: a4 = a1 <u t1\n 60669: a5 = a0 + a4\n 60672: a0 = a5 <u a0\n 60675: a0 = a4 if a4 == 0\n 60678: a0 = a0 + a2\n 60681: a2 = a0 <u a2\n 60684: a2 = a2 + a3\n 60687: u64 [sp + 0x40] = a1\n 60690: u64 [sp + 0x48] = a5\n 60693: u64 [sp + 0x50] = a0\n 60696: a0 = 0x40\n 60699: a1 = sp + a0\n 60702: u64 [sp + 0x58] = a2\n 60705: ra = 2276, jump @19\n      : @2170 [@dyn 1138] (gas: 5)\n 60712: sp = s0 + 0xffffffffffffff90\n 60715: ra = u64 [sp + 0x68]\n 60718: s0 = u64 [sp + 0x60]\n 60721: sp = sp + 0x70\n 60724: ret\n      : @2171 (gas: 1)\n 60726: t0 = 2278, jump @2372\n      : @2172 [@dyn 1139] (gas: 1)\n 60732: ra = 2280, jump @19\n      : @2173 [@dyn 1140] (gas: 7)\n 60739: u64 [sp + 24] = 0\n 60742: u64 [sp + 16] = 0\n 60745: u64 [sp + 0] = 0x41\n 60748: a0 = 0x4\n 60751: a1 = sp\n 60753: u64 [sp + 8] = 0\n 60756: ra = 2282, jump @19\n      : @2174 [@dyn 1141] (gas: 2)\n 60763: a1 = i32 [0x2019c]\n 60768: jump @2176 if a1 >u 63\n      : @2175 (gas: 2)\n 60772: u32 [0x2019c] = 0x40\n 60778: fallthrough\n      : @2176 (gas: 7)\n 60779: a1 = 0x201b0\n 60784: i32 a1 = a1 + 0\n 60786: a0 = 0x1\n 60789: a2 = 0x24\n 60792: ra = 0x8ec\n 60796: ecalli 11 // 'seal_return'\n 60798: fallthrough\n      : @2177 [@dyn 1142] (gas: 46)\n 60799: sp = sp + 0xffffffffffffff70\n 60803: u64 [sp + 0x88] = ra\n 60807: u64 [sp + 0x80] = s0\n 60811: u64 [sp + 0x78] = s1\n 60814: s0 = sp + 0x90\n 60818: sp = sp & 0xfffffffffffffff0\n 60821: t0 = a0\n 60823: a2 = u64 [a1]\n 60825: t2 = u64 [a0 + 0x8]\n 60828: a5 = u64 [a1 + 0x8]\n 60831: t1 = u64 [a0]\n 60833: a3 = a2 + 0x1f\n 60836: ra = a3 <u a2\n 60839: a2 = a5 + ra\n 60842: a3 = a3 & 0xffffffffffffffe0\n 60845: u64 [sp + 0x8] = t1\n 60848: t1 = t1 + a3\n 60851: a4 = t1 <u a3\n 60854: a3 = a2 + t2\n 60857: a3 = a3 + a4\n 60860: s1 = a3 ^ a2\n 60863: a0 = a3 <u a2\n 60866: a0 = a4 if s1 == 0\n 60869: a4 = u64 [t0 + 0x18]\n 60872: a5 = a2 <u a5\n 60875: s1 = u64 [a1 + 0x10]\n 60878: t0 = u64 [t0 + 0x10]\n 60881: a1 = u64 [a1 + 0x18]\n 60884: a5 = ra if ra == 0\n 60887: a5 = a5 + s1\n 60890: s1 = a5 <u s1\n 60893: a2 = a5 + t0\n 60896: a0 = a0 + a2\n 60899: a5 = a2 <u a5\n 60902: a2 = a0 <u a2\n 60905: a1 = a1 + a4\n 60908: a1 = a1 + s1\n 60911: a1 = a1 + a5\n 60914: a5 = a1 + a2\n 60917: a1 = a5 >u 0\n 60919: a2 = a0 >u 0\n 60921: a2 = a1 if a5 != 0\n 60924: a1 = a0 | a5\n 60927: s1 = a3 >u 0\n 60929: s1 = a2 if a1 != 0\n 60932: jump @2181 if s1 != 0\n      : @2178 (gas: 13)\n 60935: a1 = u64 [sp + 0x8]\n 60938: a1 = t1 <u a1\n 60941: a2 = a3 ^ t2\n 60944: s1 = a3 <u t2\n 60947: s1 = a1 if a2 == 0\n 60950: a1 = a0 <u t0\n 60953: a2 = a5 ^ a4\n 60956: a4 = a5 <u a4\n 60959: a4 = a1 if a2 == 0\n 60962: a1 = a0 ^ t0\n 60965: a1 = a1 | a2\n 60968: a4 = s1 if a1 == 0\n 60971: jump @2181 if a4 != 0\n      : @2179 (gas: 7)\n 60974: u64 [sp + 0x50] = t1\n 60977: u64 [sp + 0x58] = a3\n 60980: u64 [sp + 0x60] = a0\n 60983: a0 = 0x40\n 60986: a1 = sp + 0x50\n 60989: u64 [sp + 0x68] = a5\n 60992: ra = 2286, jump @19\n      : @2180 [@dyn 1143] (gas: 6)\n 60999: sp = s0 + 0xffffffffffffff70\n 61003: ra = u64 [sp + 0x88]\n 61007: s0 = u64 [sp + 0x80]\n 61011: s1 = u64 [sp + 0x78]\n 61014: sp = sp + 0x90\n 61018: ret\n      : @2181 (gas: 1)\n 61020: t0 = 2288, jump @2426\n      : @2182 [@dyn 1144] (gas: 1)\n 61026: ra = 2290, jump @19\n      : @2183 [@dyn 1145] (gas: 7)\n 61033: u64 [sp + 40] = 0\n 61036: u64 [sp + 32] = 0\n 61039: u64 [sp + 16] = 0x41\n 61043: a0 = 0x4\n 61046: a1 = sp + 0x10\n 61049: u64 [sp + 24] = 0\n 61052: ra = 2292, jump @19\n      : @2184 [@dyn 1146] (gas: 2)\n 61059: a1 = i32 [0x2019c]\n 61064: jump @2186 if a1 >u 63\n      : @2185 (gas: 2)\n 61068: u32 [0x2019c] = 0x40\n 61074: fallthrough\n      : @2186 (gas: 7)\n 61075: a1 = 0x201b0\n 61080: i32 a1 = a1 + 0\n 61082: a0 = 0x1\n 61085: a2 = 0x24\n 61088: ra = 0x8f6\n 61092: ecalli 11 // 'seal_return'\n 61094: fallthrough\n      : @2187 [@dyn 1147] (gas: 24)\n 61095: sp = sp + 0xfffffffffffffda0\n 61099: a2 = sp + 0x200\n 61103: u64 [a2 + 0x58] = ra\n 61106: u64 [a2 + 0x50] = s0\n 61109: u64 [a2 + 0x48] = s1\n 61112: s0 = sp + 0x260\n 61116: sp = sp & 0xffffffffffffffe0\n 61119: s1 = sp\n 61121: u64 [s1 + 0x10] = a0\n 61124: a0 = u64 [a1 + 0x18]\n 61127: a2 = u64 [a1 + 0x10]\n 61130: a3 = u64 [a1 + 0x8]\n 61133: a1 = u64 [a1]\n 61135: u64 [s1 + 0xb0] = a0\n 61139: u64 [s1 + 0x238] = a0\n 61143: u64 [s1 + 0xa8] = a2\n 61147: u64 [s1 + 0x230] = a2\n 61151: u64 [s1 + 0xa0] = a3\n 61155: u64 [s1 + 0x228] = a3\n 61159: u64 [s1 + 0x98] = a1\n 61163: u64 [s1 + 0x220] = a1\n 61167: a0 = s1 + 0x200\n 61171: a1 = 0x40\n 61174: ra = 2296, jump @17\n      : @2188 [@dyn 1148] (gas: 12)\n 61181: a1 = s1 + 0x200\n 61185: a0 = u64 [a1 + 0x18]\n 61188: u64 [s1 + 0x18] = a0\n 61191: a0 = u64 [a1 + 0x10]\n 61194: u64 [s1 + 0x20] = a0\n 61197: a0 = u64 [a1 + 0x8]\n 61200: u64 [s1 + 0x28] = a0\n 61203: a0 = u64 [a1]\n 61205: u64 [s1 + 0x30] = a0\n 61208: a0 = s1 + 0x1e0\n 61212: a1 = s1 + 0x220\n 61216: ra = 2298, jump @21\n      : @2189 [@dyn 1149] (gas: 16)\n 61223: a4 = s1 + 0x100\n 61227: a0 = u64 [a4 + 0xf8]\n 61231: a1 = u64 [a4 + 0xf0]\n 61235: a2 = u64 [a4 + 0xe8]\n 61239: a3 = u64 [a4 + 0xe0]\n 61243: u64 [s1 + 0x90] = a0\n 61247: u64 [a4 + 0xb8] = a0\n 61251: u64 [s1 + 0x88] = a1\n 61255: u64 [a4 + 0xb0] = a1\n 61259: u64 [s1 + 0x80] = a2\n 61263: u64 [a4 + 0xa8] = a2\n 61267: a0 = s1 + 0x1c0\n 61271: a1 = s1 + 0x1a0\n 61275: u64 [s1 + 0xb8] = a3\n 61279: u64 [a4 + 0xa0] = a3\n 61283: ra = 2300, jump @2159\n      : @2190 [@dyn 1150] (gas: 12)\n 61289: a0 = u64 [s1 + 0x30]\n 61292: a1 = u64 [s1 + 0x18]\n 61295: a2 = u64 [s1 + 0x28]\n 61298: a2 = a2 | a1\n 61301: a3 = u64 [s1 + 0x20]\n 61304: a1 = a0 | a3\n 61307: a1 = a1 | a2\n 61310: a1 = a1 >> 0x20\n 61313: a2 = a2 | a3\n 61316: a2 = a2 << 0x20\n 61319: a1 = a1 | a2\n 61322: jump @2207 if a1 != 0\n      : @2191 (gas: 15)\n 61326: a5 = s1 + 0x100\n 61330: a2 = u64 [a5 + 0xd8]\n 61334: a3 = u64 [a5 + 0xd0]\n 61338: a1 = u64 [a5 + 0xc8]\n 61342: a4 = u64 [a5 + 0xc0]\n 61346: u64 [s1 + 0x60] = a4\n 61349: u64 [a5 + 0x80] = a4\n 61353: u64 [s1 + 0x70] = a1\n 61356: u64 [a5 + 0x88] = a1\n 61360: u64 [s1 + 0x68] = a3\n 61363: u64 [a5 + 0x90] = a3\n 61367: a1 = s1 + 0x180\n 61371: u64 [s1 + 0x78] = a2\n 61374: u64 [a5 + 0x98] = a2\n 61378: ra = 2302, jump @19\n      : @2192 [@dyn 1151] (gas: 3)\n 61385: a3 = u64 [s1 + 0xb8]\n 61389: a0 = a3 & 0x1\n 61392: jump @2198 if a0 != 0\n      : @2193 (gas: 10)\n 61396: a0 = u64 [s1 + 0x20]\n 61399: a1 = u64 [s1 + 0x18]\n 61402: a0 = a0 | a1\n 61405: a1 = 0xffffffe0\n 61415: a4 = u64 [s1 + 0x30]\n 61418: a1 = a4 <u a1\n 61421: a2 = u64 [s1 + 0x28]\n 61424: a1 = 0 if a2 != 0\n 61426: a1 = 0 if a0 != 0\n 61428: jump @2207 if a1 == 0\n      : @2194 (gas: 12)\n 61432: a1 = a3 & 0xffffffffffffff00\n 61436: i32 a0 = a4 + 0x20\n 61439: a3 = u64 [s1 + 0x80]\n 61443: a2 = s1 + 0x100\n 61447: u64 [a2 + 0x8] = a3\n 61450: u64 [a2] = a1\n 61452: a1 = u64 [s1 + 0x88]\n 61456: u64 [a2 + 0x10] = a1\n 61459: a1 = s1 + 0x100\n 61463: a3 = u64 [s1 + 0x90]\n 61467: u64 [a2 + 0x18] = a3\n 61470: ra = 2304, jump @19\n      : @2195 [@dyn 1152] (gas: 14)\n 61477: t2 = 0\n 61479: t1 = 0\n 61481: t0 = 0\n 61483: a0 = u64 [s1 + 0x68]\n 61486: a1 = u64 [s1 + 0x60]\n 61489: a0 = a0 | a1\n 61492: a1 = u64 [s1 + 0x78]\n 61495: a2 = u64 [s1 + 0x70]\n 61498: a1 = a1 | a2\n 61501: a0 = a0 | a1\n 61504: a0 = a0 >u 0\n 61506: a0 = a0 << 0x5\n 61509: u64 [s1 + 0xb8] = a0\n 61513: fallthrough\n      : @2196 (gas: 24)\n 61514: a1 = u64 [s1 + 0xb8]\n 61518: a0 = a1 + 0x20\n 61521: a1 = a0 <u a1\n 61524: a2 = t2 + a1\n 61527: a3 = a2 <u t2\n 61530: a3 = a1 if a1 == 0\n 61533: a3 = a3 + t1\n 61536: a1 = a3 <u t1\n 61539: a4 = t0 + a1\n 61542: a1 = u64 [s1 + 0x30]\n 61545: u64 [s1 + 0xe0] = a1\n 61549: u64 [s1 + 0xc0] = a0\n 61553: a0 = u64 [s1 + 0x28]\n 61556: u64 [s1 + 0xe8] = a0\n 61560: a0 = u64 [s1 + 0x20]\n 61563: u64 [s1 + 0xf0] = a0\n 61567: u64 [s1 + 0xc8] = a2\n 61571: a0 = u64 [s1 + 0x18]\n 61574: u64 [s1 + 0xf8] = a0\n 61578: u64 [s1 + 0xd0] = a3\n 61582: a0 = s1 + 0xe0\n 61586: a1 = s1 + 0xc0\n 61590: u64 [s1 + 0xd8] = a4\n 61594: ra = 2306, jump @2177\n      : @2197 [@dyn 1153] (gas: 16)\n 61600: a0 = u64 [s1 + 0x10]\n 61603: a1 = u64 [s1 + 0x18]\n 61606: u64 [a0 + 0x18] = a1\n 61609: a1 = u64 [s1 + 0x20]\n 61612: u64 [a0 + 0x10] = a1\n 61615: a1 = u64 [s1 + 0x28]\n 61618: u64 [a0 + 0x8] = a1\n 61621: a1 = u64 [s1 + 0x30]\n 61624: u64 [a0] = a1\n 61626: sp = s0 + 0xfffffffffffffda0\n 61630: a0 = sp + 0x200\n 61634: ra = u64 [a0 + 0x58]\n 61637: s0 = u64 [a0 + 0x50]\n 61640: s1 = u64 [a0 + 0x48]\n 61643: sp = sp + 0x260\n 61647: ret\n      : @2198 (gas: 12)\n 61649: a0 = u64 [s1 + 0x98]\n 61653: a2 = s1 + 0x100\n 61657: u64 [a2 + 0x60] = a0\n 61660: a0 = u64 [s1 + 0xa0]\n 61664: u64 [a2 + 0x68] = a0\n 61667: a0 = u64 [s1 + 0xa8]\n 61671: u64 [a2 + 0x70] = a0\n 61674: a1 = s1 + 0x160\n 61678: a0 = u64 [s1 + 0xb0]\n 61682: u64 [a2 + 0x78] = a0\n 61685: a0 = 0\n 61687: ra = 2308, jump @19\n      : @2199 [@dyn 1154] (gas: 6)\n 61694: a0 = sp + 0xffffffffffffffe0\n 61697: a0 = a0 & 0xffffffffffffffe0\n 61700: u64 [s1 + 0x58] = a0\n 61703: sp = a0\n 61705: a1 = i32 [0x2019c]\n 61710: jump @2201 if a1 >u 31\n      : @2200 (gas: 2)\n 61714: u32 [0x2019c] = 0x20\n 61720: fallthrough\n      : @2201 (gas: 49)\n 61721: a0 = sp + 0xffffffffffffffe0\n 61724: a2 = a0 & 0xffffffffffffffe0\n 61727: u64 [s1 + 0xb0] = a2\n 61731: sp = a2\n 61733: a0 = 0x201b0\n 61738: i32 a0 = a0 + 0\n 61740: i32 a2 = a2 + 0\n 61742: a1 = 0x20\n 61745: ecalli 7 // 'hash_keccak_256'\n 61747: u64 [s1 + 184] = 0\n 61751: t2 = 0\n 61753: t1 = 0\n 61755: t0 = 0\n 61757: a5 = u64 [s1 + 0xb0]\n 61761: a0 = u64 [a5 + 0x18]\n 61764: a1 = u64 [s1 + 0x30]\n 61767: a2 = a1 + 0x20\n 61770: u64 [s1 + 0x50] = a2\n 61773: a1 = a2 <u a1\n 61776: a2 = u64 [s1 + 0x28]\n 61779: a3 = a2 + a1\n 61782: u64 [s1 + 0x48] = a3\n 61785: a4 = a3 <u a2\n 61788: a4 = a1 if a1 == 0\n 61791: a1 = u64 [a5 + 0x10]\n 61794: a2 = u64 [a5 + 0x8]\n 61797: a3 = u64 [a5]\n 61799: a0 = reverse a0\n 61801: a1 = reverse a1\n 61803: ra = reverse a2\n 61805: a2 = reverse a3\n 61807: a5 = u64 [s1 + 0x58]\n 61810: a3 = a2\n 61812: u64 [a5 + 0x18] = a2\n 61815: a2 = ra\n 61817: u64 [s1 + 0x80] = a2\n 61821: u64 [a5 + 0x10] = a2\n 61824: u64 [s1 + 0x90] = a1\n 61828: u64 [a5 + 0x8] = a1\n 61831: a2 = a0\n 61833: u64 [a5] = a0\n 61835: a0 = u64 [s1 + 0x20]\n 61838: a4 = a4 + a0\n 61841: u64 [s1 + 0x40] = a4\n 61844: a0 = a4 <u a0\n 61847: a1 = u64 [s1 + 0x18]\n 61850: a0 = a0 + a1\n 61853: u64 [s1 + 0x38] = a0\n 61856: fallthrough\n      : @2202 (gas: 19)\n 61857: u64 [s1 + 0x88] = a3\n 61861: u64 [s1 + 0x98] = a2\n 61865: a0 = u64 [s1 + 0x60]\n 61868: a1 = u64 [s1 + 0xb8]\n 61872: a0 = a1 <u a0\n 61875: a2 = u64 [s1 + 0x70]\n 61878: a1 = t2 ^ a2\n 61881: a2 = t2 <u a2\n 61884: a2 = a0 if a1 == 0\n 61887: a4 = u64 [s1 + 0x68]\n 61890: a0 = t1 <u a4\n 61893: a3 = u64 [s1 + 0x78]\n 61896: a1 = t0 ^ a3\n 61899: a3 = t0 <u a3\n 61902: a3 = a0 if a1 == 0\n 61905: a0 = t1 ^ a4\n 61908: a0 = a0 | a1\n 61911: a3 = a2 if a0 == 0\n 61914: jump @2196 if a3 == 0\n      : @2203 (gas: 6)\n 61918: a0 = s1 + 0x140\n 61922: a1 = a5\n 61924: u64 [s1 + 0xb0] = t0\n 61928: u64 [s1 + 0xa8] = t1\n 61932: u64 [s1 + 0xa0] = t2\n 61936: ra = 2310, jump @21\n      : @2204 [@dyn 1155] (gas: 30)\n 61943: a1 = u64 [s1 + 0x50]\n 61946: a0 = u64 [s1 + 0xb8]\n 61950: a0 = a0 + a1\n 61953: a1 = a0 <u a1\n 61956: a4 = u64 [s1 + 0x48]\n 61959: a2 = u64 [s1 + 0xa0]\n 61963: a2 = a2 + a4\n 61966: a2 = a2 + a1\n 61969: a3 = a2 ^ a4\n 61972: a4 = a2 <u a4\n 61975: a4 = a1 if a3 == 0\n 61978: a3 = u64 [s1 + 0x40]\n 61981: a1 = u64 [s1 + 0xa8]\n 61985: a1 = a1 + a3\n 61988: t0 = a1 <u a3\n 61991: a5 = u64 [s1 + 0x38]\n 61994: a3 = u64 [s1 + 0xb0]\n 61998: a5 = a5 + a3\n 62001: a3 = a5 + t0\n 62004: a4 = a4 + a1\n 62007: a1 = a4 <u a1\n 62010: a1 = a1 + a3\n 62013: a1 = a1 | a2\n 62016: a2 = a0 | a4\n 62019: a2 = a2 | a1\n 62022: a1 = a1 | a4\n 62025: a2 = a2 >> 0x20\n 62028: a1 = a1 << 0x20\n 62031: a1 = a1 | a2\n 62034: jump @2207 if a1 != 0\n      : @2205 (gas: 11)\n 62038: a5 = s1 + 0x100\n 62042: a2 = u64 [a5 + 0x58]\n 62045: a1 = u64 [a5 + 0x50]\n 62048: a3 = u64 [a5 + 0x48]\n 62051: a4 = u64 [a5 + 0x40]\n 62054: u64 [a5 + 0x20] = a4\n 62057: u64 [a5 + 0x28] = a3\n 62060: u64 [a5 + 0x30] = a1\n 62063: a1 = s1 + 0x120\n 62067: u64 [a5 + 0x38] = a2\n 62070: ra = 2312, jump @19\n      : @2206 [@dyn 1156] (gas: 38)\n 62077: a3 = u64 [s1 + 0x98]\n 62081: a3 = a3 + 0x1\n 62084: a0 = a3 <u 0x1\n 62087: t2 = u64 [s1 + 0x90]\n 62091: t2 = t2 + a0\n 62094: a0 = a3 | t2\n 62097: a0 = a0 <u 0x1\n 62100: a1 = u64 [s1 + 0x80]\n 62104: t1 = a1 + a0\n 62107: a1 = t1 <u a1\n 62110: a0 = u64 [s1 + 0x88]\n 62114: a0 = a0 + a1\n 62117: a1 = u64 [s1 + 0xb8]\n 62121: ra = a1 + 0x20\n 62124: a2 = ra <u a1\n 62127: a4 = u64 [s1 + 0xa0]\n 62131: a1 = a4 + a2\n 62134: a4 = a1 <u a4\n 62137: a4 = a2 if a2 == 0\n 62140: a2 = u64 [s1 + 0xa8]\n 62144: a4 = a4 + a2\n 62147: a2 = a4 <u a2\n 62150: t0 = u64 [s1 + 0xb0]\n 62154: t0 = t0 + a2\n 62157: a2 = t2\n 62159: u64 [s1 + 0x90] = a2\n 62163: a5 = u64 [s1 + 0x58]\n 62166: u64 [a5 + 0x8] = a2\n 62169: a2 = a3\n 62171: u64 [a5] = a3\n 62173: u64 [a5 + 0x10] = t1\n 62176: a3 = a0\n 62178: u64 [a5 + 0x18] = a0\n 62181: u64 [s1 + 0x80] = t1\n 62185: u64 [s1 + 0xb8] = ra\n 62189: t2 = a1\n 62191: t1 = a4\n 62193: jump @2202\n      : @2207 (gas: 1)\n 62196: trap\n      : @2208 (gas: 23)\n 62197: sp = sp + 0xffffffffffffff10\n 62201: u64 [sp + 0xe8] = ra\n 62205: u64 [sp + 0xe0] = s0\n 62209: u64 [sp + 0xd8] = s1\n 62213: s0 = sp + 0xf0\n 62217: sp = sp & 0xfffffffffffffff0\n 62220: s1 = u64 [a1 + 0x10]\n 62223: t0 = u64 [a1 + 0x18]\n 62226: a5 = u64 [a1 + 0x8]\n 62229: a1 = u64 [a1]\n 62231: u64 [sp + 0x68] = a5\n 62234: u64 [sp + 0x58] = t0\n 62237: t1 = a5 | t0\n 62240: t0 = a1\n 62242: a5 = a1 | s1\n 62245: a5 = a5 | t1\n 62248: a5 = a5 >> 0x20\n 62251: u64 [sp + 0x60] = s1\n 62254: a1 = t1 | s1\n 62257: a1 = a1 << 0x20\n 62260: a1 = a1 | a5\n 62263: u64 [sp + 0x50] = a0\n 62266: jump @2215 if a1 != 0\n      : @2209 (gas: 28)\n 62270: a0 = u64 [a4 + 0x18]\n 62273: u64 [sp + 0x18] = a0\n 62276: a0 = u64 [a4 + 0x10]\n 62279: u64 [sp + 0x10] = a0\n 62282: a0 = u64 [a4 + 0x8]\n 62285: u64 [sp + 0x8] = a0\n 62288: a0 = u64 [a4]\n 62290: u64 [sp] = a0\n 62292: a0 = u64 [a3 + 0x18]\n 62295: u64 [sp + 0x48] = a0\n 62298: a0 = u64 [a3 + 0x10]\n 62301: u64 [sp + 0x40] = a0\n 62304: a0 = u64 [a3 + 0x8]\n 62307: u64 [sp + 0x38] = a0\n 62310: a0 = u64 [a3]\n 62312: u64 [sp + 0x30] = a0\n 62315: a0 = u64 [a2 + 0x18]\n 62318: a1 = u64 [a2 + 0x10]\n 62321: a3 = u64 [a2 + 0x8]\n 62324: a2 = u64 [a2]\n 62326: u64 [sp + 0xb0] = a2\n 62330: u64 [sp + 0xb8] = a3\n 62334: u64 [sp + 0xc0] = a1\n 62338: a1 = sp + 0xb0\n 62342: u64 [sp + 0xc8] = a0\n 62346: s1 = t0\n 62348: a0 = t0\n 62350: ra = 2314, jump @19\n      : @2210 [@dyn 1157] (gas: 12)\n 62357: a0 = u64 [sp + 0x60]\n 62360: a1 = u64 [sp + 0x58]\n 62363: a2 = a0 | a1\n 62366: a0 = 0x100000000\n 62376: u64 [sp + 0x20] = a0\n 62379: a0 = 0xffffffe0\n 62389: a0 = s1 <u a0\n 62392: a1 = u64 [sp + 0x68]\n 62395: a0 = 0 if a1 != 0\n 62397: u64 [sp + 0x28] = a2\n 62400: a0 = 0 if a2 != 0\n 62402: jump @2215 if a0 == 0\n      : @2211 (gas: 11)\n 62406: i32 a0 = s1 + 0x20\n 62409: a1 = u64 [sp + 0x30]\n 62412: u64 [sp + 0x90] = a1\n 62416: a1 = u64 [sp + 0x38]\n 62419: u64 [sp + 0x98] = a1\n 62423: a1 = u64 [sp + 0x40]\n 62426: u64 [sp + 0xa0] = a1\n 62430: a1 = sp + 0x90\n 62434: a2 = u64 [sp + 0x48]\n 62437: u64 [sp + 0xa8] = a2\n 62441: ra = 2316, jump @19\n      : @2212 [@dyn 1158] (gas: 8)\n 62448: a0 = u64 [sp + 0x20]\n 62451: a0 = a0 + 0xffffffffffffffc0\n 62454: a0 = s1 <u a0\n 62457: a1 = u64 [sp + 0x68]\n 62460: a0 = 0 if a1 != 0\n 62462: a1 = u64 [sp + 0x28]\n 62465: a0 = 0 if a1 != 0\n 62467: jump @2215 if a0 == 0\n      : @2213 (gas: 26)\n 62471: a0 = s1 + 0x60\n 62474: u64 [sp + 0x48] = a0\n 62477: a0 = a0 <u s1\n 62480: a1 = u64 [sp + 0x68]\n 62483: a2 = a1 + a0\n 62486: u64 [sp + 0x40] = a2\n 62489: a1 = a2 <u a1\n 62492: a1 = a0 if a0 == 0\n 62495: a0 = u64 [sp + 0x60]\n 62498: a1 = a1 + a0\n 62501: u64 [sp + 0x38] = a1\n 62504: a0 = a1 <u a0\n 62507: a1 = u64 [sp + 0x58]\n 62510: a0 = a0 + a1\n 62513: u64 [sp + 0x68] = a0\n 62516: i32 a0 = s1 + 0x40\n 62519: a1 = u64 [sp]\n 62521: u64 [sp + 0x70] = a1\n 62524: a1 = u64 [sp + 0x8]\n 62527: u64 [sp + 0x78] = a1\n 62530: a1 = u64 [sp + 0x10]\n 62533: u64 [sp + 0x80] = a1\n 62537: a1 = sp + 0x70\n 62540: a2 = u64 [sp + 0x18]\n 62543: u64 [sp + 0x88] = a2\n 62547: ra = 2318, jump @19\n      : @2214 [@dyn 1159] (gas: 15)\n 62554: a0 = u64 [sp + 0x50]\n 62557: a1 = u64 [sp + 0x38]\n 62560: u64 [a0 + 0x10] = a1\n 62563: a1 = u64 [sp + 0x40]\n 62566: u64 [a0 + 0x8] = a1\n 62569: a1 = u64 [sp + 0x48]\n 62572: u64 [a0] = a1\n 62574: a1 = u64 [sp + 0x68]\n 62577: u64 [a0 + 0x18] = a1\n 62580: sp = s0 + 0xffffffffffffff10\n 62584: ra = u64 [sp + 0xe8]\n 62588: s0 = u64 [sp + 0xe0]\n 62592: s1 = u64 [sp + 0xd8]\n 62596: sp = sp + 0xf0\n 62600: ret\n      : @2215 (gas: 1)\n 62602: trap\n      : @2216 (gas: 30)\n 62603: sp = sp + 0xffffffffffffff80\n 62606: u64 [sp + 0x78] = ra\n 62609: u64 [sp + 0x70] = s0\n 62612: u64 [sp + 0x68] = s1\n 62615: s0 = sp + 0x80\n 62619: sp = sp & 0xfffffffffffffff0\n 62622: a4 = u64 [a2]\n 62624: a3 = u64 [a1]\n 62626: s1 = u64 [a2 + 0x8]\n 62629: t1 = u64 [a1 + 0x8]\n 62632: t2 = u64 [a2 + 0x10]\n 62635: a5 = u64 [a1 + 0x10]\n 62638: a2 = u64 [a2 + 0x18]\n 62641: a1 = u64 [a1 + 0x18]\n 62644: t0 = t1 ^ s1\n 62647: u64 [sp + 0x8] = s1\n 62650: s1 = t1 <u s1\n 62653: u64 [sp + 0x18] = a4\n 62656: u64 [sp + 0x10] = a3\n 62659: a3 = a3 <u a4\n 62662: u64 [sp] = a3\n 62664: s1 = a3 if t0 == 0\n 62667: a3 = a1 ^ a2\n 62670: ra = a1 <u a2\n 62673: t0 = a5 <u t2\n 62676: ra = t0 if a3 == 0\n 62679: a4 = a5 ^ t2\n 62682: a3 = a3 | a4\n 62685: ra = s1 if a3 == 0\n 62688: jump @2218 if ra != 0\n      : @2217 (gas: 23)\n 62691: a3 = a5 - t2\n 62694: a1 = a1 - a2\n 62697: a1 = a1 - t0\n 62700: a2 = a3 <u s1\n 62703: a1 = a1 - a2\n 62706: a3 = a3 - s1\n 62709: a2 = u64 [sp + 0x8]\n 62712: a2 = t1 - a2\n 62715: a4 = u64 [sp]\n 62717: a2 = a2 - a4\n 62720: a4 = u64 [sp + 0x18]\n 62723: a5 = u64 [sp + 0x10]\n 62726: a4 = a5 - a4\n 62729: u64 [a0] = a4\n 62731: u64 [a0 + 0x8] = a2\n 62734: u64 [a0 + 0x10] = a3\n 62737: u64 [a0 + 0x18] = a1\n 62740: sp = s0 + 0xffffffffffffff80\n 62743: ra = u64 [sp + 0x78]\n 62746: s0 = u64 [sp + 0x70]\n 62749: s1 = u64 [sp + 0x68]\n 62752: sp = sp + 0x80\n 62756: ret\n      : @2218 (gas: 6)\n 62758: u64 [sp + 80] = 0\n 62761: u64 [sp + 72] = 0\n 62764: u64 [sp + 64] = 0\n 62767: t0 = 0x910\n 62771: a0 = 0x4e487b7100000000\n 62781: fallthrough\n      : @2219 [@dyn 1160] (gas: 4)\n 62782: a1 = sp + 0x40\n 62785: u64 [sp + 0x58] = a0\n 62788: a0 = 0\n 62790: ra = 2322, jump @19\n      : @2220 [@dyn 1161] (gas: 7)\n 62797: u64 [sp + 56] = 0\n 62800: u64 [sp + 48] = 0\n 62803: u64 [sp + 32] = 0x11\n 62807: a0 = 0x4\n 62810: a1 = sp + 0x20\n 62813: u64 [sp + 40] = 0\n 62816: ra = 2324, jump @19\n      : @2221 [@dyn 1162] (gas: 2)\n 62823: a1 = i32 [0x2019c]\n 62828: jump @2223 if a1 >u 63\n      : @2222 (gas: 2)\n 62832: u32 [0x2019c] = 0x40\n 62838: fallthrough\n      : @2223 (gas: 7)\n 62839: a1 = 0x201b0\n 62844: i32 a1 = a1 + 0\n 62846: a0 = 0x1\n 62849: a2 = 0x24\n 62852: ra = 0x916\n 62856: ecalli 11 // 'seal_return'\n 62858: fallthrough\n      : @2224 [@dyn 1163] (gas: 18)\n 62859: sp = sp + 0xffffffffffffff40\n 62863: u64 [sp + 0xb8] = ra\n 62867: u64 [sp + 0xb0] = s0\n 62871: u64 [sp + 0xa8] = s1\n 62875: s0 = sp + 0xc0\n 62879: sp = sp & 0xffffffffffffffe0\n 62882: s1 = sp\n 62884: a2 = u64 [a1]\n 62886: a3 = u64 [a1 + 0x8]\n 62889: a1 = u32 [a1 + 0x10]\n 62892: u64 [s1 + 0x18] = a0\n 62895: u64 [s1 + 120] = 0\n 62898: u64 [s1 + 0x70] = a1\n 62901: u64 [s1 + 0x68] = a3\n 62904: a1 = s1 + 0x60\n 62907: u64 [s1 + 0x60] = a2\n 62910: a0 = 0\n 62912: ra = 2328, jump @19\n      : @2225 [@dyn 1164] (gas: 7)\n 62919: u64 [s1 + 88] = 0\n 62922: u64 [s1 + 80] = 0\n 62925: u64 [s1 + 72] = 0\n 62928: a0 = 0x20\n 62931: a1 = s1 + 0x40\n 62934: u64 [s1 + 64] = 0\n 62937: ra = 2330, jump @19\n      : @2226 [@dyn 1165] (gas: 2)\n 62944: a1 = i32 [0x2019c]\n 62949: jump @2228 if a1 >u 63\n      : @2227 (gas: 2)\n 62953: u32 [0x2019c] = 0x40\n 62959: fallthrough\n      : @2228 (gas: 11)\n 62960: a0 = sp + 0xffffffffffffffe0\n 62963: a2 = a0 & 0xffffffffffffffe0\n 62966: u64 [s1 + 0x10] = a2\n 62969: sp = a2\n 62971: a0 = 0x201b0\n 62976: i32 a0 = a0 + 0\n 62978: i32 a2 = a2 + 0\n 62980: a1 = 0x40\n 62983: ra = 0x91c\n 62987: ecalli 7 // 'hash_keccak_256'\n 62989: fallthrough\n      : @2229 [@dyn 1166] (gas: 7)\n 62990: a3 = u64 [s1 + 0x10]\n 62993: a0 = u64 [a3 + 0x18]\n 62996: a1 = u64 [a3 + 0x10]\n 62999: a2 = u64 [a3 + 0x8]\n 63002: a3 = u64 [a3]\n 63004: a0 = reverse a0\n 63006: t0 = 2334, jump @2361\n      : @2230 [@dyn 1167] (gas: 7)\n 63012: u64 [s1 + 0x98] = a3\n 63016: u64 [s1 + 0x90] = a2\n 63020: u64 [s1 + 0x88] = a1\n 63024: u64 [s1 + 0x80] = a0\n 63028: a0 = s1 + 0x20\n 63031: a1 = s1 + 0x80\n 63035: ra = 2336, jump @21\n      : @2231 [@dyn 1168] (gas: 15)\n 63042: a0 = u64 [s1 + 0x30]\n 63045: a1 = u64 [s1 + 0x38]\n 63048: a2 = u64 [s1 + 0x20]\n 63051: a3 = u64 [s1 + 0x28]\n 63054: a4 = u64 [s1 + 0x18]\n 63057: u64 [a4 + 0x10] = a0\n 63060: u64 [a4 + 0x18] = a1\n 63063: u64 [a4] = a2\n 63065: u64 [a4 + 0x8] = a3\n 63068: sp = s0 + 0xffffffffffffff40\n 63072: ra = u64 [sp + 0xb8]\n 63076: s0 = u64 [sp + 0xb0]\n 63080: s1 = u64 [sp + 0xa8]\n 63084: sp = sp + 0xc0\n 63088: ret\n      : @2232 (gas: 10)\n 63090: a4 = u64 [a1 + 0x18]\n 63093: a3 = u64 [a1 + 0x10]\n 63096: t1 = u64 [a1 + 0x8]\n 63099: t0 = a4 >u 0\n 63101: a5 = a3 >u 0\n 63103: a5 = t0 if a4 != 0\n 63106: t0 = a3 | a4\n 63109: a2 = t1 >u 0\n 63111: a2 = a5 if t0 != 0\n 63114: jump @2234 if a2 != 0\n      : @2233 (gas: 24)\n 63117: a1 = u64 [a1]\n 63119: a2 = a3 >> 0x3b\n 63122: a4 = a4 << 0x5\n 63125: t0 = a4 | a2\n 63128: a4 = t1 >> 0x3b\n 63131: a3 = a3 << 0x5\n 63134: a3 = a3 | a4\n 63137: a4 = a1 >> 0x3b\n 63140: t1 = t1 << 0x5\n 63143: a4 = t1 | a4\n 63146: a1 = a1 << 0x5\n 63149: a5 = a1 + 0x20\n 63152: a1 = a5 <u a1\n 63155: a2 = a4 + a1\n 63158: a4 = a2 <u a4\n 63161: a4 = a1 if a1 == 0\n 63164: a4 = a4 + a3\n 63167: a1 = a4 <u a3\n 63170: a1 = a1 + t0\n 63173: u64 [a0] = a5\n 63175: u64 [a0 + 0x8] = a2\n 63178: u64 [a0 + 0x10] = a4\n 63181: u64 [a0 + 0x18] = a1\n 63184: ret\n      : @2234 (gas: 6)\n 63186: sp = sp + 0xffffffffffffffb0\n 63189: u64 [sp + 0x48] = ra\n 63192: u64 [sp + 0x40] = s0\n 63195: s0 = sp + 0x50\n 63198: sp = sp & 0xfffffffffffffff0\n 63201: t0 = 2338, jump @2372\n      : @2235 [@dyn 1169] (gas: 1)\n 63207: ra = 2340, jump @19\n      : @2236 [@dyn 1170] (gas: 7)\n 63214: u64 [sp + 24] = 0\n 63217: u64 [sp + 16] = 0\n 63220: u64 [sp + 0] = 0x41\n 63223: a0 = 0x4\n 63226: a1 = sp\n 63228: u64 [sp + 8] = 0\n 63231: ra = 2342, jump @19\n      : @2237 [@dyn 1171] (gas: 2)\n 63238: a1 = i32 [0x2019c]\n 63243: jump @2239 if a1 >u 63\n      : @2238 (gas: 2)\n 63247: u32 [0x2019c] = 0x40\n 63253: fallthrough\n      : @2239 (gas: 7)\n 63254: a1 = 0x201b0\n 63259: i32 a1 = a1 + 0\n 63261: a0 = 0x1\n 63264: a2 = 0x24\n 63267: ra = 0x928\n 63271: ecalli 11 // 'seal_return'\n 63273: fallthrough\n      : @2240 [@dyn 1172] (gas: 45)\n 63274: sp = sp + 0xffffffffffffff90\n 63277: u64 [sp + 0x68] = ra\n 63280: u64 [sp + 0x60] = s0\n 63283: u64 [sp + 0x58] = s1\n 63286: s0 = sp + 0x70\n 63289: sp = sp & 0xfffffffffffffff0\n 63292: a3 = u64 [a1 + 0x18]\n 63295: u64 [sp + 0x8] = a3\n 63298: a4 = u64 [a2 + 0x18]\n 63301: t2 = u64 [a1]\n 63303: u64 [sp] = t2\n 63305: a3 = u64 [a1 + 0x8]\n 63308: s1 = u64 [a2 + 0x8]\n 63311: a5 = u64 [a2]\n 63313: t1 = u64 [a1 + 0x10]\n 63316: t0 = u64 [a2 + 0x10]\n 63319: a2 = s1 + a3\n 63322: t2 = t2 + a5\n 63325: a5 = t2 <u a5\n 63328: a2 = a2 + a5\n 63331: ra = a2 ^ s1\n 63334: s1 = a2 <u s1\n 63337: s1 = a5 if ra == 0\n 63340: a1 = t0 + t1\n 63343: a5 = u64 [sp + 0x8]\n 63346: a5 = a5 + a4\n 63349: a4 = a1 <u t0\n 63352: a4 = a4 + a5\n 63355: a5 = a1 + s1\n 63358: a1 = a5 <u a1\n 63361: ra = a4 + a1\n 63364: a4 = a2 ^ a3\n 63367: a3 = a2 <u a3\n 63370: a1 = u64 [sp]\n 63372: s1 = t2 <u a1\n 63375: s1 = a3 if a4 != 0\n 63378: t0 = a5 <u t1\n 63381: a1 = u64 [sp + 0x8]\n 63384: a4 = ra ^ a1\n 63387: a3 = ra <u a1\n 63390: a3 = t0 if a4 == 0\n 63393: a1 = a5 ^ t1\n 63396: a1 = a1 | a4\n 63399: s1 = a3 if a1 != 0\n 63402: jump @2242 if s1 != 0\n      : @2241 (gas: 10)\n 63405: u64 [a0] = t2\n 63407: u64 [a0 + 0x8] = a2\n 63410: u64 [a0 + 0x10] = a5\n 63413: u64 [a0 + 0x18] = ra\n 63416: sp = s0 + 0xffffffffffffff90\n 63419: ra = u64 [sp + 0x68]\n 63422: s0 = u64 [sp + 0x60]\n 63425: s1 = u64 [sp + 0x58]\n 63428: sp = sp + 0x70\n 63431: ret\n      : @2242 (gas: 1)\n 63433: t0 = 2346, jump @2426\n      : @2243 [@dyn 1173] (gas: 1)\n 63439: ra = 2348, jump @19\n      : @2244 [@dyn 1174] (gas: 7)\n 63446: u64 [sp + 40] = 0\n 63449: u64 [sp + 32] = 0\n 63452: u64 [sp + 16] = 0x11\n 63456: a0 = 0x4\n 63459: a1 = sp + 0x10\n 63462: u64 [sp + 24] = 0\n 63465: ra = 2350, jump @19\n      : @2245 [@dyn 1175] (gas: 2)\n 63472: a1 = i32 [0x2019c]\n 63477: jump @2247 if a1 >u 63\n      : @2246 (gas: 2)\n 63481: u32 [0x2019c] = 0x40\n 63487: fallthrough\n      : @2247 (gas: 7)\n 63488: a1 = 0x201b0\n 63493: i32 a1 = a1 + 0\n 63495: a0 = 0x1\n 63498: a2 = 0x24\n 63501: ra = 0x930\n 63505: ecalli 11 // 'seal_return'\n 63507: fallthrough\n      : @2248 [@dyn 1176] (gas: 14)\n 63508: sp = sp + 0xfffffffffffffc20\n 63512: a3 = sp + 0x300\n 63516: u64 [a3 + 0xd8] = ra\n 63520: u64 [a3 + 0xd0] = s0\n 63524: u64 [a3 + 0xc8] = s1\n 63528: s0 = sp + 0x3e0\n 63532: sp = sp & 0xffffffffffffffe0\n 63535: s1 = sp\n 63537: t2 = u32 [a0 + 0x10]\n 63540: a3 = u64 [a0]\n 63542: a4 = u64 [a0 + 0x8]\n 63545: a0 = a3 | t2\n 63548: a0 = a0 | a4\n 63551: jump @2280 if a0 == 0\n      : @2249 (gas: 13)\n 63555: t0 = u64 [a1 + 0x10]\n 63558: t1 = u64 [a1 + 0x8]\n 63561: ra = u64 [a1]\n 63563: a5 = 0xffffffff\n 63573: a1 = t1 & 0xffffffffffffffff\n 63576: a0 = ra & 0xffffffffffffffff\n 63579: a5 = t0 & a5\n 63582: u64 [s1 + 0x48] = a0\n 63585: u64 [s1 + 0x38] = a5\n 63588: a0 = a0 | a5\n 63591: u64 [s1 + 0x40] = a1\n 63594: a0 = a0 | a1\n 63597: jump @2285 if a0 == 0\n      : @2250 (gas: 18)\n 63601: a0 = u64 [a2 + 0x18]\n 63604: u64 [s1 + 0x98] = a0\n 63608: a0 = u64 [a2 + 0x10]\n 63611: u64 [s1 + 0x88] = a0\n 63615: a0 = u64 [a2 + 0x8]\n 63618: u64 [s1 + 0x80] = a0\n 63622: a0 = u64 [a2]\n 63624: u64 [s1 + 0x90] = a0\n 63628: u64 [s1 + 824] = 0\n 63632: u64 [s1 + 0x60] = a3\n 63635: u64 [s1 + 0x320] = a3\n 63639: u64 [s1 + 0x58] = a4\n 63642: u64 [s1 + 0x328] = a4\n 63646: a1 = s1 + 0x320\n 63650: u64 [s1 + 0x50] = t2\n 63653: u64 [s1 + 0x330] = t2\n 63657: a0 = 0\n 63659: ra = 2354, jump @19\n      : @2251 [@dyn 1177] (gas: 7)\n 63666: u64 [s1 + 792] = 0\n 63670: u64 [s1 + 784] = 0\n 63674: u64 [s1 + 776] = 0\n 63678: a0 = 0x20\n 63681: a1 = s1 + 0x300\n 63685: u64 [s1 + 768] = 0\n 63689: ra = 2356, jump @19\n      : @2252 [@dyn 1178] (gas: 3)\n 63696: a2 = 0x2019c\n 63701: a0 = i32 [0x2019c]\n 63706: jump @2254 if a0 >u 63\n      : @2253 (gas: 2)\n 63710: u32 [0x2019c] = 0x40\n 63716: fallthrough\n      : @2254 (gas: 15)\n 63717: u64 [s1 + 0x70] = a2\n 63720: a0 = sp + 0xffffffffffffffe0\n 63723: a2 = a0 & 0xffffffffffffffe0\n 63726: u64 [s1 + 0x68] = a2\n 63729: sp = a2\n 63731: a0 = 0x201b0\n 63736: i32 a0 = a0 + 0\n 63738: i32 a2 = a2 + 0\n 63740: a1 = 0x40\n 63743: u64 [s1 + 0x78] = a0\n 63746: ra = 0x936\n 63750: ecalli 7 // 'hash_keccak_256'\n 63752: a3 = u64 [s1 + 0x68]\n 63755: t0 = 0x938\n 63759: jump @2398\n      : @2255 [@dyn 1179] (gas: 2)\n 63762: a3 = u64 [s1 + 0x68]\n 63765: t0 = 2360, jump @2398\n      : @2256 [@dyn 1180] (gas: 7)\n 63771: u64 [a4 + 0x58] = a3\n 63774: u64 [a4 + 0x50] = a2\n 63777: u64 [a4 + 0x48] = a1\n 63780: u64 [a4 + 0x40] = a0\n 63783: a0 = s1 + 0x2e0\n 63787: a1 = s1 + 0x340\n 63791: ra = 2362, jump @21\n      : @2257 [@dyn 1181] (gas: 28)\n 63798: a1 = s1 + 0x200\n 63802: a2 = u64 [a1 + 0xf8]\n 63806: a0 = u64 [a1 + 0xf0]\n 63810: a5 = u64 [a1 + 0xe8]\n 63814: a4 = u64 [a1 + 0xe0]\n 63818: a1 = u64 [s1 + 0x98]\n 63822: t1 = a2 ^ a1\n 63825: u64 [s1 + 0x28] = a2\n 63828: a1 = a2 <u a1\n 63831: a2 = u64 [s1 + 0x88]\n 63835: a3 = a0 <u a2\n 63838: u64 [s1 + 0x10] = a3\n 63841: a1 = a3 if t1 == 0\n 63844: a3 = u64 [s1 + 0x80]\n 63848: t0 = a5 ^ a3\n 63851: u64 [s1 + 0x30] = a5\n 63854: a5 = a5 <u a3\n 63857: a3 = u64 [s1 + 0x90]\n 63861: u64 [s1 + 0x68] = a4\n 63864: a3 = a4 <u a3\n 63867: u64 [s1 + 0x18] = a3\n 63870: a5 = a3 if t0 == 0\n 63873: u64 [s1 + 0x20] = a0\n 63876: a2 = a2 ^ a0\n 63879: a0 = a2 | t1\n 63882: u64 [s1 + 0x8] = a5\n 63885: a1 = a5 if a0 == 0\n 63888: jump @2291 if a1 != 0\n      : @2258 (gas: 11)\n 63892: u64 [s1 + 728] = 0\n 63896: a0 = u64 [s1 + 0x60]\n 63899: a2 = s1 + 0x200\n 63903: u64 [a2 + 0xc0] = a0\n 63907: a0 = u64 [s1 + 0x58]\n 63910: u64 [a2 + 0xc8] = a0\n 63914: a1 = s1 + 0x2c0\n 63918: a0 = u64 [s1 + 0x50]\n 63921: u64 [a2 + 0xd0] = a0\n 63925: a0 = 0\n 63927: ra = 2364, jump @19\n      : @2259 [@dyn 1182] (gas: 7)\n 63934: u64 [s1 + 696] = 0\n 63938: u64 [s1 + 688] = 0\n 63942: u64 [s1 + 680] = 0\n 63946: a0 = 0x20\n 63949: a1 = s1 + 0x2a0\n 63953: u64 [s1 + 672] = 0\n 63957: ra = 2366, jump @19\n      : @2260 [@dyn 1183] (gas: 27)\n 63964: a0 = u64 [s1 + 0x88]\n 63968: a1 = u64 [s1 + 0x20]\n 63971: a0 = a1 - a0\n 63974: a2 = u64 [s1 + 0x8]\n 63977: a1 = a0 - a2\n 63980: u64 [s1 + 0x20] = a1\n 63983: a0 = a0 <u a2\n 63986: a1 = u64 [s1 + 0x98]\n 63990: a2 = u64 [s1 + 0x28]\n 63993: a1 = a2 - a1\n 63996: a2 = u64 [s1 + 0x10]\n 63999: a1 = a1 - a2\n 64002: a1 = a1 - a0\n 64005: u64 [s1 + 0x28] = a1\n 64008: a2 = u64 [s1 + 0x70]\n 64011: a0 = i32 [a2]\n 64013: a1 = u64 [s1 + 0x80]\n 64017: a3 = u64 [s1 + 0x30]\n 64020: a1 = a3 - a1\n 64023: a3 = u64 [s1 + 0x18]\n 64026: a1 = a1 - a3\n 64029: u64 [s1 + 0x30] = a1\n 64032: a1 = u64 [s1 + 0x90]\n 64036: a3 = u64 [s1 + 0x68]\n 64039: a3 = a3 - a1\n 64042: u64 [s1 + 0x68] = a3\n 64045: jump @2262 if a0 >u 63\n      : @2261 (gas: 2)\n 64049: u32 [a2 + 0] = 0x40\n 64052: fallthrough\n      : @2262 (gas: 12)\n 64053: a0 = sp + 0xffffffffffffffe0\n 64056: a0 = a0 & 0xffffffffffffffe0\n 64059: u64 [s1 + 0x18] = a0\n 64062: sp = a0\n 64064: i32 a2 = a0 + 0\n 64066: a1 = 0x40\n 64069: a0 = u64 [s1 + 0x78]\n 64072: ra = 0x940\n 64076: ecalli 7 // 'hash_keccak_256'\n 64078: a3 = u64 [s1 + 0x18]\n 64081: t0 = 0x942\n 64085: jump @2398\n      : @2263 [@dyn 1184] (gas: 2)\n 64088: a3 = u64 [s1 + 0x18]\n 64091: t0 = 2370, jump @2398\n      : @2264 [@dyn 1185] (gas: 15)\n 64097: u64 [a4 + 0x78] = a3\n 64100: u64 [a4 + 0x70] = a2\n 64103: u64 [a4 + 0x68] = a1\n 64106: u64 [a4 + 0x60] = a0\n 64109: a0 = u64 [s1 + 0x28]\n 64112: u64 [a4 + 0x98] = a0\n 64116: a0 = u64 [s1 + 0x20]\n 64119: u64 [a4 + 0x90] = a0\n 64123: a0 = u64 [s1 + 0x30]\n 64126: u64 [a4 + 0x88] = a0\n 64130: a0 = u64 [s1 + 0x68]\n 64133: u64 [a4 + 0x80] = a0\n 64137: a0 = s1 + 0x360\n 64141: a1 = s1 + 0x380\n 64145: ra = 2372, jump @25\n      : @2265 [@dyn 1186] (gas: 11)\n 64152: u64 [s1 + 664] = 0\n 64156: a0 = u64 [s1 + 0x38]\n 64159: a2 = s1 + 0x200\n 64163: u64 [a2 + 0x90] = a0\n 64167: a0 = u64 [s1 + 0x40]\n 64170: u64 [a2 + 0x88] = a0\n 64174: a1 = s1 + 0x280\n 64178: a0 = u64 [s1 + 0x48]\n 64181: u64 [a2 + 0x80] = a0\n 64185: a0 = 0\n 64187: ra = 2374, jump @19\n      : @2266 [@dyn 1187] (gas: 7)\n 64194: u64 [s1 + 632] = 0\n 64198: u64 [s1 + 624] = 0\n 64202: u64 [s1 + 616] = 0\n 64206: a0 = 0x20\n 64209: a1 = s1 + 0x260\n 64213: u64 [s1 + 608] = 0\n 64217: ra = 2376, jump @19\n      : @2267 [@dyn 1188] (gas: 7)\n 64224: a1 = u64 [s1 + 0x70]\n 64227: a0 = sp + 0xffffffffffffffe0\n 64230: a0 = a0 & 0xffffffffffffffe0\n 64233: u64 [s1 + 0x68] = a0\n 64236: sp = a0\n 64238: a0 = i32 [a1]\n 64240: jump @2269 if a0 >u 63\n      : @2268 (gas: 2)\n 64244: u32 [a1 + 0] = 0x40\n 64247: fallthrough\n      : @2269 (gas: 12)\n 64248: a0 = sp + 0xffffffffffffffe0\n 64251: a0 = a0 & 0xffffffffffffffe0\n 64254: u64 [s1 + 0x70] = a0\n 64257: sp = a0\n 64259: i32 a2 = a0 + 0\n 64261: a1 = 0x40\n 64264: a0 = u64 [s1 + 0x78]\n 64267: ra = 0x94a\n 64271: ecalli 7 // 'hash_keccak_256'\n 64273: a3 = u64 [s1 + 0x70]\n 64276: t0 = 0x94c\n 64280: jump @2336\n      : @2270 [@dyn 1189] (gas: 2)\n 64283: a3 = u64 [s1 + 0x70]\n 64286: t0 = 2380, jump @2336\n      : @2271 [@dyn 1190] (gas: 7)\n 64292: a1 = u64 [s1 + 0x68]\n 64295: u64 [a1 + 0x18] = a3\n 64298: u64 [a1 + 0x10] = a2\n 64301: u64 [a1 + 0x8] = a4\n 64304: u64 [a1] = a0\n 64306: a0 = s1 + 0x240\n 64310: ra = 2382, jump @21\n      : @2272 [@dyn 1191] (gas: 30)\n 64317: a0 = u64 [s1 + 0x248]\n 64321: a1 = u64 [s1 + 0x240]\n 64325: t0 = u64 [s1 + 0x258]\n 64329: a3 = u64 [s1 + 0x250]\n 64333: a4 = u64 [s1 + 0x80]\n 64337: a4 = a4 + a0\n 64340: a5 = u64 [s1 + 0x90]\n 64344: a5 = a5 + a1\n 64347: a1 = a5 <u a1\n 64350: a4 = a4 + a1\n 64353: a2 = a4 ^ a0\n 64356: a0 = a4 <u a0\n 64359: a0 = a1 if a2 == 0\n 64362: a1 = u64 [s1 + 0x88]\n 64366: a1 = a1 + a3\n 64369: a2 = u64 [s1 + 0x98]\n 64373: t0 = t0 + a2\n 64376: a2 = a1 <u a3\n 64379: a2 = a2 + t0\n 64382: a0 = a0 + a1\n 64385: a1 = a0 <u a1\n 64388: a1 = a1 + a2\n 64391: a2 = s1 + 0x300\n 64395: u64 [a2 + 0xa0] = a5\n 64399: u64 [a2 + 0xa8] = a4\n 64403: u64 [a2 + 0xb0] = a0\n 64407: u64 [a2 + 0xb8] = a1\n 64411: a1 = s1 + 0x3a0\n 64415: a0 = u64 [s1 + 0x68]\n 64418: ra = 2384, jump @25\n      : @2273 [@dyn 1192] (gas: 3)\n 64425: a0 = s1 + 0x220\n 64429: a1 = 0x40\n 64432: ra = 2386, jump @17\n      : @2274 [@dyn 1193] (gas: 6)\n 64439: a4 = s1 + 0x200\n 64443: a3 = u64 [a4 + 0x38]\n 64446: a1 = u64 [a4 + 0x30]\n 64449: a2 = u64 [a4 + 0x28]\n 64452: a0 = u64 [a4 + 0x20]\n 64455: t0 = 2388, jump @2380\n      : @2275 [@dyn 1194] (gas: 1)\n 64461: jump @2279 if a1 != 0\n      : @2276 (gas: 12)\n 64465: a1 = u64 [s1 + 0x90]\n 64469: a3 = s1 + 0x200\n 64473: u64 [a3] = a1\n 64475: a1 = u64 [s1 + 0x80]\n 64479: u64 [a3 + 0x8] = a1\n 64482: a1 = u64 [s1 + 0x88]\n 64486: u64 [a3 + 0x10] = a1\n 64489: a1 = s1 + 0x200\n 64493: a2 = u64 [s1 + 0x98]\n 64497: u64 [a3 + 0x18] = a2\n 64500: u64 [s1 + 0x98] = a0\n 64504: ra = 2390, jump @19\n      : @2277 [@dyn 1195] (gas: 29)\n 64511: u64 [s1 + 440] = 0\n 64515: a0 = u64 [s1 + 0x38]\n 64518: a5 = s1 + 0x100\n 64522: u64 [a5 + 0xb0] = a0\n 64526: a0 = u64 [s1 + 0x40]\n 64529: u64 [a5 + 0xa8] = a0\n 64533: a0 = u64 [s1 + 0x48]\n 64536: u64 [a5 + 0xa0] = a0\n 64540: u64 [s1 + 472] = 0\n 64544: a0 = u64 [s1 + 0x50]\n 64547: u64 [a5 + 0xd0] = a0\n 64551: a0 = u64 [s1 + 0x58]\n 64554: u64 [a5 + 0xc8] = a0\n 64558: a0 = u64 [0x20158]\n 64563: a1 = u64 [0x20160]\n 64568: a2 = u64 [0x20168]\n 64573: a3 = u64 [s1 + 0x60]\n 64576: u64 [a5 + 0xc0] = a3\n 64580: u64 [a5 + 0xf8] = a0\n 64584: u64 [a5 + 0xf0] = a1\n 64588: u64 [a5 + 0xe8] = a2\n 64592: a0 = u64 [0x20170]\n 64597: a1 = 0x20\n 64600: a2 = s1 + 0x1e0\n 64604: a3 = s1 + 0x1c0\n 64608: a4 = s1 + 0x1a0\n 64612: u64 [a5 + 0xe0] = a0\n 64616: a0 = u64 [s1 + 0x98]\n 64620: ra = 2392, jump @28\n      : @2278 [@dyn 1196] (gas: 7)\n 64627: sp = s0 + 0xfffffffffffffc20\n 64631: a0 = sp + 0x300\n 64635: ra = u64 [a0 + 0xd8]\n 64639: s0 = u64 [a0 + 0xd0]\n 64643: s1 = u64 [a0 + 0xc8]\n 64647: sp = sp + 0x3e0\n 64651: ret\n      : @2279 (gas: 1)\n 64653: trap\n      : @2280 (gas: 8)\n 64654: u64 [s1 + 208] = 0\n 64658: u64 [s1 + 200] = 0\n 64662: u64 [s1 + 192] = 0\n 64666: a0 = 0x96c6fd1e00000000\n 64676: a1 = s1 + 0xc0\n 64680: u64 [s1 + 0xd8] = a0\n 64684: a0 = 0\n 64686: ra = 2394, jump @19\n      : @2281 [@dyn 1197] (gas: 7)\n 64693: u64 [s1 + 184] = 0\n 64697: u64 [s1 + 176] = 0\n 64701: u64 [s1 + 168] = 0\n 64705: a0 = 0x4\n 64708: a1 = s1 + 0xa0\n 64712: u64 [s1 + 160] = 0\n 64716: ra = 2396, jump @19\n      : @2282 [@dyn 1198] (gas: 2)\n 64723: a1 = i32 [0x2019c]\n 64728: jump @2284 if a1 >u 63\n      : @2283 (gas: 3)\n 64732: u32 [0x2019c] = 0x40\n 64738: a1 = 0x201b0\n 64743: jump @2290\n      : @2284 (gas: 2)\n 64745: a1 = 0x201b0\n 64750: jump @2290\n      : @2285 (gas: 8)\n 64752: u64 [s1 + 272] = 0\n 64756: u64 [s1 + 264] = 0\n 64760: u64 [s1 + 256] = 0\n 64764: a0 = 0xec442f0500000000\n 64774: a1 = s1 + 0x100\n 64778: u64 [s1 + 0x118] = a0\n 64782: a0 = 0\n 64784: ra = 2398, jump @19\n      : @2286 [@dyn 1199] (gas: 7)\n 64791: u64 [s1 + 248] = 0\n 64795: u64 [s1 + 240] = 0\n 64799: u64 [s1 + 232] = 0\n 64803: a0 = 0x4\n 64806: a1 = s1 + 0xe0\n 64810: u64 [s1 + 224] = 0\n 64814: ra = 2400, jump @19\n      : @2287 [@dyn 1200] (gas: 2)\n 64821: a1 = i32 [0x2019c]\n 64826: jump @2289 if a1 >u 63\n      : @2288 (gas: 3)\n 64830: u32 [0x2019c] = 0x40\n 64836: a1 = 0x201b0\n 64841: jump @2290\n      : @2289 (gas: 2)\n 64843: a1 = 0x201b0\n 64848: fallthrough\n      : @2290 (gas: 5)\n 64849: i32 a1 = a1 + 0\n 64851: a0 = 0x1\n 64854: a2 = 0x24\n 64857: ecalli 11 // 'seal_return'\n 64859: fallthrough\n      : @2291 (gas: 8)\n 64860: u64 [s1 + 400] = 0\n 64864: u64 [s1 + 392] = 0\n 64868: u64 [s1 + 384] = 0\n 64872: a0 = 0xe450d38c00000000\n 64882: a1 = s1 + 0x180\n 64886: u64 [s1 + 0x198] = a0\n 64890: a0 = 0\n 64892: ra = 2402, jump @19\n      : @2292 [@dyn 1201] (gas: 10)\n 64899: u64 [s1 + 376] = 0\n 64903: a0 = u64 [s1 + 0x50]\n 64906: u64 [s1 + 0x170] = a0\n 64910: a0 = u64 [s1 + 0x58]\n 64913: u64 [s1 + 0x168] = a0\n 64917: a0 = 0x4\n 64920: a1 = s1 + 0x160\n 64924: a2 = u64 [s1 + 0x60]\n 64927: u64 [s1 + 0x160] = a2\n 64931: ra = 2404, jump @19\n      : @2293 [@dyn 1202] (gas: 11)\n 64938: a0 = u64 [s1 + 0x28]\n 64941: u64 [s1 + 0x158] = a0\n 64945: a0 = u64 [s1 + 0x20]\n 64948: u64 [s1 + 0x150] = a0\n 64952: a0 = u64 [s1 + 0x30]\n 64955: u64 [s1 + 0x148] = a0\n 64959: a0 = 0x24\n 64962: a1 = s1 + 0x140\n 64966: a2 = u64 [s1 + 0x68]\n 64969: u64 [s1 + 0x140] = a2\n 64973: ra = 2406, jump @19\n      : @2294 [@dyn 1203] (gas: 12)\n 64980: a0 = u64 [s1 + 0x98]\n 64984: a3 = s1 + 0x100\n 64988: u64 [a3 + 0x38] = a0\n 64991: a0 = u64 [s1 + 0x88]\n 64995: u64 [a3 + 0x30] = a0\n 64998: a0 = u64 [s1 + 0x80]\n 65002: u64 [a3 + 0x28] = a0\n 65005: a0 = 0x44\n 65008: a1 = s1 + 0x120\n 65012: a2 = u64 [s1 + 0x90]\n 65016: u64 [a3 + 0x20] = a2\n 65019: ra = 2408, jump @19\n      : @2295 [@dyn 1204] (gas: 3)\n 65026: a0 = u64 [s1 + 0x70]\n 65029: a0 = i32 [a0]\n 65031: jump @2297 if a0 >u 127\n      : @2296 (gas: 3)\n 65035: a1 = u64 [s1 + 0x70]\n 65038: u32 [a1 + 0] = 0x80\n 65042: fallthrough\n      : @2297 (gas: 6)\n 65043: a0 = 0x1\n 65046: a2 = 0x64\n 65049: a1 = u64 [s1 + 0x78]\n 65052: ra = 0x96a\n 65056: ecalli 11 // 'seal_return'\n 65058: fallthrough\n      : @2298 [@dyn 1205] (gas: 13)\n 65059: sp = sp + 0xffffffffffffff40\n 65063: u64 [sp + 0xb8] = ra\n 65067: u64 [sp + 0xb0] = s0\n 65071: u64 [sp + 0xa8] = s1\n 65075: s0 = sp + 0xc0\n 65079: sp = sp & 0xffffffffffffffe0\n 65082: u64 [sp + 152] = 0\n 65086: u64 [sp + 144] = 0\n 65090: u64 [sp + 136] = 0\n 65094: u64 [sp + 128] = 0x5\n 65099: a0 = sp + 0x60\n 65102: a1 = sp + 0x80\n 65106: ra = 2412, jump @21\n      : @2299 [@dyn 1206] (gas: 11)\n 65113: a0 = u64 [sp + 0x68]\n 65116: u64 [sp + 0x18] = a0\n 65119: a0 = u64 [sp + 0x60]\n 65122: u64 [sp + 0x10] = a0\n 65125: a0 = u32 [sp + 0x70]\n 65128: u64 [sp + 0x8] = a0\n 65131: s1 = 0x301b0\n 65136: i32 a0 = s1 + 0\n 65138: u64 [sp] = a0\n 65140: ecalli 4 // 'caller'\n 65142: fallthrough\n      : @2300 (gas: 22)\n 65143: a0 = u64 [0x301b8]\n 65148: a1 = u64 [0x301b0]\n 65153: a2 = i32 [0x301c0]\n 65158: a0 = reverse a0\n 65160: a3 = a0 >> 0x20\n 65163: a1 = reverse a1\n 65165: a4 = a1 << 0x20\n 65168: a3 = a3 | a4\n 65171: a0 = a0 << 0x20\n 65174: a2 = reverse a2\n 65176: a2 = a2 >> 0x20\n 65179: a0 = a0 | a2\n 65182: a1 = a1 >> 0x20\n 65185: a2 = u64 [sp + 0x8]\n 65188: a1 = a1 ^ a2\n 65191: a2 = u64 [sp + 0x10]\n 65194: a0 = a0 ^ a2\n 65197: a0 = a0 | a1\n 65200: a1 = u64 [sp + 0x18]\n 65203: a1 = a1 ^ a3\n 65206: a0 = a0 | a1\n 65209: jump @2302 if a0 != 0\n      : @2301 (gas: 6)\n 65212: sp = s0 + 0xffffffffffffff40\n 65216: ra = u64 [sp + 0xb8]\n 65220: s0 = u64 [sp + 0xb0]\n 65224: s1 = u64 [sp + 0xa8]\n 65228: sp = sp + 0xc0\n 65232: ret\n      : @2302 (gas: 8)\n 65234: u64 [sp + 80] = 0\n 65237: u64 [sp + 72] = 0\n 65240: u64 [sp + 64] = 0\n 65243: a0 = 0x118cdaa700000000\n 65253: a1 = sp + 0x40\n 65256: u64 [sp + 0x58] = a0\n 65259: a0 = 0\n 65261: ra = 2414, jump @19\n      : @2303 [@dyn 1207] (gas: 4)\n 65268: a0 = u64 [sp]\n 65270: ra = 0x970\n 65274: ecalli 4 // 'caller'\n 65276: fallthrough\n      : @2304 [@dyn 1208] (gas: 4)\n 65277: a0 = u64 [s1 + 0x8]\n 65280: a1 = i32 [s1 + 0x10]\n 65283: a2 = u64 [s1]\n 65285: t0 = 2418, jump @2342\n      : @2305 [@dyn 1209] (gas: 7)\n 65291: u64 [sp + 56] = 0\n 65294: u64 [sp + 0x30] = a1\n 65297: u64 [sp + 0x28] = a0\n 65300: a0 = 0x4\n 65303: a1 = sp + 0x20\n 65306: u64 [sp + 0x20] = a3\n 65309: ra = 2420, jump @19\n      : @2306 [@dyn 1210] (gas: 2)\n 65316: a1 = i32 [0x2019c]\n 65321: jump @2308 if a1 >u 63\n      : @2307 (gas: 2)\n 65325: u32 [0x2019c] = 0x40\n 65331: fallthrough\n      : @2308 (gas: 7)\n 65332: a1 = 0x201b0\n 65337: i32 a1 = a1 + 0\n 65339: a0 = 0x1\n 65342: a2 = 0x24\n 65345: ra = 0x976\n 65349: ecalli 11 // 'seal_return'\n 65351: fallthrough\n      : @2309 [@dyn 1211] (gas: 17)\n 65352: sp = sp + 0xfffffffffffffd40\n 65356: a2 = sp + 0x200\n 65360: u64 [a2 + 0xb8] = ra\n 65364: u64 [a2 + 0xb0] = s0\n 65368: u64 [a2 + 0xa8] = s1\n 65372: s0 = sp + 0x2c0\n 65376: sp = sp & 0xffffffffffffffe0\n 65379: s1 = sp\n 65381: a3 = u32 [a0 + 0x10]\n 65384: a2 = u64 [a0]\n 65386: a4 = u64 [a0 + 0x8]\n 65389: u64 [s1 + 0x30] = a2\n 65392: u64 [s1 + 0x28] = a3\n 65395: a0 = a2 | a3\n 65398: u64 [s1 + 0x20] = a4\n 65401: a0 = a0 | a4\n 65404: jump @2328 if a0 == 0\n      : @2310 (gas: 15)\n 65408: a0 = u64 [a1 + 0x18]\n 65411: u64 [s1 + 0x58] = a0\n 65414: a0 = u64 [a1 + 0x10]\n 65417: u64 [s1 + 0x50] = a0\n 65420: a0 = u64 [a1 + 0x8]\n 65423: u64 [s1 + 0x48] = a0\n 65426: a0 = u64 [a1]\n 65428: u64 [s1 + 0x40] = a0\n 65431: u64 [s1 + 568] = 0\n 65435: u64 [s1 + 560] = 0\n 65439: u64 [s1 + 552] = 0\n 65443: u64 [s1 + 544] = 0x2\n 65448: a0 = s1 + 0x200\n 65452: a1 = s1 + 0x220\n 65456: ra = 2424, jump @21\n      : @2311 [@dyn 1212] (gas: 20)\n 65463: a3 = u64 [s1 + 0x200]\n 65467: a0 = u64 [s1 + 0x208]\n 65471: a1 = u64 [s1 + 0x210]\n 65475: a2 = u64 [s1 + 0x218]\n 65479: a4 = u64 [s1 + 0x58]\n 65482: u64 [s1 + 0x1b8] = a4\n 65486: a4 = u64 [s1 + 0x50]\n 65489: u64 [s1 + 0x1b0] = a4\n 65493: a4 = u64 [s1 + 0x48]\n 65496: u64 [s1 + 0x1a8] = a4\n 65500: a4 = u64 [s1 + 0x40]\n 65503: u64 [s1 + 0x1a0] = a4\n 65507: u64 [s1 + 0x1d8] = a2\n 65511: u64 [s1 + 0x1d0] = a1\n 65515: u64 [s1 + 0x1c8] = a0\n 65519: a0 = s1 + 0x1e0\n 65523: a1 = s1 + 0x1c0\n 65527: a2 = s1 + 0x1a0\n 65531: u64 [s1 + 0x1c0] = a3\n 65535: ra = 2426, jump @2240\n      : @2312 [@dyn 1213] (gas: 16)\n 65541: a0 = u64 [s1 + 0x1e0]\n 65545: a1 = u64 [s1 + 0x1e8]\n 65549: a2 = u64 [s1 + 0x1f0]\n 65553: a3 = u64 [s1 + 0x1f8]\n 65557: u64 [s1 + 600] = 0\n 65561: u64 [s1 + 592] = 0\n 65565: u64 [s1 + 584] = 0\n 65569: a5 = s1 + 0x200\n 65573: u64 [a5 + 64] = 0x2\n 65577: u64 [a5 + 0x78] = a3\n 65580: u64 [a5 + 0x70] = a2\n 65583: u64 [a5 + 0x68] = a1\n 65586: u64 [a5 + 0x60] = a0\n 65589: a0 = s1 + 0x240\n 65593: a1 = s1 + 0x260\n 65597: ra = 2428, jump @25\n      : @2313 [@dyn 1214] (gas: 11)\n 65604: u64 [s1 + 408] = 0\n 65608: a0 = u64 [s1 + 0x28]\n 65611: a2 = s1 + 0x100\n 65615: u64 [a2 + 0x90] = a0\n 65619: a0 = u64 [s1 + 0x20]\n 65622: u64 [a2 + 0x88] = a0\n 65626: a1 = s1 + 0x180\n 65630: a0 = u64 [s1 + 0x30]\n 65633: u64 [a2 + 0x80] = a0\n 65637: a0 = 0\n 65639: ra = 2430, jump @19\n      : @2314 [@dyn 1215] (gas: 7)\n 65646: u64 [s1 + 376] = 0\n 65650: u64 [s1 + 368] = 0\n 65654: u64 [s1 + 360] = 0\n 65658: a0 = 0x20\n 65661: a1 = s1 + 0x160\n 65665: u64 [s1 + 352] = 0\n 65669: ra = 2432, jump @19\n      : @2315 [@dyn 1216] (gas: 6)\n 65676: a0 = sp + 0xffffffffffffffe0\n 65679: a0 = a0 & 0xffffffffffffffe0\n 65682: u64 [s1 + 0x38] = a0\n 65685: sp = a0\n 65687: a1 = i32 [0x2019c]\n 65692: jump @2317 if a1 >u 63\n      : @2316 (gas: 2)\n 65696: u32 [0x2019c] = 0x40\n 65702: fallthrough\n      : @2317 (gas: 13)\n 65703: a0 = sp + 0xffffffffffffffe0\n 65706: a2 = a0 & 0xffffffffffffffe0\n 65709: u64 [s1 + 0x18] = a2\n 65712: sp = a2\n 65714: a0 = 0x201b0\n 65719: i32 a0 = a0 + 0\n 65721: i32 a2 = a2 + 0\n 65723: a1 = 0x40\n 65726: ra = 0x982\n 65730: ecalli 7 // 'hash_keccak_256'\n 65732: a3 = u64 [s1 + 0x18]\n 65735: t0 = 0x984\n 65739: jump @2336\n      : @2318 [@dyn 1217] (gas: 2)\n 65742: a3 = u64 [s1 + 0x18]\n 65745: t0 = 2436, jump @2336\n      : @2319 [@dyn 1218] (gas: 7)\n 65751: a1 = u64 [s1 + 0x38]\n 65754: u64 [a1 + 0x18] = a3\n 65757: u64 [a1 + 0x10] = a2\n 65760: u64 [a1 + 0x8] = a4\n 65763: u64 [a1] = a0\n 65765: a0 = s1 + 0x140\n 65769: ra = 2438, jump @21\n      : @2320 [@dyn 1219] (gas: 30)\n 65776: a0 = u64 [s1 + 0x148]\n 65780: a1 = u64 [s1 + 0x140]\n 65784: t0 = u64 [s1 + 0x158]\n 65788: a3 = u64 [s1 + 0x150]\n 65792: a4 = u64 [s1 + 0x48]\n 65795: a4 = a4 + a0\n 65798: a5 = u64 [s1 + 0x40]\n 65801: a5 = a5 + a1\n 65804: a1 = a5 <u a1\n 65807: a4 = a4 + a1\n 65810: a2 = a4 ^ a0\n 65813: a0 = a4 <u a0\n 65816: a0 = a1 if a2 == 0\n 65819: a1 = u64 [s1 + 0x50]\n 65822: a1 = a1 + a3\n 65825: a2 = u64 [s1 + 0x58]\n 65828: t0 = t0 + a2\n 65831: a2 = a1 <u a3\n 65834: a2 = a2 + t0\n 65837: a0 = a0 + a1\n 65840: a1 = a0 <u a1\n 65843: a1 = a1 + a2\n 65846: a2 = s1 + 0x200\n 65850: u64 [a2 + 0x80] = a5\n 65854: u64 [a2 + 0x88] = a4\n 65858: u64 [a2 + 0x90] = a0\n 65862: u64 [a2 + 0x98] = a1\n 65866: a1 = s1 + 0x280\n 65870: a0 = u64 [s1 + 0x38]\n 65873: ra = 2440, jump @25\n      : @2321 [@dyn 1220] (gas: 3)\n 65880: a0 = s1 + 0x120\n 65884: a1 = 0x40\n 65887: ra = 2442, jump @17\n      : @2322 [@dyn 1221] (gas: 6)\n 65894: a4 = s1 + 0x100\n 65898: a3 = u64 [a4 + 0x38]\n 65901: a1 = u64 [a4 + 0x30]\n 65904: a2 = u64 [a4 + 0x28]\n 65907: a0 = u64 [a4 + 0x20]\n 65910: t0 = 2444, jump @2380\n      : @2323 [@dyn 1222] (gas: 1)\n 65916: jump @2327 if a1 != 0\n      : @2324 (gas: 12)\n 65920: a1 = u64 [s1 + 0x40]\n 65923: a3 = s1 + 0x100\n 65927: u64 [a3] = a1\n 65929: a1 = u64 [s1 + 0x48]\n 65932: u64 [a3 + 0x8] = a1\n 65935: a1 = u64 [s1 + 0x50]\n 65938: u64 [a3 + 0x10] = a1\n 65941: a1 = s1 + 0x100\n 65945: a2 = u64 [s1 + 0x58]\n 65948: u64 [a3 + 0x18] = a2\n 65951: u64 [s1 + 0x58] = a0\n 65954: ra = 2446, jump @19\n      : @2325 [@dyn 1223] (gas: 25)\n 65961: u64 [s1 + 184] = 0\n 65965: a0 = u64 [s1 + 0x28]\n 65968: u64 [s1 + 0xb0] = a0\n 65972: a0 = u64 [s1 + 0x20]\n 65975: u64 [s1 + 0xa8] = a0\n 65979: a0 = u64 [s1 + 0x30]\n 65982: u64 [s1 + 0xa0] = a0\n 65986: u64 [s1 + 216] = 0\n 65990: u64 [s1 + 208] = 0\n 65994: u64 [s1 + 200] = 0\n 65998: a0 = u64 [0x20178]\n 66003: a1 = u64 [0x20180]\n 66008: a2 = u64 [0x20188]\n 66013: u64 [s1 + 192] = 0\n 66017: u64 [s1 + 0xf8] = a0\n 66021: u64 [s1 + 0xf0] = a1\n 66025: u64 [s1 + 0xe8] = a2\n 66029: a0 = u64 [0x20190]\n 66034: a1 = 0x20\n 66037: a2 = s1 + 0xe0\n 66041: a3 = s1 + 0xc0\n 66045: a4 = s1 + 0xa0\n 66049: u64 [s1 + 0xe0] = a0\n 66053: a0 = u64 [s1 + 0x58]\n 66056: ra = 2448, jump @28\n      : @2326 [@dyn 1224] (gas: 7)\n 66063: sp = s0 + 0xfffffffffffffd40\n 66067: a0 = sp + 0x200\n 66071: ra = u64 [a0 + 0xb8]\n 66075: s0 = u64 [a0 + 0xb0]\n 66079: s1 = u64 [a0 + 0xa8]\n 66083: sp = sp + 0x2c0\n 66087: ret\n      : @2327 (gas: 1)\n 66089: trap\n      : @2328 (gas: 8)\n 66090: u64 [s1 + 144] = 0\n 66094: u64 [s1 + 136] = 0\n 66098: u64 [s1 + 128] = 0\n 66102: a0 = 0xec442f0500000000\n 66112: a1 = s1 + 0x80\n 66116: u64 [s1 + 0x98] = a0\n 66120: a0 = 0\n 66122: ra = 2450, jump @19\n      : @2329 [@dyn 1225] (gas: 7)\n 66129: u64 [s1 + 120] = 0\n 66132: u64 [s1 + 112] = 0\n 66135: u64 [s1 + 104] = 0\n 66138: a0 = 0x4\n 66141: a1 = s1 + 0x60\n 66144: u64 [s1 + 96] = 0\n 66147: ra = 2452, jump @19\n      : @2330 [@dyn 1226] (gas: 2)\n 66154: a1 = i32 [0x2019c]\n 66159: jump @2332 if a1 >u 63\n      : @2331 (gas: 2)\n 66163: u32 [0x2019c] = 0x40\n 66169: fallthrough\n      : @2332 (gas: 8)\n 66170: a1 = 0x201b0\n 66175: i32 a1 = a1 + 0\n 66177: a0 = 0x1\n 66180: a2 = 0x24\n 66183: ecalli 11 // 'seal_return'\n 66185: a0 = 0\n 66187: ra = 0x996\n 66191: jump @37\n      : @2333 [export #0: 'call'] (gas: 2)\n 66195: a0 = 0\n 66197: ra = 2454, jump @37\n      : @2334 [@dyn 1227] [export #1: 'deploy'] (gas: 2)\n 66204: a0 = 0x1\n 66207: ra = 2456, jump @37\n      : @2335 [@dyn 1228] (gas: 16)\n 66214: a2 = u64 [s1 + 0x108]\n 66218: a0 = u64 [a2 + 0x8]\n 66221: a1 = i32 [a2 + 0x10]\n 66224: a2 = u64 [a2]\n 66226: a0 = reverse a0\n 66228: a3 = a0 << 0x20\n 66231: a1 = reverse a1\n 66233: a1 = a1 >> 0x20\n 66236: a3 = a3 | a1\n 66239: a0 = a0 >> 0x20\n 66242: a1 = reverse a2\n 66244: a2 = a1 << 0x20\n 66247: a0 = a0 | a2\n 66250: a1 = a1 >> 0x20\n 66253: a2 = s1 + 0x3118\n 66257: jump [t0]\n      : @2336 (gas: 9)\n 66259: a0 = u64 [a3 + 0x18]\n 66262: a1 = u64 [a3 + 0x10]\n 66265: a2 = u64 [a3 + 0x8]\n 66268: a3 = u64 [a3]\n 66270: a0 = reverse a0\n 66272: a4 = reverse a1\n 66274: a2 = reverse a2\n 66276: a3 = reverse a3\n 66278: jump [t0]\n      : @2337 (gas: 13)\n 66280: a1 = a0 <u a1\n 66283: a3 = u64 [s1 + 0x160]\n 66287: a2 = a3 + a1\n 66290: a3 = a2 <u a3\n 66293: a3 = a1 if a1 == 0\n 66296: a1 = u64 [s1 + 0x170]\n 66300: a3 = a3 + a1\n 66303: a1 = a3 <u a1\n 66306: a4 = u64 [s1 + 0x168]\n 66310: a1 = a1 + a4\n 66313: a4 = s1 + 0x5118\n 66317: a5 = a4 + 0x400\n 66321: jump [t0]\n      : @2338 (gas: 16)\n 66323: a0 = u64 [a2 + 0x8]\n 66326: a1 = i32 [a2 + 0x10]\n 66329: a2 = u64 [a2]\n 66331: a0 = reverse a0\n 66333: a3 = a0 << 0x20\n 66336: a1 = reverse a1\n 66338: a1 = a1 >> 0x20\n 66341: a3 = a3 | a1\n 66344: a0 = a0 >> 0x20\n 66347: a1 = reverse a2\n 66349: a2 = a1 << 0x20\n 66352: a0 = a0 | a2\n 66355: a1 = a1 >> 0x20\n 66358: a2 = s1 + 0x7ff\n 66362: a2 = a2 + 0x119\n 66366: jump [t0]\n      : @2339 (gas: 11)\n 66368: a3 = u64 [s1 + 0x198]\n 66372: a0 = u64 [a3 + 0x18]\n 66375: a1 = u64 [a3 + 0x10]\n 66378: a2 = u64 [a3 + 0x8]\n 66381: a3 = u64 [a3]\n 66383: a0 = reverse a0\n 66385: a1 = reverse a1\n 66387: a2 = reverse a2\n 66389: a3 = reverse a3\n 66391: a4 = s1 + 0x4918\n 66395: jump [t0]\n      : @2340 (gas: 13)\n 66397: a1 = a0 <u a1\n 66400: a3 = u64 [s1 + 0x190]\n 66404: a2 = a3 + a1\n 66407: a3 = a2 <u a3\n 66410: a3 = a1 if a1 == 0\n 66413: a1 = u64 [s1 + 0x180]\n 66417: a3 = a3 + a1\n 66420: a1 = a3 <u a1\n 66423: a4 = u64 [s1 + 0x198]\n 66427: a1 = a1 + a4\n 66430: a4 = s1 + 0x4118\n 66434: a5 = a4 + 0x600\n 66438: jump [t0]\n      : @2341 (gas: 23)\n 66440: u64 [s1 + 408] = 0\n 66444: t2 = 0\n 66446: t1 = 0\n 66448: u64 [s1 + 400] = 0\n 66452: a5 = u64 [s1 + 0x188]\n 66456: a0 = u64 [a5 + 0x18]\n 66459: a1 = u64 [s1 + 0x110]\n 66463: a2 = a1 + 0x20\n 66466: u64 [s1 + 0x130] = a2\n 66470: a1 = a2 <u a1\n 66473: a2 = u64 [s1 + 0x108]\n 66477: a3 = a2 + a1\n 66480: u64 [s1 + 0x128] = a3\n 66484: a4 = a3 <u a2\n 66487: a4 = a1 if a1 == 0\n 66490: a1 = u64 [a5 + 0x10]\n 66493: a2 = u64 [a5 + 0x8]\n 66496: a3 = u64 [a5]\n 66498: a0 = reverse a0\n 66500: a1 = reverse a1\n 66502: ra = reverse a2\n 66504: a2 = reverse a3\n 66506: jump [t0]\n      : @2342 (gas: 11)\n 66508: a0 = reverse a0\n 66510: a3 = a0 << 0x20\n 66513: a1 = reverse a1\n 66515: a1 = a1 >> 0x20\n 66518: a3 = a3 | a1\n 66521: a0 = a0 >> 0x20\n 66524: a1 = reverse a2\n 66526: a2 = a1 << 0x20\n 66529: a0 = a0 | a2\n 66532: a1 = a1 >> 0x20\n 66535: jump [t0]\n      : @2343 (gas: 9)\n 66537: a0 = u64 [a3]\n 66539: a1 = u64 [a3 + 0x8]\n 66542: a2 = u64 [a3 + 0x10]\n 66545: a3 = u64 [a3 + 0x18]\n 66548: a0 = reverse a0\n 66550: a1 = reverse a1\n 66552: a2 = reverse a2\n 66554: a3 = reverse a3\n 66556: jump [t0]\n      : @2344 (gas: 7)\n 66558: a4 = 0x100000000\n 66568: a0 = 0xfffffffc\n 66578: a0 = a1 <u a0\n 66581: a2 = u64 [a5 + 0x90]\n 66585: a0 = 0 if a2 != 0\n 66587: a0 = 0 if a3 != 0\n 66589: jump [t0]\n      : @2345 (gas: 21)\n 66591: a4 = ra <u a0\n 66594: a0 = u64 [s1 + 0x170]\n 66598: t1 = a0 + a4\n 66601: a5 = t1 <u a0\n 66604: a5 = a4 if a4 == 0\n 66607: a0 = u64 [s1 + 0x190]\n 66611: a5 = a5 + a0\n 66614: a4 = a5 <u a0\n 66617: a0 = u64 [s1 + 0x180]\n 66621: a0 = a0 + a4\n 66624: a2 = u64 [s1 + 0x118]\n 66628: a2 = a2 + 0x1\n 66631: a4 = a2 <u 0x1\n 66634: a3 = u64 [s1 + 0x110]\n 66638: a3 = a3 + a4\n 66641: a4 = a2 | a3\n 66644: a4 = a4 <u 0x1\n 66647: a1 = u64 [s1 + 0x100]\n 66651: a4 = a4 + a1\n 66654: a1 = a4 <u a1\n 66657: jump [t0]\n      : @2346 (gas: 14)\n 66659: a3 = a4 <u a3\n 66662: a5 = a2 + a3\n 66665: a2 = a5 <u a2\n 66668: a2 = a3 if a3 == 0\n 66671: a2 = a2 + a1\n 66674: a1 = a2 <u a1\n 66677: a0 = a0 + a1\n 66680: a1 = u64 [s1 + 0x198]\n 66684: u64 [a1] = a4\n 66686: u64 [a1 + 0x8] = a5\n 66689: u64 [a1 + 0x10] = a2\n 66692: u64 [a1 + 0x18] = a0\n 66695: a0 = 0x3000\n 66699: jump [t0]\n      : @2347 (gas: 18)\n 66701: u64 [s1 + 0x140] = a1\n 66705: u64 [s1 + 0x148] = a5\n 66709: u64 [s1 + 312] = 0\n 66713: a1 = u64 [s1 + 0x158]\n 66717: a2 = a1 >> 0x3f\n 66720: a5 = u64 [s1 + 0x160]\n 66724: a3 = a5 << 0x1\n 66727: t1 = a3 | a2\n 66730: a2 = a1 << 0x1\n 66733: a4 = ra >> 0x3f\n 66736: a4 = a4 | a2\n 66739: u64 [s1 + 0x150] = a4\n 66743: a3 = u64 [s1 + 0x128]\n 66747: a1 = a3 ^ t1\n 66750: u64 [s1 + 0x158] = a1\n 66754: a1 = a3 <u t1\n 66757: a2 = u64 [s1 + 0x130]\n 66761: jump [t0]\n      : @2348 (gas: 8)\n 66763: a0 = sp + 0xffffffffffffffe0\n 66766: a0 = a0 & 0xffffffffffffffe0\n 66769: u64 [s1 + 0x190] = a0\n 66773: sp = a0\n 66775: i32 a2 = a0 + 0\n 66777: a1 = 0x40\n 66780: a0 = u64 [s1 + 0xd8]\n 66784: jump [t0]\n      : @2349 (gas: 8)\n 66786: a0 = a0 | a2\n 66789: a2 = a4 | a1\n 66792: a2 = a2 | a0\n 66795: a2 = a2 >> 0x20\n 66798: a0 = a0 | a1\n 66801: a0 = a0 << 0x20\n 66804: a0 = a0 | a2\n 66807: jump [t0]\n      : @2350 (gas: 10)\n 66809: a0 = u64 [a3 + 0x18]\n 66812: a1 = u64 [a3 + 0x10]\n 66815: a2 = u64 [a3 + 0x8]\n 66818: a3 = u64 [a3]\n 66820: a0 = reverse a0\n 66822: a1 = reverse a1\n 66824: a2 = reverse a2\n 66826: a3 = reverse a3\n 66828: a4 = s1 + 0x5118\n 66832: jump [t0]\n      : @2351 (gas: 15)\n 66834: t2 = u64 [s1 + 0x198]\n 66838: t1 = u64 [s1 + 0x180]\n 66842: ra = u64 [s1 + 0x188]\n 66846: a1 = u64 [s1 + 0x130]\n 66850: a0 = a1 + t2\n 66853: a1 = a0 <u a1\n 66856: a4 = u64 [s1 + 0x128]\n 66860: a2 = a4 + t1\n 66863: a2 = a2 + a1\n 66866: a5 = a2 ^ a4\n 66869: a4 = a2 <u a4\n 66872: a4 = a1 if a5 == 0\n 66875: a5 = u64 [s1 + 0x120]\n 66879: a1 = a5 + ra\n 66882: jump [t0]\n      : @2352 (gas: 15)\n 66884: a0 = u64 [s1 + 0x178]\n 66888: a0 = a0 + 0x1\n 66891: a1 = a0 <u 0x1\n 66894: a2 = u64 [s1 + 0x170]\n 66898: a1 = a1 + a2\n 66901: a2 = a0 | a1\n 66904: a2 = a2 <u 0x1\n 66907: a3 = u64 [s1 + 0x190]\n 66911: a2 = a2 + a3\n 66914: u64 [s1 + 0x190] = a3\n 66918: a3 = a2 <u a3\n 66921: a4 = u64 [s1 + 0x180]\n 66925: a3 = a3 + a4\n 66928: a4 = s1 + 0x4918\n 66932: jump [t0]\n      : @2353 (gas: 14)\n 66934: a1 = u64 [s1 + 0x178]\n 66938: a0 = a1 + 0x2\n 66941: a1 = a0 <u a1\n 66944: a3 = u64 [s1 + 0x170]\n 66948: a2 = a3 + a1\n 66951: a3 = a2 <u a3\n 66954: a3 = a1 if a1 == 0\n 66957: a1 = u64 [s1 + 0x190]\n 66961: a3 = a3 + a1\n 66964: a1 = a3 <u a1\n 66967: a4 = u64 [s1 + 0x180]\n 66971: a1 = a1 + a4\n 66974: a4 = s1 + 0x4918\n 66978: jump [t0]\n      : @2354 (gas: 16)\n 66980: a4 = u64 [s1 + 0x118]\n 66984: a2 = a4 <u 0x80\n 66988: a3 = u64 [s1 + 0xd0]\n 66992: a1 = a3 if a2 != 0\n 66995: a5 = u64 [s1 + 0xd8]\n 66999: a3 = u64 [s1 + 0xe8]\n 67003: a3 = a3 | a5\n 67006: a3 = a0 if a2 == 0\n 67009: a1 = 0xffffffffffffffff if a4 == 0\n 67012: a3 = 0xffffffffffffffff if a4 == 0\n 67015: a4 = u64 [s1 + 0xe0]\n 67019: a4 = 0 if a2 == 0\n 67021: a5 = 0 if a2 == 0\n 67023: a0 = u64 [s1 + 0xf0]\n 67027: a0 = a0 & ~a3\n 67030: jump [t0]\n      : @2355 (gas: 8)\n 67032: a1 = u64 [s1 + 0x110]\n 67036: a0 = sp + 0xffffffffffffffe0\n 67039: a0 = a0 & 0xffffffffffffffe0\n 67042: u64 [s1 + 0x198] = a0\n 67046: sp = a0\n 67048: a0 = i32 [a1]\n 67050: a2 = 0x3f\n 67053: jump [t0]\n      : @2356 (gas: 8)\n 67055: a4 = a4 | a2\n 67058: a2 = a0 | a1\n 67061: a2 = a2 | a4\n 67064: a2 = a2 >> 0x20\n 67067: a1 = a1 | a4\n 67070: a1 = a1 << 0x20\n 67073: a1 = a1 | a2\n 67076: jump [t0]\n      : @2357 (gas: 10)\n 67078: a4 = s1 + 0x100\n 67082: a3 = u64 [a4 + 0x88]\n 67086: a2 = u64 [a4 + 0x90]\n 67090: a1 = u64 [a4 + 0x98]\n 67094: a0 = u64 [a4 + 0x80]\n 67098: a0 = a0 + 0xffffffffffffffdc\n 67101: a0 = a1 <u a0\n 67104: a0 = 0 if a2 != 0\n 67106: a0 = 0 if a3 != 0\n 67108: jump [t0]\n      : @2358 (gas: 16)\n 67110: a2 = u64 [s1 + 0x198]\n 67114: a0 = u64 [a2 + 0x8]\n 67117: a1 = i32 [a2 + 0x10]\n 67120: a2 = u64 [a2]\n 67122: a0 = reverse a0\n 67124: a3 = a0 << 0x20\n 67127: a1 = reverse a1\n 67129: a1 = a1 >> 0x20\n 67132: a3 = a3 | a1\n 67135: a0 = a0 >> 0x20\n 67138: a1 = reverse a2\n 67140: a2 = a1 << 0x20\n 67143: a0 = a0 | a2\n 67146: a1 = a1 >> 0x20\n 67149: a2 = s1 + 0x2118\n 67153: jump [t0]\n      : @2359 (gas: 8)\n 67155: a0 = u64 [a2 + 0x8]\n 67158: a1 = i32 [a2 + 0x10]\n 67161: a2 = u64 [a2]\n 67163: a3 = reverse a0\n 67165: a0 = a3 << 0x20\n 67168: a1 = reverse a1\n 67170: a1 = a1 >> 0x20\n 67173: jump [t0]\n      : @2360 (gas: 7)\n 67175: a1 = u64 [s1 + 0xf8]\n 67179: a0 = a1 <u a0\n 67182: a1 = u64 [s1 + 0xd0]\n 67186: a0 = 0 if a1 != 0\n 67188: a1 = u64 [s1 + 0x120]\n 67192: a0 = 0 if a1 != 0\n 67194: jump [t0]\n      : @2361 (gas: 4)\n 67196: a1 = reverse a1\n 67198: a2 = reverse a2\n 67200: a3 = reverse a3\n 67202: jump [t0]\n      : @2362 (gas: 14)\n 67204: a4 = u64 [s1 + 0x168]\n 67208: a5 = u64 [s1 + 0x170]\n 67212: a2 = u64 [s1 + 0x178]\n 67216: a5 = a5 | a2\n 67219: a3 = u64 [s1 + 0x198]\n 67223: a3 = a3 | a4\n 67226: a3 = a3 | a5\n 67229: a4 = s1 + 0x100\n 67233: a2 = u64 [a4 + 0x60]\n 67236: a1 = 0 if a2 == 0\n 67238: u64 [a4 + 0x80] = a1\n 67242: a0 = 0 if a2 == 0\n 67244: u64 [a4 + 0x90] = a0\n 67248: jump [t0]\n      : @2363 (gas: 15)\n 67250: a3 = u64 [s1 + 0x190]\n 67254: a0 = u64 [a3 + 0x18]\n 67257: a1 = u64 [a3 + 0x10]\n 67260: a2 = u64 [a3 + 0x8]\n 67263: a3 = u64 [a3]\n 67265: a0 = reverse a0\n 67267: a4 = reverse a1\n 67269: a2 = reverse a2\n 67271: a3 = reverse a3\n 67273: a1 = u64 [s1 + 0x198]\n 67277: u64 [a1 + 0x18] = a3\n 67280: u64 [a1 + 0x10] = a2\n 67283: u64 [a1 + 0x8] = a4\n 67286: u64 [a1] = a0\n 67288: jump [t0]\n      : @2364 (gas: 5)\n 67290: a0 = sp + 0xffffffffffffffe0\n 67293: a2 = a0 & 0xffffffffffffffe0\n 67296: u64 [s1 + 0x198] = a2\n 67300: sp = a2\n 67302: jump [t0]\n      : @2365 (gas: 8)\n 67304: a0 = u64 [a4 + 0xd8]\n 67308: a1 = u64 [a4 + 0xe0]\n 67312: a2 = u64 [a4 + 0xd0]\n 67316: a3 = u64 [a4 + 0xc8]\n 67320: a1 = a1 | a2\n 67323: a0 = a0 | a3\n 67326: a0 = a0 | a1\n 67329: jump [t0]\n      : @2366 (gas: 7)\n 67331: a1 = u64 [a2 + 0x98]\n 67335: a0 = a1 <u a0\n 67338: a1 = u64 [a2 + 0x88]\n 67342: a0 = 0 if a1 != 0\n 67344: a1 = u64 [a2 + 0x80]\n 67348: a0 = 0 if a1 != 0\n 67350: jump [t0]\n      : @2367 (gas: 12)\n 67352: a5 = 0\n 67354: t2 = 0\n 67356: a3 = s1 + 0x100\n 67360: a2 = u64 [a3 + 0x48]\n 67363: a1 = 0 if a2 == 0\n 67365: a0 = 0 if a2 == 0\n 67367: a4 = 0xa\n 67370: u64 [a3 + 48] = 0x9\n 67374: a2 = 0\n 67376: u64 [a3 + 40] = 0\n 67379: ra = u64 [s1 + 0x150]\n 67383: jump [t0]\n      : @2368 (gas: 4)\n 67385: a2 = a0\n 67387: a0 = 0x4e487b7100000000\n 67397: a1 = 0x3000\n 67401: jump [t0]\n      : @2369 (gas: 14)\n 67403: a3 = a3 + a4\n 67406: u64 [s1 + 0xe8] = a3\n 67410: a3 = a3 << 0x3b\n 67413: a4 = a2 >> 0x5\n 67416: a4 = a4 | a3\n 67419: a0 = u64 [s1 + 0x108]\n 67423: t1 = u64 [a0 + 0x18]\n 67426: a2 = a2 << 0x3b\n 67429: a3 = u64 [a0 + 0x10]\n 67432: a1 = a1 >> 0x5\n 67435: a0 = a1 | a2\n 67438: t2 = reverse t1\n 67440: a2 = reverse a3\n 67442: jump [t0]\n      : @2370 (gas: 5)\n 67444: sp = a0\n 67446: i32 a2 = a0 + 0\n 67448: a1 = 0x40\n 67451: a0 = u64 [s1 + 0x180]\n 67455: jump [t0]\n      : @2371 (gas: 14)\n 67457: a0 = u64 [a2 + 0x8]\n 67460: a1 = i32 [a2 + 0x10]\n 67463: a2 = u64 [a2]\n 67465: a0 = reverse a0\n 67467: a3 = a0 << 0x20\n 67470: a1 = reverse a1\n 67472: a1 = a1 >> 0x20\n 67475: a1 = a1 | a3\n 67478: a0 = a0 >> 0x20\n 67481: a2 = reverse a2\n 67483: a3 = a2 << 0x20\n 67486: a0 = a0 | a3\n 67489: a2 = a2 >> 0x20\n 67492: jump [t0]\n      : @2372 (gas: 8)\n 67494: u64 [sp + 48] = 0\n 67497: u64 [sp + 40] = 0\n 67500: u64 [sp + 32] = 0\n 67503: a0 = 0x4e487b7100000000\n 67513: a1 = sp + 0x20\n 67516: u64 [sp + 0x38] = a0\n 67519: a0 = 0\n 67521: jump [t0]\n      : @2373 (gas: 14)\n 67523: a5 = a5 + a2\n 67526: a4 = a5 <u a2\n 67529: a0 = u64 [s1 + 0x110]\n 67533: a2 = a2 <u a0\n 67536: a0 = t2 + a2\n 67539: a0 = a0 + a4\n 67542: a2 = a1 | a5\n 67545: a0 = a0 | a3\n 67548: a2 = a2 | a0\n 67551: a2 = a2 >> 0x20\n 67554: a0 = a0 | a5\n 67557: a0 = a0 << 0x20\n 67560: a0 = a0 | a2\n 67563: jump [t0]\n      : @2374 (gas: 13)\n 67565: a4 = a0 << 0x3f\n 67568: a5 = a1 >> 0x1\n 67571: t1 = a5 | a4\n 67574: a5 = a3 << 0x3f\n 67577: a0 = a0 >> 0x1\n 67580: a0 = a0 | a5\n 67583: a1 = a1 << 0x3f\n 67586: a5 = a2 >> 0x1\n 67589: a1 = a1 | a5\n 67592: a3 = a3 >> 0x1\n 67595: a2 = a2 & 0x1\n 67598: a5 = -a2\n 67600: jump [t0]\n      : @2375 (gas: 11)\n 67602: a0 = u64 [a3 + 0x18]\n 67605: a1 = u64 [a3 + 0x10]\n 67608: a2 = u64 [a3 + 0x8]\n 67611: a3 = u64 [a3]\n 67613: a0 = reverse a0\n 67615: a1 = reverse a1\n 67617: a2 = reverse a2\n 67619: a3 = reverse a3\n 67621: a4 = s1 + 0x5118\n 67625: a5 = a4 + 0x100\n 67629: jump [t0]\n      : @2376 (gas: 10)\n 67631: a4 = 0 if a2 == 0\n 67633: a1 = u64 [s1 + 0xf8]\n 67637: a1 = a1 & ~a3\n 67640: a2 = u64 [s1 + 0x100]\n 67644: a0 = a2 & ~a0\n 67647: a2 = u64 [s1 + 0x108]\n 67651: a2 = a2 & ~a4\n 67654: a3 = u64 [s1 + 0x110]\n 67658: a3 = a3 & ~a5\n 67661: jump [t0]\n      : @2377 (gas: 8)\n 67663: a1 = a3 >> 0x3f\n 67666: a2 = a2 << 0x1\n 67669: a1 = a1 | a2\n 67672: a4 = u64 [s1 + 0x190]\n 67676: a2 = a4 >> 0x3f\n 67679: a3 = a3 << 0x1\n 67682: a4 = a4 << 0x1\n 67685: jump [t0]\n      : @2378 (gas: 7)\n 67687: a0 = sp + 0xffffffffffffffe0\n 67690: a0 = a0 & 0xffffffffffffffe0\n 67693: u64 [s1 + 0x198] = a0\n 67697: sp = a0\n 67699: i32 a2 = a0 + 0\n 67701: a1 = 0x40\n 67704: jump [t0]\n      : @2379 (gas: 13)\n 67706: a5 = a5 + a2\n 67709: a3 = a5 <u a2\n 67712: a2 = a2 <u t2\n 67715: a0 = t1 + a2\n 67718: a0 = a0 + a3\n 67721: a2 = a1 | a5\n 67724: a0 = a0 | a4\n 67727: a2 = a2 | a0\n 67730: a2 = a2 >> 0x20\n 67733: a0 = a0 | a5\n 67736: a0 = a0 << 0x20\n 67739: a0 = a0 | a2\n 67742: jump [t0]\n      : @2380 (gas: 8)\n 67744: a3 = a3 | a2\n 67747: a2 = a0 | a1\n 67750: a2 = a2 | a3\n 67753: a2 = a2 >> 0x20\n 67756: a1 = a1 | a3\n 67759: a1 = a1 << 0x20\n 67762: a1 = a1 | a2\n 67765: jump [t0]\n      : @2381 (gas: 7)\n 67767: a3 = a3 | a5\n 67770: a3 = a1 if a2 == 0\n 67773: a1 = 0xffffffffffffffff\n 67776: a0 = a1 if a4 == 0\n 67779: a3 = a1 if a4 == 0\n 67782: a5 = 0 if a2 == 0\n 67784: jump [t0]\n      : @2382 (gas: 11)\n 67786: a5 = s1 + 0x100\n 67790: a0 = u64 [a5]\n 67792: a1 = u64 [s1 + 0xf8]\n 67796: a0 = a0 | a1\n 67799: a1 = 0xffffffe0\n 67809: a4 = u64 [a5 + 0x10]\n 67812: a1 = a4 <u a1\n 67815: a2 = u64 [a5 + 0x8]\n 67818: a1 = 0 if a2 != 0\n 67820: a1 = 0 if a0 != 0\n 67822: jump [t0]\n      : @2383 (gas: 8)\n 67824: a0 = a0 | a2\n 67827: a2 = a3 | a1\n 67830: a2 = a2 | a0\n 67833: a2 = a2 >> 0x20\n 67836: a0 = a0 | a1\n 67839: a0 = a0 << 0x20\n 67842: a0 = a0 | a2\n 67845: jump [t0]\n      : @2384 (gas: 10)\n 67847: a0 = u64 [a3 + 0x18]\n 67850: a1 = u64 [a3 + 0x10]\n 67853: a2 = u64 [a3 + 0x8]\n 67856: a3 = u64 [a3]\n 67858: a0 = reverse a0\n 67860: a1 = reverse a1\n 67862: a2 = reverse a2\n 67864: a3 = reverse a3\n 67866: a4 = s1 + 0x4118\n 67870: jump [t0]\n      : @2385 (gas: 8)\n 67872: a1 = u64 [a3 + 0x58]\n 67875: u64 [s1 + 0xe8] = a0\n 67879: a0 = a1 <u a0\n 67882: a2 = u64 [a3 + 0x60]\n 67885: a0 = 0 if a2 != 0\n 67887: a2 = u64 [a3 + 0x50]\n 67890: a0 = 0 if a2 != 0\n 67892: jump [t0]\n      : @2386 (gas: 6)\n 67894: a1 = a0 <u a1\n 67897: a3 = u64 [s1 + 0x180]\n 67901: a2 = a3 + a1\n 67904: a3 = a2 <u a3\n 67907: a3 = a1 if a1 == 0\n 67910: jump [t0]\n      : @2387 (gas: 9)\n 67912: a2 = s1 + 0x100\n 67916: a3 = u64 [a2 + 0x98]\n 67920: a0 = 0xffffffbc\n 67930: a0 = a3 <u a0\n 67933: a1 = u64 [a2 + 0x90]\n 67937: a0 = 0 if a1 != 0\n 67939: a1 = u64 [a2 + 0x88]\n 67943: a0 = 0 if a1 != 0\n 67945: jump [t0]\n      : @2388 (gas: 9)\n 67947: a1 = 0 if a2 == 0\n 67949: a0 = 0 if a2 == 0\n 67951: a2 = u64 [s1 + 0x188]\n 67955: a3 = a2 + 0xffffffffffffffff\n 67958: u64 [s1 + 0x128] = a3\n 67962: a2 = a2 >u 0\n 67964: a2 = a2 + 0xffffffffffffffff\n 67967: u64 [s1 + 0x120] = a2\n 67971: jump [t0]\n      : @2389 (gas: 4)\n 67973: a0 = u64 [s1 + 0x198]\n 67977: a0 = i32 [a0]\n 67979: a1 = 0x23\n 67982: jump [t0]\n      : @2390 (gas: 8)\n 67984: i32 a0 = a0 + 0xfffffffffffff918\n 67988: a0 = a0 + s1\n 67991: u64 [a0 + 1528] = 0\n 67995: u64 [a0 + 1520] = 0\n 67999: u64 [a0 + 1512] = 0\n 68003: a2 = a0\n 68005: a0 = 0x4e487b7100000000\n 68015: jump [t0]\n      : @2391 (gas: 9)\n 68017: a3 = s1 + 0x100\n 68021: a2 = u64 [a3 + 0x98]\n 68025: a0 = 0xffffffbc\n 68035: a0 = a2 <u a0\n 68038: a1 = u64 [a3 + 0x90]\n 68042: a0 = 0 if a1 != 0\n 68044: a1 = u64 [a3 + 0x88]\n 68048: a0 = 0 if a1 != 0\n 68050: jump [t0]\n      : @2392 (gas: 8)\n 68052: a2 = a4 >u 0\n 68054: a1 = a1 ^ 0x1\n 68057: a1 = a2 if a4 != 0\n 68060: a2 = t2 >u 0\n 68062: a3 = a5 >u 0\n 68064: a3 = a2 if a5 == 0\n 68067: a3 = a1 if a0 == 0\n 68070: jump [t0]\n      : @2393 (gas: 4)\n 68072: i32 a0 = a0 + 0xfffffffffffff918\n 68076: a3 = s1 + a0\n 68079: a4 = a3 + 0x400\n 68083: jump [t0]\n      : @2394 (gas: 10)\n 68085: a0 = u64 [sp + 0x10]\n 68088: a1 = u64 [sp + 0x18]\n 68091: a2 = 0x100000000\n 68101: a2 = a2 ^ a0\n 68104: a2 = a2 | a1\n 68107: a3 = a0 >> 0x20\n 68110: a3 = a3 <u 0x1\n 68113: a3 = 0 if a1 != 0\n 68115: a3 = 0 if a2 == 0\n 68117: jump [t0]\n      : @2395 (gas: 4)\n 68119: i32 a0 = a0 + 0x118\n 68123: a3 = s1 + a0\n 68126: a4 = a3 + 0x100\n 68130: jump [t0]\n      : @2396 (gas: 4)\n 68132: i32 a0 = a0 + 0x118\n 68136: a1 = s1 + a0\n 68139: a2 = a1 + 0x300\n 68143: jump [t0]\n      : @2397 (gas: 13)\n 68145: a3 = s1 + 0x100\n 68149: a1 = u64 [a3 + 0x8]\n 68152: a0 = u64 [a3 + 0x10]\n 68155: a2 = u64 [s1 + 0xf8]\n 68159: a2 = a2 | a1\n 68162: a4 = u64 [a3]\n 68164: a1 = a0 | a4\n 68167: a1 = a1 | a2\n 68170: a1 = a1 >> 0x20\n 68173: a2 = a2 | a4\n 68176: a2 = a2 << 0x20\n 68179: a1 = a1 | a2\n 68182: jump [t0]\n      : @2398 (gas: 10)\n 68184: a0 = u64 [a3 + 0x18]\n 68187: a1 = u64 [a3 + 0x10]\n 68190: a2 = u64 [a3 + 0x8]\n 68193: a3 = u64 [a3]\n 68195: a0 = reverse a0\n 68197: a1 = reverse a1\n 68199: a2 = reverse a2\n 68201: a3 = reverse a3\n 68203: a4 = s1 + 0x300\n 68207: jump [t0]\n      : @2399 (gas: 8)\n 68209: a1 = a2 <u a4\n 68212: t1 = u64 [s1 + 0x148]\n 68216: a5 = a2 - t1\n 68219: a5 = a5 - a1\n 68222: a5 = a5 - a0\n 68225: ra = a5 >>a 0x3f\n 68228: a0 = ra & 0x3e8\n 68232: jump [t0]\n      : @2400 (gas: 13)\n 68234: a4 = s1 + 0x100\n 68238: a5 = u64 [a4 + 0x90]\n 68242: a3 = u64 [a4 + 0x70]\n 68245: a0 = a5 | a3\n 68248: a1 = u64 [a4 + 0x78]\n 68251: a2 = u64 [a4 + 0x80]\n 68255: a1 = a1 | a2\n 68258: a0 = a0 | a1\n 68261: a0 = a0 >> 0x20\n 68264: a1 = a1 | a3\n 68267: a1 = a1 << 0x20\n 68270: a0 = a0 | a1\n 68273: jump [t0]\n      : @2401 (gas: 8)\n 68275: a0 = u64 [a4 + 0x58]\n 68278: a1 = u64 [a4 + 0x60]\n 68281: a2 = u64 [a4 + 0x50]\n 68284: a3 = u64 [a4 + 0x48]\n 68287: a1 = a1 | a2\n 68290: a0 = a0 | a3\n 68293: a0 = a0 | a1\n 68296: jump [t0]\n      : @2402 (gas: 8)\n 68298: a0 = u64 [a4 + 0x18]\n 68301: a1 = u64 [a4 + 0x20]\n 68304: a2 = u64 [a4 + 0x10]\n 68307: a3 = u64 [a4 + 0x8]\n 68310: a1 = a1 | a2\n 68313: a0 = a0 | a3\n 68316: a0 = a0 | a1\n 68319: jump [t0]\n      : @2403 (gas: 8)\n 68321: a4 = a4 | a0\n 68324: a3 = 0x100000000\n 68334: a0 = 0xffffffe0\n 68344: a0 = a1 <u a0\n 68347: a2 = u64 [a5 + 0x90]\n 68351: a0 = 0 if a2 != 0\n 68353: a0 = 0 if a4 != 0\n 68355: jump [t0]\n      : @2404 (gas: 5)\n 68357: a0 = sp + 0xffffffffffffffe0\n 68360: a2 = a0 & 0xffffffffffffffe0\n 68363: u64 [s1 + 0x190] = a2\n 68367: sp = a2\n 68369: jump [t0]\n      : @2405 (gas: 8)\n 68371: a0 = u64 [a4 + 0x78]\n 68374: a1 = u64 [a4 + 0x80]\n 68378: a2 = u64 [a4 + 0x70]\n 68381: a3 = u64 [a4 + 0x68]\n 68384: a1 = a1 | a2\n 68387: a0 = a0 | a3\n 68390: a0 = a0 | a1\n 68393: jump [t0]\n      : @2406 (gas: 8)\n 68395: a2 = u64 [s1 + 0x148]\n 68399: a1 = a1 | a2\n 68402: a2 = u64 [s1 + 0x198]\n 68406: a3 = a2 <u 0x80\n 68410: u64 [s1 + 0x148] = a3\n 68414: a4 = u64 [s1 + 0x160]\n 68418: a1 = a4 if a3 == 0\n 68421: jump [t0]\n      : @2407 (gas: 12)\n 68423: a4 = s1 + 0x100\n 68427: a1 = u64 [a4 + 0x98]\n 68431: a2 = u64 [a4 + 0x88]\n 68435: a2 = a2 | a1\n 68438: a3 = u64 [a4 + 0x90]\n 68442: a1 = a0 | a3\n 68445: a1 = a1 | a2\n 68448: a1 = a1 >> 0x20\n 68451: a2 = a2 | a3\n 68454: a2 = a2 << 0x20\n 68457: a1 = a1 | a2\n 68460: jump [t0]\n      : @2408 (gas: 6)\n 68462: a0 = a1 <u a0\n 68465: a2 = u64 [a3 + 0x90]\n 68469: a0 = 0 if a2 != 0\n 68471: a2 = u64 [a3 + 0x88]\n 68475: a0 = 0 if a2 != 0\n 68477: jump [t0]\n      : @2409 (gas: 11)\n 68479: a4 = a4 + a1\n 68482: a1 = a4 <u a1\n 68485: a1 = a1 + a5\n 68488: a1 = a1 | a2\n 68491: a2 = a0 | a4\n 68494: a2 = a2 | a1\n 68497: a1 = a1 | a4\n 68500: a2 = a2 >> 0x20\n 68503: a1 = a1 << 0x20\n 68506: a1 = a1 | a2\n 68509: jump [t0]\n      : @2410 (gas: 5)\n 68511: a0 = sp + 0xffffffffffffffe0\n 68514: a0 = a0 & 0xffffffffffffffe0\n 68517: u64 [s1 + 0x198] = a0\n 68521: sp = a0\n 68523: jump [t0]\n      : @2411 (gas: 9)\n 68525: a3 = u64 [s1 + 0x160]\n 68529: a4 = u64 [s1 + 0x168]\n 68533: a2 = u64 [s1 + 0x170]\n 68537: a2 = a2 | a4\n 68540: a4 = s1 + 0x100\n 68544: a5 = u64 [a4 + 0x98]\n 68548: a5 = a5 | a3\n 68551: a2 = a2 | a5\n 68554: jump [t0]\n      : @2412 (gas: 6)\n 68556: a0 = a5 <u a0\n 68559: a1 = u64 [a2 + 0x88]\n 68563: a0 = 0 if a1 != 0\n 68565: a1 = u64 [a2 + 0x60]\n 68568: a0 = 0 if a1 != 0\n 68570: jump [t0]\n      : @2413 (gas: 7)\n 68572: a0 = u64 [s1 + 0x188]\n 68576: a0 = a0 + 0x1\n 68579: a1 = a0 <u 0x1\n 68582: a2 = u64 [s1 + 0x190]\n 68586: a1 = a1 + a2\n 68589: a2 = s1 + 0x4118\n 68593: jump [t0]\n      : @2414 (gas: 6)\n 68595: a0 = u64 [a4 + 0xa0]\n 68599: a1 = u64 [a4 + 0x98]\n 68603: a2 = u64 [a4 + 0x90]\n 68607: a3 = u64 [a4 + 0x88]\n 68611: a4 = s1 + 0x4918\n 68615: jump [t0]\n      : @2415 (gas: 4)\n 68617: i32 a0 = a0 + 0x118\n 68621: a3 = s1 + a0\n 68624: a4 = a3 + 0x300\n 68628: jump [t0]\n      : @2416 (gas: 4)\n 68630: a0 = 0x80\n 68634: a1 = u64 [s1 + 0x198]\n 68638: a2 = a0 - a1\n 68641: jump [t0]\n      : @2417 (gas: 9)\n 68643: a3 = s1 + 0x100\n 68647: a2 = u64 [a3 + 0x90]\n 68651: a0 = u64 [s1 + 0xe8]\n 68655: a0 = a2 <u a0\n 68658: a1 = u64 [a3 + 0x80]\n 68662: a0 = 0 if a1 != 0\n 68664: a1 = u64 [a3 + 0x48]\n 68667: a0 = 0 if a1 != 0\n 68669: jump [t0]\n      : @2418 (gas: 12)\n 68671: a2 = u64 [sp]\n 68673: a3 = u64 [sp + 0x8]\n 68676: u64 [s1] = a2\n 68678: u64 [s1 + 0x8] = a3\n 68681: u64 [s1 + 0x10] = a0\n 68684: u64 [s1 + 0x18] = a1\n 68687: sp = s0 + 0xffffffffffffffc0\n 68690: ra = u64 [sp + 0x38]\n 68693: s0 = u64 [sp + 0x30]\n 68696: s1 = u64 [sp + 0x28]\n 68699: sp = sp + 0x40\n 68702: jump [t0]\n      : @2419 (gas: 8)\n 68704: a4 = a2 + a0\n 68707: a4 = a4 + a3\n 68710: a3 = a4 ^ a2\n 68713: u64 [s1 + 0xf0] = a4\n 68717: a2 = a4 <u a2\n 68720: a2 = a0 if a3 == 0\n 68723: a4 = u64 [s1 + 0xe8]\n 68727: jump [t0]\n      : @2420 (gas: 7)\n 68729: a0 = a0 << 0x3b\n 68732: a1 = a0 >> 0x38\n 68735: u64 [s1 + 0x118] = a1\n 68739: a2 = 0x80 - a1\n 68743: a0 = 0xffffffffffffffff\n 68746: a1 = 0xffffffffffffffff\n 68749: jump [t0]\n      : @2421 (gas: 7)\n 68751: a1 = a4 if a2 == 0\n 68754: u64 [s1 + 0x150] = a1\n 68758: a1 = u64 [s1 + 0x188]\n 68762: a4 = u64 [s1 + 0x180]\n 68766: a1 = a1 | a4\n 68769: a1 = a0 if a3 == 0\n 68772: jump [t0]\n      : @2422 (gas: 7)\n 68774: a1 = a4 if a2 == 0\n 68777: u64 [s1 + 0x180] = a1\n 68781: a1 = u64 [s1 + 0x188]\n 68785: a4 = u64 [s1 + 0x178]\n 68789: a1 = a1 | a4\n 68792: a1 = a0 if a3 == 0\n 68795: jump [t0]\n      : @2423 (gas: 7)\n 68797: a1 = a4 if a2 == 0\n 68800: u64 [s1 + 0x160] = a1\n 68804: a1 = u64 [s1 + 0x140]\n 68808: a0 = a0 | a1\n 68811: a1 = u64 [s1 + 0x158]\n 68815: a0 = a1 if a3 == 0\n 68818: jump [t0]\n      : @2424 (gas: 7)\n 68820: u64 [s1 + 0x180] = a0\n 68824: a0 = u64 [s1 + 0x160]\n 68828: a0 = a0 | a1\n 68831: u64 [s1 + 0x158] = a0\n 68835: a0 = u64 [s1 + 0x190]\n 68839: a2 = a0 + 0xffffffffffffff80\n 68842: jump [t0]\n      : @2425 (gas: 7)\n 68844: u64 [s1 + 0x178] = a0\n 68848: a0 = u64 [s1 + 0x180]\n 68852: a0 = a0 | a1\n 68855: u64 [s1 + 0x180] = a0\n 68859: a0 = u64 [s1 + 0x190]\n 68863: a2 = a0 + 0xffffffffffffff80\n 68866: jump [t0]\n      : @2426 (gas: 8)\n 68868: u64 [sp + 64] = 0\n 68871: u64 [sp + 56] = 0\n 68874: u64 [sp + 48] = 0\n 68877: a0 = 0x4e487b7100000000\n 68887: a1 = sp + 0x30\n 68890: u64 [sp + 0x48] = a0\n 68893: a0 = 0\n 68895: jump [t0]\n      : @2427 (gas: 11)\n 68897: a0 = u64 [a2 + 0x60]\n 68900: a1 = s1 + 0x100\n 68904: u64 [a1 + 0x98] = a0\n 68908: a0 = u64 [a2 + 0x58]\n 68911: u64 [a1 + 0x90] = a0\n 68915: a0 = u64 [a2 + 0x50]\n 68918: u64 [a1 + 0x88] = a0\n 68922: a0 = u64 [a2 + 0x48]\n 68925: u64 [a1 + 0x80] = a0\n 68929: a0 = 0x2000\n 68933: jump [t0]\n      : @2428 (gas: 10)\n 68935: u64 [s1 + 0xd8] = a0\n 68939: u64 [s1 + 0xe0] = a1\n 68943: a0 = u64 [s1 + 0xd0]\n 68947: a0 = a0 | a1\n 68950: u64 [s1 + 0xd0] = a0\n 68954: a0 = u64 [s1 + 0x118]\n 68958: a2 = a0 + 0xffffffffffffff80\n 68961: a0 = 0xffffffffffffffff\n 68964: a1 = 0xffffffffffffffff\n 68967: jump [t0]\n      : @2429 (gas: 8)\n 68969: a3 = s1 + 0x100\n 68973: a1 = u64 [a3 + 0x90]\n 68977: a0 = a1 <u a0\n 68980: a1 = u64 [a3 + 0x88]\n 68984: a0 = 0 if a1 != 0\n 68986: a1 = u64 [a3 + 0x50]\n 68989: a0 = 0 if a1 != 0\n 68991: jump [t0]\n      : @2430 (gas: 4)\n 68993: a0 = 0x1118\n 68997: a1 = s1 + a0\n 69000: a2 = a1 + 0x200\n 69004: jump [t0]\n      : @2431 (gas: 6)\n 69006: sp = s0 + 0xffffffffffffffa0\n 69009: ra = u64 [sp + 0x58]\n 69012: s0 = u64 [sp + 0x50]\n 69015: s1 = u64 [sp + 0x48]\n 69018: sp = sp + 0x60\n 69021: jump [t0]\n      : @2432 (gas: 8)\n 69023: a4 = a3 + 0x500\n 69027: a0 = u64 [a4 + 0xa8]\n 69031: a1 = u64 [a4 + 0xb0]\n 69035: a2 = u32 [a3 + 0x5b8]\n 69039: u64 [a3 + 1440] = 0\n 69043: u64 [a4 + 0x98] = a2\n 69047: u64 [a4 + 0x90] = a1\n 69051: jump [t0]\n      : @2433 (gas: 4)\n 69053: a1 = 0x2918\n 69057: a3 = s1 + a1\n 69060: a4 = a3 + 0x700\n 69064: jump [t0]\n      : @2434 (gas: 5)\n 69066: a0 = sp + 0xffffffffffffffe0\n 69069: a2 = a0 & 0xffffffffffffffe0\n 69072: u64 [s1 + 0x188] = a2\n 69076: sp = a2\n 69078: jump [t0]\n      : @2435 (gas: 7)\n 69080: a0 = sp + 0xffffffffffffffe0\n 69083: a0 = a0 & 0xffffffffffffffe0\n 69086: u64 [s1 + 0x198] = a0\n 69090: sp = a0\n 69092: i32 a2 = a0 + 0\n 69094: a1 = 0x20\n 69097: jump [t0]\n      : @2436 (gas: 6)\n 69099: a2 = u64 [s1 + 0x190]\n 69103: a3 = a2 <u 0x80\n 69107: u64 [s1 + 0x160] = a3\n 69111: a4 = u64 [s1 + 0x158]\n 69115: a1 = a4 if a3 != 0\n 69118: jump [t0]\n      : @2437 (gas: 8)\n 69120: a0 = u64 [a4 + 0x98]\n 69124: a1 = u64 [a4 + 0xa0]\n 69128: a2 = u64 [a4 + 0x90]\n 69132: a3 = u64 [a4 + 0x88]\n 69136: a1 = a1 | a2\n 69139: a0 = a0 | a3\n 69142: a0 = a0 | a1\n 69145: jump [t0]\n      : @2438 (gas: 8)\n 69147: a0 = a0 + a4\n 69150: a3 = a3 + a1\n 69153: a5 = a3 <u a1\n 69156: a0 = a0 + a5\n 69159: ra = u64 [s1 + 0xe0]\n 69163: ra = ra + a3\n 69166: a3 = ra <u a3\n 69169: jump [t0]\n      : @2439 (gas: 4)\n 69171: i32 a0 = a0 + 0xfffffffffffff918\n 69175: a3 = s1 + a0\n 69178: a4 = a3 + 0x300\n 69182: jump [t0]\n      : @2440 (gas: 4)\n 69184: i32 a0 = a0 + 0xfffffffffffff918\n 69188: a3 = s1 + a0\n 69191: a4 = a3 + 0x200\n 69195: jump [t0]\n      : @2441 (gas: 6)\n 69197: a1 = a3 << 0x3\n 69200: u64 [s1 + 0x118] = a1\n 69204: i32 a2 = 0x80 - a1\n 69208: a0 = 0xffffffffffffffff\n 69211: a1 = 0xffffffffffffffff\n 69214: jump [t0]\n      : @2442 (gas: 4)\n 69216: a4 = 0x100000000\n 69226: a0 = 0xffffffe0\n 69236: a0 = a1 <u a0\n 69239: jump [t0]\n      : @2443 (gas: 6)\n 69241: a1 = a2 & ~a1\n 69244: a2 = u64 [s1 + 0x108]\n 69248: a2 = a2 & ~a5\n 69251: a3 = u64 [s1 + 0x110]\n 69255: a3 = a3 & ~a4\n 69258: jump [t0]\n      : @2444 (gas: 9)\n 69260: sp = sp + 0xffffffffffffffc0\n 69263: u64 [sp + 0x38] = ra\n 69266: u64 [sp + 0x30] = s0\n 69269: u64 [sp + 0x28] = s1\n 69272: s0 = sp + 0x40\n 69275: sp = sp & 0xffffffffffffffe0\n 69278: s1 = a0\n 69280: i32 a0 = sp + 0\n 69282: jump [t0]\n      : @2445 (gas: 4)\n 69284: i32 a0 = a0 + 0x118\n 69288: a3 = s1 + a0\n 69291: a4 = a3 + 0x400\n 69295: jump [t0]\n      : @2446 (gas: 4)\n 69297: i32 a0 = a0 + 0x118\n 69301: a3 = s1 + a0\n 69304: a4 = a3 + 0x200\n 69308: jump [t0]\n      : @2447 (gas: 4)\n 69310: a0 = 0x4118\n 69314: a4 = s1 + a0\n 69317: a5 = a4 + 0x400\n 69321: jump [t0]\n      : @2448 (gas: 4)\n 69323: a0 = 0x4918\n 69327: a3 = s1 + a0\n 69330: a4 = a3 + 0x100\n 69334: jump [t0]\n      : @2449 (gas: 4)\n 69336: a0 = 0x4918\n 69340: a1 = s1 + a0\n 69343: a2 = a1 + 0x500\n 69347: jump [t0]\n      : @2450 (gas: 7)\n 69349: a5 = a2 - a3\n 69352: a5 = a5 - a1\n 69355: a5 = a5 - a0\n 69358: ra = a5 >>a 0x3f\n 69361: a0 = u64 [s1 + 0x188]\n 69365: a0 = ra & a0\n 69368: jump [t0]\n      : @2451 (gas: 7)\n 69370: a0 = a0 + 0xffffffffffffffc0\n 69373: a0 = a1 <u a0\n 69376: a2 = u64 [a3 + 0x90]\n 69380: a0 = 0 if a2 != 0\n 69382: a2 = u64 [a3 + 0x78]\n 69385: a0 = 0 if a2 != 0\n 69387: jump [t0]\n      : @2452 (gas: 8)\n 69389: a0 = u64 [a4 + 0x38]\n 69392: a1 = u64 [a4 + 0x40]\n 69395: a2 = u64 [a4 + 0x30]\n 69398: a3 = u64 [a4 + 0x28]\n 69401: a1 = a1 | a2\n 69404: a0 = a0 | a3\n 69407: a0 = a0 | a1\n 69410: jump [t0]\n      : @2453 (gas: 6)\n 69412: a0 = u64 [a3 + 0x18]\n 69415: a1 = u64 [a3 + 0x10]\n 69418: a2 = u64 [a3 + 0x8]\n 69421: a3 = u64 [a3]\n 69423: a0 = reverse a0\n 69425: jump [t0]\n      : @2454 (gas: 8)\n 69427: u64 [a5 + 0x10] = t2\n 69430: a3 = a0\n 69432: u64 [a5 + 0x18] = a0\n 69435: u64 [s1 + 0x160] = t2\n 69439: u64 [s1 + 0x198] = t1\n 69443: t2 = a1\n 69445: t1 = a4\n 69447: jump [t0]\n      : @2455 (gas: 2)\n 69449: a3 = a2 & 0x40\n 69452: jump @2459 if a3 != 0\n      : @2456 (gas: 1)\n 69455: jump @2458 if a2 == 0\n      : @2457 (gas: 6)\n 69458: i32 a3 = 0x40 - a2\n 69461: a3 = a1 << a3\n 69464: a1 = a1 >> a2\n 69467: a0 = a0 >> a2\n 69470: a0 = a0 | a3\n 69473: ret\n      : @2458 (gas: 1)\n 69475: ret\n      : @2459 (gas: 4)\n 69477: a0 = a2 + 0xffffffffffffffc0\n 69480: a0 = a1 >> a0\n 69483: a1 = 0\n 69485: ret\n      : @2460 (gas: 2)\n 69487: a3 = a2 & 0x40\n 69490: jump @2464 if a3 != 0\n      : @2461 (gas: 1)\n 69493: jump @2463 if a2 == 0\n      : @2462 (gas: 6)\n 69496: i32 a3 = 0x40 - a2\n 69499: a3 = a0 >> a3\n 69502: a0 = a0 << a2\n 69505: a1 = a1 << a2\n 69508: a1 = a1 | a3\n 69511: ret\n      : @2463 (gas: 1)\n 69513: ret\n      : @2464 (gas: 4)\n 69515: a1 = a2 + 0xffffffffffffffc0\n 69518: a1 = a0 << a1\n 69521: a0 = 0\n 69523: ret\n","bytecode":{"object":"50564d0000b442010000000000010700c1d001c000800381985763696e6167724f736d654765747361145916539c07e08b84f2a4d01fcd4413afdaa322977f4919e057646b6f18b4e3145916539c07e08b84f2a4d01fcd4413afdaa322977f4919e057646b6f18b4e3f0a106e87c2710d9fe76f941267b8ff607cf4fd406d0c5d85356823d2f49d1a26369666675736e4972616320746e656964657263206e6f626961766120737469a5d6135609d7b99c4c4fa15b8abf3d7edf8457849775d3f2c70c66e0897a914d9d3a6d4d81feda13b82b220ad8d300fe020c1f09bb1254e70db434ef3ffe138c206d756d696e694d6967657220746f4e000064657265747321acf13650b1821f647377fab369a6e61a69567c114cf004bc9533dc933940c46d20746e756f6d41672065622074737574207265746165726f72657a206e61682079646165726c4172657473696765725b7decebe5e15b8cf3841e7d42714fd11e29b2f7c01403dd25b9c3c7c80a205b9bc8e21bad52f2ddaa8d37fc68b0c26916a1c463f1a72b95efb323f54d5af5289bc8e21bad52f2ddaa8d37fc68b0c26916a1c463f1a72b95efb323f54d5af5280480f40f000000000400000012000000200000002e00000034000000410000004c0000005b0000005e0000006e0000007e000000890000009b000000a600000063616c6c63616c6c5f646174615f636f707963616c6c5f646174615f6c6f616463616c6c5f646174615f73697a6563616c6c65726465706f7369745f6576656e746765745f73746f72616765686173685f6b656363616b5f3235366e6f7772657475726e5f646174615f636f707972657475726e5f646174615f73697a657365616c5f72657475726e7365745f696d6d757461626c655f646174617365745f73746f7261676576616c75655f7472616e73666572726564051302c193020463616c6cc19c02066465706c6f7906c1f23f84cc03c1950f9b0000e301000603001a03002b0300e10300a60400ae0400840500c80500030600450600bb06000007004d0700590700d007001208005d08006a0800c70800dc08000609004009006e09008d0900fc09002c0a00e10a00900b00a60b007b0c00900c00c10c00e10d00ee0d001b0e00210e00390e003f0e00450e004b0e00550e00760e00d50e00260f002c0f00460f006c0f00890f00930f00db0f00e80f004610005c1000841000bf1000ed10000e11007d1100ae1100631200dc1200f31200ce1300dc13001214003815004615007515007c15009515009c1500a31500aa1500b51500d715006c1600d11600d81600f416001b1700391700441700b517000d18004318004e1800961800a31800ce1800dc1800551900ab1900bb1900d91900131a00231a00411a007b1a008b1a00a91a00e31a00f31a00111b004b1b005b1b00791b00b31b00c31b00e11b00241c00411c00721c00891c00941c00bb1c00611e006c1e00a71e00b21e00f01e00fc1f001720001e20002d20004b20006520006c2000b32000be2000c52000d32000ea2000f520000521000e21002e21004e21006821006f2100912100a02100b02100cb21003122003c2200432200512200682200732200a72200cb2200d22200ff2200542300e02300ee2300492400942400af24000425001225003025009d2500ab2500c92500e425003b2600492600672600c32600d12600ef26005127007d2700a02700d52700e02700fe27003028005f28008a2800ec2800062900522900a82900b92900d12a00ec2a00112b00572b00bd2b00c82b00cf2b00f62b00bd2c00d02c00ec2c000a2d00512d005c2d00a62d00d22d00fc2d00172e002f2e003c2e00572e008e2e00a42e00af2e00292f00362f004d2f009a2f00a12f00ea2f001a3000353000943000a33000c93000ec30003e31004531008e3100bf3100da31004032004b3200523200883200933200af3200de32000b33002d33003833005e33007e33000234001c34005d34006434009c3400a334001935002435002b35003935005035005b35007e3500873500a73500c73500e13500e835000a3600133600443600633600cd3600d83600183700993700a23700c23700453800c23800b13900bc39001f3a00413a00843a008f3a00b83a00353b00513b009b3b00f33b00003c002b3c003a3c00613c00df3c00e83c00083d00523d005d3d00863d001a3e00593e00803e00b93e00273f00993f000c4000454000b44000ce40001c41002e41006a4100d84100274200ae42001b43002643002d43004f4300924300cd4300d443001044002444005c4400fc4400394500584500b74500c64500f145002e4600c94600f546003c47004747008a4700954700b94700f847001748002948003448005148003f49006b49008a49009c4900a74900df4900ea49000b4a00474a00664a00ee4a00714b00824b00a14b00f64b00214c00384c006f4c007a4c00ab4c00ca4c00314d00384d003f4d00774d00804d00ad4d00cc4d002c4e005b4e00204f00294f00494f00a34f00ae4f00d04f00d94f002250002b50004b50006a50007c5000875000a550000051005c5100c15100db51000c52002252004b5200b652000653001453004a53005553005c53007e53009d5300e65300f553000354001e54002d54004154006d5400995400eb54000255003c5500725500945500ca5500ec5500265600485600c25600ff56006a5700805700ca5700dd57001c58008c5800ec58005059005e5900955900a05900e85900ef5900585b005f5b00955b009c5b00d95b00e05b00fd5b00065c00265c00535c00715c00785c009a5c00b55c00105d002a5d003c5d005a5d00615d00895d00905d00e15d00f05d00fd5d00135e003b5e00595e00795e00975e00a25e00c45e00d95e00f45e003e5f004d5f00715f00945f00e85f00f35f00fa5f000760001d60005960007a6000c16000cc6000ea6000f36000356100556100716100876100926100b061002162004463005f6300846300ca63002a64003164007c6400ad6400c46400716500ab6500c665002b6600326600396600596600a46600e86600ef6600346700486700836700e26700ed6700f46700016800456800a96800c36800f568003b6900426900ac6900b76900be6900f169001d6a00266a006b6a00746a00946a00db6a00e66a00426b00766b00926b00a86b00b36b00cc6b00d56b000a6c00296c00926c009d6c00a46c00b16c00c76c00d26c00fa6c00036d00236d00436d005d6d00646d00826d00916d00a16d00bc6d00216e002c6e00336e00586e00c76e00d56e003c6f00496f00656f008a6f00976f00cb6f00d66f00dd6f00ea6f000070000b70002e70003770005770005e70008b7000ad7000b87000e17000287100317100627100c77100d271000672006972009972006b7300c47300d273001e74002574004374009b7400a27400c07400d574001075005b7500707500a87500f575000a7600437600b27600f476005f77006a77007177007e77009477009f7700c77700d07700f07700f777002478004678005178007a7800b87800c17800ee78005279005d7900917900f179002f7a00027b009a7b00a87b00097c00107c002e7c00807c00877c00a57c00fa7c00657d00a77d00147e001d7e003d7e00687e007a7e00857e009e7e00f47e00ff7e002d7f00437f00567f007a7f00837f00a37f00ce7f00e07f00eb7f000480005a8000658000948000b780001181001c8100638100528200ba8200c582000283000d8300a68300e084002985008d8500a68500b88500de8500e585000b86001286004586005386006286005a87007587007c87008b87009287009d8700b78700bd8700ee87001a88002e8800c18800c78800df8800188900808900d389001d8a003f8a005a8a00698a00788a00c78a009c8b00198c00628c00698c00ad8c00b88c00e28c00348d003b8d007e8d00858d00af8d001f8e00338e00798e00d18e00388f008d8f009c8f00be8f00d88f00f68f00449000529000209100df91000793002193004593008a9300d69300f09300fe93000c94005a9400689400349500b19500cb9600e59600eb9600f996001697002f97003597006b9700859700939700a19700ef9700129a00c89a00f79a00219b00359b00c69b00cc9b00e39b00219c00889c00689d00829d00889d00969d009c9d00a69d00bf9d00c59d00379e00459e009c9e00ad9e00009f007a9f00889f00e59f0059a000e4a000fea0000ca1001aa10020a1002aa10043a10049a1004fa1000da30013a30031a3003aa3005ba30085a300a6a300b0a300e2a3003ca4007ba4008ca40092a400d1a400dfa4003aa50044a500e7a500f8a6005ca7006ba700d7a700b8a80007a9000da90055a90089a900e6a90018aa006aaa0074ab0083ab00f1ab00e6ad001cae0025ae006cae0072ae00adae00e1ae0041af0051af0065af006baf00a4af00b4af00c8af00ceaf0007b00017b0002cb00091b0009fb000f8b000d7b100f1b100ffb1000db20013b2001db20036b2003cb20042b20051b30026b4002cb4004db40072b40078b40092b400a3b400adb400dfb40036b50040b50046b50069b5007ab50080b5009eb500a7b500c8b500ceb500e1b500f2b500fcb50005b60013b6006db60077b600aeb600bfb600c5b600e3b60008b7000eb70026b70037b70041b7004ab70058b700b2b700bcb700ebb700fcb70002b80023b8002cb8004db80053b80066b80077b80081b8008ab80098b800eab800f4b80023b90034b9003ab9005bb90064b90085b9008bb9009eb900abb900b1b900bcb9000fba0019ba001fba003eba0062ba00b8ba00c2ba0006bb002abb0075bb00bdbb00cebb00d4bb00edbb00f6bb0013bc0039bc0044bc005bbc0088bc00d0bc0009bd0032bd00babd00cfbd00e2bd000cbe0024be0037be0060be006ebe00eabe004bbf00b8bf002ec00049c000b1c000c0c0003ec100a5c10009c20017c20037c20046c200bbc200cac2003cc3004bc300b2c3000fc40018c40062c400b6c400ecc4006bc50053c700f6c7004dc8006fc80089c800a7c800f3c800c4c9009aca00b8ca00f7ca0005cb0041cb0051cb008acb0099cb00ffcb0017cc0023cd005bcd00a7ce00e9ce0001cf0027cf0091cf0015d0008dd000a8d000ced000ebd00060d100d0d100ded100e7d1005ed200aad200d3d200e3d200f7d2001ed30040d30054d3007fd30090d300a5d300d0d300dfd300f3d30036d4004bd40055d400b9d400c7d400d0d40040d50082d50093d5009cd500bdd5006fd60078d60099d60001d7001fd70065d70083d70035d80047d80077d800a9d800afd800e3d800e9d800f4d8002ed90054d900c2d900e2da00f0da00c7dd00dcdd00e6dd0009de0043de0080de00ebde004ddf0079df00c2df00ccdf00dddf00e6df0007e00056e0005ce00062e000abe000bce000dbe000fee00014e10028e10031e10052e1007de10093e100a7e100b0e100e8e100fce10005e20026e2004fe20055e20082e200a4e200f0e2005ce300e6e3000ce40020e40029e40061e40075e400b0e400c4e400cde4002ae5003fe50049e500a8e500bbe500dfe5003ce600b3e600f0e60014e7009ce700fae7006ee8007de8008be800fde80071e90081e90087e90090e900abe900b1e900c1e900c7e900d0e900e5e9004eea00b3ea00b1eb00c2eb00e1eb0005ec0075ec007dec0084ec009cec00c0ec0028ed003ced0043ed005bed007fed0047ee0062ee0069ee0083ee00a7ee00fdee0027ef0069ef00c9ef0025f000a0f000fef000f7f1007df20095f300f0f3005af4003ef5004df50067f5008bf500c7f500e0f5000ef60024f60042f600e7f600eef60006f7002af700cff700d6f700f0f70014f800b2f800d0f80012f9001bf90036f900bef900dcf90058fa0061fa0098fa00c2fa00e0fa001bfb0024fb003dfb00a9fb00b7fb00cdfb00fffb0073fc00b5fc00d3fc0017fd0035fd0083fd00aafd00d4fd0002fe0023fe0059fe00f4fe00fdfe000bff0024ff0048ff00b7ff000500014400016e00018c0001ce0001d70001f000015801016601017c0101a901010f02015102016a02019c0201a60201aa876e978a2098aa20977b2098bb20c89b0bc9ba0a979b019abbaeab20ae873751094ec87909647a017c8b95880195ac0178ab64caab9cf42836510934c87909647a017c8b95880195ac0178ab64caab9cf4281c51091a839aff01c8a80b7cbb9599ffc8a70c78cb83aaff5209f032003908a001025108081c3307d0010383770a0c28fb1b9511f07b10087b156489647533082064975010029f047c78017c797c7a027c7b03978808d4980897aa1097bb18d4ba0ad4a8087c79057c7a047c7b067c7c07979908d4a90997bb1097cc18d4cb0bd4b909979920d489027c79097c7a087c7b0a7c7c0b979908d4a90997bb1097cc18d4cb0bd4b9097c7a0d7c7b0c7c7c0e7c780f97aa08d4ba0a97cc10978818d4c808d4a808978820d498037c78117c7a107c7b127c7c13978808d4a80897bb1097cc18d4cb0bd4b8087c7a157c7b147c7c167c791797aa08d4ba0a97cc10979918d4c909d4a909979920d4890a7c78197c79187c7b1a7c7c1b978808d4980897bb1097cc18d4cb0bd4b8087c791d7c7b1c7c7c1e7c771f979908d4b90997cc10977718d4c707d49707977720d487076f776fa86f396f2a7b5a187b59107b58087b57821008821595111032009511d87b10207b15187b161082897b19088289087b1982851082861833082050100457036f686f59821a6faa821b086fbb787b18787a10787908787898bc38787c1f98bc30787c1e98bc28787c1d98bc20787c1c98bc18787c1b98bc10787c1a98bb08787b1998ab38787b1798ab30787b1698ab28787b1598ab20787b1498ab18787b1398ab10787b1298aa08787a11989a38787a0f989a30787a0e989a28787a0d989a20787a0c989a18787a0b989a10787a0a98990878790998893878790798893078790698892878790598892078790498891878790398891078790298880878780182102082151882161095112832009511a07b10587b15507b16489515608411e06476828718828910828a0882886f776f996faa6f887b18187b1a107b19087b17491138491130491128491120481140208318831a20831b403309ff33073300060a0601821738821830821928821a206f775012086803017b6a187b69107b68087b6750120a690a0132009511a07b10587b15509515608411e08272827a08827b108277188283828908828c108288186f746fbb6faa6f276f826fcc6f996f387b17187b1a107b1b087b147b18387b19307b1c287b12208318831a203309ff330b2033070a0d9551a08210588215509511603200951160ff7b1098007b1590007b1688009515a0008411e082ab7b1b3882ab087b1b3082ab107b1b2882aa187b1a20829a7b1a18829a087b1a10829a107b1a088299187b19648650100c590182186f888219086f99821a106faa821b186fbb7b1b587b1a507b19487b18408218206f888219286f99821a306faa821b386fbb7b1b787b1a707b19687b18608379836a8317403308020a05955160ff8210980082159000821688009511a0003200951120ff7b10d8007b15d0007b16c8009515e0008411e082bc7b1c4082bc087b1c4882bc107b1c5082bb187b1b5833020e82ab7b1b1882ab087b1b2082ab107b1b2882aa187b1a308296829a087b1a829a107b1a088299187b19107b18383300102892007b18385010108c006f687b187882186f887b18708218086f887b18688218106f887b18608218186f887b1898008218206f887b1890008218286f887b1888008218306f887b1880008218406f887b18b8008218486f887b18b0008218506f887b18a8008218586f887b18a0008379811a388317603308030a05955120ff8210d8008215d0008216c8009511e00032008b7910520931c8780883881f8488e056380000012533099c0102390a9c0102ae8a093d089c0102013308b001028377c887073200009511f07b10087b158475010a03013d0798010251050750101248330014951110fe7b10e8017b15e0017b16d8019515f001951190ab8411e0641695691841492920034929180349290803800033074095682044492910033300e80028fafb951110fe7b10e8017b15e0017b16d8019515f0019511f0f88411e0641649265806492650064926400680003307409568400649264806501016c1fb49267806492670064926680649266006836760060a0e01956b000682b77082b87882b96882ba60d49808d4a707d48707510706284b139567200633084050101845fa82633806826b3006826c2806826420068e378eb8db37088ec78849c0859901dbc709d43b077b671801db7809510906281c13954740d84708c88c09d8c90ada880ac8ba0ad8ba08c88302956800067b877b89087b8a10330740956800067b6218067b63a0007b6b98007b6ca8007b64b00050101a09fb8267b00082699800d4970b8268a000826aa800d4a808d48b0b98bb20d49808978820d4b808510806289d124926f8054926f0054926e8059568e0054926e0051050101cc4fa8269b0001407e0ffffff00000000d879078268a80094878268180194875207062860128397204926c8053a0a0000023a090800024926c0057b6ad8059568c0057b69d0057b67d00050101e77fa9567a00533084050102031f98264b80595680005828cb000828ba8008287a0008e498ec8db49088eba8879c0859901dbba09d44c0a7b6a1801dba809510906286c12957340d87308c88b09d8b90ada880ac8ca0ad8ca087b678000c884027b6380057b6988057b6a9005330740956880057b6298057b6c707b6b787b6468501022f4f982678000826970d4970a826878826b68d4b808d48a0a98aa20d49808978820d4a808510806288b11492678054926700549266805956860054926600503501024b2f9826980001407e0ffffff00000000d879078268789487826818019487520706284f118397204926500549264805492640051409000000000047574f956840057b6958057b671850102667f9956720058268b00050102820f895670005827a388278308279288ea78e8bdba70b7b69c8008e977b68587b6ac000d4a8087b67507b6b88007b68b800db8b0751070628c111826720057b67604926980649269006492688064926800603956700059568800650102aeff9956b000582b71082b80882b982ba1850122c17ff0088920184807fd27c04d23c0bdb9800880820d2ac0c648994b9d4c4079479aa920628cb1150122ed400018267608877207b679000510a02027b6bf0007b60f8007b6c00017b6410014926f8044926f0044926e8049568e0044926e00403330750103084f839089c010256181f0b20039c010220019517e08479e07b69080164913307b00102837783993308203300320a070182676095781fd87807826cc800c87c09d8c90ada770a826b58501234c4fd008268900094c8826ab80094a8948b9487c87402d84207c8790cc8cb0b7b6b1801d39b0cd89b0adac70a7b6ae0008267f80095701fd8700b826af000c8ba07d8a70cdabb0c82631001c8c303973b3b987a05d4ba0a97773b980b05d4b707c847077b67f800d8470764245012366a0201826758d87b07826ac000c8a70798ba05977b3bd4ba0a826b080182b282bb08987705948a94876fb86f2b501238f50301c8a70282671001d87307826a0001c8a707983a05977c3bd4ca0a987705c8b707826b1801c88a0ad88a08c88707c8a9097b69e800d8a908c887077b67e0009517e08473e064317b63d800018267f800d874078269f000d39b08d89b09da8709826ce800d8c007826ae000d3a208d8a20ada870ad3c007d48707da790a7b347b3b087b30107b3218510a5f4926b8064926b0064926a8064926a0069568a00664377b6410017b6b18017b6208017b60000150103a51f88263d80082620801826b180182641001954401884701c87b0bd4b40788770182680001c88707d88708c8820264702868ff82679000857701826bc800826850dbb807826888008269b800db98078263c000d43b0282685898893f7b695097330198bc3f978401826a6098a03f97bb0197a9017b69407b63387b60307b6c287b644851071b027b6288007b6b2084aae07b6a90004926b8044926b0044926a8049568a0044926a00403330750103c34f69517e08477e07b67f8006471330820330750103e94f99518e08488e07b68f0006481837783893308200a07492618012033024926100149260801330b330c330049260001826af00082a71882a81082a90882a36f776f886f9a6f3364348269f8007b93187b6ad0007b9a107b68f0007b9808647a7b97017b64e80064a3826790007b6be000d87b07857b017b6cd80094cb01956c000182c7d47007947b018268b00082c718c87808826aa800c82a0a8269980082c710c879098267a00082640801c8740482678800520b510182671801d8780bc8ba0a6427d32a027b67c000d87a0cda2b0c5012404efb007b63c8005207010d956720027b60b800501042faf3956b000282b73882b83082b92882ba20956b00067bb7d8007bb8d0007bb9c8007bbac0009568c0068267f80050104471f68264c8009544018847018262f000c87202d424078877018268d000c87803d883088267e800c88707826818019589207b69e800d8890a8268c000c8a8097b69c800d8890bdaaa0b82681001c8b800d8800b82680801c8b8087b6808018268e000958b20d88b0c8269d800c8c908d89809dacc09826ab800c8a909d8a90c826a0001c8ca0a7b6a0001642a7b6af000826cf8007bca08644a7bc47bc31064747bc7187b63d0008267e8007b6718018262c8007b601001648c6490288dfe826950d48a07d4270752073f01492600014926f8004926080149261001826338826230826828826c482865016420826360826b9000d33b0b826c58d4cb0bd47b0b826220826c48510bb90082671801d8780bc8ba0ad30a02d80a0cda2b0c501246e8f90052079f0b956780045010489cf295680004828798007b671001828790007b670801828788007b670001828780007b67f00082676050124a64fe0050104c5401017b67e8007b68d0003307ff3308ff8269180150104e1601015012500eff005010520a01015012545ff700826900015012562a0001956b00067bbaf8007bb9f0007bb8e8007bb7e0009568e0068267f800501058bcf4826c4882622001826750826838d48707826828d4c808826930d49209826a4095aa01492618074926100749260807956c0007490c037bca207bc9287bc8307bc7389567000795682007330068286bf49567c0048268d0007b6b2050105ab5f1826c48826b20826828826230826338826950826a608267d8047b6710018267d0047b6708018267c8047b67f8008267c0047b67000101d48c077b67f000d493077b67e800d42b077b67e00050125c2dff0050105e4900017b67c0007b68d8008267608a79033307ff3308ff5010600900017b67d0007b68c8008268c000d487077b67c000826718018379803307ff3308ff501062e3ff00826b180188b98000826ac000db9a07826cc800826ad80050126434f900826bd000501266a2f800826b40d4b707826be000d4b808826be800d4ba0a826bf000d4b909956c0007491c40037bc9707bca787bc8687bc760492658074926500749264807956740079568600750106857f3956760048268800050106aa2f095670004827a788279708278688ea78e9bdba70b7b6898008e877b6990007b6a8800d4a9097b67b8007b6bc0007b69d000db9b075207140b826760047b67a0004926980749269007492688074926800704956740049568800750106c70f2956b000482b75082b84882b94082ba5850126e97f70088920184807fd27c04d23c0bdb9800880820d2ac0c648994b9d4c4079479ab921e0b50127056f9008267a0008877207b67c800510a05027b6bf0007b60f8007b6c00017b641001492638044926300449262804956820044926200404330750107205f139089c010256181f0b20039c010220019517e08479e07b69080164913307b00102837783993308203300740a07018267a00095781fd87807826c9800c87c09d8c90ada770a826b900050127643f6008268c80094c8826ad00094a8948b9487c87402d84207c8790cc8cb0b7b6b1801d39b0cd89b0adac70a7b6ae0008267f80095701fd8700b826af000c8ba07d8a70cdabb0c82631001c8c303973b3b987a05d4ba0a97773b980b05d4b707c847077b67f800d847076424501278e9fa0082679000d87b07826a8800c8a70798ba05977b3bd4ba0a826b080182b282bb08987705948a94876fb86f2b50127a73fc00c8a70282671001d87307826a0001c8a707983a05977c3bd4ca0a987705c8b707826b1801c88a0ad88a08c88707c8a9097b69e800d8a908c887077b67e0009517e08473e064317b63d800018267f800d874078269f000d39b08d89b09da8709826ce800d8c007826ae000d3a208d8a20ada870ad3c007d48707da790a7b347b3b087b30107b3218510a5f4926b8074926b0074926a8074926a0079568a00764377b6410017b6b18017b6208017b60000150107ccff08263d80082620801826b180182641001954401884701c87b0bd4b40788770182680001c88707d88708c8820264702868ff8267c800857701826998008268b800db98078268c000826ad000dba807510719028267a0008477e07b67a8004926f8034926f0034926e8039568e0034926e00304330750107ee8ee9517e08477e07b670001647133082033075020800048f29518e08488e07b68f8006481837783893308200a074926180120330c4926080149261001330b330a330933038267f80082721882781082700882777b67f0006f277b67f8006f846f028267f0006f786480826700017b781864287b68b8007b781064487b68e8007b78088268f8007b78017b60e0008267a8007b6bd000d87b07857b017b6ac80094ab017b63f0007b69d800d43907947b018267800082681801c87808826a787b6cc000c8ca0282647082690801c84909826368826c1001c8c303520b4201d87800c8020bd3ab02d8ab0cda200c50228200b3f4005207b2059567c00250208400afec956b000282b7d80082b8d00082b9c80082bac000956b00077bb7d8007bb8d0007bb9c8007bbac0009568c007826700015020860021ef8260f800950001880701826ae800c87a0ad4a0078877018268b800c88707d887088262e000c88202826818019589207b69e000d889088269c000c8890b7b6bb000d89b0bda880b82680801c8b804d8840b82681001c8b8087b6810018268d000958b20d88b0c8269c800c8c908d89809dacc09826cd800c8c909d8c90c8263f000c8c3037b6ae800826c00017bca08640a7b6af8007bca7bc71064207bc2187b67b8008267e0007b671801826cb0007b640801648a289dfe826aa000826b9000d4ba07826c8800d4c908d4870752078001492600014926f800492608014926100128a901826ba800826ca000d3cb0b82609000d40b0b7b6b1801826c9800826b8800d4bc0c826b1801d4cb0b510bbe00d87800c8020bd3ab02d8ab0cda200c5022880049f300520748049567c00350208a0045eb956800038287d8007b6710018287d0007b6708018287c8007b67f8008287c0007b67f0008267a00050228c000bf70050208e00faf9007b67e8007b68d0003307ff3308ff8269180150209000bbf90050229200b2f70050209400adf9005022960001f0008269f80050229800cbf800956b00077bbaf8007bb9f0007bb8e8007bb7e0009568e0078267000150209a005ced826090000198073f82688800978801d48707826a980098a83f970901d49808826ba00098b93f97aa01d4a90997ba0195aa01956b0010492b18f8956b0010492b10f8956b0010492b08f8956c0010492c00f804956b00107bba20f8956a00107ba928f8956900107b9830f8956800107b8738f89567ff079577019568ff079588213300aa0028d1ec9567000482681850209c001fea826c8800826b900082699800826aa000956800048287187b6710018287107b6708018287087b67f80082877b6700010198973f97b801d487077b67f00098b73f97c801d487077b67e80098a73f979801d487077b67e00097a7017b67d80050229e0083f7005020a0009ef8007b67b8007b68d0008267a0008a79033307ff3308ff5020a2005cf8007b67c8007b68c0008268b800d487077b67b800826718018379803307ff3308ff5020a40035f800826b180188b98000826ab800db9a07826cc000826ad0005022a60085f100826bc8005022a800f2f000826bd800d4b707826be000d4b808826be800d4ba0a826bf000d4b909956c0010492c40f804956b00107bb970f8956900107b9a78f8956900107b9868f8956800107b8760f895670010492758f895670010492750f895670010492748f89567ff079577419568ff079588615020aa007eeb3307b001037b67180183777b6710010a0401826918018097108298829908d48707d49707510725049567ff079577990049074917f895670010492788f895680010492880f8059567a0039568ff07958881005020ac00aaea8267a0037b6700018267a8037b67f8008267b8037b67f0008267b0037b670801826710013300ae000a04826918013302b0002842ef00826918015022b0003aef00826a080198aa2097aa20d4a909956aff0795aa9900491a20491a18491a10491a0805826bf0007bab407ba9387ba7307ba8289567ff079577a1009568ff079588c1005020b2009dea956780033308405020b400e8e7826798037b67f000826790037b67e800826788037b67e000826780037b67d800826710013300b6000a0401956b000182b9185022b8007eed00d4780298aa206f99979820d4a80898992082ba0897aa2098aa2049263803492658037b6a50038267f8007b67480382b77b6740033a0a1000023a0b1800023a0c2000023a072800027b6a7803956a00037bab707bac687ba7607ba9307ba82895696003956a4003956b20037b622003330733085020ba00f3ea8267f0008268e000d487078268d8006489826ae800d4a808d47808988820d4a707977720d487075107ec02003308b00102838833070133090a0b014926500149264801492640013302bc00140700000000717b484e01956840017b67580133075020be000ae84926380149263001492620014133070495682001492628015020c000ece739089c010256183f1220039c0102403308b001022870023308b001022868024926900149268801492680013302c200140700000000717b484e01956880017b67980133075020c400a2e74926780149267001492660014133070495686001492668015020c60084e739089c010256183f1220039c0102403308b001022808023308b001022800024926d0014926c8014926c0013302c800140700000000717b484e019568c0017b67d80133075020ca003ae74926b8014926b0014926a001413307049568a0014926a8015020cc001ce739089c010256183f1220039c0102403308b0010228a0013308b001022898014926100249260802492600023302ce00140700000000717b484e01956800027b67180233075020d000d2e64926f8014926f0014926e001223307049568e0014926e8015020d200b4e639089c010256183f1220039c0102403308b001022838013308b001022830014926700249266802492660023302d400140700000000717b484e01956860027b67780233075020d6006ae64926580249265002492640024133070495684002492648025020d8004ce639089c010256183f1220039c0102403308b0010228d0003308b0010228c8004926b0024926a8024926a0023302da00140700000000717b484e019568a0027b67b80233075020dc0002e64926980249269002492680022233070495688002492688025020de00e4e539089c010256183f1120039c0102403308b0010228683308b001022861492610034926080349260003140700000000f7bd4f1e956800037b67180333075020e000a1e54926f8024926f0024926e8023307049568e0024926e0025020e20084e539089c010256183f1120039c0102403308b0010228083308b001020183883307013309240a0b01649733085020e400c9e88377330833090a0128f6e38267d80033085020e600b2e88378330733090a0b28fffc33079801027b67980139079801025517040828d0c300956700408377400433083300ea000a0201956b184181b7440352475bcba58d0a283d305247419bd8950a282d49956918495247798322a20a28bf525247bb9c05a90a280b515147d533f3b39a0352471fe53db60a28375a5247d4ee30bf0a28e71752478d4fb2c10a28911952475b1dcac20a284c4f52477e0ca8c50a28924a956a1851524743e352c60a28373c52470c7a6ac70a28e23552473eed62dd0a283a4c5247273e35e00a286c425247608833e70a28b0305147de3769fba804524703defd060a2883255247b3a75e090a281b0e52472c273d0c0a28404052470cdf640c0a288c135247dd0d16180a28de11524750f37b1a0a286446524708a0a31a0a286c145247e4961f230a284b475247dd72b8230a28da27524767e53c310a285741524768211b400a28f53552474ce2f6580a28991252479b5017600a28a62652479a0cd8660a281c1e5147c369416b0a28d22d49192049191849191049190895670050837720f90a0e01956a184982a71882a82082a91082aa08d49808d4a707d4870751070728acb7008267980181775617030828afb700956818494918404918384918304918280695676014956840495020ec0056e4330700105022ee00bfeb008297607b6720018297587b6718018297507b6710018297487b670801956818494918604918584918504918480795674014956860495020f00010e4330700105022f20079eb008297407b6700018297387b67f8008297307b67f0008297287b67e800956718494927800049177849177064784918680895672014956880495020f400c7e3956818110182822003828718038284100382830803682a6878958940db2a09684a6838958840db4a08958b8000d4270adaab09d88b0c94ac8ecb8898f700858a01daca0b88b0019500ff9ab89accc9ac0a9a99f6007b6890018e8c8e08da0c087b698801889c000185cc018ea9dba90cdbb80cd42408d47309d49808888801d4c8087b625001642b948b647c948c644994897b6978017b63580194837b63700151080628a36c6472826388018538ff0082679001d47808d40a09d4980852080628866c9539017b699801889801c8a8087b687001d49808888801c878087b686001d87808c808087b6868019a37ff007b6790019a7980008267580164487b6448017b6240015020f60054ef007b6788017b6880018267400182685001826990015020f8005fef005022fa00d5ec0082675801826848015020fc0049ef0082699001889a80007b6a3801826b8001dbab08826b50015022fe0062ec0082674001da97087b68880182675801826848015020000111ef005022020148eb0082ba3893a87bb87893a77bb7900051090628ac69330c4926380128786b4929e0024929d8024929d0024929c802956700508377e0fb330004010a0e33070050330206012891ed00330700505022060189ed00502208012ae6005107072836b50050220a01b9e800ac78072839b5009567c01e33000c013302ba0828a6ed00956a181950220e01b1ec009568a01e7bb78800330750201001c0e03302120195681819014928800549287805492868050e64893307209568801e492970055020140197e039089c010256183f143308403d089c0102330216012897e5005022160193e5003307b0010283778399330840330018010a0733021a0128dce10050221a01d8e1007bba000395ba00027ba9f8007ba8f0007ba7e8009567601e9568004c50201c0126e1956818199589000550221e0188eb00837740fec8670733084050202001dbde956a181995ac000582c74082c83882c93082cb28502222011ee30051070728a9b300956900018297800095ac00057bc708829788007bc710829790007bc7189568201e829798007bc72064b77b6b98013300620428bbdf492a6004492a5804492a5004492a48049567005083776005330024010a0e33070050330226012877ec0033070050502226016fec005022280177e80051070728dab30050222a013be700ac780728ddb3009567004433002c013302ba082828ec003307004050222e0145ec0082b7e80082b8f00080a9f802492ae0027b6928017bb9d8007b6830017bb8d0009568e0437b6738017bb7c8003307502030011edf956818414928c0024928b8024928a8020a64893307209568c0434929b00250203201fade50223401d4e80033099c010239079c010233083fac781520039c0102407b694001330236012815e8007b694001502236010de8003307b00102837783993308407b6748010a07826a900182a71882a81082a90882aa6f7c6f8b6f976fa87b686801826998017b98187b6770017b97107b6b60017b9b087b6c58017b9c9567a0433308405020380137dd9562184195270002827ca000827b9800827a9000827988008ec78eb8dbc7088ea77b699001889940ff8599017b6a8801dba709d4cb077b675001db780951090728aeb200826790019573c000d8730882698801c88907d8970ada880ac8ba0ad8ba087b6b8001c88c0b7b236802952900027b97707b9a78330740956880437b9b80007b6c780150203a01e5dd956760438268980150203c01c9de956b000182b7900082b98000d4970782b8880082ba78d4a808d48707987720d49808978820d48707510707285eb10095691841829748028477ff008e77492940024929380249293002956840437b9728028267900150203e017cdd8267580195770188780182696001c89808d48709889901826a7001c8a909d8a90a826b6801c8ba0a956b185195bc00047bc8707bc7687bc9787bca800095672043956880555020400123de140900000000010000001407e0ffffff0000000050224201c1e80052070728c5b000956c18417b69980182c2200295c70002827818827a10827b08826790018377207b6b180195c900017b9be8007b6a20017b9af0007b6878017b98f800956800437b6280017bc2000250204401c1dc8268580195870250224601dddd007bc990007bc788007bca98007bc8a0009567e0429568a0555020480187dd95690001829798009577c082989000d8780782988800948782985094875207072827b000956c184182c2e00195ca000182abd80082a8d00082a9c800826790018377407b6910017ba9a8007b6898017ba8b0007b6b00017babb8009568c0427b6208017bc2c00150204a0128dc8268580195870350224c0144dd007bc9b0007bc7a8007bcab8007bc8c0009567a0429568c05550204e01eedc140900000000010000001407a0ffffff00000000502250018ce7005207072890af00956718417b69f80064798272a001957a000182a8980082ab900082ac8800826790018377607b6cd800959a00017bac687b6be0007bab707b68e8007ba878956880427b62f0007b928001502052018adb8268580195870450225401a6dc007bc9d0007bc7c8007bcad8007bc8e000956760429568e0555020560150dc956a000182a9508267f80095778082a89000d8780782a888009487949752070728f0ae00956b184182b2600195bc000182c85882c95082ca4882679001837780007bca287bc9307bc838956840427bb240017b67f8005020580102db8268580195870550225a011edc007bc9f0007bc7e8007bcaf8007bb80005956720429568005650205c01c8db140760ffffff000000009569000182989000d8780782988800948782985094875207072865ae00956c184182c2200195c70001827818827910827a08826b900183b7a0007bcae8007bc9f0007bc8f800956800427bc200017b67900150205e0174da956918414929e000826728017b97d800826730017b97d0009568e041826738017b97c80033075020600148da956718414927c0004927b8004927b00064793307209568c0414929a8005020620125da82694001819756173f08480940019517e08477e07b6788016471837933084082674801330064010a07826a8801330266012828dd00826a88015022660120dd0095bc00057bca207bc9187bc8107bc7089567a0419568205650206801b9da956818418287a0007b67c800828798007b67c000828790007b67b800828788007b67b000956780418268f80050206a015bd895681841828780007b67a8008287787b67a0008287707b6798008287687b679000956760418268900150206c012cd8956818418287607b6788008287587b6780008287507b67788287487b67709567404133084050206e0101d895691841829240829c38829b30829728d42b0ad4c708d4a808988820d4ca0a97aa20d4a80851080728c5ac00826818017b9808826820017b9810826878017b981895682041826a80017b9a207b67f8007b6bd0007b6288017b6c900150207001d9d88269d0008268f80082679001826a8801d47a0a5022720161e500949794a7520707286aac00838720956818397b6b9001648b8268d80095b900077b98e8008268e0007b98f0008268e8007b98f80095680041826bf000956c18417bcb7b6a20015020740173d88269f800826790019577c0d879078268d00094878268200194875207072808ac0083974082681001956b183995b900077b98c800826898017b98d000826800017b98d8009568e040826a08017b9ae000502076011dd81407a0ffffff0000000050227801b5dc0052070728bbab008268100182630001d4380764898262980182600801d40208d487078877017b67900168379577406808da070868979577406829da270995978000d4030bdab708d8970994b98e9b8887f700857c01da9c0b88b701957aff9ab79a99c9c9049a89f6007b6780018e788eac7b6a7001daa80c8e487b696801889a000185aa01db480adbbc0a82679001d4a7079470947364289478826b1001947b5107072818a000956a000182a7688577ff0082a98000d4970282a770d47407d4720752070728f69f00826968019598017b689001888701c847077b678801d4870788770182688001c887077b677801d8870782687001c887077b6780019a98ff007b6870019a898000826710018268980150207a017fe4007b6768017b68600182670001826808018269700150207c018ae4007b67580182676001d487077b67600182677001957980826710018268980150207e0165e40082697001889a80007b6a5001826b6001dbab08826b0801da9b087b68600182686801826b5801d4b808daa70882670001da97087b6868018267100182689801502080011fe400956c000182c9880082ca8000d4a90982ca900082cb78d4ba0ad4a90982ca5093a87bc85893a77bc77051090728d79c00492650014926380128a29e00492ba003492b9803492b9003492b8803956700408377a004330082010a0e33070040330284012850e000330700405022840148e0005022860138e20051070728e6aa00826798018177330843ac780728e7aa0095678005330088013302ba08289ae20095680005828790007b677801828788007b679001828780007b6798019517e08477e07b6780016471956700408377c0043308240a0295671841957b000382b8c00082b9b80082bab00082b7a8007b683001826b80017bb8187b6928017bb9107b6a20017bba087b6718017bb73307b001037b67880183777b6770010a0401826988018097108298829908d48707d497075207072851aa00956a000182a77897772098782082a7900082a99800d497077ba878d487075207072890aa008267700133008a010a040182698801829708819810829950228c0103d700492678057b6870057b676805956860057b6a6005330750208e01d9d449265805492650054926400501330720956840054926480550209001bbd433089c010239079c010256173f0b20039c010240019517e08479e07b69580164913307b00102837783997b6868013308407b676001330092010a07826a58013302940128d7e100826a580150229401cfe1007b6750016f877b6748016f977b6740016fa77b6738019517e08477e07b675801647149263805826778017b673005826790017b67280595682005826798017b6720053307502096011fd482673801956a00057ba718826740017ba710826748017ba70833072095680005826950017ba950209801f3d382686801818756173f08480840019517e08477e07b676801647183793308408267600133009a010a0701956c000182ca6882a71882a81082a90882aa6f7b50229c016cd80082c7587b7a187b79107b78087b7b82c8800050209e0104d59567e0043308405020a0014fd2956b000482b7f80082b8f00082b9e80082bae0005022a201a0da00510707281da700826718017b67c004826720017b67c804826728017b67d0049568c004826730017b67d80464a77b6a80015020a40137d3826770013300a6010a04826988013302a80128b3d700826988015022a801abd700d4780298aa206f99979820d4a80898992049267804826778017b677004826790017b676804826798017b676004492698043a0a3801023a0b4001023a0c4801023a075001027b6ab8047b6bb0047b6ca8047b67a0047b6990047b6888043308209569a004956a8004956b60047b628004826780015020aa011fd5956740043308405020ac0155d1956b000482ba5882b85082b94882b7405022ae015ad9005108072827a6004926380449263004492628049568200449262004017b67980133006204284ed2492b6004492b5804492b5004492b480495670040837760053300b0010a0e3302b2012828df005022b20124df0082c75882c86082c95082ca48d49808d4a707d4870751070728e9a7008267980181775617030828eca700492b8004492b7804492b7004492b68040295670007956880455020b401cdd295680007828718956900017b9798008287107b9790008287087b97880082877b9780009567e0063308405020b60171d0956b000682b7f80082b8f00082b9e80082bae0005022b801c2d800510707283fa5009569000182978000956b00067bb7c000829788007bb7c800829790007bb7d0009568c006829798007bb7d80064a77b6a980133006204284dd1492b2007492b1807492b1007492b080795670050837720f83300ba010a0e01956a184195ab00075022bc012eda00510707281ea700826798018177561703082821a7009567ff07957701073308405020be01c2cf956aff0795aa190182ab000695ac000582c8f80082c9f00082c7e8005022c0010ad5005108072888a400492ae005492ad805492ac80590019568ff079588e106492ad0057b6798013300620428aad0492b2004492b1804492b1004492b080495670040837720053300c2010a0e3302c4012884dd005022c40180dd0082c71882c82082c91082ca08d49808d4a707d487075107072889a60082679801817756170308288ca600492b4004492b3804492b3004492b2804089567a006956840455020c60129d18267b806956800017b8798008267b0067b8790008267a8067b8788008267a0067b878000956780063308405020c801ccce956b000682b7980082b8900082b9880082ba80005022ca011dd700510707289aa3009569000182978000956b00067bb760829788007bb768829790007bb77095686006829798007bb77864a77b6a98013300620428accf492be004492bd804492bd004492bc804956700408377e0053300cc010a0e330700403302ce012868dc00330700405022ce0160dc005022d0019dd40051070728b3a5008267980181775617030828b6a5003307b001037b67980183777b6778013300d2010a04826998013302d401288fd000826998015022d40187d0004919207b98187b97109568ff07958821017b9a0833075020d60116cf9567ff079577190149074917f895680010492800f90a3307209568ff079588010195690010492908f95020d801e7ce33099c010239079c010233083fac781520039c0102407b6980013302da012809d8007b6980015022da0101d8003307b00102837783993308407b6788013300dc010a07826a90013302de0128ded500826a90015022de01d6d5007bba000595ba00047ba9f8007ba8f0007ba7e8009567ff079577e100956800465020e00159cf956700107c77e0f852070728c1a4009567ff079577c1003308405020e2010dcd95670010827bd8f895670010827cd0f895670010827ac8f8956700108277c0f8d4ba09d4c708d49808988820d4c909979920d4980851080728c1a100956800104928b0f8956800104928a8f8956800104928a0f8140900000000a079c3089568ff079588a100956200107b29b8f87b6798017b6a90017b6b88017b6c80015020e401c3cd956c000182c8980082c7880082ca8000d47a0a5022e601e9cf005207072858a10083870495680010492898f895680010492890f895690010492980f8209568ff079588810095690010492988f87b6a88017b6b80015020e80168cd5022ea01a9d1005207072810a10083872495680010492878f895680010492870f895690010492960f8129568ff0795886195690010492968f85020ec0129cd5022ee0115d50052070728d1a0008397443a082801023a09300102956a00107ba858f8956800107b8950f814080000000000006465956900107b9848f89568ff0795884195690010492940f833004e0528d3cc4929800349297803492970034929680395670050837780fc3300f0010a0e330700503302f201281ed900330700505022f20116d9005022f401efd50051070728a1a4005022f60153d400ac780728a4a400956780233300f8013302ba082840d900330700205022fa015dd90082b76882b87080a97802492a60027bb9587bb850956860237bb74833075020fc0147cc3302fe0195681821014928400249283802492828021064893307209568402349293002502000021ecc39089c010256183f143308403d089c010233020202281ed100502202021ad1003307b0010283778399330840330004020a07330206022863cd00502206025fcd0095bc00037bcaa0007bc998007bc890007bc78800956720239568a04c50200802adcc33020a02956818210195890002829720956800017b8798008297187b8790008297107b8788008297087b8780009567002333084050200c0247ca956a182182a7000295ac000182c8f80082c9f00082cbe80050220e0286ce0051070728119f00956900018297800095ac00017bc7c800829788007bc7d000829790007bc7d8009568e022829798007bc7e00064b77b6b980133006204281fcb4929c0034929b8034929b0034929a803956700508377c0fc330010020a0e3307005033021202286ad700330700505022120262d70082b7b80082b8c00082b9b00082baa800d49808d4a707d4870751070728fda200826798018177330843ac780728fea20095670025330014023302ba082878d700956818218287e8037b6778018287f0037b6770018087f8037b676801956700508377e0fc3308240a0295671849957900038298e0007b6898018298d8007b6890018298d0007b6888018297c8007b678001956718214927e00382686801957a00037ba8d800826870017ba8d0009568e024826978017ba9c8003307502016022cca3302180295681821014928c0034928b8034928a8030c64893307209568c0244929b00350201a0203ca9517e08477e07b676801647133099c010239079c010256173f0b20039c010240017b6970019517e08479e07b69600164913307b00102837783993308407b6778010a07826a600182a71882a81082a90882aa6f7b6f8c6f996fa7826868017b6760017b87187b6948017b89107b6c50017b8c087b6b58017b8b9567a02450201c0272ca956c182195c90003829790008298880082c29803829aa00082698801d3790bd8790782698001d88908dbb708826b9801d3ab07d8ab0a82699001d8290bdb7a0bd32909d49707db7b085208072882a1008267580195c900037b9768826750017b9770826748017b977895688024826760017b978000330750201e0203c982697001819756171f08480920019517e08477e07b67700164718379330820826778010a07826a700182a71882a81082a90882ab6f706f8a6f977b6770016fb77b6768019518e08488e06481330b0382678001977901c87909d6b70c826b880197b701c8b702c8c207c89004d804007b647801c87a0cc80c03d3a30cd8a30a7b638001dac00ad82707330c03d6cb09c89707826b900197b901c8b900d6cb0b82699801979c01c89c0cc8cb0b82696801c89b0bc80709d87907c8b707826b7001c8b909d8b90bc8b707c89a0a7b6a9001d89a09c897077b6798017b83087b847b8a107b8718956760245020200206c933070020502222026fd0008297587b6768018297507b6770018297487b6788018267780195770188780182698001c89808d48709889901826a9001c8a909d8a90a826b9801c8ba0a956b18497bba000495ba00037ba9f8007ba8f0007ba7e800956740249568004d5020240298c8956c182182c740037b67600182c738037b6758018268780195870250222602fcce0082c830037b68800182689001c88a0ad88a08826b9801c8b80882cb28037b6b9001956b184995bc00047bc8207bca187bc9107bc708956720249568204d5020280233c83307002050222a029ccf00829720956800017b87508297187b87488297107b87408297087b87389567002433084050202c02d3c5956a182182ac000382a2f80282abf00282a7e802d4cb09d42708d49808988820d42909979920d4980851080728939a007b6b78011408ffffffff0000000082696801d28909826870018488ff7b6c7001826c880184cbff492ae00295ac00027bcbc8007bc8d0009568e0237bc9d8007b6798017b62880150202e0290c6956b000182ba7882b8980082b77082b98800d479095022300216d30094a79497520707281f9a00838720826890017b698801956918217b6b7001649b959a00027ba8a800826880017ba8b000826858017ba8b8009568c023826960017bb9c002502032022ac695690001829a98008297709577c0d87a07829878948782988800948752070728bd990083a74082683801956b182195ba00027ba88800826840017ba89000826848017ba898009568a023826950017ba9a00050203402d2c533086082679801502036023bc9837833096033070a0b289833492b8007492b7807492b7007492b680795670050837780f8330038020a0e01956a184195ab000750223a02e0ce0051070728e49d00826798018177330843ac780728e59d009567401233003c023302ba08282fd20095681811828728017b677801828730017b677001808738017b676801956700508377a0f83308240a0295671841957900078298a0007b688001829898007b688801829890007b689001829788007b679801956718114927200182686801957a00017ba818826870017ba81095682012826978017ba908330750203e02e6c4330240029568181101492800014928f8004928e8000b6489330720956800124929f00050204202bdc49517e08477e07b676001647139089c010256183f0b20039c010240019517e08479e07b69780164913307b00102837783993308407b675001330044020a07826a7801330246022885c500826a7801502246027dc500826860017b6a58017b8a187b6968017b89107b6b70017b8b087b6778017b879567e0115020480231c5956c181182c7d00082c8c80082c4d80082cae00082639001d3730bd8730782629801d88208dbb70882608001d3a007d8a009826a8801d84a0bdb790bd34a09d49707db7b0852080728759c009517e08477e07b67600164717bc0607bca587bc3507bc248826758017bc78000826768017bc778826770017bc7709567a0119568801195696011826a78017bca6850204a02d2ab0095681811828b98007b6b80018287a0007b679801828988007b698801828890007b689001826a60017bab107ba7187ba97ba80864a89567401150204c025ec4956818118287407b6778018287387b6770018287307b6768018287287b67600150224e0263cd00959a00077ba8b000d478087ba7a80088870182688001c887077ba7b800d8870782689801c887077ba7c000956720119568c04850205002fec3956818118287207b6758018287187b6750018287107b6748018287087b67400182688801958702d88708826a9001c88a09d8a90ada880a82688001c88a0ad88a08826b9801c8b808956b184195bc00077bc8e0007bcad8007bc9d0007bc7c800956700119568e0485020520290c39568181182877b673801958900ff8297f8007b6730018297f0007b6728018297e8007b67200182688801958703d88708826a9001c88a09d8a90ada880a82688001c88a0ad88a08826b9801c8b808956b18497bb895b800ff7b8af8007b89f0007b87e8009567e01095680049502054021ec3956cff0795cc190182c7e0077b67180182c7d8077b67100182c7d0077b67080182678801957904d87907826a9001c87a08d8a80ada770a82c7c8077b67000182678001c87a0ad87a07826b9801c8b70795cb00077bb7a0007bba98007bb890009567c0109568a0107bb9880050205602a2ae009568ff0795881901958900078297c0007b67e0008297b8007b67e8008297b0007b67f0008297a8007b67f800956780103308405020580246c09569ff07959919018292800795980007828c78828b70828768d42b0ad4c708d4a808988820d4ca0a97aa20d4a80851080728019500826860017b984807826868017b985007826870017b98580795686010826a78017b9a60077b6798017b6b90017b6288017b6c800150205a0211c1956c000182c8980082c7880082c98000d4790a50225c0299cd0082c99000949794a7520707289e94008387209568ff07958819017b6a7801648a8268400195ac00077bc828826848017bc830826850017bc83895684010826958017bc9407b6b700150205e02a9c0956a000182a8980082a77050226002d3cd00520707284694008387409569ff079599190182682001959b00077bb808826828017bb810826830017bb81895682010826a38017bba20502062025bc0956c000182ca7882c89800140b00000000010000001407a0ffffff00000000d8780782c99000949794a752070728e093008387609569ff079599190182680001959a00067ba8e800826808017ba8f000826810017ba8f80095680010826a18017b9a00077b6b700150206402edbf956b000182b9900082b8980082b770957780d87807949782ba7894a75207072880930083878000956aff0795aa1901492ae006492ad806492ac806a0009568ff079588e107492ad006502066029ebf826798019577a00082689801d88708826a9001c88a09d8a90ada880a82688001c88a0ad88a08826b8801c88b0b9568ff0795881901958c00067bc9707bc7688267e0007bc7a0008267e8007bc798008267f0007bc790008267f8007bc788007bca78648a9567ff079577c1079568ff079588a1079569ff07959981077bab8006502068028ca4009567ff07957719018278b0068272c0068273a806827ab8069569000182979000d3780bd8780c647082979800d87304dab40c82978000c97a0bd87a0a8297880028a95d492b6003492b5803492b5003492b4803956700408377600433006a020a0e3307004033026c0228f2c8003307004050226c02eac80050226e028dc70051070728219700826798018177561703082824970095678003330840502070023cbd826798037b67f800826790037b670001826788037b670801826780037b67100195671841492780034927780349277003492768030395676003956880445020720225bf956b000382b77882b87082b96882ba607b6790017bb7387b6888017bb8307b6980017bb92895674003956820037b6a98017bba20502074023fa8005022760264c60051080728a09100956c000382c95882ca5082c84882cb407b6b40017bcb7b6850017bc8087b6a48017bca10956800037b6958017bc91850207802b5bd826a980184a70151070628b64350227a02adc4005208072850910084a800ff83b720826a8001956900027b9a88007b988000826888017b98900095688002826a90017b9a980050207c0269bd956a000182ac10330433034926900182a74882a840d4870782a85882a950d49808d487078e779777057ba79800285459492b4007492b3807492b3007492b280795670050837740f80a0e01956b184195bc000782c73882c84082c93082ca28d49808d4a707d4870751070728ac95008267980181775617030828af9500492b6007492b5807492b5007492b4807069567ff07957761079568604850207e02bbbd9568ff079588190195890006829760956800017b8798008297587b8790008297507b8788008297487b8780009567ff07957741073308405020800252bb956aff0795aa190195ac000682c74082c83882c93082cb285022820291bf00510707281c9000956900018297800095ac00067bc708829788007bc710829790007bc7189568ff0795882107829798007bc72064b77b6b980133006204282abc492be005492bd805492bd005492bc805956700408377e006330084020a0e01956a184195ab00055022860229c10051070728cc9400826798018177330863ac780728cd94009567ff0795778104330088023302ba08289fc8009568ff079588190195890003829780007b6748018297787b6758018297707b6798018297687b6790019567ff079577610433008a023302c4082862c8009568ff0795881901958900038297607b6740018297587b6738018297507b6730018297487b67280195670040837700073308440a029567184182780006956a00017ba88800957900058298f8007ba8788298f0007ba8688297e8007ba77082a7589777209877209569ff0795991901492940037ba718959b00037bb73882a798007bb7309568ff079588410482a790007bb728330750208c02fcba9568ff07958819014928200349281803492808030164893307209568ff07958821044929100350208e02d0ba33089c010239079c010256173f0b20039c010240019517e08479e07b69500164913307b00102837783997b6860013308407b678001330090020a07826a50013302920228ecc700826a500150229202e4c7007b6708016f877b6700016f977b67f8006fa77b67f0009517e08477e07b67100164713307b001037b67500183777b672001330094020a048269500133029602288dbb00826950015022960285bb0049290003959b00027bb8f8007bb7f0009568ff07958801047bbae8003307502098020cba8267f0009568ff0795881901958900027b97e0008267f8007b97d800826700017b97d000648a3307209568ff079588e103826908017ba9c80250209a02cdb982686001818756173f08480840019517e08477e07b67080150229c0264bf0033009e020a07826a08013302a00228aeba00826a08015022a002a6ba00826810017b8a187b89107b8b087b879567ff079577c1035020a20266ba956aff0795aa190182a2c00282a4b80282abb00282a9a802d22b07d24908d287075117ff8502826770017b691001d8790382686801d38b07d88b0cda730c82697801d8940082688801d38207d88208da7008d39409d49707da7c087b6b08017b6200017b64f80051080728e194007b60e0007b6ce8007b63f0009569000182979000829818d4870782989800d4870752070728d39500826720010a0401826950018097108298829908d48707d49707520707281596009569ff07959919014929a00282679001959a00027ba78800826798017ba790009568ff079588a103826718017ba7980033075020a40286b89568ff07958819014928800249287802492868020164893307209568ff0795888103492970025020a6025ab882686001818756173f08480840019517e08477e07b6718015022a802f1bd003300aa020a07826a18013302ac02288cc500826a18015022ac0284c5007b67d8006f877b67d0006f977b67c8006fa77b67c0009517e08477e07b6718016471826720013300ae020a04826950013302b0022838b900826950015022b00230b90049296002959b00027bb8587bb7509568ff07958861037bba4833075020b202bab78267c0009568ff0795881901958900027b97408267c8007b97388267d0007b9730648a3307209568ff07958841038269d8007ba928025020b4027eb782686001818756173f08480840019517e08477e07b6760015022b60215bd000a07956c000182c7788268f800c978078269e800c99708d8970782c9880082cac99a09826ae000c9a909c9790982c76882ca08c97a07826af000c9a707956a18417ba920067ba818067ba7100682cb6082b782c87082c910c989087ba8080682b8086f7982c7187b791882ba1082b9186f887b78106fa87b78086f987b78956820475020b80245b8956aff0795aa190101956c000182c7707ba7c80082c7287ba7e80082c790007ba7080182c7687ba7d00082c7307ba7f00082c798007ba7100182c7787ba7d80082c7387ba7f80082c7587ba7180182c788007ba7e00082c7407ba700019567ff07957721029568ff07958801029569ff079599e10182cb487bab20015020ba02aaac009567ff079577c1013308405020bc0209b5956aff0795aa190182abc00082a8b80082a9b00082a7a8005022be0255ba0051080728d38900492aa000492a9800492a8800019568ff079588a101492a90007b6798013300620428f6b551473182a0700b28e48e00492900014929f8004929f0004929e80095670050837700fa3300c0020a0e01956a184982a7f80082a8000182a9f00082aae800d49808d4a707d4870751070728ef8e005022c2026bbd00ac780728f28e00956700153300c4023302ba082858c200956b181195bc000382c9e80082c7f00082c8f80082ba00047bcac0007bc8b8007bc7b0009567e0149568c0147bc9a8005020c60223a900330700105022c802b1bd008297e000956800017b8798008297d8007b8790008297d0007b8788008297c8007b8780009567a0143308405020ca02e0b3956a181195ac000382c7a00082c8980082c9900082cb88005022cc021fb80051070728aa8800956900018297800095ac00037bc768829788007bc770829790007bc77895688014829798007bc7800064b77b6b98013300620428bbb4956718494927a001492798014927900149278801956700508377a0fa3300ce020a0e3302d002289ec1005022d0029ac1005022d202c8c00051070728e58d008267980181775617030828e88d00956818494928c0014928b8014928b0014928a801059567e0159568c04a5020d40240b53302d6029568181101958900048297d800956800017b8788008297d0007b8798008297c8007b8790009567c0153308405020d802deb2956a181195ac000482cbc00082c8b80082c9b00082c7a8005022da022ab80051080728a88700956b000182b88800978820988920492aa00482b8900095ac00047bc8880082b898007bc890009568a0157bc998007b6798013300620428b6b3826798018177330863ac780728318d009567203f3300dc023302ba082864c00095671839957900068298187b6868018298107b6898018297087b679001956700508377e0023308243300de020a0201956718518272e00195780001828bd8008289c800828ad000330c40420fd6c907caca08c887077b676001d88707d6ca08c88707cacb08c878087b685801d878077b6a3001d42a087b698801d4b909d4890acac2097b6b4001d6cb08c88909c8790b510a1a94b7d88908d6c2098e99d49808d4870751070728f090004926800140420f956c00017bcb507b62380182c768977720987920956a1839492ac00582c7900095ab00057bb7a80082c798007bb7b0009568c03e7bc9707bb9b80033075020e002a5b23302e20295681839014928a00549289805492888050d64893307209568a03e492990055020e4027cb233089c010239079c010256173f0b20039c010240018267880182698001ca97077b6748019517e08479e07b69280164913307b001027b670001837783997b6878013308407b6780013300e6020a07826a28013302e802285ab500826a28015022e80252b5007bba000295ba00017ba9f8007ba8f0007ba7e8009567803e956800535020ea02e7b23302ec02956818390195890005829780007b6710018297787b6718018297707b6720018297687b67280149286005826770017b9758826798017b975064899568603e826790017b97480533075020ee02a3b13302f00295681839014928400549283805492828050e64893307209568403e492930055020f2027ab182687801818756173f08480840019517e08477e07b6708015022f40211b7003300f6020a07826a08013302f8022881b400826a08015022f80279b40095bc00027bca207bc9187bc8107bc7089567203e956820535020fa0212b2956b183995bc000582c70882c81082c91882ca2095bc00047bcac0007bc9b8007bc8b0007bc7a800826710017bc7e000826718017bc7d800826720017bc7d0009567003e9568e03d9569c03d826a28017bcac8005020fc0292a30095621839952a000482a7f00082a8e80082a9f800822a0005826b6001d3b70cd8b707826b4801d8b808dbc708826b5001d3ba07d8ba0a826c5801d8c90bdb7a0bd3c909d49707db7b08520806289c2c9567803a3308405020fe022faf956918398292800195980001828c78828b70828768d42b0ad4c708d4a808988820d4ca0a97aa20d4a80851080728ee8300492958014929500149294801140a00000000a079c3089568603a7b9a60017b6798017b6b90017b6280017b6c88015020000304b0956c000182c8980082c7880082ca8000d47a0a502202032ab2005207072899830083870495691839492940014929380149292801209568403a492930017b6a88017b6b800150200403b9af956a000182a8980082a780009577dc5022060353b9005207072852830083872495691839492920014929180149290801259568203a49291001502008037aaf95670001827a8800827b900082789800140900000000010000001407bcffffff00000000d8780794b794a752070728fe82008387443a087000027b698001956c18397bc800013a087800023a098000023a0a8800027bc8f8007bc9f0009568003a7bcae80050200a030faf956a000182a9980082a7800095779cd8790782a89000948782a88800948752070728a08200839764956a1839492ad800492ad0001408000000656c62616c7ba8e0009568e039492ac80050200c03bfae330884008267980150200e0327b28378330701330984000a0b01492a4001492a3801492a3001492a28019567005083774002330010030a0e330700503302120328d1b6003307005050221203c9b60050221403b8bb0051070728fb87008267980181775617030828fe87009567a036330840502016030dad956a183195ac000582cba00082c8980082c9900082c788005022180359b20051080728d78100492a8005492a7805492a680500ca9a3b95688036492a70057b6798013300620428fbad492b6006492b5806492b5006492b4806956700408377600733001a030a0e01956a184195ab000650221c03c5b6005107072884870050221e0389b500ac7807288787009567ff079577c106330020033302ba082872ba00956aff0795aa19015022220379b9009568ff079588a1067bb7880033075020240384ad9568ff07958819014928800549287805492868050a64893307209568ff0795888106492970055020260358ad9517e08477e07b677801647139089c010256183f143308403d089c010233022803284cb2005022280348b2003307b00102837783993308400a07826a980182a71882a81082a90882aa6f7c7b6c88016f8b7b6b90016f997b6980016fa77b679801826878017b87187b89107b8b087b8c9567ff079577610650202a03ccad9567ff0795771901827748057b67780150222c03e1b600959a00067ba870d478087ba76888870182688001c887077ba778d8870782689801c887077ba780009567ff07957741069568804750202e037bad9568ff0795881901958900058297407b6770018297387b6768018297307b6760018297287b6758018268880195870250223003f2ad007bc8a0007bca98007bc990007bc788009567ff07957721069568a0475020320323ad9568ff0795881901958900058297207b6750018297187b6748018297107b6740018297087b67380182688801958703502234039aad007bc8c0007bcab8007bc9b0007bc7a8009567ff07957701069568c04750203603cbac9568ff0795881901828700057b673001958900048297f8007b6728018297f0007b6720018297e8007b67180182688801958704502238033ead007bc8e0007bcad8007bc9d0007bc7c8009567ff079577e1059568e04750203a036fac956cff0795cc190182c7e0047b67100182c7d8047b67080182688801958705d88708826a9001c88a09d8a90ada880a82c8d0047b68880182688001c88a0ad88a08826b9801c8b80882cbc8047b6b8001956b18417bb8000795b800067b8af8007b89f0007b87e8009567ff079577c1059568004850203c03f5ab9568ff0795881901958900048297c0007b6700018297b8007b67f8008297b0007b67f0008297a8007b67e8009567ff079577a10533084050203e038ca99569ff07959919018292a00495980004828c9800828b900082878800d42b0ad4c708d4a808988820d4ca0a97aa20d4a80851080628447e7c6878018e8a4929800449297804492970049568ff07958881057b9a68047b6798017b6b90017b62e0007b6c7801502040035baa956c000182c8980082c778826be0005022420368b30052070628f47d838720826858019569ff07959919017b6ae000649a959c00047bc848826860017bc850826868017bc8589568ff0795886105826970017ba960047b6b780150204403fba9956a000182a898008267e0005022460324b70052070628977d83874082683801956aff0795aa190195ab00047bb828826840017bb830826848017bb8389568ff0795884105826950017bb94050204803a9a9956b000182b89800140a00000000010000001407a0ffffff00000000d8780782b99000949782b9789497520706282e7d838760826818019569ff07959919017b6a7001649a959b00047bb808826820017bb810826828017bb8189568ff0795882105826930017ba9200450204a0339a995690001829b78829a900082989800829770957780d8780794a794b752070628cc7c8387800082688001956bff0795bb190195b900037b98e800826888017b98f000826808017b98f8009568ff0795880105826910017bb9000450204c03d9a895690001829a9800140760ffffff00000000d87a07829890009487829878948752070628687c83a7a0008268e800956bff0795bb190195ba00037ba8c8008268f0007ba8d0008268f8007ba8d8009568ff079588e104826900017ba9e00050204e0375a83308c0008267980150205003ddab83783309c00033070a0b283916492900054929f8044929f0044929e80495670050837700fe330052030a0e33070050330254032857b00033070050502254034fb00082b7f80082a8000582b9f00082bae800d49808d4a707d4870751070728e28100826798018177562783000928e4810095670050837720fe330804330056030a023302580328f4b40050225803f0b4008297207b67f0008297187b67e8008297107b6700018297087b67f80095670050837740fe3308240a02019569184995970005827c40827a38827b30d4ca0788b8019478520807288b810082982805826798018073958723d88709c89b027b6b8001d8b20bda990bc8ab0b7b6a8801d8ab097b6c9001c8c909d4b909d8370794279497520707285d81007b68780183880495670050837760fe0a0201956918498293600582945805829c5005d4340788c8019478520807283d81008292480582677801957824d8780082698001c8090a7b622001c882027b688000d8820b7b6c1801c8ca07c8b707d3a70cd8a708dacb08d89a0ada000a956c000182c98800c89a0ad89a097b63900082cb9000c83b0bc8b9097b648800c84a0bd8ab0ac8a90982ca980080aac8b808d8b80bc8b909d82a0a887b0185aa01db7b0a889701888b01db970bd49808db8b0a520a0728b8800095670050837780fe33084433005a030a0233025c032884b30050225c0380b300829780007b67d0008297787b67c8008297707b67c0008297687b67b800956700508377a0fe33086433005e030a02330260032847b3005022600343b3008297a0007b67b000829798007b67a800829790007b67a000829788007b6798003307b001037b67080183777b67e000330062030a043302640328d1a60050226403cda60049296005959b00057bb8587bb750956860367bba48330750206603c8a53302680395681831014928400549283805492828050a6489330720956840364929300550206a039fa533099c010239079c010233083fac781520039c0102407b69100133026c032896aa007b69100150226c038eaa003307b00102837783993308407b67d80033006e030a073302700328d3a60050227003cfa60095bc00057bcac0007bc9b8007bc8b0007bc7a800956720369568c04e502072031da6956718317c7708055107062848289567402933084050207403d6a3956b182982b24082bc3882ba3082b728d42a09d4c708d49808988820d4c909979920d49808510806289a78491b18491b10491b087b6a9001140a00000000a079c308956820297bba207b6798017b6288017b6c800150207603b5a4956c000182c8980082c7880082ca8000d47a0a50227803dba600520706284a7883870433027a03956918290149094919f84919e820956800294919f07b6a88017b6b800150207c036ba450227e03aca800520706281378838724956b1821492be007492bd807492bc8070e9568e028492bd007502080033ca450228203bfab0052070628e47783a7443a08d800023a09e00002956b18217bb8c007492bb0077bb9b8079568c028492ba80733004e052800a4492be003492bd803492bd003492bc803956700408377e004330084030a0e01956a184195ab000350228603ffa80051070628117e502288038fab00ac780628157e9567400633008a033302ba08287db000826740068268480680695006492638067b6930067b682806956820067b672006330750208c038aa34926180649261006492600060f330720956800064926080650208e036ca339089c010256183f143308403d089c010233029003286ca8005022900368a8003307b0010283778399330840330092030a07826a9801330294032874aa00826a9801502294036caa007bba000495ba00037ba9f8007ba8f0007ba7e8009567e0059568004550209603f3a38267e0057b6798019567c00533084050209803b2a1956b000582bad80082b8d00082b9c80082b7c00050229a03b3a9005108062880767c6898018e894926b8054926b0054926a8059568a0057b69a0057b6798013300620428a3a2492b4006492b3806492b3006492b2806956700408377400733009c030a0e01956a184195ab000650229e03c7af0051070628d67c8267980181775617030728da7c9567ff079577c1043308405020a0031aa1956aff0795aa190195ac000382cbc00082c8b80082c9b00082c7a8005022a20362a60051080628e075492aa003492a9803492a8803099568ff079588a104492a90037b679801330062042804a2492a8001492a7801492a7001492a680195670050837780023300a4030a0e330700503302a6032833aa00330700505022a6032baa005022a80320ab00510706284b7c5022aa0385a900ac7806284f7c9567c0393300ac033302ba082873ae00956a183982a7a80082a8b00080a9b800492aa000956b00017bb988007ba998007bb890007ba890009568a0397bb798007ba7880033075020ae036ca195681839492880004918784918680d6489330720956880394919705020b0034ba133089c010239079c010256173f0b20039c010240019517e08479e07b69700164913307b00102837783997b6880013308407b6778013300b2030a07826a70013302b4032855a700826a70015022b4034da7007bcaa0007bc998007bc890007bc78800956760399568a0525020b603cda13302b80395681839018287607b6700018287587b67f8008287507b6710018287487b671801491840826788017b8738826790017b8730648995684039826798017b972833075020ba0390a0956818394918204918184918080e6489330720956820394919105020bc0370a082688001818756173f0f4808403302be032801a7005022be03fda600826778013300c0030a07826a98013302c203288fa600826a98015022c20387a6007bcac0007bc9b8007bc8b0007bc7a800956700399568c0525020c40307a195671839827a957c00ff82cbf80082c8f00082c9e800956c18317b6ae8007bcaa0077b6be0007bcb98077b68f00095cb00077bb890007b6908017bb98800826700017bb7c0008267f8007bb7b800826710017bb7b0009567e0389568c0389569a038826a18017bbaa8005020c603719200956718318273e0078270d8078272d0078279c8077b69480168376808958a40db370a68276898958840db270895878000d43009da970ad8870c949c8ecb88a7ed00857901dac90b88b7019577ff9ab89accc99c04956900017b9880008e8c8e787b9770da7c089aa7ec007b9778887c000185cc018e47db470cdbb80cd43207829a48d40a08d48707887701d4c7074929880040420f6438643b947b640c947c7b629801642964a29479947a51070628f22e64037b684001826778018577ff0082688001d4870782607001d40408d4870752070628cd2e826978019598017b689001888701c847077b676001d4870788770182688001c887077b675001d88707c807077b6758019a98ff007b6880019a8980006427826898017b6338015020c8030cac007b6778017b6870018267380182684001826980015020ca0317ac007b67680182677001d487077b6770018267800195798082674801826898015020cc03f2ab0082698001889a80007b6a3001826b7001dbab08826b4001da9b087b68700182687801826b6801d4b808daa70882673801da97087b68780182674801826898015020ce03acab00826a5001826b580182696001d4b909956b000182bc9000d4ac0cd4c90982ba3093a87bb86893a77bb7800051090628b12b330c4926300128812d492ba004492b9804492b9004492b8804956700408377a0053300d0030a0e3302d2032898aa005022d20394aa0082c7980082c8a00082c9900082ca8800d49808d4a707d48707510706281d7882679801817756170307282178492bc004492bb804492bb004492ba80409956760079568c0455020d4033b9e82677807956800017b879800826770077b879000826768077b878800826760077b878000956740073308405020d603de9b956b000782b75882b85082b94882ba405022d80333a40051070628b0709569000182978000956b00077bb720829788007bb728829790007bb73095682007829798007bb73864a77b6a98013300620428c39c492ba005492b9805492b9005492b8805956700408377a0060a0e01956b184195bc000582c7980082c8a00082c9900082ca8800d49808d4a707d48707510706284e7782679801817756170307285277492bc005492bb805492bb005492ba805079567ff07957781019568c0465020da03469d9568ff079588190182878000956900017b9798008287787b9790008287707b9788008287687b9780009567ff07957761013308405020dc03e09a956aff0795aa190182a76082a85882a95082ab485022de03239f0051070628ae6f95690001829780007ba728829788007ba730829790007ba7389568ff0795884101829798007ba74064b77b6b98013300620428c19b956718494927e0014927d8014927d0014927c801956700508377e0fa3300e0030a0e3302e20328a4a8005022e203a0a8005022e403b6a000510706287276826798018177561703072876769567e0173308405020e603329a95681811958900068297e0007b67f8008297d8007b6700018297d0007b6708018297c8007b67100195681849492800024928f8014928f0014928e801049567c0179568004b5020e803139c956b181195bc000682c7c00082c8b80082c9b00082caa8007b6790017bc780007b6888017bc8787b6980017bc9709567a017956880177b6a98017bca685020ea032485005022ec0349a30051080628856e956c181182c9a00682ca980682c8900682cb88067b6b40017bcb48067b68500195cb00067bb8507b6a48017bba58956860177b6958017bb9605020ee03919a826a980184a7015107062897335022f00389a100520806282c6e84a800ff83b720956a18118269800195ab00057bb9d0007bb8c800826888017bb8d8009568e016826990017bb9e0005020f203429a956c1811826210013304330349269001956a000182a74882a840d4870782a85882a950d49808d487078e779777057ba798002867374929800449297804492970044929680495670050837780fd3300f4030a0e330700503302f603280aa200330700505022f60302a2005022f80326a30051070628d9745022fa038ba100ac780628dd74956700508377a0fd3308040a0201956718498272a004827098048273900482748804d42307d40408d48707510706282d1e956760263308405020fc034698956918218292600595980005828c58828b50828748d42b0ad4c708d4a808988820d4ca0a97aa20d4a80851080628056d492938054929300549292805140a00000000a079c308956840267b9a40057b6798017b6b90017b6280017b6c88015020fe031c99956c000182c8980082c7880082ca8000d47a0a50220004429b0052070628b16c83870495691821492920054929180549291005330c20956820267b9c08057b6a88017b6b800150200204d09895690001829b8800829a900082989800829780009577dcd8780794a794b752070628616c83872495691821492900054929f8044929e80420956800264929f004502004048a98502206040da00052070628326c83a7443a08080102956b182195bc00047bc8e0003a081001023a091801023a0a2001027bc8d8007bc9d0009568e0257bcac80033004e05284098492a6001492a5801492a5001492a48019567005083776002330008040a0e3307005033020a04286fa0003307005050220a0467a00050220c04fca000510706283173826798018177330843ac78062833731407ffffffff000000007b6798019567c03733000e043302ba08289fa400956818318287a8067b6790018287b0067b6770018087b8067b6768019567a037330010043302c4082873a4003302120495681831019589000682979800956a00017ba78800829790007ba78000829788007ba7784928800682a7687b977882a7707b977064899568803782a790007b9768063307502014045a97330216049568183101492860064928580649284806016489330720956860374929500650201804319733089c010239079c010256173f0b20039c010240019517e08479e07b69680164913307b00102837783997b6890013308407b67700133001a040a07826a680133021c04284da400826a680150221c0445a4007b6760016f877b6758016f977b6750016fa77b6748019517e08477e07b6768016471826778018477ff826980018498ff82699801826a8801d2a909956a1831492a400695ab00067bb9387bb830956840377bb728330750201e0483968267480195681831958900067b9720826750017b9718826758017b9710648a33072095682037826960017ba90806502020044f9682689001818756173f0f4808403302220428e09c0050222204dc9c0082677001330024040a07826a980133022604282f9700826a980150222604279700826868017b8a187b89107b8b087b879567003750202804eb9633022a04956818310182870006956900017b979800958a000582a7f8007b97900082a7f0007b97880082a7e8007b9780009567e03633084050202c048194956a183195ac000582c7e00082c8d80082c9d00082cbc80050222e04c09800510706284b69956900018297800095ac00057bc7a800829788007bc7b000829790007bc7b8009568c036829798007bc7c00064b77b6b980133006204285a954929400449293804492930044929280495670050837740fd330030040a0e3307005033023204285a9d003307005050223204529d005022340470a20051070628b17050223604db9c00ac78062860709567c025330038043302ba0828c9a1003307002050223a04d9a10082b7a80082b8b00080a9b804492aa0047bb998007bb890009568a0257bb78800330750203c04cb9433023e0495681821014928800449287804492868040d6489330720956880254929700450204004a29439089c010256183f143308403d089c01023302420428a29900502242049e99003307b0010283778399330840330044040a073302460428e7950050224604e3950095bc00047bca607bc9587bc8507bc748956760259568604d502048043595956818219589000450224a04979f0083774005c8670733084050204c04ea92956a182195ac000482c74082c83882c93082cb2850224e042d970051070628b867956900018297800095ac00047bc708829788007bc710829790007bc71895682025829798007bc72064b77b6b98013300620428cb934929a002492998024929900249298802956700508377a0fb330050040a0e33070050330252042823a00033070050502252041ba00050225404d49f0051070628336f826798018177330843ac780628e06e9567001e330056043302ba082838a00095681819958900048297e8007b6798018297f0007b6790018297f8007b678801828700057b678001956700508377c0fb3308240a0295671849957900028298a8007b6878018298b0007b6870018298b8007b6868018297c0007b6760013307b001037b6758018377330058040a0401956c000182c95850225a04b39800956a181982cb607baba00482cb687bab980482cb707bab900482cb787bab880482cb80007babc00482cb88007babb80482cb90007babb00482cb980095ac00047bcba8007bc9d8007bc7d0007bc8c8009567e01d9568c01d9569a01d492ae00450205c04df88009567801d33084050205e044291956a181995ac000482cb800082c87882c97082c76850226004919600510806280f66492a6004492a5804492a4804019568601d492a50047b679801502062043b923308208267980150206404a495837833092033070a0b014929200249291802492910024929080295670050837720fb330066040a0e330700503302680428799e003307005050226804719e0050226a04f49a00510706289a6d50226c04a29900ac780628496d9567401d33006e043302ba0828909e003307002050227004e4990082b72882b83080a93804492a20047bb9187bb8109568201d7bb7083307502072049791330274049568181901492800044928f8034928e8030b64893307209568001d4929f003502076046e9150227804489b0033099c010239079c010233083fac781520039c0102407b69600133027a0428899a007b69600150227a04819a003307b00102837783993308407b67580133007c040a07826a900133027e04282a9200826a900150227e042292007b6a3801826898017b8a187b6940017b89107b6b48017b8b087b6750017b879567e01c50208004d691956b181995bc000382c7e00082c8d80082c9d00082cac8007b67f8007bc7a0007b68f0007bc898007b69e8007bc990009567c01c9568a01c7b6ae0007bca880050208204518500330284049568181901958900038297a8007b6780018297b0007b6778018297b8007b6770018297c0007b6768019567801c33084050208604298f95671819827980037b699801827878037b689001827b70037b6b8801827c68037b6cb000826a68017b7a4003826a70017b7a3803826a78017b7a3003826a80017b7a2803957a00037ba9607ba8587bab5064799567601c9568401c7b9c480350208804be7b8267b00050228a047c990051080628a263956a18198268e00095ab00037bb8088268e8007bb8108268f0007bb8189568201c8269f8007bb92050208c04bf8f8268b0009587207b67d000d8870782698801c879087b68c800d89808da770882679001c878087b68c000d878077b67900182673801956818197b870003826740017b87f802826748017b87f00264899568001c826750017b97e802330750208e045c8f9517e08477e07b672801647182696001819756171f08480920018267980182689001c887077b67b80050229004469b00826758010a073309330a330c330282679801827418827810827b0882736f446f806fbb6f38826728017b6880017b7818956800017b8b90007b7b107b6070017b70087b6478017b74140700000000010000007b87301407e0ffffff000000007b67d8008267d0007b87488267c8007b87408267c0007b87508267b8007b8758018267e0007b691801d879078269e800d39a087b6a1001d89a09da8709826bf000d8bc07826af800d3a2087b620801d8a20ada870a7b6c0001d3bc07d48707da790a7b6a60019567e01b33084050209204208d956018198204e002950700028278d800827ac800827cd000d48a07d44c0b7b6a98017b6c8801826960017b6438017b68680152090628773764097b9a687b9c707b98787b676001956780197b0480007b6b2001502094040279956760198268280150209604e58e956a000182a76082a920d4970798772082a868d49808978820d48707510706288661956b181982b76082b85882b95082ba487bba287bb9307bb838956840197bb7408267980150209804a78d50229a0426910095bc00027bc8307bc7287bc9387bca40956720199568404b50209c04748e956a000182a73882a868d478088267d80082ac9800d87c0782a9880094977ba8609487520706280e6195691819829220829818829a10829b0883c720956c18117bcbe8077bcaf0077bc8f807956800197b9250209e042a8d5022a004db900095bc00027bc9507bc7487bca587bc8609567e0189568604b5020a204f78d95690001829c98008297309577c05022a404fe9600520706289f60956918118292e0078298d807829ad007829bc80783c740959c00077bcba8007bcab0007bc8b8009568c0187b92c0075020a604b58c82687801958703d88708826a7001c88a09d8a90ada880a82689001c88a0ad88a08826b8001c8b808956b184995bc00027bc9707bc7687bca787bc880009567a0189568804b5020a8045c8d95690001829c98008297309577a05022aa04639600520706280460956918118292a00782989807829a9007829b880783c760959c00077bcb687bca707bc878956880187b9280075020ac041d8c82687801958704d88708826a7001c88a09d8a90ada880a82689001c88a0ad88a08826b8001c88b0b95681811958c00077bca387bc9307bc728648995676018956840187b9b40075020ae04b87895690001829c98008297309577805022b004c99500520706286a5f956918118292600782985807829a5007829b480783c78000959c00077bcb087bca107bc818956820187b9220075020b204828b95680001828a50828b48d4ab07828958828c40d49c08d48707987720d4a808978820d48707510706280c5f9562181182679801952800067b87e800826788017b87f000826768017b87f80095680018826738017b27000764b77b6958017b6a50017b6b48017b6c40015020b404138b826848019587207b679801d8870982684001c898077b678801d8870ada990a82675001c8a704d8740a82675801c8a7077b675801826778019570055022b604328d0082620801c88202826828017b83087b807b8c107b6780017b871895680001828798007b8748828788007b87407b6450017b6078017b6370017b8c900064bc28e7fb4929200349291803492910034929080395670050837720fc3300b8040a0e330700503302ba0428d89600330700505022ba04d096005022bc046093005107062817665022be040e9200ac780628c6659567c0223300c0043302ba0828fc9600330700205022c2047f920082b7a80082b8b00080a9b801492aa0017bb998007bb890009568a0227bb7880033075020c404fe893302c60495681821014928800149287801492868010c648933072095688022492970015020c804d5895022ca04af930033099c010239079c010233083fac781520039c0102407b6998003302cc0428f092007b6998005022cc04e892003307b00102837783993308407b6790003300ce040a07826a90013302d00428918a00826a90015022d004898a007b6a4801826898017b8a187b6950017b89107b6b58017b8b087b6760017b87956760225020d2043d8a956b182195bc000182c76082c85882c95082ca487b67f0007bc7207b68e8007bc8187b69e0007bc91095674022956820227b6ad8007bca085020d404c07d3302d6049568182101958900018297287b6780018297307b6778018297387b6770018297407b676801956700223308405020d8049d8795671821827900017b6998018278f8007b689001827bf0007b6b8801827ce8007b6ca000826a68017b7ac000826a70017b7ab800826a78017b7ab000826a80017b7aa8007b79e0007b78d8007b7bd00064799567e0219568c0217b9cc8005020da0433748267a0005022dc04f1910051080628175c956a18218268d8007ba888008268e0007ba890008268e8007ba898009568a0218269f0007ba9a0005020de0434888268a0009587207b67a800d8870782698801c879087b68c000d89808da770882679001c878087b68b800d878077b67900182674801956818217b878000826750017b8778826758017b8770648995688021826760017b976833075020e004d4879517e08477e07b673801647182699800819756171f08480920011407ffffffff000000007b67f8008267980182689001c887077b67b0005022e204b09300826790000a073309330a330c330282679801827418827810827b0882736f446f806fbb6f38826738017b6880017b7818956800017b8b90007b7b107b6070017b70087b6478017b74140700000000010000007b67c8001407e0ffffff000000007b67d0008267a8007b87588267c0007b87508267b8007b87608267b0007b8768018267d8007b691801d879078269e000d39a087b6a1001d89a09da8709826be800d8bc07826af000d3a2087b620801d8a20ada870a7b6c0001d3bc07d48707da790a7b6a4001956760213308405020e404898595691821829b60829358829248829c50d43207d4bc087b6c88017b634801826a40017b6298017b6b2001520a0628d62b956a00017ba7287ba8308ec78828a0858801dbc7088e378eb9dab709d4b3077ba740da7809510906281e5a952760d82708c88c09d8c90ada880ac83a0ad83a08c88b03956b181995b800067b87e8007b89f0007b8af800330740956800207bb300075020e6042b869567e01f826838015020e8040f87956a000182a93082a728d4970798772082a848d49808978820d4870751070628b059956b181995bc000682c7d80082c8d00082c9c800826af800d2a7078488ff8499ff492bc0067bc9a8007bc8b0009568c01f7bc7b800826798015020ea04bc855022ec043b890095bc00037bc8307bc7287bc9387bca409567a01f9568404c5020ee0489868267d00095690001829c9800d87c078298880094878298409487520706282c59956918198292a00682989806829a9006829b880683c720959c00067bcb687bca707bc8789568801f7b9280065020f00445855022f204f6880095bc00037bc9507bc7487bca587bc8609567601f9568604c5020f404128695690001829c98008267c8009577c0d87c07829888009487829840948752070628b258956918198292600682985806829a5006829b480683c740959c00067bcb287bca307bc8389568401f7b9240065020f604cb8495680001828a60828b58d4ab07828968828c50d49c08d48707987720d4a808978820d4870751070628555895621819826798017b270806826788017b271006826748017b2718069568201f826720017b27200664b77b6968017b6a60017b6b58017b6c50015020f8046084826858019587207b679801d8870982685001c898077b678801d8870ada990a82676001c8a704d8740a82676801c8a7077b676801826778019570035022fa047f860082620801c88202826838017b83087b807b8c107b6780017b871895680001828798007b8758828788007b87507b6460017b6078017b6370017b8c900064bc28cbfc4922a00482679001952900047b978800826798017b9790009568a03d826770017b97980033075020fc04b1833302fe0495681839014928800449287804492868040e64893307209568803d492970045020000588839517e08477e07b672801647182687801818756173f08480840019517e08477e07b67200150220205138900330004050a07826a200133020605285d8400826a200150220605558400826828017b8a187b89107b8b087b879567603d502008051984956c183982ca480482c7500482c8580482c96004826b50017bcb0004826b58017bcbf803826b60017bcbf003826b48017bcbe80395cb00047bb9207bb8187bb7109567403d9568203d9569003d7bba0850200a053c783307004050220c05f08a0082b74082b83882b93082ba28956b185195bc00027bc7407bc8387bc9307bca28956840538267280150200e0506843307b001037b67600183777b672801330010050a0401826960018297088198108299502212057d8400956918394929e003959b00037bb8d8007bb7d0009568e03c7bbac8003307502014054b823302160595681839014928c0034928b8034928a8031064893307209568c03c4929b003502018052282826878019517e08477e07b6758016471818756173f08480840019517e08477e07b67780150221a05ad870033001c050a07826a780133021e0528f78200826a780150221e05ef8200826858017b8a187b89107b8b087b879567a03c50202005b382956b183982ba880382b7900382b8980382b9a003826c38017bbc4003826c40017bbc3803826c30017bbc3003826c88017bbc280395bc00037bc9607bc8587bc7509567803c9568603c9569403c7bca4850202205d6763307004050222405d58d0082b7800082b87882b97082ba68956b185195bc00027bc7607bc8587bc9507bca489568605382675801502026059f829567185149278002492778024927700249276802099567203c95688053502028050082956b183995bc000382ca0882c71082c81882c920826c38017bbcc002826c40017bbcb802826c30017bbcb002826c88017bbca80295bc00027bc9e0007bc8d8007bc7d0009567003c9568e03b9569c03b7bcac80050202a051f763307004050222c052b8d0082b7e80082b8f00082b9f80082aa0003956b1851492ba002492b9802492b9002492b88020995bc00027bcac0007bc9b8007bc8b0007bc7a8009567a0539568c05350202e05d081956718514927e0024927d8024927d0024927c802956700508377e0030a0e95671851492700034927f8024927f0024927e80295670050837700040a0e826798016f77977820826968016f99989920d49808826990016f99979a20987720d4a707956b185182baf002826c60017bc70882b7f8027bc882b800039899207ac91082b9e8027bb8200395b800037b87187b8a107b8908482b2803492b6003492b5803492b5003492b480397c7209877209568205497882098882095696054979920d4890a826b000197bb2098bb2095684054978820d4b80c3308ff3309ff0a7b6748019567a03b330840502030053a7eff9568183901958900028297a000956800017b8758829798007b8768829790007b8778829788007b875082874852070707826728010a04826860018087107b6710018287087b67080182877b671801956700508377a004330032050a083307005033023405286e87003307005050223405668700829788007b676001829790007b674801829798007b6728018297a0007b672001956700508377c004330844330036050a023307005033023805280b8900330700505022380503890082b7a80082b8b00082b9b80082bac000956b1839826c20017bbc0002826c28017bbcf801826c48017bbcf001826c60017bbce80195bc00027bca207bc9187bc8107bc708826738017bc740826740017bc738826730017bc730826788017bc728826758017bc760826768017bc758826778017bc75064b29567803b9568603b9569403b956a203b956b003b826c50017b2c480250203a05556f956c000182c96882cb50d49b0782c85882ca78d4a808d48707987720d49808978820d4870751070628a9519562183995290002829770829880007b68880182236802829a7882697801d39702d8970cd8b308da280c64b282646801c94a0bc9cb00d8cb0b7b6b6001d84a0a6424826c5801826b8801c9cb0cc9ac0c826a6001c9ac0cc99707c98707c92308d4c707d4080ad47a0ad4070798aa20977720d4a70795621839510706282a51826708016f79979720826a10016faa98aa20d47a03826718016f7a97ab20989920d4b90998aa203a0b5000023a0c580002826790017b27a801826798017b27b0017b2be0017b2cd8013a0b6000023a0c6800024922a0014922c0017b2bd001952b00017bbcc8007bba9800826770017bb7b8007bb990009569e03a956ac03a956ba03a7b238801644750203c05697fff33078268800133090a0b28a65b826c00018ec78262f80088280a858901dbc709826be8008eb78263f0008e3ada370ad43b08da890a510a062875179567e02933084050203e05637bff956918298292e000829cd800829bd0008297c800d42b0ad4c708d4a808988820d4ca0a97aa20d4a8085108062822504929b8004929b0004929a800140a00000000a079c3089568c0297b9ac0007b6798017b6b90017b6280017b6c880150204005397cff956c000182c8980082c7880082ca8000d47a0a502242055e7e52070628ce4f838704330244059569182901330c4929a0004929980049298800209568a029492990007b6a88017b6b800150204605e87bff50224805288000520706288f4f838724956a1829492a8000491a78491a680c95688029491a7050204a05bb7bff50224c05a6830052070628624f8397443a08d00002956a1829491a507ba860140800000000676b30317ba85895686029491a4850204e05817bff3308648267980150205005e97eff8378330701330964330052050a0b018877017b67980168089589406828da290868499599407b642001683ada390a95a98000d42007da7908d8a90a7b670001947a8eab8889fd00859c01daac0b88b9019594ff9ab79aaac9ca0a9a89fc007b6788018e788e4cda480c8ea87b69900188970001857701dba807dbbc0782699801d479097b62080194927b601001640c949c7b631801643b949b826320019493510906288d1b826790018579ff0082608801d40907d44a09d4790952090628721b826990019598017b689801888701c8a7077b677801d48707887701c807077b676801d80707c847077b6770019a98ff007b6890019a898000826720018268180150205405f687007b6788017b68600182671001826808018269900150205605018800502258055f8500826720018268180150205a05eb870050225c05608600826b080150225e05f9840082671001da97087b688801826720018268180150206005bf870050226205cd7e510a06280f19330c4926380182605001287a1a4926f8024926f0024926e8029568e0024926e00203330750206405d879ff9517e08477e07b673801647139089c010256181f143308203d089c01023302660528bb850050226605b785003307b00102837783993308200a0750226805607b82623801649a642c7bc9187b6060017b201064807bc80864797bc7956c000182c7c87b0b7bcb20d87b078268f800c887077bc71801956c00017bca687b6070017bc97882c74082c89800d8780782c950d39408d89409da870982cb48d8b30782ca5882c89000d3a80cd8a80adac70ad3b307d4c707da790a520a06282f159567c00264287b6388017b64800150206a05f779ff50226c05517cd8c802826c9001826a1801c8ac0cc82c0c50226e05a7820051080628954c956a000282a9d80082a8d00082acc80082abc0007baba0007baca8007ba8b0009568a0027ba9b8007b64980150207005ae78ff82627801952201882701826a7001c87a0ad4a20788770182686001c87804d8840882676801c8870782689801958320d88309826b8001c89b08d8b80bda990b82698801c89b0bd89b09826c9001c89c0c7b6c900164a0826c38017bca0864297bc250227205ba850064c228e1fe0a0a01826a6801826c5001d4ac0882697801826b5801d4b909d49808988820d4a909979920d4980851080628c74b647998782051080628bc4b64c783987b68980164987b69900150207405697bff95681851826990017a8968038377956800508388800433090a0901956718518177680382689801ae8706287a4b0a0a016478987720510706286c4b826750017b689801502076051f7bff8378816998013307010a0b01826798019579808267400182685001502078051185007b6738017b68280182675801826848018269980150207a05f684007b67e0007b68300150227c05b48100826740018268500150207e05fe840082693001d49808826a980188ab80007b6b300182692801dab90882694801dba8097b6948018268e000d4870782683801dab80782685801dba70864a97b685801826740018268500150208005898400330c956a000182a93093989397491a30e703491a288264480182625801017b6848017b6c50014926380198293f974a01d49a0a97290182608001980b3fd49b0b7b6b580182692801d3a9087b684001d8a908826c3001d8bc02826b4001dbb80282684801978801987b3fd4b8087b684801984b3f977701d47b0b97070182688801988c3fd4c7077b678001978c018267780198783fd48c04977c018267900198703fd40c0c97770182685001d487077b67900186c77b67780186477b6788018267800186777b678001c9b907d8270750228205db7e82685801c97802d87808c98a0494a8c98b07d88b08c98308826a9801826c7001d4ca09889901826b6001d89b03c99b0b88a901c99c0c82696801c9390995aaff7b6c70017b696801d4c9097b6a9801d4ba0ad4a909840c017b6b600133035209ebfe8269880198973f82688001978801d48707826a7801502284053c7cd4cb0b956c00017bcb7082cb38d4b909d4a9097bc978d48b0cd47b0b017b6c60017b6b6801956818494928a00049289800492890004928880002956700149568a049502086055676ff502288051f81008297e8007b6798018297f0007b6790018297f8007b678801828700037b678001956818494928c0004928b8004928b0004928a800059567e0139568c04950208a050b76ff3307001050228c0500820082b9c80082b7d00080a8d802492aa0027bb898007bb790009567c0139568a0137bb9880050208e05af68956b181195bc000282c7a80082c8b00082c9b80082cac0007bca407bc9387bc8307bc728826780017bc760826788017bc758826790017bc750956780139568601395694013826a98017bca48502090055d67502292054d8000829780007b6788018297787b6780018297707b6758018297687b675001956718494927e0004927d8004927d00064784928c80009956720139568e049502094053a75ff50229605038000829720956800017b87488297187b87408297107b87388297087b87309567001333084050209805dd72ff956918118292000295970001827cf800827bf000827ae800d42b07d4ca08d47808988820d4c707977720d48707510706289847826708017b97c801826710017b97d001826718017b97d8019568e012826720017b97e00164a77b6a98017b6b90017b6220017b6c280150209a05a773ff956c000182c8980082c72882cb2050229c05b47c5207062841478387208268e800956918117b6a2001649a959c00017bc8a8008268f0007bc8b0008268f8007bc8b8009568c012826900017ba9c0017b6b280150209e054d73ff956a000182a8980082a7209577c0d8780782a99000949782a928949752070628df4683874082687001956a181195ab00017bb88800826878017bb89000826860017bb898009568a012826968017bb9a0005020a005f572ff95670001827b28827a900082789800140900000000010000001407a0ffffff00000000d8780794a794b7520706287946838760826850017b697801956b181195ba00017ba868826858017ba870826880017ba87895688012826988017ba980005020a2058e72ff95690001829a9800829778957780d87a07829890009487829828948752070628204683a7800082683001956b181195ba00017ba848826838017ba850826840017ba85895686012826948017ba9605020a4053972ff3308a000826798015020a605a075ff83783309a00033070a0b28fbdf8267900195798082673801826840015020a805917f7b6730017b6820018267480182689801826990015020aa05777f7b67d8007b682801826890019a89800082673801826840015020ac057f7f82692801d49808826a900188ab80007b6b280182692001dab90882699801dba8097b6998018268d800d4870782683001dab80782684801dba70864a97b68480182673801826840015020ae050b7f330c330b826928015022b0051f798264980182624801017b6498017b6c40014926300198293f974a01d49a039729018260700164ba980b3fd49b0b7b6b480182692001d3390c7b6c38016484d83908826c2801d8bc02826b3801dbb802974801987b3fd4b8087b683801826b980198bb3f977701d47b0b97070182687801988c3fd4c7077b679801978c018267680198783fd48c04977c018267800198703fd40c0c97770182684001d487077b678001d4ca077b676801d44a077b67780182679801d4a7077b677001c9b907d82707d8b908826a38015022b205cb7d82684801c97802d87808c983049438c98b07d88b08c98a08826a9001826c6001d4ca09889901826b5001d89b03c99b0b88a901c99c0c82695801c9390995aaff7b6c60017b695801d4c9097b6a9001d4ba0ad4a909840c017b6b5001330b5209ddfe8269780198973f82687001978801d478028267680198783f979901d49808826b800198b93f97770197bb01d4bc0a826b3001d4b909d47909d48b0cd42b0b017b6a98007b69a0007b6ca8007b6bb000956780383308405020b405ad6eff95641831824780077b67d800824778077b67d0008263e00068379577408264e8006849da47098267080168779577408260f0006808da070895878000d4430adaa709d8870c94ac8ecb8897ed00857a01daca0b88b7019572ff9ab79accc9ac0a9a99ec007b6790018e7c64278e28da2c088eac7b69800188990001859901dbac09956c183182cc70077b6cc000dbb80982620801d43208d4400bd4b808956b183182bb68077b6bc800888801d49808644b948b643c948c640994897b69b800948252082903826880018588ff0082699001d49808d47a09d4980851081003826b800195b9017b699801889801c8a8087b686801d49808888801647982679001c878087b685801d87808c898087b6860019ab8ff007b6890019a8980008267080164085020b605487c7b6780017b6878018267e0008268e800826990015020b805547c7b67700182677801d487077b67780182679001957980826708018268f0005020ba05307c82699001889b80007b6b5001826a7801dbba08826ae800da9a087b68780182688001826a7001d4a808dab7088267e000da97087b688001826708018268f0005020bc05eb7b826a5801826b600182696801d4b909956b000182bc9800d4ac0cd4c90982ba5093a87bb87093a77bb7900052090c330c4926300128d801826798019579808267e0008268e8005020be05797b7b6750017b684001826708018268f000826998015020c0055f7b7b6738017b6848015022c2051e788267e0008268e8005020c405697b82694801d49808826a980188ab80007b6b480182694001dab9088269f000dba8097b69f00082683801d4870782685001dab80782680801dba70864a97b6808018267e0008268e8005020c605f57a330c330b826948015022c80509758264f00082620801017b6840017b6c48014926300198293f974a01d49a039729018260780164ba980b3fd49b0b7b6b500182692001d339087b683801d83908826c2801d8bc02826b3801dbb80282684001978801987b3fd4b8087b684001984b3f977701d47b0b97070182688001988c3fd4c7077b677801978c018267700198783fd48c04977c018267900198703fd40c0c97770182684801d487077b679001d4ca077b677001d44a077b67800182677801d4a7077b677801c9b907d82707d8b908826a40015022ca05b77982685001c97802d87808c983049438c98b07d88b08c98a08826a9801826c6801d4ca09889901826b5801d89b03c99b0b88a901c99c0c82696001c9390995aaff7b6c68017b696001d4c9097b6a9801d4ba0ad4a909840c017b6b5801330b5209dffe8269800198973f82687801978801d48707826a70015022cc05a472d4bc02826b3001d4b909d4a9097b69b800d48b0cd47b0b017b62e8007b6cf0007b6b0801826a18018260f800d40a078262100182630001d43208d487078877017b67980168089589406838da390868a9959940682ada290a95a98000d4300bdab908d8a90c94bc8eca8889ed00859b01dacb0a88a9019594ff9aa79accc9bc0c9a89ec007b6788018e788e4bda480b8ec87b69900188970001857701dbc807dbab0782699801d479099493640a949a642b82671801949b6478949852091403826990018599ff0082608801d40902d44c09d492095109fb02826a900195a9017b699801889801c8c8087b687001d49808888801c808087b686001d80808c848087b6868019aa9ff007b6990019a998000826810015020ce0584787b6788017b6880018267f80082680001826990015020d00590785022d205077682671801826810015020d4057c7882699001889a80007b6a5801826b8001dbab08826b00015022d60596758267f800da97087b68880182671801826810015020d80546785022da057e7482ba5893a87bb87893a77bb7900052090c330c4926380128f5014926300140420f826798019579808267f800826800015020dc05e4777b6758017b6848018267180182681001826998015020de05ca777b6740017b6850015022e00589748267f800826800015020e205d47782695001d49808826a980188ab80007b6b500182694801dab90882691001dba8097b69100182684001d4870782685801dab80782681801dba70864a97b6818018267f800826800015020e4056077330c956a000182a9509398939782ab3095b9ff7ba9288eb99599ff7ba9208264100182621801017b6848017b6c50014926380198293f974a01d49a0a97290182608001980b3fd49b0b7b6b580182692001d3a9087b684001d8a908826c2801d8bc02826b4001dbb80282684801978801987b3fd4b8087b684801984b3f977701d47b0b97070182688801988c3fd4c7077b678001978c018267780198783fd48c04977c018267900198703fd40c0c97770182685001d487077b67900186c77b67780186477b6788018267800186777b678001c9b907d82707d8b90882634801c9390cc98c0cc97c0c99c03f82673001d2700782685801c97802d87808c98a0494a8c98b07d88b08c98308826a9801826c7001d4ca09889901826b6001d89b03c99b0b88a901c99c0c82696801c9390995aaff7b6c70017b696801d4c9097b6a9801d4ba0ad4a909840c017b6b60015209d9fe8269880198973f82688001978801d48707826b780198b83f979901d4890982689001988a3f97bb01978801d4c808826c3801d4ca0ad4ab0bd49c0ad47c0301956218318267e800952900067b97c8007b98e800826798007b2708078267b8007b97d0007b9bf0008267a0007b2710078267f0007b97d8008267c8007b2728078267c0007b2730077b9af8008267a8007b2718078267d0007b273807826708017b97e0007b2300078267b0007b272007956760389568403895692038956a0038956be037826cd8007b2c40075020e605e958826bc0008262d0008268d8008267c8006473d42707d4b808d48707987720d42808978820d48707510706283b3b9567183195790007829850829c607b6c980182744807829a5864b7d38b0bd8780cd83400dab00cc92a0bc9cb09d8cb0b7b6b9001d82a0a826c9801826bd800c9bc0cc9ac0c826a9001c9ac0cc97807c90707c93408d4c707d4980ad47a0ad4970798aa20977720d47a0a510a0628cb3a64377b6898013300e805287c6aff7b6898015020e805746aff83788169980133070a0b28cfd49569181149294006492938064929300695684017492928060433075020ea05cf66ff9517e08477e07b673801647139089c010256181f133308203d089c01023302ec0528b2725022ec05af723307b00102837783993308200a075022ee05596882623801649a642c7bc9187b6060017b201064807bc80864797bc7956c000182c7c87b0b7bcb20d87b078268f800c887077bc71801956c00017bca687b6070017bc97882c74082c89800d8780782c950d39408d89409da870982cb48d8b30782ca5882c89000d3a80cd8a80adac70ad3b307d4c707da790a510a66039567201764287b6388017b6480015020f005f266ff5022f2054c69d8c802826c9001826a1801c8ac0cc82c0c5022f405a26f510806289139956c181182c2200695ca000682a81882a91082ab0895ca00057babe8007ba9f0007ba8f800956800177bc200067b6498015020f605a565ff82627801952201882701826a7001c87a0ad4a20788770182686001c87804d8840882676801c8870782689801958320d88309826b8001c89b08d8b80bda990b82698801c89b0bd89b09826c9001c89c0c7b6c900164a0826c38017bca0864297bc25022f805b17264c228e0fed4b207d43c09d497078877017b67980168b9959a406839da3a09682a95aa4068cbdaca0b95ba8000da8a09d8ba0b948b8eba8898fd00858c01dabc0a88a8019580ff9aa79abbc9cb03647c9a94fc008e7b8e07da0b078e3b88490001859901db3b09dba70982679801d479098267f0009497826be800949b826a0001949a94925109062855168549ff00d4c909d40308d498085208062842169548017b689801888701c837077b677801d48707887701c8c7077b676801d8c707c807077b6770019a48ff007b6890019a8980008267f800826800015020fa05e7717b6788017b6860018267e8008268f000826990015020fc05f3715022fe05526f8267f8008268000150200006df71502202065570826bf00050220406ef6e8267e800da97087b6888018267f8008268000150200606b67150220806c568510a0628fa13330c4926380182605001286515826c10010182689801958720d88708c88409d8490ada880ac83a0ad83a08826b9001c88b0b7b6c60027b674002826708017b676802826700017b6770027b6948028267f8007b6778027b6a500295676002956840027b6b580250200a064e4f9567200233084050200c064762ff95680002828b38828c30828a28828720d4ba09d4c708d49808988820d4c909979920d49808510806280a374926180249261002492608029568000249260002207b6798017b6a80017b6b90017b6c880150200e062a63ff8267980195772082689801502210068f6a82688801c88a0ad88a08826b9001c88b0b7b69a8017b67a0018267f8007b67d801826700017b67d001826708017b67c801826710017b67c0017b6ab0019567e0019568c0019569a0017b6bb8015020120639488268e8018262f8018263e001826af001285e01956c1811826210010182689801958720d88708c88409d8490ada880ac83a0ad83a08826b9001c88b0b7bc2a8057bc78805826708017bc7b005826700017bc7b8057bc990058267f80095c900057b97c0007b9a98009567c0169568a0167b9ba000502014060b4e95678016330840502016060461ff956b181195b80005828a8000828c7882b27005828768d4a209d4c708d49808988820d4c909979920d4980851080628c135492b6005492b5805492b50057b6a900195686016492b4805207b6798017b6280017b6c880150201806e161ff956c000182c7980095772082c89800d8870882ca8000c88a09d8a90ada880a82c88800c88a0ad88a0882cb9000c88b0b956818117b89f0047b87e8048267f800958900057b972082c77b971882c7087b971082c7107b97087b8af804648a9567401695682016956900167bab000550201a06e04695671811827830058272400582732805827a3805019569000182978000d3780bd8780c647082979800d87304dab40c82978800c97a0bd87a0a8297900001c97209c9a909d8cb0ac9a90982679801c9cb0bc90808c9480ac97308d4a909d4b80ad49a0ad4b90998aa20979920d4a9095109f5f928ab3482679801957980826710018268080150201c066b6e7b6758017b68600182672001826818018269980150201e06516e7b6740017b68480150222006106b8267100182680801502022065b6e50222406116a826b180150222606996b82682001da98077b6758018267100182680801502028060c6e50222a06d56550222c064463d8b90282695801db980282684001978801987b3fd4b8087b68400198cb3f977701d47b0b97070182688801988c3fd4c7077b676001978c018267800198783fd4c808977c018267900198703fd40c0c97770182694801d497077b679001d4c4077b678001d484077b67880182676001d47400c9ba07d82707d8ba0882644001c94a0cc98c0cc97c0c99c23f84270a82695001c979087b685801d87908c983077b6760019438c98b07d88b08c98408826a9801826c7801d4ca09889901826b6801d89b03c99b0b88a901c99c0c82697001c9390995aaff7b6c78017b697001d4c9097b6a9801d4ba0ad4a909842c017b6b68013304520906ff8269880198973f970801d47808826b800198b73f979901d4790982679001987a3f97bb01977701d47c0382673801d47a0ad4ab0bd4970cd4870201330900ca9a3bd6930aca9b08c88a0a7b6a8001d88a08d69b0ac8a808ca9c0ac88a0a7b6a7801d88a0ad69c0bca920cc8bc0c8268200188880a826718019478826700019478c8ac07520819947ad8bc08d6920b8ebbd4b808d4a808510806281e3e7b677001963700ca9a3b7b6768013307b001037b67980183777b67600133002e060a0433023006281c6350223006196349296007959b00077bb8587bb750956860287bba48330750203206955eff3302340695681821014928400749283807492828070a64893307209568402849293007502036066b5eff9517e08477e07b679001647139089c010256183f133308403d089c010233023806284e6a502238064b6a3307b00102837783993308407b67480133003a060a07826a880133023c06284660826a880150223c063f6095ab03d8ab0ac8a90cd89c09daaa09c88909d88908c88707826890017b8b7b8c087b89107b87189567202850203e06d65eff956c182195cb000782ba0882b71082b81882b920826b08017bcbc006826b10017bcbb806826b18017bcbb006826b20017bcba80695cb00067bb9e0007bb8d8007bb7d000956700289568e0279569c0277bbac80050204006f452956a182182a7000795ab000682b8f80082b9f00082bae800956b184995bc00047bc7c0007bc8b8007bc9b0007bcaa8009568c04d8267900150204206b95eff82676001330044060a0433024606289d61502246069a61826b7001959c00067bcb8000826b78017bcb78826b80017bcb70826b68017bcb684929a0067bc898007bc790009567a027956880277bca8800502048067d5a9567602733084050204a06ad5bff95681821958900068297607b6788018297587b6758018297507b6750018297487b679001826760010a04826898018087107b6760018287087b67400182877b679801956700508377e0fd33004c060a083307005033024e0628b1643307005050224e06aa6482b7c80082b8d00082b9d80082bae000956b182195bc00057bcac0007bc9b8007bc8b0007bc7a800826770017bc7e000826778017bc7d800826780017bc7d000826768017bc7c8008267080195b800067b87826710017bc7f800826718017bc7f000826720017bc7e800826788017b8720826758017b8718826750017b871064b2956740279568202795690027956ae026956bc026826c90017b2c080650205006144d956b000182ba5064a982b78800d4a70782ba5882b89000d4a808d47808988820d4a707977720d4870751070628642f64ab95671821957c000682c83082ca407b6a80018274280682ca38d39807d8980c82609001d80402da720c64b7c9ba0bc9cb03d8cb0bd87a0a826c880182678001c9c70cc9ac0cc9bc0cc99807c92707c90408d4c707d4380ad47a0ad4370798aa20977720d4a7079563182151070628f22e826740016f79979720826a60016faa98aa20d47a02826798016f7a97ab20989920d4b90998aa203a0be800027b3ba0053a0bf000023a0cf800023a070001027b3b9805953b00057bbc9000492380057bb788007bba787bb9709569a026956a80267b3268058267900150205206a55cff33078268480133090a0b288e39d48707987720d43808978820d4870751070628602e9527207b678001d82707c87c087b689001d8c808da7708c838087b687001d83807c8b7077b67780149194049193849193095684021491928206427502054066a5aff956720218268a000502056062159ff956b000182bc800082b970d49c0782b8900082ba78d4a808d48707987720d49808978820d4870751070628e22d95621821822920822818822a10822b08956718197b6be8007b7be8077b6af0007b7af0077b6800017b78f807956800217b6908017b2964c750205806ef59ff3300330b33023304956a000182a898009587407ba79000d8870782a98800c879087ba88000d89808da770882a748c878087ba870d8780782a820c887077ba778140700000000010000007b67e0001407e0ffffff000000007ba7588268a8008263b000018267e800d870078269f000d39b0a7b6b3801d89b09daa709826c0001d8c207826a0801d3a40bd8a40adab70ad3c207d4b707da790a520a06280d1f7b6218017b6428017b603001826ab800d4a8077b63b0008269c000d43909d49707987720d4a909979920d4970751070628d12c9567e0207b68a80050205a06d457ff95671819957c000782cae00082cbd80082c9d00082c8c800956c00017bc9687bca50d4a907d4b809d479099899207bcb40d4b707977720d4970751070628822c9567c0207b68600150205c068557ff50225e06836151070628672c956a181982a7b80782a8b00782a9a807826bf800d2b7078488ff8499ff492aa00795ab00077bb988007bb890009568a0207bb7980064c77b6c9001502060067158ff956b000182b75082b840d4780a82b86082b758d8780782b96894977bba5094a752070628ff2b83882095678020502062060357ff956b000182b77882b870d4780982ba900082b758d87a0782b8800094877bb940949752070628c92b64a9956c181982c2800782c8780782ca700782cb680783972095c900077b9b487b9a507b9858956860207bc2600750206406e057ff8267e0009577c0956a000182a8607ba710d8780782a968949782a950949752070628702b83884095674020502066067456ff956a000182a9900082a710d8790782a88000948782a840948752070628432b956c181982c2400782c8380782ca300782cb280783974095c900077b9b087b9a107b9818956820207bc22007502068065c57ff826890019587607b676801d8870982678001c897087b686001d8780ada990a82677001c8a709d8790a82677801c8a7077b6778018267a800957a20d87a0b8267c000c8b70cd87c07dabb078268b800c88707d8870b8263b000c8b30382603001950001880b0182643801c8b404d4400b88bb0182681801c88b0bd88b0882622801c88202826868017b689001826860017b6880017b69700164a87b6cc0007b67b80064b7644b642464722827fdd4b7079877206482d4b808978820d48707510706284c2a95a7207b678001d8a703c83c077b679001d8c708da3308c828087b687001d82807c847077b6778014920c0024920b8024920b0029568c01b4920a8022064a750206a065256ff9567a01b8268b00050206c060955ff956c000182c7800082ca70d4a70982c8900082cb78d4b808d48909989920d4a808978820d4980851080628ca29956c181982cba0027b6bd80082c998027b69b00082c890027b68e00082ca88027b6aa8007bca680295ca00027ba8707ba9789568801b7bab800050206e06d555ff3300330a3304330382679801957b40d87b077b67780182688801c88707826ca80098c93b7b6990018269e00097990582629001d4290297c905c8270cc8b9097b6b40017b699001d8b909c89c0cd37c0b7b6c8001d87c0cdab90c7b673001d8870882677801da7708826bb00098b73b8269d800979905d479028269e00098993b97bb05d4b90982676801c8870bd87b0882673801c87808c8b9097b682801c828077b6b1801d8b908c88707c89c0c956b00017bbc70d89c08c887077bb778140700000000010000007bb7201407e0ffffff000000007bb710018267a8007b600801d870078269e000d39a087b6a0001d89a09da8709826cb000d8c407826ad800d3a3087b63f800d8a30bda870b7b64f000d3c407d48707da790b8262900182609801d802078264880182638001d343087b685801d84308826a680182697001c9a90cd8a9097b696001826a780182693801c99a0a7b6a5001c94303c90209520b0628b11a8264400182621801d42400826b3001826a2801d4ab0bd4b00a98aa20d42b0b97bb20d4ba0a510a0628fa27826a5801daa708d88c02826b6001826a5001c9ba0bc92b0ac98c0bc9730788b801c98a029598c0d8980ac8a70c95ccffd37c09d87c07da9a0795b9ffc89707d89709c82909956a181995ab00027bb8487bbc507bb7589568601b7bb960644750207006e053ff8268d000826ac000d4a8078269c800826bb800d4b909d49707987720d4a909979920d497075107062869279567401b502072067052ff330274069568181901958b000282b94082ba3882b73082b828956b00017bb7607bb950d49707d4a809d479099899207bba48d4a707977720d49707510706281d279567201b7b685801502076062052ff502278061e5c510706280227956b181982b7200282b8180282b9100282ba08027bbae8017bb9f0017bb8f8019568001b7bb7000264c77b6c900150207a061953ff956b000182b75082ba48d47a0a82b85882b710d8780782b96094977bba5094a752070628a7268388209567e01a50207c06ab51ff956b000182b77882b870d4780982ba900082b710d87a0782b8800094877bb948949752070628712664a9956c181982c2e00182c8d80182cad00182cbc80183972095c900017b9ba8007b9ab0007b98b8009568c01a7bc2c00150207e068552ff956a000182a7209577c050228006d5595207062823268388409567a01a502082062751ff50228406be5c520706280926956c181982c2a00182c8980182ca900182cb880183974095c900017b9b687b9a707b98789568801a7bc28001502086062252ff956a000182a7209577a050228806725952070628c0258388609567601a50208a06c450ff50228c065b5c52070628a625956c181982c2600182c8580182ca500182cb480183976095c900017b9b287b9a307b98389568401a7bc2400150208e06bf51ff956a000182a720957780502290060f59520706285d25838880009567201a502092066050ff95690001829a90008267e800d87a078298800094878298489487520706282e25956b181995b800018287207b6748018287187b6750018287107b6758018287087b67600183a78000492b0001492bf800492bf0009568001a492be800a000502094063551ff826890019587a000502296069d5882687001c88a0ad88a08826b7801c88b0b956818197b8990007b878800826748017b87c000826750017b87b800826758017b87b000826760017b87a8007b8a9800648a9567e0199568c0199569a0197baba000502098064136956318198237e0007b6778018267d0009578207b686001d878098267c800c89702d8720ada990a8267c000c8a704d8740a8267b800c8a7077b67b80082674001957920d8790c82673001c8c70bd87b07dacc078238d8007b68700182681801c88707d8870c82682801c8c8087b68280182600801950001880c01826a0001c8ca0ad4a00c88cc018238d0007b6880018238c8007b6890018268f000c88c0cd88c088263f800c88303826860017b68d0007b62c8007b64c000956800017b89407b8b307b871864c4280bfb826798019579808267e8008268f00050209a06785d7b6758017b6860018267f800826800018269980150209c065e5d7b6740017b68480150229e061d5a8267e8008268f0005020a006685d5022a2061e59826b00015022a406a65a8268f800da98077b6758018267e8008268f0005020a606195d5022a806e2545022aa065152d8b90282695801db980282684001978801987b3fd4b8087b68400198cb3f977701d47b0b97070182688801988c3fd4c7077b676001978c018267800198783fd4c808977c018267900198703fd40c0c97770182694801d497077b679001d4c4077b678001d484077b67880182676001d47400c9ba07d82707d8ba0882644001c94a0cc98c0cc97c0c99c23f84270a82695001c979087b685801d87908c983077b6760019438c98b07d88b08c98408826a9801826c7801d4ca09889901826b6801d89b03c99b0b88a901c99c0c82697001c9390995aaff7b6c78017b697001d4c9097b6a9801d4ba0ad4a909842c017b6b68013304520906ff8269880198973f970801d48707826a80015022ac060455d4bc02826c3801d4c909d49a0ad48c0bd4c70701330c00ca9a3bd6c208caca09c898087b6858d89808d6ca09c89808cacb09c889097b6950d88908d6cb09cac70ac89a0ac88a0b7b6b4894b8d89a09d6c7078e77d49707d4870751070628cf2d49163800ca9a3b7b6240330c90018267f800d6c70782690001cac908c887077b6778d88707d6c908c88707826be800d6cb08826af000caca09c88909d88908d6ca0a8eaad4a808cacb0ac87a0a7b6a68d87a07c879097b69709497d4870751070628c02d8267e0003300ae060a043302b00628834e5022b006804e49290005959b00047bb8f8007bb7f000956800367bbae80033075020b206794dff956718314927e0044927d8044927d004647a3307209568e035492ac8040a5020b406544dff5022b6062d5782681001818756173f0e4808403302b8062842505022b8063f503300ba060a07826a90013302bc0628494f826a90015022bc06424f95aa0188ab01c8b909d49a0b88bb01c88b0bd88b08c88707826898017b8a7b89087b8b107b87189567c0355020be06d94dff956c183182caa80482c7b00482c8b80482c9c004826bf0007bcb6004826be8007bcb5804826b00017bcb5004826bf8007bcb480495cb00047bb980007bb8787bb7709567a03595688035956960357bba685020c006fa41330700305022c2066a595022c406b35695bc00057bc7e0007bc8d8007bc9d0007bcac8009568e04e826798015020c606cb4dff8267e0003300c8060a043302ca06282f4d5022ca062c4d49294004959b00047bb8387bb730956840357bba2833075020cc06284cff3302ce0695681831014928200449281804492808040a648933072095682035492910045020d006fe4bff5022d2061050ac790d4808403302d40628f34e5022d406f04e3300d6060a07826a90013302d80628fa4d826a90015022d806f34d95ab045022da06644e83770005c867075020dc06a54cff956c183182cae80382c7f00382c8f80382c90004826bd0007bcba003826bc8007bcb9803826bc0007bcb9003826bb8007bcb880395cb00037bb9c0007bb8b8007bb7b0009567e0349568c0349569a0347bbaa8005020de06c340330700305022e006985582b7e00082b8d80082b9d00082bac800956b18497bb7000695b700057b78f8007b79f0007b7ae8009568004f826798015020e206864cff8267e0003300e4060a043302e60628ea4b5022e606e74b49298003959b00037bb8787bb770956880347bba6833075020e806e34aff95671831492760034927580349275003647a33072095686034492a48030a5020ea06be4aff5022ec06d04eac7907480840018267f800967790017b67605022ee06ab4d3300f0060a07826a90013302f20628b54c826a90015022f206ae4c95ab055022f4061f4d83774004c867075020f606604bff956c183182ca280382c7300382c8380382c94003826bb0007bcbe002826ba8007bcbd802826ba0007bcbd002826b98007bcbc8027bc9000395cb00027bb8f8007bb7f00095672034956800349569e0337bbae8005020f8067e3f330700305022fa06535482b72082b81882b91082ba08956b184995bc00067bc7207bc8187bc9107bca089568204f826798015020fc06494bff8267e0003300fe060a043302000728ad4a50220007aa4a4929c002959b00027bb8b8007bb7b0009568c0337bbaa800330750200207a349ff3302040795681831014928a00249289802492888020a64893307209568a03349299002502006077949ff502208078b4dac790d48084033020a07286e4c50220a076b4c33000c070a07826a900133020e0728754b826a900150220e076e4b95ab0250221007df4b83778003c8670750201207204aff956c183182ca680282c7700282c8780282c98002826b707bcb2002826b687bcb1802826b787bcb1002826b607bcb080295cb00027bb9407bb8387bb7309567603395684033956920337bba2850201407463e3307003050221607c35582b76082b85882b95082ba48956b184995bc00067bc7407bc8387bc9307bca289568404f8267980150201807114aff8267e00033001a070a0433021c0728754950221c07724949290002959b00017bb8f8007bb7f000956800337bbae800330750201e076b48ff3302200795681831014928e0014928d8014928c8010d64893307209568e0324929d001502022074148ff50222407534cac790d4808403302260728364b50222607334b330028070a0733022a07280a4d50222a07074d9567c03250202c07fc48ff956c183182caa80182c7b00182c8b80182c9c001826b707bcb6001826b687bcb5801826b787bcb5001826b607bcb480195cb00017bb980007bb8787bb7709567a03295688032956960327bba6850202e07213d3307003050223007045050223207da5195bc00067bc7607bc8587bc9507bca489568604f8267980150203407f648ff956718494927800649277806492770064927680607956740329568804f502036075648ff956c183182ca280182c7300182c8380182c94001826bf0007bcbe000826be8007bcbd800826b00017bcbd000826bf8007bcbc8007bc900017bc8f8007bc7f00095672032956800329569e0317bcae80050203807783c3307003050223a075b4f82b70882b81082b91882ba20956b1849492ba006492b9806492b9006492b88060795bc00067bcac0007bc9b8007bc8b0007bc7a8009567a04f9568c04f50203c072e48ff956718494927e0064927d8064927d0064927c806089567c0319568e04f50203e078e47ff956b183182baa80082b7b00082b8b80082b9c000826c707bbc60826c687bbc58826c787bbc50826c607bbc487bb980007bb8787bb7709567a03195688031956960317bba6850204007bb3b956a183182a7880082a8900082a9980082aaa000956b1849492b0007492bf806492bf006492be8060895bc00077bca207bc9187bc8107bc7089567005095682050502042077747ff8267e000330044070a043302460728db4650224607d8464919407b98387b9730956840317b9a28330750204807d945ff33024a0795681831014918204918184918080b64893307209568203149191050204c07b345ff826810019517e08477e07b6778016471818756173f0e48084033024e0728374c50224e07344c8267d800330050070a0701826a980182a71882a81082a90882aa6f7b50225207274a826778017b6a58017b7a187b6960017b79107b6868017b78087b6b70017b7b95670031330840502054070444ff9567183182797b698801957800ff828af8007b6a8001828bf0007b6b9001828ce8007b6c9801956818297b89e007958900077b9ad8007b9bd0009567e0307b9cc80050205607f62f956b000182b9980082b7880082b89000d4870782ba8000d4a908d47808988820d4a707977720d48707510706287b188267f80050225807ba507bb7a800826700017bb7b0008267e8007bb7b8009568c0308267f0007bb7c000649750205a079444ff956700508377400a0801956c000182cb980082c7880082c88000d47808140a00000000010000001407e0ffffff00000000d87b0782c9900094979487520706280618956718497b6888017b6a8001827c28078278300782793807827a400783b720956b18297bbaa00795ba00077ba998007ba890009568a0307bac88007b67500150205c070c44ff956a000182a8980082a780009577c050225e07a54d52070628a5178389408267b80050226007e14f7bb7688267c0007bb7708267c8007bb778956880308267d0007bb780007b693001649750206207ba43ff956a000182a898001407a0ffffff0000000050226407504d52070628501783896082679800502266078c4f7bb7488267a0007bb7508267a8007bb758956860308267b0007bb7607b6928016497502068076643ff9567403033084050206a071e42ff956b182982b340077b63800182b238077b62480182bc30077b6c400182b428077b6438018268200195871fd8870882691801c898088488018477e0957920d87907c8780ad88a08da7708492b000795b700067b78f8007b7af0007b79e8007bb320077bb218077bbc100795672030956800307bb4080750206c079b2e956b000182ba3882b84082b94882b78000d48707d49a08d47808988820d49707977720d487075107062864169567182982682001957b00067bb8c800826818017bb8d000826888007bb8d8009568e02f826990007bb9e00064a750206e077b42ff82698800826a2001d49a07826b180182689000d4b808d48707987720d49808978820d4870751070628041664a8956c000182c7800082c948d497071409e0ffffff000000007b693082cb38d89b0982ca4094a9947952090628d415816780007b67800083b720502070078445ff837781682001826980000a01018267200182623801c87202d87208826b180182694001c8b909c88909d3b90ad8b90bdaa80b826a880082684801c8a808d8a80a826c900082678001c87c0cc8ca0ac88b0bd88b08c8a808d4b808826a30d8a20a949a948a520a062858158327203302720795691829014929c0064929b8064929b0069568c02f4929a806502074077d41ff140780ffffff000000009569000182989800d87807829890009487829888009487520706280a158267980183798000956a18298267380195ab00067bb78800826740017bb79000826748017bb798009568a02f826780017bb7a0007b6940016497502076071541ff9567802f8268780150207807f841ff9567182995780006828c8000828a788289708ec78ea8dbc70864abd4ca07649a8e99db7809510906280e2395671829827768067b6790019577018878017b6a8801c8a808d487098899017b6b8001c8b909d8b90a7b6c3801c8ca0a956b184995bc00077bc7487bc8507bc9587bca60956860508267780150207a07f641ff9517e08477e07b67480164719568182982673801958900067b9782678001958a00057ba7f800826788017ba7f000826790017ba7e800826758017b9720826760017b9718826768017b9710648b9567402f9568202f9569002f826a70017bba080650207c0746289568182901828258068283480682846006958a000682a95082ab3882ac4082a72882a8307b6b9001826a48017bab10956b00017bbc88007bac187bb7787ba7d44909d42307d497077bb880007ba8085107062854229567a02e8268980150207e07833eff956a182995ab000550228007e24995bc00077bc780007bc8787bc9707bca68956880508267480150208207fd40ff9567802e8268500150208407463eff9567182982726805957b000582b87082b97882ba8000826b780195bb0188bc0182678001c87c0c956718497b7c9007d4bc0c7b7b880788cb01826c9001c8cb0b7b7b9807d8cb0b826c8801c8cb0b957c00077bcba0007bcac0007bc9b8007bc8b0007b72a8079567a0509568c050502086077940ff9567602e8268300150208807c23dff95671829827248058273500582745805827a600582677801957b02d87b0c82688001c8c807d88708dacc0882699001c89808d8980c82698801c89c0c956918497b9ce007959c00077bc8d8007bc7d0007bcbc800956718517b7a7b74f87b73f07b72e89567e0509568005150208a07f83fff9567402e8268280150208c07413dff95671829827228058273300582743805827a400582677801957b03d87b0c82678001c8c709d87908dacc0882679001c87808d8780c82678801c87c0c956718517b7c207b78187b79107b7b087b7a407b74387b73307b7228956720519568405150208e07823fff9517e08479e0649182677801957a04d87a0782688001c8780bd88b08da770882679001c87808d87807826c8801c8c7077b6738017b97187b68287b98107b6b48017b9b087b6980007b6a50017b9a9567202e82684001502090077d3cff330292079568182901958b000582b92082ba1882b71082b808956b00017bb7287bb920d497077bb830d4a808d478089888207bba18d4a707977720d487075107062827119567002e82683001502094072a3cff95671829827a00058279f8048278f0048ea78e9bdba70b7b6888008e877b69307b6a20d4a9097b67087b6b107b694001db9b07510706280220956718298277e8047b6790009567e02d8268800050209607023eff956b182995bc000482c9c80082c7d00082c8d80082cae0007bcaa0007bc898007bc790009567c02d9568a02d7bc98800502098071f279567182995780004828ac000828bb800828cb0008289a8008ea78eb8dba7088ec77b6978018899208599017b6c8001dbc7097b6a88017b6b9001d4ab07db7809826790008877207b6718510970069567182982685001957a00047ba868826848017ba8708268287ba8789568802d826938017ba98000330750209a075b3cff82671001817756171f0c82681001480820019517e08477e07b676001647183793308208267d8000a078267900095781fd87807826c8800c87c09d8c90ada770a826b30c8ba0a7b6a580197aa3b989b05d4ab0b8267600182731897993b827a10988805d498076f346fa982681894c8826a400194a8948b9487c87402d84207c8790cc8cb0b7b6b9801d39b0cd89b0adac70a7b6a10018267780195701fd8700b826a8001c8ba07d8a70cdabb0c82639001c8c303973b3b987a05d4ba0a97773b980b05d4b707c847077b677001d847076424c8790bc8ab0bd39b0a7b6b6801d89b09daa709826b5801826730d87b07826a20c8a70798ba05977b3bd4ba0a826b600182b282bb08987705948a94876fb86f2bc8b707c88a0ad88a0cc8c70782601001c8a000d8a00ac8a70282679001d87307826a8801c8a707983a05977c3bd4ca0a987705c8b707956c000182cb9800c88a0ad88a08c88707c8a9097bc960d8a908c887077bc7589517e08477e07bc7900064710182677001d8740782696801d39b08d89b09da8709826c6001d8c007826a5801d3a208d8a20ada870ad3c007d48707da790a7b648801826790017b747b6b98017b7b087b6078017b70107b6280017b7218510a760495671851491760491758491750491748956860518267900150209c07e13bff82648801954401884701826b9801c87b0bd4b40788770182687801c88707d8870882628001c8820264702863ff8262980182649001d82400826c880182688001d3c80ad8c809daa009826a4801826b7001c9ab07d8ab03826b2001826a7801c9ba0bc93b0bd8970ac9ab0bc9970ac9c809c90909c92407d4b909647bd4a707d49707d4a908987720978820d487075207960d8267980164b87b6b900150209e07463dff83788169900133070a0b28a1a7826a5801daa708d88c02826b6001826a5001c9ba0bc92b0bc98c0cc97307d4c908d4b707d47808988820d4c707977720d487075207410d649a8267980164987b6a48015020a007ef3cff83788169480133070a0b284aa78267900195798082670001826808015020a207e0467b6750017b6848018267100182689801826990015020a407c6467b6740017b683801826890019a89800082670001826808015020a607ce4682693801d4980882699001889b80007b6b3801826a4801daba08826a9801db980a7b6a980182684001d4870782685001dab80782681001db97087b68100182670001826808015020a8075c46826210014926500149264001956a000182a93893987ba8489397491a30e703491a28014926380198293f82609801970a01d49a0a97290182686001988b3fd4b90482692801d3a90bd8a903826c3001d84c02dbb302826c480197cc01987b3fd4cb0b7b6b4801980b3f977701d47b0b97870182686801988c3fd4c7077b679801978c018267580198783fd48c03977c018267700198703fd40c0c97770182685001d487077b67700182684001d4c8077b675801d438077b67680182679801d487077b676001c9b907d827075022aa07b340c97402d87408c98a077b67980194a8c98b07d88b08c983087b68480195680001828a9000828c8800d4ca09889901828b78d89b04c99b0b88a901c99c0c82898000c9490995aaff7b8c88007b898000d4c9097b8a9000d4ba0ad4a909840a017b8a507b8b78492640015209e9fe8269680198973f82686001978801d47802826a580198a83f979901d48909826b700198b83f97a70197bb01826c5001d4cb0b826a3801d4a808d47808d49a03d42a00018267f800837760956918397b9ba8077b98b0077b93b8079568c0407b90c0075020ac072c37ff140700000000010000007b679801140780ffffff000000005022ae07b53b5107bf0a8267f80083778000956918398268b000959b00077bb888008268b8007bb890008268c0007bb898009568a040826ac8007bbaa0005020b007cf36ff82679801957760ff5022b207683b5107720a8267f8008377a0009569183982689000959b00077bb868826898007bb8708268a0007bb87895688040826aa8007bba80005020b4078536ff140740ffffff000000005022b6071c3b5107260a8267f8008377c00095691839826870959b00077bb8488268787bb850826880007bb85895686040826a88007bba605020b8073c36ff3308e0008267f8005020ba07a339ff83783309e00033070a0b28fea382671885770182688800826908db890782681082694001db980751074d02826790008477e07b6710019567182982685001957a00047ba828826848017ba8308268287ba8389568402d826938017ba94033075020bc07c735ff9517e08477e07b677001647133082033075020be072539ff9518e08488e07b6868016481837783893308200a074926980120330c49269001492688014926780149268001826a680182a71882a81082a90882aa6f736f846f903309826b78016fa7330a6472826870017b87187b6050017b80107b84087b83017b626801826710017b6b7801d87b07857b017b6a580194ab017b69600182678001d49707947b018268300182679801c87808826a2801c8ca0a8269180182679001c879098267200164c0826c8801c8c707520b7201826b9801d8b80bc8ba0ad30a027b603801d80a0cda2b0cc89c0cd89c02826b9001d8b909c89707c82707d4c809d4a707d47909989920d4c707977720d497077b6348017b644001520763089567002b5020c0076933ff956a182982a7000295ab000182b8f80082b9f00082bae800956b18517bb780007bb8787bb9707bba6895688051826770015020c207d935ff8263480195330188370182644001c87404d4430788770182685001c87800d8800882676801c88707826898019589207b696801d8890a82683801c8a8097b694801d8890bdaaa0b82689001c8b80ad88a0b82688801c8b8087b68880182687801958b20d88b0c82695801c8c908d89809dacc09826c6001c8c909d8c90c82628001c8c2027b628001826c70017bc4087bc37bc01064727bc7187b605001826768017b679801826c48017b6a9001648a286efe82679000826830d4870782688800826920d49808d487075207b701492640014926380149264801492650012802028264900182639801826b9000826c1001d3cb0b826c30d4cb02826c8800826b20d4bc0cd4c20b510b3001d8380bc8ba0ad30a02d80a0cda2b0cc89c0cd89c0bd84909c89707c8b707d4c809d4a707d47909989920d4c707977720d497075207df069567202d5020c407e531ff95671829957900048298207b6890018298187b6888018298107b6880018297087b6778018267900097773b9878387b6898019a8980003307ff3308ff5020c6078c407b6768017b6850013307ff3308ff826998015020c8074e407b6758017b68600182675001d487077b675001826798019579803307ff3308ff5020ca072840826b980188b98000826a5001db9a08826c5801826a6801d4ca0ada970a93b8ff93baff826b6001939b939c82677801e0a70782698001e0890882698801e0c909826a9001e0ba0a956b18517bbaa0007bb998007bb890007bb788009568a051826770015020cc07a333ff82693098973f826820978801d48707826a880098a83f979901d49808826b900098b93f97aa01d4a90997ba0195aa01956b18517bbaa8007bb9b0007bb8b8007bb7c0003307c051286d01956a000182a72082a818d487071408e0ffffff0000000082a930d8890882a9289498947851087805826730018378209567602d5020ce077730ff9567182995790004829860956a00017ba8508298587ba8488298507ba8388297487ba740018269880098973f826a3097a801d487077b67900198a73f826820978801d487077b678801826a900098a73f979801d487077b67800197a7017b67780197a8037b6898018d8980003307ff3308ff5020d007e83e7b6758017b687001826790008a79033307ff3308ff5020d207a73e7b6768017b68600182685801d487077b675801826798018379803307ff3308ff5020d407813e826b980188b98000826a5801db9a07826c6001826a70015022d607d237826b6801939b82683801e0a80882694001e0790782694801e0b909826a5001e0ca0a956c000182cb78d4b70782cb8000d4b80882cb8800d4ba0a82cb9000d4b909956b18517bb9d8007bbae0007bb8d0007bb7c8003307e05101c87608826740826938ca97077b679001826780005020d807d431ff8267e0000a048269080182970881981082996f77977a206f88988820d48a0a9877206f98978920d49707988820956b182982694895bc00037bc9e0008269507bc9d8008269587bc9d000826990017bc9c800492b00047bc8f8007bc7f0009567002d9568e02c7bcae8005020da077e2d9567c02c3308405020dc07ae2eff3302de079568182901958b000382b9c00082bab80082b7b00082b8a800956b00017bb788007bb98000d497077bb89800d4a808d478089888207bba78d4a707977720d4870752075403956718298268f800957a00037ba88800826800017ba890008268e8007ba898009568a02c8269f0007ba9a000826798015020e007682fff956a000182a7800082a978d47909140700000000010000007ba7781407e0ffffff0000000082a89800d8780782a8880094877ba9800094975107e102826798018377203302e207956918290182689001959b00037bb8688268587bb8708268507bb8789568802c826a487bba80005020e407f32eff956900018297789577c05022e607263451079402826798018377403302e8079569182901826860959b00037bb8488268787bb8508268687bb8589568602c826a707bba605020ea07a82eff14070000000001000000956900017b9790001407a0ffffff000000005022ec07c93351073702826798018377603302ee0795691829018268b800959b00037bb8288268c0007bb8308268c8007bb8389568402c826ad0007bba405020f007472eff95690001829790009577805022f20779335107e70182679801837780003302f407956918290182689800959b00037bb8088268a0007bb8108268a8007bb8189568202c826ab0007bba205020f607f62dff95670050837700023300f8070a0801140760ffffff00000000956900015022fa07163351078401956718518279e8008278f000827af800827b0001826798018377a000956c18297bcb000395cb00027bbaf8007bb8f0009568002c7bb9e8005020fc07902dff8267e0003300fe070a048269080133020008280b3282690801502200080432d4780298aa206f99979820d4a8089899203a0a900002956718297b7ae0023a0a9800023a0ba000023a0ca800027b7ad802957a00027babd0004927c0027bacc8007ba9b8007ba8b0003308c0009569e02b956ac02b7b72a8028267980150200208e42eff9567a02b33084050200408c52bff330206089568182901958b000282b9a00082ba980082b7900082b88800956b00017bb790007bb98800d497077bb89800d4a808d478089888207bba8000d4a707977720d4870752076a95671829826860957a00027ba8688268787ba8708268687ba8789568802b8269707ba980008267980150200808862cff95670050837720020a0801956a000182a7880082a88000d487071408e0ffffff0000000082a99800d8890882a990009498947852087c0f003307002050220a0814349568001f7b970006330750200c08332cff33020e0895681819014928e0054928d8054928c8054164893307049568e01e4929d00550201008092cff82679800817756173f0c8268980048084001330701330924826890000a0b013308b00102838833070133090a0b28a60a3308b00102838833070133090a0b28950a3308b00102838833070133090a0b28840a3308b00102838833070133090a0b28730a3308b00102838833070133090a0b28620a3308b00102838833070133090a0b28510a956718394927380749273007492728076479140700000000717b484e956840407b974007330750201208572bff3302140895681839014928200749281807492808074164893307049568204049291007502016082d2bff82674001817756173f0c8268400148084001330701330924826848010a0b013308b00102838833070133090a0b28ca093308b00102838833070133090a0b28b9094926d0034926c8034926c00314070000000005df02e69568c0037b67d803330750201808c52aff4926b8034926b0034926a8033307049568a0034926a00350201a08a72aff39089c010256183f1220039c0102403308b00102283b0a3308b0010228330a492610044926080449260004140700000000620d2894956800047b671804330750201c08612aff4926f8034926f0034926e8033307049568e0034926e00350201e08432aff39089c010256183f1220039c0102403308b0010228d7093308b0010228cf093308b00102838833070133090a0b28e0083308b00102838833070133090a0b28cf083308b00102838833070133090a0b28be083308b00102838833070133090a0b28ad083308b00102838833070133090a0b289c083308b00102838833070133090a0b288b083308b00102838833070133090a0b287a083308b00102838833070133090a0b28690882677801330020080a0401826998018297088198108299502222088b2b95690010492938f8956900107b9830f8956800107b8728f89568ff07958821956700107b7a20f83307502024084f29ff95670010492718f895670010492710f895680010492800f80a3307209568ff0795880195690010492908f8502026081d29ff50222808f63282678001817756173f0c82688001480840019517e08477e07b679001647183793308408267880133002a080a0733022c0828d22d50222c08cf2d9567e00750202e08c429ff8267e0078268e8078269f807826af007847700ff867701956b184195bc00057bc9207bca187bc8107bc708956820468267980150203008062aff95671841492740054927380549273005647849282805069567c00795684046502032086429ff956900078297c000829ad8008298c800829bd000957701887901c89808d48709889901c8b909d8b90bc8ba0ad4a80bd4970cd4cb0b510b0707956b1841492b6005492b5805492b5005492b48050695bc00057bc7687bc8707bc9787bca80009567604695688046502034087229ff33078268880133090a0b28c4063308b00102838833070133090a0b28b3063308b00102838833070133090a0b28a2063308b00102838833070133090a0b2891063308b00102838833070133090a0b2880063307018268780133090a0b2872063308b00102838833070133090a0b2861063308b00102838833070133090a0b2850063307018268500133090a0b2842063308b00102838833070133090a0b2831063308b00102838833070133090a0b2820063308b00102838833070133090a0b280f063308b00102838833070133090a0b28fe053308b00102838833070133090a0b28ed053308b00102838833070133090a0b28dc0552478be3fdf26f05956718514927e0034927d8034927d0034927c803956700508377e004330036080a0e01956a185195ab000350223808fe2b51075f073308b00102838833070133090a0b288e053308b00102838833070133090a0b287d053308b00102838833070133090a0b286c053308b00102838833070133090a0b285b053308b00102838833070133090a0b284a053308b00102838833070133090a0b2839053308b00102838833070133090a0b2828053308b00102838833070133090a0b2817053308b00102838833070133090a0b2806053308b00102838833070133090a0b28f5043308b00102838833070133090a0b28e4043308b00102838833070133090a0b28d3043308b00102838833070133090a0b28c2043308b00102838833070133090a0b28b1043308b00102838833070133090a0b28a0043308b00102838833070133090a0b288f043308b00102838833070133090a0b287e043308b00102838833070133090a0b286d043308b00102838833070133090a0b285c043308b00102838833070133090a0b284b043308b00102838833070133090a0b283a043308b00102838833070133090a0b2829043308b00102838833070133090a0b2818043308b00102838833070133090a0b2807043308b00102838833070133090a0b28f6033308b00102838833070133090a0b28e5033308b00102838833070133090a0b28d4033308b00102838833070133090a0b28c3033308b00102838833070133090a0b28b2033308b00102838833070133090a0b28a1033308b00102838833070133090a0b2890033308b00102838833070133090a0b287f033308b00102838833070133090a0b286e033308b00102838833070133090a0b285d033308b00102838833070133090a0b284c033308b00102838833070133090a0b283b033308b00102838833070133090a0b282a033308b00102838833070133090a0b2819033308b00102838833070133090a0b2808033308b00102838833070133090a0b28f702492a9801492a9001492a8801140700000000b2418ffb9568ff079588a1027ba7a001330750203a08ff23ff8267200133003c080a048269500133023e08283a258269500150223e08332549298001959b00017bb8787bb7703307049568ff07958881027bba6850204008bd23ff956aff0795aa19018267000195ab00017bb7608267f8007bb758826708017bb7503307249568ff0795886102826910017bb948502042088323ff826788019568ff0795881901958900017b9740826778017b9738826768017b9730648a3307449568ff0795884102826970017ba92801502044084623ff82676001817756177f1582686001480880003307013309642815013307013309648268800133004c080a0b3307004033024e0828dd2a9567ff07957719014927d8014927d0014927c801647914070000000005df02e69568ff079588e1027b97e001330750204608db22ff9567ff07957719014927c0014927b8014927b00164793307049568ff079588c1024929a80133004a0828ab22ff9567ff07957719014927180249271002492708026479140700000000620d28949568ff07958821037b9720023307502048087922ff9567ff0795771901492700024927f8014927f00164793307049568ff07958801034929e80150204a084d22ff82676001817756173f1382686001480840330701330924281d3307013309248268800133004c080a0b3307004033024e0828e6298268800133004c080a0b3307004033024e0828d1293307004050224e08ca299568003f7b970006330750205008e921ff3302520895681839014928e0054928d8054928c8051164893307049568e03e4929d00550205408bf21ff39089c010256183f1220039c0102403308b001022853013308b00102284b015247a618507150956718494927200149271801492710014927080195670050837720fa330056080a0e3302580828782e50225808752e50225a086e2a5107fe013308b00102838833070133090a0b281c3308b00102838833070133090a0b280c838833070133090a0b014926b0074926a8074926a00733025c08140700000000717b484e019568a0077b67b807330750205e080a21ff49269807492690074926800711330704956880074926880750206008eb20ff82678001817756173f0c826880014808400133070133092482688801330062080a0b0195671821492798074927900749278807502264082b268388a0f8c868087b97a0073307502066089e20ff330268089568182101492880074928780749286807116489330704956880284929700750206a087420ff39089c010256183f1120039c0102403308b0010228083308b0010201838833070133092433006c080a0b019567182949271801492710014927080150226e08ac25838820fac868087b9720013307502070081f20ff330272089568182901492800014928f8004928e8001164893307049568002a4929f00033007a0828f11fff95671829492758014927500149274801502274085725838860fac868087b976001330750207608ca1fff3302780895681829014928400149283801492828011164893307049568402a4929300150207a08a01fff82671001817756173f0c82681001480840013307013309248268d80033007c080a0b33027e0828392750227e083627ac781e3308b001022829fe8267980181775617034f033308b001022816fe95670040330080083302ba08280d2c956718398278f0067b6890018278e8067b6898018077f8067b67880150208208851b956900018297980082988800d4870782989000d48707510709041407ffffffff000000007b67800195671851492700044927f8034927f0034927e803059567e03f9568005550208408c81fff95681839958a000682a7d0007b67780182a7e00082a9d8007b69680182a8c8007b68700195681851958b0004491b08057bb74098972097772082698801d497077bb738492820044928180449281004826790017bb730826798017bb728956720559568405550208608d81fff956c000182c7708477ff82c9788498ff82c9800082ca68d2a909956b1839492b800682ca88007bba780682ca90007bba700682ca980095bc00067bca68492ba0067bc998007bc890003a083000023a093800023a0a4000027bc788007bc8c0007bc9b8007bcab00064b83a074800029569c03f956aa03f956b803f7b87a80633073308502088086320ff3308b001028388330733090a0b289dfc9567182949279801492790014927880150228a0833238388a0fac868087b97a001330750208c08a61dff33028e0895681829014928800149287801492868014164893307049568802a4929700133007a0828781dff956718294927d8054927d0054927c80550229008de228388e0fec868087b97e005330750209208511dff956718294927c0054927b8054927b00564793307049568c02e4929a80533007a0828291dff956718294927d8014927d0014927c801502294088f228388e0fac868087b97e001330750209608021dff3302980895681829014928c0014928b8014928a8014164893307049568c02a4929b00133007a0828d41cff95671851957c000182c90882c81082ca1882cb2082679801837720956c18297bcb600295cb00027bba587bb8509568602b7bb94850209a089c1cff8267e00033009c080a048269080133029e082817218269080150229e081021d4780298aa206f99979820d4a8089899203a0ab00002956718297b7a40023a0ab800023a0bc000023a0cc800027b7a3802957a00027bab30492720027bac287ba9187ba8103308409569402b956a202b7b720802826798015020a008f51dff33078268d80033090a0b28defa5020a2086e18956818494928400149283801492830014928280105956780159568404a5020a408d91cff95681811958a000482a9787b69880182a7687b67980182a7707b67900182a7800098982097882095691849492960014929580149295001959b0001491b480549297001492968017bb780007bb8789567604a9568804a5020a608f81cff956c000182c78800977720987720956a1811492a2004492a1804492a1004492a0804492a40047ba7380482c790007ba730043a073000023a083800023a0940000282cb980095ac00047bcb287bc7607bc8587bc95064a83a0748000295696015956a4015956b20157b874804330733085020a808961dff3308b001028388330733090a0b28d0f9956718394927580649275006492748066479140700000000f7bd4f1e9568603f7b97600633075020aa08d61aff9567183949274006492738064927300664793307049568403f492928065020ac08b21aff39089c010256183f1220039c0102403308b001022846fa3308b00102283efa951110ff7b10e8007b15e0007b16d8009515f0008411f0828c10828b18828a0882887b1a287b1b18d4ab0bd4c80ad4ba0a98aa207b1c20d4cb0b97bb20d4ba0a520afd017b17088297187b17688296108297087b176082977b17589517b0007b18105020ae08f018ff821758d46709821868821a60d4a808d489099899207b1650d46808978820d498085208b3018219c800821ac000821bb8008218b0007b18307b1890007b1b387b1b98007b1a407b1aa000951890007b19487b19a80064765020b008cc19ff821768821850d478081407e0ffffff00000000d87609821a6094a9948951095901821820821918d49808821910d87907821a2894a7948751073f01646c821630821a40d4a607821848821b38d4b808d48707987720d4a808978820d487075207180183c7208398207b182864685020b208ce1cff7b172082172864685020b408bf1cff647882172064695020b6087c17ff821758c86707d86708821960821b38c8b909c88909d3b90ad8b90bdaa80b821850821a40c8a808d8a80a821c68821648c86c0cc8ca0ac88b0bd88b08c8a808d4b808140ae0ffffff00000000d8a70a949a948a510a920083772049218800492180004911789518704911705020b808c918ff82163095661f1407e0ffffff01000000d26707821858c88707d88708821a60c88a09d8a90ada880a821850c88a0ad88a08821b68c8b808957b20d87b07c8790cd89c09da7709c8a909d8a907c887078218087b8b7b8c087b89107b8718955110ff8210e8008215e0008216d8009511f0003200003308043300bc080a023302be082877205022be087420510a0b5022c008b52232003308b00102838833070133093300c2080a0b3302c40828e4245022c408e1243308243300c6080a023302c8082837205022c8083420510a0b5022ca08752232003308b00102838833070133093300cc080a0b019511e0fe7b1018017b1510017b160801951520018411e064167b673882977b67408297087b67488297107b67508297187b6758828718828910828a0882887b67307b67f8007b69287b69f0007b6a207b6ae8007b68187b68e0009567c0009568e0005020ce086a18ff8267d8008262c0008269d000826ac800826858d3870bd87808826750d8970cdbb80c826848d38a03d8a80a826840d82808db3a08d39707d4b707db7c0851080b018267187b67608267207b67688267287b67709568608267307b677833075020d0081317ff39089c010256181f0b20039c010220019517e08479e07b693064913307b00102837783993308200a078262308227188228106f7a6f88330b05826740977902c87903d6b70b826948979c02c89c0cc8cb0bc8a303d8a30ac8b807c8a700d38007d88008da7a08d8cb07330b05d6b90ac8a707826950979a02c89a04d6b90b822c826958979a02c89a0ac8ba0a6fcbc8ba0a822b08c87404d87407c8a7076fbac8a404d8a40ac8a707c84808d8480ac8a707826a387ba37ba0087ba8107ba7183307491a38491a30491a28491a209551e0fe8210180182151001821608019511200132004926b0004926a8004926a0003302d208140700000000717b484e019568a0007b67b80033075020d4080416ff4926980049269000492680003233070495688000492688005020d608e515ff39089c010256183f0b20039c010240013308b0010283883307013309243300d8080a0b019511a07b10587b15507b16489515608411f0828910828c08828b82881897923f98ca01d42a02978a3f989901d49a0a97cc3f98b901d49c0c98830184bb019ab888b60184c97fd2a804d2280adbbc09d2380b88982094a8d4b40c94c8ab86167b797b7a087b74107b7b185022da081f2132005022dc082f1b5020de084215ff49111849111049012233070464184911085020e0082a15ff39089c010256183f0b20039c010240013308b0010283883307013309243300e2080a0b019511907b10687b15609515708411f0827a1882791082738277088eab8e9cdbab0c8e72883b60ff85bb01db720bd4a908db8c0b520b439538a000d8380bc8b70cd87c07dabb07c89707d89709c8a9097b18407b1c487b1750330740c871087b19585020e4089e14ff95519082106882156095117032005022e608701a5020e8088314ff49111849111049014133070464184911085020ea086b14ff39089c010256183f0b20039c010240013308b0010283883307013309243300ec080a0b01951170ff7b1088007b1580007b1678951590008411f064728289827408828c088273959a1fd89a00c80c0984aae07b1308c8a303d8a30bc8490ac8ba0ad39a06d89a07da6b07822b18d8c90c828610822210828818da000cc86c0cd86c06c82c09c89707d8c90cd89709c8b808c86808c8c808c8980c8ec88e79dbc809d4c7088ea6db8906520658821808d88308d34a09d84a06da9806d82708d3bc09d8bc0bda980bd32708d49808da860b520b317b13507b1a587b17603307409518507b1c685020ee087f13ff955170ff82108800821580008216789511900032005022f008a81e5020f2085d13ff491128491120491110413307049518104911185020f4084313ff39089c010256183f0b20039c010240013308b0010283883307013309243300f6080a0b019511a0fd951900027b90587b95507b9648951560028411e064167b6710828718828910828a0882887b67b0007b6738027b69a8007b6930027b6aa0007b6a28027b6898007b682002956700023308405020f8088f11ff956800028287187b67188287107b67208287087b672882877b67309567e001956820025020fa089113ff956b000182b7f80082b8f00082b9e80082bae0007b6790007bb7b8007b6888007bb8b0007b6980007bb9a8009567c0019568a0017b6ab8007bbaa0005020fc08a2fc826730826818826928d48909826a20d4a708d49808988820d4a909979920d4980852086a03956c000182c9d80082cad00082c8c80082cbc0007b6b607bcb80007b68707bc888007b6a687bca9000956880017b69787bc998005020fe08fd11ff826ab80084a70152070101826720826818d487071408e0ffffff00000000826b30d88b08826928949894785108000384a800ff83b720826a8000956900017b9a087b98826888007b981095680001826a90007b9a1850200009a111ff330433033302826768826860d48707826878826970d49808d487078e779777057b67b800018268b800958720d88708c88409d8490ada880ac83a0ad83a08c8820b8268307b68e0007b67c0008267287b67e8008267207b67f0007b69c8008267187b67f8007b6ad0009567e0009568c0007b6bd80050200209e5fc8267108268187b78188268207b78108268287b78088268307b789551a0fd9517000282705882755082764895116002320082679800956900017b97608267a0007b97688267a8007b9770956860018267b0007b9778330750200409c810ff9517e08477e07b6758647139089c010256181f0b20039c010220019517e08479e07b69b00064913307b00102837783993308200a074926b800330433033302826cb00082c7188268309589207b6950d88908826928c8890a7b6a48d89a0bda880b82c81082c90882ca6f776f886f906fa9826c58649a7bc91864097b6980007bc9107b6890007bc80864797bc7826720c87b0b7b6b40d87b07826818c887077b6738017b6a88007b6998008267608268b800d87807826970d39408d89409da8709826b68d8b307826a78d3a208d8a20ada870ad3b307d48707da790a510a70fe9567400164c87b62b0007b63a8007b64a00050200609c110ff8268508267b800c88707d88708826b488269a000c8b909c88909d3b90ad8b90bdaa80b826a408268a800c8a808d8a802826c38826ab000c8ac0cc82c0ac88b0bd88b08c8a808d49808d4b709d48909d4b808989920978820d498085208a200956c000182c95882c85082ca4882cb407bcb207bca287bc830956820017bc93850200809490fff826a980095aa0188a70182649000c87404d44a0788770182688000c87803d8830882678800c887078268b800958020d88009826ba000c89b08d8b80bda990b8269a800c89b0bd89b098262b000c8920264497b699000826c587bc90864a97bca7bc310647a7bc7187b6380007b60b800648464b328b0fe00951110ff7b10e8007b15e0007b16d8009515f0008411f0828610828218828c0882887b1c687b1258d42c036482d4680cd43c0c98cc207b1660d46308978820d4c8087b17505208500182b7187b171882b7107b171082b7087b170882b77b1782a7187b174882a7107b174082a7087b173882a77b1730829718829810829a0882997b19b0007b1ab8007b18c0009518b0007b17c8006426642750200a09310eff821760821858d48709140700000000010000007b17201407e0ffffff00000000d8760782186894877b192894975107c8008367208218307b1890008218387b1898008218407b18a000951890008219487b19a80050200c09d60dff8217209577c0d8760782186894878218289487510787009567607b1748d86707821868c878097b1940d88908da7708821760c878087b1838d87807821858c887077b176883674082187b18708218087b18788218107b1880009518708219187b19880050200e096c0dff8217508218387b78108218407b78088218487b788218687b7818955110ff8210e8008215e0008216d8009511f0003200009511807b10787b15707b1668951580008411f0829b828a829608828308829410828c10829918828818d363027b1608d863067b1b187b1a10d8ba0a7b1ada2a06d3980ad89800d84c02daa200d34c0bd4ba0adaa600520046c94c0ac99808c92808d86a09c99808c96a0a821908c99309821bc9b909821b18821c10c9bc0b7b7b7b79087b7a107b781895518082107882157082166895118000320049115049114849114033021009140700000000717b484e019518407b1758330750201209790cff49113849113049112011330704951820491128502014095f0cff39089c010256183f0b20039c010240013308b001028388330701330924330016090a0b01951140ff7b10b8007b15b0007b16a8009515c0008411e064168289828a088088107b67184916787b68707b6a689568607b6960330750201809ff0bff49165849165049164833072095684049164050201a09e60bff39089c010256183f0b20039c010240019517e08479e07b691064913307b001028377839933084033001c090a0701826a1082a71882a81082a90882aa6f7750221e095e107b6a98007b6990007b6888007b6780009567209568800050202009760cff826730826838826920826a28826b187bb7107bb8187bb97bba08955140ff8210b8008215b0008216a8009511c0003200828b18828a108283088eb28eacdbb20cd4ba028e39db2c09520948828898a93b97bb05d49b02983b3b97aa05d4ba0a988b3b973305d4b30b978805958c20d88c08c88b09d8b90bda880bc8ab0bd8ab08c828087b7c7b79087b7b107b781832009511b07b10487b15409515508411f050222209c51050202409d80aff491118491110490141330704641849110850202609c00aff39089c010256183f0b20039c010240013308b001028388330701330924330028090a0b019511907b10687b15607b16589515708411f0828a187b1a08829b1882847b14828a08829608829c828310829210c8a609c8c404d8c40cc8c909d36900d86906da0c06c83208821c08c8bc0cd8280bc8cb0bc8680cd88c08c88b00d3a90bd8a90a8218d88406dbba06d83c02821808d3800bd8800adab20ad33c08d4b808db8a0652061f7b747b79087b7c107b7018955190821068821560821658951170320050222a093b1550202c09f009ff4911284911204911101133070495181049111850202e09d609ff39089c010256183f0b20039c010240013308b001028388330701330924330030090a0b01951120fc951a00037ba0d8007ba5d0007ba6c8009515e0038411e06416807410827a827b08d44a07d4b70751074f048282108283088280140cffffffff000000008438ff8407ffd2c20c7b67487b6c38d4c7077b6840d48707510783048297187b6798008297107b6788008297087b67800082977b679000492638037b6a607b6a20037b6b587b6b2803956820037b64507b6430033307502032091409ff492618034926100349260803330720956800034926000350203409f608ff33099c010239079c010256173f0b20039c010240017b69709517e08479e07b696864913307b00102837783993308407b6778330036090a07826a6833023809284911826a685022380943117bba587bb9507bb8487bb7409567e0029568400350203a098209ff956800028289f8008287f000828ce800828be00082689800d389037b6928d8890882698800d8970a7b6a10da3a08826a8000d3ac027b6c30d8ac0c826a90007b6b68d8ab0a7b6a18da2a0c7b6720d37909d439077b6c08da7c085208cc034926d802826760956900027b97c0008267587b97c8009568c0028267507b97d000330750203c090808ff4926b8024926b0024926a8023307209568a0024926a00250203e09ea07ff82678800826820c97807826908c997087b6820d8970782689800826928c98908826910c99808c978087b6828826970819782688000826a30c98a08826a18c9a8087b683082689000826a68c98a0a7b6a6856173f08480940019517e08477e07b671864718379330840826778330040090a07826a1833024209280310826a1850224209fd0f7bba787bb9707bb8687bb7608267287bb798008267207bb790008267307bb788008267687bb780009567600395688003502044099c08ff49269802826738956900027b9790008267407b978800956880028267487b9780003307502046090407ff492678024926700249266802330720956860024926600250204809e606ff8268709517e08477e07b67686471818756173f08480840019517e08477e07b67706471837933084082677833004a090a07826a7033024c0928bb07826a7050224c09b5078268687b8a187b89107b8b087b879567400250204e097b07ff826748028268400282625802826a5002826b8000c87b0b826c9000c88c0cd88c08c88b0bd37b09d87b07da980782688800c8a80882699800c89202d8a809c82909c88707d88708c89808956900037b9ca0007b9ba8007b97b0007b98b8009568a003826768502050098b07ff9567200233084050205209d504ff956b000282ba3882b83082b92882b72050225409d90c5208c00082689000956a00027ba8826880007ba808826888007ba81095680002826998007ba9187b67980050205609c705ff4926b801826738956c00017bc7b0008267407bc7a8008267487bc7a0004926d8018267507bc7d0008267587bc7c8003a075801023a086001023a09680102826a607bcac0007bc7f8007bc8f0007bc9e8003a077001023308209569e001956ac001956ba0017bc7e0008267980050205809d607ff955120fc951700038270d8008275d0008276c8009511e0033200004926d0004926c8004926c0001407000000001efdc6969568c0007b67d800330750205a091105ff4926b8004926b0004926a8003307049568a0004926a00050205c09f304ff39089c010256183f1120039c0102403308b00102286a3308b001022863492610014926080149260001140700000000052f44ec956800017b671801330750205e09af04ff4926f8004926f0004926e8003307049568e0004926e000502060099104ff39089c010256183f1120039c0102403308b0010228083308b001020183883307013309240a0b014926900149268801492680011407000000008cd350e4956880017b6798013307502062094304ff492678018267507b6770018267587b676801330704956860018269607b696001502064091c04ff8267287b6758018267207b6750018267307b674801330724956840018269687b69400150206609f203ff82679800956a00017ba738826788007ba730826780007ba72833074495682001826990007ba92050206809c403ff826770817756177f0c826870480880000133070133096482687833006a090a0b01951140ff7b10b8007b15b0007b16a8009515c0008411e049219800492190004921880049218000059517609518800050206c095f04ff8217687b17188217607b17108017707b17083306b0010383677b170a04013a07b801033a08b001033909c001036f77987a206f88978b20d4ba0a9777206f99989920d49707988820821908d39808821910d39707d48707821818d3a808d48707520719955140ff8210b8008215b0008216a8009511c0003200491150491148491140140700000000a7da8c119518407b1758330750206e09d202ff8217330070090a0401826708816810826950227209c7044911387b18307b17283307049518207b1a2050207409a202ff39089c010256183f0b20039c010240013308b001028388330701330924330076090a0b01951140fd951900027b90b8007b95b0007b96a8009515c0028411e06416807a108279827b087b69307b6a28d4a9077b6b20d4b7075107ae028287187b67588287107b67508287087b674882877b674049263802492630024926280249262002029567000295682002502078090103ff826a0002826708028268100282691802826b587b6bb801826b507b6bb001826b487b6ba801826b407b6ba0017b69d8017b68d0017b67c8019567e0019568c0019569a0017b6ac00150207a092bf78267e0018268e8018269f001826af801492658024926500249264802956c0002491c40027bca787bc9707bc8687bc760956740029568600250207c09f002ff49269801826728956900017b9790008267207b978800956880018267307b978000330750207e095801ff4926780149267001492668013307209568600149266001502080093a01ff9517e08477e07b6738647139089c010256183f0b20039c010240019517e08479e07b691864913307b0010283778399330840330082090a07826a1833028409280802826a185022840902028268387b8a187b89107b8b087b879567400150208609c801ff826748018268400182625801826a5001826b48c87b0b826c40c88c0cd88c08c88b0bd37b09d87b07da9807826850c8a808826958c89202d8a809c82909c88707d88708c89808956900027b9c80007b9b88007b9790007b9898009568800282673850208809dc01ff9567200133084050208a0926fffe956b000182ba3882b83082b92882b72050228c092a075208ad00826840956a00017ba88268487ba8088268507ba810956800018269587ba9187b675850208e091d00ff4926b8008267287b67b0008267207b67a8008267307b67a0004926d8004926d0004926c8003a077801023a088001023a098801024926c0007b67f8007b68f0007b69e8003a079001023308209569e000956ac000956ba0007b67e000826758502090093a02ff955140fd951700028270b8008275b0008276a8009511c002320000492690004926880049268000140700000000052f44ec956880007b67980033075020920975fffe491678491670491668330704956860491660502094095cfffe39089c010256183f0b20039c010240013308b0010283883307013309240a0b33073300960928db02ff330750209609d502ff33070150209809cb02ff8269080182970881981082996f77977a206f88988820d48a0a9877206f98978920d4970798882095691831320282a71882a81082a90882aa6f776f8b6f996faa3202d88708826a6001c88a09d8a90ada880a82687001c88a0ad88a08826b6801c8b808956b185195bc0004320282970881981082996f77977a206f88988820d48a0a9877206f98978920d497079888209569ff07959919013202826a980182a71882a81082a90882aa6f776f886f996faa956b18493202d88708826a9001c88a09d8a90ada880a82688001c88a0ad88a08826b9801c8b808956b184195bc00063202492698013304330349269001826c880182c718826810019589207b693001d8890882690801c8890a7b6a2801d89a0bda880b82c81082c90882ca6f776f886f906fa932026f77977a206f88988820d48a0a9877206f98978920d49707988820320282a782a80882a91082aa186f776f886f996faa3202140b00000000010000001407fcffffff00000000d8780782c99000949794a73202d8700b82677001c8b703d8730cdabb0c82679001c87c0cd87c0b82678001c8b70782691801959901889b01826a1001c8ba0ad4a90b88bb0182680001c88b0bd88b083202d8ab0ac8a90cd89c09daaa09c88909d88908c88707826898017b8b7b8c087b89107b87183307003032027b6840017b6c4801492638018268580198893f826c600197ca01d49a03978901980b3fd49b0b7b6b5001826a2801d33a087b685801d83a088269300132029517e08477e07b679001647183793308408267d8003202d49707d48b09d47909989920d48707977720d49707320282a71882a81082a90882aa6f776f886f996faa956b1851320282649801826380018260880182683001c84807d88708826b2801c83b09c88909d3b90cd8b90bdac80b826c2001c80c0832028267780195770188780182697001c89808d48709889901826a9001c8a9097b6a9001d8a90a826b8001c8ba0a956b1849320282687801958702d88708826a7001c88a09d8a90ada880a82689001c88a0ad88a08826b8001c8b808956b18493202826b180188b98000826ad000db9a08826cd800826ae800d4ca0ada970a93b8ff93baff826be000939b939c8267f000e0a7073202826810019517e08477e07b6798016471818733093f3202d49b0bd48709d4b909989920d4b808978820d498083202956b000182ba880082b9900082b8980082b780009577dcd87807949794a732028269980182970881981082996f77977a206f88988820d48a0a9877206f98978920d4970798882095691821320282970881981082996f7a97a7206f8898882032028268f800d878078268d000948782682001948732026f886f996faa3202826b6801826c700182697801d49c0c826a9801d4ba0ad4ca0a956b000182b96093987bb8800093977bb790003202826a900182a71882a81082a90882aa6f776f8b6f996faa826898017b8a187b89107b8b087b8732029517e08479e07b6998016491320282b7d80082b8e00082b9d00082bac800d49808d4a707d48707320282989800d878078298880094878298800094873202330c3304956a000182a94893989397330b0a491a30093309491a288260500132026479140700000000717b484e330800303202c8ba0a7b6ae80097aa3b989b05d4ab0b8267080182731897993b827a10988805d498076f346fa932026471837933084082678001320282970881981082996f77977a206f88988820d4a8089877206f99979a20d4a7079899203202491130491128491120140700000000717b484e9518207b173833073202c89c0cd89c0b82671001d87909c89407c8b707d4c809d4a707d47909989920d4c707977720d497073202977b3f988c01d4bc0397ac3f987701d4c70797883f989c01d4c80898aa018499019a9c320282a71882a81082a90882aa6f776f886f996faa956b185195bc00013202939b8268f800e0a80882690001e0790782690801e0b909826a1001e0ca0a320298a83f979901d49808826b900198b93f97aa0197bb0132029517e08477e07b679801647183793308403202c89c0cd89c0ad84909c89307c8a707d4c809d4b707d47909989920d4c707977720d497073202d49a0ad48709d4a909989920d4a808978820d498083202d4ca0ada980a3308ffdab807dab80a939c3202956c000182c78268f800d487071408e0ffffff0000000082cb10d88b0882c908949894783202d49707d48a09d47909989920d48707977720d49707320282a71882a81082a90882aa6f776f886f996faa956b1841320282a8587b67e800d8780782a960949782a95094973202d88708826a8001c88a09d8a90ada880a320295690001829a98001407bcffffff00000000d87a0782989000948782988800948732029398939782698801959aff7b6a28018e999599ff7b69200132028267980181773308233202837718f9c867074927f8054927f0054927e8056479140700000000717b484e3202956a000182a998001407bcffffff00000000d8790782a89000948782a88800948732028eb9858801dbb9088e498ecadac90ada780a3202837718f9c8760a95ab0004320282171082181814090000000001000000d37909d48909987a2088aa01948a939a320283771801c8760a95ab0001320283771801c87608958900033202956a000182a80882a7108269f800d4890982abd4b708d49808988820d4b909979920d49808320282a71882a81082a90882aa6f776f886f996faa956b00033202d8b90882634801c9390cc98c0cc97c0c99c03f8407e8033202956b000182bc900082ba70d4ac0782b87882b98000d49808d48707987720d4a808978820d48707320282b75882b86082b95082ba48d49808d4a707d48707320282b71882b82082b91082ba08d49808d4a707d487073202d47b0b140a00000000010000001407e0ffffff00000000d8780782c99000949794b732029517e08479e07b6990016491320282b77882b8800082b97082ba68d49808d4a707d48707320282694801d4980882699801889a80007b6a4801826b6001daab083202956b000182b8980082b98800d4890982ba9000d4a708d49808988820d4a909979920d498083202d8780782a99000949782a9880094973202c88b0bd88b08c8c808d49808d4b709d48909d4b808989920978820d4980832029517e08477e07b67980164713202826a6001826b680182697001d4b909956b000182bc9800d4ac0cd4c9093202d87c07829888009487829860948732028267880195770188780182699001c8980895691841320282b7a00082b8980082b9900082ba8800956b1849320283771801c8760a95ab000332023307800082689801c987093202956a000182a990008267e800d8790782a88000948782a848948732028219821a087b697b6a087b67107b68189551c08210388215308216289511403202c8790bc8ab0bd39b0a7b6bf000d89b09daa709826be800320297773b9878387b6818019a8980003307ff3308ff3202da9b087b68500182688801826b8001d4b808daa7083202da9b087b68800182688801826b7801d4b808daa7083202da9b087b68600182684001d4870782685801daa80732027b67800182676001d487077b6758018267900195798032027b67780182678001d487077b678001826790019579803202491140491138491130140700000000717b484e9518307b174833073202829760956800017b8798008297587b8790008297507b8788008297487b8780003307002032027b67d8007b68e0008267d000d487077b67d000826718019579803307ff3308ff3202956a000182a89000d8780782a88800948782a8509487320233071811c876089589000232029551a0821058821550821648951160320295ab000582b7a80082b8b00080a9b805492aa0057bb998007bb89000320233081829c8860a95ab000732029517e08479e07b698801649132029517e08477e07b67980164718379330820320282699001889a80007b6a6001826b5801dbab08320282b7980082b8a00082b9900082ba8800d49808d4a707d487073202c8b707c88a0ad88a0cc8c7078260e000c8a000d8a00a3202837718f9c8760a95ab00033202837718f9c8760a95ab0002320297a8037b6818018d8980003307ff3308ff3202140b00000000010000001407e0ffffff00000000d878073202e0890882690801e0c909826a1001e0ba0a32029511c07b10387b15307b16289515408411e064768317320283771801c8760a95ab0004320283771801c8760a95ab0002320233071841c8760b95bc0004320233071849c8760a95ab0001320233071849c87608958900053202c9a90cc98c0cc97c0c99c03f82678801d2700732029577c0d8780782a99000949782a9789497320282b73882b84082b93082ba28d49808d4a707d48707320282a71882a81082a90882aa6f7732027bc410647a7bc7187b6460017b639801648464b33202849a40520a195109148d9a40cfa80ad09808d09707d4a707320032009597c0d0780733083200849a40520a195109148d9a40d0a70acf9707cf9808d4a808320032009598c0cf87083307320049922425494b2a252da9944c4949214225a952484992244992244992244992244992244992244992244992244992244992244992542529a524292949a84a494a922449922449922449922449922449922449922449929224294955494a9228496992142429284952929254552529494a5249524444a42449529224152aa5942429a59424951411114544444a92242949929492244942a9a4a4a4489122458a14295294a488882849128490309426a5219188888814114122221111112922484488888846922449222122a25292449224499228494444448848449224494444081140a228498410111121122222a25292449224491289884424099124499224111121440049519288082022212244924a944822924422224484484a9024492a25411211111111110a218249142a69924892208a2a4922494412492249922452904492444955904824491249124924c5482489449224254944441411112222922491a44422894824499224499244241111110a49944212550a45541149aa2a1289d4282289444924914822121149892488880891241111111122892491442291482491442292481249248a48a54444442549444424494a244912912409224244444444240822920882208820222222423249922411114992882422214992444444444c24124110912441442422491011890822482291484492444444880891a41245242212111111224224499024492a45108988888888088510c1240a953492481241145592449288249244922449a420124912255541229124492449249114239124124992942411115144448888489244921289484422121111a190442948a24aa188aa48521415152952241a1149242289482289241249924044101111111111114412492289442291482289442491249248448a522222a2442492888848442211914824490211414444444444201091442010084420222222829848224924492222222244444444442291481011118944a298249244924804021191241011894812888844042210894422112222222222222222912044d1484922a2444488882022222222a288884024894812912411114124888888888868249094244944441421841091248988a820225124491243a91111018c2888088908420421211111018c2888088908420421211111018c2888088908420421211111018c2888088908420421211111018c2888088908420421211111018c28880889084204a15044041051101189084204a1b0a41554250aaa12224444148d0824900824908040020924904022904002092490804002092490400209249040020924904002092449221a4992241145449288082290482412912422820824128944445244043122a2924a2249459254222a112949924455451449119124492491249288882822101111814044202222118844442090522445222222a288884020114844444420a220624428114188848840a844118188888808220291041149124844442291881491888888282222104804121111118888888888888288082522088490041111815089224955118944a2481011115129229144121189244924224944041141442492244922228a88880822892491442292444410400081444444924844444444441009444444041189442911111111898888888820128888880802082090882822222211894422228804222222824824129588882411492222880422222282002212a5444424898888880822222222a22022a2440451641295882222029124114144444444440411914824228248249224124492244992442412894844441011914025125144444444441144245194484444444444040104121129224994524a24a948924a44458a4812a98a129188244944228924128944444404222222109188440422221289882412118188482449298988888888882222028144944444444444442451448a88888848241285281a2949229244244944349202111151101112118410c1240a158928222210455124514444444441442291441444914954221a49528124298248101111814444444444144144111181a42411111111218410111191888808224124492011111122121111114504922449228a888810114422128922124444442011111111111145242222221a11484411110922222222908808222222111111514420499224a288880811414444444444828888082422229148448a484444441411110824a288104514111148129182881221111141084910111108958822220211111111414422224144444444922449444444041011111111444424904844448488888820904844448448441048248488880022221191888888282222104804121111114822924841c488502282100911815089220211111111448c44241289481011111148444444444444118988888822220211114912511211111111111191222222222222222222220a2246841211245108118c240a95289254159148248a2022222292482289244922229148441444914954a248521545522249244922492249124922492449244924919208229048242289249144222222228288888804222289444424494410814492248904111191244912114024129188888888201289042a9188882222222222884892a2442222222222224804a5121111118d0824a2242222222222222245444444444444241291828811a144044914229844a112514444202291481441444444124924912449245192444422111109444444444424a5082291482402118944229188082291482422892491442222222282282222222292481249248a8888082222222222892411914422222222101111111111912022224992244944444444444444101191405422115144229188441091402211118944221244228000129548444444444444041191a4948888882022828848248924121149444444448a888888404444444452249144222222a2888840201145448288888888888810114492442291884820908824892291880491249088444444444410a948922425121111d1882449928822222244441011894824121109222249028988482412112922111111d18840224a22222222222291484444444424128944448a88884824922422128944440a22224289882084082651a84844111181288a22894214514444202222220a22222222a24444045164128128222210498a082222229284884492482449121189888848228968a424898888888888888288885022228822930844111181288a2289228a8808442411298888482452222282283289409148245122491289884849222549291541c44824221289884422119188888848042212444444041211212222128888888868444424490412111111111111111181084444444444248888880824222291484414918888888822028144141111112282881111111191202222229088482222222222122511111191482422128d8888084922491289449248929292442012492222222212051123428908428860442289425424a28888404444440411232291484424524414448c082522882293084411118148928820224922222222222222220211111191441249244992481011499224492222028888880822221248242242444410110924121121228888082080542221224208111141442451944844041011414450a211111151444420908822224144444420111110119188888868442011484444444420220a222242898820894224440442a5485251144524292288880844924492484444101189442211094444444410118944221109444444441011111111119140444444041111119144928848221111111111114444444444444482888888489224491411111111114424024922228a4422111111444420494444229188481011400089529288882291484444108948524944444444444444101140a29444444444444444041141518988888822220211114912518888441181442291884823922425224a12492291a4129188464424252292482412499224228948224994244992248988441181884422119128221011111111a28822021149a4206244281141084910111108958822021111111144249120922449922449228048440411110924895822121104924444880802494288888888444444442302492089888888888828880889084224440442258a88084444444410110922222290441111119188888868442089221109222222229044848888484444441411110824812422222222222222220a221225128410c1240a158928222210111111444c241289442245a420922891208a4404228a88084444440451444444444444444444444444042222222aa9249254244925a29248a424499240555195141191489248249144228988282210111181884424221011914844249188084444229294222912111111450422229224512422424410111111119120922490444422918814918888884644442449a24844848808222222914844248848924012914824225244222222228a0804922812092222222222222242441011111111894444028124222222221289481049024924222222222288a88824495222111111514444209004928834222292249120229224499224220288888808222212481211918888202222924a121121220824091111428888884444444411118140122509202222222222222222624444442492a488288818114a4410420493285424a2888840144591449148442222891444442291121141148908441411118824451031222222222212444444049288888888882822111111514444209004928888084444444414448c0825220891101108952822104912114404220922922490444422918814918888882822221048a224111111111111111129222222222244d1482012894422222222222222222210092222492089081111248252232222a28888402009241111114822924841c488502282400849101111089588222202118944a2082222222222222222021123222222221244444444444444444424292282082411914824224124128924128988888828220a92288a8c4804a2aa485255442212890248001189442223128924128924924424888888482222222949444410114492244912499224124120922422882411895212499288882808449244041149208988884444440491449248221149222288480249444424924404914492482211498a8820220924111111912422882449922449444444444414111144229148228944241089944844221111252222228a88080492401211118188888888828811a14404811092202222102a114544042212894411442449241289880411239148242241444444444444444444441111442089888888880822914824914844442452440a92288a0c20221281a82a925415918844a200228088442291118944128944124922124492241111914452924a9224499224222212114404912449924444442489888808029124114144244a4944442492440481489288202292282511119148121144922449922422222222a2888820128944124924228148a4442212898828111111115110312294882089a2c824025144442092144144444444444444928848108124894892882044118da44044444414448c08252288242a328940141111882445101111111111119124221244209244244944101111228288248988888888888888082210111111112222222288888888222222a228511225898844914444928888482289249248921109c4884824124944914814115144442022222222225144442022222222222222492291482412891411111141244992244922121189242992448a4822499224492451a2244a921022222242888888888888880245258a245194248904222222499224111140444444202222419288458488884020494422120824099104904820112889264a2951224954244925a252449248141515251191248944124922898888084444442010110844201211812029221111a1401285488808844a415422a5a224918c441249922491244912450482442481242222222222029144924822914492482251a402a51189489224294945118888226a44242d4944a0482311818888084404220291888844221289141181221512312292249288442291481249124924924492481445144910494a1291449244129148124524920812499264444444880804222222222222424420021111111111444444244924128988481088482412111185884020912449228188888824499244444444441111818824481211454444444404229244294944444444440422110104904a121191482422021149a29444442412894820225054221141444404111111412422229188442245445011448c88248992884489449244244924914812492291484422490491a42411492449241189245144228924912491242322228188888812254a944852912495882a4524119148121149554511114922124924452289888882888808221291882022229188482211114444229294224522114144440411414410898848242291481111540411232249a2242291482492449244128924912412894424924410494a129144924412914812452492081249242322221149a294522249459254222a45248954451511912422914492482222228888882088082222124124228220a5489140242288888820228808221111894424122922822295a42462442449241189442291249224924824892491288a289244924422494922924892482212492222914492489248921111111111111111111111111111111111114444942449928824222549924844124992244992222202452522224281240a91100942a5202a9152519248462289244992489224a28840908824482222494444440422892491442289249144a248052549a2945222a948924a51299244a2282a8924492289249144444404111111041141104124228220292231922449242222222222228248209224499224111121222210892092484444444444444404111189184992241211111111111111440211914892244922222244442022914812492422225292248a880822226244522491c424892449922491484410111141441011041144222208824422492449249148124922914844924492241249942422892489242291248a481249224922490649224912491289a2a4a42489204214512488482205224684121148a21009912054228a48044992245192084424494444444444444444101111111111111188281244442412898888082281884422918822912822a2884410111111111111111111514444442412292222228248914492244911494492484a928824499224492451a2244a9210218488884822220245254992249248124924892810118848224992249124111111115181aa88442291244992002280448c4422894492244944442292244922021111119124499224118120898888241111114520922449294904224924514a8a8888449288402492a49424021149949288884824890844229148228944249124924824912492484444145195a42449228924914444442810118848224992241111111111914404aa228948242291241149228944229144924822894492489200124046241249241249248948442211494424922422114992249144244992244992242249a44044229224492210319224922449922422102411111111114520922449294904224924514a8a88884444440422099244204822222291242210499024024112111189241181488224221011895212914824121111110422824822111111111111454404111189449248221149248988241291449288884822111191a4442282888808228288208820121141102412492249228944924812894422922492249148a22411492449241189245144920812493248922449922429294902894824491289242949929424a248101111512022a2440804512412441189204992244a12818888888888888848222241044144444404228a041149a440c488502202411209a288449020128888888888888888888888208288888888888840449120228914888828110241322241149108124402111111111111111111111144902411491211882812444444148818114a44204822411491081244021111914824129124221244902411491211882812444444148818114a44204822411409221011118944221191444482088248928840444488084444444444444444444404112449444488888888404444880844444492244924119120222222224224494420a248902452206212251288242a1209221a492a88482412450251444444444444440411118924499208222222220a441a119100024854121111118988888808444482241124128988281011409024824422118902914044444444441249922411111111111144924892244944444444441488484492244911490049524944024534228948924424114992249524624444040288481425111111111111110522021191544a2589882492441289489288401245441111111189448a888820464424492212919424924404228288241181884044241149242291482412111111118808444444249124924844444494242210118888884822492491489224890824451249228944924844118188912491244992248908444454a22449248988884044444444444410111151299248441249444422494414882232894a14492449224924492a459524912422892491244912294924912449a2a42a4922492492248948922449a2914812892449228a442211491211882492441229118948129144244992a42449228a4051892422499224491445a0a844228288880822222282484444221189442222888848296424924412492491249224924824892491884422124990244a12119124492289482449222291449248128924198988880804100104111111111111118188202222229148440402082222124922110944048a4a1249221189884824894881244a8124aa148a88882455451589a411914422928844221245229244924492244912111188888888481211882492441289442291441289482249249188941211112592481211118988481249224992244992241181884422918824220922920822221149828848449244452291484444440492249124922411111189240124a9884420229124494692449244248944229220229204119188244144242288229148249248241211113149220251249592942412914844444444049140c4888888884492248988888888888840441240028844514422462449221188248848c444922492400011010411891891482422818804111131229148440211d10022888888888888888840441189202949880821444444444444042281881111111189249124914892442202118d880410898a1144148818114a44208ac8241a4a25944a2895502aa15442a94444144044818811a14404a2884ca2a15442a944440011052222118110414848440410512022121108118484845209a5124a25944a2895502aa15442a94434928288888848448188880889440482282293a84414092210111189489288404444212210111149922449222222449288081495502aa15442a98452495442a98452495442a9845209a5124a25944a289580888888884604114a25944a2895502aa15442a9845209a5124a25944a2895502aa15442a9845209a5124a25944a2895502aa15442a9845209a5124a25944a2895502aa15442a9845209a5124a25944a2895502aa15442a9845209a5121101444481882212414492880422221289242212888848245222220251442449228a484444144044148888881211111111510011512022224a4404a2882425114524a2884410512062442811811041484820222222a248104428552855a91111018c281011121188223289684444108902112342890884084261493422228844818811a144444444049128103122948840149149449120215108898844444444101189440011111122021111111111114922898848242210491249444444442222841011518888a840a84a4444108902112342898888880822512022a244444444049128103122948888882489444412094414910892928488104244224922220245258888081181884422114944444444242210914444444444082122490a1111150855898828808802111125221022080989888824294992248924494a2490244992242222128944240a240920a94892a4a22449922491a44052a01448922449922449922480542422492009204992244992244992924444441345820485521409124582048552342222524a9224494a241289884044449224499224892449921408114c52a894a49224499224499224494a929224254992929424111151444400230a4484440442044349344992a424499224294992945292a0209024251022184aa24992a4548a244924499224490249521048921208110c25d18848a49292244992244992244992a4929224499224499224818848140492481208110c25d188249192a4888888884820922429118188888888888888089224499244444424128948042291248024159188148948a04a922425469224492212894844440449922445248922128944a4409242049328548a2a92244992a4aa9422914a922423124992244992441411814492489224924492244992442449924820924812492492481249a4482a25a232222292a424254992449224952449495244445420490009202945128944240249528a244992244992922492082449521211114d9248254992244949922449922429494a922451920860522089248110c150128d888854922449812449022182490a956892541011910824499212111125a9a4a4244992244992a4242549824092944088602889264992a4929224499224499294244992a424499282401249022182a1241a1111915292480a20499224128944118944240a44442202214430490a9544892448928840444444924812492249922411894844a240442422104992449224299224912432492551220992249148242202918844240a44442202495291492a89124990244520222212499244224992888888042281489220228a4422128148442211894408211111211111118888886844041051202212110811844211114044818848442044100a4b1a1101441488442291082412894422109148241109a4484c128d888844444804922409d51042294949922449121111250920295034294892241022184aa21111112925491249929488081181888844229188888888202222222292242210894844a24044242290a410c124854a9448822429021111499224499224494444440291402449108992249204229148444408212222242222818888884644001105922409840886928a28904024959294244a525589249144224a2a2529494491a4aa2891249248445111894422912455554a52924a5255000124aa44924822914492484a9224519228222291248948244aa2122549929254154544249124891449248944225124912492481411894892a8489144a52449524444245524959294244a2aa54814551511892452144592aa224925511111498a445115a944890a204a248924495589924a494a529200924a22499224294992244925a92aa2229148a42491a4242a25499224494992a4244945910092544992a424554589a45422491101248aaa4894284a91882880220248145552499128092049aa481489228994244949aa8a12491245248924494a9224254992124000892a894a24498a4444a48848244952a2a8244992a4242a22129194281549248a88882251448a8844a9529224494922899288a44444522222291189149188149188942480a412914824a2884844922212a5225192a48888882812255149548a88481111494a92488a4491281149010490128994244915892251248a449128492225512a499294a44a89a89224492aa92449924a0a00"},"methodIdentifiers":{"CO2_PER_KG()":"58f6e24c","TOKENS_PER_10KG()":"c76a7a0c","allowance(address,address)":"dd62ed3e","approve(address,uint256)":"095ea7b3","balanceOf(address)":"70a08231","buyCarbonCredits(address,uint256,uint256)":"e7338860","carbonCreditsClaimed(address)":"b3f333d5","carbonCreditsEarned(address)":"c2ca1d5b","claimProductTokens(uint256)":"c5a80c7e","corporateCreditsPurchased(address)":"bf30eed4","decimals()":"313ce567","farmers(address)":"401b2168","getAvailableCarbonCredits(address)":"e0353e27","getGlobalStats()":"6b4169c3","getImpact(address)":"fb6937de","getWasteHistory(address)":"a2228379","getWorkerPayments(address)":"b63de51f","globalCO2Saved()":"0c64df0c","globalWasteKg()":"231f96e4","name()":"06fdde03","owner()":"8da5cb5b","processWaste(uint256,string,uint256,uint256)":"c652e343","register()":"1aa3a008","renounceOwnership()":"715018a6","symbol()":"95d89b41","totalCarbonCreditsSold()":"1a7bf350","totalFarmers()":"6017509b","totalSupply()":"18160ddd","transfer(address,uint256)":"a9059cbb","transferFrom(address,address,uint256)":"23b872dd","transferOwnership(address)":"f2fde38b","verifiedFarmers(address)":"0c3d272c","wasteHistory(address,uint256)":"66d80c9a","workerPayments(address,uint256)":"c1b24f8d"}},"hash":"4c916800304a75fd862fb9cee116a450c3f56dd6feba54fe050e5a281d6d60a6","factoryDependencies":{}}}}